{
  "_format": "hh-sol-artifact-1",
  "contractName": "ArbitratorsRegistry",
  "sourceName": "contracts/ArbitratorsRegistry.sol",
  "abi": [
    {
      "inputs": [],
      "stateMutability": "nonpayable",
      "type": "constructor"
    },
    {
      "inputs": [
        {
          "internalType": "address",
          "name": "owner",
          "type": "address"
        }
      ],
      "name": "OwnableInvalidOwner",
      "type": "error"
    },
    {
      "inputs": [
        {
          "internalType": "address",
          "name": "account",
          "type": "address"
        }
      ],
      "name": "OwnableUnauthorizedAccount",
      "type": "error"
    },
    {
      "anonymous": false,
      "inputs": [
        {
          "indexed": true,
          "internalType": "address",
          "name": "arbitrator",
          "type": "address"
        }
      ],
      "name": "ArbitratorAdded",
      "type": "event"
    },
    {
      "anonymous": false,
      "inputs": [
        {
          "indexed": true,
          "internalType": "address",
          "name": "arbitrator",
          "type": "address"
        }
      ],
      "name": "ArbitratorRemoved",
      "type": "event"
    },
    {
      "anonymous": false,
      "inputs": [
        {
          "indexed": true,
          "internalType": "address",
          "name": "previousOwner",
          "type": "address"
        },
        {
          "indexed": true,
          "internalType": "address",
          "name": "newOwner",
          "type": "address"
        }
      ],
      "name": "OwnershipTransferred",
      "type": "event"
    },
    {
      "inputs": [
        {
          "internalType": "address",
          "name": "_arbitrator",
          "type": "address"
        }
      ],
      "name": "addArbitrator",
      "outputs": [],
      "stateMutability": "nonpayable",
      "type": "function"
    },
    {
      "inputs": [],
      "name": "arbitratorCount",
      "outputs": [
        {
          "internalType": "uint256",
          "name": "",
          "type": "uint256"
        }
      ],
      "stateMutability": "view",
      "type": "function"
    },
    {
      "inputs": [
        {
          "internalType": "uint256",
          "name": "",
          "type": "uint256"
        }
      ],
      "name": "arbitratorList",
      "outputs": [
        {
          "internalType": "address",
          "name": "",
          "type": "address"
        }
      ],
      "stateMutability": "view",
      "type": "function"
    },
    {
      "inputs": [],
      "name": "getArbitrators",
      "outputs": [
        {
          "internalType": "address[]",
          "name": "",
          "type": "address[]"
        }
      ],
      "stateMutability": "view",
      "type": "function"
    },
    {
      "inputs": [
        {
          "internalType": "address",
          "name": "",
          "type": "address"
        }
      ],
      "name": "isArbitrator",
      "outputs": [
        {
          "internalType": "bool",
          "name": "",
          "type": "bool"
        }
      ],
      "stateMutability": "view",
      "type": "function"
    },
    {
      "inputs": [],
      "name": "owner",
      "outputs": [
        {
          "internalType": "address",
          "name": "",
          "type": "address"
        }
      ],
      "stateMutability": "view",
      "type": "function"
    },
    {
      "inputs": [
        {
          "internalType": "address",
          "name": "_arbitrator",
          "type": "address"
        }
      ],
      "name": "removeArbitrator",
      "outputs": [],
      "stateMutability": "nonpayable",
      "type": "function"
    },
    {
      "inputs": [],
      "name": "renounceOwnership",
      "outputs": [],
      "stateMutability": "nonpayable",
      "type": "function"
    },
    {
      "inputs": [
        {
          "internalType": "address",
          "name": "newOwner",
          "type": "address"
        }
      ],
      "name": "transferOwnership",
      "outputs": [],
      "stateMutability": "nonpayable",
      "type": "function"
    }
  ],
  "bytecode": "0x60808060405234610155573315610142575f8054336001600160a01b0319821681178355916001600160a01b03909116907f8be0079c531659141344cd1fd0a4f28419497f9722a3daafe3b4186f6b6457e09080a3335f52600160205260405f20600160ff198254161790556002546801000000000000000081101561012e57600181018060025581101561011a5760025f527f405787fa12a823e0f2b7631cc41b3ba8828b3321ca811111fa75cd3aa3bb5ace0180546001600160a01b031916331790556003545f19811461010657600101600355337ffc4dfef69004b5e3aba1eb4a8b1e53b893418fda232d9f60574a6c62f30c449d5f80a26106df908161015a8239f35b634e487b7160e01b5f52601160045260245ffd5b634e487b7160e01b5f52603260045260245ffd5b634e487b7160e01b5f52604160045260245ffd5b631e4fbdf760e01b5f525f60045260245ffd5b5f80fdfe60806040526004361015610011575f80fd5b5f3560e01c806301fabd7514610517578063428ac57f146104fa578063715018a6146104a3578063894c3b1f146103b25780638da5cb5b1461038b578063973ad2701461018c5780639f6bd2a91461014b578063a23ae203146101095763f2fde38b1461007c575f80fd5b34610105576020366003190112610105576004356001600160a01b03811690819003610105576100aa610683565b80156100f2575f80546001600160a01b03198116831782556001600160a01b0316907f8be0079c531659141344cd1fd0a4f28419497f9722a3daafe3b4186f6b6457e09080a3005b631e4fbdf760e01b5f525f60045260245ffd5b5f80fd5b346101055760203660031901126101055760043560025481101561010557610132602091610657565b905460405160039290921b1c6001600160a01b03168152f35b34610105576020366003190112610105576004356001600160a01b03811690819003610105575f526001602052602060ff60405f2054166040519015158152f35b34610105576020366003190112610105576004356001600160a01b03811690819003610105576101ba610683565b805f52600160205260ff60405f20541615610352576001600354111561030d57805f52600160205260405f2060ff19815416905560035480156102f2575f19016003555f5b6002549081811015610306578261021582610657565b905460039190911b1c6001600160a01b0316146102365760019150016101ff565b5f1982019182116102f25761026861025061028c93610657565b905460039190911b1c6001600160a01b031691610657565b81546001600160a01b0393841660039290921b91821b9390911b1916919091179055565b60025480156102de575f19016102a181610657565b81549060018060a01b039060031b1b191690556002555b7f715484adb5bc9cc29af577725dbf8486d0b82eca3ba79f65846e92ff38ef32b55f80a2005b634e487b7160e01b5f52603160045260245ffd5b634e487b7160e01b5f52601160045260245ffd5b50506102b8565b60405162461bcd60e51b815260206004820152601d60248201527f43616e6e6f742072656d6f7665206c6173742061726269747261746f720000006044820152606490fd5b60405162461bcd60e51b81526020600482015260116024820152702737ba1030b71030b93134ba3930ba37b960791b6044820152606490fd5b34610105575f366003190112610105575f546040516001600160a01b039091168152602090f35b34610105575f366003190112610105576040518060206002549182815201809160025f527f405787fa12a823e0f2b7631cc41b3ba8828b3321ca811111fa75cd3aa3bb5ace905f5b81811061048457505050829003601f01601f191682019167ffffffffffffffff8311818410176104705790829182604052602083019060208452518091526040830191905f5b81811061044e575050500390f35b82516001600160a01b0316845285945060209384019390920191600101610440565b634e487b7160e01b5f52604160045260245ffd5b82546001600160a01b03168452602090930192600192830192016103fa565b34610105575f366003190112610105576104bb610683565b5f80546001600160a01b0319811682556001600160a01b03167f8be0079c531659141344cd1fd0a4f28419497f9722a3daafe3b4186f6b6457e08280a3005b34610105575f366003190112610105576020600354604051908152f35b34610105576020366003190112610105576004356001600160a01b0381169081810361010557610545610683565b811561061257815f52600160205260ff60405f2054166105d557815f52600160205260405f20600160ff1982541617905560025490680100000000000000008210156104705761026882600161059e9401600255610657565b6003545f1981146102f2576001016003557ffc4dfef69004b5e3aba1eb4a8b1e53b893418fda232d9f60574a6c62f30c449d5f80a2005b60405162461bcd60e51b815260206004820152601560248201527420b63932b0b23c9030b71030b93134ba3930ba37b960591b6044820152606490fd5b60405162461bcd60e51b815260206004820152601a60248201527f496e76616c69642061726269747261746f7220616464726573730000000000006044820152606490fd5b60025481101561066f5760025f5260205f2001905f90565b634e487b7160e01b5f52603260045260245ffd5b5f546001600160a01b0316330361069657565b63118cdaa760e01b5f523360045260245ffdfea264697066735822122077ff55cbf445b4c9a365b9d05546bf8b8b9d58915e3247cd0e284a7c3a4ec46b64736f6c634300081c0033",
  "linkReferences": {},
  "deployedLinkReferences": {}
}