{
  "_format": "hh-sol-artifact-1",
  "contractName": "BridgeAdapter",
  "sourceName": "contracts/BridgeAdapter.sol",
  "abi": [
    {
      "inputs": [
        {
          "internalType": "address",
          "name": "_waltBridge",
          "type": "address"
        },
        {
          "internalType": "address",
          "name": "_complianceManager",
          "type": "address"
        }
      ],
      "stateMutability": "nonpayable",
      "type": "constructor"
    },
    {
      "inputs": [
        {
          "internalType": "address",
          "name": "owner",
          "type": "address"
        }
      ],
      "name": "OwnableInvalidOwner",
      "type": "error"
    },
    {
      "inputs": [
        {
          "internalType": "address",
          "name": "account",
          "type": "address"
        }
      ],
      "name": "OwnableUnauthorizedAccount",
      "type": "error"
    },
    {
      "inputs": [],
      "name": "ReentrancyGuardReentrantCall",
      "type": "error"
    },
    {
      "inputs": [
        {
          "internalType": "address",
          "name": "token",
          "type": "address"
        }
      ],
      "name": "SafeERC20FailedOperation",
      "type": "error"
    },
    {
      "anonymous": false,
      "inputs": [
        {
          "indexed": true,
          "internalType": "bytes32",
          "name": "lockId",
          "type": "bytes32"
        },
        {
          "indexed": false,
          "internalType": "address",
          "name": "token",
          "type": "address"
        },
        {
          "indexed": false,
          "internalType": "uint256",
          "name": "amount",
          "type": "uint256"
        },
        {
          "indexed": false,
          "internalType": "address",
          "name": "recipient",
          "type": "address"
        },
        {
          "indexed": false,
          "internalType": "bytes32",
          "name": "destinationChain",
          "type": "bytes32"
        }
      ],
      "name": "AssetBridged",
      "type": "event"
    },
    {
      "anonymous": false,
      "inputs": [
        {
          "indexed": true,
          "internalType": "bytes32",
          "name": "lockId",
          "type": "bytes32"
        },
        {
          "indexed": false,
          "internalType": "address",
          "name": "token",
          "type": "address"
        },
        {
          "indexed": false,
          "internalType": "uint256",
          "name": "amount",
          "type": "uint256"
        },
        {
          "indexed": false,
          "internalType": "address",
          "name": "owner",
          "type": "address"
        },
        {
          "indexed": false,
          "internalType": "bytes32",
          "name": "destinationChain",
          "type": "bytes32"
        }
      ],
      "name": "AssetLocked",
      "type": "event"
    },
    {
      "anonymous": false,
      "inputs": [
        {
          "indexed": true,
          "internalType": "bytes32",
          "name": "lockId",
          "type": "bytes32"
        },
        {
          "indexed": false,
          "internalType": "address",
          "name": "token",
          "type": "address"
        },
        {
          "indexed": false,
          "internalType": "uint256",
          "name": "amount",
          "type": "uint256"
        },
        {
          "indexed": false,
          "internalType": "address",
          "name": "recipient",
          "type": "address"
        },
        {
          "indexed": false,
          "internalType": "bytes32",
          "name": "sourceChain",
          "type": "bytes32"
        }
      ],
      "name": "AssetReceived",
      "type": "event"
    },
    {
      "anonymous": false,
      "inputs": [
        {
          "indexed": true,
          "internalType": "bytes32",
          "name": "lockId",
          "type": "bytes32"
        },
        {
          "indexed": false,
          "internalType": "address",
          "name": "token",
          "type": "address"
        },
        {
          "indexed": false,
          "internalType": "uint256",
          "name": "tokenId",
          "type": "uint256"
        },
        {
          "indexed": false,
          "internalType": "uint256",
          "name": "amount",
          "type": "uint256"
        },
        {
          "indexed": false,
          "internalType": "address",
          "name": "recipient",
          "type": "address"
        },
        {
          "indexed": false,
          "internalType": "bytes32",
          "name": "destinationChain",
          "type": "bytes32"
        }
      ],
      "name": "ERC1155AssetBridged",
      "type": "event"
    },
    {
      "anonymous": false,
      "inputs": [
        {
          "indexed": true,
          "internalType": "bytes32",
          "name": "lockId",
          "type": "bytes32"
        },
        {
          "indexed": false,
          "internalType": "address",
          "name": "token",
          "type": "address"
        },
        {
          "indexed": false,
          "internalType": "uint256",
          "name": "tokenId",
          "type": "uint256"
        },
        {
          "indexed": false,
          "internalType": "uint256",
          "name": "amount",
          "type": "uint256"
        },
        {
          "indexed": false,
          "internalType": "address",
          "name": "owner",
          "type": "address"
        },
        {
          "indexed": false,
          "internalType": "bytes32",
          "name": "destinationChain",
          "type": "bytes32"
        }
      ],
      "name": "ERC1155AssetLocked",
      "type": "event"
    },
    {
      "anonymous": false,
      "inputs": [
        {
          "indexed": true,
          "internalType": "bytes32",
          "name": "lockId",
          "type": "bytes32"
        },
        {
          "indexed": false,
          "internalType": "address",
          "name": "token",
          "type": "address"
        },
        {
          "indexed": false,
          "internalType": "uint256",
          "name": "tokenId",
          "type": "uint256"
        },
        {
          "indexed": false,
          "internalType": "uint256",
          "name": "amount",
          "type": "uint256"
        },
        {
          "indexed": false,
          "internalType": "address",
          "name": "recipient",
          "type": "address"
        },
        {
          "indexed": false,
          "internalType": "bytes32",
          "name": "sourceChain",
          "type": "bytes32"
        }
      ],
      "name": "ERC1155AssetReceived",
      "type": "event"
    },
    {
      "anonymous": false,
      "inputs": [
        {
          "indexed": true,
          "internalType": "address",
          "name": "previousOwner",
          "type": "address"
        },
        {
          "indexed": true,
          "internalType": "address",
          "name": "newOwner",
          "type": "address"
        }
      ],
      "name": "OwnershipTransferred",
      "type": "event"
    },
    {
      "inputs": [],
      "name": "FINOVATE_CHAIN",
      "outputs": [
        {
          "internalType": "bytes32",
          "name": "",
          "type": "bytes32"
        }
      ],
      "stateMutability": "view",
      "type": "function"
    },
    {
      "inputs": [],
      "name": "KATANA_CHAIN",
      "outputs": [
        {
          "internalType": "bytes32",
          "name": "",
          "type": "bytes32"
        }
      ],
      "stateMutability": "view",
      "type": "function"
    },
    {
      "inputs": [],
      "name": "POLYGON_POS_CHAIN",
      "outputs": [
        {
          "internalType": "bytes32",
          "name": "",
          "type": "bytes32"
        }
      ],
      "stateMutability": "view",
      "type": "function"
    },
    {
      "inputs": [],
      "name": "POLYGON_ZKEVM_CHAIN",
      "outputs": [
        {
          "internalType": "bytes32",
          "name": "",
          "type": "bytes32"
        }
      ],
      "stateMutability": "view",
      "type": "function"
    },
    {
      "inputs": [],
      "name": "aggLayer",
      "outputs": [
        {
          "internalType": "contract IAggLayer",
          "name": "",
          "type": "address"
        }
      ],
      "stateMutability": "view",
      "type": "function"
    },
    {
      "inputs": [
        {
          "internalType": "address",
          "name": "token",
          "type": "address"
        },
        {
          "internalType": "uint256",
          "name": "tokenId",
          "type": "uint256"
        },
        {
          "internalType": "uint256",
          "name": "amount",
          "type": "uint256"
        },
        {
          "internalType": "bytes32",
          "name": "destinationChain",
          "type": "bytes32"
        },
        {
          "internalType": "address",
          "name": "destinationContract",
          "type": "address"
        },
        {
          "internalType": "address",
          "name": "recipient",
          "type": "address"
        }
      ],
      "name": "aggLayerTransferERC1155",
      "outputs": [],
      "stateMutability": "nonpayable",
      "type": "function"
    },
    {
      "inputs": [
        {
          "internalType": "address",
          "name": "token",
          "type": "address"
        },
        {
          "internalType": "uint256",
          "name": "amount",
          "type": "uint256"
        },
        {
          "internalType": "bytes32",
          "name": "destinationChain",
          "type": "bytes32"
        },
        {
          "internalType": "address",
          "name": "destinationContract",
          "type": "address"
        },
        {
          "internalType": "address",
          "name": "recipient",
          "type": "address"
        }
      ],
      "name": "aggLayerTransferERC20",
      "outputs": [],
      "stateMutability": "nonpayable",
      "type": "function"
    },
    {
      "inputs": [
        {
          "internalType": "bytes32",
          "name": "lockId",
          "type": "bytes32"
        },
        {
          "internalType": "address",
          "name": "recipient",
          "type": "address"
        }
      ],
      "name": "bridgeAsset",
      "outputs": [],
      "stateMutability": "nonpayable",
      "type": "function"
    },
    {
      "inputs": [
        {
          "internalType": "bytes32",
          "name": "lockId",
          "type": "bytes32"
        },
        {
          "internalType": "address",
          "name": "recipient",
          "type": "address"
        }
      ],
      "name": "bridgeERC1155Asset",
      "outputs": [],
      "stateMutability": "nonpayable",
      "type": "function"
    },
    {
      "inputs": [],
      "name": "complianceManager",
      "outputs": [
        {
          "internalType": "contract ComplianceManager",
          "name": "",
          "type": "address"
        }
      ],
      "stateMutability": "view",
      "type": "function"
    },
    {
      "inputs": [
        {
          "internalType": "address",
          "name": "token",
          "type": "address"
        },
        {
          "internalType": "uint256",
          "name": "amount",
          "type": "uint256"
        }
      ],
      "name": "emergencyWithdraw",
      "outputs": [],
      "stateMutability": "nonpayable",
      "type": "function"
    },
    {
      "inputs": [
        {
          "internalType": "address",
          "name": "token",
          "type": "address"
        },
        {
          "internalType": "uint256",
          "name": "tokenId",
          "type": "uint256"
        },
        {
          "internalType": "uint256",
          "name": "amount",
          "type": "uint256"
        }
      ],
      "name": "emergencyWithdrawERC1155",
      "outputs": [],
      "stateMutability": "nonpayable",
      "type": "function"
    },
    {
      "inputs": [
        {
          "internalType": "address",
          "name": "token",
          "type": "address"
        },
        {
          "internalType": "uint256",
          "name": "tokenId",
          "type": "uint256"
        },
        {
          "internalType": "uint256",
          "name": "amount",
          "type": "uint256"
        },
        {
          "internalType": "bytes32",
          "name": "destinationChain",
          "type": "bytes32"
        }
      ],
      "name": "lockERC1155ForBridge",
      "outputs": [
        {
          "internalType": "bytes32",
          "name": "",
          "type": "bytes32"
        }
      ],
      "stateMutability": "nonpayable",
      "type": "function"
    },
    {
      "inputs": [
        {
          "internalType": "address",
          "name": "token",
          "type": "address"
        },
        {
          "internalType": "uint256",
          "name": "amount",
          "type": "uint256"
        },
        {
          "internalType": "bytes32",
          "name": "destinationChain",
          "type": "bytes32"
        }
      ],
      "name": "lockForBridge",
      "outputs": [
        {
          "internalType": "bytes32",
          "name": "",
          "type": "bytes32"
        }
      ],
      "stateMutability": "nonpayable",
      "type": "function"
    },
    {
      "inputs": [
        {
          "internalType": "bytes32",
          "name": "",
          "type": "bytes32"
        }
      ],
      "name": "lockedAssets",
      "outputs": [
        {
          "internalType": "address",
          "name": "token",
          "type": "address"
        },
        {
          "internalType": "uint256",
          "name": "amount",
          "type": "uint256"
        },
        {
          "internalType": "address",
          "name": "owner",
          "type": "address"
        },
        {
          "internalType": "uint256",
          "name": "timestamp",
          "type": "uint256"
        }
      ],
      "stateMutability": "view",
      "type": "function"
    },
    {
      "inputs": [
        {
          "internalType": "bytes32",
          "name": "",
          "type": "bytes32"
        }
      ],
      "name": "lockedERC1155Assets",
      "outputs": [
        {
          "internalType": "address",
          "name": "token",
          "type": "address"
        },
        {
          "internalType": "uint256",
          "name": "tokenId",
          "type": "uint256"
        },
        {
          "internalType": "uint256",
          "name": "amount",
          "type": "uint256"
        },
        {
          "internalType": "address",
          "name": "owner",
          "type": "address"
        },
        {
          "internalType": "uint256",
          "name": "timestamp",
          "type": "uint256"
        }
      ],
      "stateMutability": "view",
      "type": "function"
    },
    {
      "inputs": [
        {
          "internalType": "address",
          "name": "operator",
          "type": "address"
        },
        {
          "internalType": "address",
          "name": "from",
          "type": "address"
        },
        {
          "internalType": "uint256[]",
          "name": "ids",
          "type": "uint256[]"
        },
        {
          "internalType": "uint256[]",
          "name": "values",
          "type": "uint256[]"
        },
        {
          "internalType": "bytes",
          "name": "data",
          "type": "bytes"
        }
      ],
      "name": "onERC1155BatchReceived",
      "outputs": [
        {
          "internalType": "bytes4",
          "name": "",
          "type": "bytes4"
        }
      ],
      "stateMutability": "pure",
      "type": "function"
    },
    {
      "inputs": [
        {
          "internalType": "address",
          "name": "operator",
          "type": "address"
        },
        {
          "internalType": "address",
          "name": "from",
          "type": "address"
        },
        {
          "internalType": "uint256",
          "name": "id",
          "type": "uint256"
        },
        {
          "internalType": "uint256",
          "name": "value",
          "type": "uint256"
        },
        {
          "internalType": "bytes",
          "name": "data",
          "type": "bytes"
        }
      ],
      "name": "onERC1155Received",
      "outputs": [
        {
          "internalType": "bytes4",
          "name": "",
          "type": "bytes4"
        }
      ],
      "stateMutability": "pure",
      "type": "function"
    },
    {
      "inputs": [],
      "name": "owner",
      "outputs": [
        {
          "internalType": "address",
          "name": "",
          "type": "address"
        }
      ],
      "stateMutability": "view",
      "type": "function"
    },
    {
      "inputs": [
        {
          "internalType": "bytes32",
          "name": "sourceChain",
          "type": "bytes32"
        },
        {
          "internalType": "address",
          "name": "sourceContract",
          "type": "address"
        },
        {
          "internalType": "bytes",
          "name": "data",
          "type": "bytes"
        }
      ],
      "name": "receiveAggLayerMessageERC1155",
      "outputs": [],
      "stateMutability": "nonpayable",
      "type": "function"
    },
    {
      "inputs": [
        {
          "internalType": "bytes32",
          "name": "sourceChain",
          "type": "bytes32"
        },
        {
          "internalType": "address",
          "name": "sourceContract",
          "type": "address"
        },
        {
          "internalType": "bytes",
          "name": "data",
          "type": "bytes"
        }
      ],
      "name": "receiveAggLayerMessageERC20",
      "outputs": [],
      "stateMutability": "nonpayable",
      "type": "function"
    },
    {
      "inputs": [
        {
          "internalType": "address",
          "name": "token",
          "type": "address"
        },
        {
          "internalType": "uint256",
          "name": "tokenId",
          "type": "uint256"
        },
        {
          "internalType": "uint256",
          "name": "amount",
          "type": "uint256"
        },
        {
          "internalType": "address",
          "name": "recipient",
          "type": "address"
        },
        {
          "internalType": "bytes32",
          "name": "sourceChain",
          "type": "bytes32"
        }
      ],
      "name": "receiveERC1155FromBridge",
      "outputs": [],
      "stateMutability": "nonpayable",
      "type": "function"
    },
    {
      "inputs": [
        {
          "internalType": "address",
          "name": "token",
          "type": "address"
        },
        {
          "internalType": "uint256",
          "name": "amount",
          "type": "uint256"
        },
        {
          "internalType": "address",
          "name": "recipient",
          "type": "address"
        },
        {
          "internalType": "bytes32",
          "name": "sourceChain",
          "type": "bytes32"
        }
      ],
      "name": "receiveFromBridge",
      "outputs": [],
      "stateMutability": "nonpayable",
      "type": "function"
    },
    {
      "inputs": [],
      "name": "renounceOwnership",
      "outputs": [],
      "stateMutability": "nonpayable",
      "type": "function"
    },
    {
      "inputs": [
        {
          "internalType": "bytes4",
          "name": "interfaceId",
          "type": "bytes4"
        }
      ],
      "name": "supportsInterface",
      "outputs": [
        {
          "internalType": "bool",
          "name": "",
          "type": "bool"
        }
      ],
      "stateMutability": "pure",
      "type": "function"
    },
    {
      "inputs": [
        {
          "internalType": "address",
          "name": "newOwner",
          "type": "address"
        }
      ],
      "name": "transferOwnership",
      "outputs": [],
      "stateMutability": "nonpayable",
      "type": "function"
    },
    {
      "inputs": [
        {
          "internalType": "address",
          "name": "_aggLayer",
          "type": "address"
        }
      ],
      "name": "updateAggLayer",
      "outputs": [],
      "stateMutability": "nonpayable",
      "type": "function"
    },
    {
      "inputs": [
        {
          "internalType": "address",
          "name": "_waltBridge",
          "type": "address"
        }
      ],
      "name": "updateWaltBridge",
      "outputs": [],
      "stateMutability": "nonpayable",
      "type": "function"
    },
    {
      "inputs": [],
      "name": "waltBridge",
      "outputs": [
        {
          "internalType": "contract IWaltBridge",
          "name": "",
          "type": "address"
        }
      ],
      "stateMutability": "view",
      "type": "function"
    }
  ],
  "bytecode": "0x6080346101b857601f61245f38819003918201601f19168301916001600160401b038311848410176101bc5780849260409485528339810103126101b857610052602061004b836101d0565b92016101d0565b33156101a5575f8054336001600160a01b0319821681178355604051949290916001600160a01b0316907f8be0079c531659141344cd1fd0a4f28419497f9722a3daafe3b4186f6b6457e09080a360017f9b779b17422d0df92223018b32b4d1fa46e071723d6817e2486d003becc55f00556001600160a01b031691821561016357506001600160a01b03169081156101145760018060a01b0319600154161760015560018060a01b0319600354161760035560405161227a90816101e58239f35b60405162461bcd60e51b815260206004820152602160248201527f496e76616c696420436f6d706c69616e63654d616e61676572206164647265736044820152607360f81b6064820152608490fd5b62461bcd60e51b815260206004820152601a60248201527f496e76616c69642057616c7442726964676520616464726573730000000000006044820152606490fd5b631e4fbdf760e01b5f525f60045260245ffd5b5f80fd5b634e487b7160e01b5f52604160045260245ffd5b51906001600160a01b03821682036101b85756fe60806040526004361015610011575f80fd5b5f5f3560e01c806301864eb2146119f357806301ffc9a7146119b95780630de939e71461178e5780630e6de9861461158a5780631f710385146114945780632b9c56d21461122857806330a46a50146111ff57806346139f5614610fe35780634d9c18bb14610e4f578063500a8d6914610c8857806367b5c71214610c4d5780636b19971614610c24578063715018a614610bca5780637471ec5714610b8f5780637e5e2a7d146109855780638da5cb5b1461095e5780638e187289146108d257806395ccea671461087657806397717b891461084e5780639f6d949a146107a5578063a0593e0e146105a0578063bc197c8114610504578063be1f2f091461049f578063c79dc1ec14610442578063f23a6e61146103e6578063f2fde38b14610360578063f9840c6214610325578063faa9c46a146101845763ff7bce2314610159575f80fd5b346101815780600319360112610181576003546040516001600160a01b039091168152602090f35b80fd5b503461018157608061019536611b19565b819492506101ae60018060a01b03600254163314611fa9565b81010312610321576101bf82611ad7565b6020830135906101d6606060408601359501611ad7565b600354604051632a5bb1b760e11b81526001600160a01b03928316600482018190529383169392909160209183916024918391165afa8015610316576102239188916102e7575b50611fee565b813b156102d857604051637921219560e11b8152869081818061024c8a89883060048601611f02565b038183885af180156102dc576102c3575b50507fa4d2cc0842c7917bde5c989e1237b137de43babb36b3874f91df1367fbf2fc43936102bd9160405160208101906102ad8161029f42868d8c8c89611f3a565b03601f198101835282611bdd565b5190209660405195869586611f77565b0390a280f35b816102cd91611bdd565b6102d857855f61025d565b8580fd5b6040513d84823e3d90fd5b610309915060203d60201161030f575b6103018183611bdd565b810190611bff565b5f61021d565b503d6102f7565b6040513d89823e3d90fd5b8280fd5b503461018157806003193601126101815760206040517fc87f1b21696ef0d4e19cdc6ef3b3b53a507c0fc73edc6878675e8b4d703bffb78152f35b50346101815760203660031901126101815761037a611a7f565b6103826120bc565b6001600160a01b031680156103d25781546001600160a01b03198116821783556001600160a01b03167f8be0079c531659141344cd1fd0a4f28419497f9722a3daafe3b4186f6b6457e08380a380f35b631e4fbdf760e01b82526004829052602482fd5b50346101815760a036600319011261018157610400611a7f565b50610409611ac1565b5060843567ffffffffffffffff811161043e5761042a903690600401611aeb565b505060405163f23a6e6160e01b8152602090f35b5080fd5b5034610181576020366003190112610181576040608091600435815260046020522060018060a01b0381541690600181015490600360018060a01b0360028301541691015491604051938452602084015260408301526060820152f35b503461018157602036600319011261018157604060a0916004358152600560205220600180831b038154169060018101549060028101546004600180871b03600384015416920154926040519485526020850152604084015260608301526080820152f35b50346101815760a03660031901126101815761051e611a7f565b50610527611ac1565b5060443567ffffffffffffffff811161043e57610548903690600401611b60565b505060643567ffffffffffffffff811161043e5761056a903690600401611b60565b505060843567ffffffffffffffff811161043e5761058c903690600401611aeb565b505060405163bc197c8160e01b8152602090f35b5034610181576080366003190112610181576105ba611a7f565b6044356001600160a01b03811691602435908383036107a157606435926105df6120bc565b6003546040516372c1cc1b60e11b81526004810187905294906001600160a01b0316602086602481845afa908115610796576106286020926024988b91610779575b5015611c17565b60405196878092632a5bb1b760e11b82528a60048301525afa9182156103165761067e6102bd937fd8b91a9c331ad85e205da86637bfbc8878f5f0ff9a8afcd0a71ef965b46c59ea978a9161075a575b50611c54565b61074e85826001600160a01b038716610698811515611c93565b6106a38b1515611d2f565b6106bb5f5160206122055f395f51905f52871461203a565b8b6003896040516106d88161029f6020820194898b429288611e53565b519020809d604051936106ea85611bc1565b85855260208086018981526040808801948552426060890190815295845260049092529120945185546001600160a01b039182166001600160a01b0319918216178755915160018701559151600286018054919093169116179055519101556121ac565b60405194859485611e8b565b610773915060203d60201161030f576103018183611bdd565b5f610678565b6107909150843d861161030f576103018183611bdd565b5f610621565b6040513d8a823e3d90fd5b8480fd5b503461018157606036600319011261018157806107c0611a7f565b604435906107cc6120bc565b6001600160a01b0316906107e1821515611c93565b6107ec811515611dc7565b82546001600160a01b031690823b156108495761082792849283604051809681958294637921219560e11b8452602435903060048601611f02565b03925af180156102dc576108385750f35b8161084291611bdd565b6101815780f35b505050fd5b503461018157806003193601126101815760206040515f5160206122055f395f51905f528152f35b5034610181576040366003190112610181576108cf610893611a7f565b6024359061089f6120bc565b6001600160a01b03166108b3811515611c93565b6108be821515611dc7565b83546001600160a01b0316906121ac565b80f35b5034610181576020366003190112610181576108ec611a7f565b6108f46120bc565b6001600160a01b03168015610919576001600160601b0360a01b600254161760025580f35b60405162461bcd60e51b815260206004820152601860248201527f496e76616c6964204167674c61796572206164647265737300000000000000006044820152606490fd5b5034610181578060031936011261018157546040516001600160a01b039091168152602090f35b50346101815760603660031901126101815761099f611a7f565b60243560443560018060a01b0360035416604051906372c1cc1b60e11b8252336004830152602082602481845afa908115610b84576109ea6020926024948991610779575015611c17565b604051632a5bb1b760e11b815233600482015292839182905afa908115610b795792610b467f22d8019deb88c4e13567efcda5f3dc566821abe05f76c432b807c8093e8ef80e93610a4860039794899760209a91610b625750611c54565b610a506120e2565b6001600160a01b038416610a65811515611c93565b610a7d5f5160206122055f395f51905f528314611eb6565b610a88841515611dc7565b610a948430338461211a565b60405189810190610aac8161029f42338a8c88611e53565b51902097889760405192610abf84611bc1565b83528a83018681526040840190338252604060608601934285528c815260048f52209460018060a01b039060018060a01b03905116166001600160601b0360a01b86541617855551600185015560018060a01b03905116600284019060018060a01b03166001600160601b0360a01b82541617905551910155604051938493339185611e8b565b0390a260015f5160206122255f395f51905f5255604051908152f35b61077391508a3d8c1161030f576103018183611bdd565b6040513d87823e3d90fd5b6040513d88823e3d90fd5b503461018157806003193601126101815760206040517f0db4352a89aa75f9d11ac30e122fe9730a761c955523552119c16838f3c0fda58152f35b5034610181578060031936011261018157610be36120bc565b80546001600160a01b03198116825581906001600160a01b03167f8be0079c531659141344cd1fd0a4f28419497f9722a3daafe3b4186f6b6457e08280a380f35b50346101815780600319360112610181576001546040516001600160a01b039091168152602090f35b503461018157806003193601126101815760206040517fe8fe57585ca8b7ec07325cb5cdc4701633418dd473836621b010ece196797f208152f35b503461018157604036600319011261018157600435610ca5611ac1565b610cad6120bc565b6001600160a01b0316610cc1811515611d2f565b8183526005602052604083209060405190610cdb82611b91565b60018060a01b03835416825260018301549060208301918252610d2860028501549460408501958652600460018060a01b036003830154169182606088015201546080860152151561207d565b600154835183518651969289926001600160a01b039182169116813b15610e4b578360a4926040519a8b95869463058d6a3560e51b86526004860152602485015260448401525f5160206122055f395f51905f5260648401528760848401525af193878515610e3f578795610e24575b505192519051604080516001600160a01b03909516855260208501929092529083015260608201525f5160206122055f395f51905f5260808201529091507ffd201cc89e1a0b1653793b7605fcb9a8fcd49af126460d42c38fe802497dc2129060a090a28152600560205280600460408220828155826001820155826002820155826003820155015580f35b610e32919550809296611bdd565b6102d85783859387610d98565b604051903d90823e3d90fd5b8380fd5b503461018157604036600319011261018157600435610e6c611ac1565b610e746120bc565b6001600160a01b0316610e88811515611d2f565b81835260046020526040832060405190610ea182611bc1565b80546001600160a01b039081168352600182015460208401908152600283015490911660408401819052600390920154606084015290610ee290151561207d565b600154825182516001600160a01b039283169592889216863b156103215760849083604051988994859363c2e4aacb60e01b8552600485015260248401525f5160206122055f395f51905f5260448401528660648401525af192868415610e3f578694610fc8575b50519151604080516001600160a01b03909416845260208401919091528201525f5160206122055f395f51905f5260608201529091507f54737a830333f03c317505585f2490ede522dcc55e797107c6523cce94869a7090608090a28152600460205280600360408220828155826001820155826002820155015580f35b610fd6919450809295611bdd565b6107a15782849286610f4a565b50346101815760a036600319011261018157610ffd611a7f565b6044359060243561100c611a95565b916084356110186120bc565b6003546040516372c1cc1b60e11b81526001600160a01b0386811660048301819052979216602082602481845afa9081156111f4576110636020926024948c91610779575015611c17565b60405192838092632a5bb1b760e11b82528b60048301525afa80156107965761109291899161075a5750611c54565b866001600160a01b0384166110a8811515611c93565b6110b3881515611d2f565b6110cb5f5160206122055f395f51905f52851461203a565b60405160208101906110e58161029f428c898d8d89611f3a565b519020976004604051916110f883611b91565b83835260208084018a815260408086018981526060870194855242608088019081528f8a526005909452908820955186546001600160a01b039182166001600160a01b0319918216178855925160018801559051600287015592516003860180549190941691161790915551910155803b1561043e57604051637921219560e11b81529082908290818381611193898d8f3060048601611f02565b03925af180156102dc576111d7575b5050907fa4d2cc0842c7917bde5c989e1237b137de43babb36b3874f91df1367fbf2fc43946102bd9260405195869586611f77565b816111e491949394611bdd565b6111f05790865f6111a2565b8680fd5b6040513d8b823e3d90fd5b50346101815780600319360112610181576002546040516001600160a01b039091168152602090f35b50346101815760c036600319011261018157611242611a7f565b602435906044359160643591611256611aab565b60a4359086906001600160a01b03831690818403610321576003546040516372c1cc1b60e11b8152336004820152906001600160a01b0316602082602481845afa908115610b79576112b46020926024948891610779575015611c17565b604051632a5bb1b760e11b815233600482015292839182905afa8015611489576112e491859161075a5750611c54565b6112ec6120e2565b6001600160a01b03851691611302831515611c93565b6113166001600160a01b0383161515611cd7565b611321811515611d2f565b61134d7fe8fe57585ca8b7ec07325cb5cdc4701633418dd473836621b010ece196797f20891415611d7b565b611358891515611dc7565b823b15610e4b57604051637921219560e11b815284818061137f8d8c303360048601611f02565b038183885af1908115610b79578591611474575b50506040519260208401528660408401528860608401526080830152608082526113be60a083611bdd565b6002546001600160a01b031691823b15610e4b576113f7928492838a60405196879586948593631ffa155b60e11b855260048501611e13565b03925af180156102dc5761145f575b50507ffd201cc89e1a0b1653793b7605fcb9a8fcd49af126460d42c38fe802497dc212936114489160405160208101906102ad8161029f42338d8c8c89611f3a565b0390a260015f5160206122255f395f51905f525580f35b8161146991611bdd565b6102d857855f611406565b8161147e91611bdd565b610e4b57835f611393565b6040513d86823e3d90fd5b50346101815760606114a536611b19565b81939492506114bf60018060a01b03600254163314611fa9565b8101031261032157806114d3602492611ad7565b6114e4604060208401359301611ad7565b600354604051632a5bb1b760e11b81526001600160a01b03928316600482018190529690959383169390926020928792918391165afa908115610b84576115566102bd927fd8b91a9c331ad85e205da86637bfbc8878f5f0ff9a8afcd0a71ef965b46c59ea9689916102e75750611fee565b6115618487856121ac565b604051602081019061157a8161029f428b8a8a88611e53565b5190209560405194859485611e8b565b5034610181576080366003190112610181576115a4611a7f565b602435604435916064359060018060a01b0360035416604051906372c1cc1b60e11b8252336004830152602082602481845afa908115610316576115f46020926024948a91610779575015611c17565b604051632a5bb1b760e11b815233600482015292839182905afa8015610b845761162491879161075a5750611c54565b61162c6120e2565b6001600160a01b038116611641811515611c93565b6116595f5160206122055f395f51905f528414611eb6565b611664851515611dc7565b803b156102d857604051637921219560e11b815286818061168b8989303360048601611f02565b038183865af1801561031657611779575b60206004887f22fab45cdb4cae2ba056a8f09c36dadebe8828f555807a0678617e5366964d208989610b468a8a8a6040518a8101906116e38161029f42338c8c8a89611f3a565b51902098898099604051936116f785611b91565b84528c840188815260408086018b815233606088018181524260808a01908152968652600560205294839020975188546001600160a01b03199081166001600160a01b03928316178a55945160018a01559151600289015593516003880180549094169116179091559151929093019190915551958695919290919086611f77565b611784878092611bdd565b6102d8575f61169c565b50346119b55760a03660031901126119b5576117a8611a7f565b60443591906024356117b8611a95565b916117c1611aab565b6003546040516372c1cc1b60e11b8152336004820152919491906001600160a01b0316602082602481845afa9081156119aa5761180a6020926024945f91610779575015611c17565b604051632a5bb1b760e11b815233600482015292839182905afa80156119aa5761183a915f9161075a5750611c54565b6118426120e2565b6001600160a01b03821690611858821515611c93565b61186c6001600160a01b0382161515611cd7565b6001600160a01b038516611881811515611d2f565b6118ad7fe8fe57585ca8b7ec07325cb5cdc4701633418dd473836621b010ece196797f20891415611d7b565b6118b8851515611dc7565b6118c48530338661211a565b6040519260208401528460408401526060830152606082526118e7608083611bdd565b6002546001600160a01b031691823b156119b557611920925f92838a60405196879586948593631ffa155b60e11b855260048501611e13565b03925af180156119aa57611970575b506114487f54737a830333f03c317505585f2490ede522dcc55e797107c6523cce94869a70939495604051602081019061157a8161029f42338a8a88611e53565b7f54737a830333f03c317505585f2490ede522dcc55e797107c6523cce94869a709394505f61199e91611bdd565b6114485f94935061192f565b6040513d5f823e3d90fd5b5f80fd5b346119b55760203660031901126119b55760043563ffffffff60e01b81168091036119b557604051630271189760e51b9091148152602090f35b346119b55760203660031901126119b557611a0c611a7f565b611a146120bc565b6001600160a01b03168015611a3a576001600160601b0360a01b60015416176001555f80f35b60405162461bcd60e51b815260206004820152601a60248201527f496e76616c69642057616c7442726964676520616464726573730000000000006044820152606490fd5b600435906001600160a01b03821682036119b557565b606435906001600160a01b03821682036119b557565b608435906001600160a01b03821682036119b557565b602435906001600160a01b03821682036119b557565b35906001600160a01b03821682036119b557565b9181601f840112156119b55782359167ffffffffffffffff83116119b557602083818601950101116119b557565b60606003198201126119b557600435916024356001600160a01b03811681036119b557916044359067ffffffffffffffff82116119b557611b5c91600401611aeb565b9091565b9181601f840112156119b55782359167ffffffffffffffff83116119b5576020808501948460051b0101116119b557565b60a0810190811067ffffffffffffffff821117611bad57604052565b634e487b7160e01b5f52604160045260245ffd5b6080810190811067ffffffffffffffff821117611bad57604052565b90601f8019910116810190811067ffffffffffffffff821117611bad57604052565b908160209103126119b5575180151581036119b55790565b15611c1e57565b60405162461bcd60e51b815260206004820152600e60248201526d20b1b1b7bab73a10333937bd32b760911b6044820152606490fd5b15611c5b57565b60405162461bcd60e51b815260206004820152601060248201526f12d650c81b9bdd081d995c9a599a595960821b6044820152606490fd5b15611c9a57565b60405162461bcd60e51b8152602060048201526015602482015274496e76616c696420746f6b656e206164647265737360581b6044820152606490fd5b15611cde57565b60405162461bcd60e51b8152602060048201526024808201527f496e76616c69642064657374696e6174696f6e20636f6e7472616374206164646044820152637265737360e01b6064820152608490fd5b15611d3657565b60405162461bcd60e51b815260206004820152601960248201527f496e76616c696420726563697069656e742061646472657373000000000000006044820152606490fd5b15611d8257565b60405162461bcd60e51b815260206004820152601d60248201527f43616e6e6f74207472616e7366657220746f2073616d6520636861696e0000006044820152606490fd5b15611dce57565b60405162461bcd60e51b815260206004820152601760248201527f416d6f756e74206d75737420626520706f7369746976650000000000000000006044820152606490fd5b9192608093602092845260018060a01b031682840152606060408401528051918291826060860152018484015e5f828201840152601f01601f1916010190565b929091606894926001600160601b03199060601b16845260148401526001600160601b03199060601b16603483015260488201520190565b6001600160a01b03918216815260208101929092529091166040820152606081019190915260800190565b15611ebd57565b60405162461bcd60e51b815260206004820152601960248201527f496e76616c69642064657374696e6174696f6e20636861696e000000000000006044820152606490fd5b6001600160a01b039182168152911660208201526040810191909152606081019190915260a0608082018190525f9082015260c00190565b939160889593916001600160601b03199060601b168552601485015260348401526001600160601b03199060601b16605483015260688201520190565b6001600160a01b0391821681526020810192909252604082019290925291166060820152608081019190915260a00190565b15611fb057565b60405162461bcd60e51b815260206004820152601660248201527513db9b1e481059d9d3185e595c8818d85b8818d85b1b60521b6044820152606490fd5b15611ff557565b60405162461bcd60e51b815260206004820152601a60248201527f526563697069656e74206e6f74204b59432076657269666965640000000000006044820152606490fd5b1561204157565b60405162461bcd60e51b815260206004820152601460248201527324b73b30b634b21039b7bab931b29031b430b4b760611b6044820152606490fd5b1561208457565b60405162461bcd60e51b815260206004820152601060248201526f105cdcd95d081b9bdd081b1bd8dad95960821b6044820152606490fd5b5f546001600160a01b031633036120cf57565b63118cdaa760e01b5f523360045260245ffd5b60025f5160206122255f395f51905f52541461210b5760025f5160206122255f395f51905f5255565b633ee5aeb560e01b5f5260045ffd5b6040516323b872dd60e01b5f9081526001600160a01b039384166004529290931660245260449390935260209060648180865af19060015f511482161561218b575b6040525f6060521561216b5750565b635274afe760e01b5f9081526001600160a01b0391909116600452602490fd5b9060018115166121a357823b15153d1516169061215c565b503d5f823e3d90fd5b916040519163a9059cbb60e01b5f5260018060a01b031660045260245260205f60448180865af19060015f51148216156121ec575b6040521561216b5750565b9060018115166121a357823b15153d151616906121e156fe98d35890f262f42e468663746e93596a5077f0e2571f072ea1905db676f8daaf9b779b17422d0df92223018b32b4d1fa46e071723d6817e2486d003becc55f00a2646970667358221220adef16db8ffaf84465763a8ebd5b54a67226901e85d70afce7ff3eeb7a9cda3464736f6c634300081c0033",
  "linkReferences": {},
  "deployedLinkReferences": {}
}