{
  "_format": "hh-sol-artifact-1",
  "contractName": "BridgeAdapter",
  "sourceName": "contracts/BridgeAdapter.sol",
  "abi": [
    {
      "inputs": [
        {
          "internalType": "address",
          "name": "_waltBridge",
          "type": "address"
        },
        {
          "internalType": "address",
          "name": "_complianceManager",
          "type": "address"
        }
      ],
      "stateMutability": "nonpayable",
      "type": "constructor"
    },
    {
      "inputs": [
        {
          "internalType": "address",
          "name": "owner",
          "type": "address"
        }
      ],
      "name": "OwnableInvalidOwner",
      "type": "error"
    },
    {
      "inputs": [
        {
          "internalType": "address",
          "name": "account",
          "type": "address"
        }
      ],
      "name": "OwnableUnauthorizedAccount",
      "type": "error"
    },
    {
      "inputs": [],
      "name": "ReentrancyGuardReentrantCall",
      "type": "error"
    },
    {
      "anonymous": false,
      "inputs": [
        {
          "indexed": true,
          "internalType": "bytes32",
          "name": "lockId",
          "type": "bytes32"
        },
        {
          "indexed": false,
          "internalType": "address",
          "name": "token",
          "type": "address"
        },
        {
          "indexed": false,
          "internalType": "uint256",
          "name": "amount",
          "type": "uint256"
        },
        {
          "indexed": false,
          "internalType": "address",
          "name": "recipient",
          "type": "address"
        },
        {
          "indexed": false,
          "internalType": "bytes32",
          "name": "destinationChain",
          "type": "bytes32"
        }
      ],
      "name": "AssetBridged",
      "type": "event"
    },
    {
      "anonymous": false,
      "inputs": [
        {
          "indexed": true,
          "internalType": "bytes32",
          "name": "lockId",
          "type": "bytes32"
        },
        {
          "indexed": false,
          "internalType": "address",
          "name": "token",
          "type": "address"
        },
        {
          "indexed": false,
          "internalType": "uint256",
          "name": "amount",
          "type": "uint256"
        },
        {
          "indexed": false,
          "internalType": "address",
          "name": "owner",
          "type": "address"
        },
        {
          "indexed": false,
          "internalType": "bytes32",
          "name": "destinationChain",
          "type": "bytes32"
        }
      ],
      "name": "AssetLocked",
      "type": "event"
    },
    {
      "anonymous": false,
      "inputs": [
        {
          "indexed": true,
          "internalType": "bytes32",
          "name": "lockId",
          "type": "bytes32"
        },
        {
          "indexed": false,
          "internalType": "address",
          "name": "token",
          "type": "address"
        },
        {
          "indexed": false,
          "internalType": "uint256",
          "name": "amount",
          "type": "uint256"
        },
        {
          "indexed": false,
          "internalType": "address",
          "name": "recipient",
          "type": "address"
        },
        {
          "indexed": false,
          "internalType": "bytes32",
          "name": "sourceChain",
          "type": "bytes32"
        }
      ],
      "name": "AssetReceived",
      "type": "event"
    },
    {
      "anonymous": false,
      "inputs": [
        {
          "indexed": true,
          "internalType": "bytes32",
          "name": "lockId",
          "type": "bytes32"
        },
        {
          "indexed": false,
          "internalType": "address",
          "name": "token",
          "type": "address"
        },
        {
          "indexed": false,
          "internalType": "uint256",
          "name": "tokenId",
          "type": "uint256"
        },
        {
          "indexed": false,
          "internalType": "uint256",
          "name": "amount",
          "type": "uint256"
        },
        {
          "indexed": false,
          "internalType": "address",
          "name": "recipient",
          "type": "address"
        },
        {
          "indexed": false,
          "internalType": "bytes32",
          "name": "destinationChain",
          "type": "bytes32"
        }
      ],
      "name": "ERC1155AssetBridged",
      "type": "event"
    },
    {
      "anonymous": false,
      "inputs": [
        {
          "indexed": true,
          "internalType": "bytes32",
          "name": "lockId",
          "type": "bytes32"
        },
        {
          "indexed": false,
          "internalType": "address",
          "name": "token",
          "type": "address"
        },
        {
          "indexed": false,
          "internalType": "uint256",
          "name": "tokenId",
          "type": "uint256"
        },
        {
          "indexed": false,
          "internalType": "uint256",
          "name": "amount",
          "type": "uint256"
        },
        {
          "indexed": false,
          "internalType": "address",
          "name": "owner",
          "type": "address"
        },
        {
          "indexed": false,
          "internalType": "bytes32",
          "name": "destinationChain",
          "type": "bytes32"
        }
      ],
      "name": "ERC1155AssetLocked",
      "type": "event"
    },
    {
      "anonymous": false,
      "inputs": [
        {
          "indexed": true,
          "internalType": "bytes32",
          "name": "lockId",
          "type": "bytes32"
        },
        {
          "indexed": false,
          "internalType": "address",
          "name": "token",
          "type": "address"
        },
        {
          "indexed": false,
          "internalType": "uint256",
          "name": "tokenId",
          "type": "uint256"
        },
        {
          "indexed": false,
          "internalType": "uint256",
          "name": "amount",
          "type": "uint256"
        },
        {
          "indexed": false,
          "internalType": "address",
          "name": "recipient",
          "type": "address"
        },
        {
          "indexed": false,
          "internalType": "bytes32",
          "name": "sourceChain",
          "type": "bytes32"
        }
      ],
      "name": "ERC1155AssetReceived",
      "type": "event"
    },
    {
      "anonymous": false,
      "inputs": [
        {
          "indexed": true,
          "internalType": "address",
          "name": "previousOwner",
          "type": "address"
        },
        {
          "indexed": true,
          "internalType": "address",
          "name": "newOwner",
          "type": "address"
        }
      ],
      "name": "OwnershipTransferred",
      "type": "event"
    },
    {
      "inputs": [],
      "name": "FINOVATE_CHAIN",
      "outputs": [
        {
          "internalType": "bytes32",
          "name": "",
          "type": "bytes32"
        }
      ],
      "stateMutability": "view",
      "type": "function"
    },
    {
      "inputs": [],
      "name": "KATANA_CHAIN",
      "outputs": [
        {
          "internalType": "bytes32",
          "name": "",
          "type": "bytes32"
        }
      ],
      "stateMutability": "view",
      "type": "function"
    },
    {
      "inputs": [],
      "name": "POLYGON_POS_CHAIN",
      "outputs": [
        {
          "internalType": "bytes32",
          "name": "",
          "type": "bytes32"
        }
      ],
      "stateMutability": "view",
      "type": "function"
    },
    {
      "inputs": [],
      "name": "POLYGON_ZKEVM_CHAIN",
      "outputs": [
        {
          "internalType": "bytes32",
          "name": "",
          "type": "bytes32"
        }
      ],
      "stateMutability": "view",
      "type": "function"
    },
    {
      "inputs": [],
      "name": "aggLayer",
      "outputs": [
        {
          "internalType": "contract IAggLayer",
          "name": "",
          "type": "address"
        }
      ],
      "stateMutability": "view",
      "type": "function"
    },
    {
      "inputs": [
        {
          "internalType": "address",
          "name": "token",
          "type": "address"
        },
        {
          "internalType": "uint256",
          "name": "tokenId",
          "type": "uint256"
        },
        {
          "internalType": "uint256",
          "name": "amount",
          "type": "uint256"
        },
        {
          "internalType": "bytes32",
          "name": "destinationChain",
          "type": "bytes32"
        },
        {
          "internalType": "address",
          "name": "destinationContract",
          "type": "address"
        },
        {
          "internalType": "address",
          "name": "recipient",
          "type": "address"
        }
      ],
      "name": "aggLayerTransferERC1155",
      "outputs": [],
      "stateMutability": "nonpayable",
      "type": "function"
    },
    {
      "inputs": [
        {
          "internalType": "address",
          "name": "token",
          "type": "address"
        },
        {
          "internalType": "uint256",
          "name": "amount",
          "type": "uint256"
        },
        {
          "internalType": "bytes32",
          "name": "destinationChain",
          "type": "bytes32"
        },
        {
          "internalType": "address",
          "name": "destinationContract",
          "type": "address"
        },
        {
          "internalType": "address",
          "name": "recipient",
          "type": "address"
        }
      ],
      "name": "aggLayerTransferERC20",
      "outputs": [],
      "stateMutability": "nonpayable",
      "type": "function"
    },
    {
      "inputs": [
        {
          "internalType": "bytes32",
          "name": "lockId",
          "type": "bytes32"
        },
        {
          "internalType": "address",
          "name": "recipient",
          "type": "address"
        }
      ],
      "name": "bridgeAsset",
      "outputs": [],
      "stateMutability": "nonpayable",
      "type": "function"
    },
    {
      "inputs": [
        {
          "internalType": "bytes32",
          "name": "lockId",
          "type": "bytes32"
        },
        {
          "internalType": "address",
          "name": "recipient",
          "type": "address"
        }
      ],
      "name": "bridgeERC1155Asset",
      "outputs": [],
      "stateMutability": "nonpayable",
      "type": "function"
    },
    {
      "inputs": [],
      "name": "complianceManager",
      "outputs": [
        {
          "internalType": "contract ComplianceManager",
          "name": "",
          "type": "address"
        }
      ],
      "stateMutability": "view",
      "type": "function"
    },
    {
      "inputs": [
        {
          "internalType": "address",
          "name": "token",
          "type": "address"
        },
        {
          "internalType": "uint256",
          "name": "amount",
          "type": "uint256"
        }
      ],
      "name": "emergencyWithdraw",
      "outputs": [],
      "stateMutability": "nonpayable",
      "type": "function"
    },
    {
      "inputs": [
        {
          "internalType": "address",
          "name": "token",
          "type": "address"
        },
        {
          "internalType": "uint256",
          "name": "tokenId",
          "type": "uint256"
        },
        {
          "internalType": "uint256",
          "name": "amount",
          "type": "uint256"
        }
      ],
      "name": "emergencyWithdrawERC1155",
      "outputs": [],
      "stateMutability": "nonpayable",
      "type": "function"
    },
    {
      "inputs": [
        {
          "internalType": "address",
          "name": "token",
          "type": "address"
        },
        {
          "internalType": "uint256",
          "name": "tokenId",
          "type": "uint256"
        },
        {
          "internalType": "uint256",
          "name": "amount",
          "type": "uint256"
        },
        {
          "internalType": "bytes32",
          "name": "destinationChain",
          "type": "bytes32"
        }
      ],
      "name": "lockERC1155ForBridge",
      "outputs": [
        {
          "internalType": "bytes32",
          "name": "",
          "type": "bytes32"
        }
      ],
      "stateMutability": "nonpayable",
      "type": "function"
    },
    {
      "inputs": [
        {
          "internalType": "address",
          "name": "token",
          "type": "address"
        },
        {
          "internalType": "uint256",
          "name": "amount",
          "type": "uint256"
        },
        {
          "internalType": "bytes32",
          "name": "destinationChain",
          "type": "bytes32"
        }
      ],
      "name": "lockForBridge",
      "outputs": [
        {
          "internalType": "bytes32",
          "name": "",
          "type": "bytes32"
        }
      ],
      "stateMutability": "nonpayable",
      "type": "function"
    },
    {
      "inputs": [
        {
          "internalType": "bytes32",
          "name": "",
          "type": "bytes32"
        }
      ],
      "name": "lockedAssets",
      "outputs": [
        {
          "internalType": "address",
          "name": "token",
          "type": "address"
        },
        {
          "internalType": "uint256",
          "name": "amount",
          "type": "uint256"
        },
        {
          "internalType": "address",
          "name": "owner",
          "type": "address"
        },
        {
          "internalType": "uint256",
          "name": "timestamp",
          "type": "uint256"
        }
      ],
      "stateMutability": "view",
      "type": "function"
    },
    {
      "inputs": [
        {
          "internalType": "bytes32",
          "name": "",
          "type": "bytes32"
        }
      ],
      "name": "lockedERC1155Assets",
      "outputs": [
        {
          "internalType": "address",
          "name": "token",
          "type": "address"
        },
        {
          "internalType": "uint256",
          "name": "tokenId",
          "type": "uint256"
        },
        {
          "internalType": "uint256",
          "name": "amount",
          "type": "uint256"
        },
        {
          "internalType": "address",
          "name": "owner",
          "type": "address"
        },
        {
          "internalType": "uint256",
          "name": "timestamp",
          "type": "uint256"
        }
      ],
      "stateMutability": "view",
      "type": "function"
    },
    {
      "inputs": [
        {
          "internalType": "address",
          "name": "operator",
          "type": "address"
        },
        {
          "internalType": "address",
          "name": "from",
          "type": "address"
        },
        {
          "internalType": "uint256[]",
          "name": "ids",
          "type": "uint256[]"
        },
        {
          "internalType": "uint256[]",
          "name": "values",
          "type": "uint256[]"
        },
        {
          "internalType": "bytes",
          "name": "data",
          "type": "bytes"
        }
      ],
      "name": "onERC1155BatchReceived",
      "outputs": [
        {
          "internalType": "bytes4",
          "name": "",
          "type": "bytes4"
        }
      ],
      "stateMutability": "pure",
      "type": "function"
    },
    {
      "inputs": [
        {
          "internalType": "address",
          "name": "operator",
          "type": "address"
        },
        {
          "internalType": "address",
          "name": "from",
          "type": "address"
        },
        {
          "internalType": "uint256",
          "name": "id",
          "type": "uint256"
        },
        {
          "internalType": "uint256",
          "name": "value",
          "type": "uint256"
        },
        {
          "internalType": "bytes",
          "name": "data",
          "type": "bytes"
        }
      ],
      "name": "onERC1155Received",
      "outputs": [
        {
          "internalType": "bytes4",
          "name": "",
          "type": "bytes4"
        }
      ],
      "stateMutability": "pure",
      "type": "function"
    },
    {
      "inputs": [],
      "name": "owner",
      "outputs": [
        {
          "internalType": "address",
          "name": "",
          "type": "address"
        }
      ],
      "stateMutability": "view",
      "type": "function"
    },
    {
      "inputs": [
        {
          "internalType": "bytes32",
          "name": "sourceChain",
          "type": "bytes32"
        },
        {
          "internalType": "address",
          "name": "sourceContract",
          "type": "address"
        },
        {
          "internalType": "bytes",
          "name": "data",
          "type": "bytes"
        }
      ],
      "name": "receiveAggLayerMessageERC1155",
      "outputs": [],
      "stateMutability": "nonpayable",
      "type": "function"
    },
    {
      "inputs": [
        {
          "internalType": "bytes32",
          "name": "sourceChain",
          "type": "bytes32"
        },
        {
          "internalType": "address",
          "name": "sourceContract",
          "type": "address"
        },
        {
          "internalType": "bytes",
          "name": "data",
          "type": "bytes"
        }
      ],
      "name": "receiveAggLayerMessageERC20",
      "outputs": [],
      "stateMutability": "nonpayable",
      "type": "function"
    },
    {
      "inputs": [
        {
          "internalType": "address",
          "name": "token",
          "type": "address"
        },
        {
          "internalType": "uint256",
          "name": "tokenId",
          "type": "uint256"
        },
        {
          "internalType": "uint256",
          "name": "amount",
          "type": "uint256"
        },
        {
          "internalType": "address",
          "name": "recipient",
          "type": "address"
        },
        {
          "internalType": "bytes32",
          "name": "sourceChain",
          "type": "bytes32"
        }
      ],
      "name": "receiveERC1155FromBridge",
      "outputs": [],
      "stateMutability": "nonpayable",
      "type": "function"
    },
    {
      "inputs": [
        {
          "internalType": "address",
          "name": "token",
          "type": "address"
        },
        {
          "internalType": "uint256",
          "name": "amount",
          "type": "uint256"
        },
        {
          "internalType": "address",
          "name": "recipient",
          "type": "address"
        },
        {
          "internalType": "bytes32",
          "name": "sourceChain",
          "type": "bytes32"
        }
      ],
      "name": "receiveFromBridge",
      "outputs": [],
      "stateMutability": "nonpayable",
      "type": "function"
    },
    {
      "inputs": [],
      "name": "renounceOwnership",
      "outputs": [],
      "stateMutability": "nonpayable",
      "type": "function"
    },
    {
      "inputs": [
        {
          "internalType": "bytes4",
          "name": "interfaceId",
          "type": "bytes4"
        }
      ],
      "name": "supportsInterface",
      "outputs": [
        {
          "internalType": "bool",
          "name": "",
          "type": "bool"
        }
      ],
      "stateMutability": "view",
      "type": "function"
    },
    {
      "inputs": [
        {
          "internalType": "address",
          "name": "newOwner",
          "type": "address"
        }
      ],
      "name": "transferOwnership",
      "outputs": [],
      "stateMutability": "nonpayable",
      "type": "function"
    },
    {
      "inputs": [
        {
          "internalType": "address",
          "name": "_aggLayer",
          "type": "address"
        }
      ],
      "name": "updateAggLayer",
      "outputs": [],
      "stateMutability": "nonpayable",
      "type": "function"
    },
    {
      "inputs": [
        {
          "internalType": "address",
          "name": "_waltBridge",
          "type": "address"
        }
      ],
      "name": "updateWaltBridge",
      "outputs": [],
      "stateMutability": "nonpayable",
      "type": "function"
    },
    {
      "inputs": [],
      "name": "waltBridge",
      "outputs": [
        {
          "internalType": "contract IWaltBridge",
          "name": "",
          "type": "address"
        }
      ],
      "stateMutability": "view",
      "type": "function"
    }
  ],
  "bytecode": "0x6080346100f257601f61215638819003918201601f19168301916001600160401b038311848410176100f65780849260409485528339810103126100f257610052602061004b8361010a565b920161010a565b33156100df575f8054336001600160a01b0319821681178355604051949290916001600160a01b0316907f8be0079c531659141344cd1fd0a4f28419497f9722a3daafe3b4186f6b6457e09080a360018055600280546001600160a01b039283166001600160a01b03199182161790915560048054939092169216919091179055612037908161011f8239f35b631e4fbdf760e01b5f525f60045260245ffd5b5f80fd5b634e487b7160e01b5f52604160045260245ffd5b51906001600160a01b03821682036100f25756fe60806040526004361015610011575f80fd5b5f5f3560e01c806301864eb214611a0357806301ffc9a7146119c95780630de939e71461177f5780630e6de986146115865780631f710385146114485780632b9c56d21461121157806330a46a50146111e857806346139f5614610fe35780634d9c18bb14610e5b578063500a8d6914610ca057806367b5c71214610c655780636b19971614610c3c578063715018a614610be25780637471ec5714610ba75780637e5e2a7d146109835780638da5cb5b1461095c5780638e1872891461091c57806395ccea671461088757806397717b891461085f5780639f6d949a146107d2578063a0593e0e1461059f578063bc197c8114610503578063be1f2f091461049e578063c79dc1ec14610441578063f23a6e61146103e5578063f2fde38b1461035f578063f9840c6214610324578063faa9c46a146101845763ff7bce2314610159575f80fd5b346101815780600319360112610181576004546040516001600160a01b039091168152602090f35b80fd5b503461018157608061019536611ae0565b819492506101ae60018060a01b03600354163314611e88565b81010312610320576101bf82611a9e565b6020830135906101d6606060408601359501611a9e565b60048054604051632a5bb1b760e11b81526001600160a01b0393841692810183905293831693919260209183916024918391165afa8015610315576102229188916102e6575b50611ecd565b813b156102d757604051637921219560e11b8152869081818061024b8a89883060048601611de1565b038183885af180156102db576102c2575b50507fa4d2cc0842c7917bde5c989e1237b137de43babb36b3874f91df1367fbf2fc43936102bc9160405160208101906102ac8161029e42868d8c8c89611e19565b03601f198101835282611ba4565b5190209660405195869586611e56565b0390a280f35b816102cc91611ba4565b6102d757855f61025c565b8580fd5b6040513d84823e3d90fd5b610308915060203d60201161030e575b6103008183611ba4565b810190611bc6565b5f61021c565b503d6102f6565b6040513d89823e3d90fd5b8280fd5b503461018157806003193601126101815760206040517fc87f1b21696ef0d4e19cdc6ef3b3b53a507c0fc73edc6878675e8b4d703bffb78152f35b503461018157602036600319011261018157610379611a46565b610381611f9b565b6001600160a01b031680156103d15781546001600160a01b03198116821783556001600160a01b03167f8be0079c531659141344cd1fd0a4f28419497f9722a3daafe3b4186f6b6457e08380a380f35b631e4fbdf760e01b82526004829052602482fd5b50346101815760a0366003190112610181576103ff611a46565b50610408611a88565b5060843567ffffffffffffffff811161043d57610429903690600401611ab2565b505060405163f23a6e6160e01b8152602090f35b5080fd5b5034610181576020366003190112610181576040608091600435815260056020522060018060a01b0381541690600181015490600360018060a01b0360028301541691015491604051938452602084015260408301526060820152f35b503461018157602036600319011261018157604060a0916004358152600660205220600180831b038154169060018101549060028101546004600180871b03600384015416920154926040519485526020850152604084015260608301526080820152f35b50346101815760a03660031901126101815761051d611a46565b50610526611a88565b5060443567ffffffffffffffff811161043d57610547903690600401611b27565b505060643567ffffffffffffffff811161043d57610569903690600401611b27565b505060843567ffffffffffffffff811161043d5761058b903690600401611ab2565b505060405163bc197c8160e01b8152602090f35b5034610181576080366003190112610181576105b9611a46565b604435906001600160a01b03821690602435908284036107ce57606435936105df611f9b565b600480546040516372c1cc1b60e11b81529182018690526001600160a01b0316602082602481845afa9081156107c3576106266020926024948b916107a6575b5015611bde565b60405192838092632a5bb1b760e11b82528960048301525afa801561031557610656918891610787575b50611c1b565b61066e5f516020611fe25f395f51905f528614611f19565b60405160208101906106878161029e4286898988611d32565b5190209460405161069781611b88565b6001600160a01b03848116808352602080840188815260408086019a8b5242606087019081528c8e5260058452818e20965187549087166001600160a01b0319918216178855925160018801559a5160028701805491871691909316179091559851600390940193909355965163a9059cbb60e01b8152908416600482015260248101869052958690818a816044810103925af1918215610315577fd8b91a9c331ad85e205da86637bfbc8878f5f0ff9a8afcd0a71ef965b46c59ea956102bc9361076a575b5060405194859485611d6a565b6107829060203d60201161030e576103008183611ba4565b61075d565b6107a0915060203d60201161030e576103008183611ba4565b5f610650565b6107bd9150843d861161030e576103008183611ba4565b5f61061f565b6040513d8a823e3d90fd5b8480fd5b503461018157606036600319011261018157806107ed611a46565b6107f5611f9b565b81546001600160a01b039081169116803b1561085b57604051637921219560e11b815291839183918290849082906108399060443590602435903060048601611de1565b03925af180156102db5761084a5750f35b8161085491611ba4565b6101815780f35b5050fd5b503461018157806003193601126101815760206040515f516020611fe25f395f51905f528152f35b5034610181576040366003190112610181578060206108e56108a7611a46565b6108af611f9b565b835460405163a9059cbb60e01b81526001600160a01b039091166004820152602480359082015293849283919082906044820190565b03926001600160a01b03165af180156102db57610900575080f35b6109189060203d60201161030e576103008183611ba4565b5080f35b503461018157602036600319011261018157610936611a46565b61093e611f9b565b60018060a01b03166001600160601b0360a01b600354161760035580f35b5034610181578060031936011261018157546040516001600160a01b039091168152602090f35b50346101815760603660031901126101815761099d611a46565b60243560443560018060a01b0360045416604051906372c1cc1b60e11b8252336004830152602082602481845afa908115610b91576109e860209260249489916107a6575015611bde565b604051632a5bb1b760e11b815233600482015292839182905afa8015610b9c57610a189186916107875750611c1b565b610a20611fc1565b610a385f516020611fe25f395f51905f528214611d95565b610a43821515611ca6565b6040516323b872dd60e01b8152336004820152306024820152604481018390526001600160a01b0384169060208160648189865af18015610b91577f22d8019deb88c4e13567efcda5f3dc566821abe05f76c432b807c8093e8ef80e9360039693889693610b679360209a50610b76575b5060405189810190610acd8161029e42338a8c88611d32565b51902097889760405192610ae084611b88565b83528a83018681526040840190338252604060608601934285528c815260058f52209460018060a01b039060018060a01b03905116166001600160601b0360a01b86541617855551600185015560018060a01b03905116600284019060018060a01b03166001600160601b0360a01b82541617905551910155604051938493339185611d6a565b0390a260018055604051908152f35b610b8c908a3d8c1161030e576103008183611ba4565b610ab4565b6040513d88823e3d90fd5b6040513d87823e3d90fd5b503461018157806003193601126101815760206040517f0db4352a89aa75f9d11ac30e122fe9730a761c955523552119c16838f3c0fda58152f35b5034610181578060031936011261018157610bfb611f9b565b80546001600160a01b03198116825581906001600160a01b03167f8be0079c531659141344cd1fd0a4f28419497f9722a3daafe3b4186f6b6457e08280a380f35b50346101815780600319360112610181576002546040516001600160a01b039091168152602090f35b503461018157806003193601126101815760206040517fe8fe57585ca8b7ec07325cb5cdc4701633418dd473836621b010ece196797f208152f35b503461018157604036600319011261018157600435610cbd611a88565b610cc5611f9b565b81835260066020526040832060405190610cde82611b58565b80546001600160a01b039081168352600182015460208401908152600283015460408501908152600384015490921660608501819052600490930154608085015291610d2b901515611f5c565b600254835183518351966001600160a01b0393841694938a9316853b15610e57578360a4926040519a8b95869463058d6a3560e51b86526004860152602485015260448401525f516020611fe25f395f51905f52606484015260018060a01b0316968760848401525af193878515610e4b578795610e30575b505192519051604080516001600160a01b03909516855260208501929092529083015260608201525f516020611fe25f395f51905f5260808201529091507ffd201cc89e1a0b1653793b7605fcb9a8fcd49af126460d42c38fe802497dc2129060a090a28152600660205280600460408220828155826001820155826002820155826003820155015580f35b610e3e919550809296611ba4565b6102d75783859387610da4565b604051903d90823e3d90fd5b8380fd5b503461018157604036600319011261018157600435610e78611a88565b610e80611f9b565b81835260056020526040832060405190610e9982611b88565b80546001600160a01b039081168352600182015460208401908152600283015490911660408401819052600390920154606084015290610eda901515611f5c565b600254825182516001600160a01b0392831692889216833b156103205760849083604051988994859363c2e4aacb60e01b8552600485015260248401525f516020611fe25f395f51905f52604484015260018060a01b0316958660648401525af192868415610e4b578694610fc8575b50519151604080516001600160a01b03909416845260208401919091528201525f516020611fe25f395f51905f5260608201529091507f54737a830333f03c317505585f2490ede522dcc55e797107c6523cce94869a7090608090a28152600560205280600360408220828155826001820155826002820155015580f35b610fd6919450809295611ba4565b6107ce5782849286610f4a565b50346101815760a036600319011261018157610ffd611a46565b6044359060243561100c611a5c565b91608435611018611f9b565b600480546040516372c1cc1b60e11b81526001600160a01b03878116938201849052929792909116602082602481845afa9081156111dd576110666020926024948c916107a6575015611bde565b60405192838092632a5bb1b760e11b82528b60048301525afa80156107c3576110959189916107875750611c1b565b6110ad5f516020611fe25f395f51905f528314611f19565b8660405160208101906110c88161029e428b888c8c89611e19565b519020966040516110d881611b58565b6001600160a01b0386811680835260208084018a815260408086018981526060870197885242608088019081528f8a526006909452908820955186549086166001600160a01b0319918216178755915160018701555160028601559451600385018054919094169516949094179091559151600490910155803b1561043d57604051637921219560e11b8152908290829081838161117c898d8f3060048601611de1565b03925af180156102db576111c0575b5050907fa4d2cc0842c7917bde5c989e1237b137de43babb36b3874f91df1367fbf2fc43946102bc9260405195869586611e56565b816111cd91949394611ba4565b6111d95790865f61118b565b8680fd5b6040513d8b823e3d90fd5b50346101815780600319360112610181576003546040516001600160a01b039091168152602090f35b50346101815760c03660031901126101815761122b611a46565b60243590604435916064359161123f611a72565b60a4359086906001600160a01b0383169081840361032057600480546040516372c1cc1b60e11b815233928101929092526001600160a01b0316602082602481845afa908115610b9c5761129f60209260249488916107a6575015611bde565b604051632a5bb1b760e11b815233600482015292839182905afa801561143d576112cf9185916107875750611c1b565b6112d7611fc1565b6113037fe8fe57585ca8b7ec07325cb5cdc4701633418dd473836621b010ece196797f20881415611c5a565b61130e881515611ca6565b6001600160a01b03851691823b15610e5757604051637921219560e11b81528481806113408d8c303360048601611de1565b038183885af1908115610b9c578591611428575b505060405192602084015286604084015288606084015260808301526080825261137f60a083611ba4565b6003546001600160a01b031691823b15610e57576113b8928492838a60405196879586948593631ffa155b60e11b855260048501611cf2565b03925af180156102db57611413575b50507ffd201cc89e1a0b1653793b7605fcb9a8fcd49af126460d42c38fe802497dc212936114099160405160208101906102ac8161029e42338d8c8c89611e19565b0390a26001805580f35b8161141d91611ba4565b6102d757855f6113c7565b8161143291611ba4565b610e5757835f611354565b6040513d86823e3d90fd5b503461018157606061145936611ae0565b8194925061147260018060a01b03600354163314611e88565b810103126103205761148382611a9e565b91611495604060208301359201611a9e565b60048054604051632a5bb1b760e11b81526001600160a01b03938416928101839052919583169260209183916024918391165afa8015610b91576114df9187916102e65750611ecd565b60405163a9059cbb60e01b81526001600160a01b0385166004820152602481018390529260208460448189865af1908115610b91577fd8b91a9c331ad85e205da86637bfbc8878f5f0ff9a8afcd0a71ef965b46c59ea946102bc92611569575b5060405160208101906115598161029e428b8a8a88611d32565b5190209560405194859485611d6a565b6115819060203d60201161030e576103008183611ba4565b61153f565b5034610181576080366003190112610181576115a0611a46565b602435604435916064359060018060a01b0360045416604051906372c1cc1b60e11b8252336004830152602082602481845afa908115610315576115f06020926024948a916107a6575015611bde565b604051632a5bb1b760e11b815233600482015292839182905afa8015610b91576116209187916107875750611c1b565b611628611fc1565b6116405f516020611fe25f395f51905f528314611d95565b61164b841515611ca6565b6001600160a01b038116803b156102d757604051637921219560e11b815286818061167c8989303360048601611de1565b038183865af180156103155761176a575b60206004887f22fab45cdb4cae2ba056a8f09c36dadebe8828f555807a0678617e5366964d208989610b678a8a8a6040518a8101906116d48161029e42338c8c8a89611e19565b51902098898099604051936116e885611b58565b84528c840188815260408086018b815233606088018181524260808a01908152968652600660205294839020975188546001600160a01b03199081166001600160a01b03928316178a55945160018a01559151600289015593516003880180549094169116179091559151929093019190915551958695919290919086611e56565b611775878092611ba4565b6102d7575f61168d565b50346119a85760a03660031901126119a857611799611a46565b60443591906024356117a9611a5c565b916117b2611a72565b600480546040516372c1cc1b60e11b815233928101929092529194916001600160a01b0316602082602481845afa90811561199d576117fd6020926024945f916107a6575015611bde565b604051632a5bb1b760e11b815233600482015292839182905afa801561199d5761182d915f916107875750611c1b565b611835611fc1565b6118617fe8fe57585ca8b7ec07325cb5cdc4701633418dd473836621b010ece196797f20871415611c5a565b61186c831515611ca6565b6040516323b872dd60e01b8152336004820152306024820152604481018490526001600160a01b03831691906020816064815f875af1801561199d576119ac575b5060405191602083015283604083015260018060a01b0385166060830152606082526118da608083611ba4565b6003546001600160a01b031691823b156119a857611913925f92838a60405196879586948593631ffa155b60e11b855260048501611cf2565b03925af1801561199d57611963575b506114097f54737a830333f03c317505585f2490ede522dcc55e797107c6523cce94869a7093949560405160208101906115598161029e42338a8a88611d32565b7f54737a830333f03c317505585f2490ede522dcc55e797107c6523cce94869a709394505f61199191611ba4565b6114095f949350611922565b6040513d5f823e3d90fd5b5f80fd5b6119c49060203d60201161030e576103008183611ba4565b6118ad565b346119a85760203660031901126119a85760043563ffffffff60e01b81168091036119a857604051630271189760e51b9091148152602090f35b346119a85760203660031901126119a857611a1c611a46565b611a24611f9b565b600280546001600160a01b0319166001600160a01b0392909216919091179055005b600435906001600160a01b03821682036119a857565b606435906001600160a01b03821682036119a857565b608435906001600160a01b03821682036119a857565b602435906001600160a01b03821682036119a857565b35906001600160a01b03821682036119a857565b9181601f840112156119a85782359167ffffffffffffffff83116119a857602083818601950101116119a857565b60606003198201126119a857600435916024356001600160a01b03811681036119a857916044359067ffffffffffffffff82116119a857611b2391600401611ab2565b9091565b9181601f840112156119a85782359167ffffffffffffffff83116119a8576020808501948460051b0101116119a857565b60a0810190811067ffffffffffffffff821117611b7457604052565b634e487b7160e01b5f52604160045260245ffd5b6080810190811067ffffffffffffffff821117611b7457604052565b90601f8019910116810190811067ffffffffffffffff821117611b7457604052565b908160209103126119a8575180151581036119a85790565b15611be557565b60405162461bcd60e51b815260206004820152600e60248201526d20b1b1b7bab73a10333937bd32b760911b6044820152606490fd5b15611c2257565b60405162461bcd60e51b815260206004820152601060248201526f12d650c81b9bdd081d995c9a599a595960821b6044820152606490fd5b15611c6157565b60405162461bcd60e51b815260206004820152601d60248201527f43616e6e6f74207472616e7366657220746f2073616d6520636861696e0000006044820152606490fd5b15611cad57565b60405162461bcd60e51b815260206004820152601760248201527f416d6f756e74206d75737420626520706f7369746976650000000000000000006044820152606490fd5b9192608093602092845260018060a01b031682840152606060408401528051918291826060860152018484015e5f828201840152601f01601f1916010190565b929091606894926001600160601b03199060601b16845260148401526001600160601b03199060601b16603483015260488201520190565b6001600160a01b03918216815260208101929092529091166040820152606081019190915260800190565b15611d9c57565b60405162461bcd60e51b815260206004820152601960248201527f496e76616c69642064657374696e6174696f6e20636861696e000000000000006044820152606490fd5b6001600160a01b039182168152911660208201526040810191909152606081019190915260a0608082018190525f9082015260c00190565b939160889593916001600160601b03199060601b168552601485015260348401526001600160601b03199060601b16605483015260688201520190565b6001600160a01b0391821681526020810192909252604082019290925291166060820152608081019190915260a00190565b15611e8f57565b60405162461bcd60e51b815260206004820152601660248201527513db9b1e481059d9d3185e595c8818d85b8818d85b1b60521b6044820152606490fd5b15611ed457565b60405162461bcd60e51b815260206004820152601a60248201527f526563697069656e74206e6f74204b59432076657269666965640000000000006044820152606490fd5b15611f2057565b60405162461bcd60e51b815260206004820152601460248201527324b73b30b634b21039b7bab931b29031b430b4b760611b6044820152606490fd5b15611f6357565b60405162461bcd60e51b815260206004820152601060248201526f105cdcd95d081b9bdd081b1bd8dad95960821b6044820152606490fd5b5f546001600160a01b03163303611fae57565b63118cdaa760e01b5f523360045260245ffd5b600260015414611fd2576002600155565b633ee5aeb560e01b5f5260045ffdfe98d35890f262f42e468663746e93596a5077f0e2571f072ea1905db676f8daafa2646970667358221220a83a75e657ffbb908aaa60a4a1c1d2accba3bb74b8e784e0f0919239dc62c21364736f6c634300081c0033",
  "linkReferences": {},
  "deployedLinkReferences": {}
}