{
  "_format": "hh-sol-artifact-1",
  "contractName": "ComplianceManager",
  "sourceName": "contracts/ComplianceManager.sol",
  "abi": [
    {
      "inputs": [
        {
          "internalType": "address",
          "name": "trustedForwarder",
          "type": "address"
        }
      ],
      "stateMutability": "nonpayable",
      "type": "constructor"
    },
    {
      "inputs": [
        {
          "internalType": "address",
          "name": "sender",
          "type": "address"
        },
        {
          "internalType": "uint256",
          "name": "tokenId",
          "type": "uint256"
        },
        {
          "internalType": "address",
          "name": "owner",
          "type": "address"
        }
      ],
      "name": "ERC721IncorrectOwner",
      "type": "error"
    },
    {
      "inputs": [
        {
          "internalType": "address",
          "name": "operator",
          "type": "address"
        },
        {
          "internalType": "uint256",
          "name": "tokenId",
          "type": "uint256"
        }
      ],
      "name": "ERC721InsufficientApproval",
      "type": "error"
    },
    {
      "inputs": [
        {
          "internalType": "address",
          "name": "approver",
          "type": "address"
        }
      ],
      "name": "ERC721InvalidApprover",
      "type": "error"
    },
    {
      "inputs": [
        {
          "internalType": "address",
          "name": "operator",
          "type": "address"
        }
      ],
      "name": "ERC721InvalidOperator",
      "type": "error"
    },
    {
      "inputs": [
        {
          "internalType": "address",
          "name": "owner",
          "type": "address"
        }
      ],
      "name": "ERC721InvalidOwner",
      "type": "error"
    },
    {
      "inputs": [
        {
          "internalType": "address",
          "name": "receiver",
          "type": "address"
        }
      ],
      "name": "ERC721InvalidReceiver",
      "type": "error"
    },
    {
      "inputs": [
        {
          "internalType": "address",
          "name": "sender",
          "type": "address"
        }
      ],
      "name": "ERC721InvalidSender",
      "type": "error"
    },
    {
      "inputs": [
        {
          "internalType": "uint256",
          "name": "tokenId",
          "type": "uint256"
        }
      ],
      "name": "ERC721NonexistentToken",
      "type": "error"
    },
    {
      "inputs": [
        {
          "internalType": "address",
          "name": "owner",
          "type": "address"
        }
      ],
      "name": "OwnableInvalidOwner",
      "type": "error"
    },
    {
      "inputs": [
        {
          "internalType": "address",
          "name": "account",
          "type": "address"
        }
      ],
      "name": "OwnableUnauthorizedAccount",
      "type": "error"
    },
    {
      "anonymous": false,
      "inputs": [
        {
          "indexed": true,
          "internalType": "address",
          "name": "account",
          "type": "address"
        },
        {
          "indexed": false,
          "internalType": "string",
          "name": "reason",
          "type": "string"
        }
      ],
      "name": "AccountFrozen",
      "type": "event"
    },
    {
      "anonymous": false,
      "inputs": [
        {
          "indexed": true,
          "internalType": "address",
          "name": "account",
          "type": "address"
        }
      ],
      "name": "AccountUnfrozen",
      "type": "event"
    },
    {
      "anonymous": false,
      "inputs": [
        {
          "indexed": true,
          "internalType": "address",
          "name": "owner",
          "type": "address"
        },
        {
          "indexed": true,
          "internalType": "address",
          "name": "approved",
          "type": "address"
        },
        {
          "indexed": true,
          "internalType": "uint256",
          "name": "tokenId",
          "type": "uint256"
        }
      ],
      "name": "Approval",
      "type": "event"
    },
    {
      "anonymous": false,
      "inputs": [
        {
          "indexed": true,
          "internalType": "address",
          "name": "owner",
          "type": "address"
        },
        {
          "indexed": true,
          "internalType": "address",
          "name": "operator",
          "type": "address"
        },
        {
          "indexed": false,
          "internalType": "bool",
          "name": "approved",
          "type": "bool"
        }
      ],
      "name": "ApprovalForAll",
      "type": "event"
    },
    {
      "anonymous": false,
      "inputs": [
        {
          "indexed": true,
          "internalType": "address",
          "name": "account",
          "type": "address"
        },
        {
          "indexed": false,
          "internalType": "uint256",
          "name": "tokenId",
          "type": "uint256"
        }
      ],
      "name": "IdentityRevoked",
      "type": "event"
    },
    {
      "anonymous": false,
      "inputs": [
        {
          "indexed": true,
          "internalType": "address",
          "name": "account",
          "type": "address"
        },
        {
          "indexed": false,
          "internalType": "uint256",
          "name": "tokenId",
          "type": "uint256"
        }
      ],
      "name": "IdentityVerified",
      "type": "event"
    },
    {
      "anonymous": false,
      "inputs": [
        {
          "indexed": true,
          "internalType": "address",
          "name": "account",
          "type": "address"
        }
      ],
      "name": "KYCRevoked",
      "type": "event"
    },
    {
      "anonymous": false,
      "inputs": [
        {
          "indexed": true,
          "internalType": "address",
          "name": "account",
          "type": "address"
        }
      ],
      "name": "KYCVerified",
      "type": "event"
    },
    {
      "anonymous": false,
      "inputs": [
        {
          "indexed": true,
          "internalType": "address",
          "name": "previousOwner",
          "type": "address"
        },
        {
          "indexed": true,
          "internalType": "address",
          "name": "newOwner",
          "type": "address"
        }
      ],
      "name": "OwnershipTransferred",
      "type": "event"
    },
    {
      "anonymous": false,
      "inputs": [
        {
          "indexed": true,
          "internalType": "address",
          "name": "newTimelock",
          "type": "address"
        }
      ],
      "name": "TimelockUpdated",
      "type": "event"
    },
    {
      "anonymous": false,
      "inputs": [
        {
          "indexed": true,
          "internalType": "address",
          "name": "from",
          "type": "address"
        },
        {
          "indexed": true,
          "internalType": "address",
          "name": "to",
          "type": "address"
        },
        {
          "indexed": true,
          "internalType": "uint256",
          "name": "tokenId",
          "type": "uint256"
        }
      ],
      "name": "Transfer",
      "type": "event"
    },
    {
      "inputs": [
        {
          "internalType": "address",
          "name": "to",
          "type": "address"
        },
        {
          "internalType": "uint256",
          "name": "tokenId",
          "type": "uint256"
        }
      ],
      "name": "approve",
      "outputs": [],
      "stateMutability": "nonpayable",
      "type": "function"
    },
    {
      "inputs": [
        {
          "internalType": "address",
          "name": "owner",
          "type": "address"
        }
      ],
      "name": "balanceOf",
      "outputs": [
        {
          "internalType": "uint256",
          "name": "",
          "type": "uint256"
        }
      ],
      "stateMutability": "view",
      "type": "function"
    },
    {
      "inputs": [],
      "name": "complianceRegistry",
      "outputs": [
        {
          "internalType": "contract IComplianceRegistry",
          "name": "",
          "type": "address"
        }
      ],
      "stateMutability": "view",
      "type": "function"
    },
    {
      "inputs": [
        {
          "internalType": "address",
          "name": "_account",
          "type": "address"
        },
        {
          "internalType": "string",
          "name": "reason",
          "type": "string"
        }
      ],
      "name": "freezeAccount",
      "outputs": [],
      "stateMutability": "nonpayable",
      "type": "function"
    },
    {
      "inputs": [
        {
          "internalType": "uint256",
          "name": "tokenId",
          "type": "uint256"
        }
      ],
      "name": "getApproved",
      "outputs": [
        {
          "internalType": "address",
          "name": "",
          "type": "address"
        }
      ],
      "stateMutability": "view",
      "type": "function"
    },
    {
      "inputs": [
        {
          "internalType": "address",
          "name": "account",
          "type": "address"
        }
      ],
      "name": "hasIdentity",
      "outputs": [
        {
          "internalType": "bool",
          "name": "",
          "type": "bool"
        }
      ],
      "stateMutability": "view",
      "type": "function"
    },
    {
      "inputs": [
        {
          "internalType": "address",
          "name": "owner",
          "type": "address"
        },
        {
          "internalType": "address",
          "name": "operator",
          "type": "address"
        }
      ],
      "name": "isApprovedForAll",
      "outputs": [
        {
          "internalType": "bool",
          "name": "",
          "type": "bool"
        }
      ],
      "stateMutability": "view",
      "type": "function"
    },
    {
      "inputs": [
        {
          "internalType": "address",
          "name": "_account",
          "type": "address"
        }
      ],
      "name": "isCompliant",
      "outputs": [
        {
          "internalType": "bool",
          "name": "",
          "type": "bool"
        }
      ],
      "stateMutability": "view",
      "type": "function"
    },
    {
      "inputs": [
        {
          "internalType": "address",
          "name": "_account",
          "type": "address"
        }
      ],
      "name": "isFrozen",
      "outputs": [
        {
          "internalType": "bool",
          "name": "",
          "type": "bool"
        }
      ],
      "stateMutability": "view",
      "type": "function"
    },
    {
      "inputs": [
        {
          "internalType": "address",
          "name": "_account",
          "type": "address"
        }
      ],
      "name": "isKYCVerified",
      "outputs": [
        {
          "internalType": "bool",
          "name": "",
          "type": "bool"
        }
      ],
      "stateMutability": "view",
      "type": "function"
    },
    {
      "inputs": [
        {
          "internalType": "address",
          "name": "forwarder",
          "type": "address"
        }
      ],
      "name": "isTrustedForwarder",
      "outputs": [
        {
          "internalType": "bool",
          "name": "",
          "type": "bool"
        }
      ],
      "stateMutability": "view",
      "type": "function"
    },
    {
      "inputs": [
        {
          "internalType": "address",
          "name": "to",
          "type": "address"
        }
      ],
      "name": "mintIdentity",
      "outputs": [],
      "stateMutability": "nonpayable",
      "type": "function"
    },
    {
      "inputs": [],
      "name": "name",
      "outputs": [
        {
          "internalType": "string",
          "name": "",
          "type": "string"
        }
      ],
      "stateMutability": "view",
      "type": "function"
    },
    {
      "inputs": [],
      "name": "owner",
      "outputs": [
        {
          "internalType": "address",
          "name": "",
          "type": "address"
        }
      ],
      "stateMutability": "view",
      "type": "function"
    },
    {
      "inputs": [
        {
          "internalType": "uint256",
          "name": "tokenId",
          "type": "uint256"
        }
      ],
      "name": "ownerOf",
      "outputs": [
        {
          "internalType": "address",
          "name": "",
          "type": "address"
        }
      ],
      "stateMutability": "view",
      "type": "function"
    },
    {
      "inputs": [],
      "name": "renounceOwnership",
      "outputs": [],
      "stateMutability": "nonpayable",
      "type": "function"
    },
    {
      "inputs": [
        {
          "internalType": "address",
          "name": "from",
          "type": "address"
        }
      ],
      "name": "revokeIdentity",
      "outputs": [],
      "stateMutability": "nonpayable",
      "type": "function"
    },
    {
      "inputs": [
        {
          "internalType": "address",
          "name": "_account",
          "type": "address"
        }
      ],
      "name": "revokeKYC",
      "outputs": [],
      "stateMutability": "nonpayable",
      "type": "function"
    },
    {
      "inputs": [
        {
          "internalType": "address",
          "name": "from",
          "type": "address"
        },
        {
          "internalType": "address",
          "name": "to",
          "type": "address"
        },
        {
          "internalType": "uint256",
          "name": "tokenId",
          "type": "uint256"
        }
      ],
      "name": "safeTransferFrom",
      "outputs": [],
      "stateMutability": "nonpayable",
      "type": "function"
    },
    {
      "inputs": [
        {
          "internalType": "address",
          "name": "from",
          "type": "address"
        },
        {
          "internalType": "address",
          "name": "to",
          "type": "address"
        },
        {
          "internalType": "uint256",
          "name": "tokenId",
          "type": "uint256"
        },
        {
          "internalType": "bytes",
          "name": "data",
          "type": "bytes"
        }
      ],
      "name": "safeTransferFrom",
      "outputs": [],
      "stateMutability": "nonpayable",
      "type": "function"
    },
    {
      "inputs": [
        {
          "internalType": "address",
          "name": "operator",
          "type": "address"
        },
        {
          "internalType": "bool",
          "name": "approved",
          "type": "bool"
        }
      ],
      "name": "setApprovalForAll",
      "outputs": [],
      "stateMutability": "nonpayable",
      "type": "function"
    },
    {
      "inputs": [
        {
          "internalType": "address",
          "name": "_timelock",
          "type": "address"
        }
      ],
      "name": "setTimelock",
      "outputs": [],
      "stateMutability": "nonpayable",
      "type": "function"
    },
    {
      "inputs": [
        {
          "internalType": "bytes4",
          "name": "interfaceId",
          "type": "bytes4"
        }
      ],
      "name": "supportsInterface",
      "outputs": [
        {
          "internalType": "bool",
          "name": "",
          "type": "bool"
        }
      ],
      "stateMutability": "view",
      "type": "function"
    },
    {
      "inputs": [],
      "name": "symbol",
      "outputs": [
        {
          "internalType": "string",
          "name": "",
          "type": "string"
        }
      ],
      "stateMutability": "view",
      "type": "function"
    },
    {
      "inputs": [],
      "name": "timelock",
      "outputs": [
        {
          "internalType": "address",
          "name": "",
          "type": "address"
        }
      ],
      "stateMutability": "view",
      "type": "function"
    },
    {
      "inputs": [
        {
          "internalType": "uint256",
          "name": "tokenId",
          "type": "uint256"
        }
      ],
      "name": "tokenURI",
      "outputs": [
        {
          "internalType": "string",
          "name": "",
          "type": "string"
        }
      ],
      "stateMutability": "view",
      "type": "function"
    },
    {
      "inputs": [
        {
          "internalType": "address",
          "name": "from",
          "type": "address"
        },
        {
          "internalType": "address",
          "name": "to",
          "type": "address"
        },
        {
          "internalType": "uint256",
          "name": "tokenId",
          "type": "uint256"
        }
      ],
      "name": "transferFrom",
      "outputs": [],
      "stateMutability": "nonpayable",
      "type": "function"
    },
    {
      "inputs": [
        {
          "internalType": "address",
          "name": "newOwner",
          "type": "address"
        }
      ],
      "name": "transferOwnership",
      "outputs": [],
      "stateMutability": "nonpayable",
      "type": "function"
    },
    {
      "inputs": [],
      "name": "trustedForwarder",
      "outputs": [
        {
          "internalType": "address",
          "name": "",
          "type": "address"
        }
      ],
      "stateMutability": "view",
      "type": "function"
    },
    {
      "inputs": [
        {
          "internalType": "address",
          "name": "_account",
          "type": "address"
        }
      ],
      "name": "unfreezeAccount",
      "outputs": [],
      "stateMutability": "nonpayable",
      "type": "function"
    },
    {
      "inputs": [
        {
          "internalType": "address",
          "name": "",
          "type": "address"
        }
      ],
      "name": "userTokenId",
      "outputs": [
        {
          "internalType": "uint256",
          "name": "",
          "type": "uint256"
        }
      ],
      "stateMutability": "view",
      "type": "function"
    },
    {
      "inputs": [
        {
          "internalType": "address",
          "name": "_account",
          "type": "address"
        }
      ],
      "name": "verifyKYC",
      "outputs": [],
      "stateMutability": "nonpayable",
      "type": "function"
    }
  ],
  "bytecode": "0x60a0604052346103e957611dce6020813803918261001c816103ed565b9384928339810103126103e957516001600160a01b03811681036103e95761004460406103ed565b90601082526f119a5b9bdd985d1955995c9a599a595960821b602083015261006c60406103ed565b60068152651195950b525160d21b602082015282519091906001600160401b0381116102fd575f54600181811c911680156103df575b60208210146102df57601f811161037d575b506020601f821160011461031c57819293945f92610311575b50508160011b915f199060031b1c1916175f555b81516001600160401b0381116102fd57600154600181811c911680156102f3575b60208210146102df57601f811161027c575b50602092601f821160011461021b57928192935f92610210575b50508160011b915f199060031b1c1916176001555b33156101fd5760068054336001600160a01b0319821681179092556040519291906001600160a01b03167f8be0079c531659141344cd1fd0a4f28419497f9722a3daafe3b4186f6b6457e05f80a36080526001600160a01b036101a4610412565b168060018060a01b0319600c541617600c557fc046b9e8f0cd9b70a3b838962e9c229277fbb7abee68ea0fad4acf2898ed2ca95f80a2611980908161044e8239608051818181610b1a01528181610cbf015261191c0152f35b631e4fbdf760e01b5f525f60045260245ffd5b015190505f8061012e565b601f1982169360015f52805f20915f5b868110610264575083600195961061024c575b505050811b01600155610143565b01515f1960f88460031b161c191690555f808061023e565b9192602060018192868501518155019401920161022b565b60015f527fb10e2d527612073b26eecdfd717e6a320cf44b4afac2b0732d9fcbe2b7fa0cf6601f830160051c810191602084106102d5575b601f0160051c01905b8181106102ca5750610114565b5f81556001016102bd565b90915081906102b4565b634e487b7160e01b5f52602260045260245ffd5b90607f1690610102565b634e487b7160e01b5f52604160045260245ffd5b015190505f806100cd565b601f198216905f8052805f20915f5b8181106103655750958360019596971061034d575b505050811b015f556100e1565b01515f1960f88460031b161c191690555f8080610340565b9192602060018192868b01518155019401920161032b565b5f80527f290decd9548b62a8d60345a988386fc84ba6bc95484008f6362f93160ef3e563601f830160051c810191602084106103d5575b601f0160051c01905b8181106103ca57506100b4565b5f81556001016103bd565b90915081906103b4565b90607f16906100a2565b5f80fd5b6040519190601f01601f191682016001600160401b038111838210176102fd57604052565b601436101580610439575b156104355760131936013681116103e9573560601c90565b3390565b506080516001600160a01b0316331461041d56fe6080806040526004361015610012575f80fd5b5f905f3560e01c90816301ffc9a7146112205750806306fdde0314611168578063081812fc1461112c578063095ea7b3146110345780630ebddd1714610e52578063237f1a2114610e2f57806323b872dd14610e1857806338d1601114610dad57806339ba645b14610d4557806342842e0e14610d1657806354b7636e14610cf3578063572b6c0514610c9f5780636352211e14610c6f57806370a0823114610c44578063715018a614610be9578063715ca54214610bb1578063788649ea14610b495780637da0a87714610b0557806386f666221461075d5780638da5cb5b1461073557806395d89b411461062d578063a200e5d0146105e6578063a22cb46514610523578063b88d4fde146104ae578063bdacb303146103f4578063c87b56dd14610397578063cac89c5c1461036e578063d33219b414610345578063d9cb86061461028f578063e583983614610261578063e985e9c5146102095763f2fde38b1461017e575f80fd5b34610206576020366003190112610206576101976112af565b61019f611774565b6001600160a01b031680156101f257600680546001600160a01b0319811683179091556001600160a01b03167f8be0079c531659141344cd1fd0a4f28419497f9722a3daafe3b4186f6b6457e05f80a380f35b631e4fbdf760e01b82526004829052602482fd5b80fd5b50346102065760403660031901126102065760406102256112af565b9161022e6112c5565b9260018060a01b031681526005602052209060018060a01b03165f52602052602060ff60405f2054166040519015158152f35b50346102065760203660031901126102065760206102856102806112af565b6116e9565b6040519015158152f35b5034610206576040366003190112610206576102a96112af565b60243567ffffffffffffffff811161034157366023820112156103415761033b6102fe7fc71267b66b2c8820cf488bba23c122cee8408eb55e75428bab72cce8d259e6b9923690602481600401359101611367565b92610307611774565b60018060a01b031692838552600860205260408520600160ff1982541617905560405191829160208352602083019061128b565b0390a280f35b8280fd5b5034610206578060031936011261020657600c546040516001600160a01b039091168152602090f35b5034610206578060031936011261020657600b546040516001600160a01b039091168152602090f35b346103f05760203660031901126103f0576103b3600435611752565b505f6040516103c3602082611315565b526103ec6040516103d5602082611315565b5f815260405191829160208352602083019061128b565b0390f35b5f80fd5b346103f05760203660031901126103f05761040d6112af565b6104156118f1565b600c549190610431906001600160a01b0380851691161461139d565b6001600160a01b0316908115610476576001600160a01b0319168117600c557fc046b9e8f0cd9b70a3b838962e9c229277fbb7abee68ea0fad4acf2898ed2ca95f80a2005b60405162461bcd60e51b815260206004820152601060248201526f496e76616c69642074696d656c6f636b60801b6044820152606490fd5b346103f05760803660031901126103f0576104c76112af565b6104cf6112c5565b906044356064359267ffffffffffffffff84116103f057366023850112156103f057610508610521943690602481600401359101611367565b92610514838383611486565b61051c6118f1565b6117bb565b005b346103f05760403660031901126103f05761053c6112af565b602435908115158092036103f0576001600160a01b0361055a6118f1565b169081156105d3576001600160a01b03169182156105c05760207f17307eab39ab6107e8899845ad3d59bd9653f200f220920489ca2b5937696c3191835f526005825260405f20855f52825260405f2060ff1981541660ff8316179055604051908152a3005b82630b61174360e31b5f5260045260245ffd5b63a9fbf51f60e01b5f525f60045260245ffd5b346103f05760203660031901126103f05760206106016112af565b61060a816116e9565b15908161061d575b506040519015158152f35b610627915061164f565b82610612565b346103f0575f3660031901126103f0576040515f6001548060011c9060018116801561072b575b602083108114610717578285529081156106f35750600114610695575b6103ec8361068181850382611315565b60405191829160208352602083019061128b565b91905060015f527fb10e2d527612073b26eecdfd717e6a320cf44b4afac2b0732d9fcbe2b7fa0cf6915f905b8082106106d957509091508101602001610681610671565b9192600181602092548385880101520191019092916106c1565b60ff191660208086019190915291151560051b840190910191506106819050610671565b634e487b7160e01b5f52602260045260245ffd5b91607f1691610654565b346103f0575f3660031901126103f0576006546040516001600160a01b039091168152602090f35b346103f05760203660031901126103f0576107766112af565b6107976107816118f1565b600c546001600160a01b0391821691161461139d565b6107a0816116b8565b610ac0576007545f198114610aac576001810160075560206040516107c58282611315565b5f81526001600160a01b038416938415610a99575f8481526002845260409020546001600160a01b0316151580610a91575b610a42575f8481526002845260409020546001600160a01b03168015159081610a11575b865f526003855260405f2060018154019055855f526002855260405f20876bffffffffffffffffffffffff60a01b8254161790558587827fddf252ad1be2c89b69c2b068fc378daa952ba7f163c4a11628f55a4df523b3ef5f80a4506109fe576108836118f1565b903b6108c4575b50507f201a5a9a3e3f6b0c73a6d63220a9d2ef703797c59033d36f0e63f2db8e32900791835f52600a82528060405f2055604051908152a2005b604051630a85bd0160e11b81526001600160a01b0390911660048201525f602482015260448101849052608060648201529082908290819061090a90608483019061128b565b03815f885af15f91816109be575b5061096d5783823d15610965573d906109308261134b565b9161093e6040519384611315565b82523d5f8284013e5b815191826109625783633250574960e11b5f5260045260245ffd5b01fd5b606090610947565b6001600160e01b03191663757a42ff60e11b016109ab577f201a5a9a3e3f6b0c73a6d63220a9d2ef703797c59033d36f0e63f2db8e3290078461088a565b82633250574960e11b5f5260045260245ffd5b9091508281813d83116109f7575b6109d68183611315565b810103126103f057516001600160e01b0319811681036103f0579085610918565b503d6109cc565b6339e3563760e11b5f525f60045260245ffd5b5f8681526004602052604080822080546001600160a01b031916905582825260038752902080545f1901905561081b565b60405162461bcd60e51b815260048101849052602160248201527f5342543a204964656e74697479206973206e6f74207472616e7366657261626c6044820152606560f81b6064820152608490fd5b5060016107f7565b633250574960e11b5f525f60045260245ffd5b634e487b7160e01b5f52601160045260245ffd5b60405162461bcd60e51b815260206004820152601960248201527f4964656e7469747920616c7265616479207665726966696564000000000000006044820152606490fd5b346103f0575f3660031901126103f0576040517f00000000000000000000000000000000000000000000000000000000000000006001600160a01b03168152602090f35b346103f05760203660031901126103f057610b626112af565b610b6d6107816118f1565b6001600160a01b03165f818152600860205260408120805460ff191690557ff915cd9fe234de6e8d3afe7bf2388d35b2b6d48e8c629a24602019bde79c213a9080a2005b346103f05760203660031901126103f0576001600160a01b03610bd26112af565b165f52600a602052602060405f2054604051908152f35b346103f0575f3660031901126103f057610c01611774565b600680546001600160a01b031981169091555f906001600160a01b03167f8be0079c531659141344cd1fd0a4f28419497f9722a3daafe3b4186f6b6457e08280a3005b346103f05760203660031901126103f0576020610c67610c626112af565b6116b8565b604051908152f35b346103f05760203660031901126103f0576020610c8d600435611752565b6040516001600160a01b039091168152f35b346103f05760203660031901126103f0576020610cba6112af565b6040517f00000000000000000000000000000000000000000000000000000000000000006001600160a01b039081169216919091148152f35b346103f05760203660031901126103f0576020610285610d116112af565b61164f565b346103f057610521610d27366112db565b9060405192610d37602085611315565b5f8452610514838383611486565b346103f05760203660031901126103f057610d5e6112af565b610d696107816118f1565b6001600160a01b03165f818152600960205260408120805460ff191690557ffb4ca6a2470de95e9f648557fae63380f22c4b760bd27b0571caf5977a30278a9080a2005b346103f05760203660031901126103f057610dc66112af565b610dd16107816118f1565b6001600160a01b03165f818152600960205260408120805460ff191660011790557f65c84ee842eafc291d1272a6e3d10f8c454c4288e63f5db3f7be2b3012f321a99080a2005b346103f057610521610e29366112db565b91611486565b346103f05760203660031901126103f0576020610285610e4d6112af565b6113f3565b346103f05760203660031901126103f057610e6b6112af565b610e766107816118f1565b610e7f816116b8565b15610ff75760018060a01b0316805f52600a60205260405f2054805f52600260205260018060a01b0360405f205416151580610ff0575b610fa1575f818152600260205260409020546001600160a01b03168015908115610f6e575b5f83815260026020526040812080546001600160a01b03191690558390827fddf252ad1be2c89b69c2b068fc378daa952ba7f163c4a11628f55a4df523b3ef8280a450610f5c5760207f3e3c59bb369a9da1f5c9df74adb044e1181c4e20448838f42d9e860bb0a18cdb91835f52600a82525f6040812055604051908152a2005b637e27328960e01b5f5260045260245ffd5b5f83815260046020526040902080546001600160a01b0319169055805f52600360205260405f205f198154019055610edb565b60405162461bcd60e51b815260206004820152602160248201527f5342543a204964656e74697479206973206e6f74207472616e7366657261626c6044820152606560f81b6064820152608490fd5b505f610eb6565b60405162461bcd60e51b81526020600482015260156024820152744e6f206964656e7469747920746f207265766f6b6560581b6044820152606490fd5b346103f05760403660031901126103f05761104d6112af565b6024356110586118f1565b61106182611752565b906001600160a01b031680151580611119575b806110f0575b6110de575081906001600160a01b0384811691167f8c5be1e5ebec7d5bd14f71427d1e84f3dd0314c0f7b2291e5b200ac8c7c3b9255f80a45f90815260046020526040902080546001600160a01b0319166001600160a01b03909216919091179055005b63a9fbf51f60e01b5f5260045260245ffd5b5060018060a01b0382165f52600560205260405f20815f5260205260ff60405f2054161561107a565b506001600160a01b038216811415611074565b346103f05760203660031901126103f05760043561114981611752565b505f526004602052602060018060a01b0360405f205416604051908152f35b346103f0575f3660031901126103f0576040515f5f548060011c90600181168015611216575b602083108114610717578285529081156106f357506001146111ba576103ec8361068181850382611315565b5f8080527f290decd9548b62a8d60345a988386fc84ba6bc95484008f6362f93160ef3e563939250905b8082106111fc57509091508101602001610681610671565b9192600181602092548385880101520191019092916111e4565b91607f169161118e565b346103f05760203660031901126103f0576004359063ffffffff60e01b82168092036103f0576020916380ac58cd60e01b811490811561127a575b8115611269575b5015158152f35b6301ffc9a760e01b14905083611262565b635b5e139f60e01b8114915061125b565b805180835260209291819084018484015e5f828201840152601f01601f1916010190565b600435906001600160a01b03821682036103f057565b602435906001600160a01b03821682036103f057565b60609060031901126103f0576004356001600160a01b03811681036103f057906024356001600160a01b03811681036103f0579060443590565b90601f8019910116810190811067ffffffffffffffff82111761133757604052565b634e487b7160e01b5f52604160045260245ffd5b67ffffffffffffffff811161133757601f01601f191660200190565b9291926113738261134b565b916113816040519384611315565b8294818452818301116103f0578281602093845f960137010152565b156113a457565b60405162461bcd60e51b815260206004820152600f60248201526e6f6e6c7920476f7665726e616e636560881b6044820152606490fd5b908160209103126103f0575180151581036103f05790565b600b546001600160a01b031690816114145761140f91506116b8565b151590565b60405163237f1a2160e01b81526001600160a01b03909116600482015290602090829060249082905afa90811561147b575f9161144f575090565b611471915060203d602011611474575b6114698183611315565b8101906113db565b90565b503d61145f565b6040513d5f823e3d90fd5b6001600160a01b0390911691908215610a99576114a16118f1565b5f838152600260205260409020549093906001600160a01b0316151580611647575b610fa1575f838152600260205260409020546001600160a01b039081169484929116801515806115b1575b50508461157e575b805f52600360205260405f2060018154019055815f52600260205260405f20816bffffffffffffffffffffffff60a01b825416179055847fddf252ad1be2c89b69c2b068fc378daa952ba7f163c4a11628f55a4df523b3ef5f80a46001600160a01b031680830361156657505050565b6364283d7b60e01b5f5260045260245260445260645ffd5b5f82815260046020526040902080546001600160a01b0319169055845f52600360205260405f205f1981540190556114f6565b91925090806115f8575b156115c957908184926114ee565b8390856115e35750637e27328960e01b5f5260045260245ffd5b63177e802f60e01b5f5260045260245260445ffd5b508085148015611627575b806115bb57505f848152600460205260409020546001600160a01b031681146115bb565b50845f52600560205260405f20815f5260205260ff60405f205416611603565b5060016114c3565b600b546001600160a01b03168061167e57506001600160a01b03165f9081526009602052604090205460ff1690565b604051632a5bb1b760e11b81526001600160a01b039092166004830152602090829060249082905afa90811561147b575f9161144f575090565b6001600160a01b031680156116d6575f52600360205260405f205490565b6322718ad960e21b5f525f60045260245ffd5b600b546001600160a01b03168061171857506001600160a01b03165f9081526008602052604090205460ff1690565b6040516372c1cc1b60e11b81526001600160a01b039092166004830152602090829060249082905afa90811561147b575f9161144f575090565b5f818152600260205260409020546001600160a01b0316908115610f5c575090565b6006546001600160a01b039081169061178b6118f1565b160361179357565b61179b6118f1565b63118cdaa760e01b5f9081526001600160a01b0391909116600452602490fd5b823b6117c9575b5050505050565b604051630a85bd0160e11b81526001600160a01b03918216600482015291811660248301526044820193909352608060648201529116916020908290819061181590608483019061128b565b03815f865af15f91816118ac575b5061187857503d15611871573d6118398161134b565b906118476040519283611315565b81523d5f602083013e5b8051908161186c5782633250574960e11b5f5260045260245ffd5b602001fd5b6060611851565b6001600160e01b03191663757a42ff60e11b0161189a57505f808080806117c2565b633250574960e11b5f5260045260245ffd5b9091506020813d6020116118e9575b816118c860209383611315565b810103126103f057516001600160e01b0319811681036103f057905f611823565b3d91506118bb565b601436101580611918575b156119145760131936013681116103f0573560601c90565b3390565b50337f00000000000000000000000000000000000000000000000000000000000000006001600160a01b0316146118fc56fea2646970667358221220f5b28072cda99f47e63b0c60e18efbcb641a6c9e1d97babc8197ed9eb4160b0464736f6c634300081c0033",
  "linkReferences": {},
  "deployedLinkReferences": {}
}