{
  "_format": "hh-sol-artifact-1",
  "contractName": "ComplianceManager",
  "sourceName": "contracts/ComplianceManager.sol",
  "abi": [
    {
      "inputs": [
        {
          "internalType": "address",
          "name": "trustedForwarder",
          "type": "address"
        }
      ],
      "stateMutability": "nonpayable",
      "type": "constructor"
    },
    {
      "inputs": [
        {
          "internalType": "address",
          "name": "sender",
          "type": "address"
        },
        {
          "internalType": "uint256",
          "name": "tokenId",
          "type": "uint256"
        },
        {
          "internalType": "address",
          "name": "owner",
          "type": "address"
        }
      ],
      "name": "ERC721IncorrectOwner",
      "type": "error"
    },
    {
      "inputs": [
        {
          "internalType": "address",
          "name": "operator",
          "type": "address"
        },
        {
          "internalType": "uint256",
          "name": "tokenId",
          "type": "uint256"
        }
      ],
      "name": "ERC721InsufficientApproval",
      "type": "error"
    },
    {
      "inputs": [
        {
          "internalType": "address",
          "name": "approver",
          "type": "address"
        }
      ],
      "name": "ERC721InvalidApprover",
      "type": "error"
    },
    {
      "inputs": [
        {
          "internalType": "address",
          "name": "operator",
          "type": "address"
        }
      ],
      "name": "ERC721InvalidOperator",
      "type": "error"
    },
    {
      "inputs": [
        {
          "internalType": "address",
          "name": "owner",
          "type": "address"
        }
      ],
      "name": "ERC721InvalidOwner",
      "type": "error"
    },
    {
      "inputs": [
        {
          "internalType": "address",
          "name": "receiver",
          "type": "address"
        }
      ],
      "name": "ERC721InvalidReceiver",
      "type": "error"
    },
    {
      "inputs": [
        {
          "internalType": "address",
          "name": "sender",
          "type": "address"
        }
      ],
      "name": "ERC721InvalidSender",
      "type": "error"
    },
    {
      "inputs": [
        {
          "internalType": "uint256",
          "name": "tokenId",
          "type": "uint256"
        }
      ],
      "name": "ERC721NonexistentToken",
      "type": "error"
    },
    {
      "inputs": [
        {
          "internalType": "address",
          "name": "owner",
          "type": "address"
        }
      ],
      "name": "OwnableInvalidOwner",
      "type": "error"
    },
    {
      "inputs": [
        {
          "internalType": "address",
          "name": "account",
          "type": "address"
        }
      ],
      "name": "OwnableUnauthorizedAccount",
      "type": "error"
    },
    {
      "anonymous": false,
      "inputs": [
        {
          "indexed": true,
          "internalType": "address",
          "name": "account",
          "type": "address"
        },
        {
          "indexed": false,
          "internalType": "string",
          "name": "reason",
          "type": "string"
        }
      ],
      "name": "AccountFrozen",
      "type": "event"
    },
    {
      "anonymous": false,
      "inputs": [
        {
          "indexed": true,
          "internalType": "address",
          "name": "account",
          "type": "address"
        }
      ],
      "name": "AccountUnfrozen",
      "type": "event"
    },
    {
      "anonymous": false,
      "inputs": [
        {
          "indexed": true,
          "internalType": "address",
          "name": "owner",
          "type": "address"
        },
        {
          "indexed": true,
          "internalType": "address",
          "name": "approved",
          "type": "address"
        },
        {
          "indexed": true,
          "internalType": "uint256",
          "name": "tokenId",
          "type": "uint256"
        }
      ],
      "name": "Approval",
      "type": "event"
    },
    {
      "anonymous": false,
      "inputs": [
        {
          "indexed": true,
          "internalType": "address",
          "name": "owner",
          "type": "address"
        },
        {
          "indexed": true,
          "internalType": "address",
          "name": "operator",
          "type": "address"
        },
        {
          "indexed": false,
          "internalType": "bool",
          "name": "approved",
          "type": "bool"
        }
      ],
      "name": "ApprovalForAll",
      "type": "event"
    },
    {
      "anonymous": false,
      "inputs": [
        {
          "indexed": true,
          "internalType": "address",
          "name": "account",
          "type": "address"
        },
        {
          "indexed": false,
          "internalType": "uint256",
          "name": "tokenId",
          "type": "uint256"
        }
      ],
      "name": "IdentityRevoked",
      "type": "event"
    },
    {
      "anonymous": false,
      "inputs": [
        {
          "indexed": true,
          "internalType": "address",
          "name": "account",
          "type": "address"
        },
        {
          "indexed": false,
          "internalType": "uint256",
          "name": "tokenId",
          "type": "uint256"
        }
      ],
      "name": "IdentityVerified",
      "type": "event"
    },
    {
      "anonymous": false,
      "inputs": [
        {
          "indexed": true,
          "internalType": "address",
          "name": "account",
          "type": "address"
        }
      ],
      "name": "KYCRevoked",
      "type": "event"
    },
    {
      "anonymous": false,
      "inputs": [
        {
          "indexed": true,
          "internalType": "address",
          "name": "account",
          "type": "address"
        }
      ],
      "name": "KYCVerified",
      "type": "event"
    },
    {
      "anonymous": false,
      "inputs": [
        {
          "indexed": true,
          "internalType": "address",
          "name": "previousOwner",
          "type": "address"
        },
        {
          "indexed": true,
          "internalType": "address",
          "name": "newOwner",
          "type": "address"
        }
      ],
      "name": "OwnershipTransferred",
      "type": "event"
    },
    {
      "anonymous": false,
      "inputs": [
        {
          "indexed": true,
          "internalType": "address",
          "name": "newTimelock",
          "type": "address"
        }
      ],
      "name": "TimelockUpdated",
      "type": "event"
    },
    {
      "anonymous": false,
      "inputs": [
        {
          "indexed": true,
          "internalType": "address",
          "name": "from",
          "type": "address"
        },
        {
          "indexed": true,
          "internalType": "address",
          "name": "to",
          "type": "address"
        },
        {
          "indexed": true,
          "internalType": "uint256",
          "name": "tokenId",
          "type": "uint256"
        }
      ],
      "name": "Transfer",
      "type": "event"
    },
    {
      "inputs": [
        {
          "internalType": "address",
          "name": "to",
          "type": "address"
        },
        {
          "internalType": "uint256",
          "name": "tokenId",
          "type": "uint256"
        }
      ],
      "name": "approve",
      "outputs": [],
      "stateMutability": "nonpayable",
      "type": "function"
    },
    {
      "inputs": [
        {
          "internalType": "address",
          "name": "owner",
          "type": "address"
        }
      ],
      "name": "balanceOf",
      "outputs": [
        {
          "internalType": "uint256",
          "name": "",
          "type": "uint256"
        }
      ],
      "stateMutability": "view",
      "type": "function"
    },
    {
      "inputs": [],
      "name": "complianceRegistry",
      "outputs": [
        {
          "internalType": "contract IComplianceRegistry",
          "name": "",
          "type": "address"
        }
      ],
      "stateMutability": "view",
      "type": "function"
    },
    {
      "inputs": [
        {
          "internalType": "address",
          "name": "_account",
          "type": "address"
        },
        {
          "internalType": "string",
          "name": "reason",
          "type": "string"
        }
      ],
      "name": "freezeAccount",
      "outputs": [],
      "stateMutability": "nonpayable",
      "type": "function"
    },
    {
      "inputs": [
        {
          "internalType": "uint256",
          "name": "tokenId",
          "type": "uint256"
        }
      ],
      "name": "getApproved",
      "outputs": [
        {
          "internalType": "address",
          "name": "",
          "type": "address"
        }
      ],
      "stateMutability": "view",
      "type": "function"
    },
    {
      "inputs": [
        {
          "internalType": "address",
          "name": "account",
          "type": "address"
        }
      ],
      "name": "hasIdentity",
      "outputs": [
        {
          "internalType": "bool",
          "name": "",
          "type": "bool"
        }
      ],
      "stateMutability": "view",
      "type": "function"
    },
    {
      "inputs": [
        {
          "internalType": "address",
          "name": "owner",
          "type": "address"
        },
        {
          "internalType": "address",
          "name": "operator",
          "type": "address"
        }
      ],
      "name": "isApprovedForAll",
      "outputs": [
        {
          "internalType": "bool",
          "name": "",
          "type": "bool"
        }
      ],
      "stateMutability": "view",
      "type": "function"
    },
    {
      "inputs": [
        {
          "internalType": "address",
          "name": "_account",
          "type": "address"
        }
      ],
      "name": "isCompliant",
      "outputs": [
        {
          "internalType": "bool",
          "name": "",
          "type": "bool"
        }
      ],
      "stateMutability": "view",
      "type": "function"
    },
    {
      "inputs": [
        {
          "internalType": "address",
          "name": "_account",
          "type": "address"
        }
      ],
      "name": "isFrozen",
      "outputs": [
        {
          "internalType": "bool",
          "name": "",
          "type": "bool"
        }
      ],
      "stateMutability": "view",
      "type": "function"
    },
    {
      "inputs": [
        {
          "internalType": "address",
          "name": "_account",
          "type": "address"
        }
      ],
      "name": "isKYCVerified",
      "outputs": [
        {
          "internalType": "bool",
          "name": "",
          "type": "bool"
        }
      ],
      "stateMutability": "view",
      "type": "function"
    },
    {
      "inputs": [
        {
          "internalType": "address",
          "name": "forwarder",
          "type": "address"
        }
      ],
      "name": "isTrustedForwarder",
      "outputs": [
        {
          "internalType": "bool",
          "name": "",
          "type": "bool"
        }
      ],
      "stateMutability": "view",
      "type": "function"
    },
    {
      "inputs": [
        {
          "internalType": "address",
          "name": "to",
          "type": "address"
        }
      ],
      "name": "mintIdentity",
      "outputs": [],
      "stateMutability": "nonpayable",
      "type": "function"
    },
    {
      "inputs": [],
      "name": "name",
      "outputs": [
        {
          "internalType": "string",
          "name": "",
          "type": "string"
        }
      ],
      "stateMutability": "view",
      "type": "function"
    },
    {
      "inputs": [],
      "name": "owner",
      "outputs": [
        {
          "internalType": "address",
          "name": "",
          "type": "address"
        }
      ],
      "stateMutability": "view",
      "type": "function"
    },
    {
      "inputs": [
        {
          "internalType": "uint256",
          "name": "tokenId",
          "type": "uint256"
        }
      ],
      "name": "ownerOf",
      "outputs": [
        {
          "internalType": "address",
          "name": "",
          "type": "address"
        }
      ],
      "stateMutability": "view",
      "type": "function"
    },
    {
      "inputs": [],
      "name": "renounceOwnership",
      "outputs": [],
      "stateMutability": "nonpayable",
      "type": "function"
    },
    {
      "inputs": [
        {
          "internalType": "address",
          "name": "from",
          "type": "address"
        }
      ],
      "name": "revokeIdentity",
      "outputs": [],
      "stateMutability": "nonpayable",
      "type": "function"
    },
    {
      "inputs": [
        {
          "internalType": "address",
          "name": "_account",
          "type": "address"
        }
      ],
      "name": "revokeKYC",
      "outputs": [],
      "stateMutability": "nonpayable",
      "type": "function"
    },
    {
      "inputs": [
        {
          "internalType": "address",
          "name": "from",
          "type": "address"
        },
        {
          "internalType": "address",
          "name": "to",
          "type": "address"
        },
        {
          "internalType": "uint256",
          "name": "tokenId",
          "type": "uint256"
        }
      ],
      "name": "safeTransferFrom",
      "outputs": [],
      "stateMutability": "nonpayable",
      "type": "function"
    },
    {
      "inputs": [
        {
          "internalType": "address",
          "name": "from",
          "type": "address"
        },
        {
          "internalType": "address",
          "name": "to",
          "type": "address"
        },
        {
          "internalType": "uint256",
          "name": "tokenId",
          "type": "uint256"
        },
        {
          "internalType": "bytes",
          "name": "data",
          "type": "bytes"
        }
      ],
      "name": "safeTransferFrom",
      "outputs": [],
      "stateMutability": "nonpayable",
      "type": "function"
    },
    {
      "inputs": [
        {
          "internalType": "address",
          "name": "operator",
          "type": "address"
        },
        {
          "internalType": "bool",
          "name": "approved",
          "type": "bool"
        }
      ],
      "name": "setApprovalForAll",
      "outputs": [],
      "stateMutability": "nonpayable",
      "type": "function"
    },
    {
      "inputs": [
        {
          "internalType": "address",
          "name": "_timelock",
          "type": "address"
        }
      ],
      "name": "setTimelock",
      "outputs": [],
      "stateMutability": "nonpayable",
      "type": "function"
    },
    {
      "inputs": [
        {
          "internalType": "bytes4",
          "name": "interfaceId",
          "type": "bytes4"
        }
      ],
      "name": "supportsInterface",
      "outputs": [
        {
          "internalType": "bool",
          "name": "",
          "type": "bool"
        }
      ],
      "stateMutability": "view",
      "type": "function"
    },
    {
      "inputs": [],
      "name": "symbol",
      "outputs": [
        {
          "internalType": "string",
          "name": "",
          "type": "string"
        }
      ],
      "stateMutability": "view",
      "type": "function"
    },
    {
      "inputs": [],
      "name": "timelock",
      "outputs": [
        {
          "internalType": "address",
          "name": "",
          "type": "address"
        }
      ],
      "stateMutability": "view",
      "type": "function"
    },
    {
      "inputs": [
        {
          "internalType": "uint256",
          "name": "tokenId",
          "type": "uint256"
        }
      ],
      "name": "tokenURI",
      "outputs": [
        {
          "internalType": "string",
          "name": "",
          "type": "string"
        }
      ],
      "stateMutability": "view",
      "type": "function"
    },
    {
      "inputs": [
        {
          "internalType": "address",
          "name": "from",
          "type": "address"
        },
        {
          "internalType": "address",
          "name": "to",
          "type": "address"
        },
        {
          "internalType": "uint256",
          "name": "tokenId",
          "type": "uint256"
        }
      ],
      "name": "transferFrom",
      "outputs": [],
      "stateMutability": "nonpayable",
      "type": "function"
    },
    {
      "inputs": [
        {
          "internalType": "address",
          "name": "newOwner",
          "type": "address"
        }
      ],
      "name": "transferOwnership",
      "outputs": [],
      "stateMutability": "nonpayable",
      "type": "function"
    },
    {
      "inputs": [],
      "name": "trustedForwarder",
      "outputs": [
        {
          "internalType": "address",
          "name": "",
          "type": "address"
        }
      ],
      "stateMutability": "view",
      "type": "function"
    },
    {
      "inputs": [
        {
          "internalType": "address",
          "name": "_account",
          "type": "address"
        }
      ],
      "name": "unfreezeAccount",
      "outputs": [],
      "stateMutability": "nonpayable",
      "type": "function"
    },
    {
      "inputs": [
        {
          "internalType": "address",
          "name": "",
          "type": "address"
        }
      ],
      "name": "userTokenId",
      "outputs": [
        {
          "internalType": "uint256",
          "name": "",
          "type": "uint256"
        }
      ],
      "stateMutability": "view",
      "type": "function"
    },
    {
      "inputs": [
        {
          "internalType": "address",
          "name": "_account",
          "type": "address"
        }
      ],
      "name": "verifyKYC",
      "outputs": [],
      "stateMutability": "nonpayable",
      "type": "function"
    }
  ],
  "bytecode": "0x60a0604052346103e957611fcd6020813803918261001c816103ed565b9384928339810103126103e957516001600160a01b03811681036103e95761004460406103ed565b90601082526f119a5b9bdd985d1955995c9a599a595960821b602083015261006c60406103ed565b60068152651195950b525160d21b602082015282519091906001600160401b0381116102fd575f54600181811c911680156103df575b60208210146102df57601f811161037d575b506020601f821160011461031c57819293945f92610311575b50508160011b915f199060031b1c1916175f555b81516001600160401b0381116102fd57600154600181811c911680156102f3575b60208210146102df57601f811161027c575b50602092601f821160011461021b57928192935f92610210575b50508160011b915f199060031b1c1916176001555b33156101fd5760068054336001600160a01b0319821681179092556040519291906001600160a01b03167f8be0079c531659141344cd1fd0a4f28419497f9722a3daafe3b4186f6b6457e05f80a36080526001600160a01b036101a4610412565b168060018060a01b0319600c541617600c557fc046b9e8f0cd9b70a3b838962e9c229277fbb7abee68ea0fad4acf2898ed2ca95f80a2611b7f908161044e8239608051818181610bb301528181610da20152611b1b0152f35b631e4fbdf760e01b5f525f60045260245ffd5b015190505f8061012e565b601f1982169360015f52805f20915f5b868110610264575083600195961061024c575b505050811b01600155610143565b01515f1960f88460031b161c191690555f808061023e565b9192602060018192868501518155019401920161022b565b60015f527fb10e2d527612073b26eecdfd717e6a320cf44b4afac2b0732d9fcbe2b7fa0cf6601f830160051c810191602084106102d5575b601f0160051c01905b8181106102ca5750610114565b5f81556001016102bd565b90915081906102b4565b634e487b7160e01b5f52602260045260245ffd5b90607f1690610102565b634e487b7160e01b5f52604160045260245ffd5b015190505f806100cd565b601f198216905f8052805f20915f5b8181106103655750958360019596971061034d575b505050811b015f556100e1565b01515f1960f88460031b161c191690555f8080610340565b9192602060018192868b01518155019401920161032b565b5f80527f290decd9548b62a8d60345a988386fc84ba6bc95484008f6362f93160ef3e563601f830160051c810191602084106103d5575b601f0160051c01905b8181106103ca57506100b4565b5f81556001016103bd565b90915081906103b4565b90607f16906100a2565b5f80fd5b6040519190601f01601f191682016001600160401b038111838210176102fd57604052565b601436101580610439575b156104355760131936013681116103e9573560601c90565b3390565b506080516001600160a01b0316331461041d56fe6080806040526004361015610012575f80fd5b5f905f3560e01c90816301ffc9a71461140c5750806306fdde0314611354578063081812fc14611318578063095ea7b3146112205780630ebddd1714610fdf578063237f1a2114610fbc57806323b872dd14610fa557806338d1601114610ee557806339ba645b14610e2857806342842e0e14610df957806354b7636e14610dd6578063572b6c0514610d825780636352211e14610d5257806370a0823114610d27578063715018a614610ccc578063715ca54214610c94578063788649ea14610be25780637da0a87714610b9e57806386f66622146107aa5780638da5cb5b1461078257806395d89b411461067a578063a200e5d014610633578063a22cb46514610570578063b88d4fde146104fb578063bdacb30314610441578063c87b56dd146103e4578063cac89c5c146103bb578063d33219b414610392578063d9cb86061461028f578063e583983614610261578063e985e9c5146102095763f2fde38b1461017e575f80fd5b346102065760203660031901126102065761019761149b565b61019f611973565b6001600160a01b031680156101f257600680546001600160a01b0319811683179091556001600160a01b03167f8be0079c531659141344cd1fd0a4f28419497f9722a3daafe3b4186f6b6457e05f80a380f35b631e4fbdf760e01b82526004829052602482fd5b80fd5b503461020657604036600319011261020657604061022561149b565b9161022e6114b1565b9260018060a01b031681526005602052209060018060a01b03165f52602052602060ff60405f2054166040519015158152f35b503461020657602036600319011261020657602061028561028061149b565b6118e8565b6040519015158152f35b5034610206576040366003190112610206576102a961149b565b60243567ffffffffffffffff811161038e573660238201121561038e576102da903690602481600401359101611553565b906102e3611973565b6001600160a01b0316908115610349576103437fc71267b66b2c8820cf488bba23c122cee8408eb55e75428bab72cce8d259e6b991838552600860205260408520600160ff19825416179055604051918291602083526020830190611477565b0390a280f35b60405162461bcd60e51b815260206004820152601a60248201527f43616e6e6f7420667265657a65207a65726f20616464726573730000000000006044820152606490fd5b8280fd5b5034610206578060031936011261020657600c546040516001600160a01b039091168152602090f35b5034610206578060031936011261020657600b546040516001600160a01b039091168152602090f35b3461043d57602036600319011261043d57610400600435611951565b505f604051610410602082611501565b52610439604051610422602082611501565b5f8152604051918291602083526020830190611477565b0390f35b5f80fd5b3461043d57602036600319011261043d5761045a61149b565b610462611af0565b600c54919061047e906001600160a01b03808516911614611589565b6001600160a01b03169081156104c3576001600160a01b0319168117600c557fc046b9e8f0cd9b70a3b838962e9c229277fbb7abee68ea0fad4acf2898ed2ca95f80a2005b60405162461bcd60e51b815260206004820152601060248201526f496e76616c69642074696d656c6f636b60801b6044820152606490fd5b3461043d57608036600319011261043d5761051461149b565b61051c6114b1565b906044356064359267ffffffffffffffff841161043d573660238501121561043d5761055561056e943690602481600401359101611553565b92610561838383611672565b610569611af0565b6119ba565b005b3461043d57604036600319011261043d5761058961149b565b6024359081151580920361043d576001600160a01b036105a7611af0565b16908115610620576001600160a01b031691821561060d5760207f17307eab39ab6107e8899845ad3d59bd9653f200f220920489ca2b5937696c3191835f526005825260405f20855f52825260405f2060ff1981541660ff8316179055604051908152a3005b82630b61174360e31b5f5260045260245ffd5b63a9fbf51f60e01b5f525f60045260245ffd5b3461043d57602036600319011261043d57602061064e61149b565b610657816118e8565b15908161066a575b506040519015158152f35b610674915061184e565b8261065f565b3461043d575f36600319011261043d576040515f6001548060011c90600181168015610778575b6020831081146107645782855290811561074057506001146106e2575b610439836106ce81850382611501565b604051918291602083526020830190611477565b91905060015f527fb10e2d527612073b26eecdfd717e6a320cf44b4afac2b0732d9fcbe2b7fa0cf6915f905b808210610726575090915081016020016106ce6106be565b91926001816020925483858801015201910190929161070e565b60ff191660208086019190915291151560051b840190910191506106ce90506106be565b634e487b7160e01b5f52602260045260245ffd5b91607f16916106a1565b3461043d575f36600319011261043d576006546040516001600160a01b039091168152602090f35b3461043d57602036600319011261043d576107c361149b565b6107e46107ce611af0565b600c546001600160a01b03918216911614611589565b6001600160a01b038116908115610b4d576107fe816118b7565b610b0857600754905f198214610af457600182016007556040516020916108258383611501565b5f8083528481526002845260409020546001600160a01b0316151580610aeb575b610a9c575f8481526002845260409020546001600160a01b03168015159081610a6b575b86610a54575b855f526002855260405f20876bffffffffffffffffffffffff60a01b8254161790558587827fddf252ad1be2c89b69c2b068fc378daa952ba7f163c4a11628f55a4df523b3ef5f80a450610a41576108c6611af0565b903b610907575b50507f201a5a9a3e3f6b0c73a6d63220a9d2ef703797c59033d36f0e63f2db8e32900791835f52600a82528060405f2055604051908152a2005b604051630a85bd0160e11b81526001600160a01b0390911660048201525f602482015260448101849052608060648201529082908290819061094d906084830190611477565b03815f885af15f9181610a01575b506109b05783823d156109a8573d9061097382611537565b916109816040519384611501565b82523d5f8284013e5b815191826109a55783633250574960e11b5f5260045260245ffd5b01fd5b60609061098a565b6001600160e01b03191663757a42ff60e11b016109ee577f201a5a9a3e3f6b0c73a6d63220a9d2ef703797c59033d36f0e63f2db8e329007846108cd565b82633250574960e11b5f5260045260245ffd5b9091508281813d8311610a3a575b610a198183611501565b8101031261043d57516001600160e01b03198116810361043d57908561095b565b503d610a0f565b6339e3563760e11b5f525f60045260245ffd5b865f526003855260405f2060018154019055610870565b5f8681526004602052604080822080546001600160a01b031916905582825260038752902080545f1901905561086a565b60405162461bcd60e51b815260048101849052602160248201527f5342543a204964656e74697479206973206e6f74207472616e7366657261626c6044820152606560f81b6064820152608490fd5b50841515610846565b634e487b7160e01b5f52601160045260245ffd5b60405162461bcd60e51b815260206004820152601960248201527f4964656e7469747920616c7265616479207665726966696564000000000000006044820152606490fd5b60405162461bcd60e51b8152602060048201526024808201527f43616e6e6f74206d696e74206964656e7469747920746f207a65726f206164646044820152637265737360e01b6064820152608490fd5b3461043d575f36600319011261043d576040517f00000000000000000000000000000000000000000000000000000000000000006001600160a01b03168152602090f35b3461043d57602036600319011261043d57610bfb61149b565b610c066107ce611af0565b6001600160a01b03168015610c4f57805f52600860205260405f2060ff1981541690557ff915cd9fe234de6e8d3afe7bf2388d35b2b6d48e8c629a24602019bde79c213a5f80a2005b60405162461bcd60e51b815260206004820152601c60248201527f43616e6e6f7420756e667265657a65207a65726f2061646472657373000000006044820152606490fd5b3461043d57602036600319011261043d576001600160a01b03610cb561149b565b165f52600a602052602060405f2054604051908152f35b3461043d575f36600319011261043d57610ce4611973565b600680546001600160a01b031981169091555f906001600160a01b03167f8be0079c531659141344cd1fd0a4f28419497f9722a3daafe3b4186f6b6457e08280a3005b3461043d57602036600319011261043d576020610d4a610d4561149b565b6118b7565b604051908152f35b3461043d57602036600319011261043d576020610d70600435611951565b6040516001600160a01b039091168152f35b3461043d57602036600319011261043d576020610d9d61149b565b6040517f00000000000000000000000000000000000000000000000000000000000000006001600160a01b039081169216919091148152f35b3461043d57602036600319011261043d576020610285610df461149b565b61184e565b3461043d5761056e610e0a366114c7565b9060405192610e1a602085611501565b5f8452610561838383611672565b3461043d57602036600319011261043d57610e4161149b565b610e4c6107ce611af0565b6001600160a01b03168015610e9557805f52600960205260405f2060ff1981541690557ffb4ca6a2470de95e9f648557fae63380f22c4b760bd27b0571caf5977a30278a5f80a2005b60405162461bcd60e51b815260206004820152602260248201527f43616e6e6f74207265766f6b65204b594320666f72207a65726f206164647265604482015261737360f01b6064820152608490fd5b3461043d57602036600319011261043d57610efe61149b565b610f096107ce611af0565b6001600160a01b03168015610f5557805f52600960205260405f20600160ff198254161790557f65c84ee842eafc291d1272a6e3d10f8c454c4288e63f5db3f7be2b3012f321a95f80a2005b60405162461bcd60e51b815260206004820152602260248201527f43616e6e6f7420766572696679204b594320666f72207a65726f206164647265604482015261737360f01b6064820152608490fd5b3461043d5761056e610fb6366114c7565b91611672565b3461043d57602036600319011261043d576020610285610fda61149b565b6115df565b3461043d57602036600319011261043d57610ff861149b565b6110036107ce611af0565b6001600160a01b0381169081156111ca5761101d906118b7565b1561118d57805f52600a60205260405f2054805f52600260205260018060a01b0360405f205416151580611186575b611137575f818152600260205260409020546001600160a01b03168015908115611104575b5f83815260026020526040812080546001600160a01b03191690558390827fddf252ad1be2c89b69c2b068fc378daa952ba7f163c4a11628f55a4df523b3ef8280a4506110f25760207f3e3c59bb369a9da1f5c9df74adb044e1181c4e20448838f42d9e860bb0a18cdb91835f52600a82525f6040812055604051908152a2005b637e27328960e01b5f5260045260245ffd5b5f83815260046020526040902080546001600160a01b0319169055805f52600360205260405f205f198154019055611071565b60405162461bcd60e51b815260206004820152602160248201527f5342543a204964656e74697479206973206e6f74207472616e7366657261626c6044820152606560f81b6064820152608490fd5b505f61104c565b60405162461bcd60e51b81526020600482015260156024820152744e6f206964656e7469747920746f207265766f6b6560581b6044820152606490fd5b60405162461bcd60e51b815260206004820152602860248201527f43616e6e6f74207265766f6b65206964656e746974792066726f6d207a65726f604482015267206164647265737360c01b6064820152608490fd5b3461043d57604036600319011261043d5761123961149b565b602435611244611af0565b61124d82611951565b906001600160a01b031680151580611305575b806112dc575b6112ca575081906001600160a01b0384811691167f8c5be1e5ebec7d5bd14f71427d1e84f3dd0314c0f7b2291e5b200ac8c7c3b9255f80a45f90815260046020526040902080546001600160a01b0319166001600160a01b03909216919091179055005b63a9fbf51f60e01b5f5260045260245ffd5b5060018060a01b0382165f52600560205260405f20815f5260205260ff60405f20541615611266565b506001600160a01b038216811415611260565b3461043d57602036600319011261043d5760043561133581611951565b505f526004602052602060018060a01b0360405f205416604051908152f35b3461043d575f36600319011261043d576040515f5f548060011c90600181168015611402575b6020831081146107645782855290811561074057506001146113a657610439836106ce81850382611501565b5f8080527f290decd9548b62a8d60345a988386fc84ba6bc95484008f6362f93160ef3e563939250905b8082106113e8575090915081016020016106ce6106be565b9192600181602092548385880101520191019092916113d0565b91607f169161137a565b3461043d57602036600319011261043d576004359063ffffffff60e01b821680920361043d576020916380ac58cd60e01b8114908115611466575b8115611455575b5015158152f35b6301ffc9a760e01b1490508361144e565b635b5e139f60e01b81149150611447565b805180835260209291819084018484015e5f828201840152601f01601f1916010190565b600435906001600160a01b038216820361043d57565b602435906001600160a01b038216820361043d57565b606090600319011261043d576004356001600160a01b038116810361043d57906024356001600160a01b038116810361043d579060443590565b90601f8019910116810190811067ffffffffffffffff82111761152357604052565b634e487b7160e01b5f52604160045260245ffd5b67ffffffffffffffff811161152357601f01601f191660200190565b92919261155f82611537565b9161156d6040519384611501565b82948184528183011161043d578281602093845f960137010152565b1561159057565b60405162461bcd60e51b815260206004820152600f60248201526e6f6e6c7920476f7665726e616e636560881b6044820152606490fd5b9081602091031261043d5751801515810361043d5790565b600b546001600160a01b03169081611600576115fb91506118b7565b151590565b60405163237f1a2160e01b81526001600160a01b03909116600482015290602090829060249082905afa908115611667575f9161163b575090565b61165d915060203d602011611660575b6116558183611501565b8101906115c7565b90565b503d61164b565b6040513d5f823e3d90fd5b6001600160a01b039091169190821561183b5761168d611af0565b5f838152600260205260409020549093906001600160a01b0316151580611833575b611137575f838152600260205260409020546001600160a01b0390811694849291168015158061179d575b50508461176a575b805f52600360205260405f2060018154019055815f52600260205260405f20816bffffffffffffffffffffffff60a01b825416179055847fddf252ad1be2c89b69c2b068fc378daa952ba7f163c4a11628f55a4df523b3ef5f80a46001600160a01b031680830361175257505050565b6364283d7b60e01b5f5260045260245260445260645ffd5b5f82815260046020526040902080546001600160a01b0319169055845f52600360205260405f205f1981540190556116e2565b91925090806117e4575b156117b557908184926116da565b8390856117cf5750637e27328960e01b5f5260045260245ffd5b63177e802f60e01b5f5260045260245260445ffd5b508085148015611813575b806117a757505f848152600460205260409020546001600160a01b031681146117a7565b50845f52600560205260405f20815f5260205260ff60405f2054166117ef565b5060016116af565b633250574960e11b5f525f60045260245ffd5b600b546001600160a01b03168061187d57506001600160a01b03165f9081526009602052604090205460ff1690565b604051632a5bb1b760e11b81526001600160a01b039092166004830152602090829060249082905afa908115611667575f9161163b575090565b6001600160a01b031680156118d5575f52600360205260405f205490565b6322718ad960e21b5f525f60045260245ffd5b600b546001600160a01b03168061191757506001600160a01b03165f9081526008602052604090205460ff1690565b6040516372c1cc1b60e11b81526001600160a01b039092166004830152602090829060249082905afa908115611667575f9161163b575090565b5f818152600260205260409020546001600160a01b03169081156110f2575090565b6006546001600160a01b039081169061198a611af0565b160361199257565b61199a611af0565b63118cdaa760e01b5f9081526001600160a01b0391909116600452602490fd5b823b6119c8575b5050505050565b604051630a85bd0160e11b81526001600160a01b039182166004820152918116602483015260448201939093526080606482015291169160209082908190611a14906084830190611477565b03815f865af15f9181611aab575b50611a7757503d15611a70573d611a3881611537565b90611a466040519283611501565b81523d5f602083013e5b80519081611a6b5782633250574960e11b5f5260045260245ffd5b602001fd5b6060611a50565b6001600160e01b03191663757a42ff60e11b01611a9957505f808080806119c1565b633250574960e11b5f5260045260245ffd5b9091506020813d602011611ae8575b81611ac760209383611501565b8101031261043d57516001600160e01b03198116810361043d57905f611a22565b3d9150611aba565b601436101580611b17575b15611b1357601319360136811161043d573560601c90565b3390565b50337f00000000000000000000000000000000000000000000000000000000000000006001600160a01b031614611afb56fea2646970667358221220acfd6849928f9eb7e46959e116bead49da48b186224bbcd32e147b22a6cf167a64736f6c634300081c0033",
  "linkReferences": {},
  "deployedLinkReferences": {}
}