{
  "_format": "hh-sol-artifact-1",
  "contractName": "ComplianceManager",
  "sourceName": "contracts/ComplianceManager.sol",
  "abi": [
    {
      "inputs": [],
      "stateMutability": "nonpayable",
      "type": "constructor"
    },
    {
      "inputs": [
        {
          "internalType": "address",
          "name": "sender",
          "type": "address"
        },
        {
          "internalType": "uint256",
          "name": "tokenId",
          "type": "uint256"
        },
        {
          "internalType": "address",
          "name": "owner",
          "type": "address"
        }
      ],
      "name": "ERC721IncorrectOwner",
      "type": "error"
    },
    {
      "inputs": [
        {
          "internalType": "address",
          "name": "operator",
          "type": "address"
        },
        {
          "internalType": "uint256",
          "name": "tokenId",
          "type": "uint256"
        }
      ],
      "name": "ERC721InsufficientApproval",
      "type": "error"
    },
    {
      "inputs": [
        {
          "internalType": "address",
          "name": "approver",
          "type": "address"
        }
      ],
      "name": "ERC721InvalidApprover",
      "type": "error"
    },
    {
      "inputs": [
        {
          "internalType": "address",
          "name": "operator",
          "type": "address"
        }
      ],
      "name": "ERC721InvalidOperator",
      "type": "error"
    },
    {
      "inputs": [
        {
          "internalType": "address",
          "name": "owner",
          "type": "address"
        }
      ],
      "name": "ERC721InvalidOwner",
      "type": "error"
    },
    {
      "inputs": [
        {
          "internalType": "address",
          "name": "receiver",
          "type": "address"
        }
      ],
      "name": "ERC721InvalidReceiver",
      "type": "error"
    },
    {
      "inputs": [
        {
          "internalType": "address",
          "name": "sender",
          "type": "address"
        }
      ],
      "name": "ERC721InvalidSender",
      "type": "error"
    },
    {
      "inputs": [
        {
          "internalType": "uint256",
          "name": "tokenId",
          "type": "uint256"
        }
      ],
      "name": "ERC721NonexistentToken",
      "type": "error"
    },
    {
      "inputs": [
        {
          "internalType": "address",
          "name": "owner",
          "type": "address"
        }
      ],
      "name": "OwnableInvalidOwner",
      "type": "error"
    },
    {
      "inputs": [
        {
          "internalType": "address",
          "name": "account",
          "type": "address"
        }
      ],
      "name": "OwnableUnauthorizedAccount",
      "type": "error"
    },
    {
      "anonymous": false,
      "inputs": [
        {
          "indexed": true,
          "internalType": "address",
          "name": "account",
          "type": "address"
        },
        {
          "indexed": false,
          "internalType": "string",
          "name": "reason",
          "type": "string"
        }
      ],
      "name": "AccountFrozen",
      "type": "event"
    },
    {
      "anonymous": false,
      "inputs": [
        {
          "indexed": true,
          "internalType": "address",
          "name": "account",
          "type": "address"
        }
      ],
      "name": "AccountUnfrozen",
      "type": "event"
    },
    {
      "anonymous": false,
      "inputs": [
        {
          "indexed": true,
          "internalType": "address",
          "name": "owner",
          "type": "address"
        },
        {
          "indexed": true,
          "internalType": "address",
          "name": "approved",
          "type": "address"
        },
        {
          "indexed": true,
          "internalType": "uint256",
          "name": "tokenId",
          "type": "uint256"
        }
      ],
      "name": "Approval",
      "type": "event"
    },
    {
      "anonymous": false,
      "inputs": [
        {
          "indexed": true,
          "internalType": "address",
          "name": "owner",
          "type": "address"
        },
        {
          "indexed": true,
          "internalType": "address",
          "name": "operator",
          "type": "address"
        },
        {
          "indexed": false,
          "internalType": "bool",
          "name": "approved",
          "type": "bool"
        }
      ],
      "name": "ApprovalForAll",
      "type": "event"
    },
    {
      "anonymous": false,
      "inputs": [
        {
          "indexed": true,
          "internalType": "address",
          "name": "account",
          "type": "address"
        },
        {
          "indexed": false,
          "internalType": "uint256",
          "name": "tokenId",
          "type": "uint256"
        }
      ],
      "name": "IdentityRevoked",
      "type": "event"
    },
    {
      "anonymous": false,
      "inputs": [
        {
          "indexed": true,
          "internalType": "address",
          "name": "account",
          "type": "address"
        },
        {
          "indexed": false,
          "internalType": "uint256",
          "name": "tokenId",
          "type": "uint256"
        }
      ],
      "name": "IdentityVerified",
      "type": "event"
    },
    {
      "anonymous": false,
      "inputs": [
        {
          "indexed": true,
          "internalType": "address",
          "name": "account",
          "type": "address"
        }
      ],
      "name": "KYCRevoked",
      "type": "event"
    },
    {
      "anonymous": false,
      "inputs": [
        {
          "indexed": true,
          "internalType": "address",
          "name": "account",
          "type": "address"
        }
      ],
      "name": "KYCVerified",
      "type": "event"
    },
    {
      "anonymous": false,
      "inputs": [
        {
          "indexed": true,
          "internalType": "address",
          "name": "previousOwner",
          "type": "address"
        },
        {
          "indexed": true,
          "internalType": "address",
          "name": "newOwner",
          "type": "address"
        }
      ],
      "name": "OwnershipTransferred",
      "type": "event"
    },
    {
      "anonymous": false,
      "inputs": [
        {
          "indexed": true,
          "internalType": "address",
          "name": "from",
          "type": "address"
        },
        {
          "indexed": true,
          "internalType": "address",
          "name": "to",
          "type": "address"
        },
        {
          "indexed": true,
          "internalType": "uint256",
          "name": "tokenId",
          "type": "uint256"
        }
      ],
      "name": "Transfer",
      "type": "event"
    },
    {
      "inputs": [
        {
          "internalType": "address",
          "name": "to",
          "type": "address"
        },
        {
          "internalType": "uint256",
          "name": "tokenId",
          "type": "uint256"
        }
      ],
      "name": "approve",
      "outputs": [],
      "stateMutability": "nonpayable",
      "type": "function"
    },
    {
      "inputs": [
        {
          "internalType": "address",
          "name": "owner",
          "type": "address"
        }
      ],
      "name": "balanceOf",
      "outputs": [
        {
          "internalType": "uint256",
          "name": "",
          "type": "uint256"
        }
      ],
      "stateMutability": "view",
      "type": "function"
    },
    {
      "inputs": [
        {
          "internalType": "address",
          "name": "_account",
          "type": "address"
        },
        {
          "internalType": "string",
          "name": "reason",
          "type": "string"
        }
      ],
      "name": "freezeAccount",
      "outputs": [],
      "stateMutability": "nonpayable",
      "type": "function"
    },
    {
      "inputs": [
        {
          "internalType": "uint256",
          "name": "tokenId",
          "type": "uint256"
        }
      ],
      "name": "getApproved",
      "outputs": [
        {
          "internalType": "address",
          "name": "",
          "type": "address"
        }
      ],
      "stateMutability": "view",
      "type": "function"
    },
    {
      "inputs": [
        {
          "internalType": "address",
          "name": "account",
          "type": "address"
        }
      ],
      "name": "hasIdentity",
      "outputs": [
        {
          "internalType": "bool",
          "name": "",
          "type": "bool"
        }
      ],
      "stateMutability": "view",
      "type": "function"
    },
    {
      "inputs": [
        {
          "internalType": "address",
          "name": "owner",
          "type": "address"
        },
        {
          "internalType": "address",
          "name": "operator",
          "type": "address"
        }
      ],
      "name": "isApprovedForAll",
      "outputs": [
        {
          "internalType": "bool",
          "name": "",
          "type": "bool"
        }
      ],
      "stateMutability": "view",
      "type": "function"
    },
    {
      "inputs": [
        {
          "internalType": "address",
          "name": "_account",
          "type": "address"
        }
      ],
      "name": "isFrozen",
      "outputs": [
        {
          "internalType": "bool",
          "name": "",
          "type": "bool"
        }
      ],
      "stateMutability": "view",
      "type": "function"
    },
    {
      "inputs": [
        {
          "internalType": "address",
          "name": "_account",
          "type": "address"
        }
      ],
      "name": "isKYCVerified",
      "outputs": [
        {
          "internalType": "bool",
          "name": "",
          "type": "bool"
        }
      ],
      "stateMutability": "view",
      "type": "function"
    },
    {
      "inputs": [
        {
          "internalType": "address",
          "name": "to",
          "type": "address"
        }
      ],
      "name": "mintIdentity",
      "outputs": [],
      "stateMutability": "nonpayable",
      "type": "function"
    },
    {
      "inputs": [],
      "name": "name",
      "outputs": [
        {
          "internalType": "string",
          "name": "",
          "type": "string"
        }
      ],
      "stateMutability": "view",
      "type": "function"
    },
    {
      "inputs": [],
      "name": "owner",
      "outputs": [
        {
          "internalType": "address",
          "name": "",
          "type": "address"
        }
      ],
      "stateMutability": "view",
      "type": "function"
    },
    {
      "inputs": [
        {
          "internalType": "uint256",
          "name": "tokenId",
          "type": "uint256"
        }
      ],
      "name": "ownerOf",
      "outputs": [
        {
          "internalType": "address",
          "name": "",
          "type": "address"
        }
      ],
      "stateMutability": "view",
      "type": "function"
    },
    {
      "inputs": [],
      "name": "renounceOwnership",
      "outputs": [],
      "stateMutability": "nonpayable",
      "type": "function"
    },
    {
      "inputs": [
        {
          "internalType": "address",
          "name": "from",
          "type": "address"
        }
      ],
      "name": "revokeIdentity",
      "outputs": [],
      "stateMutability": "nonpayable",
      "type": "function"
    },
    {
      "inputs": [
        {
          "internalType": "address",
          "name": "_account",
          "type": "address"
        }
      ],
      "name": "revokeKYC",
      "outputs": [],
      "stateMutability": "nonpayable",
      "type": "function"
    },
    {
      "inputs": [
        {
          "internalType": "address",
          "name": "from",
          "type": "address"
        },
        {
          "internalType": "address",
          "name": "to",
          "type": "address"
        },
        {
          "internalType": "uint256",
          "name": "tokenId",
          "type": "uint256"
        }
      ],
      "name": "safeTransferFrom",
      "outputs": [],
      "stateMutability": "nonpayable",
      "type": "function"
    },
    {
      "inputs": [
        {
          "internalType": "address",
          "name": "from",
          "type": "address"
        },
        {
          "internalType": "address",
          "name": "to",
          "type": "address"
        },
        {
          "internalType": "uint256",
          "name": "tokenId",
          "type": "uint256"
        },
        {
          "internalType": "bytes",
          "name": "data",
          "type": "bytes"
        }
      ],
      "name": "safeTransferFrom",
      "outputs": [],
      "stateMutability": "nonpayable",
      "type": "function"
    },
    {
      "inputs": [
        {
          "internalType": "address",
          "name": "operator",
          "type": "address"
        },
        {
          "internalType": "bool",
          "name": "approved",
          "type": "bool"
        }
      ],
      "name": "setApprovalForAll",
      "outputs": [],
      "stateMutability": "nonpayable",
      "type": "function"
    },
    {
      "inputs": [
        {
          "internalType": "bytes4",
          "name": "interfaceId",
          "type": "bytes4"
        }
      ],
      "name": "supportsInterface",
      "outputs": [
        {
          "internalType": "bool",
          "name": "",
          "type": "bool"
        }
      ],
      "stateMutability": "view",
      "type": "function"
    },
    {
      "inputs": [],
      "name": "symbol",
      "outputs": [
        {
          "internalType": "string",
          "name": "",
          "type": "string"
        }
      ],
      "stateMutability": "view",
      "type": "function"
    },
    {
      "inputs": [
        {
          "internalType": "uint256",
          "name": "tokenId",
          "type": "uint256"
        }
      ],
      "name": "tokenURI",
      "outputs": [
        {
          "internalType": "string",
          "name": "",
          "type": "string"
        }
      ],
      "stateMutability": "view",
      "type": "function"
    },
    {
      "inputs": [
        {
          "internalType": "address",
          "name": "from",
          "type": "address"
        },
        {
          "internalType": "address",
          "name": "to",
          "type": "address"
        },
        {
          "internalType": "uint256",
          "name": "tokenId",
          "type": "uint256"
        }
      ],
      "name": "transferFrom",
      "outputs": [],
      "stateMutability": "nonpayable",
      "type": "function"
    },
    {
      "inputs": [
        {
          "internalType": "address",
          "name": "newOwner",
          "type": "address"
        }
      ],
      "name": "transferOwnership",
      "outputs": [],
      "stateMutability": "nonpayable",
      "type": "function"
    },
    {
      "inputs": [
        {
          "internalType": "address",
          "name": "_account",
          "type": "address"
        }
      ],
      "name": "unfreezeAccount",
      "outputs": [],
      "stateMutability": "nonpayable",
      "type": "function"
    },
    {
      "inputs": [
        {
          "internalType": "address",
          "name": "",
          "type": "address"
        }
      ],
      "name": "userTokenId",
      "outputs": [
        {
          "internalType": "uint256",
          "name": "",
          "type": "uint256"
        }
      ],
      "stateMutability": "view",
      "type": "function"
    },
    {
      "inputs": [
        {
          "internalType": "address",
          "name": "_account",
          "type": "address"
        }
      ],
      "name": "verifyKYC",
      "outputs": [],
      "stateMutability": "nonpayable",
      "type": "function"
    }
  ],
  "bytecode": "0x60806040523480156200001157600080fd5b50336040518060400160405280601081526020017f46696e6f766174655665726966696564000000000000000000000000000000008152506040518060400160405280600681526020017f4656542d49440000000000000000000000000000000000000000000000000000815250816000908162000090919062000472565b508060019081620000a2919062000472565b505050600073ffffffffffffffffffffffffffffffffffffffff168173ffffffffffffffffffffffffffffffffffffffff16036200011a5760006040517f1e4fbdf70000000000000000000000000000000000000000000000000000000081526004016200011191906200059e565b60405180910390fd5b6200012b816200013260201b60201c565b50620005bb565b6000600660009054906101000a900473ffffffffffffffffffffffffffffffffffffffff16905081600660006101000a81548173ffffffffffffffffffffffffffffffffffffffff021916908373ffffffffffffffffffffffffffffffffffffffff1602179055508173ffffffffffffffffffffffffffffffffffffffff168173ffffffffffffffffffffffffffffffffffffffff167f8be0079c531659141344cd1fd0a4f28419497f9722a3daafe3b4186f6b6457e060405160405180910390a35050565b600081519050919050565b7f4e487b7100000000000000000000000000000000000000000000000000000000600052604160045260246000fd5b7f4e487b7100000000000000000000000000000000000000000000000000000000600052602260045260246000fd5b600060028204905060018216806200027a57607f821691505b60208210810362000290576200028f62000232565b5b50919050565b60008190508160005260206000209050919050565b60006020601f8301049050919050565b600082821b905092915050565b600060088302620002fa7fffffffffffffffffffffffffffffffffffffffffffffffffffffffffffffffff82620002bb565b620003068683620002bb565b95508019841693508086168417925050509392505050565b6000819050919050565b6000819050919050565b6000620003536200034d62000347846200031e565b62000328565b6200031e565b9050919050565b6000819050919050565b6200036f8362000332565b620003876200037e826200035a565b848454620002c8565b825550505050565b600090565b6200039e6200038f565b620003ab81848462000364565b505050565b5b81811015620003d357620003c760008262000394565b600181019050620003b1565b5050565b601f8211156200042257620003ec8162000296565b620003f784620002ab565b8101602085101562000407578190505b6200041f6200041685620002ab565b830182620003b0565b50505b505050565b600082821c905092915050565b6000620004476000198460080262000427565b1980831691505092915050565b600062000462838362000434565b9150826002028217905092915050565b6200047d82620001f8565b67ffffffffffffffff81111562000499576200049862000203565b5b620004a5825462000261565b620004b2828285620003d7565b600060209050601f831160018114620004ea5760008415620004d5578287015190505b620004e1858262000454565b86555062000551565b601f198416620004fa8662000296565b60005b828110156200052457848901518255600182019150602085019450602081019050620004fd565b8683101562000544578489015162000540601f89168262000434565b8355505b6001600288020188555050505b505050505050565b600073ffffffffffffffffffffffffffffffffffffffff82169050919050565b6000620005868262000559565b9050919050565b620005988162000579565b82525050565b6000602082019050620005b560008301846200058d565b92915050565b612c3c80620005cb6000396000f3fe608060405234801561001057600080fd5b506004361061018e5760003560e01c8063715018a6116100de578063a22cb46511610097578063d9cb860611610071578063d9cb86061461048f578063e5839836146104ab578063e985e9c5146104db578063f2fde38b1461050b5761018e565b8063a22cb46514610427578063b88d4fde14610443578063c87b56dd1461045f5761018e565b8063715018a614610379578063715ca54214610383578063788649ea146103b357806386f66622146103cf5780638da5cb5b146103eb57806395d89b41146104095761018e565b806323b872dd1161014b57806342842e0e1161012557806342842e0e146102cd57806354b7636e146102e95780636352211e1461031957806370a08231146103495761018e565b806323b872dd1461027957806338d160111461029557806339ba645b146102b15761018e565b806301ffc9a71461019357806306fdde03146101c3578063081812fc146101e1578063095ea7b3146102115780630ebddd171461022d578063237f1a2114610249575b600080fd5b6101ad60048036038101906101a89190612194565b610527565b6040516101ba91906121dc565b60405180910390f35b6101cb610609565b6040516101d89190612287565b60405180910390f35b6101fb60048036038101906101f691906122df565b61069b565b604051610208919061234d565b60405180910390f35b61022b60048036038101906102269190612394565b6106b7565b005b610247600480360381019061024291906123d4565b6106cd565b005b610263600480360381019061025e91906123d4565b610802565b60405161027091906121dc565b60405180910390f35b610293600480360381019061028e9190612401565b610816565b005b6102af60048036038101906102aa91906123d4565b610918565b005b6102cb60048036038101906102c691906123d4565b6109be565b005b6102e760048036038101906102e29190612401565b610a64565b005b61030360048036038101906102fe91906123d4565b610a84565b60405161031091906121dc565b60405180910390f35b610333600480360381019061032e91906122df565b610ada565b604051610340919061234d565b60405180910390f35b610363600480360381019061035e91906123d4565b610aec565b6040516103709190612463565b60405180910390f35b610381610ba6565b005b61039d600480360381019061039891906123d4565b610bba565b6040516103aa9190612463565b60405180910390f35b6103cd60048036038101906103c891906123d4565b610bd2565b005b6103e960048036038101906103e491906123d4565b610c78565b005b6103f3610d86565b604051610400919061234d565b60405180910390f35b610411610db0565b60405161041e9190612287565b60405180910390f35b610441600480360381019061043c91906124aa565b610e42565b005b61045d6004803603810190610458919061261f565b610e58565b005b610479600480360381019061047491906122df565b610e7d565b6040516104869190612287565b60405180910390f35b6104a960048036038101906104a49190612702565b610ee6565b005b6104c560048036038101906104c091906123d4565b610f9b565b6040516104d291906121dc565b60405180910390f35b6104f560048036038101906104f09190612762565b610ff1565b60405161050291906121dc565b60405180910390f35b610525600480360381019061052091906123d4565b611085565b005b60007f80ac58cd000000000000000000000000000000000000000000000000000000007bffffffffffffffffffffffffffffffffffffffffffffffffffffffff1916827bffffffffffffffffffffffffffffffffffffffffffffffffffffffff191614806105f257507f5b5e139f000000000000000000000000000000000000000000000000000000007bffffffffffffffffffffffffffffffffffffffffffffffffffffffff1916827bffffffffffffffffffffffffffffffffffffffffffffffffffffffff1916145b8061060257506106018261110b565b5b9050919050565b606060008054610618906127d1565b80601f0160208091040260200160405190810160405280929190818152602001828054610644906127d1565b80156106915780601f1061066657610100808354040283529160200191610691565b820191906000526020600020905b81548152906001019060200180831161067457829003601f168201915b5050505050905090565b60006106a682611175565b506106b0826111fd565b9050919050565b6106c982826106c461123a565b611242565b5050565b6106d5611254565b60006106e082610aec565b11610720576040517f08c379a00000000000000000000000000000000000000000000000000000000081526004016107179061284e565b60405180910390fd5b6000600a60008373ffffffffffffffffffffffffffffffffffffffff1673ffffffffffffffffffffffffffffffffffffffff16815260200190815260200160002054905061076d816112db565b600a60008373ffffffffffffffffffffffffffffffffffffffff1673ffffffffffffffffffffffffffffffffffffffff168152602001908152602001600020600090558173ffffffffffffffffffffffffffffffffffffffff167f3e3c59bb369a9da1f5c9df74adb044e1181c4e20448838f42d9e860bb0a18cdb826040516107f69190612463565b60405180910390a25050565b60008061080e83610aec565b119050919050565b600073ffffffffffffffffffffffffffffffffffffffff168273ffffffffffffffffffffffffffffffffffffffff16036108885760006040517f64a0ae9200000000000000000000000000000000000000000000000000000000815260040161087f919061234d565b60405180910390fd5b600061089c838361089761123a565b611361565b90508373ffffffffffffffffffffffffffffffffffffffff168173ffffffffffffffffffffffffffffffffffffffff1614610912578382826040517f64283d7b0000000000000000000000000000000000000000000000000000000081526004016109099392919061286e565b60405180910390fd5b50505050565b610920611254565b6001600960008373ffffffffffffffffffffffffffffffffffffffff1673ffffffffffffffffffffffffffffffffffffffff16815260200190815260200160002060006101000a81548160ff0219169083151502179055508073ffffffffffffffffffffffffffffffffffffffff167f65c84ee842eafc291d1272a6e3d10f8c454c4288e63f5db3f7be2b3012f321a960405160405180910390a250565b6109c6611254565b6000600960008373ffffffffffffffffffffffffffffffffffffffff1673ffffffffffffffffffffffffffffffffffffffff16815260200190815260200160002060006101000a81548160ff0219169083151502179055508073ffffffffffffffffffffffffffffffffffffffff167ffb4ca6a2470de95e9f648557fae63380f22c4b760bd27b0571caf5977a30278a60405160405180910390a250565b610a7f83838360405180602001604052806000815250610e58565b505050565b6000600960008373ffffffffffffffffffffffffffffffffffffffff1673ffffffffffffffffffffffffffffffffffffffff16815260200190815260200160002060009054906101000a900460ff169050919050565b6000610ae582611175565b9050919050565b60008073ffffffffffffffffffffffffffffffffffffffff168273ffffffffffffffffffffffffffffffffffffffff1603610b5f5760006040517f89c62b64000000000000000000000000000000000000000000000000000000008152600401610b56919061234d565b60405180910390fd5b600360008373ffffffffffffffffffffffffffffffffffffffff1673ffffffffffffffffffffffffffffffffffffffff168152602001908152602001600020549050919050565b610bae611254565b610bb8600061142e565b565b600a6020528060005260406000206000915090505481565b610bda611254565b6000600860008373ffffffffffffffffffffffffffffffffffffffff1673ffffffffffffffffffffffffffffffffffffffff16815260200190815260200160002060006101000a81548160ff0219169083151502179055508073ffffffffffffffffffffffffffffffffffffffff167ff915cd9fe234de6e8d3afe7bf2388d35b2b6d48e8c629a24602019bde79c213a60405160405180910390a250565b610c80611254565b6000610c8b82610aec565b14610ccb576040517f08c379a0000000000000000000000000000000000000000000000000000000008152600401610cc2906128f1565b60405180910390fd5b600060076000815480929190610ce090612940565b919050559050610cf082826114f4565b80600a60008473ffffffffffffffffffffffffffffffffffffffff1673ffffffffffffffffffffffffffffffffffffffff168152602001908152602001600020819055508173ffffffffffffffffffffffffffffffffffffffff167f201a5a9a3e3f6b0c73a6d63220a9d2ef703797c59033d36f0e63f2db8e32900782604051610d7a9190612463565b60405180910390a25050565b6000600660009054906101000a900473ffffffffffffffffffffffffffffffffffffffff16905090565b606060018054610dbf906127d1565b80601f0160208091040260200160405190810160405280929190818152602001828054610deb906127d1565b8015610e385780601f10610e0d57610100808354040283529160200191610e38565b820191906000526020600020905b815481529060010190602001808311610e1b57829003601f168201915b5050505050905090565b610e54610e4d61123a565b8383611512565b5050565b610e63848484610816565b610e77610e6e61123a565b85858585611681565b50505050565b6060610e8882611175565b506000610e93611832565b90506000815111610eb35760405180602001604052806000815250610ede565b80610ebd84611849565b604051602001610ece9291906129c4565b6040516020818303038152906040525b915050919050565b610eee611254565b6001600860008573ffffffffffffffffffffffffffffffffffffffff1673ffffffffffffffffffffffffffffffffffffffff16815260200190815260200160002060006101000a81548160ff0219169083151502179055508273ffffffffffffffffffffffffffffffffffffffff167fc71267b66b2c8820cf488bba23c122cee8408eb55e75428bab72cce8d259e6b98383604051610f8e929190612a15565b60405180910390a2505050565b6000600860008373ffffffffffffffffffffffffffffffffffffffff1673ffffffffffffffffffffffffffffffffffffffff16815260200190815260200160002060009054906101000a900460ff169050919050565b6000600560008473ffffffffffffffffffffffffffffffffffffffff1673ffffffffffffffffffffffffffffffffffffffff16815260200190815260200160002060008373ffffffffffffffffffffffffffffffffffffffff1673ffffffffffffffffffffffffffffffffffffffff16815260200190815260200160002060009054906101000a900460ff16905092915050565b61108d611254565b600073ffffffffffffffffffffffffffffffffffffffff168173ffffffffffffffffffffffffffffffffffffffff16036110ff5760006040517f1e4fbdf70000000000000000000000000000000000000000000000000000000081526004016110f6919061234d565b60405180910390fd5b6111088161142e565b50565b60007f01ffc9a7000000000000000000000000000000000000000000000000000000007bffffffffffffffffffffffffffffffffffffffffffffffffffffffff1916827bffffffffffffffffffffffffffffffffffffffffffffffffffffffff1916149050919050565b60008061118183611917565b9050600073ffffffffffffffffffffffffffffffffffffffff168173ffffffffffffffffffffffffffffffffffffffff16036111f457826040517f7e2732890000000000000000000000000000000000000000000000000000000081526004016111eb9190612463565b60405180910390fd5b80915050919050565b60006004600083815260200190815260200160002060009054906101000a900473ffffffffffffffffffffffffffffffffffffffff169050919050565b600033905090565b61124f8383836001611954565b505050565b61125c61123a565b73ffffffffffffffffffffffffffffffffffffffff1661127a610d86565b73ffffffffffffffffffffffffffffffffffffffff16146112d95761129d61123a565b6040517f118cdaa70000000000000000000000000000000000000000000000000000000081526004016112d0919061234d565b60405180910390fd5b565b60006112ea6000836000611361565b9050600073ffffffffffffffffffffffffffffffffffffffff168173ffffffffffffffffffffffffffffffffffffffff160361135d57816040517f7e2732890000000000000000000000000000000000000000000000000000000081526004016113549190612463565b60405180910390fd5b5050565b60008061136d84611917565b9050600073ffffffffffffffffffffffffffffffffffffffff168173ffffffffffffffffffffffffffffffffffffffff16141580156113d95750600073ffffffffffffffffffffffffffffffffffffffff168573ffffffffffffffffffffffffffffffffffffffff1614155b15611419576040517f08c379a000000000000000000000000000000000000000000000000000000000815260040161141090612aab565b60405180910390fd5b611424858585611b19565b9150509392505050565b6000600660009054906101000a900473ffffffffffffffffffffffffffffffffffffffff16905081600660006101000a81548173ffffffffffffffffffffffffffffffffffffffff021916908373ffffffffffffffffffffffffffffffffffffffff1602179055508173ffffffffffffffffffffffffffffffffffffffff168173ffffffffffffffffffffffffffffffffffffffff167f8be0079c531659141344cd1fd0a4f28419497f9722a3daafe3b4186f6b6457e060405160405180910390a35050565b61150e828260405180602001604052806000815250611d33565b5050565b600073ffffffffffffffffffffffffffffffffffffffff168273ffffffffffffffffffffffffffffffffffffffff160361158357816040517f5b08ba1800000000000000000000000000000000000000000000000000000000815260040161157a919061234d565b60405180910390fd5b80600560008573ffffffffffffffffffffffffffffffffffffffff1673ffffffffffffffffffffffffffffffffffffffff16815260200190815260200160002060008473ffffffffffffffffffffffffffffffffffffffff1673ffffffffffffffffffffffffffffffffffffffff16815260200190815260200160002060006101000a81548160ff0219169083151502179055508173ffffffffffffffffffffffffffffffffffffffff168373ffffffffffffffffffffffffffffffffffffffff167f17307eab39ab6107e8899845ad3d59bd9653f200f220920489ca2b5937696c318360405161167491906121dc565b60405180910390a3505050565b60008373ffffffffffffffffffffffffffffffffffffffff163b111561182b578273ffffffffffffffffffffffffffffffffffffffff1663150b7a02868685856040518563ffffffff1660e01b81526004016116e09493929190612b20565b6020604051808303816000875af192505050801561171c57506040513d601f19601f820116820180604052508101906117199190612b81565b60015b6117a0573d806000811461174c576040519150601f19603f3d011682016040523d82523d6000602084013e611751565b606091505b50600081510361179857836040517f64a0ae9200000000000000000000000000000000000000000000000000000000815260040161178f919061234d565b60405180910390fd5b805160208201fd5b63150b7a0260e01b7bffffffffffffffffffffffffffffffffffffffffffffffffffffffff1916817bffffffffffffffffffffffffffffffffffffffffffffffffffffffff19161461182957836040517f64a0ae92000000000000000000000000000000000000000000000000000000008152600401611820919061234d565b60405180910390fd5b505b5050505050565b606060405180602001604052806000815250905090565b60606000600161185884611d57565b01905060008167ffffffffffffffff811115611877576118766124f4565b5b6040519080825280601f01601f1916602001820160405280156118a95781602001600182028036833780820191505090505b509050600082602083010190505b60011561190c578080600190039150507f3031323334353637383961626364656600000000000000000000000000000000600a86061a8153600a8581611900576118ff612bae565b5b049450600085036118b7575b819350505050919050565b60006002600083815260200190815260200160002060009054906101000a900473ffffffffffffffffffffffffffffffffffffffff169050919050565b808061198d5750600073ffffffffffffffffffffffffffffffffffffffff168273ffffffffffffffffffffffffffffffffffffffff1614155b15611ac157600061199d84611175565b9050600073ffffffffffffffffffffffffffffffffffffffff168373ffffffffffffffffffffffffffffffffffffffff1614158015611a0857508273ffffffffffffffffffffffffffffffffffffffff168173ffffffffffffffffffffffffffffffffffffffff1614155b8015611a1b5750611a198184610ff1565b155b15611a5d57826040517fa9fbf51f000000000000000000000000000000000000000000000000000000008152600401611a54919061234d565b60405180910390fd5b8115611abf57838573ffffffffffffffffffffffffffffffffffffffff168273ffffffffffffffffffffffffffffffffffffffff167f8c5be1e5ebec7d5bd14f71427d1e84f3dd0314c0f7b2291e5b200ac8c7c3b92560405160405180910390a45b505b836004600085815260200190815260200160002060006101000a81548173ffffffffffffffffffffffffffffffffffffffff021916908373ffffffffffffffffffffffffffffffffffffffff16021790555050505050565b600080611b2584611917565b9050600073ffffffffffffffffffffffffffffffffffffffff168373ffffffffffffffffffffffffffffffffffffffff1614611b6757611b66818486611eaa565b5b600073ffffffffffffffffffffffffffffffffffffffff168173ffffffffffffffffffffffffffffffffffffffff1614611bf857611ba9600085600080611954565b6001600360008373ffffffffffffffffffffffffffffffffffffffff1673ffffffffffffffffffffffffffffffffffffffff168152602001908152602001600020600082825403925050819055505b600073ffffffffffffffffffffffffffffffffffffffff168573ffffffffffffffffffffffffffffffffffffffff1614611c7b576001600360008773ffffffffffffffffffffffffffffffffffffffff1673ffffffffffffffffffffffffffffffffffffffff168152602001908152602001600020600082825401925050819055505b846002600086815260200190815260200160002060006101000a81548173ffffffffffffffffffffffffffffffffffffffff021916908373ffffffffffffffffffffffffffffffffffffffff160217905550838573ffffffffffffffffffffffffffffffffffffffff168273ffffffffffffffffffffffffffffffffffffffff167fddf252ad1be2c89b69c2b068fc378daa952ba7f163c4a11628f55a4df523b3ef60405160405180910390a4809150509392505050565b611d3d8383611f6e565b611d52611d4861123a565b6000858585611681565b505050565b600080600090507a184f03e93ff9f4daa797ed6e38ed64bf6a1f0100000000000000008310611db5577a184f03e93ff9f4daa797ed6e38ed64bf6a1f0100000000000000008381611dab57611daa612bae565b5b0492506040810190505b6d04ee2d6d415b85acef81000000008310611df2576d04ee2d6d415b85acef81000000008381611de857611de7612bae565b5b0492506020810190505b662386f26fc100008310611e2157662386f26fc100008381611e1757611e16612bae565b5b0492506010810190505b6305f5e1008310611e4a576305f5e1008381611e4057611e3f612bae565b5b0492506008810190505b6127108310611e6f576127108381611e6557611e64612bae565b5b0492506004810190505b60648310611e925760648381611e8857611e87612bae565b5b0492506002810190505b600a8310611ea1576001810190505b80915050919050565b611eb5838383612067565b611f6957600073ffffffffffffffffffffffffffffffffffffffff168373ffffffffffffffffffffffffffffffffffffffff1603611f2a57806040517f7e273289000000000000000000000000000000000000000000000000000000008152600401611f219190612463565b60405180910390fd5b81816040517f177e802f000000000000000000000000000000000000000000000000000000008152600401611f60929190612bdd565b60405180910390fd5b505050565b600073ffffffffffffffffffffffffffffffffffffffff168273ffffffffffffffffffffffffffffffffffffffff1603611fe05760006040517f64a0ae92000000000000000000000000000000000000000000000000000000008152600401611fd7919061234d565b60405180910390fd5b6000611fee83836000611361565b9050600073ffffffffffffffffffffffffffffffffffffffff168173ffffffffffffffffffffffffffffffffffffffff16146120625760006040517f73c6ac6e000000000000000000000000000000000000000000000000000000008152600401612059919061234d565b60405180910390fd5b505050565b60008073ffffffffffffffffffffffffffffffffffffffff168373ffffffffffffffffffffffffffffffffffffffff161415801561211f57508273ffffffffffffffffffffffffffffffffffffffff168473ffffffffffffffffffffffffffffffffffffffff1614806120e057506120df8484610ff1565b5b8061211e57508273ffffffffffffffffffffffffffffffffffffffff16612106836111fd565b73ffffffffffffffffffffffffffffffffffffffff16145b5b90509392505050565b6000604051905090565b600080fd5b600080fd5b60007fffffffff0000000000000000000000000000000000000000000000000000000082169050919050565b6121718161213c565b811461217c57600080fd5b50565b60008135905061218e81612168565b92915050565b6000602082840312156121aa576121a9612132565b5b60006121b88482850161217f565b91505092915050565b60008115159050919050565b6121d6816121c1565b82525050565b60006020820190506121f160008301846121cd565b92915050565b600081519050919050565b600082825260208201905092915050565b60005b83811015612231578082015181840152602081019050612216565b60008484015250505050565b6000601f19601f8301169050919050565b6000612259826121f7565b6122638185612202565b9350612273818560208601612213565b61227c8161223d565b840191505092915050565b600060208201905081810360008301526122a1818461224e565b905092915050565b6000819050919050565b6122bc816122a9565b81146122c757600080fd5b50565b6000813590506122d9816122b3565b92915050565b6000602082840312156122f5576122f4612132565b5b6000612303848285016122ca565b91505092915050565b600073ffffffffffffffffffffffffffffffffffffffff82169050919050565b60006123378261230c565b9050919050565b6123478161232c565b82525050565b6000602082019050612362600083018461233e565b92915050565b6123718161232c565b811461237c57600080fd5b50565b60008135905061238e81612368565b92915050565b600080604083850312156123ab576123aa612132565b5b60006123b98582860161237f565b92505060206123ca858286016122ca565b9150509250929050565b6000602082840312156123ea576123e9612132565b5b60006123f88482850161237f565b91505092915050565b60008060006060848603121561241a57612419612132565b5b60006124288682870161237f565b93505060206124398682870161237f565b925050604061244a868287016122ca565b9150509250925092565b61245d816122a9565b82525050565b60006020820190506124786000830184612454565b92915050565b612487816121c1565b811461249257600080fd5b50565b6000813590506124a48161247e565b92915050565b600080604083850312156124c1576124c0612132565b5b60006124cf8582860161237f565b92505060206124e085828601612495565b9150509250929050565b600080fd5b600080fd5b7f4e487b7100000000000000000000000000000000000000000000000000000000600052604160045260246000fd5b61252c8261223d565b810181811067ffffffffffffffff8211171561254b5761254a6124f4565b5b80604052505050565b600061255e612128565b905061256a8282612523565b919050565b600067ffffffffffffffff82111561258a576125896124f4565b5b6125938261223d565b9050602081019050919050565b82818337600083830152505050565b60006125c26125bd8461256f565b612554565b9050828152602081018484840111156125de576125dd6124ef565b5b6125e98482856125a0565b509392505050565b600082601f830112612606576126056124ea565b5b81356126168482602086016125af565b91505092915050565b6000806000806080858703121561263957612638612132565b5b60006126478782880161237f565b94505060206126588782880161237f565b9350506040612669878288016122ca565b925050606085013567ffffffffffffffff81111561268a57612689612137565b5b612696878288016125f1565b91505092959194509250565b600080fd5b600080fd5b60008083601f8401126126c2576126c16124ea565b5b8235905067ffffffffffffffff8111156126df576126de6126a2565b5b6020830191508360018202830111156126fb576126fa6126a7565b5b9250929050565b60008060006040848603121561271b5761271a612132565b5b60006127298682870161237f565b935050602084013567ffffffffffffffff81111561274a57612749612137565b5b612756868287016126ac565b92509250509250925092565b6000806040838503121561277957612778612132565b5b60006127878582860161237f565b92505060206127988582860161237f565b9150509250929050565b7f4e487b7100000000000000000000000000000000000000000000000000000000600052602260045260246000fd5b600060028204905060018216806127e957607f821691505b6020821081036127fc576127fb6127a2565b5b50919050565b7f4e6f206964656e7469747920746f207265766f6b650000000000000000000000600082015250565b6000612838601583612202565b915061284382612802565b602082019050919050565b600060208201905081810360008301526128678161282b565b9050919050565b6000606082019050612883600083018661233e565b6128906020830185612454565b61289d604083018461233e565b949350505050565b7f4964656e7469747920616c726561647920766572696669656400000000000000600082015250565b60006128db601983612202565b91506128e6826128a5565b602082019050919050565b6000602082019050818103600083015261290a816128ce565b9050919050565b7f4e487b7100000000000000000000000000000000000000000000000000000000600052601160045260246000fd5b600061294b826122a9565b91507fffffffffffffffffffffffffffffffffffffffffffffffffffffffffffffffff820361297d5761297c612911565b5b600182019050919050565b600081905092915050565b600061299e826121f7565b6129a88185612988565b93506129b8818560208601612213565b80840191505092915050565b60006129d08285612993565b91506129dc8284612993565b91508190509392505050565b60006129f48385612202565b9350612a018385846125a0565b612a0a8361223d565b840190509392505050565b60006020820190508181036000830152612a308184866129e8565b90509392505050565b7f5342543a204964656e74697479206973206e6f74207472616e7366657261626c60008201527f6500000000000000000000000000000000000000000000000000000000000000602082015250565b6000612a95602183612202565b9150612aa082612a39565b604082019050919050565b60006020820190508181036000830152612ac481612a88565b9050919050565b600081519050919050565b600082825260208201905092915050565b6000612af282612acb565b612afc8185612ad6565b9350612b0c818560208601612213565b612b158161223d565b840191505092915050565b6000608082019050612b35600083018761233e565b612b42602083018661233e565b612b4f6040830185612454565b8181036060830152612b618184612ae7565b905095945050505050565b600081519050612b7b81612168565b92915050565b600060208284031215612b9757612b96612132565b5b6000612ba584828501612b6c565b91505092915050565b7f4e487b7100000000000000000000000000000000000000000000000000000000600052601260045260246000fd5b6000604082019050612bf2600083018561233e565b612bff6020830184612454565b939250505056fea2646970667358221220e1860250e437fce867bda80d6764bdc0a96957666fbb61c1bbcad76a6177054264736f6c63430008140033",
  "linkReferences": {},
  "deployedLinkReferences": {}
}