{
  "_format": "hh-sol-artifact-1",
  "contractName": "EscrowContract",
  "sourceName": "contracts/EscrowContract.sol",
  "abi": [
    {
      "inputs": [
        {
          "internalType": "address",
          "name": "_complianceManager",
          "type": "address"
        }
      ],
      "stateMutability": "nonpayable",
      "type": "constructor"
    },
    {
      "inputs": [],
      "name": "ReentrancyGuardReentrantCall",
      "type": "error"
    },
    {
      "anonymous": false,
      "inputs": [
        {
          "indexed": true,
          "internalType": "bytes32",
          "name": "invoiceId",
          "type": "bytes32"
        },
        {
          "indexed": false,
          "internalType": "address",
          "name": "buyer",
          "type": "address"
        },
        {
          "indexed": false,
          "internalType": "uint256",
          "name": "amount",
          "type": "uint256"
        }
      ],
      "name": "DepositConfirmed",
      "type": "event"
    },
    {
      "anonymous": false,
      "inputs": [
        {
          "indexed": true,
          "internalType": "bytes32",
          "name": "invoiceId",
          "type": "bytes32"
        },
        {
          "indexed": false,
          "internalType": "address",
          "name": "raisedBy",
          "type": "address"
        }
      ],
      "name": "DisputeRaised",
      "type": "event"
    },
    {
      "anonymous": false,
      "inputs": [
        {
          "indexed": true,
          "internalType": "bytes32",
          "name": "invoiceId",
          "type": "bytes32"
        },
        {
          "indexed": false,
          "internalType": "address",
          "name": "resolver",
          "type": "address"
        },
        {
          "indexed": false,
          "internalType": "bool",
          "name": "sellerWins",
          "type": "bool"
        }
      ],
      "name": "DisputeResolved",
      "type": "event"
    },
    {
      "anonymous": false,
      "inputs": [
        {
          "indexed": true,
          "internalType": "bytes32",
          "name": "invoiceId",
          "type": "bytes32"
        },
        {
          "indexed": false,
          "internalType": "address",
          "name": "seller",
          "type": "address"
        },
        {
          "indexed": false,
          "internalType": "address",
          "name": "buyer",
          "type": "address"
        },
        {
          "indexed": false,
          "internalType": "uint256",
          "name": "amount",
          "type": "uint256"
        }
      ],
      "name": "EscrowCreated",
      "type": "event"
    },
    {
      "anonymous": false,
      "inputs": [
        {
          "indexed": true,
          "internalType": "bytes32",
          "name": "invoiceId",
          "type": "bytes32"
        },
        {
          "indexed": false,
          "internalType": "uint256",
          "name": "amount",
          "type": "uint256"
        }
      ],
      "name": "EscrowReleased",
      "type": "event"
    },
    {
      "inputs": [],
      "name": "admin",
      "outputs": [
        {
          "internalType": "address",
          "name": "",
          "type": "address"
        }
      ],
      "stateMutability": "view",
      "type": "function"
    },
    {
      "inputs": [],
      "name": "complianceManager",
      "outputs": [
        {
          "internalType": "contract ComplianceManager",
          "name": "",
          "type": "address"
        }
      ],
      "stateMutability": "view",
      "type": "function"
    },
    {
      "inputs": [
        {
          "internalType": "bytes32",
          "name": "_invoiceId",
          "type": "bytes32"
        }
      ],
      "name": "confirmRelease",
      "outputs": [],
      "stateMutability": "nonpayable",
      "type": "function"
    },
    {
      "inputs": [
        {
          "internalType": "bytes32",
          "name": "_invoiceId",
          "type": "bytes32"
        },
        {
          "internalType": "address",
          "name": "_seller",
          "type": "address"
        },
        {
          "internalType": "address",
          "name": "_buyer",
          "type": "address"
        },
        {
          "internalType": "uint256",
          "name": "_amount",
          "type": "uint256"
        },
        {
          "internalType": "address",
          "name": "_token",
          "type": "address"
        },
        {
          "internalType": "uint256",
          "name": "_duration",
          "type": "uint256"
        },
        {
          "internalType": "address",
          "name": "_rwaNftContract",
          "type": "address"
        },
        {
          "internalType": "uint256",
          "name": "_rwaTokenId",
          "type": "uint256"
        }
      ],
      "name": "createEscrow",
      "outputs": [
        {
          "internalType": "bool",
          "name": "",
          "type": "bool"
        }
      ],
      "stateMutability": "nonpayable",
      "type": "function"
    },
    {
      "inputs": [
        {
          "internalType": "bytes32",
          "name": "_invoiceId",
          "type": "bytes32"
        },
        {
          "internalType": "uint256",
          "name": "_amount",
          "type": "uint256"
        }
      ],
      "name": "deposit",
      "outputs": [],
      "stateMutability": "nonpayable",
      "type": "function"
    },
    {
      "inputs": [
        {
          "internalType": "bytes32",
          "name": "",
          "type": "bytes32"
        }
      ],
      "name": "escrows",
      "outputs": [
        {
          "internalType": "address",
          "name": "seller",
          "type": "address"
        },
        {
          "internalType": "address",
          "name": "buyer",
          "type": "address"
        },
        {
          "internalType": "uint256",
          "name": "amount",
          "type": "uint256"
        },
        {
          "internalType": "address",
          "name": "token",
          "type": "address"
        },
        {
          "internalType": "bool",
          "name": "sellerConfirmed",
          "type": "bool"
        },
        {
          "internalType": "bool",
          "name": "buyerConfirmed",
          "type": "bool"
        },
        {
          "internalType": "bool",
          "name": "disputeRaised",
          "type": "bool"
        },
        {
          "internalType": "address",
          "name": "disputeResolver",
          "type": "address"
        },
        {
          "internalType": "uint256",
          "name": "createdAt",
          "type": "uint256"
        },
        {
          "internalType": "uint256",
          "name": "expiresAt",
          "type": "uint256"
        },
        {
          "internalType": "address",
          "name": "rwaNftContract",
          "type": "address"
        },
        {
          "internalType": "uint256",
          "name": "rwaTokenId",
          "type": "uint256"
        }
      ],
      "stateMutability": "view",
      "type": "function"
    },
    {
      "inputs": [
        {
          "internalType": "bytes32",
          "name": "_invoiceId",
          "type": "bytes32"
        }
      ],
      "name": "expireEscrow",
      "outputs": [],
      "stateMutability": "nonpayable",
      "type": "function"
    },
    {
      "inputs": [
        {
          "internalType": "bytes32",
          "name": "_invoiceId",
          "type": "bytes32"
        }
      ],
      "name": "raiseDispute",
      "outputs": [],
      "stateMutability": "nonpayable",
      "type": "function"
    },
    {
      "inputs": [
        {
          "internalType": "bytes32",
          "name": "_invoiceId",
          "type": "bytes32"
        },
        {
          "internalType": "bool",
          "name": "_sellerWins",
          "type": "bool"
        }
      ],
      "name": "resolveDispute",
      "outputs": [],
      "stateMutability": "nonpayable",
      "type": "function"
    }
  ],
  "bytecode": "0x60806040523480156200001157600080fd5b50604051620029f8380380620029f8833981810160405281019062000037919062000132565b600160008190555033600360006101000a81548173ffffffffffffffffffffffffffffffffffffffff021916908373ffffffffffffffffffffffffffffffffffffffff16021790555080600260006101000a81548173ffffffffffffffffffffffffffffffffffffffff021916908373ffffffffffffffffffffffffffffffffffffffff1602179055505062000164565b600080fd5b600073ffffffffffffffffffffffffffffffffffffffff82169050919050565b6000620000fa82620000cd565b9050919050565b6200010c81620000ed565b81146200011857600080fd5b50565b6000815190506200012c8162000101565b92915050565b6000602082840312156200014b576200014a620000c8565b5b60006200015b848285016200011b565b91505092915050565b61288480620001746000396000f3fe608060405234801561001057600080fd5b50600436106100935760003560e01c806343a0e3e61161006657806343a0e3e61461012757806357b8cb6514610143578063e14f5b7d14610173578063f851a4401461018f578063ff7bce23146101ad57610093565b80630f01b937146100985780631de26e16146100b45780632d83549c146100d05780633edd9f351461010b575b600080fd5b6100b260048036038101906100ad9190611c6e565b6101cb565b005b6100ce60048036038101906100c99190611cd1565b6104e4565b005b6100ea60048036038101906100e59190611c6e565b6109bc565b6040516101029c9b9a99989796959493929190611d7c565b60405180910390f35b61012560048036038101906101209190611c6e565b610ae3565b005b610141600480360381019061013c9190611e62565b610ccc565b005b61015d60048036038101906101589190611ece565b61126e565b60405161016a9190611f84565b60405180910390f35b61018d60048036038101906101889190611c6e565b61176f565b005b61019761191d565b6040516101a49190611f9f565b60405180910390f35b6101b5611943565b6040516101c29190612019565b60405180910390f35b6101d3611969565b60006001600083815260200190815260200160002090508060060154421015610231576040517f08c379a000000000000000000000000000000000000000000000000000000000815260040161022890612091565b60405180910390fd5b8060030160149054906101000a900460ff16158061025e57508060030160159054906101000a900460ff16155b61029d576040517f08c379a0000000000000000000000000000000000000000000000000000000008152600401610294906120fd565b60405180910390fd5b600073ffffffffffffffffffffffffffffffffffffffff168160070160009054906101000a900473ffffffffffffffffffffffffffffffffffffffff1673ffffffffffffffffffffffffffffffffffffffff16146103b1578060070160009054906101000a900473ffffffffffffffffffffffffffffffffffffffff1673ffffffffffffffffffffffffffffffffffffffff166323b872dd308360000160009054906101000a900473ffffffffffffffffffffffffffffffffffffffff1684600801546040518463ffffffff1660e01b815260040161037e9392919061211d565b600060405180830381600087803b15801561039857600080fd5b505af11580156103ac573d6000803e3d6000fd5b505050505b8060030160159054906101000a900460ff16156104d85760008160030160009054906101000a900473ffffffffffffffffffffffffffffffffffffffff1690508073ffffffffffffffffffffffffffffffffffffffff1663a9059cbb8360010160009054906101000a900473ffffffffffffffffffffffffffffffffffffffff1684600201546040518363ffffffff1660e01b8152600401610454929190612154565b6020604051808303816000875af1158015610473573d6000803e3d6000fd5b505050506040513d601f19601f820116820180604052508101906104979190612192565b6104d6576040517f08c379a00000000000000000000000000000000000000000000000000000000081526004016104cd9061220b565b60405180910390fd5b505b506104e16119af565b50565b6104ec611969565b33600260009054906101000a900473ffffffffffffffffffffffffffffffffffffffff1673ffffffffffffffffffffffffffffffffffffffff1663e5839836826040518263ffffffff1660e01b81526004016105489190611f9f565b602060405180830381865afa158015610565573d6000803e3d6000fd5b505050506040513d601f19601f820116820180604052508101906105899190612192565b156105c9576040517f08c379a00000000000000000000000000000000000000000000000000000000081526004016105c090612277565b60405180910390fd5b600260009054906101000a900473ffffffffffffffffffffffffffffffffffffffff1673ffffffffffffffffffffffffffffffffffffffff166354b7636e826040518263ffffffff1660e01b81526004016106249190611f9f565b602060405180830381865afa158015610641573d6000803e3d6000fd5b505050506040513d601f19601f820116820180604052508101906106659190612192565b6106a4576040517f08c379a000000000000000000000000000000000000000000000000000000000815260040161069b906122e3565b60405180910390fd5b600260009054906101000a900473ffffffffffffffffffffffffffffffffffffffff1673ffffffffffffffffffffffffffffffffffffffff1663237f1a21826040518263ffffffff1660e01b81526004016106ff9190611f9f565b602060405180830381865afa15801561071c573d6000803e3d6000fd5b505050506040513d601f19601f820116820180604052508101906107409190612192565b61077f576040517f08c379a00000000000000000000000000000000000000000000000000000000081526004016107769061234f565b60405180910390fd5b60006001600085815260200190815260200160002090503373ffffffffffffffffffffffffffffffffffffffff168160010160009054906101000a900473ffffffffffffffffffffffffffffffffffffffff1673ffffffffffffffffffffffffffffffffffffffff1614610828576040517f08c379a000000000000000000000000000000000000000000000000000000000815260040161081f906123bb565b60405180910390fd5b8060020154831461086e576040517f08c379a000000000000000000000000000000000000000000000000000000000815260040161086590612427565b60405180910390fd5b60008160030160009054906101000a900473ffffffffffffffffffffffffffffffffffffffff1690508073ffffffffffffffffffffffffffffffffffffffff166323b872dd3330876040518463ffffffff1660e01b81526004016108d49392919061211d565b6020604051808303816000875af11580156108f3573d6000803e3d6000fd5b505050506040513d601f19601f820116820180604052508101906109179190612192565b610956576040517f08c379a000000000000000000000000000000000000000000000000000000000815260040161094d90612493565b60405180910390fd5b60018260030160156101000a81548160ff021916908315150217905550847f9d39974c480d889b2e46ed1adc6e673ef0ea9f11554437438b05a17cecbde95e33866040516109a5929190612154565b60405180910390a25050506109b86119af565b5050565b60016020528060005260406000206000915090508060000160009054906101000a900473ffffffffffffffffffffffffffffffffffffffff16908060010160009054906101000a900473ffffffffffffffffffffffffffffffffffffffff16908060020154908060030160009054906101000a900473ffffffffffffffffffffffffffffffffffffffff16908060030160149054906101000a900460ff16908060030160159054906101000a900460ff16908060030160169054906101000a900460ff16908060040160009054906101000a900473ffffffffffffffffffffffffffffffffffffffff16908060050154908060060154908060070160009054906101000a900473ffffffffffffffffffffffffffffffffffffffff1690806008015490508c565b610aeb611969565b60006001600083815260200190815260200160002090508060000160009054906101000a900473ffffffffffffffffffffffffffffffffffffffff1673ffffffffffffffffffffffffffffffffffffffff163373ffffffffffffffffffffffffffffffffffffffff161480610baf57508060010160009054906101000a900473ffffffffffffffffffffffffffffffffffffffff1673ffffffffffffffffffffffffffffffffffffffff163373ffffffffffffffffffffffffffffffffffffffff16145b610bee576040517f08c379a0000000000000000000000000000000000000000000000000000000008152600401610be5906124ff565b60405180910390fd5b8060000160009054906101000a900473ffffffffffffffffffffffffffffffffffffffff1673ffffffffffffffffffffffffffffffffffffffff163373ffffffffffffffffffffffffffffffffffffffff1603610c675760018160030160146101000a81548160ff021916908315150217905550610c85565b60018160030160156101000a81548160ff0219169083151502179055505b8060030160149054906101000a900460ff168015610cb157508060030160159054906101000a900460ff165b15610cc057610cbf826119b9565b5b50610cc96119af565b50565b600360009054906101000a900473ffffffffffffffffffffffffffffffffffffffff1673ffffffffffffffffffffffffffffffffffffffff163373ffffffffffffffffffffffffffffffffffffffff1614610d5c576040517f08c379a0000000000000000000000000000000000000000000000000000000008152600401610d539061256b565b60405180910390fd5b60006001600084815260200190815260200160002090508060030160169054906101000a900460ff16610dc4576040517f08c379a0000000000000000000000000000000000000000000000000000000008152600401610dbb906125d7565b60405180910390fd5b338160040160006101000a81548173ffffffffffffffffffffffffffffffffffffffff021916908373ffffffffffffffffffffffffffffffffffffffff16021790555060008160030160009054906101000a900473ffffffffffffffffffffffffffffffffffffffff1690508215611034578073ffffffffffffffffffffffffffffffffffffffff1663a9059cbb8360000160009054906101000a900473ffffffffffffffffffffffffffffffffffffffff1684600201546040518363ffffffff1660e01b8152600401610e99929190612154565b6020604051808303816000875af1158015610eb8573d6000803e3d6000fd5b505050506040513d601f19601f82011682018060405250810190610edc9190612192565b610f1b576040517f08c379a0000000000000000000000000000000000000000000000000000000008152600401610f1290612643565b60405180910390fd5b600073ffffffffffffffffffffffffffffffffffffffff168260070160009054906101000a900473ffffffffffffffffffffffffffffffffffffffff1673ffffffffffffffffffffffffffffffffffffffff161461102f578160070160009054906101000a900473ffffffffffffffffffffffffffffffffffffffff1673ffffffffffffffffffffffffffffffffffffffff166323b872dd308460010160009054906101000a900473ffffffffffffffffffffffffffffffffffffffff1685600801546040518463ffffffff1660e01b8152600401610ffc9392919061211d565b600060405180830381600087803b15801561101657600080fd5b505af115801561102a573d6000803e3d6000fd5b505050505b61122e565b8073ffffffffffffffffffffffffffffffffffffffff1663a9059cbb8360010160009054906101000a900473ffffffffffffffffffffffffffffffffffffffff1684600201546040518363ffffffff1660e01b8152600401611097929190612154565b6020604051808303816000875af11580156110b6573d6000803e3d6000fd5b505050506040513d601f19601f820116820180604052508101906110da9190612192565b611119576040517f08c379a0000000000000000000000000000000000000000000000000000000008152600401611110906126af565b60405180910390fd5b600073ffffffffffffffffffffffffffffffffffffffff168260070160009054906101000a900473ffffffffffffffffffffffffffffffffffffffff1673ffffffffffffffffffffffffffffffffffffffff161461122d578160070160009054906101000a900473ffffffffffffffffffffffffffffffffffffffff1673ffffffffffffffffffffffffffffffffffffffff166323b872dd308460000160009054906101000a900473ffffffffffffffffffffffffffffffffffffffff1685600801546040518463ffffffff1660e01b81526004016111fa9392919061211d565b600060405180830381600087803b15801561121457600080fd5b505af1158015611228573d6000803e3d6000fd5b505050505b5b837fc309ec0196a2aa529cef11b186ef4a3a04c52a9075daf8be91c7c95ede0fdc8733856040516112609291906126cf565b60405180910390a250505050565b6000600360009054906101000a900473ffffffffffffffffffffffffffffffffffffffff1673ffffffffffffffffffffffffffffffffffffffff163373ffffffffffffffffffffffffffffffffffffffff1614611300576040517f08c379a00000000000000000000000000000000000000000000000000000000081526004016112f79061256b565b60405180910390fd5b600073ffffffffffffffffffffffffffffffffffffffff16600160008b815260200190815260200160002060000160009054906101000a900473ffffffffffffffffffffffffffffffffffffffff1673ffffffffffffffffffffffffffffffffffffffff16146113a5576040517f08c379a000000000000000000000000000000000000000000000000000000000815260040161139c90612744565b60405180910390fd5b600073ffffffffffffffffffffffffffffffffffffffff168373ffffffffffffffffffffffffffffffffffffffff1614611449578273ffffffffffffffffffffffffffffffffffffffff166323b872dd8930856040518463ffffffff1660e01b81526004016114169392919061211d565b600060405180830381600087803b15801561143057600080fd5b505af1158015611444573d6000803e3d6000fd5b505050505b6040518061018001604052808973ffffffffffffffffffffffffffffffffffffffff1681526020018873ffffffffffffffffffffffffffffffffffffffff1681526020018781526020018673ffffffffffffffffffffffffffffffffffffffff168152602001600015158152602001600015158152602001600015158152602001600073ffffffffffffffffffffffffffffffffffffffff16815260200142815260200185426114f99190612793565b81526020018473ffffffffffffffffffffffffffffffffffffffff16815260200183815250600160008b815260200190815260200160002060008201518160000160006101000a81548173ffffffffffffffffffffffffffffffffffffffff021916908373ffffffffffffffffffffffffffffffffffffffff16021790555060208201518160010160006101000a81548173ffffffffffffffffffffffffffffffffffffffff021916908373ffffffffffffffffffffffffffffffffffffffff1602179055506040820151816002015560608201518160030160006101000a81548173ffffffffffffffffffffffffffffffffffffffff021916908373ffffffffffffffffffffffffffffffffffffffff16021790555060808201518160030160146101000a81548160ff02191690831515021790555060a08201518160030160156101000a81548160ff02191690831515021790555060c08201518160030160166101000a81548160ff02191690831515021790555060e08201518160040160006101000a81548173ffffffffffffffffffffffffffffffffffffffff021916908373ffffffffffffffffffffffffffffffffffffffff160217905550610100820151816005015561012082015181600601556101408201518160070160006101000a81548173ffffffffffffffffffffffffffffffffffffffff021916908373ffffffffffffffffffffffffffffffffffffffff1602179055506101608201518160080155905050887f0dd968c277d9dc6b36b6ec2b638324c3d937882c64ca109440bc050ebf26cb078989896040516117579392919061211d565b60405180910390a26001905098975050505050505050565b60006001600083815260200190815260200160002090508060000160009054906101000a900473ffffffffffffffffffffffffffffffffffffffff1673ffffffffffffffffffffffffffffffffffffffff163373ffffffffffffffffffffffffffffffffffffffff16148061183357508060010160009054906101000a900473ffffffffffffffffffffffffffffffffffffffff1673ffffffffffffffffffffffffffffffffffffffff163373ffffffffffffffffffffffffffffffffffffffff16145b611872576040517f08c379a0000000000000000000000000000000000000000000000000000000008152600401611869906124ff565b60405180910390fd5b8060030160169054906101000a900460ff16156118c4576040517f08c379a00000000000000000000000000000000000000000000000000000000081526004016118bb90612813565b60405180910390fd5b60018160030160166101000a81548160ff021916908315150217905550817fa71ec46ab116e07f9703467558af33f82718419b32e2acafa86c65587891e3cc336040516119119190611f9f565b60405180910390a25050565b600360009054906101000a900473ffffffffffffffffffffffffffffffffffffffff1681565b600260009054906101000a900473ffffffffffffffffffffffffffffffffffffffff1681565b6002600054036119a5576040517f3ee5aeb500000000000000000000000000000000000000000000000000000000815260040160405180910390fd5b6002600081905550565b6001600081905550565b600060016000838152602001908152602001600020905060008160030160009054906101000a900473ffffffffffffffffffffffffffffffffffffffff1690508073ffffffffffffffffffffffffffffffffffffffff1663a9059cbb8360000160009054906101000a900473ffffffffffffffffffffffffffffffffffffffff1684600201546040518363ffffffff1660e01b8152600401611a5c929190612154565b6020604051808303816000875af1158015611a7b573d6000803e3d6000fd5b505050506040513d601f19601f82011682018060405250810190611a9f9190612192565b611ade576040517f08c379a0000000000000000000000000000000000000000000000000000000008152600401611ad590612493565b60405180910390fd5b600073ffffffffffffffffffffffffffffffffffffffff168260070160009054906101000a900473ffffffffffffffffffffffffffffffffffffffff1673ffffffffffffffffffffffffffffffffffffffff1614611bf2578160070160009054906101000a900473ffffffffffffffffffffffffffffffffffffffff1673ffffffffffffffffffffffffffffffffffffffff166323b872dd308460010160009054906101000a900473ffffffffffffffffffffffffffffffffffffffff1685600801546040518463ffffffff1660e01b8152600401611bbf9392919061211d565b600060405180830381600087803b158015611bd957600080fd5b505af1158015611bed573d6000803e3d6000fd5b505050505b827f9410e7c5b50451e4b5bd5ce113fd48abebd7070eb9d080df08b115b7cdc416508360020154604051611c269190612833565b60405180910390a2505050565b600080fd5b6000819050919050565b611c4b81611c38565b8114611c5657600080fd5b50565b600081359050611c6881611c42565b92915050565b600060208284031215611c8457611c83611c33565b5b6000611c9284828501611c59565b91505092915050565b6000819050919050565b611cae81611c9b565b8114611cb957600080fd5b50565b600081359050611ccb81611ca5565b92915050565b60008060408385031215611ce857611ce7611c33565b5b6000611cf685828601611c59565b9250506020611d0785828601611cbc565b9150509250929050565b600073ffffffffffffffffffffffffffffffffffffffff82169050919050565b6000611d3c82611d11565b9050919050565b611d4c81611d31565b82525050565b611d5b81611c9b565b82525050565b60008115159050919050565b611d7681611d61565b82525050565b600061018082019050611d92600083018f611d43565b611d9f602083018e611d43565b611dac604083018d611d52565b611db9606083018c611d43565b611dc6608083018b611d6d565b611dd360a083018a611d6d565b611de060c0830189611d6d565b611ded60e0830188611d43565b611dfb610100830187611d52565b611e09610120830186611d52565b611e17610140830185611d43565b611e25610160830184611d52565b9d9c50505050505050505050505050565b611e3f81611d61565b8114611e4a57600080fd5b50565b600081359050611e5c81611e36565b92915050565b60008060408385031215611e7957611e78611c33565b5b6000611e8785828601611c59565b9250506020611e9885828601611e4d565b9150509250929050565b611eab81611d31565b8114611eb657600080fd5b50565b600081359050611ec881611ea2565b92915050565b600080600080600080600080610100898b031215611eef57611eee611c33565b5b6000611efd8b828c01611c59565b9850506020611f0e8b828c01611eb9565b9750506040611f1f8b828c01611eb9565b9650506060611f308b828c01611cbc565b9550506080611f418b828c01611eb9565b94505060a0611f528b828c01611cbc565b93505060c0611f638b828c01611eb9565b92505060e0611f748b828c01611cbc565b9150509295985092959890939650565b6000602082019050611f996000830184611d6d565b92915050565b6000602082019050611fb46000830184611d43565b92915050565b6000819050919050565b6000611fdf611fda611fd584611d11565b611fba565b611d11565b9050919050565b6000611ff182611fc4565b9050919050565b600061200382611fe6565b9050919050565b61201381611ff8565b82525050565b600060208201905061202e600083018461200a565b92915050565b600082825260208201905092915050565b7f457363726f77206e6f7420657870697265640000000000000000000000000000600082015250565b600061207b601283612034565b915061208682612045565b602082019050919050565b600060208201905081810360008301526120aa8161206e565b9050919050565b7f416c726561647920636f6e6669726d6564000000000000000000000000000000600082015250565b60006120e7601183612034565b91506120f2826120b1565b602082019050919050565b60006020820190508181036000830152612116816120da565b9050919050565b60006060820190506121326000830186611d43565b61213f6020830185611d43565b61214c6040830184611d52565b949350505050565b60006040820190506121696000830185611d43565b6121766020830184611d52565b9392505050565b60008151905061218c81611e36565b92915050565b6000602082840312156121a8576121a7611c33565b5b60006121b68482850161217d565b91505092915050565b7f526566756e64206661696c656400000000000000000000000000000000000000600082015250565b60006121f5600d83612034565b9150612200826121bf565b602082019050919050565b60006020820190508181036000830152612224816121e8565b9050919050565b7f4163636f756e742066726f7a656e000000000000000000000000000000000000600082015250565b6000612261600e83612034565b915061226c8261222b565b602082019050919050565b6000602082019050818103600083015261229081612254565b9050919050565b7f4b5943206e6f7420766572696669656400000000000000000000000000000000600082015250565b60006122cd601083612034565b91506122d882612297565b602082019050919050565b600060208201905081810360008301526122fc816122c0565b9050919050565b7f4964656e74697479206e6f7420766572696669656420284e6f20534254290000600082015250565b6000612339601e83612034565b915061234482612303565b602082019050919050565b600060208201905081810360008301526123688161232c565b9050919050565b7f4e6f742074686520627579657200000000000000000000000000000000000000600082015250565b60006123a5600d83612034565b91506123b08261236f565b602082019050919050565b600060208201905081810360008301526123d481612398565b9050919050565b7f496e636f727265637420616d6f756e7400000000000000000000000000000000600082015250565b6000612411601083612034565b915061241c826123db565b602082019050919050565b6000602082019050818103600083015261244081612404565b9050919050565b7f5472616e73666572206661696c65640000000000000000000000000000000000600082015250565b600061247d600f83612034565b915061248882612447565b602082019050919050565b600060208201905081810360008301526124ac81612470565b9050919050565b7f4e6f74206120706172747920746f207468697320657363726f77000000000000600082015250565b60006124e9601a83612034565b91506124f4826124b3565b602082019050919050565b60006020820190508181036000830152612518816124dc565b9050919050565b7f4e6f742061646d696e0000000000000000000000000000000000000000000000600082015250565b6000612555600983612034565b91506125608261251f565b602082019050919050565b6000602082019050818103600083015261258481612548565b9050919050565b7f4e6f206469737075746520726169736564000000000000000000000000000000600082015250565b60006125c1601183612034565b91506125cc8261258b565b602082019050919050565b600060208201905081810360008301526125f0816125b4565b9050919050565b7f5472616e7366657220746f2073656c6c6572206661696c656400000000000000600082015250565b600061262d601983612034565b9150612638826125f7565b602082019050919050565b6000602082019050818103600083015261265c81612620565b9050919050565b7f5472616e7366657220746f206275796572206661696c65640000000000000000600082015250565b6000612699601883612034565b91506126a482612663565b602082019050919050565b600060208201905081810360008301526126c88161268c565b9050919050565b60006040820190506126e46000830185611d43565b6126f16020830184611d6d565b9392505050565b7f457363726f7720616c7265616479206578697374730000000000000000000000600082015250565b600061272e601583612034565b9150612739826126f8565b602082019050919050565b6000602082019050818103600083015261275d81612721565b9050919050565b7f4e487b7100000000000000000000000000000000000000000000000000000000600052601160045260246000fd5b600061279e82611c9b565b91506127a983611c9b565b92508282019050808211156127c1576127c0612764565b5b92915050565b7f4469737075746520616c72656164792072616973656400000000000000000000600082015250565b60006127fd601683612034565b9150612808826127c7565b602082019050919050565b6000602082019050818103600083015261282c816127f0565b9050919050565b60006020820190506128486000830184611d52565b9291505056fea26469706673582212205ac1d9978acb2ee34d3f7bddd33c9f9a648b8a36357b905d025cb6aa08cbaa3364736f6c63430008140033",
  "linkReferences": {},
  "deployedLinkReferences": {}
}