{
  "_format": "hh-sol-artifact-1",
  "contractName": "EscrowContractV2",
  "sourceName": "contracts/EscrowContractV2.sol",
  "abi": [
    {
      "inputs": [
        {
          "internalType": "address",
          "name": "_trustedForwarder",
          "type": "address"
        }
      ],
      "stateMutability": "nonpayable",
      "type": "constructor"
    },
    {
      "inputs": [
        {
          "internalType": "address",
          "name": "target",
          "type": "address"
        }
      ],
      "name": "AddressEmptyCode",
      "type": "error"
    },
    {
      "inputs": [
        {
          "internalType": "address",
          "name": "implementation",
          "type": "address"
        }
      ],
      "name": "ERC1967InvalidImplementation",
      "type": "error"
    },
    {
      "inputs": [],
      "name": "ERC1967NonPayable",
      "type": "error"
    },
    {
      "inputs": [],
      "name": "EnforcedPause",
      "type": "error"
    },
    {
      "inputs": [],
      "name": "ExpectedPause",
      "type": "error"
    },
    {
      "inputs": [],
      "name": "FailedCall",
      "type": "error"
    },
    {
      "inputs": [],
      "name": "InvalidInitialization",
      "type": "error"
    },
    {
      "inputs": [],
      "name": "NotInitializing",
      "type": "error"
    },
    {
      "inputs": [
        {
          "internalType": "address",
          "name": "owner",
          "type": "address"
        }
      ],
      "name": "OwnableInvalidOwner",
      "type": "error"
    },
    {
      "inputs": [
        {
          "internalType": "address",
          "name": "account",
          "type": "address"
        }
      ],
      "name": "OwnableUnauthorizedAccount",
      "type": "error"
    },
    {
      "inputs": [],
      "name": "ReentrancyGuardReentrantCall",
      "type": "error"
    },
    {
      "inputs": [
        {
          "internalType": "address",
          "name": "token",
          "type": "address"
        }
      ],
      "name": "SafeERC20FailedOperation",
      "type": "error"
    },
    {
      "inputs": [],
      "name": "UUPSUnauthorizedCallContext",
      "type": "error"
    },
    {
      "inputs": [
        {
          "internalType": "bytes32",
          "name": "slot",
          "type": "bytes32"
        }
      ],
      "name": "UUPSUnsupportedProxiableUUID",
      "type": "error"
    },
    {
      "anonymous": false,
      "inputs": [
        {
          "indexed": true,
          "internalType": "bytes32",
          "name": "invoiceId",
          "type": "bytes32"
        },
        {
          "indexed": true,
          "internalType": "address",
          "name": "arbitrator",
          "type": "address"
        },
        {
          "indexed": false,
          "internalType": "bool",
          "name": "voteForBuyer",
          "type": "bool"
        }
      ],
      "name": "ArbitratorVoted",
      "type": "event"
    },
    {
      "anonymous": false,
      "inputs": [
        {
          "indexed": true,
          "internalType": "address",
          "name": "oldImplementation",
          "type": "address"
        },
        {
          "indexed": true,
          "internalType": "address",
          "name": "newImplementation",
          "type": "address"
        },
        {
          "indexed": false,
          "internalType": "uint256",
          "name": "newVersion",
          "type": "uint256"
        }
      ],
      "name": "ContractUpgraded",
      "type": "event"
    },
    {
      "anonymous": false,
      "inputs": [
        {
          "indexed": true,
          "internalType": "bytes32",
          "name": "invoiceId",
          "type": "bytes32"
        },
        {
          "indexed": false,
          "internalType": "address",
          "name": "buyer",
          "type": "address"
        },
        {
          "indexed": false,
          "internalType": "uint256",
          "name": "amount",
          "type": "uint256"
        }
      ],
      "name": "DepositConfirmed",
      "type": "event"
    },
    {
      "anonymous": false,
      "inputs": [
        {
          "indexed": true,
          "internalType": "bytes32",
          "name": "invoiceId",
          "type": "bytes32"
        },
        {
          "indexed": false,
          "internalType": "address",
          "name": "raisedBy",
          "type": "address"
        }
      ],
      "name": "DisputeRaised",
      "type": "event"
    },
    {
      "anonymous": false,
      "inputs": [
        {
          "indexed": true,
          "internalType": "bytes32",
          "name": "invoiceId",
          "type": "bytes32"
        },
        {
          "indexed": false,
          "internalType": "address",
          "name": "raisedBy",
          "type": "address"
        },
        {
          "indexed": false,
          "internalType": "uint256",
          "name": "arbitratorCount",
          "type": "uint256"
        }
      ],
      "name": "DisputeRaised",
      "type": "event"
    },
    {
      "anonymous": false,
      "inputs": [
        {
          "indexed": true,
          "internalType": "bytes32",
          "name": "invoiceId",
          "type": "bytes32"
        },
        {
          "indexed": false,
          "internalType": "address",
          "name": "resolver",
          "type": "address"
        },
        {
          "indexed": false,
          "internalType": "bool",
          "name": "sellerWins",
          "type": "bool"
        }
      ],
      "name": "DisputeResolved",
      "type": "event"
    },
    {
      "anonymous": false,
      "inputs": [
        {
          "indexed": true,
          "internalType": "bytes32",
          "name": "invoiceId",
          "type": "bytes32"
        },
        {
          "indexed": false,
          "internalType": "bool",
          "name": "sellerWins",
          "type": "bool"
        },
        {
          "indexed": false,
          "internalType": "uint256",
          "name": "votesForSeller",
          "type": "uint256"
        },
        {
          "indexed": false,
          "internalType": "uint256",
          "name": "votesForBuyer",
          "type": "uint256"
        }
      ],
      "name": "DisputeResolved",
      "type": "event"
    },
    {
      "anonymous": false,
      "inputs": [],
      "name": "EIP712DomainChanged",
      "type": "event"
    },
    {
      "anonymous": false,
      "inputs": [
        {
          "indexed": true,
          "internalType": "bytes32",
          "name": "invoiceId",
          "type": "bytes32"
        },
        {
          "indexed": false,
          "internalType": "address",
          "name": "seller",
          "type": "address"
        },
        {
          "indexed": false,
          "internalType": "address",
          "name": "buyer",
          "type": "address"
        },
        {
          "indexed": false,
          "internalType": "uint256",
          "name": "amount",
          "type": "uint256"
        }
      ],
      "name": "EscrowCreated",
      "type": "event"
    },
    {
      "anonymous": false,
      "inputs": [
        {
          "indexed": true,
          "internalType": "bytes32",
          "name": "invoiceId",
          "type": "bytes32"
        },
        {
          "indexed": false,
          "internalType": "uint256",
          "name": "amount",
          "type": "uint256"
        }
      ],
      "name": "EscrowReleased",
      "type": "event"
    },
    {
      "anonymous": false,
      "inputs": [
        {
          "indexed": true,
          "internalType": "bytes32",
          "name": "invoiceId",
          "type": "bytes32"
        },
        {
          "indexed": false,
          "internalType": "uint256",
          "name": "feeAmount",
          "type": "uint256"
        }
      ],
      "name": "FeeCollected",
      "type": "event"
    },
    {
      "anonymous": false,
      "inputs": [
        {
          "indexed": false,
          "internalType": "uint256",
          "name": "oldFee",
          "type": "uint256"
        },
        {
          "indexed": false,
          "internalType": "uint256",
          "name": "newFee",
          "type": "uint256"
        }
      ],
      "name": "FeePercentageUpdated",
      "type": "event"
    },
    {
      "anonymous": false,
      "inputs": [
        {
          "indexed": true,
          "internalType": "bytes32",
          "name": "invoiceId",
          "type": "bytes32"
        },
        {
          "indexed": false,
          "internalType": "uint256",
          "name": "amount",
          "type": "uint256"
        }
      ],
      "name": "FundsDepositedToYield",
      "type": "event"
    },
    {
      "anonymous": false,
      "inputs": [
        {
          "indexed": true,
          "internalType": "bytes32",
          "name": "invoiceId",
          "type": "bytes32"
        },
        {
          "indexed": false,
          "internalType": "uint256",
          "name": "principal",
          "type": "uint256"
        },
        {
          "indexed": false,
          "internalType": "uint256",
          "name": "yield",
          "type": "uint256"
        }
      ],
      "name": "FundsWithdrawnFromYield",
      "type": "event"
    },
    {
      "anonymous": false,
      "inputs": [
        {
          "indexed": false,
          "internalType": "bool",
          "name": "enabled",
          "type": "bool"
        }
      ],
      "name": "GovernanceEnabled",
      "type": "event"
    },
    {
      "anonymous": false,
      "inputs": [
        {
          "indexed": true,
          "internalType": "address",
          "name": "governanceManager",
          "type": "address"
        }
      ],
      "name": "GovernanceManagerSet",
      "type": "event"
    },
    {
      "anonymous": false,
      "inputs": [
        {
          "indexed": true,
          "internalType": "bytes32",
          "name": "invoiceId",
          "type": "bytes32"
        },
        {
          "indexed": true,
          "internalType": "address",
          "name": "approver",
          "type": "address"
        }
      ],
      "name": "HighValueTransactionApproved",
      "type": "event"
    },
    {
      "anonymous": false,
      "inputs": [
        {
          "indexed": true,
          "internalType": "bytes32",
          "name": "invoiceId",
          "type": "bytes32"
        },
        {
          "indexed": false,
          "internalType": "uint256",
          "name": "amount",
          "type": "uint256"
        }
      ],
      "name": "HighValueTransactionCreated",
      "type": "event"
    },
    {
      "anonymous": false,
      "inputs": [
        {
          "indexed": true,
          "internalType": "bytes32",
          "name": "invoiceId",
          "type": "bytes32"
        }
      ],
      "name": "HighValueTransactionReleased",
      "type": "event"
    },
    {
      "anonymous": false,
      "inputs": [
        {
          "indexed": false,
          "internalType": "uint64",
          "name": "version",
          "type": "uint64"
        }
      ],
      "name": "Initialized",
      "type": "event"
    },
    {
      "anonymous": false,
      "inputs": [
        {
          "indexed": false,
          "internalType": "uint256",
          "name": "oldMinimum",
          "type": "uint256"
        },
        {
          "indexed": false,
          "internalType": "uint256",
          "name": "newMinimum",
          "type": "uint256"
        }
      ],
      "name": "MinimumEscrowAmountUpdated",
      "type": "event"
    },
    {
      "anonymous": false,
      "inputs": [
        {
          "indexed": false,
          "internalType": "uint256",
          "name": "oldConfirmations",
          "type": "uint256"
        },
        {
          "indexed": false,
          "internalType": "uint256",
          "name": "newConfirmations",
          "type": "uint256"
        }
      ],
      "name": "MultiSigRequiredConfirmationsUpdated",
      "type": "event"
    },
    {
      "anonymous": false,
      "inputs": [
        {
          "indexed": false,
          "internalType": "uint256",
          "name": "oldThreshold",
          "type": "uint256"
        },
        {
          "indexed": false,
          "internalType": "uint256",
          "name": "newThreshold",
          "type": "uint256"
        }
      ],
      "name": "MultiSigThresholdUpdated",
      "type": "event"
    },
    {
      "anonymous": false,
      "inputs": [
        {
          "indexed": true,
          "internalType": "address",
          "name": "oldWallet",
          "type": "address"
        },
        {
          "indexed": true,
          "internalType": "address",
          "name": "newWallet",
          "type": "address"
        }
      ],
      "name": "MultiSigWalletSet",
      "type": "event"
    },
    {
      "anonymous": false,
      "inputs": [
        {
          "indexed": true,
          "internalType": "address",
          "name": "previousOwner",
          "type": "address"
        },
        {
          "indexed": true,
          "internalType": "address",
          "name": "newOwner",
          "type": "address"
        }
      ],
      "name": "OwnershipTransferred",
      "type": "event"
    },
    {
      "anonymous": false,
      "inputs": [
        {
          "indexed": true,
          "internalType": "bytes32",
          "name": "parameterType",
          "type": "bytes32"
        },
        {
          "indexed": false,
          "internalType": "uint256",
          "name": "newValue",
          "type": "uint256"
        }
      ],
      "name": "ParameterChangeExecuted",
      "type": "event"
    },
    {
      "anonymous": false,
      "inputs": [
        {
          "indexed": true,
          "internalType": "bytes32",
          "name": "parameterType",
          "type": "bytes32"
        },
        {
          "indexed": false,
          "internalType": "uint256",
          "name": "newValue",
          "type": "uint256"
        },
        {
          "indexed": true,
          "internalType": "bytes32",
          "name": "proposalId",
          "type": "bytes32"
        }
      ],
      "name": "ParameterChangeQueued",
      "type": "event"
    },
    {
      "anonymous": false,
      "inputs": [
        {
          "indexed": false,
          "internalType": "address",
          "name": "account",
          "type": "address"
        }
      ],
      "name": "Paused",
      "type": "event"
    },
    {
      "anonymous": false,
      "inputs": [
        {
          "indexed": false,
          "internalType": "uint256",
          "name": "oldQuorum",
          "type": "uint256"
        },
        {
          "indexed": false,
          "internalType": "uint256",
          "name": "newQuorum",
          "type": "uint256"
        }
      ],
      "name": "QuorumPercentageUpdated",
      "type": "event"
    },
    {
      "anonymous": false,
      "inputs": [
        {
          "indexed": true,
          "internalType": "bytes32",
          "name": "invoiceId",
          "type": "bytes32"
        },
        {
          "indexed": true,
          "internalType": "address",
          "name": "admin",
          "type": "address"
        }
      ],
      "name": "SafeEscape",
      "type": "event"
    },
    {
      "anonymous": false,
      "inputs": [
        {
          "indexed": true,
          "internalType": "address",
          "name": "newTreasury",
          "type": "address"
        }
      ],
      "name": "TreasuryChangeExecuted",
      "type": "event"
    },
    {
      "anonymous": false,
      "inputs": [
        {
          "indexed": true,
          "internalType": "address",
          "name": "newTreasury",
          "type": "address"
        },
        {
          "indexed": true,
          "internalType": "bytes32",
          "name": "proposalId",
          "type": "bytes32"
        }
      ],
      "name": "TreasuryChangeQueued",
      "type": "event"
    },
    {
      "anonymous": false,
      "inputs": [
        {
          "indexed": true,
          "internalType": "address",
          "name": "oldTreasury",
          "type": "address"
        },
        {
          "indexed": true,
          "internalType": "address",
          "name": "newTreasury",
          "type": "address"
        }
      ],
      "name": "TreasuryUpdated",
      "type": "event"
    },
    {
      "anonymous": false,
      "inputs": [
        {
          "indexed": false,
          "internalType": "address",
          "name": "account",
          "type": "address"
        }
      ],
      "name": "Unpaused",
      "type": "event"
    },
    {
      "anonymous": false,
      "inputs": [
        {
          "indexed": true,
          "internalType": "address",
          "name": "implementation",
          "type": "address"
        }
      ],
      "name": "Upgraded",
      "type": "event"
    },
    {
      "anonymous": false,
      "inputs": [
        {
          "indexed": false,
          "internalType": "bool",
          "name": "enabled",
          "type": "bool"
        }
      ],
      "name": "YieldPoolEnabled",
      "type": "event"
    },
    {
      "anonymous": false,
      "inputs": [
        {
          "indexed": true,
          "internalType": "address",
          "name": "oldPool",
          "type": "address"
        },
        {
          "indexed": true,
          "internalType": "address",
          "name": "newPool",
          "type": "address"
        }
      ],
      "name": "YieldPoolUpdated",
      "type": "event"
    },
    {
      "inputs": [],
      "name": "FEE_PERCENTAGE_CHANGE",
      "outputs": [
        {
          "internalType": "bytes32",
          "name": "",
          "type": "bytes32"
        }
      ],
      "stateMutability": "view",
      "type": "function"
    },
    {
      "inputs": [],
      "name": "MINIMUM_ESCROW_CHANGE",
      "outputs": [
        {
          "internalType": "bytes32",
          "name": "",
          "type": "bytes32"
        }
      ],
      "stateMutability": "view",
      "type": "function"
    },
    {
      "inputs": [],
      "name": "QUORUM_CHANGE",
      "outputs": [
        {
          "internalType": "bytes32",
          "name": "",
          "type": "bytes32"
        }
      ],
      "stateMutability": "view",
      "type": "function"
    },
    {
      "inputs": [],
      "name": "TIMELOCK_CHANGE",
      "outputs": [
        {
          "internalType": "bytes32",
          "name": "",
          "type": "bytes32"
        }
      ],
      "stateMutability": "view",
      "type": "function"
    },
    {
      "inputs": [],
      "name": "TREASURY_CHANGE",
      "outputs": [
        {
          "internalType": "bytes32",
          "name": "",
          "type": "bytes32"
        }
      ],
      "stateMutability": "view",
      "type": "function"
    },
    {
      "inputs": [],
      "name": "UPGRADE_INTERFACE_VERSION",
      "outputs": [
        {
          "internalType": "string",
          "name": "",
          "type": "string"
        }
      ],
      "stateMutability": "view",
      "type": "function"
    },
    {
      "inputs": [],
      "name": "VERSION_NAME",
      "outputs": [
        {
          "internalType": "string",
          "name": "",
          "type": "string"
        }
      ],
      "stateMutability": "view",
      "type": "function"
    },
    {
      "inputs": [
        {
          "internalType": "bytes32",
          "name": "_invoiceId",
          "type": "bytes32"
        }
      ],
      "name": "addMultiSigApproval",
      "outputs": [],
      "stateMutability": "nonpayable",
      "type": "function"
    },
    {
      "inputs": [],
      "name": "admin",
      "outputs": [
        {
          "internalType": "address",
          "name": "",
          "type": "address"
        }
      ],
      "stateMutability": "view",
      "type": "function"
    },
    {
      "inputs": [],
      "name": "arbitratorsRegistry",
      "outputs": [
        {
          "internalType": "contract ArbitratorsRegistry",
          "name": "",
          "type": "address"
        }
      ],
      "stateMutability": "view",
      "type": "function"
    },
    {
      "inputs": [
        {
          "internalType": "bytes32",
          "name": "_invoiceId",
          "type": "bytes32"
        }
      ],
      "name": "cancelHighValueTransaction",
      "outputs": [],
      "stateMutability": "nonpayable",
      "type": "function"
    },
    {
      "inputs": [
        {
          "internalType": "bytes32",
          "name": "_invoiceId",
          "type": "bytes32"
        }
      ],
      "name": "checkMultiSigRequired",
      "outputs": [
        {
          "internalType": "bool",
          "name": "",
          "type": "bool"
        }
      ],
      "stateMutability": "view",
      "type": "function"
    },
    {
      "inputs": [
        {
          "internalType": "bytes32",
          "name": "_invoiceId",
          "type": "bytes32"
        }
      ],
      "name": "claimYield",
      "outputs": [],
      "stateMutability": "nonpayable",
      "type": "function"
    },
    {
      "inputs": [],
      "name": "complianceManager",
      "outputs": [
        {
          "internalType": "contract ComplianceManager",
          "name": "",
          "type": "address"
        }
      ],
      "stateMutability": "view",
      "type": "function"
    },
    {
      "inputs": [
        {
          "internalType": "bytes32",
          "name": "_invoiceId",
          "type": "bytes32"
        }
      ],
      "name": "confirmRelease",
      "outputs": [],
      "stateMutability": "nonpayable",
      "type": "function"
    },
    {
      "inputs": [
        {
          "internalType": "bytes32",
          "name": "_invoiceId",
          "type": "bytes32"
        },
        {
          "internalType": "address",
          "name": "_seller",
          "type": "address"
        },
        {
          "internalType": "address",
          "name": "_buyer",
          "type": "address"
        },
        {
          "internalType": "uint256",
          "name": "_amount",
          "type": "uint256"
        },
        {
          "internalType": "address",
          "name": "_token",
          "type": "address"
        },
        {
          "internalType": "uint256",
          "name": "_duration",
          "type": "uint256"
        },
        {
          "internalType": "address",
          "name": "_rwaNftContract",
          "type": "address"
        },
        {
          "internalType": "uint256",
          "name": "_rwaTokenId",
          "type": "uint256"
        }
      ],
      "name": "createEscrow",
      "outputs": [
        {
          "internalType": "bool",
          "name": "",
          "type": "bool"
        }
      ],
      "stateMutability": "nonpayable",
      "type": "function"
    },
    {
      "inputs": [
        {
          "internalType": "bytes32",
          "name": "_invoiceId",
          "type": "bytes32"
        }
      ],
      "name": "deposit",
      "outputs": [],
      "stateMutability": "payable",
      "type": "function"
    },
    {
      "inputs": [
        {
          "internalType": "bytes32",
          "name": "_invoiceId",
          "type": "bytes32"
        }
      ],
      "name": "depositToYieldPool",
      "outputs": [],
      "stateMutability": "nonpayable",
      "type": "function"
    },
    {
      "inputs": [
        {
          "internalType": "bytes32",
          "name": "",
          "type": "bytes32"
        }
      ],
      "name": "disputeVotings",
      "outputs": [
        {
          "internalType": "uint256",
          "name": "snapshotArbitratorCount",
          "type": "uint256"
        },
        {
          "internalType": "uint256",
          "name": "votesForBuyer",
          "type": "uint256"
        },
        {
          "internalType": "uint256",
          "name": "votesForSeller",
          "type": "uint256"
        },
        {
          "internalType": "bool",
          "name": "resolved",
          "type": "bool"
        }
      ],
      "stateMutability": "view",
      "type": "function"
    },
    {
      "inputs": [],
      "name": "eip712Domain",
      "outputs": [
        {
          "internalType": "bytes1",
          "name": "fields",
          "type": "bytes1"
        },
        {
          "internalType": "string",
          "name": "name",
          "type": "string"
        },
        {
          "internalType": "string",
          "name": "version",
          "type": "string"
        },
        {
          "internalType": "uint256",
          "name": "chainId",
          "type": "uint256"
        },
        {
          "internalType": "address",
          "name": "verifyingContract",
          "type": "address"
        },
        {
          "internalType": "bytes32",
          "name": "salt",
          "type": "bytes32"
        },
        {
          "internalType": "uint256[]",
          "name": "extensions",
          "type": "uint256[]"
        }
      ],
      "stateMutability": "view",
      "type": "function"
    },
    {
      "inputs": [
        {
          "internalType": "bytes32",
          "name": "",
          "type": "bytes32"
        }
      ],
      "name": "escrowInYieldPool",
      "outputs": [
        {
          "internalType": "bool",
          "name": "",
          "type": "bool"
        }
      ],
      "stateMutability": "view",
      "type": "function"
    },
    {
      "inputs": [
        {
          "internalType": "bytes32",
          "name": "",
          "type": "bytes32"
        }
      ],
      "name": "escrowYieldEarned",
      "outputs": [
        {
          "internalType": "uint256",
          "name": "",
          "type": "uint256"
        }
      ],
      "stateMutability": "view",
      "type": "function"
    },
    {
      "inputs": [
        {
          "internalType": "bytes32",
          "name": "",
          "type": "bytes32"
        }
      ],
      "name": "escrows",
      "outputs": [
        {
          "internalType": "address",
          "name": "seller",
          "type": "address"
        },
        {
          "internalType": "address",
          "name": "buyer",
          "type": "address"
        },
        {
          "internalType": "uint256",
          "name": "amount",
          "type": "uint256"
        },
        {
          "internalType": "address",
          "name": "token",
          "type": "address"
        },
        {
          "internalType": "enum EscrowContractV2.EscrowStatus",
          "name": "status",
          "type": "uint8"
        },
        {
          "internalType": "address",
          "name": "payee",
          "type": "address"
        },
        {
          "internalType": "bool",
          "name": "sellerConfirmed",
          "type": "bool"
        },
        {
          "internalType": "bool",
          "name": "buyerConfirmed",
          "type": "bool"
        },
        {
          "internalType": "bool",
          "name": "disputeRaised",
          "type": "bool"
        },
        {
          "internalType": "address",
          "name": "disputeResolver",
          "type": "address"
        },
        {
          "internalType": "uint256",
          "name": "createdAt",
          "type": "uint256"
        },
        {
          "internalType": "uint256",
          "name": "expiresAt",
          "type": "uint256"
        },
        {
          "internalType": "address",
          "name": "rwaNftContract",
          "type": "address"
        },
        {
          "internalType": "uint256",
          "name": "rwaTokenId",
          "type": "uint256"
        },
        {
          "internalType": "uint256",
          "name": "feeAmount",
          "type": "uint256"
        },
        {
          "internalType": "uint256",
          "name": "discountRate",
          "type": "uint256"
        },
        {
          "internalType": "uint256",
          "name": "discountDeadline",
          "type": "uint256"
        }
      ],
      "stateMutability": "view",
      "type": "function"
    },
    {
      "inputs": [
        {
          "internalType": "bytes32",
          "name": "parameterType",
          "type": "bytes32"
        }
      ],
      "name": "executeParameterChange",
      "outputs": [],
      "stateMutability": "nonpayable",
      "type": "function"
    },
    {
      "inputs": [],
      "name": "executeTreasuryChange",
      "outputs": [],
      "stateMutability": "nonpayable",
      "type": "function"
    },
    {
      "inputs": [],
      "name": "feePercentage",
      "outputs": [
        {
          "internalType": "uint256",
          "name": "",
          "type": "uint256"
        }
      ],
      "stateMutability": "view",
      "type": "function"
    },
    {
      "inputs": [
        {
          "internalType": "bytes32",
          "name": "_invoiceId",
          "type": "bytes32"
        }
      ],
      "name": "getMultiSigApprovals",
      "outputs": [
        {
          "internalType": "address[]",
          "name": "approvers",
          "type": "address[]"
        },
        {
          "internalType": "uint256",
          "name": "approvalCount",
          "type": "uint256"
        },
        {
          "internalType": "uint256",
          "name": "required",
          "type": "uint256"
        }
      ],
      "stateMutability": "view",
      "type": "function"
    },
    {
      "inputs": [
        {
          "internalType": "bytes32",
          "name": "parameterType",
          "type": "bytes32"
        }
      ],
      "name": "getPendingChange",
      "outputs": [
        {
          "internalType": "uint256",
          "name": "newValue",
          "type": "uint256"
        },
        {
          "internalType": "uint256",
          "name": "executionTime",
          "type": "uint256"
        },
        {
          "internalType": "bool",
          "name": "executed",
          "type": "bool"
        },
        {
          "internalType": "bytes32",
          "name": "proposalId",
          "type": "bytes32"
        }
      ],
      "stateMutability": "view",
      "type": "function"
    },
    {
      "inputs": [],
      "name": "getVersion",
      "outputs": [
        {
          "internalType": "uint256",
          "name": "",
          "type": "uint256"
        }
      ],
      "stateMutability": "view",
      "type": "function"
    },
    {
      "inputs": [
        {
          "internalType": "bytes32",
          "name": "invoiceId",
          "type": "bytes32"
        }
      ],
      "name": "getVotingStatus",
      "outputs": [
        {
          "internalType": "uint256",
          "name": "snapshotCount",
          "type": "uint256"
        },
        {
          "internalType": "uint256",
          "name": "buyerVotes",
          "type": "uint256"
        },
        {
          "internalType": "uint256",
          "name": "sellerVotes",
          "type": "uint256"
        },
        {
          "internalType": "bool",
          "name": "resolved",
          "type": "bool"
        }
      ],
      "stateMutability": "view",
      "type": "function"
    },
    {
      "inputs": [
        {
          "internalType": "bytes32",
          "name": "_invoiceId",
          "type": "bytes32"
        }
      ],
      "name": "getYieldInfo",
      "outputs": [
        {
          "internalType": "bool",
          "name": "inYieldPool",
          "type": "bool"
        },
        {
          "internalType": "uint256",
          "name": "estimatedYield",
          "type": "uint256"
        }
      ],
      "stateMutability": "view",
      "type": "function"
    },
    {
      "inputs": [],
      "name": "governanceEnabled",
      "outputs": [
        {
          "internalType": "bool",
          "name": "",
          "type": "bool"
        }
      ],
      "stateMutability": "view",
      "type": "function"
    },
    {
      "inputs": [],
      "name": "governanceManager",
      "outputs": [
        {
          "internalType": "address",
          "name": "",
          "type": "address"
        }
      ],
      "stateMutability": "view",
      "type": "function"
    },
    {
      "inputs": [
        {
          "internalType": "bytes32",
          "name": "",
          "type": "bytes32"
        },
        {
          "internalType": "address",
          "name": "",
          "type": "address"
        }
      ],
      "name": "hasMultiSigApproved",
      "outputs": [
        {
          "internalType": "bool",
          "name": "",
          "type": "bool"
        }
      ],
      "stateMutability": "view",
      "type": "function"
    },
    {
      "inputs": [
        {
          "internalType": "bytes32",
          "name": "",
          "type": "bytes32"
        },
        {
          "internalType": "address",
          "name": "",
          "type": "address"
        }
      ],
      "name": "hasVoted",
      "outputs": [
        {
          "internalType": "bool",
          "name": "",
          "type": "bool"
        }
      ],
      "stateMutability": "view",
      "type": "function"
    },
    {
      "inputs": [
        {
          "internalType": "bytes32",
          "name": "",
          "type": "bytes32"
        }
      ],
      "name": "highValueTxReleased",
      "outputs": [
        {
          "internalType": "bool",
          "name": "",
          "type": "bool"
        }
      ],
      "stateMutability": "view",
      "type": "function"
    },
    {
      "inputs": [
        {
          "internalType": "address",
          "name": "_trustedForwarder",
          "type": "address"
        },
        {
          "internalType": "address",
          "name": "_complianceManager",
          "type": "address"
        },
        {
          "internalType": "address",
          "name": "_arbitratorsRegistry",
          "type": "address"
        },
        {
          "internalType": "address",
          "name": "_initialAdmin",
          "type": "address"
        }
      ],
      "name": "initialize",
      "outputs": [],
      "stateMutability": "nonpayable",
      "type": "function"
    },
    {
      "inputs": [],
      "name": "isGovernanceActive",
      "outputs": [
        {
          "internalType": "bool",
          "name": "",
          "type": "bool"
        }
      ],
      "stateMutability": "view",
      "type": "function"
    },
    {
      "inputs": [
        {
          "internalType": "address",
          "name": "forwarder",
          "type": "address"
        }
      ],
      "name": "isTrustedForwarder",
      "outputs": [
        {
          "internalType": "bool",
          "name": "",
          "type": "bool"
        }
      ],
      "stateMutability": "view",
      "type": "function"
    },
    {
      "inputs": [],
      "name": "minimumEscrowAmount",
      "outputs": [
        {
          "internalType": "uint256",
          "name": "",
          "type": "uint256"
        }
      ],
      "stateMutability": "view",
      "type": "function"
    },
    {
      "inputs": [
        {
          "internalType": "bytes32",
          "name": "",
          "type": "bytes32"
        },
        {
          "internalType": "uint256",
          "name": "",
          "type": "uint256"
        }
      ],
      "name": "multiSigApprovers",
      "outputs": [
        {
          "internalType": "address",
          "name": "",
          "type": "address"
        }
      ],
      "stateMutability": "view",
      "type": "function"
    },
    {
      "inputs": [],
      "name": "multiSigRequiredConfirmations",
      "outputs": [
        {
          "internalType": "uint256",
          "name": "",
          "type": "uint256"
        }
      ],
      "stateMutability": "view",
      "type": "function"
    },
    {
      "inputs": [],
      "name": "multiSigThreshold",
      "outputs": [
        {
          "internalType": "uint256",
          "name": "",
          "type": "uint256"
        }
      ],
      "stateMutability": "view",
      "type": "function"
    },
    {
      "inputs": [],
      "name": "multiSigWallet",
      "outputs": [
        {
          "internalType": "contract MultiSigWallet",
          "name": "",
          "type": "address"
        }
      ],
      "stateMutability": "view",
      "type": "function"
    },
    {
      "inputs": [
        {
          "internalType": "address",
          "name": "",
          "type": "address"
        },
        {
          "internalType": "address",
          "name": "",
          "type": "address"
        },
        {
          "internalType": "uint256",
          "name": "",
          "type": "uint256"
        },
        {
          "internalType": "bytes",
          "name": "",
          "type": "bytes"
        }
      ],
      "name": "onERC721Received",
      "outputs": [
        {
          "internalType": "bytes4",
          "name": "",
          "type": "bytes4"
        }
      ],
      "stateMutability": "pure",
      "type": "function"
    },
    {
      "inputs": [],
      "name": "owner",
      "outputs": [
        {
          "internalType": "address",
          "name": "",
          "type": "address"
        }
      ],
      "stateMutability": "view",
      "type": "function"
    },
    {
      "inputs": [],
      "name": "parameterChangeDelay",
      "outputs": [
        {
          "internalType": "uint256",
          "name": "",
          "type": "uint256"
        }
      ],
      "stateMutability": "view",
      "type": "function"
    },
    {
      "inputs": [],
      "name": "paused",
      "outputs": [
        {
          "internalType": "bool",
          "name": "",
          "type": "bool"
        }
      ],
      "stateMutability": "view",
      "type": "function"
    },
    {
      "inputs": [],
      "name": "pendingFeePercentage",
      "outputs": [
        {
          "internalType": "uint256",
          "name": "",
          "type": "uint256"
        }
      ],
      "stateMutability": "view",
      "type": "function"
    },
    {
      "inputs": [],
      "name": "pendingMinimumEscrowAmount",
      "outputs": [
        {
          "internalType": "uint256",
          "name": "",
          "type": "uint256"
        }
      ],
      "stateMutability": "view",
      "type": "function"
    },
    {
      "inputs": [
        {
          "internalType": "bytes32",
          "name": "",
          "type": "bytes32"
        }
      ],
      "name": "pendingParameterChanges",
      "outputs": [
        {
          "internalType": "uint256",
          "name": "newValue",
          "type": "uint256"
        },
        {
          "internalType": "uint256",
          "name": "executionTime",
          "type": "uint256"
        },
        {
          "internalType": "bool",
          "name": "executed",
          "type": "bool"
        },
        {
          "internalType": "bytes32",
          "name": "proposalId",
          "type": "bytes32"
        }
      ],
      "stateMutability": "view",
      "type": "function"
    },
    {
      "inputs": [],
      "name": "pendingQuorumPercentage",
      "outputs": [
        {
          "internalType": "uint256",
          "name": "",
          "type": "uint256"
        }
      ],
      "stateMutability": "view",
      "type": "function"
    },
    {
      "inputs": [],
      "name": "pendingTreasury",
      "outputs": [
        {
          "internalType": "address",
          "name": "",
          "type": "address"
        }
      ],
      "stateMutability": "view",
      "type": "function"
    },
    {
      "inputs": [],
      "name": "proxiableUUID",
      "outputs": [
        {
          "internalType": "bytes32",
          "name": "",
          "type": "bytes32"
        }
      ],
      "stateMutability": "view",
      "type": "function"
    },
    {
      "inputs": [
        {
          "internalType": "bytes32",
          "name": "parameterType",
          "type": "bytes32"
        },
        {
          "internalType": "uint256",
          "name": "newValue",
          "type": "uint256"
        },
        {
          "internalType": "bytes32",
          "name": "proposalId",
          "type": "bytes32"
        }
      ],
      "name": "queueParameterChange",
      "outputs": [],
      "stateMutability": "nonpayable",
      "type": "function"
    },
    {
      "inputs": [
        {
          "internalType": "address",
          "name": "newTreasury",
          "type": "address"
        },
        {
          "internalType": "bytes32",
          "name": "proposalId",
          "type": "bytes32"
        }
      ],
      "name": "queueTreasuryChange",
      "outputs": [],
      "stateMutability": "nonpayable",
      "type": "function"
    },
    {
      "inputs": [],
      "name": "quorumPercentage",
      "outputs": [
        {
          "internalType": "uint256",
          "name": "",
          "type": "uint256"
        }
      ],
      "stateMutability": "view",
      "type": "function"
    },
    {
      "inputs": [
        {
          "internalType": "bytes32",
          "name": "invoiceId",
          "type": "bytes32"
        }
      ],
      "name": "raiseDispute",
      "outputs": [],
      "stateMutability": "nonpayable",
      "type": "function"
    },
    {
      "inputs": [],
      "name": "renounceOwnership",
      "outputs": [],
      "stateMutability": "nonpayable",
      "type": "function"
    },
    {
      "inputs": [
        {
          "internalType": "bytes32",
          "name": "",
          "type": "bytes32"
        }
      ],
      "name": "requiresMultiSig",
      "outputs": [
        {
          "internalType": "bool",
          "name": "",
          "type": "bool"
        }
      ],
      "stateMutability": "view",
      "type": "function"
    },
    {
      "inputs": [
        {
          "internalType": "bytes32",
          "name": "_invoiceId",
          "type": "bytes32"
        },
        {
          "internalType": "bool",
          "name": "_sellerWins",
          "type": "bool"
        }
      ],
      "name": "resolveDispute",
      "outputs": [],
      "stateMutability": "nonpayable",
      "type": "function"
    },
    {
      "inputs": [
        {
          "internalType": "bytes32",
          "name": "invoiceId",
          "type": "bytes32"
        },
        {
          "internalType": "bool",
          "name": "sellerWins",
          "type": "bool"
        }
      ],
      "name": "safeEscape",
      "outputs": [],
      "stateMutability": "nonpayable",
      "type": "function"
    },
    {
      "inputs": [
        {
          "internalType": "address",
          "name": "_registry",
          "type": "address"
        }
      ],
      "name": "setArbitratorsRegistry",
      "outputs": [],
      "stateMutability": "nonpayable",
      "type": "function"
    },
    {
      "inputs": [
        {
          "internalType": "uint256",
          "name": "_feePercentage",
          "type": "uint256"
        }
      ],
      "name": "setFeePercentage",
      "outputs": [],
      "stateMutability": "nonpayable",
      "type": "function"
    },
    {
      "inputs": [
        {
          "internalType": "bool",
          "name": "_enabled",
          "type": "bool"
        }
      ],
      "name": "setGovernanceEnabled",
      "outputs": [],
      "stateMutability": "nonpayable",
      "type": "function"
    },
    {
      "inputs": [
        {
          "internalType": "address",
          "name": "_governanceManager",
          "type": "address"
        }
      ],
      "name": "setGovernanceManager",
      "outputs": [],
      "stateMutability": "nonpayable",
      "type": "function"
    },
    {
      "inputs": [
        {
          "internalType": "uint256",
          "name": "_minimumEscrowAmount",
          "type": "uint256"
        }
      ],
      "name": "setMinimumEscrowAmount",
      "outputs": [],
      "stateMutability": "nonpayable",
      "type": "function"
    },
    {
      "inputs": [
        {
          "internalType": "uint256",
          "name": "_requiredConfirmations",
          "type": "uint256"
        }
      ],
      "name": "setMultiSigRequiredConfirmations",
      "outputs": [],
      "stateMutability": "nonpayable",
      "type": "function"
    },
    {
      "inputs": [
        {
          "internalType": "uint256",
          "name": "_threshold",
          "type": "uint256"
        }
      ],
      "name": "setMultiSigThreshold",
      "outputs": [],
      "stateMutability": "nonpayable",
      "type": "function"
    },
    {
      "inputs": [
        {
          "internalType": "address",
          "name": "_multiSigWallet",
          "type": "address"
        }
      ],
      "name": "setMultiSigWallet",
      "outputs": [],
      "stateMutability": "nonpayable",
      "type": "function"
    },
    {
      "inputs": [
        {
          "internalType": "uint256",
          "name": "_delay",
          "type": "uint256"
        }
      ],
      "name": "setParameterChangeDelay",
      "outputs": [],
      "stateMutability": "nonpayable",
      "type": "function"
    },
    {
      "inputs": [
        {
          "internalType": "address",
          "name": "_treasury",
          "type": "address"
        }
      ],
      "name": "setTreasury",
      "outputs": [],
      "stateMutability": "nonpayable",
      "type": "function"
    },
    {
      "inputs": [
        {
          "internalType": "address",
          "name": "_yieldPool",
          "type": "address"
        }
      ],
      "name": "setYieldPool",
      "outputs": [],
      "stateMutability": "nonpayable",
      "type": "function"
    },
    {
      "inputs": [
        {
          "internalType": "bool",
          "name": "_enabled",
          "type": "bool"
        }
      ],
      "name": "setYieldPoolEnabled",
      "outputs": [],
      "stateMutability": "nonpayable",
      "type": "function"
    },
    {
      "inputs": [
        {
          "internalType": "address",
          "name": "newOwner",
          "type": "address"
        }
      ],
      "name": "transferOwnership",
      "outputs": [],
      "stateMutability": "nonpayable",
      "type": "function"
    },
    {
      "inputs": [],
      "name": "treasury",
      "outputs": [
        {
          "internalType": "address",
          "name": "",
          "type": "address"
        }
      ],
      "stateMutability": "view",
      "type": "function"
    },
    {
      "inputs": [],
      "name": "trustedForwarder",
      "outputs": [
        {
          "internalType": "address",
          "name": "",
          "type": "address"
        }
      ],
      "stateMutability": "view",
      "type": "function"
    },
    {
      "inputs": [
        {
          "internalType": "uint256",
          "name": "_percentage",
          "type": "uint256"
        }
      ],
      "name": "updateQuorumPercentage",
      "outputs": [],
      "stateMutability": "nonpayable",
      "type": "function"
    },
    {
      "inputs": [
        {
          "internalType": "address",
          "name": "newImplementation",
          "type": "address"
        },
        {
          "internalType": "bytes",
          "name": "data",
          "type": "bytes"
        }
      ],
      "name": "upgradeToAndCall",
      "outputs": [],
      "stateMutability": "payable",
      "type": "function"
    },
    {
      "inputs": [],
      "name": "version",
      "outputs": [
        {
          "internalType": "uint256",
          "name": "",
          "type": "uint256"
        }
      ],
      "stateMutability": "view",
      "type": "function"
    },
    {
      "inputs": [
        {
          "internalType": "bytes32",
          "name": "invoiceId",
          "type": "bytes32"
        },
        {
          "internalType": "bool",
          "name": "voteForBuyer",
          "type": "bool"
        }
      ],
      "name": "voteOnDispute",
      "outputs": [],
      "stateMutability": "nonpayable",
      "type": "function"
    },
    {
      "inputs": [
        {
          "internalType": "bytes32",
          "name": "_invoiceId",
          "type": "bytes32"
        }
      ],
      "name": "withdrawFromYieldPool",
      "outputs": [],
      "stateMutability": "nonpayable",
      "type": "function"
    },
    {
      "inputs": [],
      "name": "yieldPool",
      "outputs": [
        {
          "internalType": "contract EscrowYieldPool",
          "name": "",
          "type": "address"
        }
      ],
      "stateMutability": "view",
      "type": "function"
    },
    {
      "inputs": [],
      "name": "yieldPoolEnabled",
      "outputs": [
        {
          "internalType": "bool",
          "name": "",
          "type": "bool"
        }
      ],
      "stateMutability": "view",
      "type": "function"
    }
  ],
  "bytecode": "0x60c03461018057601f6152b738819003918201601f19168301916001600160401b038311848410176101845780849260209460405283398101031261018057516001600160a01b0381168103610180573060805260017f9b779b17422d0df92223018b32b4d1fa46e071723d6817e2486d003becc55f005560a05260ff60a01b1960055416600555633b9aca00600855600260095560ff60a01b19600f5416600f556202a30060155560336019556064601a555f5160206152975f395f51905f525460ff8160401c16610171576002600160401b03196001600160401b0382160161011b575b6040516150fe908161019982396080518181816134ae01526135aa015260a051818181612630015281816133f90152614ea20152f35b6001600160401b0319166001600160401b039081175f5160206152975f395f51905f52556040519081527fc7f505b2f371ae2175ee4913f4499e1f2633a7b5936321eed1cdaeb6115181d290602090a15f6100e5565b63f92ee8a960e01b5f5260045ffd5b5f80fd5b634e487b7160e01b5f52604160045260245ffdfe60806040526004361015610011575f80fd5b5f5f3560e01c806309f12560146141815780630b3978fc1461415b5780630d8e6e2c146134575780630e3e8a0c1461413d5780630fe381141461405c57806313e76be514613fb757806314442f5414613f87578063150b7a0214613f15578063155a043814613ef757806321c11d5514613afb5780632d4ed10714613d575780632d83549c14613c2f5780632ec7cff914612c725780632ed6b75d14613c065780632ffa9a7414613b8457806331724eeb14613b5b5780633ce3d3d514613afb5780633cfbb59914613ab95780633edd9f35146138cd5780633f6f8805146138af5780634230a0191461387457806343a0e3e6146137ce5780634b2d075a1461379d5780634b8feb4f146137745780634badfeb2146137565780634f1ef286146135205780634fa76ec91461350257806352d1902d1461349b5780635369ab2f1461347557806354fd4d5014613457578063560e155a1461342d578063572b6c05146133d857806357b8cb6514612fa0578063581087df14612cff5780635887faab14612cd05780635bf38cd114612c725780635c975abb14612c305780635d1607e714612ae257806361d027b314612ab9578063686e60831461277a5780636c53236b146126c8578063715018a61461265f5780637da0a8771461261a57806384535b2f1461257d57806384b0196e14612339578063897329cd1461226d5780638b25b4121461224f5780638da5cb5b1461221a5780638ed0453f146121a05780638f188dd4146121775780639182b1b3146121485780639e5a590614612065578063a001ecdd14612047578063a2926d6314611ffd578063aadc3b7214611fb3578063ad3cb1cc14611f66578063ae06c1b714611ec6578063afe21ffc14611e8b578063b214faa514611a8a578063b58095fc14611a4f578063b5e91855146119e2578063bddf23eb1461198f578063be6ac621146118ea578063c53d595814611735578063ce2661f1146116c8578063d2e6d1c31461169f578063d97fc0f614611670578063dacec5e314611635578063dc227a3a146114b2578063decdea0714611477578063dfcad5ac146113bf578063e14f5b7d14611127578063e38e6ea814611109578063f01b24d4146110eb578063f03b0c0b14611035578063f078a21614610ebe578063f0f4426014610e01578063f0f9e6b714610d88578063f1d2c44e14610bf6578063f2fde38b14610bce578063f851a44014610ba5578063f8c8765e146106b9578063f94f2e67146103e15763ff7bce23146103b6575f80fd5b346103de57806003193601126103de576003546040516001600160a01b039091168152602090f35b80fd5b50346103de5760203660031901126103de57600435610417610401614e77565b6016546001600160a01b039182169116146146cd565b60055460ff8160a01c161561067b576001600160a01b031680156106415781835282602052604083206003810180549160ff8360a01c16600581101561062d576001610463911461499f565b848652600660205260ff6040872054166105f057600201549283156105b55760405163095ea7b360e01b81526001600160a01b0391821660048201526024810185905286939091602091839160449183918891165af180156105aa5761057d575b5060055490546001600160a01b039182169116813b1561056e578291606483926040519485938492633655218f60e21b84528a600485015260248401528860448401525af1801561057257610559575b507f17d99ac1cf8fb87afac19fd9f2acfd8e46ad90f7987f79280b61e285251624619183602092526006825260408520600160ff19825416179055604051908152a280f35b8161056391614584565b61056e57825f610514565b8280fd5b6040513d84823e3d90fd5b61059e9060203d6020116105a3575b6105968183614584565b8101906148e6565b6104c4565b503d61058c565b6040513d85823e3d90fd5b60405162461bcd60e51b8152602060048201526013602482015272139bc8199d5b991cc81d1bc819195c1bdcda5d606a1b6044820152606490fd5b60405162461bcd60e51b8152602060048201526015602482015274105b1c9958591e481a5b881e5a595b19081c1bdbdb605a1b6044820152606490fd5b634e487b7160e01b87526021600452602487fd5b60405162461bcd60e51b8152602060048201526012602482015271165a595b19081c1bdbdb081b9bdd081cd95d60721b6044820152606490fd5b60405162461bcd60e51b8152602060048201526016602482015275165a595b19081c1bdbdb081b9bdd08195b98589b195960521b6044820152606490fd5b50346103de5760803660031901126103de576106d36145f8565b506106dc61460e565b6106e4614624565b606435916001600160a01b03831690818403610ba1575f5160206150a95f395f51905f52549360ff8560401c16159467ffffffffffffffff811680159081610b99575b6001149081610b8f575b159081610b86575b50610b775767ffffffffffffffff1981166001175f5160206150a95f395f51905f525561077d919086610b4b575b50610770614f51565b610778614f51565b6149f5565b610785614f51565b61078d6145a6565b6040519061079c604083614584565b60018252603160f81b60208301526107b2614f51565b6107ba614f51565b80519067ffffffffffffffff8211610b375781906107e55f5160206150095f395f51905f5254614df8565b601f8111610add575b50602090601f8311600114610a61578992610a56575b50508160011b915f199060031b1c1916175f5160206150095f395f51905f52555b80519067ffffffffffffffff8211610a425781906108505f5160206150495f395f51905f5254614df8565b601f81116109dd575b50602090601f8311600114610961578892610956575b50508160011b915f199060031b1c1916175f5160206150495f395f51905f52555b816001600160601b0360a01b601654161760165560018060a01b03166001600160601b0360a01b60035416176003556001600160601b0360a01b6017541617601755603260185560018060a01b03166001600160601b0360a01b60045416176004556002601b556108fe5780f35b68ff0000000000000000195f5160206150a95f395f51905f5254165f5160206150a95f395f51905f52557fc7f505b2f371ae2175ee4913f4499e1f2633a7b5936321eed1cdaeb6115181d2602060405160018152a180f35b015190505f8061086f565b5f5160206150495f395f51905f5289528189209250601f198416895b8181106109c557509084600195949392106109ad575b505050811b015f5160206150495f395f51905f5255610890565b01515f1960f88460031b161c191690555f8080610993565b9293602060018192878601518155019501930161097d565b5f5160206150495f395f51905f528952610a32907f5f9ce34815f8e11431c7bb75a8e6886a91478f7ffc1dbb0a98dc240fddd76b75601f850160051c81019160208610610a38575b601f0160051c01906149df565b5f610859565b9091508190610a25565b634e487b7160e01b87526041600452602487fd5b015190505f80610804565b5f5160206150095f395f51905f528a52818a209250601f1984168a5b818110610ac55750908460019594939210610aad575b505050811b015f5160206150095f395f51905f5255610825565b01515f1960f88460031b161c191690555f8080610a93565b92936020600181928786015181550195019301610a7d565b5f5160206150095f395f51905f528a52610b31907f42ad5d3e1f2e6e70edcf6d991b8a3023d3fca8047a131592f9edb9fd9b89d57d601f850160051c81019160208610610a3857601f0160051c01906149df565b5f6107ee565b634e487b7160e01b88526041600452602488fd5b68ffffffffffffffffff191668010000000000000001175f5160206150a95f395f51905f52555f610767565b63f92ee8a960e01b8752600487fd5b9050155f610739565b303b159150610731565b879150610727565b8480fd5b50346103de57806003193601126103de576016546040516001600160a01b039091168152602090f35b50346103de5760203660031901126103de57610bf3610beb6145f8565b610778614da5565b80f35b50346103de5760203660031901126103de57600435610c16610401614e77565b8082528160205260ff600360408420610c3760028201546008541115614681565b015460a01c166005811015610d74576001610c52911461499f565b808252600b60205260408220805483825580610d5a575b5050808252600b602052604082206040518082602082945493848152019086526020862092865b818110610d38575050610ca592500382614584565b825b8151811015610d0957828452600c602052604084208251821015610cf5576020600583901b84018101516001600160a01b03165f90815291905260409020805460ff19169055600101610ca7565b634e487b7160e01b85526032600452602485fd5b50507fb57181f5920c8106bcf3c64058972c9dd8e331106a37ab8f16afdc76df1b92c26020604051848152a280f35b84546001600160a01b0316835260019485019486945060209093019201610c90565b610d6d91845260208420908101906149df565b5f80610c69565b634e487b7160e01b83526021600452602483fd5b50346103de5760203660031901126103de57600435610da8610401614e77565b80151580610df6575b15610dbc5760195580f35b60405162461bcd60e51b8152602060048201526012602482015271496e76616c69642070657263656e7461676560701b6044820152606490fd5b506064811115610db1565b50346103de5760203660031901126103de57610e1b6145f8565b610e26610401614e77565b6001600160a01b03168015610e7957601780546001600160a01b0319811683179091556001600160a01b03167f4ab5be82436d353e61ca18726e984e561f5c1cc7c6d38b29d2553c790434705a8380a380f35b60405162461bcd60e51b815260206004820152601f60248201527f54726561737572792063616e6e6f74206265207a65726f2061646472657373006044820152606490fd5b50346103de5760203660031901126103de57600435610ede610401614e77565b8082526006602052610ef660ff60408420541661493d565b80825260208290526040822060055460039091015483916001600160a01b039182169116803b1561056e5760405163d989401760e01b8152600481018590526001600160a01b0392909216602483015230604483015282908290606490829084905af180156105725761101c575b5081905260066020526040808320805460ff19169055600554905163b09c487360e01b81526004810183905290608090829060249082906001600160a01b03165afa80156105aa577f7d0ed9c8566a819f84398e484e734b221e97423d61f8e1ff2de7b1db21137ad19160409185918691610fe9575b5082519182526020820152a280f35b905061100d915060803d608011611015575b6110058183614584565b81019061497d565b50505f610fda565b503d610ffb565b8161102691614584565b61103157815f610f64565b5080fd5b50346103de5760203660031901126103de5761104f6145f8565b61105a610401614e77565b6001600160a01b031680156110ad57600a80546001600160a01b0319811683179091556001600160a01b03167f7a548928cc6d423da4525b2a2ce2ba76b1a42676369df24ab7bb8bbc30203a468380a380f35b60405162461bcd60e51b8152602060048201526016602482015275496e76616c69642077616c6c6574206164647265737360501b6044820152606490fd5b50346103de57806003193601126103de576020600954604051908152f35b50346103de57806003193601126103de576020601154604051908152f35b50346103de5760203660031901126103de57600435808252816020526040822061114f614e77565b81546001600160a01b039182169116148015611399575b61116f906147bc565b600381019060ff825460a01c166005811015611385576001036113535760040180549160ff8360b01c1661131b576004805460405163428ac57f60e01b8152939160209185919082906001600160a01b03165afa9283156113105786936112d8575b5082156112a25760ff60b01b19909316600160b01b17909255815460ff60a01b1916600160a11b179091556040517fc7d1b2cd4cf76e3b360b72761ab309e4fd1e3f25f3679f82e66410d221992ce5919061127c9061122f81614568565b828152600360208201878152604083018881526060840191898352888a52600160205260408a209451855551600185015551600284015551151591019060ff801983541691151516179055565b611284614e77565b604080516001600160a01b039290921682526020820192909252a280f35b60405162461bcd60e51b815260206004820152600e60248201526d4e6f2061726269747261746f727360901b6044820152606490fd5b9092506020813d602011611308575b816112f460209383614584565b810103126113045751915f6111d1565b5f80fd5b3d91506112e7565b6040513d88823e3d90fd5b60405162461bcd60e51b815260206004820152601060248201526f105b1c9958591e48191a5cdc1d5d195960821b6044820152606490fd5b60405162461bcd60e51b815260206004820152600a602482015269139bdd08199d5b99195960b21b6044820152606490fd5b634e487b7160e01b85526021600452602485fd5b5061116f6113a5614e77565b60018301546001600160a01b039182169116149050611166565b50346103de5760203660031901126103de576113d96145f8565b6113e4610401614e77565b6001600160a01b0316801561143257600f80546001600160a81b0319168217600160a01b1790557f793a3406bf6ca3c29f02c7442d03fcc6dd4df6da421c4d4025ce23244e9c52238280a280f35b60405162461bcd60e51b815260206004820152601a60248201527f496e76616c696420676f7665726e616e6365206d616e616765720000000000006044820152606490fd5b50346103de57806003193601126103de5760206040517f0324de13a5a6e302ddb95a9fdf81cc736fc8acee2abe558970daac27395904e78152f35b50346103de5760203660031901126103de576004356114d2610401614e77565b80825260066020526114ea60ff60408420541661493d565b808252602082905260408220600554600382015484916001600160a01b039182169116803b1561056e5760405163d989401760e01b8152600481018690526001600160a01b0392909216602483015230604483015282908290606490829084905af1801561057257611620575b5082905260066020526040808420805460ff19169055600554905163b09c487360e01b8152600481018490529190608090839060249082906001600160a01b03165afa918215611615577f7d0ed9c8566a819f84398e484e734b221e97423d61f8e1ff2de7b1db21137ad192604092869287926115ed575b5060026115dc8385614856565b91015582519182526020820152a280f35b909250611609915060803d608011611015576110058183614584565b5050919091905f6115cf565b6040513d86823e3d90fd5b8161162a91614584565b61056e57825f611557565b50346103de57806003193601126103de5760206040517faefebe170cbaff0af052a32795af0e1b8afff9850f946ad2869be14f355343718152f35b50346103de5760203660031901126103de5760ff60406020926004358152600d84522054166040519015158152f35b50346103de57806003193601126103de57600f546040516001600160a01b039091168152602090f35b50346103de5760203660031901126103de577f48de3e8b8ff02681dc716e2346bd08412b6d15638b23df7c7e597572a0a277fe6020611705614649565b611710610401614e77565b1515600f5460ff60a01b8260a01b169060ff60a01b191617600f55604051908152a180f35b50346103de5760403660031901126103de5760043561175261463a565b61175d610401614e77565b611765614a66565b8183528260205260ff600360408520015460a01c1660058110156118d657600261178f91146147f4565b818352600160205260408320906003820160048154936117b260ff8616156148fe565b815460405163428ac57f60e01b81529260209184919082906001600160a01b03165afa9182156118cb578792611895575b506117f4606491546019549061482f565b04111561185857600161180e9360ff191617905582614aab565b6001600160a01b0361181e614e77565b16907f592495e7a3de01be5fabdb3a3708dcaf58c9ca6932659b4995fc0cb81b5df8388380a360015f5160206150895f395f51905f525580f35b60405162461bcd60e51b815260206004820152601560248201527451756f72756d207374696c6c20706f737369626c6560581b6044820152606490fd5b9091506020813d6020116118c3575b816118b160209383614584565b810103126113045751906117f46117e3565b3d91506118a4565b6040513d89823e3d90fd5b634e487b7160e01b84526021600452602484fd5b50346103de5760203660031901126103de5760043561190a610401614e77565b801561194a5760407f53d83680e714e0facec43bb3d3fd99c9927f551f58e1d9f5bc28bfb3c686e65d91601a549080601a5582519182526020820152a180f35b60405162461bcd60e51b815260206004820152601a60248201527f4d696e696d756d20616d6f756e74206d757374206265203e20300000000000006044820152606490fd5b50346103de5760403660031901126103de57602435906004358152600b602052604081209081548310156103de5760206119c98484614658565b905460405160039290921b1c6001600160a01b03168152f35b50346103de5760203660031901126103de577f1a5a89632fdfa72eecc8319e47e2e68a20ec861eba9d5d29821a6b7d7f91fc2a6020611a1f614649565b611a2a610401614e77565b151560055460ff60a01b8260a01b169060ff60a01b191617600555604051908152a180f35b50346103de57806003193601126103de5760206040517fdb12607e22f583b38d0ae098ae004cc2d5545c1a4e852bc846bc00395ec90a8a8152f35b5060203660031901126103de57600435611aa2614a66565b611aaa614e77565b6003546040516372c1cc1b60e11b81526001600160a01b03928316600482018190529190921691602081602481865afa908115611e2b578591611e6c575b50611e3657604051632a5bb1b760e11b815260048101829052602081602481865afa908115611e2b578591611e0c575b5015611dd45760209060246040518094819363237f1a2160e01b835260048301525afa9081156105aa578391611db5575b5015611d7e578082528160205260408220611b62614e77565b60018201805490916001600160a01b03918216911603611d4d57600482019060ff825460a81c16611d1957611b9683614e30565b600384018054919390916001600160a01b031680611c655750833403611c2f578360027f9d39974c480d889b2e46ed1adc6e673ef0ea9f11554437438b05a17cecbde95e965b0155805460ff60a81b1916600160a81b179055805460ff60a01b1916600160a01b17905554604080516001600160a01b0390921682526020820192909252a260015f5160206150895f395f51905f525580f35b60405162461bcd60e51b815260206004820152600e60248201526d1098590811551208185b5bdd5b9d60921b6044820152606490fd5b611c7197969597614e77565b6040516323b872dd60e01b89526001600160a01b0390911660045230602452604486905260208860648180865af1906001895114821615611cf8575b6040528760605215611ce657508360027f9d39974c480d889b2e46ed1adc6e673ef0ea9f11554437438b05a17cecbde95e969798611bdc565b635274afe760e01b8752600452602486fd5b906001811516611d1057823b15153d15161690611cad565b503d88823e3d90fd5b60405162461bcd60e51b815260206004820152600c60248201526b105b1c9958591e481c185a5960a21b6044820152606490fd5b60405162461bcd60e51b81526020600482015260096024820152682737ba10313abcb2b960b91b6044820152606490fd5b60405162461bcd60e51b815260206004820152600f60248201526e139bc81a59195b9d1a5d1e4814d095608a1b6044820152606490fd5b611dce915060203d6020116105a3576105968183614584565b5f611b49565b60405162461bcd60e51b815260206004820152601060248201526f12d650c81b9bdd081d995c9a599a595960821b6044820152606490fd5b611e25915060203d6020116105a3576105968183614584565b5f611b18565b6040513d87823e3d90fd5b60405162461bcd60e51b815260206004820152600e60248201526d20b1b1b7bab73a10333937bd32b760911b6044820152606490fd5b611e85915060203d6020116105a3576105968183614584565b5f611ae8565b50346103de57806003193601126103de5760206040517f06aa03964db1f7257357ef09714a5f0ca3633723df419e97015e0c7a3e83edb78152f35b50346103de5760203660031901126103de57600435611ee6610401614e77565b6103e88111611f295760407fb27c12a91635e11c22bffa7bd8e0a8735da52b94aaefd7f249776c7590ba789491601854908060185582519182526020820152a180f35b60405162461bcd60e51b81526020600482015260156024820152744665652063616e6e6f74206578636565642031302560581b6044820152606490fd5b50346103de57806003193601126103de5750611faf604051611f89604082614584565b60058152640352e302e360dc1b60208201526040519182916020835260208301906145d4565b0390f35b50346103de5760403660031901126103de576040611fcf61460e565b9160043581526002602052209060018060a01b03165f52602052602060ff60405f2054166040519015158152f35b50346103de5760403660031901126103de57604061201961460e565b916004358152600c602052209060018060a01b03165f52602052602060ff60405f2054166040519015158152f35b50346103de57806003193601126103de576020601854604051908152f35b50346103de57806003193601126103de577f06aa03964db1f7257357ef09714a5f0ca3633723df419e97015e0c7a3e83edb7815260106020526002604082206120bf60018201546120b7811515614705565b421015614745565b01600181546120d160ff82161561477d565b60ff1916179055601780546013546001600160a01b039081166001600160a01b0319831681179093558291167f4ab5be82436d353e61ca18726e984e561f5c1cc7c6d38b29d2553c790434705a8480a37f5990b9f3f1244cb62e9aa3198468cb0e1cb0bc55586fe61ee9095d42f317646d8280a280f35b50346103de5760203660031901126103de5760ff60406020926004358152600684522054166040519015158152f35b50346103de57806003193601126103de576005546040516001600160a01b039091168152602090f35b50346103de5760203660031901126103de576004356121c0610401614e77565b620151808110158061220d575b156121d85760155580f35b60405162461bcd60e51b815260206004820152600d60248201526c496e76616c69642064656c617960981b6044820152606490fd5b5062278d008111156121cd565b50346103de57806003193601126103de575f5160206150295f395f51905f52546040516001600160a01b039091168152602090f35b50346103de57806003193601126103de576020601a54604051908152f35b50346103de5760203660031901126103de576004358152600b6020526040812090604051918260208254918281520190819284526020842090845b81811061231a57505050836122be910384614584565b8251600954906040519360608501956060865251809652608085019390955b8087106122f7575050839450602084015260408301520390f35b81516001600160a01b0316855260019690960195602094850194909101906122dd565b82546001600160a01b03168452602090930192600192830192016122a8565b50346103de57806003193601126103de576040519080825f5160206150095f395f51905f52549161236983614df8565b808352926001811690811561255e57506001146124f4575b61238d92500383614584565b6040519080825f5160206150495f395f51905f5254916123ac83614df8565b80835292600181169081156124d5575060011461246b575b6123d8919392509361240f95940383614584565b602061241d604051936123eb8386614584565b8385525f368137604051968796600f60f81b885260e08589015260e08801906145d4565b9086820360408801526145d4565b904660608601523060808601528260a086015284820360c08601528080855193848152019401925b82811061245457505050500390f35b835185528695509381019392810192600101612445565b505f5160206150495f395f51905f5283529082907f5f9ce34815f8e11431c7bb75a8e6886a91478f7ffc1dbb0a98dc240fddd76b755b8183106124b95750509060206123d8928201016123c4565b60209193508060019154838589010152019101909184926124a1565b602092506123d894915060ff191682840152151560051b8201016123c4565b505f5160206150095f395f51905f5283529082907f42ad5d3e1f2e6e70edcf6d991b8a3023d3fca8047a131592f9edb9fd9b89d57d5b81831061254257505090602061238d92820101612381565b602091935080600191548385890101520191019091849261252a565b6020925061238d94915060ff191682840152151560051b820101612381565b50346103de5760203660031901126103de5760043561259d610401614e77565b80156125dd5760407fbd292a7289a87eb4eebfcaff6175547f6079da3a62df13b6a3a2a0044b445a5091600854908060085582519182526020820152a180f35b60405162461bcd60e51b815260206004820152601560248201527405468726573686f6c64206d757374206265203e203605c1b6044820152606490fd5b50346103de57806003193601126103de576040517f00000000000000000000000000000000000000000000000000000000000000006001600160a01b03168152602090f35b50346103de57806003193601126103de57612678614da5565b5f5160206150295f395f51905f5280546001600160a01b0319811690915581906001600160a01b03167f8be0079c531659141344cd1fd0a4f28419497f9722a3daafe3b4186f6b6457e08280a380f35b50346103de5760203660031901126103de576126e26145f8565b6126ed610401614e77565b6001600160a01b0316801561274057600580546001600160a01b0319811683179091556001600160a01b03167fa40b81c7ea080d0ad16faf603551d504ed12e3e9acf427bb8bc5c478210f9f8d8380a380f35b60405162461bcd60e51b8152602060048201526012602482015271125b9d985b1a59081e5a595b19081c1bdbdb60721b6044820152606490fd5b50346103de5760403660031901126103de576004359061279861463a565b9160ff7fcd5ed15c6e187e77e9aee88184c21f4f2182ab5827cb3b7e07fbedcd63f033005416612aaa576004546001600160a01b03168015612a725760206127de614e77565b604051639f6bd2a960e01b81526001600160a01b03909116600482015291829060249082905afa9081156105aa578391612a53575b5015612a1d57612821614a66565b8082528160205260ff600360408420015460a01c166005811015610d7457600261284b91146147f4565b80825260016020526040822061286860ff600383015416156148fe565b81835260026020526040832061287c614e77565b60018060a01b03165f5260205260ff60405f2054166129e8576004805460405163428ac57f60e01b81529160209183919082906001600160a01b03165afa9081156116155784916129b6575b50815481106129ae575b508183526002602052604083206128e7614e77565b6001600160a01b03165f90815260209190915260409020805460ff191660011790558315612992576001019283546001810180911161297e5761296a9394555b817f3d3c0d41b9416af70d3a4a984a7d1b35c950b5ba7e61f38baa362961d4dff2e86020612953614e77565b604051941585526001600160a01b031693a3614cde565b60015f5160206150895f395f51905f525580f35b634e487b7160e01b84526011600452602484fd5b6002019283546001810180911161297e5761296a939455612927565b81555f6128d2565b90506020813d6020116129e0575b816129d160209383614584565b8101031261130457515f6128c8565b3d91506129c4565b60405162461bcd60e51b815260206004820152600d60248201526c105b1c9958591e481d9bdd1959609a1b6044820152606490fd5b60405162461bcd60e51b815260206004820152600e60248201526d2737ba1030b93134ba3930ba37b960911b6044820152606490fd5b612a6c915060203d6020116105a3576105968183614584565b5f612813565b60405162461bcd60e51b815260206004820152601060248201526f149959da5cdd1c9e481b9bdd081cd95d60821b6044820152606490fd5b63d93c066560e01b8252600482fd5b50346103de57806003193601126103de576017546040516001600160a01b039091168152602090f35b50346103de5760403660031901126103de57612afc6145f8565b60243590612b25600f54612b1560ff8260a01c16614863565b6001600160a01b031633146148a8565b6001600160a01b03168015612bf857806001600160601b0360a01b6013541617601355612b5460155442614856565b600360405191612b6383614568565b85835260208301908152612bcd6040840187815260608501928784527f06aa03964db1f7257357ef09714a5f0ca3633723df419e97015e0c7a3e83edb7895260106020526040892095518655516001860155511515600285019060ff801983541691151516179055565b519101557f82c9c67a78af37d6f4222bb907132f623e9b3c5b25bcb04818b64eb4372852728380a380f35b60405162461bcd60e51b815260206004820152601060248201526f496e76616c696420747265617375727960801b6044820152606490fd5b50346103de57806003193601126103de57602060ff7fcd5ed15c6e187e77e9aee88184c21f4f2182ab5827cb3b7e07fbedcd63f0330054166040519015158152f35b50346103de5760203660031901126103de5760409060043581526010602052208054611faf600183015492600360ff600283015416910154906040519485948590949392606092608083019683526020830152151560408201520152565b50346103de5760203660031901126103de5760ff60406020926004358152600e84522054166040519015158152f35b50346103de5760603660031901126103de576004356024359060443591612d31600f54612b1560ff8260a01c16614863565b7fa666db3124b2872807e8548ae39b866b9f45be55ea1bf19d5db740eff5053c708203612e2f576103e88111612dfb576020817ffe1a5412de6e6f8fc5bf09af2f9caaea4534a6f19cdfc16bcfa3d075aa999e71926011555b612d9660155442614856565b600360405191612da583614568565b838352848301908152612ded604084018a815260608501928a8452898c526010885260408c2095518655516001860155511515600285019060ff801983541691151516179055565b51910155604051908152a380f35b60405162461bcd60e51b815260206004820152600c60248201526b08ccaca40e8dede40d0d2ced60a31b6044820152606490fd5b7fdb12607e22f583b38d0ae098ae004cc2d5545c1a4e852bc846bc00395ec90a8a8203612ec4578015612e89576020817ffe1a5412de6e6f8fc5bf09af2f9caaea4534a6f19cdfc16bcfa3d075aa999e7192601255612d8a565b60405162461bcd60e51b815260206004820152601360248201527204d696e696d756d206d757374206265203e203606c1b6044820152606490fd5b7f0324de13a5a6e302ddb95a9fdf81cc736fc8acee2abe558970daac27395904e78203612f675780151580612f5c575b15612f26576020817ffe1a5412de6e6f8fc5bf09af2f9caaea4534a6f19cdfc16bcfa3d075aa999e7192601455612d8a565b60405162461bcd60e51b815260206004820152600e60248201526d496e76616c69642071756f72756d60901b6044820152606490fd5b506064811115612ef4565b60405162461bcd60e51b81526020600482015260116024820152702ab735b737bbb7103830b930b6b2ba32b960791b6044820152606490fd5b50346103de576101003660031901126103de57612fbb61460e565b612fc3614624565b916084356001600160a01b038116908190036110315760c4356001600160a01b0381169081900361056e5760e435612ffc610401614e77565b6004358452602084905260408420546001600160a01b031661339b57601a546064351061335f5761271061303460185460643561482f565b0491821561332557806132c2575b61304e60a43542614856565b60405194610220860186811067ffffffffffffffff821117610b375760409081526001600160a01b038981168089528b82166020808b019182526064358b860190815260608c0196875260808c018d815260a08d019490945260c08c018d905260e08c018d90526101008c018d90526101208c018d9052426101408d01526101608c01979097526101808b01979097526101a08a01979097526101c08901979097526101e0880189905261020088018990526004358952938890528720865181549085166001600160a01b0319918216178255945160018201805491861691871691909117905591516002830155516003820180549190931693169290921790559051909260058210156132ae575060038301805460ff60a01b191660a092831b60ff60a01b90811691909117909155828201516004808601805460c087015160e08801516101008901516001600160b81b03199093166001600160a01b039687161791151590971b9095169490941794151560a81b60ff60a81b169490941792151560b01b60ff60b01b16929092179092556101208301516005850180546001600160a01b0319908116928516929092179055610140840151600686015561016084015160078601556101808401516008860180549092169084161790556101a083015160098501556101c0830151600a8501556101e0830151600b85015561020090920151600c90930192909255604080519383168452939091166020830152606435928201929092529035907f0dd968c277d9dc6b36b6ec2b638324c3d937882c64ca109440bc050ebf26cb0790606090a2602060405160018152f35b634e487b7160e01b81526021600452602490fd5b803b15610ba157604051632142170760e11b81526001600160a01b038716600482015230602482015260448101839052858160648183865af1801561131057908691613310575b5050613042565b8161331a91614584565b610ba157845f613309565b60405162461bcd60e51b815260206004820152601260248201527146656520616d6f756e74206973207a65726f60701b6044820152606490fd5b60405162461bcd60e51b8152602060048201526014602482015273416d6f756e742062656c6f77206d696e696d756d60601b6044820152606490fd5b60405162461bcd60e51b8152602060048201526015602482015274457363726f7720616c72656164792065786973747360581b6044820152606490fd5b50346103de5760203660031901126103de5760206133f46145f8565b6040517f00000000000000000000000000000000000000000000000000000000000000006001600160a01b039081169216919091148152f35b50346103de5760203660031901126103de5760406020916004358152600783522054604051908152f35b50346103de57806003193601126103de576020601b54604051908152f35b50346103de57806003193601126103de57602060ff60055460a01c166040519015158152f35b50346103de57806003193601126103de577f00000000000000000000000000000000000000000000000000000000000000006001600160a01b031630036134f35760206040515f5160206150695f395f51905f528152f35b63703e46dd60e11b8152600490fd5b50346103de57806003193601126103de576020601954604051908152f35b5060403660031901126103de576135356145f8565b906024359167ffffffffffffffff8311611031573660238401121561103157826004013567ffffffffffffffff81116137425760405193613580601f8301601f191660200186614584565b818552366024838301011161373e5781849260246020930183880137850101526001600160a01b037f00000000000000000000000000000000000000000000000000000000000000001630811490811561371c575b5061370d576135e2614da5565b6040516352d1902d60e01b8152926001600160a01b0382169190602085600481865afa809585966136d9575b5061362757634c9c8ce360e01b84526004839052602484fd5b9091845f5160206150695f395f51905f5281036136c75750823b156136b5575f5160206150695f395f51905f5280546001600160a01b031916821790557fbc7cd75a20ee27fd9adebab32041f755214dbc6bffa90cc0225b39da2e5c2d3b8480a280511561369c5761369891614f7c565b5080f35b5050346136a65780f35b63b398979f60e01b8152600490fd5b634c9c8ce360e01b8452600452602483fd5b632a87526960e21b8552600452602484fd5b9095506020813d602011613705575b816136f560209383614584565b81010312610ba15751945f61360e565b3d91506136e8565b63703e46dd60e11b8252600482fd5b5f5160206150695f395f51905f52546001600160a01b0316141590505f6135d5565b8380fd5b634e487b7160e01b83526041600452602483fd5b50346103de57806003193601126103de576020600854604051908152f35b50346103de57806003193601126103de57600a546040516001600160a01b039091168152602090f35b50346103de5760203660031901126103de576002604060209260043581528084522001546008541115604051908152f35b50346103de5760403660031901126103de57600435906137ec61463a565b6137f7610401614e77565b828252816020526040822060ff600482015460b01c161561383b576003015460a01c60ff16926005841015610d74576138366002610bf39495146147f4565b614aab565b60405162461bcd60e51b8152602060048201526011602482015270139bc8191a5cdc1d5d19481c985a5cd959607a1b6044820152606490fd5b50346103de57806003193601126103de5760206040517fa666db3124b2872807e8548ae39b866b9f45be55ea1bf19d5db740eff5053c708152f35b50346103de57806003193601126103de576020601454604051908152f35b50346103de5760203660031901126103de576004356138ea614a66565b808252816020526004604083206138ff614e77565b81546001600160a01b03908116911681148015613a93575b613920906147bc565b6001600160a01b03613930614e77565b1603613a7a57808201805460ff60a01b1916600160a01b1790555b015460ff8160a01c169081613a6c575b50613976575b5060015f5160206150895f395f51905f525580f35b808252602082905260408220600381015481546002830180549093869390926139ac92916001600160a01b039182169116614ed0565b60088101546001600160a01b031690816139f6575b50505060207f9410e7c5b50451e4b5bd5ce113fd48abebd7070eb9d080df08b115b7cdc416509154604051908152a25f613961565b600960018060a01b03600183015416910154823b1561373e57604051632142170760e11b81523060048201526001600160a01b0392909216602483015260448201529082908290606490829084905af1801561057257613a57575b806139c1565b81613a6191614584565b61056e57825f613a51565b60ff915060a81c165f61395b565b808201805460ff60a81b1916600160a81b17905561394b565b50613920613a9f614e77565b60018401546001600160a01b039182169116149050613917565b50346103de57806003193601126103de576020600f5460ff8160a01c169081613ae8575b506040519015158152f35b6001600160a01b03161515905082613add565b50346103de5760203660031901126103de5760409060043581526001602052208054611faf60018301549260ff60036002830154920154169060405194859485926060929594919560808501968552602085015260408401521515910152565b50346103de57806003193601126103de576004546040516001600160a01b039091168152602090f35b50346103de5760203660031901126103de57613b9e6145f8565b613ba9610401614e77565b6001600160a01b03168015613bce576001600160601b0360a01b600454161760045580f35b60405162461bcd60e51b815260206004820152601060248201526f496e76616c696420726567697374727960801b6044820152606490fd5b50346103de57806003193601126103de576013546040516001600160a01b039091168152602090f35b50346103de5760203660031901126103de576004358152806020526040812060018060a01b038154169060018060a01b03600182015416906002810154600382015460ff8160a01c169560048401549660018060a01b0360058601541660068601549060078701549260018060a01b0360088901541694600989015496600a8a015498600c600b8c01549b01549b60206040519e8f908152015260408d015260018060a01b031660608c015260058210156132ae57506102209a60ff9160808c015260018060a01b03811660a08c0152818160a01c16151560c08c0152818160a81c16151560e08c015260b01c1615156101008a01526101208901526101408801526101608701526101808601526101a08501526101c08401526101e0830152610200820152f35b50346103de5760203660031901126103de5760043580825260106020527f31564d9c3e497cbcaea3bfc6814d1c86ebf66b3fe325b5f5b327434f5885436e602060408420613dae60018201546120b7811515614705565b6002810160018154613dc360ff82161561477d565b60ff19161790557fa666db3124b2872807e8548ae39b866b9f45be55ea1bf19d5db740eff5053c708403613e33577fb27c12a91635e11c22bffa7bd8e0a8735da52b94aaefd7f249776c7590ba78946040601854835480601855825191825285820152a15b54604051908152a280f35b7fdb12607e22f583b38d0ae098ae004cc2d5545c1a4e852bc846bc00395ec90a8a8403613e95577f53d83680e714e0facec43bb3d3fd99c9927f551f58e1d9f5bc28bfb3c686e65d6040601a54835480601a55825191825285820152a1613e28565b7f0324de13a5a6e302ddb95a9fdf81cc736fc8acee2abe558970daac27395904e78403613e28577fd0198ea88bf9c4ad5317b68e697944e524541fcb494d854f095b1cd88a097ab66040601954835480601955825191825285820152a1613e28565b50346103de57806003193601126103de576020601254604051908152f35b50346103de5760803660031901126103de57613f2f6145f8565b50613f3861460e565b5060643567ffffffffffffffff8111611031573660238201121561103157806004013567ffffffffffffffff811161056e57369101602401116103de57604051630a85bd0160e11b8152602090f35b50346103de57806003193601126103de57611faf613fa36145a6565b6040519182916020835260208301906145d4565b50346103de5760203660031901126103de57600435613fd7610401614e77565b80156140175760407fb00894ef60c4ac6f15142caa5fe1f36f288bc6e9f60cdeab5ab20461e43b067f91600954908060095582519182526020820152a180f35b60405162461bcd60e51b815260206004820152601960248201527f436f6e6669726d6174696f6e73206d757374206265203e2030000000000000006044820152606490fd5b50346103de5760203660031901126103de576004359080828252600660205260ff60408320541691828093614129575b6140a3575b60408383825191151582526020820152f35b600554604051630d76fb9160e21b81526004810195909552909150602090849060249082906001600160a01b03165afa90811561411d57906140ea575b604092505f614091565b506020823d602011614115575b8161410460209383614584565b8101031261130457604091516140e0565b3d91506140f7565b604051903d90823e3d90fd5b506005546001600160a01b0316151561408c565b50346103de57806003193601126103de576020601554604051908152f35b50346103de57806003193601126103de57602060ff600f5460a01c166040519015158152f35b503461130457602036600319011261130457600435805f525f60205260405f206141b360028201546008541115614681565b6141bb614e77565b81546001600160a01b03918216911614908115614544575b501561450e57805f52600c60205260405f206141ed614e77565b60018060a01b03165f5260205260ff60405f2054166144d657805f52600c60205260405f2061421a614e77565b6001600160a01b03165f90815260209182526040808220805460ff19166001179055838252600b9092522061424d614e77565b908054680100000000000000008110156144c25761427091600182018155614658565b81546001600160a01b0393841660039290921b91821b9184901b1916179055614297614e77565b16817f9327d7f0637aceff5e1b34c73d1397a800e131755ca7d96a287a7633f840acea5f80a3805f52600b60205260405f205460095411156142d7575080f35b805f525f60205260405f206003810160ff815460a01c1660058110156144ae576001614303911461499f565b825f52600e60205260ff60405f205416614476575f838152600e60205260409020805460ff1916600117905580548254600284018054909492614352926001600160a01b039081169116614ed0565b60088101546001600160a01b031690816143cf575b5050805460ff60a01b1916600360a01b1790556040517f9410e7c5b50451e4b5bd5ce113fd48abebd7070eb9d080df08b115b7cdc416509160209190847fbb2ee637ef2e74547424f7aed305c90670183e477853abcef64c6d3c0b8af69f8780a2548152a280f35b600960018060a01b03600183015416910154823b1561130457604051632142170760e11b81523060048201526001600160a01b039290921660248301526044820152905f908290606490829084905af1801561446b57614430575b80614367565b6020919450916144615f7f9410e7c5b50451e4b5bd5ce113fd48abebd7070eb9d080df08b115b7cdc4165094614584565b5f9491509161442a565b6040513d5f823e3d90fd5b60405162461bcd60e51b815260206004820152601060248201526f105b1c9958591e481c995b19585cd95960821b6044820152606490fd5b634e487b7160e01b5f52602160045260245ffd5b634e487b7160e01b5f52604160045260245ffd5b60405162461bcd60e51b815260206004820152601060248201526f105b1c9958591e48185c1c1c9bdd995960821b6044820152606490fd5b60405162461bcd60e51b815260206004820152600e60248201526d139bdd08185d5d1a1bdc9a5e995960921b6044820152606490fd5b905061454e614e77565b6001909101546001600160a01b039182169116145f6141d3565b6080810190811067ffffffffffffffff8211176144c257604052565b90601f8019910116810190811067ffffffffffffffff8211176144c257604052565b604051906145b5604083614584565b601082526f22b9b1b937bba1b7b73a3930b1ba2b1960811b6020830152565b805180835260209291819084018484015e5f828201840152601f01601f1916010190565b600435906001600160a01b038216820361130457565b602435906001600160a01b038216820361130457565b604435906001600160a01b038216820361130457565b60243590811515820361130457565b60043590811515820361130457565b805482101561466d575f5260205f2001905f90565b634e487b7160e01b5f52603260045260245ffd5b1561468857565b60405162461bcd60e51b815260206004820152601c60248201527f4e6f74206120686967682d76616c7565207472616e73616374696f6e000000006044820152606490fd5b156146d457565b60405162461bcd60e51b81526020600482015260096024820152682737ba1030b236b4b760b91b6044820152606490fd5b1561470c57565b60405162461bcd60e51b81526020600482015260116024820152704e6f2070656e64696e67206368616e676560781b6044820152606490fd5b1561474c57565b60405162461bcd60e51b8152602060048201526009602482015268546f6f206561726c7960b81b6044820152606490fd5b1561478457565b60405162461bcd60e51b815260206004820152601060248201526f105b1c9958591e48195e1958dd5d195960821b6044820152606490fd5b156147c357565b60405162461bcd60e51b81526020600482015260096024820152684e6f7420706172747960b81b6044820152606490fd5b156147fb57565b60405162461bcd60e51b815260206004820152600c60248201526b139bdd08191a5cdc1d5d195960a21b6044820152606490fd5b8181029291811591840414171561484257565b634e487b7160e01b5f52601160045260245ffd5b9190820180921161484257565b1561486a57565b60405162461bcd60e51b815260206004820152601660248201527511dbdd995c9b985b98d9481b9bdd08195b98589b195960521b6044820152606490fd5b156148af57565b60405162461bcd60e51b815260206004820152600f60248201526e4f6e6c7920676f7665726e616e636560881b6044820152606490fd5b90816020910312611304575180151581036113045790565b1561490557565b60405162461bcd60e51b815260206004820152601060248201526f105b1c9958591e481c995cdbdb1d995960821b6044820152606490fd5b1561494457565b60405162461bcd60e51b8152602060048201526011602482015270139bdd081a5b881e5a595b19081c1bdbdb607a1b6044820152606490fd5b9190826080910312611304578151916020810151916060604083015192015190565b156149a657565b60405162461bcd60e51b8152602060048201526011602482015270115cd8dc9bddc81b9bdd08199d5b991959607a1b6044820152606490fd5b8181106149ea575050565b5f81556001016149df565b6001600160a01b03168015614a53575f5160206150295f395f51905f5280546001600160a01b0319811683179091556001600160a01b03167f8be0079c531659141344cd1fd0a4f28419497f9722a3daafe3b4186f6b6457e05f80a3565b631e4fbdf760e01b5f525f60045260245ffd5b60025f5160206150895f395f51905f525414614a8f5760025f5160206150895f395f51905f5255565b633ee5aeb560e01b5f5260045ffd5b9190820391821161484257565b5f91815f525f60205260405f2090600382019060ff825460a01c1660058110156144ae576002614adb91146147f4565b614ae3614e77565b6005840180546001600160a01b0319166001600160a01b03928316179055825460ff60a01b1916600360a01b178355835460018501546002860154600a87015491841695929093169392614b97929091887fc309ec0196a2aa529cef11b186ef4a3a04c52a9075daf8be91c7c95ede0fdc876040614b5f614e77565b81516001600160a01b0390911681528815156020820152a28281614c82575b5050546001600160a01b03168315614c7b578490614ed0565b15614c7457505b60088201546001600160a01b03169182614c0b575b505050815280602052600c6040822082815582600182015582600282015582600382015582600482015582600582015582600682015582600782015582600882015582600982015582600a82015582600b8201550155565b60090154823b1561130457604051632142170760e11b81523060048201526001600160a01b039290921660248301526044820152905f908290606490829084905af1801561446b57614c5f575b8080614bb3565b614c6c9192505f90614584565b5f905f614c58565b9050614b9e565b8590614ed0565b8254601754939450614cd693614ca69184916001600160a01b039081169116614ed0565b897f156e588d1067ba3c8a6a7f4376ef70794f8afed114dc9d1421e054b65743e6306020604051858152a2614a9e565b905f80614b7e565b805f52600160205260405f206003810190815460ff8116614d9f576064614d0983546019549061482f565b04928315614d96575b600183019060028254940190815495614d2b8787614856565b1015614d3b575b50505050505050565b60016060957f87a706357fd6156692da2afe6f82239426dd27f4cb9b46e0e3a1c5d308377fc897119460ff1916179055614d758387614aab565b5490549060405192835260208301526040820152a25f808080808080614d32565b60019350614d12565b50505050565b5f5160206150295f395f51905f52546001600160a01b0390811690614dc8614e77565b1603614dd057565b614dd8614e77565b63118cdaa760e01b5f9081526001600160a01b0391909116600452602490fd5b90600182811c92168015614e26575b6020831014614e1257565b634e487b7160e01b5f52602260045260245ffd5b91607f1691614e07565b600b81015480151580614e69575b614e4a57506002015490565b612710614e5f6002614e66940154928361482f565b0490614a9e565b90565b50600c820154421115614e3e565b601436101580614e9e575b15614e9a576013193601368111611304573560601c90565b3390565b50337f00000000000000000000000000000000000000000000000000000000000000006001600160a01b031614614e82565b916040519163a9059cbb60e01b5f5260018060a01b031660045260245260205f60448180865af19060015f5114821615614f30575b60405215614f105750565b635274afe760e01b5f9081526001600160a01b0391909116600452602490fd5b906001811516614f4857823b15153d15161690614f05565b503d5f823e3d90fd5b60ff5f5160206150a95f395f51905f525460401c1615614f6d57565b631afcd79f60e31b5f5260045ffd5b905f8091602081519101845af48080614ff5575b15614fb05750506040513d81523d5f602083013e60203d82010160405290565b15614fd557639996b31560e01b5f9081526001600160a01b0391909116600452602490fd5b3d15614fe6576040513d5f823e3d90fd5b63d6bda27560e01b5f5260045ffd5b503d151580614f905750813b1515614f9056fea16a46d94261c7517cc8ff89f61c0ce93598e3c849801011dee649a6a557d1029016d09d72d40fdae2fd8ceac6b6234c7706214fd39c1cd1e609a0528c199300a16a46d94261c7517cc8ff89f61c0ce93598e3c849801011dee649a6a557d103360894a13ba1a3210667c828492db98dca3e2076cc3735a920a3ca505d382bbc9b779b17422d0df92223018b32b4d1fa46e071723d6817e2486d003becc55f00f0c57e16840df040f15088dc2f81fe391c3923bec73e23a9662efc9c229c6a00a26469706673582212205ed9c26ad953afbd9c6d123a15abd4d6b126f661ae442c4f7883ee2ad2499eef64736f6c634300081c0033f0c57e16840df040f15088dc2f81fe391c3923bec73e23a9662efc9c229c6a00",
  "linkReferences": {},
  "deployedLinkReferences": {}
}