{
  "_format": "hh-sol-artifact-1",
  "contractName": "EscrowContract",
  "sourceName": "contracts/EscrowContract.sol",
  "abi": [
    {
      "inputs": [
        {
          "internalType": "address",
          "name": "_trustedForwarder",
          "type": "address"
        },
        {
          "internalType": "address",
          "name": "_complianceManager",
          "type": "address"
        },
        {
          "internalType": "address",
          "name": "_arbitratorsRegistry",
          "type": "address"
        }
      ],
      "stateMutability": "nonpayable",
      "type": "constructor"
    },
    {
      "inputs": [],
      "name": "EnforcedPause",
      "type": "error"
    },
    {
      "inputs": [],
      "name": "ExpectedPause",
      "type": "error"
    },
    {
      "inputs": [],
      "name": "InvalidShortString",
      "type": "error"
    },
    {
      "inputs": [],
      "name": "ReentrancyGuardReentrantCall",
      "type": "error"
    },
    {
      "inputs": [
        {
          "internalType": "string",
          "name": "str",
          "type": "string"
        }
      ],
      "name": "StringTooLong",
      "type": "error"
    },
    {
      "anonymous": false,
      "inputs": [
        {
          "indexed": true,
          "internalType": "bytes32",
          "name": "invoiceId",
          "type": "bytes32"
        },
        {
          "indexed": true,
          "internalType": "address",
          "name": "arbitrator",
          "type": "address"
        },
        {
          "indexed": false,
          "internalType": "bool",
          "name": "votedForSeller",
          "type": "bool"
        }
      ],
      "name": "ArbitratorVoted",
      "type": "event"
    },
    {
      "anonymous": false,
      "inputs": [
        {
          "indexed": true,
          "internalType": "bytes32",
          "name": "invoiceId",
          "type": "bytes32"
        },
        {
          "indexed": false,
          "internalType": "address",
          "name": "buyer",
          "type": "address"
        },
        {
          "indexed": false,
          "internalType": "uint256",
          "name": "amount",
          "type": "uint256"
        }
      ],
      "name": "DepositConfirmed",
      "type": "event"
    },
    {
      "anonymous": false,
      "inputs": [
        {
          "indexed": true,
          "internalType": "bytes32",
          "name": "invoiceId",
          "type": "bytes32"
        },
        {
          "indexed": false,
          "internalType": "address",
          "name": "raisedBy",
          "type": "address"
        },
        {
          "indexed": false,
          "internalType": "uint256",
          "name": "snapshotArbitratorCount",
          "type": "uint256"
        }
      ],
      "name": "DisputeRaised",
      "type": "event"
    },
    {
      "anonymous": false,
      "inputs": [
        {
          "indexed": true,
          "internalType": "bytes32",
          "name": "invoiceId",
          "type": "bytes32"
        },
        {
          "indexed": false,
          "internalType": "bool",
          "name": "sellerWins",
          "type": "bool"
        },
        {
          "indexed": false,
          "internalType": "uint256",
          "name": "votesForSeller",
          "type": "uint256"
        },
        {
          "indexed": false,
          "internalType": "uint256",
          "name": "votesForBuyer",
          "type": "uint256"
        }
      ],
      "name": "DisputeResolved",
      "type": "event"
    },
    {
      "anonymous": false,
      "inputs": [],
      "name": "EIP712DomainChanged",
      "type": "event"
    },
    {
      "anonymous": false,
      "inputs": [
        {
          "indexed": true,
          "internalType": "bytes32",
          "name": "invoiceId",
          "type": "bytes32"
        },
        {
          "indexed": false,
          "internalType": "address",
          "name": "seller",
          "type": "address"
        },
        {
          "indexed": false,
          "internalType": "address",
          "name": "buyer",
          "type": "address"
        },
        {
          "indexed": false,
          "internalType": "uint256",
          "name": "amount",
          "type": "uint256"
        }
      ],
      "name": "EscrowCreated",
      "type": "event"
    },
    {
      "anonymous": false,
      "inputs": [
        {
          "indexed": true,
          "internalType": "bytes32",
          "name": "invoiceId",
          "type": "bytes32"
        },
        {
          "indexed": false,
          "internalType": "uint256",
          "name": "amount",
          "type": "uint256"
        }
      ],
      "name": "EscrowReleased",
      "type": "event"
    },
    {
      "anonymous": false,
      "inputs": [
        {
          "indexed": false,
          "internalType": "address",
          "name": "account",
          "type": "address"
        }
      ],
      "name": "Paused",
      "type": "event"
    },
    {
      "anonymous": false,
      "inputs": [
        {
          "indexed": false,
          "internalType": "address",
          "name": "account",
          "type": "address"
        }
      ],
      "name": "Unpaused",
      "type": "event"
    },
    {
      "inputs": [],
      "name": "admin",
      "outputs": [
        {
          "internalType": "address",
          "name": "",
          "type": "address"
        }
      ],
      "stateMutability": "view",
      "type": "function"
    },
    {
      "inputs": [],
      "name": "arbitratorsRegistry",
      "outputs": [
        {
          "internalType": "contract ArbitratorsRegistry",
          "name": "",
          "type": "address"
        }
      ],
      "stateMutability": "view",
      "type": "function"
    },
    {
      "inputs": [],
      "name": "complianceManager",
      "outputs": [
        {
          "internalType": "contract ComplianceManager",
          "name": "",
          "type": "address"
        }
      ],
      "stateMutability": "view",
      "type": "function"
    },
    {
      "inputs": [
        {
          "internalType": "bytes32",
          "name": "_invoiceId",
          "type": "bytes32"
        }
      ],
      "name": "confirmRelease",
      "outputs": [],
      "stateMutability": "nonpayable",
      "type": "function"
    },
    {
      "inputs": [
        {
          "internalType": "bytes32",
          "name": "_invoiceId",
          "type": "bytes32"
        },
        {
          "internalType": "address",
          "name": "_seller",
          "type": "address"
        },
        {
          "internalType": "address",
          "name": "_buyer",
          "type": "address"
        },
        {
          "internalType": "uint256",
          "name": "_amount",
          "type": "uint256"
        },
        {
          "internalType": "address",
          "name": "_token",
          "type": "address"
        },
        {
          "internalType": "uint256",
          "name": "_duration",
          "type": "uint256"
        },
        {
          "internalType": "address",
          "name": "_rwaNftContract",
          "type": "address"
        },
        {
          "internalType": "uint256",
          "name": "_rwaTokenId",
          "type": "uint256"
        },
        {
          "internalType": "uint256",
          "name": "_discountRate",
          "type": "uint256"
        },
        {
          "internalType": "uint256",
          "name": "_discountDeadline",
          "type": "uint256"
        }
      ],
      "name": "createEscrow",
      "outputs": [
        {
          "internalType": "bool",
          "name": "",
          "type": "bool"
        }
      ],
      "stateMutability": "nonpayable",
      "type": "function"
    },
    {
      "inputs": [
        {
          "internalType": "bytes32",
          "name": "_invoiceId",
          "type": "bytes32"
        }
      ],
      "name": "deposit",
      "outputs": [],
      "stateMutability": "payable",
      "type": "function"
    },
    {
      "inputs": [],
      "name": "eip712Domain",
      "outputs": [
        {
          "internalType": "bytes1",
          "name": "fields",
          "type": "bytes1"
        },
        {
          "internalType": "string",
          "name": "name",
          "type": "string"
        },
        {
          "internalType": "string",
          "name": "version",
          "type": "string"
        },
        {
          "internalType": "uint256",
          "name": "chainId",
          "type": "uint256"
        },
        {
          "internalType": "address",
          "name": "verifyingContract",
          "type": "address"
        },
        {
          "internalType": "bytes32",
          "name": "salt",
          "type": "bytes32"
        },
        {
          "internalType": "uint256[]",
          "name": "extensions",
          "type": "uint256[]"
        }
      ],
      "stateMutability": "view",
      "type": "function"
    },
    {
      "inputs": [
        {
          "internalType": "bytes32",
          "name": "",
          "type": "bytes32"
        }
      ],
      "name": "escrows",
      "outputs": [
        {
          "internalType": "address",
          "name": "seller",
          "type": "address"
        },
        {
          "internalType": "address",
          "name": "buyer",
          "type": "address"
        },
        {
          "internalType": "uint256",
          "name": "amount",
          "type": "uint256"
        },
        {
          "internalType": "address",
          "name": "token",
          "type": "address"
        },
        {
          "internalType": "enum EscrowContract.EscrowStatus",
          "name": "status",
          "type": "uint8"
        },
        {
          "internalType": "bool",
          "name": "sellerConfirmed",
          "type": "bool"
        },
        {
          "internalType": "bool",
          "name": "buyerConfirmed",
          "type": "bool"
        },
        {
          "internalType": "bool",
          "name": "disputeRaised",
          "type": "bool"
        },
        {
          "internalType": "address",
          "name": "disputeResolver",
          "type": "address"
        },
        {
          "internalType": "uint256",
          "name": "createdAt",
          "type": "uint256"
        },
        {
          "internalType": "uint256",
          "name": "expiresAt",
          "type": "uint256"
        },
        {
          "internalType": "address",
          "name": "rwaNftContract",
          "type": "address"
        },
        {
          "internalType": "uint256",
          "name": "rwaTokenId",
          "type": "uint256"
        },
        {
          "internalType": "uint256",
          "name": "snapshotArbitratorCount",
          "type": "uint256"
        },
        {
          "internalType": "uint256",
          "name": "votesForSeller",
          "type": "uint256"
        },
        {
          "internalType": "uint256",
          "name": "votesForBuyer",
          "type": "uint256"
        },
        {
          "internalType": "uint256",
          "name": "discountRate",
          "type": "uint256"
        },
        {
          "internalType": "uint256",
          "name": "discountDeadline",
          "type": "uint256"
        }
      ],
      "stateMutability": "view",
      "type": "function"
    },
    {
      "inputs": [
        {
          "internalType": "bytes32",
          "name": "_invoiceId",
          "type": "bytes32"
        }
      ],
      "name": "expireEscrow",
      "outputs": [],
      "stateMutability": "nonpayable",
      "type": "function"
    },
    {
      "inputs": [
        {
          "internalType": "bytes32",
          "name": "",
          "type": "bytes32"
        },
        {
          "internalType": "address",
          "name": "",
          "type": "address"
        }
      ],
      "name": "hasVoted",
      "outputs": [
        {
          "internalType": "bool",
          "name": "",
          "type": "bool"
        }
      ],
      "stateMutability": "view",
      "type": "function"
    },
    {
      "inputs": [
        {
          "internalType": "address",
          "name": "forwarder",
          "type": "address"
        }
      ],
      "name": "isTrustedForwarder",
      "outputs": [
        {
          "internalType": "bool",
          "name": "",
          "type": "bool"
        }
      ],
      "stateMutability": "view",
      "type": "function"
    },
    {
      "inputs": [
        {
          "internalType": "address",
          "name": "",
          "type": "address"
        },
        {
          "internalType": "address",
          "name": "",
          "type": "address"
        },
        {
          "internalType": "uint256",
          "name": "",
          "type": "uint256"
        },
        {
          "internalType": "bytes",
          "name": "",
          "type": "bytes"
        }
      ],
      "name": "onERC721Received",
      "outputs": [
        {
          "internalType": "bytes4",
          "name": "",
          "type": "bytes4"
        }
      ],
      "stateMutability": "pure",
      "type": "function"
    },
    {
      "inputs": [],
      "name": "paused",
      "outputs": [
        {
          "internalType": "bool",
          "name": "",
          "type": "bool"
        }
      ],
      "stateMutability": "view",
      "type": "function"
    },
    {
      "inputs": [
        {
          "internalType": "bytes32",
          "name": "_invoiceId",
          "type": "bytes32"
        }
      ],
      "name": "raiseDispute",
      "outputs": [],
      "stateMutability": "nonpayable",
      "type": "function"
    },
    {
      "inputs": [],
      "name": "trustedForwarder",
      "outputs": [
        {
          "internalType": "address",
          "name": "",
          "type": "address"
        }
      ],
      "stateMutability": "view",
      "type": "function"
    },
    {
      "inputs": [
        {
          "internalType": "bytes32",
          "name": "_invoiceId",
          "type": "bytes32"
        },
        {
          "internalType": "bool",
          "name": "_forSeller",
          "type": "bool"
        }
      ],
      "name": "voteOnDispute",
      "outputs": [],
      "stateMutability": "nonpayable",
      "type": "function"
    }
  ],
  "bytecode": "0x61018080604052346101bc576060816120a2803803809161002082856101c0565b8339810103126101bc57610033816101f7565b9061004c6040610045602084016101f7565b92016101f7565b916040519061005c6040836101c0565b600e8252602082016d115cd8dc9bddd0dbdb9d1c9858dd60921b8152604051926100876040856101c0565b600184526020840192603160f81b845260015f556080526100a78161020b565b610140526100b4846103a6565b6101605251902091826101005251902080610120524660c0526040519060208201927f8b73c3c69bb8fe3d512ecc4cf759cc79239f7b179b0ffacaa9a75d522b39400f8452604083015260608201524660808201523060a082015260a0815261011e60c0826101c0565b51902060a0523060e052600880546001600160a01b031990811633179091556006805482166001600160a01b039384161790556007805490911692909116919091179055604051611bc390816104df82396080518181816107b30152818161118a0152611966015260a05181505060c05181505060e051815050610100518150506101205181505061014051816106bb015261016051816106e50152f35b5f80fd5b601f909101601f19168101906001600160401b038211908210176101e357604052565b634e487b7160e01b5f52604160045260245ffd5b51906001600160a01b03821682036101bc57565b908151602081105f14610285575090601f815111610245576020815191015160208210610236571790565b5f198260200360031b1b161790565b604460209160405192839163305a27a960e01b83528160048401528051918291826024860152018484015e5f828201840152601f01601f19168101030190fd5b6001600160401b0381116101e357600254600181811c9116801561039c575b602082101461038857601f8111610355575b50602092601f82116001146102f457928192935f926102e9575b50508160011b915f199060031b1c19161760025560ff90565b015190505f806102d0565b601f1982169360025f52805f20915f5b86811061033d5750836001959610610325575b505050811b0160025560ff90565b01515f1960f88460031b161c191690555f8080610317565b91926020600181928685015181550194019201610304565b60025f52601f60205f20910160051c810190601f830160051c015b81811061037d57506102b6565b5f8155600101610370565b634e487b7160e01b5f52602260045260245ffd5b90607f16906102a4565b908151602081105f146103d1575090601f815111610245576020815191015160208210610236571790565b6001600160401b0381116101e357600354600181811c911680156104d4575b602082101461038857601f81116104a1575b50602092601f821160011461044057928192935f92610435575b50508160011b915f199060031b1c19161760035560ff90565b015190505f8061041c565b601f1982169360035f52805f20915f5b8681106104895750836001959610610471575b505050811b0160035560ff90565b01515f1960f88460031b161c191690555f8080610463565b91926020600181928685015181550194019201610450565b60035f52601f60205f20910160051c810190601f830160051c015b8181106104c95750610402565b5f81556001016104bc565b90607f16906103f056fe60806040526004361015610011575f80fd5b5f5f3560e01c80630f01b937146114f9578063150b7a02146114885780632d83549c1461134a57806331724eeb146113225780633edd9f35146111be578063572b6c051461116a5780635c975abb14611148578063686e608314610dad5780636b5e1e18146107e25780637da0a8771461079d57806384b0196e146106a1578063aadc3b7214610657578063b214faa5146102f6578063e14f5b7d1461011e578063f851a440146100f55763ff7bce23146100ca575f80fd5b346100f257806003193601126100f2576006546040516001600160a01b039091168152602090f35b80fd5b50346100f257806003193601126100f2576008546040516001600160a01b039091168152602090f35b50346100f25760203660031901126100f25760043580825260046020526040822061014761193b565b81546001600160a01b0391821691161480156102d0575b61016790611661565b600381019081549160ff8360b81c166102985760075460405163428ac57f60e01b81529290602090849060049082906001600160a01b03165afa92831561028d578693610254575b50600901918083551561021e5763ff0000ff60a01b19929092166280000160a11b179091557fc7d1b2cd4cf76e3b360b72761ab309e4fd1e3f25f3679f82e66410d221992ce5906101fe61193b565b9054604080516001600160a01b039093168352602083019190915290a280f35b60405162461bcd60e51b815260206004820152600e60248201526d4e6f2061726269747261746f727360901b6044820152606490fd5b9092506020813d602011610285575b8161027060209383611699565b8101031261028157519160096101af565b8580fd5b3d9150610263565b6040513d88823e3d90fd5b60405162461bcd60e51b815260206004820152601060248201526f105b1c9958591e48191a5cdc1d5d195960821b6044820152606490fd5b506101676102dc61193b565b60018301546001600160a01b03918216911614905061015e565b5060203660031901126100f25760043561030e6117af565b61031661193b565b6006546040516372c1cc1b60e11b81526001600160a01b03928316600482018190529190921691602081602481865afa801561062d5761035e918691610638575b50156116f5565b604051632a5bb1b760e11b81526004810182905290602082602481865afa91821561062d57602092610397918791610610575b50611732565b60246040518094819363237f1a2160e01b835260048301525afa8015610605576103c89184916105e6575b50611771565b8082526004602052604082206103dc61193b565b60018201805490916001600160a01b039182169116036105b557600382019081549160ff8360b01c1661058157610412846118eb565b9283906001600160a01b0316806104bf57503403610489578260027f9d39974c480d889b2e46ed1adc6e673ef0ea9f11554437438b05a17cecbde95e955b0155805462ff00ff60a01b19166201000160a01b17905554604080516001600160a01b0390921682526020820192909252a26001815580f35b60405162461bcd60e51b815260206004820152600e60248201526d1098590811551208185b5bdd5b9d60921b6044820152606490fd5b61050b916020916104ce61193b565b6040516323b872dd60e01b81526001600160a01b0390911660048201523060248201526044810192909252909283919082908b9082906064820190565b03925af18015610576577f9d39974c480d889b2e46ed1adc6e673ef0ea9f11554437438b05a17cecbde95e958592600292610547575b50610450565b6105689060203d60201161056f575b6105608183611699565b8101906116cf565b505f610541565b503d610556565b6040513d89823e3d90fd5b60405162461bcd60e51b815260206004820152600c60248201526b105b1c9958591e481c185a5960a21b6044820152606490fd5b60405162461bcd60e51b81526020600482015260096024820152682737ba10313abcb2b960b91b6044820152606490fd5b6105ff915060203d60201161056f576105608183611699565b5f6103c2565b6040513d85823e3d90fd5b6106279150843d861161056f576105608183611699565b5f610391565b6040513d87823e3d90fd5b610651915060203d60201161056f576105608183611699565b5f610357565b50346100f25760403660031901126100f2576040610673611627565b9160043581526005602052209060018060a01b03165f52602052602060ff60405f2054166040519015158152f35b50346100f257806003193601126100f257610741906106df7f0000000000000000000000000000000000000000000000000000000000000000611994565b906107097f0000000000000000000000000000000000000000000000000000000000000000611abd565b90602061074f6040519361071d8386611699565b8385525f368137604051968796600f60f81b885260e08589015260e088019061163d565b90868203604088015261163d565b904660608601523060808601528260a086015284820360c08601528080855193848152019401925b82811061078657505050500390f35b835185528695509381019392810192600101610777565b50346100f257806003193601126100f2576040517f00000000000000000000000000000000000000000000000000000000000000006001600160a01b03168152602090f35b5034610c6d57610140366003190112610c6d576107fd611627565b604435916001600160a01b038316808403610c6d576084356001600160a01b0381169190829003610c6d5760c4356001600160a01b03811690819003610c6d5760e4359161084961193b565b6006546040516372c1cc1b60e11b81526001600160a01b03928316600482018190529190921691602081602481865afa8015610c6257610890915f916106385750156116f5565b604051632a5bb1b760e11b81526004810182905290602082602481865afa918215610c62576020926108c8915f916106105750611732565b60246040518094819363237f1a2160e01b835260048301525afa8015610c62576108f8915f916105e65750611771565b6004355f52600460205260018060a01b0360405f205416610d785760643515610d42576127106101043511610d0a5761092f61193b565b6001600160a01b0387811695911685148015610ceb575b15610caf5761010435610c71575b82610c03575b60a435420191824211610bef5760405195610240870187811067ffffffffffffffff821117610bdb576040908152908752602080880192835260643588830190815260608901948552608089018a815260a08a018b905260c08a018b905260e08a018b90526101008a018b9052426101208b01526101408a01969096526101608901969096526101808801969096526101a087018890526101c087018890526101e087018890526101043561020088015261012435610220880152600480358952909552938620855181546001600160a01b03199081166001600160a01b0392831617835595516001830180548816918316919091179055935160028201559051600382018054909516931692909217909255905190926005821015610bc7575060038301805460a08481015160c086015160e087015163ffffffff60a01b199094169590921b60ff60a01b169490941793151560a81b60ff60a81b169390931792151560b01b60ff60b01b169290921791151560b81b60ff60b81b16919091179055610100810151600480840180546001600160a01b03199081166001600160a01b03948516179091556101208401516005860155610140840151600686015561016084015160078601805490921690841617905561018083015160088501556101a083015160098501556101c0830151600a8501556101e0830151600b850155610200830151600c85015561022090920151600d90930192909255604080519383168452939091166020830152606435928201929092529035907f0dd968c277d9dc6b36b6ec2b638324c3d937882c64ca109440bc050ebf26cb0790606090a2602060405160018152f35b634e487b7160e01b81526021600452602490fd5b634e487b7160e01b89526041600452602489fd5b634e487b7160e01b87526011600452602487fd5b823b15610c6d576040516323b872dd60e01b81526001600160a01b0388166004820152306024820152604481018590525f8160648183885af18015610c6257610c4d575b5061095a565b610c5a9196505f90611699565b5f945f610c47565b6040513d5f823e3d90fd5b5f80fd5b4261012435116109545760405162461bcd60e51b815260206004820152600c60248201526b42616420646561646c696e6560a01b6044820152606490fd5b60405162461bcd60e51b815260206004820152601460248201527327b7363c9039b2b63632b91037b91030b236b4b760611b6044820152606490fd5b50610cf461193b565b6008546001600160a01b03918216911614610946565b60405162461bcd60e51b815260206004820152601060248201526f125b9d985b1a5908191a5cd8dbdd5b9d60821b6044820152606490fd5b60405162461bcd60e51b815260206004820152600e60248201526d125b9d985b1a5908185b5bdd5b9d60921b6044820152606490fd5b60405162461bcd60e51b815260206004820152600d60248201526c457363726f772065786973747360981b6044820152606490fd5b34610c6d576040366003190112610c6d57600435602435801515808203610c6d576007546001600160a01b03166020610de461193b565b604051639f6bd2a960e01b81526001600160a01b03909116600482015291829060249082905afa908115610c62575f91611129575b50156110f357825f52600460205260405f209160ff600384015460b81c16156110c157835f52600560205260405f20610e5061193b565b60018060a01b03165f5260205260ff60405f20541661109457835f52600560205260405f20610e7d61193b565b6001600160a01b03165f90815260209190915260409020805460ff191660011790551561107f57600a8201610eb281546116e7565b90555b827f3d3c0d41b9416af70d3a4a984a7d1b35c950b5ba7e61f38baa362961d4dff2e860206001600160a01b03610ee961193b565b1693604051908152a3600981015460011c906001820180921161106b57600a8101548211610fc6575050610f1b6117af565b805f526004602052610faf60405f20600381019260ff60b81b1984541684557f87a706357fd6156692da2afe6f82239426dd27f4cb9b46e0e3a1c5d308377fc86060600a840154600b850154604051916001835260208301526040820152a2805483546002830154610f9b9290916001600160a01b0390811691166117cd565b60018101546001600160a01b031630611865565b805460ff60a01b1916600360a01b17905560015f55005b600b01541015610fd257005b610fda6117af565b805f526004602052610faf60405f2061105a600382019384549060ff60b81b19821686557f87a706357fd6156692da2afe6f82239426dd27f4cb9b46e0e3a1c5d308377fc86060600a860154600b870154604051915f835260208301526040820152a260018301546002840154916001600160a01b0390811691166117cd565b80546001600160a01b031630611865565b634e487b7160e01b5f52601160045260245ffd5b600b820161108d81546116e7565b9055610eb5565b60405162461bcd60e51b8152602060048201526005602482015264159bdd195960da1b6044820152606490fd5b60405162461bcd60e51b815260206004820152600a6024820152694e6f206469737075746560b01b6044820152606490fd5b60405162461bcd60e51b815260206004820152600e60248201526d2737ba1030b93134ba3930ba37b960911b6044820152606490fd5b611142915060203d60201161056f576105608183611699565b84610e19565b34610c6d575f366003190112610c6d57602060ff600154166040519015158152f35b34610c6d576020366003190112610c6d576020611185611611565b6040517f00000000000000000000000000000000000000000000000000000000000000006001600160a01b039081169216919091148152f35b34610c6d576020366003190112610c6d576004356111da6117af565b805f526004602052600360405f206111f061193b565b81546001600160a01b039081169116811480156112fc575b61121190611661565b6001600160a01b0361122161193b565b16036112e357808201805460ff60a81b1916600160a81b1790555b015460ff8160a81c1690816112d5575b50611258575b60015f55005b5f81815260046020908152604090912080546003820180546002840180547f9410e7c5b50451e4b5bd5ce113fd48abebd7070eb9d080df08b115b7cdc41650969591946112b693610f9b92916001600160a01b0391821691166117cd565b805460ff60a01b1916600360a01b17905554604051908152a280611252565b60ff915060b01c168261124c565b808201805460ff60b01b1916600160b01b17905561123c565b5061121161130861193b565b60018401546001600160a01b039182169116149050611208565b34610c6d575f366003190112610c6d576007546040516001600160a01b039091168152602090f35b34610c6d576020366003190112610c6d576004355f52600460205260405f2060018060a01b0381541660018060a01b0360018301541660028301549260038101549360ff8560a01c1660018060a01b036004840154166005840154600685015460018060a01b0360078701541690600887015492600988015494600a89015496600b8a015498600d600c8c01549b01549b60206040519e8f908152015260408d015260018060a01b038d1660608d01526005811015611474576102409c60ff9160808e01528c60a0838360a81c1615159101528c60c0838360b01c16151591015260b81c16151560e08c01526101008b01526101208a01526101408901526101608801526101808701526101a08601526101c08501526101e0840152610200830152610220820152f35b634e487b7160e01b5f52602160045260245ffd5b34610c6d576080366003190112610c6d576114a1611611565b506114aa611627565b5060643567ffffffffffffffff8111610c6d5736602382011215610c6d57806004013567ffffffffffffffff8111610c6d5736910160240111610c6d57604051630a85bd0160e11b8152602090f35b34610c6d576020366003190112610c6d576004356115156117af565b805f52600460205260405f20600681015442106115de5780600361155392015460ff8160b01c166115b6575b5080546001600160a01b031630611865565b5f5260046020525f600d6040822082815582600182015582600282015582600382015582600482015582600582015582600682015582600782015582600882015582600982015582600a82015582600b82015582600c820155015560015f555f80f35b600182015460028301546115d89290916001600160a01b0391821691166117cd565b83611541565b60405162461bcd60e51b815260206004820152600b60248201526a139bdd08195e1c1a5c995960aa1b6044820152606490fd5b600435906001600160a01b0382168203610c6d57565b602435906001600160a01b0382168203610c6d57565b805180835260209291819084018484015e5f828201840152601f01601f1916010190565b1561166857565b60405162461bcd60e51b81526020600482015260096024820152684e6f7420706172747960b81b6044820152606490fd5b90601f8019910116810190811067ffffffffffffffff8211176116bb57604052565b634e487b7160e01b5f52604160045260245ffd5b90816020910312610c6d57518015158103610c6d5790565b5f19811461106b5760010190565b156116fc57565b60405162461bcd60e51b815260206004820152600e60248201526d20b1b1b7bab73a10333937bd32b760911b6044820152606490fd5b1561173957565b60405162461bcd60e51b815260206004820152601060248201526f12d650c81b9bdd081d995c9a599a595960821b6044820152606490fd5b1561177857565b60405162461bcd60e51b815260206004820152600f60248201526e139bc81a59195b9d1a5d1e4814d095608a1b6044820152606490fd5b60025f54146117be5760025f55565b633ee5aeb560e01b5f5260045ffd5b906001600160a01b03168061180857505f8080938193829082156117fe575b6001600160a01b031690f115610c6257565b6108fc91506117ec565b60405163a9059cbb60e01b81526001600160a01b03929092166004830152602482019290925290602090829060449082905f905af18015610c625761184a5750565b6118629060203d60201161056f576105608183611699565b50565b6007830154919290916001600160a01b03169081611884575b50505050565b6008015490803b15610c6d576040516323b872dd60e01b81526001600160a01b03938416600482015293909216602484015260448301525f908290606490829084905af18015610c62576118db575b80808061187e565b5f6118e591611699565b5f6118d3565b600c810154908115158061192d575b6119075760029150015490565b600201549080820290828204148215171561106b576127109004810390811161106b5790565b50600d8101544211156118fa565b601436101580611962575b1561195e576013193601368111610c6d573560601c90565b3390565b50337f00000000000000000000000000000000000000000000000000000000000000006001600160a01b031614611946565b60ff81146119da5760ff811690601f82116119cb57604051916119b8604084611699565b6020808452838101919036833783525290565b632cd44ac360e21b5f5260045ffd5b506040515f6002548060011c9160018216918215611ab3575b602084108314611a9f578385528492908115611a805750600114611a21575b611a1e92500382611699565b90565b5060025f90815290917f405787fa12a823e0f2b7631cc41b3ba8828b3321ca811111fa75cd3aa3bb5ace5b818310611a64575050906020611a1e92820101611a12565b6020919350806001915483858801015201910190918392611a4c565b60209250611a1e94915060ff191682840152151560051b820101611a12565b634e487b7160e01b5f52602260045260245ffd5b92607f16926119f3565b60ff8114611ae15760ff811690601f82116119cb57604051916119b8604084611699565b506040515f6003548060011c9160018216918215611b83575b602084108314611a9f578385528492908115611a805750600114611b2457611a1e92500382611699565b5060035f90815290917fc2575a0e9e593c00f959f8c92f12db2869c3395a3b0502d05e2516446f71f85b5b818310611b67575050906020611a1e92820101611a12565b6020919350806001915483858801015201910190918392611b4f565b92607f1692611afa56fea2646970667358221220d2ad89a790496f6223585c486f47d6ae6cbba209953e78eafa022fb1d227dd5e64736f6c634300081c0033",
  "linkReferences": {},
  "deployedLinkReferences": {}
}