{
  "_format": "hh-sol-artifact-1",
  "contractName": "EscrowContract",
  "sourceName": "contracts/EscrowContract.sol",
  "abi": [
    {
      "inputs": [
        {
          "internalType": "address",
          "name": "_complianceManager",
          "type": "address"
        }
      ],
      "stateMutability": "nonpayable",
      "type": "constructor"
    },
    {
      "inputs": [],
      "name": "ReentrancyGuardReentrantCall",
      "type": "error"
    },
    {
      "anonymous": false,
      "inputs": [
        {
          "indexed": true,
          "internalType": "bytes32",
          "name": "invoiceId",
          "type": "bytes32"
        },
        {
          "indexed": false,
          "internalType": "address",
          "name": "buyer",
          "type": "address"
        },
        {
          "indexed": false,
          "internalType": "uint256",
          "name": "amount",
          "type": "uint256"
        }
      ],
      "name": "DepositConfirmed",
      "type": "event"
    },
    {
      "anonymous": false,
      "inputs": [
        {
          "indexed": true,
          "internalType": "bytes32",
          "name": "invoiceId",
          "type": "bytes32"
        },
        {
          "indexed": false,
          "internalType": "address",
          "name": "raisedBy",
          "type": "address"
        }
      ],
      "name": "DisputeRaised",
      "type": "event"
    },
    {
      "anonymous": false,
      "inputs": [
        {
          "indexed": true,
          "internalType": "bytes32",
          "name": "invoiceId",
          "type": "bytes32"
        },
        {
          "indexed": false,
          "internalType": "address",
          "name": "resolver",
          "type": "address"
        },
        {
          "indexed": false,
          "internalType": "bool",
          "name": "sellerWins",
          "type": "bool"
        }
      ],
      "name": "DisputeResolved",
      "type": "event"
    },
    {
      "anonymous": false,
      "inputs": [
        {
          "indexed": true,
          "internalType": "bytes32",
          "name": "invoiceId",
          "type": "bytes32"
        },
        {
          "indexed": false,
          "internalType": "address",
          "name": "seller",
          "type": "address"
        },
        {
          "indexed": false,
          "internalType": "address",
          "name": "buyer",
          "type": "address"
        },
        {
          "indexed": false,
          "internalType": "uint256",
          "name": "amount",
          "type": "uint256"
        }
      ],
      "name": "EscrowCreated",
      "type": "event"
    },
    {
      "anonymous": false,
      "inputs": [
        {
          "indexed": true,
          "internalType": "bytes32",
          "name": "invoiceId",
          "type": "bytes32"
        },
        {
          "indexed": false,
          "internalType": "uint256",
          "name": "amount",
          "type": "uint256"
        }
      ],
      "name": "EscrowReleased",
      "type": "event"
    },
    {
      "inputs": [],
      "name": "admin",
      "outputs": [
        {
          "internalType": "address",
          "name": "",
          "type": "address"
        }
      ],
      "stateMutability": "view",
      "type": "function"
    },
    {
      "inputs": [],
      "name": "complianceManager",
      "outputs": [
        {
          "internalType": "contract ComplianceManager",
          "name": "",
          "type": "address"
        }
      ],
      "stateMutability": "view",
      "type": "function"
    },
    {
      "inputs": [
        {
          "internalType": "bytes32",
          "name": "_invoiceId",
          "type": "bytes32"
        }
      ],
      "name": "confirmRelease",
      "outputs": [],
      "stateMutability": "nonpayable",
      "type": "function"
    },
    {
      "inputs": [
        {
          "internalType": "bytes32",
          "name": "_invoiceId",
          "type": "bytes32"
        },
        {
          "internalType": "address",
          "name": "_seller",
          "type": "address"
        },
        {
          "internalType": "address",
          "name": "_buyer",
          "type": "address"
        },
        {
          "internalType": "uint256",
          "name": "_amount",
          "type": "uint256"
        },
        {
          "internalType": "address",
          "name": "_token",
          "type": "address"
        },
        {
          "internalType": "uint256",
          "name": "_duration",
          "type": "uint256"
        }
      ],
      "name": "createEscrow",
      "outputs": [
        {
          "internalType": "bool",
          "name": "",
          "type": "bool"
        }
      ],
      "stateMutability": "nonpayable",
      "type": "function"
    },
    {
      "inputs": [
        {
          "internalType": "bytes32",
          "name": "_invoiceId",
          "type": "bytes32"
        },
        {
          "internalType": "uint256",
          "name": "_amount",
          "type": "uint256"
        }
      ],
      "name": "deposit",
      "outputs": [],
      "stateMutability": "nonpayable",
      "type": "function"
    },
    {
      "inputs": [
        {
          "internalType": "bytes32",
          "name": "",
          "type": "bytes32"
        }
      ],
      "name": "escrows",
      "outputs": [
        {
          "internalType": "address",
          "name": "seller",
          "type": "address"
        },
        {
          "internalType": "address",
          "name": "buyer",
          "type": "address"
        },
        {
          "internalType": "uint256",
          "name": "amount",
          "type": "uint256"
        },
        {
          "internalType": "address",
          "name": "token",
          "type": "address"
        },
        {
          "internalType": "bool",
          "name": "sellerConfirmed",
          "type": "bool"
        },
        {
          "internalType": "bool",
          "name": "buyerConfirmed",
          "type": "bool"
        },
        {
          "internalType": "bool",
          "name": "disputeRaised",
          "type": "bool"
        },
        {
          "internalType": "address",
          "name": "disputeResolver",
          "type": "address"
        },
        {
          "internalType": "uint256",
          "name": "createdAt",
          "type": "uint256"
        },
        {
          "internalType": "uint256",
          "name": "expiresAt",
          "type": "uint256"
        }
      ],
      "stateMutability": "view",
      "type": "function"
    },
    {
      "inputs": [
        {
          "internalType": "bytes32",
          "name": "_invoiceId",
          "type": "bytes32"
        }
      ],
      "name": "expireEscrow",
      "outputs": [],
      "stateMutability": "nonpayable",
      "type": "function"
    },
    {
      "inputs": [
        {
          "internalType": "bytes32",
          "name": "_invoiceId",
          "type": "bytes32"
        }
      ],
      "name": "raiseDispute",
      "outputs": [],
      "stateMutability": "nonpayable",
      "type": "function"
    },
    {
      "inputs": [
        {
          "internalType": "bytes32",
          "name": "_invoiceId",
          "type": "bytes32"
        },
        {
          "internalType": "bool",
          "name": "_sellerWins",
          "type": "bool"
        }
      ],
      "name": "resolveDispute",
      "outputs": [],
      "stateMutability": "nonpayable",
      "type": "function"
    }
  ],
  "bytecode": "0x60806040523480156200001157600080fd5b506040516200221638038062002216833981810160405281019062000037919062000132565b600160008190555033600360006101000a81548173ffffffffffffffffffffffffffffffffffffffff021916908373ffffffffffffffffffffffffffffffffffffffff16021790555080600260006101000a81548173ffffffffffffffffffffffffffffffffffffffff021916908373ffffffffffffffffffffffffffffffffffffffff1602179055505062000164565b600080fd5b600073ffffffffffffffffffffffffffffffffffffffff82169050919050565b6000620000fa82620000cd565b9050919050565b6200010c81620000ed565b81146200011857600080fd5b50565b6000815190506200012c8162000101565b92915050565b6000602082840312156200014b576200014a620000c8565b5b60006200015b848285016200011b565b91505092915050565b6120a280620001746000396000f3fe608060405234801561001057600080fd5b50600436106100935760003560e01c80633edd9f35116100665780633edd9f351461013957806343a0e3e614610155578063e14f5b7d14610171578063f851a4401461018d578063ff7bce23146101ab57610093565b80630f01b937146100985780631de26e16146100b45780632d04c1f2146100d05780632d83549c14610100575b600080fd5b6100b260048036038101906100ad91906115ab565b6101c9565b005b6100ce60048036038101906100c9919061160e565b6103a6565b005b6100ea60048036038101906100e591906116ac565b6107a3565b6040516100f79190611754565b60405180910390f35b61011a600480360381019061011591906115ab565b610b89565b6040516101309a9998979695949392919061178d565b60405180910390f35b610153600480360381019061014e91906115ab565b610c84565b005b61016f600480360381019061016a9190611855565b610e6d565b005b61018b600480360381019061018691906115ab565b6111c0565b005b61019561136e565b6040516101a29190611895565b60405180910390f35b6101b3611394565b6040516101c0919061190f565b60405180910390f35b60006001600083815260200190815260200160002090508060060154421015610227576040517f08c379a000000000000000000000000000000000000000000000000000000000815260040161021e90611987565b60405180910390fd5b8060030160149054906101000a900460ff16158061025457508060030160159054906101000a900460ff16155b610293576040517f08c379a000000000000000000000000000000000000000000000000000000000815260040161028a906119f3565b60405180910390fd5b60008160030160009054906101000a900473ffffffffffffffffffffffffffffffffffffffff1690508073ffffffffffffffffffffffffffffffffffffffff1663a9059cbb8360010160009054906101000a900473ffffffffffffffffffffffffffffffffffffffff1684600201546040518363ffffffff1660e01b815260040161031f929190611a13565b6020604051808303816000875af115801561033e573d6000803e3d6000fd5b505050506040513d601f19601f820116820180604052508101906103629190611a51565b6103a1576040517f08c379a000000000000000000000000000000000000000000000000000000000815260040161039890611aca565b60405180910390fd5b505050565b6103ae6113ba565b33600260009054906101000a900473ffffffffffffffffffffffffffffffffffffffff1673ffffffffffffffffffffffffffffffffffffffff1663e5839836826040518263ffffffff1660e01b815260040161040a9190611895565b602060405180830381865afa158015610427573d6000803e3d6000fd5b505050506040513d601f19601f8201168201806040525081019061044b9190611a51565b1561048b576040517f08c379a000000000000000000000000000000000000000000000000000000000815260040161048290611b36565b60405180910390fd5b600260009054906101000a900473ffffffffffffffffffffffffffffffffffffffff1673ffffffffffffffffffffffffffffffffffffffff166354b7636e826040518263ffffffff1660e01b81526004016104e69190611895565b602060405180830381865afa158015610503573d6000803e3d6000fd5b505050506040513d601f19601f820116820180604052508101906105279190611a51565b610566576040517f08c379a000000000000000000000000000000000000000000000000000000000815260040161055d90611ba2565b60405180910390fd5b60006001600085815260200190815260200160002090503373ffffffffffffffffffffffffffffffffffffffff168160010160009054906101000a900473ffffffffffffffffffffffffffffffffffffffff1673ffffffffffffffffffffffffffffffffffffffff161461060f576040517f08c379a000000000000000000000000000000000000000000000000000000000815260040161060690611c0e565b60405180910390fd5b80600201548314610655576040517f08c379a000000000000000000000000000000000000000000000000000000000815260040161064c90611c7a565b60405180910390fd5b60008160030160009054906101000a900473ffffffffffffffffffffffffffffffffffffffff1690508073ffffffffffffffffffffffffffffffffffffffff166323b872dd3330876040518463ffffffff1660e01b81526004016106bb93929190611c9a565b6020604051808303816000875af11580156106da573d6000803e3d6000fd5b505050506040513d601f19601f820116820180604052508101906106fe9190611a51565b61073d576040517f08c379a000000000000000000000000000000000000000000000000000000000815260040161073490611d1d565b60405180910390fd5b60018260030160156101000a81548160ff021916908315150217905550847f9d39974c480d889b2e46ed1adc6e673ef0ea9f11554437438b05a17cecbde95e338660405161078c929190611a13565b60405180910390a250505061079f611400565b5050565b6000600360009054906101000a900473ffffffffffffffffffffffffffffffffffffffff1673ffffffffffffffffffffffffffffffffffffffff163373ffffffffffffffffffffffffffffffffffffffff1614610835576040517f08c379a000000000000000000000000000000000000000000000000000000000815260040161082c90611d89565b60405180910390fd5b600073ffffffffffffffffffffffffffffffffffffffff166001600089815260200190815260200160002060000160009054906101000a900473ffffffffffffffffffffffffffffffffffffffff1673ffffffffffffffffffffffffffffffffffffffff16146108da576040517f08c379a00000000000000000000000000000000000000000000000000000000081526004016108d190611df5565b60405180910390fd5b6040518061014001604052808773ffffffffffffffffffffffffffffffffffffffff1681526020018673ffffffffffffffffffffffffffffffffffffffff1681526020018581526020018473ffffffffffffffffffffffffffffffffffffffff168152602001600015158152602001600015158152602001600015158152602001600073ffffffffffffffffffffffffffffffffffffffff168152602001428152602001834261098a9190611e44565b8152506001600089815260200190815260200160002060008201518160000160006101000a81548173ffffffffffffffffffffffffffffffffffffffff021916908373ffffffffffffffffffffffffffffffffffffffff16021790555060208201518160010160006101000a81548173ffffffffffffffffffffffffffffffffffffffff021916908373ffffffffffffffffffffffffffffffffffffffff1602179055506040820151816002015560608201518160030160006101000a81548173ffffffffffffffffffffffffffffffffffffffff021916908373ffffffffffffffffffffffffffffffffffffffff16021790555060808201518160030160146101000a81548160ff02191690831515021790555060a08201518160030160156101000a81548160ff02191690831515021790555060c08201518160030160166101000a81548160ff02191690831515021790555060e08201518160040160006101000a81548173ffffffffffffffffffffffffffffffffffffffff021916908373ffffffffffffffffffffffffffffffffffffffff16021790555061010082015181600501556101208201518160060155905050867f0dd968c277d9dc6b36b6ec2b638324c3d937882c64ca109440bc050ebf26cb07878787604051610b7393929190611c9a565b60405180910390a2600190509695505050505050565b60016020528060005260406000206000915090508060000160009054906101000a900473ffffffffffffffffffffffffffffffffffffffff16908060010160009054906101000a900473ffffffffffffffffffffffffffffffffffffffff16908060020154908060030160009054906101000a900473ffffffffffffffffffffffffffffffffffffffff16908060030160149054906101000a900460ff16908060030160159054906101000a900460ff16908060030160169054906101000a900460ff16908060040160009054906101000a900473ffffffffffffffffffffffffffffffffffffffff1690806005015490806006015490508a565b610c8c6113ba565b60006001600083815260200190815260200160002090508060000160009054906101000a900473ffffffffffffffffffffffffffffffffffffffff1673ffffffffffffffffffffffffffffffffffffffff163373ffffffffffffffffffffffffffffffffffffffff161480610d5057508060010160009054906101000a900473ffffffffffffffffffffffffffffffffffffffff1673ffffffffffffffffffffffffffffffffffffffff163373ffffffffffffffffffffffffffffffffffffffff16145b610d8f576040517f08c379a0000000000000000000000000000000000000000000000000000000008152600401610d8690611ec4565b60405180910390fd5b8060000160009054906101000a900473ffffffffffffffffffffffffffffffffffffffff1673ffffffffffffffffffffffffffffffffffffffff163373ffffffffffffffffffffffffffffffffffffffff1603610e085760018160030160146101000a81548160ff021916908315150217905550610e26565b60018160030160156101000a81548160ff0219169083151502179055505b8060030160149054906101000a900460ff168015610e5257508060030160159054906101000a900460ff165b15610e6157610e608261140a565b5b50610e6a611400565b50565b600360009054906101000a900473ffffffffffffffffffffffffffffffffffffffff1673ffffffffffffffffffffffffffffffffffffffff163373ffffffffffffffffffffffffffffffffffffffff1614610efd576040517f08c379a0000000000000000000000000000000000000000000000000000000008152600401610ef490611d89565b60405180910390fd5b6000600160008481526020019081526020016000209050338160040160006101000a81548173ffffffffffffffffffffffffffffffffffffffff021916908373ffffffffffffffffffffffffffffffffffffffff16021790555081156110715760008160030160009054906101000a900473ffffffffffffffffffffffffffffffffffffffff1690508073ffffffffffffffffffffffffffffffffffffffff1663a9059cbb8360000160009054906101000a900473ffffffffffffffffffffffffffffffffffffffff1684600201546040518363ffffffff1660e01b8152600401610fe9929190611a13565b6020604051808303816000875af1158015611008573d6000803e3d6000fd5b505050506040513d601f19601f8201168201806040525081019061102c9190611a51565b61106b576040517f08c379a000000000000000000000000000000000000000000000000000000000815260040161106290611f30565b60405180910390fd5b50611181565b60008160030160009054906101000a900473ffffffffffffffffffffffffffffffffffffffff1690508073ffffffffffffffffffffffffffffffffffffffff1663a9059cbb8360010160009054906101000a900473ffffffffffffffffffffffffffffffffffffffff1684600201546040518363ffffffff1660e01b81526004016110fd929190611a13565b6020604051808303816000875af115801561111c573d6000803e3d6000fd5b505050506040513d601f19601f820116820180604052508101906111409190611a51565b61117f576040517f08c379a000000000000000000000000000000000000000000000000000000000815260040161117690611f9c565b60405180910390fd5b505b827fc309ec0196a2aa529cef11b186ef4a3a04c52a9075daf8be91c7c95ede0fdc8733846040516111b3929190611fbc565b60405180910390a2505050565b60006001600083815260200190815260200160002090508060000160009054906101000a900473ffffffffffffffffffffffffffffffffffffffff1673ffffffffffffffffffffffffffffffffffffffff163373ffffffffffffffffffffffffffffffffffffffff16148061128457508060010160009054906101000a900473ffffffffffffffffffffffffffffffffffffffff1673ffffffffffffffffffffffffffffffffffffffff163373ffffffffffffffffffffffffffffffffffffffff16145b6112c3576040517f08c379a00000000000000000000000000000000000000000000000000000000081526004016112ba90611ec4565b60405180910390fd5b8060030160169054906101000a900460ff1615611315576040517f08c379a000000000000000000000000000000000000000000000000000000000815260040161130c90612031565b60405180910390fd5b60018160030160166101000a81548160ff021916908315150217905550817fa71ec46ab116e07f9703467558af33f82718419b32e2acafa86c65587891e3cc336040516113629190611895565b60405180910390a25050565b600360009054906101000a900473ffffffffffffffffffffffffffffffffffffffff1681565b600260009054906101000a900473ffffffffffffffffffffffffffffffffffffffff1681565b6002600054036113f6576040517f3ee5aeb500000000000000000000000000000000000000000000000000000000815260040160405180910390fd5b6002600081905550565b6001600081905550565b600060016000838152602001908152602001600020905060008160030160009054906101000a900473ffffffffffffffffffffffffffffffffffffffff1690508073ffffffffffffffffffffffffffffffffffffffff1663a9059cbb8360000160009054906101000a900473ffffffffffffffffffffffffffffffffffffffff1684600201546040518363ffffffff1660e01b81526004016114ad929190611a13565b6020604051808303816000875af11580156114cc573d6000803e3d6000fd5b505050506040513d601f19601f820116820180604052508101906114f09190611a51565b61152f576040517f08c379a000000000000000000000000000000000000000000000000000000000815260040161152690611d1d565b60405180910390fd5b827f9410e7c5b50451e4b5bd5ce113fd48abebd7070eb9d080df08b115b7cdc4165083600201546040516115639190612051565b60405180910390a2505050565b600080fd5b6000819050919050565b61158881611575565b811461159357600080fd5b50565b6000813590506115a58161157f565b92915050565b6000602082840312156115c1576115c0611570565b5b60006115cf84828501611596565b91505092915050565b6000819050919050565b6115eb816115d8565b81146115f657600080fd5b50565b600081359050611608816115e2565b92915050565b6000806040838503121561162557611624611570565b5b600061163385828601611596565b9250506020611644858286016115f9565b9150509250929050565b600073ffffffffffffffffffffffffffffffffffffffff82169050919050565b60006116798261164e565b9050919050565b6116898161166e565b811461169457600080fd5b50565b6000813590506116a681611680565b92915050565b60008060008060008060c087890312156116c9576116c8611570565b5b60006116d789828a01611596565b96505060206116e889828a01611697565b95505060406116f989828a01611697565b945050606061170a89828a016115f9565b935050608061171b89828a01611697565b92505060a061172c89828a016115f9565b9150509295509295509295565b60008115159050919050565b61174e81611739565b82525050565b60006020820190506117696000830184611745565b92915050565b6117788161166e565b82525050565b611787816115d8565b82525050565b6000610140820190506117a3600083018d61176f565b6117b0602083018c61176f565b6117bd604083018b61177e565b6117ca606083018a61176f565b6117d76080830189611745565b6117e460a0830188611745565b6117f160c0830187611745565b6117fe60e083018661176f565b61180c61010083018561177e565b61181a61012083018461177e565b9b9a5050505050505050505050565b61183281611739565b811461183d57600080fd5b50565b60008135905061184f81611829565b92915050565b6000806040838503121561186c5761186b611570565b5b600061187a85828601611596565b925050602061188b85828601611840565b9150509250929050565b60006020820190506118aa600083018461176f565b92915050565b6000819050919050565b60006118d56118d06118cb8461164e565b6118b0565b61164e565b9050919050565b60006118e7826118ba565b9050919050565b60006118f9826118dc565b9050919050565b611909816118ee565b82525050565b60006020820190506119246000830184611900565b92915050565b600082825260208201905092915050565b7f457363726f77206e6f7420657870697265640000000000000000000000000000600082015250565b600061197160128361192a565b915061197c8261193b565b602082019050919050565b600060208201905081810360008301526119a081611964565b9050919050565b7f416c726561647920636f6e6669726d6564000000000000000000000000000000600082015250565b60006119dd60118361192a565b91506119e8826119a7565b602082019050919050565b60006020820190508181036000830152611a0c816119d0565b9050919050565b6000604082019050611a28600083018561176f565b611a35602083018461177e565b9392505050565b600081519050611a4b81611829565b92915050565b600060208284031215611a6757611a66611570565b5b6000611a7584828501611a3c565b91505092915050565b7f526566756e64206661696c656400000000000000000000000000000000000000600082015250565b6000611ab4600d8361192a565b9150611abf82611a7e565b602082019050919050565b60006020820190508181036000830152611ae381611aa7565b9050919050565b7f4163636f756e742066726f7a656e000000000000000000000000000000000000600082015250565b6000611b20600e8361192a565b9150611b2b82611aea565b602082019050919050565b60006020820190508181036000830152611b4f81611b13565b9050919050565b7f4b5943206e6f7420766572696669656400000000000000000000000000000000600082015250565b6000611b8c60108361192a565b9150611b9782611b56565b602082019050919050565b60006020820190508181036000830152611bbb81611b7f565b9050919050565b7f4e6f742074686520627579657200000000000000000000000000000000000000600082015250565b6000611bf8600d8361192a565b9150611c0382611bc2565b602082019050919050565b60006020820190508181036000830152611c2781611beb565b9050919050565b7f496e636f727265637420616d6f756e7400000000000000000000000000000000600082015250565b6000611c6460108361192a565b9150611c6f82611c2e565b602082019050919050565b60006020820190508181036000830152611c9381611c57565b9050919050565b6000606082019050611caf600083018661176f565b611cbc602083018561176f565b611cc9604083018461177e565b949350505050565b7f5472616e73666572206661696c65640000000000000000000000000000000000600082015250565b6000611d07600f8361192a565b9150611d1282611cd1565b602082019050919050565b60006020820190508181036000830152611d3681611cfa565b9050919050565b7f4e6f742061646d696e0000000000000000000000000000000000000000000000600082015250565b6000611d7360098361192a565b9150611d7e82611d3d565b602082019050919050565b60006020820190508181036000830152611da281611d66565b9050919050565b7f457363726f7720616c7265616479206578697374730000000000000000000000600082015250565b6000611ddf60158361192a565b9150611dea82611da9565b602082019050919050565b60006020820190508181036000830152611e0e81611dd2565b9050919050565b7f4e487b7100000000000000000000000000000000000000000000000000000000600052601160045260246000fd5b6000611e4f826115d8565b9150611e5a836115d8565b9250828201905080821115611e7257611e71611e15565b5b92915050565b7f4e6f74206120706172747920746f207468697320657363726f77000000000000600082015250565b6000611eae601a8361192a565b9150611eb982611e78565b602082019050919050565b60006020820190508181036000830152611edd81611ea1565b9050919050565b7f5472616e7366657220746f2073656c6c6572206661696c656400000000000000600082015250565b6000611f1a60198361192a565b9150611f2582611ee4565b602082019050919050565b60006020820190508181036000830152611f4981611f0d565b9050919050565b7f5472616e7366657220746f206275796572206661696c65640000000000000000600082015250565b6000611f8660188361192a565b9150611f9182611f50565b602082019050919050565b60006020820190508181036000830152611fb581611f79565b9050919050565b6000604082019050611fd1600083018561176f565b611fde6020830184611745565b9392505050565b7f4469737075746520616c72656164792072616973656400000000000000000000600082015250565b600061201b60168361192a565b915061202682611fe5565b602082019050919050565b6000602082019050818103600083015261204a8161200e565b9050919050565b6000602082019050612066600083018461177e565b9291505056fea26469706673582212202a0d86e84a0dc4572edc6eeba02d324af2bc88ffa09496116be7ae2b35d700a764736f6c63430008140033",
  "linkReferences": {},
  "deployedLinkReferences": {}
}