{
  "_format": "hh-sol-artifact-1",
  "contractName": "EscrowContract",
  "sourceName": "contracts/EscrowContract.sol",
  "abi": [
    {
      "inputs": [
        {
          "internalType": "address",
          "name": "_complianceManager",
          "type": "address"
        }
      ],
      "stateMutability": "nonpayable",
      "type": "constructor"
    },
    {
      "inputs": [],
      "name": "ReentrancyGuardReentrantCall",
      "type": "error"
    },
    {
      "anonymous": false,
      "inputs": [
        {
          "indexed": true,
          "internalType": "bytes32",
          "name": "invoiceId",
          "type": "bytes32"
        },
        {
          "indexed": false,
          "internalType": "address",
          "name": "buyer",
          "type": "address"
        },
        {
          "indexed": false,
          "internalType": "uint256",
          "name": "amount",
          "type": "uint256"
        }
      ],
      "name": "DepositConfirmed",
      "type": "event"
    },
    {
      "anonymous": false,
      "inputs": [
        {
          "indexed": true,
          "internalType": "bytes32",
          "name": "invoiceId",
          "type": "bytes32"
        },
        {
          "indexed": false,
          "internalType": "address",
          "name": "raisedBy",
          "type": "address"
        }
      ],
      "name": "DisputeRaised",
      "type": "event"
    },
    {
      "anonymous": false,
      "inputs": [
        {
          "indexed": true,
          "internalType": "bytes32",
          "name": "invoiceId",
          "type": "bytes32"
        },
        {
          "indexed": false,
          "internalType": "address",
          "name": "resolver",
          "type": "address"
        },
        {
          "indexed": false,
          "internalType": "bool",
          "name": "sellerWins",
          "type": "bool"
        }
      ],
      "name": "DisputeResolved",
      "type": "event"
    },
    {
      "anonymous": false,
      "inputs": [
        {
          "indexed": true,
          "internalType": "bytes32",
          "name": "invoiceId",
          "type": "bytes32"
        },
        {
          "indexed": false,
          "internalType": "address",
          "name": "seller",
          "type": "address"
        },
        {
          "indexed": false,
          "internalType": "address",
          "name": "buyer",
          "type": "address"
        },
        {
          "indexed": false,
          "internalType": "uint256",
          "name": "amount",
          "type": "uint256"
        }
      ],
      "name": "EscrowCreated",
      "type": "event"
    },
    {
      "anonymous": false,
      "inputs": [
        {
          "indexed": true,
          "internalType": "bytes32",
          "name": "invoiceId",
          "type": "bytes32"
        },
        {
          "indexed": false,
          "internalType": "uint256",
          "name": "amount",
          "type": "uint256"
        }
      ],
      "name": "EscrowReleased",
      "type": "event"
    },
    {
      "inputs": [],
      "name": "admin",
      "outputs": [
        {
          "internalType": "address",
          "name": "",
          "type": "address"
        }
      ],
      "stateMutability": "view",
      "type": "function"
    },
    {
      "inputs": [],
      "name": "complianceManager",
      "outputs": [
        {
          "internalType": "contract ComplianceManager",
          "name": "",
          "type": "address"
        }
      ],
      "stateMutability": "view",
      "type": "function"
    },
    {
      "inputs": [
        {
          "internalType": "bytes32",
          "name": "_invoiceId",
          "type": "bytes32"
        }
      ],
      "name": "confirmRelease",
      "outputs": [],
      "stateMutability": "nonpayable",
      "type": "function"
    },
    {
      "inputs": [
        {
          "internalType": "bytes32",
          "name": "_invoiceId",
          "type": "bytes32"
        },
        {
          "internalType": "address",
          "name": "_seller",
          "type": "address"
        },
        {
          "internalType": "address",
          "name": "_buyer",
          "type": "address"
        },
        {
          "internalType": "uint256",
          "name": "_amount",
          "type": "uint256"
        },
        {
          "internalType": "address",
          "name": "_token",
          "type": "address"
        },
        {
          "internalType": "uint256",
          "name": "_duration",
          "type": "uint256"
        }
      ],
      "name": "createEscrow",
      "outputs": [
        {
          "internalType": "bool",
          "name": "",
          "type": "bool"
        }
      ],
      "stateMutability": "nonpayable",
      "type": "function"
    },
    {
      "inputs": [
        {
          "internalType": "bytes32",
          "name": "_invoiceId",
          "type": "bytes32"
        },
        {
          "internalType": "uint256",
          "name": "_amount",
          "type": "uint256"
        }
      ],
      "name": "deposit",
      "outputs": [],
      "stateMutability": "nonpayable",
      "type": "function"
    },
    {
      "inputs": [
        {
          "internalType": "bytes32",
          "name": "",
          "type": "bytes32"
        }
      ],
      "name": "escrows",
      "outputs": [
        {
          "internalType": "address",
          "name": "seller",
          "type": "address"
        },
        {
          "internalType": "address",
          "name": "buyer",
          "type": "address"
        },
        {
          "internalType": "uint256",
          "name": "amount",
          "type": "uint256"
        },
        {
          "internalType": "address",
          "name": "token",
          "type": "address"
        },
        {
          "internalType": "bool",
          "name": "sellerConfirmed",
          "type": "bool"
        },
        {
          "internalType": "bool",
          "name": "buyerConfirmed",
          "type": "bool"
        },
        {
          "internalType": "bool",
          "name": "disputeRaised",
          "type": "bool"
        },
        {
          "internalType": "address",
          "name": "disputeResolver",
          "type": "address"
        },
        {
          "internalType": "uint256",
          "name": "createdAt",
          "type": "uint256"
        },
        {
          "internalType": "uint256",
          "name": "expiresAt",
          "type": "uint256"
        }
      ],
      "stateMutability": "view",
      "type": "function"
    },
    {
      "inputs": [
        {
          "internalType": "bytes32",
          "name": "_invoiceId",
          "type": "bytes32"
        }
      ],
      "name": "expireEscrow",
      "outputs": [],
      "stateMutability": "nonpayable",
      "type": "function"
    },
    {
      "inputs": [
        {
          "internalType": "bytes32",
          "name": "_invoiceId",
          "type": "bytes32"
        }
      ],
      "name": "raiseDispute",
      "outputs": [],
      "stateMutability": "nonpayable",
      "type": "function"
    },
    {
      "inputs": [
        {
          "internalType": "bytes32",
          "name": "_invoiceId",
          "type": "bytes32"
        },
        {
          "internalType": "bool",
          "name": "_sellerWins",
          "type": "bool"
        }
      ],
      "name": "resolveDispute",
      "outputs": [],
      "stateMutability": "nonpayable",
      "type": "function"
    }
  ],
  "bytecode": "0x60806040523480156200001157600080fd5b50604051620022d3380380620022d3833981810160405281019062000037919062000132565b600160008190555033600360006101000a81548173ffffffffffffffffffffffffffffffffffffffff021916908373ffffffffffffffffffffffffffffffffffffffff16021790555080600260006101000a81548173ffffffffffffffffffffffffffffffffffffffff021916908373ffffffffffffffffffffffffffffffffffffffff1602179055505062000164565b600080fd5b600073ffffffffffffffffffffffffffffffffffffffff82169050919050565b6000620000fa82620000cd565b9050919050565b6200010c81620000ed565b81146200011857600080fd5b50565b6000815190506200012c8162000101565b92915050565b6000602082840312156200014b576200014a620000c8565b5b60006200015b848285016200011b565b91505092915050565b61215f80620001746000396000f3fe608060405234801561001057600080fd5b50600436106100935760003560e01c80633edd9f35116100665780633edd9f351461013957806343a0e3e614610155578063e14f5b7d14610171578063f851a4401461018d578063ff7bce23146101ab57610093565b80630f01b937146100985780631de26e16146100b45780632d04c1f2146100d05780632d83549c14610100575b600080fd5b6100b260048036038101906100ad91906115fc565b6101c9565b005b6100ce60048036038101906100c9919061165f565b6103a6565b005b6100ea60048036038101906100e591906116fd565b6107a3565b6040516100f791906117a5565b60405180910390f35b61011a600480360381019061011591906115fc565b610b89565b6040516101309a999897969594939291906117de565b60405180910390f35b610153600480360381019061014e91906115fc565b610c84565b005b61016f600480360381019061016a91906118a6565b610e6d565b005b61018b600480360381019061018691906115fc565b611211565b005b6101956113bf565b6040516101a291906118e6565b60405180910390f35b6101b36113e5565b6040516101c09190611960565b60405180910390f35b60006001600083815260200190815260200160002090508060060154421015610227576040517f08c379a000000000000000000000000000000000000000000000000000000000815260040161021e906119d8565b60405180910390fd5b8060030160149054906101000a900460ff16158061025457508060030160159054906101000a900460ff16155b610293576040517f08c379a000000000000000000000000000000000000000000000000000000000815260040161028a90611a44565b60405180910390fd5b60008160030160009054906101000a900473ffffffffffffffffffffffffffffffffffffffff1690508073ffffffffffffffffffffffffffffffffffffffff1663a9059cbb8360010160009054906101000a900473ffffffffffffffffffffffffffffffffffffffff1684600201546040518363ffffffff1660e01b815260040161031f929190611a64565b6020604051808303816000875af115801561033e573d6000803e3d6000fd5b505050506040513d601f19601f820116820180604052508101906103629190611aa2565b6103a1576040517f08c379a000000000000000000000000000000000000000000000000000000000815260040161039890611b1b565b60405180910390fd5b505050565b6103ae61140b565b33600260009054906101000a900473ffffffffffffffffffffffffffffffffffffffff1673ffffffffffffffffffffffffffffffffffffffff1663e5839836826040518263ffffffff1660e01b815260040161040a91906118e6565b602060405180830381865afa158015610427573d6000803e3d6000fd5b505050506040513d601f19601f8201168201806040525081019061044b9190611aa2565b1561048b576040517f08c379a000000000000000000000000000000000000000000000000000000000815260040161048290611b87565b60405180910390fd5b600260009054906101000a900473ffffffffffffffffffffffffffffffffffffffff1673ffffffffffffffffffffffffffffffffffffffff166354b7636e826040518263ffffffff1660e01b81526004016104e691906118e6565b602060405180830381865afa158015610503573d6000803e3d6000fd5b505050506040513d601f19601f820116820180604052508101906105279190611aa2565b610566576040517f08c379a000000000000000000000000000000000000000000000000000000000815260040161055d90611bf3565b60405180910390fd5b60006001600085815260200190815260200160002090503373ffffffffffffffffffffffffffffffffffffffff168160010160009054906101000a900473ffffffffffffffffffffffffffffffffffffffff1673ffffffffffffffffffffffffffffffffffffffff161461060f576040517f08c379a000000000000000000000000000000000000000000000000000000000815260040161060690611c5f565b60405180910390fd5b80600201548314610655576040517f08c379a000000000000000000000000000000000000000000000000000000000815260040161064c90611ccb565b60405180910390fd5b60008160030160009054906101000a900473ffffffffffffffffffffffffffffffffffffffff1690508073ffffffffffffffffffffffffffffffffffffffff166323b872dd3330876040518463ffffffff1660e01b81526004016106bb93929190611ceb565b6020604051808303816000875af11580156106da573d6000803e3d6000fd5b505050506040513d601f19601f820116820180604052508101906106fe9190611aa2565b61073d576040517f08c379a000000000000000000000000000000000000000000000000000000000815260040161073490611d6e565b60405180910390fd5b60018260030160156101000a81548160ff021916908315150217905550847f9d39974c480d889b2e46ed1adc6e673ef0ea9f11554437438b05a17cecbde95e338660405161078c929190611a64565b60405180910390a250505061079f611451565b5050565b6000600360009054906101000a900473ffffffffffffffffffffffffffffffffffffffff1673ffffffffffffffffffffffffffffffffffffffff163373ffffffffffffffffffffffffffffffffffffffff1614610835576040517f08c379a000000000000000000000000000000000000000000000000000000000815260040161082c90611dda565b60405180910390fd5b600073ffffffffffffffffffffffffffffffffffffffff166001600089815260200190815260200160002060000160009054906101000a900473ffffffffffffffffffffffffffffffffffffffff1673ffffffffffffffffffffffffffffffffffffffff16146108da576040517f08c379a00000000000000000000000000000000000000000000000000000000081526004016108d190611e46565b60405180910390fd5b6040518061014001604052808773ffffffffffffffffffffffffffffffffffffffff1681526020018673ffffffffffffffffffffffffffffffffffffffff1681526020018581526020018473ffffffffffffffffffffffffffffffffffffffff168152602001600015158152602001600015158152602001600015158152602001600073ffffffffffffffffffffffffffffffffffffffff168152602001428152602001834261098a9190611e95565b8152506001600089815260200190815260200160002060008201518160000160006101000a81548173ffffffffffffffffffffffffffffffffffffffff021916908373ffffffffffffffffffffffffffffffffffffffff16021790555060208201518160010160006101000a81548173ffffffffffffffffffffffffffffffffffffffff021916908373ffffffffffffffffffffffffffffffffffffffff1602179055506040820151816002015560608201518160030160006101000a81548173ffffffffffffffffffffffffffffffffffffffff021916908373ffffffffffffffffffffffffffffffffffffffff16021790555060808201518160030160146101000a81548160ff02191690831515021790555060a08201518160030160156101000a81548160ff02191690831515021790555060c08201518160030160166101000a81548160ff02191690831515021790555060e08201518160040160006101000a81548173ffffffffffffffffffffffffffffffffffffffff021916908373ffffffffffffffffffffffffffffffffffffffff16021790555061010082015181600501556101208201518160060155905050867f0dd968c277d9dc6b36b6ec2b638324c3d937882c64ca109440bc050ebf26cb07878787604051610b7393929190611ceb565b60405180910390a2600190509695505050505050565b60016020528060005260406000206000915090508060000160009054906101000a900473ffffffffffffffffffffffffffffffffffffffff16908060010160009054906101000a900473ffffffffffffffffffffffffffffffffffffffff16908060020154908060030160009054906101000a900473ffffffffffffffffffffffffffffffffffffffff16908060030160149054906101000a900460ff16908060030160159054906101000a900460ff16908060030160169054906101000a900460ff16908060040160009054906101000a900473ffffffffffffffffffffffffffffffffffffffff1690806005015490806006015490508a565b610c8c61140b565b60006001600083815260200190815260200160002090508060000160009054906101000a900473ffffffffffffffffffffffffffffffffffffffff1673ffffffffffffffffffffffffffffffffffffffff163373ffffffffffffffffffffffffffffffffffffffff161480610d5057508060010160009054906101000a900473ffffffffffffffffffffffffffffffffffffffff1673ffffffffffffffffffffffffffffffffffffffff163373ffffffffffffffffffffffffffffffffffffffff16145b610d8f576040517f08c379a0000000000000000000000000000000000000000000000000000000008152600401610d8690611f15565b60405180910390fd5b8060000160009054906101000a900473ffffffffffffffffffffffffffffffffffffffff1673ffffffffffffffffffffffffffffffffffffffff163373ffffffffffffffffffffffffffffffffffffffff1603610e085760018160030160146101000a81548160ff021916908315150217905550610e26565b60018160030160156101000a81548160ff0219169083151502179055505b8060030160149054906101000a900460ff168015610e5257508060030160159054906101000a900460ff165b15610e6157610e608261145b565b5b50610e6a611451565b50565b600360009054906101000a900473ffffffffffffffffffffffffffffffffffffffff1673ffffffffffffffffffffffffffffffffffffffff163373ffffffffffffffffffffffffffffffffffffffff1614610efd576040517f08c379a0000000000000000000000000000000000000000000000000000000008152600401610ef490611dda565b60405180910390fd5b60006001600084815260200190815260200160002090508060030160169054906101000a900460ff16610f65576040517f08c379a0000000000000000000000000000000000000000000000000000000008152600401610f5c90611f81565b60405180910390fd5b338160040160006101000a81548173ffffffffffffffffffffffffffffffffffffffff021916908373ffffffffffffffffffffffffffffffffffffffff16021790555081156110c25760008160030160009054906101000a900473ffffffffffffffffffffffffffffffffffffffff1690508073ffffffffffffffffffffffffffffffffffffffff1663a9059cbb8360000160009054906101000a900473ffffffffffffffffffffffffffffffffffffffff1684600201546040518363ffffffff1660e01b815260040161103a929190611a64565b6020604051808303816000875af1158015611059573d6000803e3d6000fd5b505050506040513d601f19601f8201168201806040525081019061107d9190611aa2565b6110bc576040517f08c379a00000000000000000000000000000000000000000000000000000000081526004016110b390611fed565b60405180910390fd5b506111d2565b60008160030160009054906101000a900473ffffffffffffffffffffffffffffffffffffffff1690508073ffffffffffffffffffffffffffffffffffffffff1663a9059cbb8360010160009054906101000a900473ffffffffffffffffffffffffffffffffffffffff1684600201546040518363ffffffff1660e01b815260040161114e929190611a64565b6020604051808303816000875af115801561116d573d6000803e3d6000fd5b505050506040513d601f19601f820116820180604052508101906111919190611aa2565b6111d0576040517f08c379a00000000000000000000000000000000000000000000000000000000081526004016111c790612059565b60405180910390fd5b505b827fc309ec0196a2aa529cef11b186ef4a3a04c52a9075daf8be91c7c95ede0fdc873384604051611204929190612079565b60405180910390a2505050565b60006001600083815260200190815260200160002090508060000160009054906101000a900473ffffffffffffffffffffffffffffffffffffffff1673ffffffffffffffffffffffffffffffffffffffff163373ffffffffffffffffffffffffffffffffffffffff1614806112d557508060010160009054906101000a900473ffffffffffffffffffffffffffffffffffffffff1673ffffffffffffffffffffffffffffffffffffffff163373ffffffffffffffffffffffffffffffffffffffff16145b611314576040517f08c379a000000000000000000000000000000000000000000000000000000000815260040161130b90611f15565b60405180910390fd5b8060030160169054906101000a900460ff1615611366576040517f08c379a000000000000000000000000000000000000000000000000000000000815260040161135d906120ee565b60405180910390fd5b60018160030160166101000a81548160ff021916908315150217905550817fa71ec46ab116e07f9703467558af33f82718419b32e2acafa86c65587891e3cc336040516113b391906118e6565b60405180910390a25050565b600360009054906101000a900473ffffffffffffffffffffffffffffffffffffffff1681565b600260009054906101000a900473ffffffffffffffffffffffffffffffffffffffff1681565b600260005403611447576040517f3ee5aeb500000000000000000000000000000000000000000000000000000000815260040160405180910390fd5b6002600081905550565b6001600081905550565b600060016000838152602001908152602001600020905060008160030160009054906101000a900473ffffffffffffffffffffffffffffffffffffffff1690508073ffffffffffffffffffffffffffffffffffffffff1663a9059cbb8360000160009054906101000a900473ffffffffffffffffffffffffffffffffffffffff1684600201546040518363ffffffff1660e01b81526004016114fe929190611a64565b6020604051808303816000875af115801561151d573d6000803e3d6000fd5b505050506040513d601f19601f820116820180604052508101906115419190611aa2565b611580576040517f08c379a000000000000000000000000000000000000000000000000000000000815260040161157790611d6e565b60405180910390fd5b827f9410e7c5b50451e4b5bd5ce113fd48abebd7070eb9d080df08b115b7cdc4165083600201546040516115b4919061210e565b60405180910390a2505050565b600080fd5b6000819050919050565b6115d9816115c6565b81146115e457600080fd5b50565b6000813590506115f6816115d0565b92915050565b600060208284031215611612576116116115c1565b5b6000611620848285016115e7565b91505092915050565b6000819050919050565b61163c81611629565b811461164757600080fd5b50565b60008135905061165981611633565b92915050565b60008060408385031215611676576116756115c1565b5b6000611684858286016115e7565b92505060206116958582860161164a565b9150509250929050565b600073ffffffffffffffffffffffffffffffffffffffff82169050919050565b60006116ca8261169f565b9050919050565b6116da816116bf565b81146116e557600080fd5b50565b6000813590506116f7816116d1565b92915050565b60008060008060008060c0878903121561171a576117196115c1565b5b600061172889828a016115e7565b965050602061173989828a016116e8565b955050604061174a89828a016116e8565b945050606061175b89828a0161164a565b935050608061176c89828a016116e8565b92505060a061177d89828a0161164a565b9150509295509295509295565b60008115159050919050565b61179f8161178a565b82525050565b60006020820190506117ba6000830184611796565b92915050565b6117c9816116bf565b82525050565b6117d881611629565b82525050565b6000610140820190506117f4600083018d6117c0565b611801602083018c6117c0565b61180e604083018b6117cf565b61181b606083018a6117c0565b6118286080830189611796565b61183560a0830188611796565b61184260c0830187611796565b61184f60e08301866117c0565b61185d6101008301856117cf565b61186b6101208301846117cf565b9b9a5050505050505050505050565b6118838161178a565b811461188e57600080fd5b50565b6000813590506118a08161187a565b92915050565b600080604083850312156118bd576118bc6115c1565b5b60006118cb858286016115e7565b92505060206118dc85828601611891565b9150509250929050565b60006020820190506118fb60008301846117c0565b92915050565b6000819050919050565b600061192661192161191c8461169f565b611901565b61169f565b9050919050565b60006119388261190b565b9050919050565b600061194a8261192d565b9050919050565b61195a8161193f565b82525050565b60006020820190506119756000830184611951565b92915050565b600082825260208201905092915050565b7f457363726f77206e6f7420657870697265640000000000000000000000000000600082015250565b60006119c260128361197b565b91506119cd8261198c565b602082019050919050565b600060208201905081810360008301526119f1816119b5565b9050919050565b7f416c726561647920636f6e6669726d6564000000000000000000000000000000600082015250565b6000611a2e60118361197b565b9150611a39826119f8565b602082019050919050565b60006020820190508181036000830152611a5d81611a21565b9050919050565b6000604082019050611a7960008301856117c0565b611a8660208301846117cf565b9392505050565b600081519050611a9c8161187a565b92915050565b600060208284031215611ab857611ab76115c1565b5b6000611ac684828501611a8d565b91505092915050565b7f526566756e64206661696c656400000000000000000000000000000000000000600082015250565b6000611b05600d8361197b565b9150611b1082611acf565b602082019050919050565b60006020820190508181036000830152611b3481611af8565b9050919050565b7f4163636f756e742066726f7a656e000000000000000000000000000000000000600082015250565b6000611b71600e8361197b565b9150611b7c82611b3b565b602082019050919050565b60006020820190508181036000830152611ba081611b64565b9050919050565b7f4b5943206e6f7420766572696669656400000000000000000000000000000000600082015250565b6000611bdd60108361197b565b9150611be882611ba7565b602082019050919050565b60006020820190508181036000830152611c0c81611bd0565b9050919050565b7f4e6f742074686520627579657200000000000000000000000000000000000000600082015250565b6000611c49600d8361197b565b9150611c5482611c13565b602082019050919050565b60006020820190508181036000830152611c7881611c3c565b9050919050565b7f496e636f727265637420616d6f756e7400000000000000000000000000000000600082015250565b6000611cb560108361197b565b9150611cc082611c7f565b602082019050919050565b60006020820190508181036000830152611ce481611ca8565b9050919050565b6000606082019050611d0060008301866117c0565b611d0d60208301856117c0565b611d1a60408301846117cf565b949350505050565b7f5472616e73666572206661696c65640000000000000000000000000000000000600082015250565b6000611d58600f8361197b565b9150611d6382611d22565b602082019050919050565b60006020820190508181036000830152611d8781611d4b565b9050919050565b7f4e6f742061646d696e0000000000000000000000000000000000000000000000600082015250565b6000611dc460098361197b565b9150611dcf82611d8e565b602082019050919050565b60006020820190508181036000830152611df381611db7565b9050919050565b7f457363726f7720616c7265616479206578697374730000000000000000000000600082015250565b6000611e3060158361197b565b9150611e3b82611dfa565b602082019050919050565b60006020820190508181036000830152611e5f81611e23565b9050919050565b7f4e487b7100000000000000000000000000000000000000000000000000000000600052601160045260246000fd5b6000611ea082611629565b9150611eab83611629565b9250828201905080821115611ec357611ec2611e66565b5b92915050565b7f4e6f74206120706172747920746f207468697320657363726f77000000000000600082015250565b6000611eff601a8361197b565b9150611f0a82611ec9565b602082019050919050565b60006020820190508181036000830152611f2e81611ef2565b9050919050565b7f4e6f206469737075746520726169736564000000000000000000000000000000600082015250565b6000611f6b60118361197b565b9150611f7682611f35565b602082019050919050565b60006020820190508181036000830152611f9a81611f5e565b9050919050565b7f5472616e7366657220746f2073656c6c6572206661696c656400000000000000600082015250565b6000611fd760198361197b565b9150611fe282611fa1565b602082019050919050565b6000602082019050818103600083015261200681611fca565b9050919050565b7f5472616e7366657220746f206275796572206661696c65640000000000000000600082015250565b600061204360188361197b565b915061204e8261200d565b602082019050919050565b6000602082019050818103600083015261207281612036565b9050919050565b600060408201905061208e60008301856117c0565b61209b6020830184611796565b9392505050565b7f4469737075746520616c72656164792072616973656400000000000000000000600082015250565b60006120d860168361197b565b91506120e3826120a2565b602082019050919050565b60006020820190508181036000830152612107816120cb565b9050919050565b600060208201905061212360008301846117cf565b9291505056fea26469706673582212204fc613e87683b1f7b72b021fa0b05243f3b01481c910553405277d48aa4d854964736f6c63430008140033",
  "linkReferences": {},
  "deployedLinkReferences": {}
}