{
  "_format": "hh-sol-artifact-1",
  "contractName": "EscrowContract",
  "sourceName": "contracts/EscrowContract.sol",
  "abi": [
    {
      "inputs": [
        {
          "internalType": "address",
          "name": "_complianceManager",
          "type": "address"
        }
      ],
      "stateMutability": "nonpayable",
      "type": "constructor"
    },
    {
      "inputs": [],
      "name": "ReentrancyGuardReentrantCall",
      "type": "error"
    },
    {
      "anonymous": false,
      "inputs": [
        {
          "indexed": true,
          "internalType": "bytes32",
          "name": "invoiceId",
          "type": "bytes32"
        },
        {
          "indexed": false,
          "internalType": "address",
          "name": "buyer",
          "type": "address"
        },
        {
          "indexed": false,
          "internalType": "uint256",
          "name": "amount",
          "type": "uint256"
        }
      ],
      "name": "DepositConfirmed",
      "type": "event"
    },
    {
      "anonymous": false,
      "inputs": [
        {
          "indexed": true,
          "internalType": "bytes32",
          "name": "invoiceId",
          "type": "bytes32"
        },
        {
          "indexed": false,
          "internalType": "address",
          "name": "raisedBy",
          "type": "address"
        }
      ],
      "name": "DisputeRaised",
      "type": "event"
    },
    {
      "anonymous": false,
      "inputs": [
        {
          "indexed": true,
          "internalType": "bytes32",
          "name": "invoiceId",
          "type": "bytes32"
        },
        {
          "indexed": false,
          "internalType": "address",
          "name": "resolver",
          "type": "address"
        },
        {
          "indexed": false,
          "internalType": "bool",
          "name": "sellerWins",
          "type": "bool"
        }
      ],
      "name": "DisputeResolved",
      "type": "event"
    },
    {
      "anonymous": false,
      "inputs": [
        {
          "indexed": true,
          "internalType": "bytes32",
          "name": "invoiceId",
          "type": "bytes32"
        },
        {
          "indexed": false,
          "internalType": "address",
          "name": "seller",
          "type": "address"
        },
        {
          "indexed": false,
          "internalType": "address",
          "name": "buyer",
          "type": "address"
        },
        {
          "indexed": false,
          "internalType": "uint256",
          "name": "amount",
          "type": "uint256"
        }
      ],
      "name": "EscrowCreated",
      "type": "event"
    },
    {
      "anonymous": false,
      "inputs": [
        {
          "indexed": true,
          "internalType": "bytes32",
          "name": "invoiceId",
          "type": "bytes32"
        },
        {
          "indexed": false,
          "internalType": "uint256",
          "name": "amount",
          "type": "uint256"
        }
      ],
      "name": "EscrowReleased",
      "type": "event"
    },
    {
      "inputs": [
        {
          "internalType": "address",
          "name": "_arbitrator",
          "type": "address"
        }
      ],
      "name": "addArbitrator",
      "outputs": [],
      "stateMutability": "nonpayable",
      "type": "function"
    },
    {
      "inputs": [],
      "name": "admin",
      "outputs": [
        {
          "internalType": "address",
          "name": "",
          "type": "address"
        }
      ],
      "stateMutability": "view",
      "type": "function"
    },
    {
      "inputs": [
        {
          "internalType": "address",
          "name": "",
          "type": "address"
        }
      ],
      "name": "arbitrators",
      "outputs": [
        {
          "internalType": "bool",
          "name": "",
          "type": "bool"
        }
      ],
      "stateMutability": "view",
      "type": "function"
    },
    {
      "inputs": [],
      "name": "complianceManager",
      "outputs": [
        {
          "internalType": "contract ComplianceManager",
          "name": "",
          "type": "address"
        }
      ],
      "stateMutability": "view",
      "type": "function"
    },
    {
      "inputs": [
        {
          "internalType": "bytes32",
          "name": "_invoiceId",
          "type": "bytes32"
        }
      ],
      "name": "confirmRelease",
      "outputs": [],
      "stateMutability": "nonpayable",
      "type": "function"
    },
    {
      "inputs": [
        {
          "internalType": "bytes32",
          "name": "_invoiceId",
          "type": "bytes32"
        },
        {
          "internalType": "address",
          "name": "_seller",
          "type": "address"
        },
        {
          "internalType": "address",
          "name": "_buyer",
          "type": "address"
        },
        {
          "internalType": "uint256",
          "name": "_amount",
          "type": "uint256"
        },
        {
          "internalType": "address",
          "name": "_token",
          "type": "address"
        },
        {
          "internalType": "uint256",
          "name": "_duration",
          "type": "uint256"
        },
        {
          "internalType": "address",
          "name": "_rwaNftContract",
          "type": "address"
        },
        {
          "internalType": "uint256",
          "name": "_rwaTokenId",
          "type": "uint256"
        }
      ],
      "name": "createEscrow",
      "outputs": [
        {
          "internalType": "bool",
          "name": "",
          "type": "bool"
        }
      ],
      "stateMutability": "nonpayable",
      "type": "function"
    },
    {
      "inputs": [
        {
          "internalType": "bytes32",
          "name": "_invoiceId",
          "type": "bytes32"
        },
        {
          "internalType": "uint256",
          "name": "_amount",
          "type": "uint256"
        }
      ],
      "name": "deposit",
      "outputs": [],
      "stateMutability": "nonpayable",
      "type": "function"
    },
    {
      "inputs": [
        {
          "internalType": "bytes32",
          "name": "",
          "type": "bytes32"
        }
      ],
      "name": "escrows",
      "outputs": [
        {
          "internalType": "address",
          "name": "seller",
          "type": "address"
        },
        {
          "internalType": "address",
          "name": "buyer",
          "type": "address"
        },
        {
          "internalType": "uint256",
          "name": "amount",
          "type": "uint256"
        },
        {
          "internalType": "address",
          "name": "token",
          "type": "address"
        },
        {
          "internalType": "bool",
          "name": "sellerConfirmed",
          "type": "bool"
        },
        {
          "internalType": "bool",
          "name": "buyerConfirmed",
          "type": "bool"
        },
        {
          "internalType": "bool",
          "name": "disputeRaised",
          "type": "bool"
        },
        {
          "internalType": "address",
          "name": "disputeResolver",
          "type": "address"
        },
        {
          "internalType": "uint256",
          "name": "createdAt",
          "type": "uint256"
        },
        {
          "internalType": "uint256",
          "name": "expiresAt",
          "type": "uint256"
        },
        {
          "internalType": "address",
          "name": "rwaNftContract",
          "type": "address"
        },
        {
          "internalType": "uint256",
          "name": "rwaTokenId",
          "type": "uint256"
        }
      ],
      "stateMutability": "view",
      "type": "function"
    },
    {
      "inputs": [
        {
          "internalType": "bytes32",
          "name": "_invoiceId",
          "type": "bytes32"
        }
      ],
      "name": "expireEscrow",
      "outputs": [],
      "stateMutability": "nonpayable",
      "type": "function"
    },
    {
      "inputs": [
        {
          "internalType": "address",
          "name": "",
          "type": "address"
        },
        {
          "internalType": "address",
          "name": "",
          "type": "address"
        },
        {
          "internalType": "uint256",
          "name": "",
          "type": "uint256"
        },
        {
          "internalType": "bytes",
          "name": "",
          "type": "bytes"
        }
      ],
      "name": "onERC721Received",
      "outputs": [
        {
          "internalType": "bytes4",
          "name": "",
          "type": "bytes4"
        }
      ],
      "stateMutability": "pure",
      "type": "function"
    },
    {
      "inputs": [
        {
          "internalType": "bytes32",
          "name": "_invoiceId",
          "type": "bytes32"
        }
      ],
      "name": "raiseDispute",
      "outputs": [],
      "stateMutability": "nonpayable",
      "type": "function"
    },
    {
      "inputs": [
        {
          "internalType": "address",
          "name": "_arbitrator",
          "type": "address"
        }
      ],
      "name": "removeArbitrator",
      "outputs": [],
      "stateMutability": "nonpayable",
      "type": "function"
    },
    {
      "inputs": [
        {
          "internalType": "bytes32",
          "name": "_invoiceId",
          "type": "bytes32"
        },
        {
          "internalType": "bool",
          "name": "_sellerWins",
          "type": "bool"
        }
      ],
      "name": "resolveDispute",
      "outputs": [],
      "stateMutability": "nonpayable",
      "type": "function"
    }
  ],
  "bytecode": "0x60806040523480156200001157600080fd5b5060405162002fe738038062002fe7833981810160405281019062000037919062000132565b600160008190555033600360006101000a81548173ffffffffffffffffffffffffffffffffffffffff021916908373ffffffffffffffffffffffffffffffffffffffff16021790555080600260006101000a81548173ffffffffffffffffffffffffffffffffffffffff021916908373ffffffffffffffffffffffffffffffffffffffff1602179055505062000164565b600080fd5b600073ffffffffffffffffffffffffffffffffffffffff82169050919050565b6000620000fa82620000cd565b9050919050565b6200010c81620000ed565b81146200011857600080fd5b50565b6000815190506200012c8162000101565b92915050565b6000602082840312156200014b576200014a620000c8565b5b60006200015b848285016200011b565b91505092915050565b612e7380620001746000396000f3fe608060405234801561001057600080fd5b50600436106100cf5760003560e01c806343a0e3e61161008c578063973ad27011610066578063973ad2701461022b578063e14f5b7d14610247578063f851a44014610263578063ff7bce2314610281576100cf565b806343a0e3e6146101af57806351d0ea37146101cb57806357b8cb65146101fb576100cf565b806301fabd75146100d45780630f01b937146100f0578063150b7a021461010c5780631de26e161461013c5780632d83549c146101585780633edd9f3514610193575b600080fd5b6100ee60048036038101906100e9919061203d565b61029f565b005b61010a600480360381019061010591906120a0565b6103f9565b005b61012660048036038101906101219190612168565b610712565b604051610133919061222b565b60405180910390f35b61015660048036038101906101519190612246565b610727565b005b610172600480360381019061016d91906120a0565b610bff565b60405161018a9c9b9a999897969594939291906122bf565b60405180910390f35b6101ad60048036038101906101a891906120a0565b610d26565b005b6101c960048036038101906101c491906123a5565b610f0f565b005b6101e560048036038101906101e0919061203d565b611505565b6040516101f291906123e5565b60405180910390f35b61021560048036038101906102109190612400565b611525565b60405161022291906123e5565b60405180910390f35b6102456004803603810190610240919061203d565b611a26565b005b610261600480360381019061025c91906120a0565b611b11565b005b61026b611cbf565b60405161027891906124b6565b60405180910390f35b610289611ce5565b6040516102969190612530565b60405180910390f35b600360009054906101000a900473ffffffffffffffffffffffffffffffffffffffff1673ffffffffffffffffffffffffffffffffffffffff163373ffffffffffffffffffffffffffffffffffffffff161461032f576040517f08c379a0000000000000000000000000000000000000000000000000000000008152600401610326906125a8565b60405180910390fd5b600073ffffffffffffffffffffffffffffffffffffffff168173ffffffffffffffffffffffffffffffffffffffff160361039e576040517f08c379a000000000000000000000000000000000000000000000000000000000815260040161039590612614565b60405180910390fd5b6001600460008373ffffffffffffffffffffffffffffffffffffffff1673ffffffffffffffffffffffffffffffffffffffff16815260200190815260200160002060006101000a81548160ff02191690831515021790555050565b610401611d0b565b6000600160008381526020019081526020016000209050806006015442101561045f576040517f08c379a000000000000000000000000000000000000000000000000000000000815260040161045690612680565b60405180910390fd5b8060030160149054906101000a900460ff16158061048c57508060030160159054906101000a900460ff16155b6104cb576040517f08c379a00000000000000000000000000000000000000000000000000000000081526004016104c2906126ec565b60405180910390fd5b600073ffffffffffffffffffffffffffffffffffffffff168160070160009054906101000a900473ffffffffffffffffffffffffffffffffffffffff1673ffffffffffffffffffffffffffffffffffffffff16146105df578060070160009054906101000a900473ffffffffffffffffffffffffffffffffffffffff1673ffffffffffffffffffffffffffffffffffffffff166342842e0e308360000160009054906101000a900473ffffffffffffffffffffffffffffffffffffffff1684600801546040518463ffffffff1660e01b81526004016105ac9392919061270c565b600060405180830381600087803b1580156105c657600080fd5b505af11580156105da573d6000803e3d6000fd5b505050505b8060030160159054906101000a900460ff16156107065760008160030160009054906101000a900473ffffffffffffffffffffffffffffffffffffffff1690508073ffffffffffffffffffffffffffffffffffffffff1663a9059cbb8360010160009054906101000a900473ffffffffffffffffffffffffffffffffffffffff1684600201546040518363ffffffff1660e01b8152600401610682929190612743565b6020604051808303816000875af11580156106a1573d6000803e3d6000fd5b505050506040513d601f19601f820116820180604052508101906106c59190612781565b610704576040517f08c379a00000000000000000000000000000000000000000000000000000000081526004016106fb906127fa565b60405180910390fd5b505b5061070f611d51565b50565b600063150b7a0260e01b905095945050505050565b61072f611d0b565b33600260009054906101000a900473ffffffffffffffffffffffffffffffffffffffff1673ffffffffffffffffffffffffffffffffffffffff1663e5839836826040518263ffffffff1660e01b815260040161078b91906124b6565b602060405180830381865afa1580156107a8573d6000803e3d6000fd5b505050506040513d601f19601f820116820180604052508101906107cc9190612781565b1561080c576040517f08c379a000000000000000000000000000000000000000000000000000000000815260040161080390612866565b60405180910390fd5b600260009054906101000a900473ffffffffffffffffffffffffffffffffffffffff1673ffffffffffffffffffffffffffffffffffffffff166354b7636e826040518263ffffffff1660e01b815260040161086791906124b6565b602060405180830381865afa158015610884573d6000803e3d6000fd5b505050506040513d601f19601f820116820180604052508101906108a89190612781565b6108e7576040517f08c379a00000000000000000000000000000000000000000000000000000000081526004016108de906128d2565b60405180910390fd5b600260009054906101000a900473ffffffffffffffffffffffffffffffffffffffff1673ffffffffffffffffffffffffffffffffffffffff1663237f1a21826040518263ffffffff1660e01b815260040161094291906124b6565b602060405180830381865afa15801561095f573d6000803e3d6000fd5b505050506040513d601f19601f820116820180604052508101906109839190612781565b6109c2576040517f08c379a00000000000000000000000000000000000000000000000000000000081526004016109b99061293e565b60405180910390fd5b60006001600085815260200190815260200160002090503373ffffffffffffffffffffffffffffffffffffffff168160010160009054906101000a900473ffffffffffffffffffffffffffffffffffffffff1673ffffffffffffffffffffffffffffffffffffffff1614610a6b576040517f08c379a0000000000000000000000000000000000000000000000000000000008152600401610a62906129aa565b60405180910390fd5b80600201548314610ab1576040517f08c379a0000000000000000000000000000000000000000000000000000000008152600401610aa890612a16565b60405180910390fd5b60008160030160009054906101000a900473ffffffffffffffffffffffffffffffffffffffff1690508073ffffffffffffffffffffffffffffffffffffffff166323b872dd3330876040518463ffffffff1660e01b8152600401610b179392919061270c565b6020604051808303816000875af1158015610b36573d6000803e3d6000fd5b505050506040513d601f19601f82011682018060405250810190610b5a9190612781565b610b99576040517f08c379a0000000000000000000000000000000000000000000000000000000008152600401610b9090612a82565b60405180910390fd5b60018260030160156101000a81548160ff021916908315150217905550847f9d39974c480d889b2e46ed1adc6e673ef0ea9f11554437438b05a17cecbde95e3386604051610be8929190612743565b60405180910390a2505050610bfb611d51565b5050565b60016020528060005260406000206000915090508060000160009054906101000a900473ffffffffffffffffffffffffffffffffffffffff16908060010160009054906101000a900473ffffffffffffffffffffffffffffffffffffffff16908060020154908060030160009054906101000a900473ffffffffffffffffffffffffffffffffffffffff16908060030160149054906101000a900460ff16908060030160159054906101000a900460ff16908060030160169054906101000a900460ff16908060040160009054906101000a900473ffffffffffffffffffffffffffffffffffffffff16908060050154908060060154908060070160009054906101000a900473ffffffffffffffffffffffffffffffffffffffff1690806008015490508c565b610d2e611d0b565b60006001600083815260200190815260200160002090508060000160009054906101000a900473ffffffffffffffffffffffffffffffffffffffff1673ffffffffffffffffffffffffffffffffffffffff163373ffffffffffffffffffffffffffffffffffffffff161480610df257508060010160009054906101000a900473ffffffffffffffffffffffffffffffffffffffff1673ffffffffffffffffffffffffffffffffffffffff163373ffffffffffffffffffffffffffffffffffffffff16145b610e31576040517f08c379a0000000000000000000000000000000000000000000000000000000008152600401610e2890612aee565b60405180910390fd5b8060000160009054906101000a900473ffffffffffffffffffffffffffffffffffffffff1673ffffffffffffffffffffffffffffffffffffffff163373ffffffffffffffffffffffffffffffffffffffff1603610eaa5760018160030160146101000a81548160ff021916908315150217905550610ec8565b60018160030160156101000a81548160ff0219169083151502179055505b8060030160149054906101000a900460ff168015610ef457508060030160159054906101000a900460ff165b15610f0357610f0282611d5b565b5b50610f0c611d51565b50565b600360009054906101000a900473ffffffffffffffffffffffffffffffffffffffff1673ffffffffffffffffffffffffffffffffffffffff163373ffffffffffffffffffffffffffffffffffffffff161480610fb45750600460003373ffffffffffffffffffffffffffffffffffffffff1673ffffffffffffffffffffffffffffffffffffffff16815260200190815260200160002060009054906101000a900460ff165b610ff3576040517f08c379a0000000000000000000000000000000000000000000000000000000008152600401610fea90612b5a565b60405180910390fd5b60006001600084815260200190815260200160002090508060030160169054906101000a900460ff1661105b576040517f08c379a000000000000000000000000000000000000000000000000000000000815260040161105290612bc6565b60405180910390fd5b338160040160006101000a81548173ffffffffffffffffffffffffffffffffffffffff021916908373ffffffffffffffffffffffffffffffffffffffff16021790555060008160030160009054906101000a900473ffffffffffffffffffffffffffffffffffffffff16905082156112cb578073ffffffffffffffffffffffffffffffffffffffff1663a9059cbb8360000160009054906101000a900473ffffffffffffffffffffffffffffffffffffffff1684600201546040518363ffffffff1660e01b8152600401611130929190612743565b6020604051808303816000875af115801561114f573d6000803e3d6000fd5b505050506040513d601f19601f820116820180604052508101906111739190612781565b6111b2576040517f08c379a00000000000000000000000000000000000000000000000000000000081526004016111a990612c32565b60405180910390fd5b600073ffffffffffffffffffffffffffffffffffffffff168260070160009054906101000a900473ffffffffffffffffffffffffffffffffffffffff1673ffffffffffffffffffffffffffffffffffffffff16146112c6578160070160009054906101000a900473ffffffffffffffffffffffffffffffffffffffff1673ffffffffffffffffffffffffffffffffffffffff166342842e0e308460010160009054906101000a900473ffffffffffffffffffffffffffffffffffffffff1685600801546040518463ffffffff1660e01b81526004016112939392919061270c565b600060405180830381600087803b1580156112ad57600080fd5b505af11580156112c1573d6000803e3d6000fd5b505050505b6114c5565b8073ffffffffffffffffffffffffffffffffffffffff1663a9059cbb8360010160009054906101000a900473ffffffffffffffffffffffffffffffffffffffff1684600201546040518363ffffffff1660e01b815260040161132e929190612743565b6020604051808303816000875af115801561134d573d6000803e3d6000fd5b505050506040513d601f19601f820116820180604052508101906113719190612781565b6113b0576040517f08c379a00000000000000000000000000000000000000000000000000000000081526004016113a790612c9e565b60405180910390fd5b600073ffffffffffffffffffffffffffffffffffffffff168260070160009054906101000a900473ffffffffffffffffffffffffffffffffffffffff1673ffffffffffffffffffffffffffffffffffffffff16146114c4578160070160009054906101000a900473ffffffffffffffffffffffffffffffffffffffff1673ffffffffffffffffffffffffffffffffffffffff166342842e0e308460000160009054906101000a900473ffffffffffffffffffffffffffffffffffffffff1685600801546040518463ffffffff1660e01b81526004016114919392919061270c565b600060405180830381600087803b1580156114ab57600080fd5b505af11580156114bf573d6000803e3d6000fd5b505050505b5b837fc309ec0196a2aa529cef11b186ef4a3a04c52a9075daf8be91c7c95ede0fdc8733856040516114f7929190612cbe565b60405180910390a250505050565b60046020528060005260406000206000915054906101000a900460ff1681565b6000600360009054906101000a900473ffffffffffffffffffffffffffffffffffffffff1673ffffffffffffffffffffffffffffffffffffffff163373ffffffffffffffffffffffffffffffffffffffff16146115b7576040517f08c379a00000000000000000000000000000000000000000000000000000000081526004016115ae906125a8565b60405180910390fd5b600073ffffffffffffffffffffffffffffffffffffffff16600160008b815260200190815260200160002060000160009054906101000a900473ffffffffffffffffffffffffffffffffffffffff1673ffffffffffffffffffffffffffffffffffffffff161461165c576040517f08c379a000000000000000000000000000000000000000000000000000000000815260040161165390612d33565b60405180910390fd5b600073ffffffffffffffffffffffffffffffffffffffff168373ffffffffffffffffffffffffffffffffffffffff1614611700578273ffffffffffffffffffffffffffffffffffffffff166342842e0e8930856040518463ffffffff1660e01b81526004016116cd9392919061270c565b600060405180830381600087803b1580156116e757600080fd5b505af11580156116fb573d6000803e3d6000fd5b505050505b6040518061018001604052808973ffffffffffffffffffffffffffffffffffffffff1681526020018873ffffffffffffffffffffffffffffffffffffffff1681526020018781526020018673ffffffffffffffffffffffffffffffffffffffff168152602001600015158152602001600015158152602001600015158152602001600073ffffffffffffffffffffffffffffffffffffffff16815260200142815260200185426117b09190612d82565b81526020018473ffffffffffffffffffffffffffffffffffffffff16815260200183815250600160008b815260200190815260200160002060008201518160000160006101000a81548173ffffffffffffffffffffffffffffffffffffffff021916908373ffffffffffffffffffffffffffffffffffffffff16021790555060208201518160010160006101000a81548173ffffffffffffffffffffffffffffffffffffffff021916908373ffffffffffffffffffffffffffffffffffffffff1602179055506040820151816002015560608201518160030160006101000a81548173ffffffffffffffffffffffffffffffffffffffff021916908373ffffffffffffffffffffffffffffffffffffffff16021790555060808201518160030160146101000a81548160ff02191690831515021790555060a08201518160030160156101000a81548160ff02191690831515021790555060c08201518160030160166101000a81548160ff02191690831515021790555060e08201518160040160006101000a81548173ffffffffffffffffffffffffffffffffffffffff021916908373ffffffffffffffffffffffffffffffffffffffff160217905550610100820151816005015561012082015181600601556101408201518160070160006101000a81548173ffffffffffffffffffffffffffffffffffffffff021916908373ffffffffffffffffffffffffffffffffffffffff1602179055506101608201518160080155905050887f0dd968c277d9dc6b36b6ec2b638324c3d937882c64ca109440bc050ebf26cb07898989604051611a0e9392919061270c565b60405180910390a26001905098975050505050505050565b600360009054906101000a900473ffffffffffffffffffffffffffffffffffffffff1673ffffffffffffffffffffffffffffffffffffffff163373ffffffffffffffffffffffffffffffffffffffff1614611ab6576040517f08c379a0000000000000000000000000000000000000000000000000000000008152600401611aad906125a8565b60405180910390fd5b6000600460008373ffffffffffffffffffffffffffffffffffffffff1673ffffffffffffffffffffffffffffffffffffffff16815260200190815260200160002060006101000a81548160ff02191690831515021790555050565b60006001600083815260200190815260200160002090508060000160009054906101000a900473ffffffffffffffffffffffffffffffffffffffff1673ffffffffffffffffffffffffffffffffffffffff163373ffffffffffffffffffffffffffffffffffffffff161480611bd557508060010160009054906101000a900473ffffffffffffffffffffffffffffffffffffffff1673ffffffffffffffffffffffffffffffffffffffff163373ffffffffffffffffffffffffffffffffffffffff16145b611c14576040517f08c379a0000000000000000000000000000000000000000000000000000000008152600401611c0b90612aee565b60405180910390fd5b8060030160169054906101000a900460ff1615611c66576040517f08c379a0000000000000000000000000000000000000000000000000000000008152600401611c5d90612e02565b60405180910390fd5b60018160030160166101000a81548160ff021916908315150217905550817fa71ec46ab116e07f9703467558af33f82718419b32e2acafa86c65587891e3cc33604051611cb391906124b6565b60405180910390a25050565b600360009054906101000a900473ffffffffffffffffffffffffffffffffffffffff1681565b600260009054906101000a900473ffffffffffffffffffffffffffffffffffffffff1681565b600260005403611d47576040517f3ee5aeb500000000000000000000000000000000000000000000000000000000815260040160405180910390fd5b6002600081905550565b6001600081905550565b600060016000838152602001908152602001600020905060008160030160009054906101000a900473ffffffffffffffffffffffffffffffffffffffff1690508073ffffffffffffffffffffffffffffffffffffffff1663a9059cbb8360000160009054906101000a900473ffffffffffffffffffffffffffffffffffffffff1684600201546040518363ffffffff1660e01b8152600401611dfe929190612743565b6020604051808303816000875af1158015611e1d573d6000803e3d6000fd5b505050506040513d601f19601f82011682018060405250810190611e419190612781565b611e80576040517f08c379a0000000000000000000000000000000000000000000000000000000008152600401611e7790612a82565b60405180910390fd5b600073ffffffffffffffffffffffffffffffffffffffff168260070160009054906101000a900473ffffffffffffffffffffffffffffffffffffffff1673ffffffffffffffffffffffffffffffffffffffff1614611f94578160070160009054906101000a900473ffffffffffffffffffffffffffffffffffffffff1673ffffffffffffffffffffffffffffffffffffffff166342842e0e308460010160009054906101000a900473ffffffffffffffffffffffffffffffffffffffff1685600801546040518463ffffffff1660e01b8152600401611f619392919061270c565b600060405180830381600087803b158015611f7b57600080fd5b505af1158015611f8f573d6000803e3d6000fd5b505050505b827f9410e7c5b50451e4b5bd5ce113fd48abebd7070eb9d080df08b115b7cdc416508360020154604051611fc89190612e22565b60405180910390a2505050565b600080fd5b600080fd5b600073ffffffffffffffffffffffffffffffffffffffff82169050919050565b600061200a82611fdf565b9050919050565b61201a81611fff565b811461202557600080fd5b50565b60008135905061203781612011565b92915050565b60006020828403121561205357612052611fd5565b5b600061206184828501612028565b91505092915050565b6000819050919050565b61207d8161206a565b811461208857600080fd5b50565b60008135905061209a81612074565b92915050565b6000602082840312156120b6576120b5611fd5565b5b60006120c48482850161208b565b91505092915050565b6000819050919050565b6120e0816120cd565b81146120eb57600080fd5b50565b6000813590506120fd816120d7565b92915050565b600080fd5b600080fd5b600080fd5b60008083601f84011261212857612127612103565b5b8235905067ffffffffffffffff81111561214557612144612108565b5b6020830191508360018202830111156121615761216061210d565b5b9250929050565b60008060008060006080868803121561218457612183611fd5565b5b600061219288828901612028565b95505060206121a388828901612028565b94505060406121b4888289016120ee565b935050606086013567ffffffffffffffff8111156121d5576121d4611fda565b5b6121e188828901612112565b92509250509295509295909350565b60007fffffffff0000000000000000000000000000000000000000000000000000000082169050919050565b612225816121f0565b82525050565b6000602082019050612240600083018461221c565b92915050565b6000806040838503121561225d5761225c611fd5565b5b600061226b8582860161208b565b925050602061227c858286016120ee565b9150509250929050565b61228f81611fff565b82525050565b61229e816120cd565b82525050565b60008115159050919050565b6122b9816122a4565b82525050565b6000610180820190506122d5600083018f612286565b6122e2602083018e612286565b6122ef604083018d612295565b6122fc606083018c612286565b612309608083018b6122b0565b61231660a083018a6122b0565b61232360c08301896122b0565b61233060e0830188612286565b61233e610100830187612295565b61234c610120830186612295565b61235a610140830185612286565b612368610160830184612295565b9d9c50505050505050505050505050565b612382816122a4565b811461238d57600080fd5b50565b60008135905061239f81612379565b92915050565b600080604083850312156123bc576123bb611fd5565b5b60006123ca8582860161208b565b92505060206123db85828601612390565b9150509250929050565b60006020820190506123fa60008301846122b0565b92915050565b600080600080600080600080610100898b03121561242157612420611fd5565b5b600061242f8b828c0161208b565b98505060206124408b828c01612028565b97505060406124518b828c01612028565b96505060606124628b828c016120ee565b95505060806124738b828c01612028565b94505060a06124848b828c016120ee565b93505060c06124958b828c01612028565b92505060e06124a68b828c016120ee565b9150509295985092959890939650565b60006020820190506124cb6000830184612286565b92915050565b6000819050919050565b60006124f66124f16124ec84611fdf565b6124d1565b611fdf565b9050919050565b6000612508826124db565b9050919050565b600061251a826124fd565b9050919050565b61252a8161250f565b82525050565b60006020820190506125456000830184612521565b92915050565b600082825260208201905092915050565b7f4e6f742061646d696e0000000000000000000000000000000000000000000000600082015250565b600061259260098361254b565b915061259d8261255c565b602082019050919050565b600060208201905081810360008301526125c181612585565b9050919050565b7f496e76616c696420616464726573730000000000000000000000000000000000600082015250565b60006125fe600f8361254b565b9150612609826125c8565b602082019050919050565b6000602082019050818103600083015261262d816125f1565b9050919050565b7f457363726f77206e6f7420657870697265640000000000000000000000000000600082015250565b600061266a60128361254b565b915061267582612634565b602082019050919050565b600060208201905081810360008301526126998161265d565b9050919050565b7f416c726561647920636f6e6669726d6564000000000000000000000000000000600082015250565b60006126d660118361254b565b91506126e1826126a0565b602082019050919050565b60006020820190508181036000830152612705816126c9565b9050919050565b60006060820190506127216000830186612286565b61272e6020830185612286565b61273b6040830184612295565b949350505050565b60006040820190506127586000830185612286565b6127656020830184612295565b9392505050565b60008151905061277b81612379565b92915050565b60006020828403121561279757612796611fd5565b5b60006127a58482850161276c565b91505092915050565b7f526566756e64206661696c656400000000000000000000000000000000000000600082015250565b60006127e4600d8361254b565b91506127ef826127ae565b602082019050919050565b60006020820190508181036000830152612813816127d7565b9050919050565b7f4163636f756e742066726f7a656e000000000000000000000000000000000000600082015250565b6000612850600e8361254b565b915061285b8261281a565b602082019050919050565b6000602082019050818103600083015261287f81612843565b9050919050565b7f4b5943206e6f7420766572696669656400000000000000000000000000000000600082015250565b60006128bc60108361254b565b91506128c782612886565b602082019050919050565b600060208201905081810360008301526128eb816128af565b9050919050565b7f4964656e74697479206e6f7420766572696669656420284e6f20534254290000600082015250565b6000612928601e8361254b565b9150612933826128f2565b602082019050919050565b600060208201905081810360008301526129578161291b565b9050919050565b7f4e6f742074686520627579657200000000000000000000000000000000000000600082015250565b6000612994600d8361254b565b915061299f8261295e565b602082019050919050565b600060208201905081810360008301526129c381612987565b9050919050565b7f496e636f727265637420616d6f756e7400000000000000000000000000000000600082015250565b6000612a0060108361254b565b9150612a0b826129ca565b602082019050919050565b60006020820190508181036000830152612a2f816129f3565b9050919050565b7f5472616e73666572206661696c65640000000000000000000000000000000000600082015250565b6000612a6c600f8361254b565b9150612a7782612a36565b602082019050919050565b60006020820190508181036000830152612a9b81612a5f565b9050919050565b7f4e6f74206120706172747920746f207468697320657363726f77000000000000600082015250565b6000612ad8601a8361254b565b9150612ae382612aa2565b602082019050919050565b60006020820190508181036000830152612b0781612acb565b9050919050565b7f4e6f7420617574686f72697a6564000000000000000000000000000000000000600082015250565b6000612b44600e8361254b565b9150612b4f82612b0e565b602082019050919050565b60006020820190508181036000830152612b7381612b37565b9050919050565b7f4e6f206469737075746520726169736564000000000000000000000000000000600082015250565b6000612bb060118361254b565b9150612bbb82612b7a565b602082019050919050565b60006020820190508181036000830152612bdf81612ba3565b9050919050565b7f5472616e7366657220746f2073656c6c6572206661696c656400000000000000600082015250565b6000612c1c60198361254b565b9150612c2782612be6565b602082019050919050565b60006020820190508181036000830152612c4b81612c0f565b9050919050565b7f5472616e7366657220746f206275796572206661696c65640000000000000000600082015250565b6000612c8860188361254b565b9150612c9382612c52565b602082019050919050565b60006020820190508181036000830152612cb781612c7b565b9050919050565b6000604082019050612cd36000830185612286565b612ce060208301846122b0565b9392505050565b7f457363726f7720616c7265616479206578697374730000000000000000000000600082015250565b6000612d1d60158361254b565b9150612d2882612ce7565b602082019050919050565b60006020820190508181036000830152612d4c81612d10565b9050919050565b7f4e487b7100000000000000000000000000000000000000000000000000000000600052601160045260246000fd5b6000612d8d826120cd565b9150612d98836120cd565b9250828201905080821115612db057612daf612d53565b5b92915050565b7f4469737075746520616c72656164792072616973656400000000000000000000600082015250565b6000612dec60168361254b565b9150612df782612db6565b602082019050919050565b60006020820190508181036000830152612e1b81612ddf565b9050919050565b6000602082019050612e376000830184612295565b9291505056fea2646970667358221220f951317cf88bbd465d04f352671b0e86a27744f039e0a818eb76af63fb2a27f964736f6c63430008140033",
  "linkReferences": {},
  "deployedLinkReferences": {}
}