{
  "_format": "hh-sol-artifact-1",
  "contractName": "EscrowContract",
  "sourceName": "contracts/EscrowContract.sol",
  "abi": [
    {
      "inputs": [
        {
          "internalType": "address",
          "name": "_complianceManager",
          "type": "address"
        }
      ],
      "stateMutability": "nonpayable",
      "type": "constructor"
    },
    {
      "inputs": [],
      "name": "ReentrancyGuardReentrantCall",
      "type": "error"
    },
    {
      "anonymous": false,
      "inputs": [
        {
          "indexed": true,
          "internalType": "bytes32",
          "name": "invoiceId",
          "type": "bytes32"
        },
        {
          "indexed": false,
          "internalType": "address",
          "name": "buyer",
          "type": "address"
        },
        {
          "indexed": false,
          "internalType": "uint256",
          "name": "amount",
          "type": "uint256"
        }
      ],
      "name": "DepositConfirmed",
      "type": "event"
    },
    {
      "anonymous": false,
      "inputs": [
        {
          "indexed": true,
          "internalType": "bytes32",
          "name": "invoiceId",
          "type": "bytes32"
        },
        {
          "indexed": false,
          "internalType": "address",
          "name": "raisedBy",
          "type": "address"
        }
      ],
      "name": "DisputeRaised",
      "type": "event"
    },
    {
      "anonymous": false,
      "inputs": [
        {
          "indexed": true,
          "internalType": "bytes32",
          "name": "invoiceId",
          "type": "bytes32"
        },
        {
          "indexed": false,
          "internalType": "address",
          "name": "resolver",
          "type": "address"
        },
        {
          "indexed": false,
          "internalType": "bool",
          "name": "sellerWins",
          "type": "bool"
        }
      ],
      "name": "DisputeResolved",
      "type": "event"
    },
    {
      "anonymous": false,
      "inputs": [
        {
          "indexed": true,
          "internalType": "bytes32",
          "name": "invoiceId",
          "type": "bytes32"
        },
        {
          "indexed": false,
          "internalType": "address",
          "name": "seller",
          "type": "address"
        },
        {
          "indexed": false,
          "internalType": "address",
          "name": "buyer",
          "type": "address"
        },
        {
          "indexed": false,
          "internalType": "uint256",
          "name": "amount",
          "type": "uint256"
        }
      ],
      "name": "EscrowCreated",
      "type": "event"
    },
    {
      "anonymous": false,
      "inputs": [
        {
          "indexed": true,
          "internalType": "bytes32",
          "name": "invoiceId",
          "type": "bytes32"
        },
        {
          "indexed": false,
          "internalType": "uint256",
          "name": "amount",
          "type": "uint256"
        }
      ],
      "name": "EscrowReleased",
      "type": "event"
    },
    {
      "inputs": [],
      "name": "admin",
      "outputs": [
        {
          "internalType": "address",
          "name": "",
          "type": "address"
        }
      ],
      "stateMutability": "view",
      "type": "function"
    },
    {
      "inputs": [],
      "name": "complianceManager",
      "outputs": [
        {
          "internalType": "contract ComplianceManager",
          "name": "",
          "type": "address"
        }
      ],
      "stateMutability": "view",
      "type": "function"
    },
    {
      "inputs": [
        {
          "internalType": "bytes32",
          "name": "_invoiceId",
          "type": "bytes32"
        }
      ],
      "name": "confirmRelease",
      "outputs": [],
      "stateMutability": "nonpayable",
      "type": "function"
    },
    {
      "inputs": [
        {
          "internalType": "bytes32",
          "name": "_invoiceId",
          "type": "bytes32"
        },
        {
          "internalType": "address",
          "name": "_seller",
          "type": "address"
        },
        {
          "internalType": "address",
          "name": "_buyer",
          "type": "address"
        },
        {
          "internalType": "uint256",
          "name": "_amount",
          "type": "uint256"
        },
        {
          "internalType": "address",
          "name": "_token",
          "type": "address"
        },
        {
          "internalType": "uint256",
          "name": "_duration",
          "type": "uint256"
        },
        {
          "internalType": "address",
          "name": "_rwaNftContract",
          "type": "address"
        },
        {
          "internalType": "uint256",
          "name": "_rwaTokenId",
          "type": "uint256"
        }
      ],
      "name": "createEscrow",
      "outputs": [
        {
          "internalType": "bool",
          "name": "",
          "type": "bool"
        }
      ],
      "stateMutability": "nonpayable",
      "type": "function"
    },
    {
      "inputs": [
        {
          "internalType": "bytes32",
          "name": "_invoiceId",
          "type": "bytes32"
        },
        {
          "internalType": "uint256",
          "name": "_amount",
          "type": "uint256"
        }
      ],
      "name": "deposit",
      "outputs": [],
      "stateMutability": "nonpayable",
      "type": "function"
    },
    {
      "inputs": [
        {
          "internalType": "bytes32",
          "name": "",
          "type": "bytes32"
        }
      ],
      "name": "escrows",
      "outputs": [
        {
          "internalType": "address",
          "name": "seller",
          "type": "address"
        },
        {
          "internalType": "address",
          "name": "buyer",
          "type": "address"
        },
        {
          "internalType": "uint256",
          "name": "amount",
          "type": "uint256"
        },
        {
          "internalType": "address",
          "name": "token",
          "type": "address"
        },
        {
          "internalType": "bool",
          "name": "sellerConfirmed",
          "type": "bool"
        },
        {
          "internalType": "bool",
          "name": "buyerConfirmed",
          "type": "bool"
        },
        {
          "internalType": "bool",
          "name": "disputeRaised",
          "type": "bool"
        },
        {
          "internalType": "address",
          "name": "disputeResolver",
          "type": "address"
        },
        {
          "internalType": "uint256",
          "name": "createdAt",
          "type": "uint256"
        },
        {
          "internalType": "uint256",
          "name": "expiresAt",
          "type": "uint256"
        },
        {
          "internalType": "address",
          "name": "rwaNftContract",
          "type": "address"
        },
        {
          "internalType": "uint256",
          "name": "rwaTokenId",
          "type": "uint256"
        }
      ],
      "stateMutability": "view",
      "type": "function"
    },
    {
      "inputs": [
        {
          "internalType": "bytes32",
          "name": "_invoiceId",
          "type": "bytes32"
        }
      ],
      "name": "expireEscrow",
      "outputs": [],
      "stateMutability": "nonpayable",
      "type": "function"
    },
    {
      "inputs": [
        {
          "internalType": "bytes32",
          "name": "_invoiceId",
          "type": "bytes32"
        }
      ],
      "name": "raiseDispute",
      "outputs": [],
      "stateMutability": "nonpayable",
      "type": "function"
    },
    {
      "inputs": [
        {
          "internalType": "bytes32",
          "name": "_invoiceId",
          "type": "bytes32"
        },
        {
          "internalType": "bool",
          "name": "_sellerWins",
          "type": "bool"
        }
      ],
      "name": "resolveDispute",
      "outputs": [],
      "stateMutability": "nonpayable",
      "type": "function"
    }
  ],
  "bytecode": "0x60806040523480156200001157600080fd5b50604051620023bf380380620023bf833981810160405281019062000037919062000132565b600160008190555033600360006101000a81548173ffffffffffffffffffffffffffffffffffffffff021916908373ffffffffffffffffffffffffffffffffffffffff16021790555080600260006101000a81548173ffffffffffffffffffffffffffffffffffffffff021916908373ffffffffffffffffffffffffffffffffffffffff1602179055505062000164565b600080fd5b600073ffffffffffffffffffffffffffffffffffffffff82169050919050565b6000620000fa82620000cd565b9050919050565b6200010c81620000ed565b81146200011857600080fd5b50565b6000815190506200012c8162000101565b92915050565b6000602082840312156200014b576200014a620000c8565b5b60006200015b848285016200011b565b91505092915050565b61224b80620001746000396000f3fe608060405234801561001057600080fd5b50600436106100935760003560e01c806343a0e3e61161006657806343a0e3e61461012757806357b8cb6514610143578063e14f5b7d14610173578063f851a4401461018f578063ff7bce23146101ad57610093565b80630f01b937146100985780631de26e16146100b45780632d83549c146100d05780633edd9f351461010b575b600080fd5b6100b260048036038101906100ad91906116a1565b6101cb565b005b6100ce60048036038101906100c99190611704565b6103a8565b005b6100ea60048036038101906100e591906116a1565b6107a5565b6040516101029c9b9a999897969594939291906117af565b60405180910390f35b610125600480360381019061012091906116a1565b6108cc565b005b610141600480360381019061013c9190611895565b610ab5565b005b61015d60048036038101906101589190611901565b610e59565b60405161016a91906119b7565b60405180910390f35b61018d600480360381019061018891906116a1565b6112b6565b005b610197611464565b6040516101a491906119d2565b60405180910390f35b6101b561148a565b6040516101c29190611a4c565b60405180910390f35b60006001600083815260200190815260200160002090508060060154421015610229576040517f08c379a000000000000000000000000000000000000000000000000000000000815260040161022090611ac4565b60405180910390fd5b8060030160149054906101000a900460ff16158061025657508060030160159054906101000a900460ff16155b610295576040517f08c379a000000000000000000000000000000000000000000000000000000000815260040161028c90611b30565b60405180910390fd5b60008160030160009054906101000a900473ffffffffffffffffffffffffffffffffffffffff1690508073ffffffffffffffffffffffffffffffffffffffff1663a9059cbb8360010160009054906101000a900473ffffffffffffffffffffffffffffffffffffffff1684600201546040518363ffffffff1660e01b8152600401610321929190611b50565b6020604051808303816000875af1158015610340573d6000803e3d6000fd5b505050506040513d601f19601f820116820180604052508101906103649190611b8e565b6103a3576040517f08c379a000000000000000000000000000000000000000000000000000000000815260040161039a90611c07565b60405180910390fd5b505050565b6103b06114b0565b33600260009054906101000a900473ffffffffffffffffffffffffffffffffffffffff1673ffffffffffffffffffffffffffffffffffffffff1663e5839836826040518263ffffffff1660e01b815260040161040c91906119d2565b602060405180830381865afa158015610429573d6000803e3d6000fd5b505050506040513d601f19601f8201168201806040525081019061044d9190611b8e565b1561048d576040517f08c379a000000000000000000000000000000000000000000000000000000000815260040161048490611c73565b60405180910390fd5b600260009054906101000a900473ffffffffffffffffffffffffffffffffffffffff1673ffffffffffffffffffffffffffffffffffffffff166354b7636e826040518263ffffffff1660e01b81526004016104e891906119d2565b602060405180830381865afa158015610505573d6000803e3d6000fd5b505050506040513d601f19601f820116820180604052508101906105299190611b8e565b610568576040517f08c379a000000000000000000000000000000000000000000000000000000000815260040161055f90611cdf565b60405180910390fd5b60006001600085815260200190815260200160002090503373ffffffffffffffffffffffffffffffffffffffff168160010160009054906101000a900473ffffffffffffffffffffffffffffffffffffffff1673ffffffffffffffffffffffffffffffffffffffff1614610611576040517f08c379a000000000000000000000000000000000000000000000000000000000815260040161060890611d4b565b60405180910390fd5b80600201548314610657576040517f08c379a000000000000000000000000000000000000000000000000000000000815260040161064e90611db7565b60405180910390fd5b60008160030160009054906101000a900473ffffffffffffffffffffffffffffffffffffffff1690508073ffffffffffffffffffffffffffffffffffffffff166323b872dd3330876040518463ffffffff1660e01b81526004016106bd93929190611dd7565b6020604051808303816000875af11580156106dc573d6000803e3d6000fd5b505050506040513d601f19601f820116820180604052508101906107009190611b8e565b61073f576040517f08c379a000000000000000000000000000000000000000000000000000000000815260040161073690611e5a565b60405180910390fd5b60018260030160156101000a81548160ff021916908315150217905550847f9d39974c480d889b2e46ed1adc6e673ef0ea9f11554437438b05a17cecbde95e338660405161078e929190611b50565b60405180910390a25050506107a16114f6565b5050565b60016020528060005260406000206000915090508060000160009054906101000a900473ffffffffffffffffffffffffffffffffffffffff16908060010160009054906101000a900473ffffffffffffffffffffffffffffffffffffffff16908060020154908060030160009054906101000a900473ffffffffffffffffffffffffffffffffffffffff16908060030160149054906101000a900460ff16908060030160159054906101000a900460ff16908060030160169054906101000a900460ff16908060040160009054906101000a900473ffffffffffffffffffffffffffffffffffffffff16908060050154908060060154908060070160009054906101000a900473ffffffffffffffffffffffffffffffffffffffff1690806008015490508c565b6108d46114b0565b60006001600083815260200190815260200160002090508060000160009054906101000a900473ffffffffffffffffffffffffffffffffffffffff1673ffffffffffffffffffffffffffffffffffffffff163373ffffffffffffffffffffffffffffffffffffffff16148061099857508060010160009054906101000a900473ffffffffffffffffffffffffffffffffffffffff1673ffffffffffffffffffffffffffffffffffffffff163373ffffffffffffffffffffffffffffffffffffffff16145b6109d7576040517f08c379a00000000000000000000000000000000000000000000000000000000081526004016109ce90611ec6565b60405180910390fd5b8060000160009054906101000a900473ffffffffffffffffffffffffffffffffffffffff1673ffffffffffffffffffffffffffffffffffffffff163373ffffffffffffffffffffffffffffffffffffffff1603610a505760018160030160146101000a81548160ff021916908315150217905550610a6e565b60018160030160156101000a81548160ff0219169083151502179055505b8060030160149054906101000a900460ff168015610a9a57508060030160159054906101000a900460ff165b15610aa957610aa882611500565b5b50610ab26114f6565b50565b600360009054906101000a900473ffffffffffffffffffffffffffffffffffffffff1673ffffffffffffffffffffffffffffffffffffffff163373ffffffffffffffffffffffffffffffffffffffff1614610b45576040517f08c379a0000000000000000000000000000000000000000000000000000000008152600401610b3c90611f32565b60405180910390fd5b60006001600084815260200190815260200160002090508060030160169054906101000a900460ff16610bad576040517f08c379a0000000000000000000000000000000000000000000000000000000008152600401610ba490611f9e565b60405180910390fd5b338160040160006101000a81548173ffffffffffffffffffffffffffffffffffffffff021916908373ffffffffffffffffffffffffffffffffffffffff1602179055508115610d0a5760008160030160009054906101000a900473ffffffffffffffffffffffffffffffffffffffff1690508073ffffffffffffffffffffffffffffffffffffffff1663a9059cbb8360000160009054906101000a900473ffffffffffffffffffffffffffffffffffffffff1684600201546040518363ffffffff1660e01b8152600401610c82929190611b50565b6020604051808303816000875af1158015610ca1573d6000803e3d6000fd5b505050506040513d601f19601f82011682018060405250810190610cc59190611b8e565b610d04576040517f08c379a0000000000000000000000000000000000000000000000000000000008152600401610cfb9061200a565b60405180910390fd5b50610e1a565b60008160030160009054906101000a900473ffffffffffffffffffffffffffffffffffffffff1690508073ffffffffffffffffffffffffffffffffffffffff1663a9059cbb8360010160009054906101000a900473ffffffffffffffffffffffffffffffffffffffff1684600201546040518363ffffffff1660e01b8152600401610d96929190611b50565b6020604051808303816000875af1158015610db5573d6000803e3d6000fd5b505050506040513d601f19601f82011682018060405250810190610dd99190611b8e565b610e18576040517f08c379a0000000000000000000000000000000000000000000000000000000008152600401610e0f90612076565b60405180910390fd5b505b827fc309ec0196a2aa529cef11b186ef4a3a04c52a9075daf8be91c7c95ede0fdc873384604051610e4c929190612096565b60405180910390a2505050565b6000600360009054906101000a900473ffffffffffffffffffffffffffffffffffffffff1673ffffffffffffffffffffffffffffffffffffffff163373ffffffffffffffffffffffffffffffffffffffff1614610eeb576040517f08c379a0000000000000000000000000000000000000000000000000000000008152600401610ee290611f32565b60405180910390fd5b600073ffffffffffffffffffffffffffffffffffffffff16600160008b815260200190815260200160002060000160009054906101000a900473ffffffffffffffffffffffffffffffffffffffff1673ffffffffffffffffffffffffffffffffffffffff1614610f90576040517f08c379a0000000000000000000000000000000000000000000000000000000008152600401610f879061210b565b60405180910390fd5b6040518061018001604052808973ffffffffffffffffffffffffffffffffffffffff1681526020018873ffffffffffffffffffffffffffffffffffffffff1681526020018781526020018673ffffffffffffffffffffffffffffffffffffffff168152602001600015158152602001600015158152602001600015158152602001600073ffffffffffffffffffffffffffffffffffffffff1681526020014281526020018542611040919061215a565b81526020018473ffffffffffffffffffffffffffffffffffffffff16815260200183815250600160008b815260200190815260200160002060008201518160000160006101000a81548173ffffffffffffffffffffffffffffffffffffffff021916908373ffffffffffffffffffffffffffffffffffffffff16021790555060208201518160010160006101000a81548173ffffffffffffffffffffffffffffffffffffffff021916908373ffffffffffffffffffffffffffffffffffffffff1602179055506040820151816002015560608201518160030160006101000a81548173ffffffffffffffffffffffffffffffffffffffff021916908373ffffffffffffffffffffffffffffffffffffffff16021790555060808201518160030160146101000a81548160ff02191690831515021790555060a08201518160030160156101000a81548160ff02191690831515021790555060c08201518160030160166101000a81548160ff02191690831515021790555060e08201518160040160006101000a81548173ffffffffffffffffffffffffffffffffffffffff021916908373ffffffffffffffffffffffffffffffffffffffff160217905550610100820151816005015561012082015181600601556101408201518160070160006101000a81548173ffffffffffffffffffffffffffffffffffffffff021916908373ffffffffffffffffffffffffffffffffffffffff1602179055506101608201518160080155905050887f0dd968c277d9dc6b36b6ec2b638324c3d937882c64ca109440bc050ebf26cb0789898960405161129e93929190611dd7565b60405180910390a26001905098975050505050505050565b60006001600083815260200190815260200160002090508060000160009054906101000a900473ffffffffffffffffffffffffffffffffffffffff1673ffffffffffffffffffffffffffffffffffffffff163373ffffffffffffffffffffffffffffffffffffffff16148061137a57508060010160009054906101000a900473ffffffffffffffffffffffffffffffffffffffff1673ffffffffffffffffffffffffffffffffffffffff163373ffffffffffffffffffffffffffffffffffffffff16145b6113b9576040517f08c379a00000000000000000000000000000000000000000000000000000000081526004016113b090611ec6565b60405180910390fd5b8060030160169054906101000a900460ff161561140b576040517f08c379a0000000000000000000000000000000000000000000000000000000008152600401611402906121da565b60405180910390fd5b60018160030160166101000a81548160ff021916908315150217905550817fa71ec46ab116e07f9703467558af33f82718419b32e2acafa86c65587891e3cc3360405161145891906119d2565b60405180910390a25050565b600360009054906101000a900473ffffffffffffffffffffffffffffffffffffffff1681565b600260009054906101000a900473ffffffffffffffffffffffffffffffffffffffff1681565b6002600054036114ec576040517f3ee5aeb500000000000000000000000000000000000000000000000000000000815260040160405180910390fd5b6002600081905550565b6001600081905550565b600060016000838152602001908152602001600020905060008160030160009054906101000a900473ffffffffffffffffffffffffffffffffffffffff1690508073ffffffffffffffffffffffffffffffffffffffff1663a9059cbb8360000160009054906101000a900473ffffffffffffffffffffffffffffffffffffffff1684600201546040518363ffffffff1660e01b81526004016115a3929190611b50565b6020604051808303816000875af11580156115c2573d6000803e3d6000fd5b505050506040513d601f19601f820116820180604052508101906115e69190611b8e565b611625576040517f08c379a000000000000000000000000000000000000000000000000000000000815260040161161c90611e5a565b60405180910390fd5b827f9410e7c5b50451e4b5bd5ce113fd48abebd7070eb9d080df08b115b7cdc41650836002015460405161165991906121fa565b60405180910390a2505050565b600080fd5b6000819050919050565b61167e8161166b565b811461168957600080fd5b50565b60008135905061169b81611675565b92915050565b6000602082840312156116b7576116b6611666565b5b60006116c58482850161168c565b91505092915050565b6000819050919050565b6116e1816116ce565b81146116ec57600080fd5b50565b6000813590506116fe816116d8565b92915050565b6000806040838503121561171b5761171a611666565b5b60006117298582860161168c565b925050602061173a858286016116ef565b9150509250929050565b600073ffffffffffffffffffffffffffffffffffffffff82169050919050565b600061176f82611744565b9050919050565b61177f81611764565b82525050565b61178e816116ce565b82525050565b60008115159050919050565b6117a981611794565b82525050565b6000610180820190506117c5600083018f611776565b6117d2602083018e611776565b6117df604083018d611785565b6117ec606083018c611776565b6117f9608083018b6117a0565b61180660a083018a6117a0565b61181360c08301896117a0565b61182060e0830188611776565b61182e610100830187611785565b61183c610120830186611785565b61184a610140830185611776565b611858610160830184611785565b9d9c50505050505050505050505050565b61187281611794565b811461187d57600080fd5b50565b60008135905061188f81611869565b92915050565b600080604083850312156118ac576118ab611666565b5b60006118ba8582860161168c565b92505060206118cb85828601611880565b9150509250929050565b6118de81611764565b81146118e957600080fd5b50565b6000813590506118fb816118d5565b92915050565b600080600080600080600080610100898b03121561192257611921611666565b5b60006119308b828c0161168c565b98505060206119418b828c016118ec565b97505060406119528b828c016118ec565b96505060606119638b828c016116ef565b95505060806119748b828c016118ec565b94505060a06119858b828c016116ef565b93505060c06119968b828c016118ec565b92505060e06119a78b828c016116ef565b9150509295985092959890939650565b60006020820190506119cc60008301846117a0565b92915050565b60006020820190506119e76000830184611776565b92915050565b6000819050919050565b6000611a12611a0d611a0884611744565b6119ed565b611744565b9050919050565b6000611a24826119f7565b9050919050565b6000611a3682611a19565b9050919050565b611a4681611a2b565b82525050565b6000602082019050611a616000830184611a3d565b92915050565b600082825260208201905092915050565b7f457363726f77206e6f7420657870697265640000000000000000000000000000600082015250565b6000611aae601283611a67565b9150611ab982611a78565b602082019050919050565b60006020820190508181036000830152611add81611aa1565b9050919050565b7f416c726561647920636f6e6669726d6564000000000000000000000000000000600082015250565b6000611b1a601183611a67565b9150611b2582611ae4565b602082019050919050565b60006020820190508181036000830152611b4981611b0d565b9050919050565b6000604082019050611b656000830185611776565b611b726020830184611785565b9392505050565b600081519050611b8881611869565b92915050565b600060208284031215611ba457611ba3611666565b5b6000611bb284828501611b79565b91505092915050565b7f526566756e64206661696c656400000000000000000000000000000000000000600082015250565b6000611bf1600d83611a67565b9150611bfc82611bbb565b602082019050919050565b60006020820190508181036000830152611c2081611be4565b9050919050565b7f4163636f756e742066726f7a656e000000000000000000000000000000000000600082015250565b6000611c5d600e83611a67565b9150611c6882611c27565b602082019050919050565b60006020820190508181036000830152611c8c81611c50565b9050919050565b7f4b5943206e6f7420766572696669656400000000000000000000000000000000600082015250565b6000611cc9601083611a67565b9150611cd482611c93565b602082019050919050565b60006020820190508181036000830152611cf881611cbc565b9050919050565b7f4e6f742074686520627579657200000000000000000000000000000000000000600082015250565b6000611d35600d83611a67565b9150611d4082611cff565b602082019050919050565b60006020820190508181036000830152611d6481611d28565b9050919050565b7f496e636f727265637420616d6f756e7400000000000000000000000000000000600082015250565b6000611da1601083611a67565b9150611dac82611d6b565b602082019050919050565b60006020820190508181036000830152611dd081611d94565b9050919050565b6000606082019050611dec6000830186611776565b611df96020830185611776565b611e066040830184611785565b949350505050565b7f5472616e73666572206661696c65640000000000000000000000000000000000600082015250565b6000611e44600f83611a67565b9150611e4f82611e0e565b602082019050919050565b60006020820190508181036000830152611e7381611e37565b9050919050565b7f4e6f74206120706172747920746f207468697320657363726f77000000000000600082015250565b6000611eb0601a83611a67565b9150611ebb82611e7a565b602082019050919050565b60006020820190508181036000830152611edf81611ea3565b9050919050565b7f4e6f742061646d696e0000000000000000000000000000000000000000000000600082015250565b6000611f1c600983611a67565b9150611f2782611ee6565b602082019050919050565b60006020820190508181036000830152611f4b81611f0f565b9050919050565b7f4e6f206469737075746520726169736564000000000000000000000000000000600082015250565b6000611f88601183611a67565b9150611f9382611f52565b602082019050919050565b60006020820190508181036000830152611fb781611f7b565b9050919050565b7f5472616e7366657220746f2073656c6c6572206661696c656400000000000000600082015250565b6000611ff4601983611a67565b9150611fff82611fbe565b602082019050919050565b6000602082019050818103600083015261202381611fe7565b9050919050565b7f5472616e7366657220746f206275796572206661696c65640000000000000000600082015250565b6000612060601883611a67565b915061206b8261202a565b602082019050919050565b6000602082019050818103600083015261208f81612053565b9050919050565b60006040820190506120ab6000830185611776565b6120b860208301846117a0565b9392505050565b7f457363726f7720616c7265616479206578697374730000000000000000000000600082015250565b60006120f5601583611a67565b9150612100826120bf565b602082019050919050565b60006020820190508181036000830152612124816120e8565b9050919050565b7f4e487b7100000000000000000000000000000000000000000000000000000000600052601160045260246000fd5b6000612165826116ce565b9150612170836116ce565b92508282019050808211156121885761218761212b565b5b92915050565b7f4469737075746520616c72656164792072616973656400000000000000000000600082015250565b60006121c4601683611a67565b91506121cf8261218e565b602082019050919050565b600060208201905081810360008301526121f3816121b7565b9050919050565b600060208201905061220f6000830184611785565b9291505056fea2646970667358221220d343af504f09a9fe40f3283a46426e94c6ae294c5f5ee3c2de684f66c31ec48f64736f6c63430008140033",
  "linkReferences": {},
  "deployedLinkReferences": {}
}