{
  "_format": "hh-sol-artifact-1",
  "contractName": "EscrowContract",
  "sourceName": "contracts/EscrowContract.sol",
  "abi": [
    {
      "inputs": [
        {
          "internalType": "address",
          "name": "_trustedForwarder",
          "type": "address"
        },
        {
          "internalType": "address",
          "name": "_complianceManager",
          "type": "address"
        },
        {
          "internalType": "address",
          "name": "_arbitratorsRegistry",
          "type": "address"
        }
      ],
      "stateMutability": "nonpayable",
      "type": "constructor"
    },
    {
      "inputs": [],
      "name": "EnforcedPause",
      "type": "error"
    },
    {
      "inputs": [],
      "name": "ExpectedPause",
      "type": "error"
    },
    {
      "inputs": [],
      "name": "InvalidShortString",
      "type": "error"
    },
    {
      "inputs": [],
      "name": "ReentrancyGuardReentrantCall",
      "type": "error"
    },
    {
      "inputs": [
        {
          "internalType": "string",
          "name": "str",
          "type": "string"
        }
      ],
      "name": "StringTooLong",
      "type": "error"
    },
    {
      "anonymous": false,
      "inputs": [
        {
          "indexed": true,
          "internalType": "bytes32",
          "name": "invoiceId",
          "type": "bytes32"
        },
        {
          "indexed": true,
          "internalType": "address",
          "name": "arbitrator",
          "type": "address"
        },
        {
          "indexed": false,
          "internalType": "bool",
          "name": "votedForSeller",
          "type": "bool"
        }
      ],
      "name": "ArbitratorVoted",
      "type": "event"
    },
    {
      "anonymous": false,
      "inputs": [
        {
          "indexed": true,
          "internalType": "bytes32",
          "name": "invoiceId",
          "type": "bytes32"
        },
        {
          "indexed": false,
          "internalType": "address",
          "name": "buyer",
          "type": "address"
        },
        {
          "indexed": false,
          "internalType": "uint256",
          "name": "amount",
          "type": "uint256"
        }
      ],
      "name": "DepositConfirmed",
      "type": "event"
    },
    {
      "anonymous": false,
      "inputs": [
        {
          "indexed": true,
          "internalType": "bytes32",
          "name": "invoiceId",
          "type": "bytes32"
        },
        {
          "indexed": false,
          "internalType": "address",
          "name": "raisedBy",
          "type": "address"
        },
        {
          "indexed": false,
          "internalType": "uint256",
          "name": "snapshotArbitratorCount",
          "type": "uint256"
        }
      ],
      "name": "DisputeRaised",
      "type": "event"
    },
    {
      "anonymous": false,
      "inputs": [
        {
          "indexed": true,
          "internalType": "bytes32",
          "name": "invoiceId",
          "type": "bytes32"
        },
        {
          "indexed": false,
          "internalType": "bool",
          "name": "sellerWins",
          "type": "bool"
        },
        {
          "indexed": false,
          "internalType": "uint256",
          "name": "votesForSeller",
          "type": "uint256"
        },
        {
          "indexed": false,
          "internalType": "uint256",
          "name": "votesForBuyer",
          "type": "uint256"
        }
      ],
      "name": "DisputeResolved",
      "type": "event"
    },
    {
      "anonymous": false,
      "inputs": [],
      "name": "EIP712DomainChanged",
      "type": "event"
    },
    {
      "anonymous": false,
      "inputs": [
        {
          "indexed": true,
          "internalType": "bytes32",
          "name": "invoiceId",
          "type": "bytes32"
        },
        {
          "indexed": false,
          "internalType": "address",
          "name": "seller",
          "type": "address"
        },
        {
          "indexed": false,
          "internalType": "address",
          "name": "buyer",
          "type": "address"
        },
        {
          "indexed": false,
          "internalType": "uint256",
          "name": "amount",
          "type": "uint256"
        }
      ],
      "name": "EscrowCreated",
      "type": "event"
    },
    {
      "anonymous": false,
      "inputs": [
        {
          "indexed": true,
          "internalType": "bytes32",
          "name": "invoiceId",
          "type": "bytes32"
        },
        {
          "indexed": false,
          "internalType": "uint256",
          "name": "amount",
          "type": "uint256"
        }
      ],
      "name": "EscrowReleased",
      "type": "event"
    },
    {
      "anonymous": false,
      "inputs": [
        {
          "indexed": false,
          "internalType": "address",
          "name": "account",
          "type": "address"
        }
      ],
      "name": "Paused",
      "type": "event"
    },
    {
      "anonymous": false,
      "inputs": [
        {
          "indexed": false,
          "internalType": "address",
          "name": "account",
          "type": "address"
        }
      ],
      "name": "Unpaused",
      "type": "event"
    },
    {
      "inputs": [],
      "name": "admin",
      "outputs": [
        {
          "internalType": "address",
          "name": "",
          "type": "address"
        }
      ],
      "stateMutability": "view",
      "type": "function"
    },
    {
      "inputs": [],
      "name": "arbitratorsRegistry",
      "outputs": [
        {
          "internalType": "contract ArbitratorsRegistry",
          "name": "",
          "type": "address"
        }
      ],
      "stateMutability": "view",
      "type": "function"
    },
    {
      "inputs": [],
      "name": "complianceManager",
      "outputs": [
        {
          "internalType": "contract ComplianceManager",
          "name": "",
          "type": "address"
        }
      ],
      "stateMutability": "view",
      "type": "function"
    },
    {
      "inputs": [
        {
          "internalType": "bytes32",
          "name": "_invoiceId",
          "type": "bytes32"
        }
      ],
      "name": "confirmRelease",
      "outputs": [],
      "stateMutability": "nonpayable",
      "type": "function"
    },
    {
      "inputs": [
        {
          "internalType": "bytes32",
          "name": "_invoiceId",
          "type": "bytes32"
        },
        {
          "internalType": "address",
          "name": "_seller",
          "type": "address"
        },
        {
          "internalType": "address",
          "name": "_buyer",
          "type": "address"
        },
        {
          "internalType": "uint256",
          "name": "_amount",
          "type": "uint256"
        },
        {
          "internalType": "address",
          "name": "_token",
          "type": "address"
        },
        {
          "internalType": "uint256",
          "name": "_duration",
          "type": "uint256"
        },
        {
          "internalType": "address",
          "name": "_rwaNftContract",
          "type": "address"
        },
        {
          "internalType": "uint256",
          "name": "_rwaTokenId",
          "type": "uint256"
        },
        {
          "internalType": "uint256",
          "name": "_discountRate",
          "type": "uint256"
        },
        {
          "internalType": "uint256",
          "name": "_discountDeadline",
          "type": "uint256"
        }
      ],
      "name": "createEscrow",
      "outputs": [
        {
          "internalType": "bool",
          "name": "",
          "type": "bool"
        }
      ],
      "stateMutability": "nonpayable",
      "type": "function"
    },
    {
      "inputs": [
        {
          "internalType": "bytes32",
          "name": "_invoiceId",
          "type": "bytes32"
        }
      ],
      "name": "deposit",
      "outputs": [],
      "stateMutability": "payable",
      "type": "function"
    },
    {
      "inputs": [],
      "name": "eip712Domain",
      "outputs": [
        {
          "internalType": "bytes1",
          "name": "fields",
          "type": "bytes1"
        },
        {
          "internalType": "string",
          "name": "name",
          "type": "string"
        },
        {
          "internalType": "string",
          "name": "version",
          "type": "string"
        },
        {
          "internalType": "uint256",
          "name": "chainId",
          "type": "uint256"
        },
        {
          "internalType": "address",
          "name": "verifyingContract",
          "type": "address"
        },
        {
          "internalType": "bytes32",
          "name": "salt",
          "type": "bytes32"
        },
        {
          "internalType": "uint256[]",
          "name": "extensions",
          "type": "uint256[]"
        }
      ],
      "stateMutability": "view",
      "type": "function"
    },
    {
      "inputs": [
        {
          "internalType": "bytes32",
          "name": "",
          "type": "bytes32"
        }
      ],
      "name": "escrows",
      "outputs": [
        {
          "internalType": "address",
          "name": "seller",
          "type": "address"
        },
        {
          "internalType": "address",
          "name": "buyer",
          "type": "address"
        },
        {
          "internalType": "uint256",
          "name": "amount",
          "type": "uint256"
        },
        {
          "internalType": "address",
          "name": "token",
          "type": "address"
        },
        {
          "internalType": "enum EscrowContract.EscrowStatus",
          "name": "status",
          "type": "uint8"
        },
        {
          "internalType": "address",
          "name": "payee",
          "type": "address"
        },
        {
          "internalType": "bool",
          "name": "sellerConfirmed",
          "type": "bool"
        },
        {
          "internalType": "bool",
          "name": "buyerConfirmed",
          "type": "bool"
        },
        {
          "internalType": "bool",
          "name": "disputeRaised",
          "type": "bool"
        },
        {
          "internalType": "address",
          "name": "disputeResolver",
          "type": "address"
        },
        {
          "internalType": "uint256",
          "name": "createdAt",
          "type": "uint256"
        },
        {
          "internalType": "uint256",
          "name": "expiresAt",
          "type": "uint256"
        },
        {
          "internalType": "address",
          "name": "rwaNftContract",
          "type": "address"
        },
        {
          "internalType": "uint256",
          "name": "rwaTokenId",
          "type": "uint256"
        },
        {
          "internalType": "uint256",
          "name": "snapshotArbitratorCount",
          "type": "uint256"
        },
        {
          "internalType": "uint256",
          "name": "votesForSeller",
          "type": "uint256"
        },
        {
          "internalType": "uint256",
          "name": "votesForBuyer",
          "type": "uint256"
        },
        {
          "internalType": "uint256",
          "name": "discountRate",
          "type": "uint256"
        },
        {
          "internalType": "uint256",
          "name": "discountDeadline",
          "type": "uint256"
        }
      ],
      "stateMutability": "view",
      "type": "function"
    },
    {
      "inputs": [
        {
          "internalType": "bytes32",
          "name": "_invoiceId",
          "type": "bytes32"
        }
      ],
      "name": "expireEscrow",
      "outputs": [],
      "stateMutability": "nonpayable",
      "type": "function"
    },
    {
      "inputs": [
        {
          "internalType": "bytes32",
          "name": "",
          "type": "bytes32"
        },
        {
          "internalType": "address",
          "name": "",
          "type": "address"
        }
      ],
      "name": "hasVoted",
      "outputs": [
        {
          "internalType": "bool",
          "name": "",
          "type": "bool"
        }
      ],
      "stateMutability": "view",
      "type": "function"
    },
    {
      "inputs": [
        {
          "internalType": "address",
          "name": "forwarder",
          "type": "address"
        }
      ],
      "name": "isTrustedForwarder",
      "outputs": [
        {
          "internalType": "bool",
          "name": "",
          "type": "bool"
        }
      ],
      "stateMutability": "view",
      "type": "function"
    },
    {
      "inputs": [
        {
          "internalType": "address",
          "name": "",
          "type": "address"
        },
        {
          "internalType": "address",
          "name": "",
          "type": "address"
        },
        {
          "internalType": "uint256",
          "name": "",
          "type": "uint256"
        },
        {
          "internalType": "bytes",
          "name": "",
          "type": "bytes"
        }
      ],
      "name": "onERC721Received",
      "outputs": [
        {
          "internalType": "bytes4",
          "name": "",
          "type": "bytes4"
        }
      ],
      "stateMutability": "pure",
      "type": "function"
    },
    {
      "inputs": [],
      "name": "paused",
      "outputs": [
        {
          "internalType": "bool",
          "name": "",
          "type": "bool"
        }
      ],
      "stateMutability": "view",
      "type": "function"
    },
    {
      "inputs": [
        {
          "internalType": "bytes32",
          "name": "_invoiceId",
          "type": "bytes32"
        }
      ],
      "name": "raiseDispute",
      "outputs": [],
      "stateMutability": "nonpayable",
      "type": "function"
    },
    {
      "inputs": [
        {
          "internalType": "bytes32",
          "name": "_invoiceId",
          "type": "bytes32"
        },
        {
          "internalType": "address",
          "name": "_newPayee",
          "type": "address"
        }
      ],
      "name": "setPayee",
      "outputs": [],
      "stateMutability": "nonpayable",
      "type": "function"
    },
    {
      "inputs": [],
      "name": "trustedForwarder",
      "outputs": [
        {
          "internalType": "address",
          "name": "",
          "type": "address"
        }
      ],
      "stateMutability": "view",
      "type": "function"
    },
    {
      "inputs": [
        {
          "internalType": "bytes32",
          "name": "_invoiceId",
          "type": "bytes32"
        },
        {
          "internalType": "bool",
          "name": "_forSeller",
          "type": "bool"
        }
      ],
      "name": "voteOnDispute",
      "outputs": [],
      "stateMutability": "nonpayable",
      "type": "function"
    }
  ],
  "bytecode": "0x61018080604052346101bc57606081612295803803809161002082856101c0565b8339810103126101bc57610033816101f7565b9061004c6040610045602084016101f7565b92016101f7565b916040519061005c6040836101c0565b600e8252602082016d115cd8dc9bddd0dbdb9d1c9858dd60921b8152604051926100876040856101c0565b600184526020840192603160f81b845260015f556080526100a78161020b565b610140526100b4846103a6565b6101605251902091826101005251902080610120524660c0526040519060208201927f8b73c3c69bb8fe3d512ecc4cf759cc79239f7b179b0ffacaa9a75d522b39400f8452604083015260608201524660808201523060a082015260a0815261011e60c0826101c0565b51902060a0523060e052600880546001600160a01b031990811633179091556006805482166001600160a01b039384161790556007805490911692909116919091179055604051611db690816104df823960805181818161094d015281816113560152611b59015260a05181505060c05181505060e051815050610100518150506101205181505061014051816108550152610160518161087f0152f35b5f80fd5b601f909101601f19168101906001600160401b038211908210176101e357604052565b634e487b7160e01b5f52604160045260245ffd5b51906001600160a01b03821682036101bc57565b908151602081105f14610285575090601f815111610245576020815191015160208210610236571790565b5f198260200360031b1b161790565b604460209160405192839163305a27a960e01b83528160048401528051918291826024860152018484015e5f828201840152601f01601f19168101030190fd5b6001600160401b0381116101e357600254600181811c9116801561039c575b602082101461038857601f8111610355575b50602092601f82116001146102f457928192935f926102e9575b50508160011b915f199060031b1c19161760025560ff90565b015190505f806102d0565b601f1982169360025f52805f20915f5b86811061033d5750836001959610610325575b505050811b0160025560ff90565b01515f1960f88460031b161c191690555f8080610317565b91926020600181928685015181550194019201610304565b60025f52601f60205f20910160051c810190601f830160051c015b81811061037d57506102b6565b5f8155600101610370565b634e487b7160e01b5f52602260045260245ffd5b90607f16906102a4565b908151602081105f146103d1575090601f815111610245576020815191015160208210610236571790565b6001600160401b0381116101e357600354600181811c911680156104d4575b602082101461038857601f81116104a1575b50602092601f821160011461044057928192935f92610435575b50508160011b915f199060031b1c19161760035560ff90565b015190505f8061041c565b601f1982169360035f52805f20915f5b8681106104895750836001959610610471575b505050811b0160035560ff90565b01515f1960f88460031b161c191690555f8080610463565b91926020600181928685015181550194019201610450565b60035f52601f60205f20910160051c810190601f830160051c015b8181106104c95750610402565b5f81556001016104bc565b90607f16906103f056fe60806040526004361015610011575f80fd5b5f5f3560e01c80630f01b937146116e5578063150b7a02146116745780632d83549c1461151657806331724eeb146114ee5780633edd9f351461138a578063572b6c05146113365780635c975abb14611314578063686e608314610f685780636b5e1e181461097c5780637da0a8771461093757806384b0196e1461083b578063aadc3b72146107f1578063b214faa51461047c578063ca7be8af14610311578063e14f5b7d14610129578063f851a440146101005763ff7bce23146100d5575f80fd5b346100fd57806003193601126100fd576006546040516001600160a01b039091168152602090f35b80fd5b50346100fd57806003193601126100fd576008546040516001600160a01b039091168152602090f35b50346100fd5760203660031901126100fd57600435808252600460205260408220610152611b2e565b81546001600160a01b0391821691161480156102eb575b61017290611854565b6004810190815460ff8160b01c166102b35760075460405163428ac57f60e01b81529290602090849060049082906001600160a01b03165afa9283156102a8578693610270575b50600a8101928084551561023a5760ff60b01b19909116600160b01b17909255600391909101805460ff60a01b1916600160a11b1790557fc7d1b2cd4cf76e3b360b72761ab309e4fd1e3f25f3679f82e66410d221992ce59061021a611b2e565b9054604080516001600160a01b039093168352602083019190915290a280f35b60405162461bcd60e51b815260206004820152600e60248201526d4e6f2061726269747261746f727360901b6044820152606490fd5b9092506020813d6020116102a0575b8161028c6020938361188c565b8101031261029c5751915f6101b9565b8580fd5b3d915061027f565b6040513d88823e3d90fd5b60405162461bcd60e51b815260206004820152601060248201526f105b1c9958591e48191a5cdc1d5d195960821b6044820152606490fd5b506101726102f7611b2e565b60018301546001600160a01b039182169116149050610169565b50346100fd5760403660031901126100fd5761032b61181a565b600435825260046020526040822090600482019160018060a01b0383541690610367600382019260018060a01b038454166002840154916119c0565b60018101546103819082906001600160a01b031630611a58565b610389611b2e565b90546001600160a01b03908116911603610437575460a01c60ff166005811015610423578015908115610418575b50156103db5781546001600160a01b0319166001600160a01b039190911617905580f35b60405162461bcd60e51b8152602060048201526015602482015274496e76616c696420657363726f772073746174757360581b6044820152606490fd5b60019150145f6103b7565b634e487b7160e01b84526021600452602484fd5b60405162461bcd60e51b815260206004820152601960248201527f4f6e6c792073656c6c65722063616e20736574207061796565000000000000006044820152606490fd5b5060203660031901126100fd576004356104946119a2565b61049c611b2e565b6006546040516372c1cc1b60e11b81526001600160a01b03928316600482018190529190921691602081602481865afa80156107c7576104e49186916107d2575b50156118e8565b604051632a5bb1b760e11b81526004810182905290602082602481865afa9182156107c75760209261051d9187916107aa575b50611925565b60246040518094819363237f1a2160e01b835260048301525afa801561079f5761054e918491610780575b50611964565b808252600460205260408220610562611b2e565b60018201805490916001600160a01b0391821691160361074f57600482019060ff825460a81c1661071b5761059683611ade565b6003840180549193909184906001600160a01b03168061065957503403610623578360027f9d39974c480d889b2e46ed1adc6e673ef0ea9f11554437438b05a17cecbde95e965b0155805460ff60a81b1916600160a81b179055805460ff60a01b1916600160a01b17905554604080516001600160a01b0390921682526020820192909252a26001815580f35b60405162461bcd60e51b815260206004820152600e60248201526d1098590811551208185b5bdd5b9d60921b6044820152606490fd5b6106a591602091610668611b2e565b6040516323b872dd60e01b81526001600160a01b0390911660048201523060248201526044810192909252909283919082908c9082906064820190565b03925af18015610710577f9d39974c480d889b2e46ed1adc6e673ef0ea9f11554437438b05a17cecbde95e9686926002926106e1575b506105dd565b6107029060203d602011610709575b6106fa818361188c565b8101906118c2565b505f6106db565b503d6106f0565b6040513d8a823e3d90fd5b60405162461bcd60e51b815260206004820152600c60248201526b105b1c9958591e481c185a5960a21b6044820152606490fd5b60405162461bcd60e51b81526020600482015260096024820152682737ba10313abcb2b960b91b6044820152606490fd5b610799915060203d602011610709576106fa818361188c565b5f610548565b6040513d85823e3d90fd5b6107c19150843d8611610709576106fa818361188c565b5f610517565b6040513d87823e3d90fd5b6107eb915060203d602011610709576106fa818361188c565b5f6104dd565b50346100fd5760403660031901126100fd57604061080d61181a565b9160043581526005602052209060018060a01b03165f52602052602060ff60405f2054166040519015158152f35b50346100fd57806003193601126100fd576108db906108797f0000000000000000000000000000000000000000000000000000000000000000611b87565b906108a37f0000000000000000000000000000000000000000000000000000000000000000611cb0565b9060206108e9604051936108b7838661188c565b8385525f368137604051968796600f60f81b885260e08589015260e0880190611830565b908682036040880152611830565b904660608601523060808601528260a086015284820360c08601528080855193848152019401925b82811061092057505050500390f35b835185528695509381019392810192600101610911565b50346100fd57806003193601126100fd576040517f00000000000000000000000000000000000000000000000000000000000000006001600160a01b03168152602090f35b5034610e2857610140366003190112610e285761099761181a565b604435916001600160a01b038316808403610e28576084356001600160a01b03811690819003610e285760c4356001600160a01b03811690819003610e285760e435916109e2611b2e565b6006546040516372c1cc1b60e11b81526001600160a01b03928316600482018190529190921691602081602481865afa8015610e1d57610a29915f916107d25750156118e8565b604051632a5bb1b760e11b81526004810182905290602082602481865afa918215610e1d57602092610a61915f916107aa5750611925565b60246040518094819363237f1a2160e01b835260048301525afa8015610e1d57610a91915f916107805750611964565b6004355f52600460205260018060a01b0360405f205416610f335760643515610efd576127106101043511610ec557610ac8611b2e565b6001600160a01b03878116911681148015610ea6575b15610e6a5761010435610e2c575b82610dbe575b60a435420191824211610daa5760405195610260870187811067ffffffffffffffff821117610d96576040908152838852602080890192835260643589830190815260608a0194855260808a018b815260a08b019690965260c08a018b905260e08a018b90526101008a018b90526101208a018b9052426101408b01526101608a01969096526101808901969096526101a08801969096526101c087018890526101e0870188905261020087018890526101043561022088015261012435610240880152600480358952909452938620855181546001600160a01b03199081166001600160a01b03928316178355945160018301805487169183169190911790559251600282015593516003850180549094169216919091179091555190926005821015610d82575060038301805460ff60a01b191660a092831b60ff60a01b90811691909117909155828201516004808601805460c087015160e08801516101008901516001600160b81b03199093166001600160a01b039687161791151590971b9095169490941794151560a81b60ff60a81b169490941792151560b01b60ff60b01b16929092179092556101208301516005850180546001600160a01b0319908116928516929092179055610140840151600686015561016084015160078601556101808401516008860180549092169084161790556101a083015160098501556101c0830151600a8501556101e0830151600b850155610200830151600c850155610220830151600d85015561024090920151600e90930192909255604080519383168452939091166020830152606435928201929092529035907f0dd968c277d9dc6b36b6ec2b638324c3d937882c64ca109440bc050ebf26cb0790606090a2602060405160018152f35b634e487b7160e01b81526021600452602490fd5b634e487b7160e01b89526041600452602489fd5b634e487b7160e01b87526011600452602487fd5b823b15610e28576040516323b872dd60e01b81526001600160a01b0388166004820152306024820152604481018590525f8160648183885af18015610e1d57610e08575b50610af2565b610e159196505f9061188c565b5f945f610e02565b6040513d5f823e3d90fd5b5f80fd5b426101243511610aec5760405162461bcd60e51b815260206004820152600c60248201526b42616420646561646c696e6560a01b6044820152606490fd5b60405162461bcd60e51b815260206004820152601460248201527327b7363c9039b2b63632b91037b91030b236b4b760611b6044820152606490fd5b50610eaf611b2e565b6008546001600160a01b03918216911614610ade565b60405162461bcd60e51b815260206004820152601060248201526f125b9d985b1a5908191a5cd8dbdd5b9d60821b6044820152606490fd5b60405162461bcd60e51b815260206004820152600e60248201526d125b9d985b1a5908185b5bdd5b9d60921b6044820152606490fd5b60405162461bcd60e51b815260206004820152600d60248201526c457363726f772065786973747360981b6044820152606490fd5b34610e28576040366003190112610e2857600435602435801515808203610e28576007546001600160a01b03166020610f9f611b2e565b604051639f6bd2a960e01b81526001600160a01b03909116600482015291829060249082905afa908115610e1d575f916112f5575b50156112bf57825f52600460205260405f209160ff600484015460b01c161561128d57835f52600560205260405f2061100b611b2e565b60018060a01b03165f5260205260ff60405f20541661126057835f52600560205260405f20611038611b2e565b6001600160a01b03165f90815260209190915260409020805460ff191660011790551561124b57600b820161106d81546118da565b90555b827f3d3c0d41b9416af70d3a4a984a7d1b35c950b5ba7e61f38baa362961d4dff2e860206001600160a01b036110a4611b2e565b1693604051908152a3600a81015460011c906001820180921161123757600b81015482116111875750506110d66119a2565b805f52600460205261117060405f2091600483019060ff60b01b1982541682557f87a706357fd6156692da2afe6f82239426dd27f4cb9b46e0e3a1c5d308377fc86060600b860154600c870154604051916001835260208301526040820152a254600383018054600285015491949261115c92916001600160a01b0390811691166119c0565b60018101546001600160a01b031630611a58565b805460ff60a01b1916600360a01b17905560015f55005b600c0154101561119357005b61119b6119a2565b805f52600460205260405f20906004820160ff60b01b1981541690557f87a706357fd6156692da2afe6f82239426dd27f4cb9b46e0e3a1c5d308377fc86060600b840154600c850154604051915f835260208301526040820152a26001810154600382018054600284015491936111709390926112269290916001600160a01b0391821691166119c0565b80546001600160a01b031630611a58565b634e487b7160e01b5f52601160045260245ffd5b600c820161125981546118da565b9055611070565b60405162461bcd60e51b8152602060048201526005602482015264159bdd195960da1b6044820152606490fd5b60405162461bcd60e51b815260206004820152600a6024820152694e6f206469737075746560b01b6044820152606490fd5b60405162461bcd60e51b815260206004820152600e60248201526d2737ba1030b93134ba3930ba37b960911b6044820152606490fd5b61130e915060203d602011610709576106fa818361188c565b84610fd4565b34610e28575f366003190112610e2857602060ff600154166040519015158152f35b34610e28576020366003190112610e28576020611351611804565b6040517f00000000000000000000000000000000000000000000000000000000000000006001600160a01b039081169216919091148152f35b34610e28576020366003190112610e28576004356113a66119a2565b805f526004602052600460405f206113bc611b2e565b81546001600160a01b039081169116811480156114c8575b6113dd90611854565b6001600160a01b036113ed611b2e565b16036114af57808201805460ff60a01b1916600160a01b1790555b015460ff8160a01c1690816114a1575b50611424575b60015f55005b5f81815260046020908152604090912080546003820180546002840180547f9410e7c5b50451e4b5bd5ce113fd48abebd7070eb9d080df08b115b7cdc41650969591946114829361115c92916001600160a01b0391821691166119c0565b805460ff60a01b1916600360a01b17905554604051908152a28061141e565b60ff915060a81c1682611418565b808201805460ff60a81b1916600160a81b179055611408565b506113dd6114d4611b2e565b60018401546001600160a01b0391821691161490506113d4565b34610e28575f366003190112610e28576007546040516001600160a01b039091168152602090f35b34610e28576020366003190112610e28576004355f52600460205260405f20600160a01b60019003815416600160a01b60019003600183015416906002830154926003810154938460a01c60ff1694600483015495600160a01b6001900360058501541660068501546007860154600160a01b6001900360088801541691600988015493600a89015495600b8a015497600c8b015499600d8c01549b600e01549c6040519e8f918252602082015260400152600160a01b600190031660608d01526005811015611660576102609c60ff9160808e01528c60a0600180821b0383169101528c60c0838360a01c1615159101528c60e0838360a81c16151591015260b01c1615156101008c01526101208b01526101408a01526101608901526101808801526101a08701526101c08601526101e0850152610200840152610220830152610240820152f35b634e487b7160e01b5f52602160045260245ffd5b34610e28576080366003190112610e285761168d611804565b5061169661181a565b5060643567ffffffffffffffff8111610e285736602382011215610e2857806004013567ffffffffffffffff8111610e285736910160240111610e2857604051630a85bd0160e11b8152602090f35b34610e28576020366003190112610e28576004356117016119a2565b805f52600460205260405f20600781015442106117d1578060ff600461173c93015460a81c166117a55780546001600160a01b031630611a58565b5f5260046020525f600e6040822082815582600182015582600282015582600382015582600482015582600582015582600682015582600782015582600882015582600982015582600a82015582600b82015582600c82015582600d820155015560015f555f80f35b6001810154600382015460028301546117cc9290916001600160a01b0390811691166119c0565b611226565b60405162461bcd60e51b815260206004820152600b60248201526a139bdd08195e1c1a5c995960aa1b6044820152606490fd5b600435906001600160a01b0382168203610e2857565b602435906001600160a01b0382168203610e2857565b805180835260209291819084018484015e5f828201840152601f01601f1916010190565b1561185b57565b60405162461bcd60e51b81526020600482015260096024820152684e6f7420706172747960b81b6044820152606490fd5b90601f8019910116810190811067ffffffffffffffff8211176118ae57604052565b634e487b7160e01b5f52604160045260245ffd5b90816020910312610e2857518015158103610e285790565b5f1981146112375760010190565b156118ef57565b60405162461bcd60e51b815260206004820152600e60248201526d20b1b1b7bab73a10333937bd32b760911b6044820152606490fd5b1561192c57565b60405162461bcd60e51b815260206004820152601060248201526f12d650c81b9bdd081d995c9a599a595960821b6044820152606490fd5b1561196b57565b60405162461bcd60e51b815260206004820152600f60248201526e139bc81a59195b9d1a5d1e4814d095608a1b6044820152606490fd5b60025f54146119b15760025f55565b633ee5aeb560e01b5f5260045ffd5b906001600160a01b0316806119fb57505f8080938193829082156119f1575b6001600160a01b031690f115610e1d57565b6108fc91506119df565b60405163a9059cbb60e01b81526001600160a01b03929092166004830152602482019290925290602090829060449082905f905af18015610e1d57611a3d5750565b611a559060203d602011610709576106fa818361188c565b50565b6008830154919290916001600160a01b03169081611a77575b50505050565b6009015490803b15610e28576040516323b872dd60e01b81526001600160a01b03938416600482015293909216602484015260448301525f908290606490829084905af18015610e1d57611ace575b808080611a71565b5f611ad89161188c565b5f611ac6565b600d8101549081151580611b20575b611afa5760029150015490565b600201549080820290828204148215171561123757612710900481039081116112375790565b50600e810154421115611aed565b601436101580611b55575b15611b51576013193601368111610e28573560601c90565b3390565b50337f00000000000000000000000000000000000000000000000000000000000000006001600160a01b031614611b39565b60ff8114611bcd5760ff811690601f8211611bbe5760405191611bab60408461188c565b6020808452838101919036833783525290565b632cd44ac360e21b5f5260045ffd5b506040515f6002548060011c9160018216918215611ca6575b602084108314611c92578385528492908115611c735750600114611c14575b611c119250038261188c565b90565b5060025f90815290917f405787fa12a823e0f2b7631cc41b3ba8828b3321ca811111fa75cd3aa3bb5ace5b818310611c57575050906020611c1192820101611c05565b6020919350806001915483858801015201910190918392611c3f565b60209250611c1194915060ff191682840152151560051b820101611c05565b634e487b7160e01b5f52602260045260245ffd5b92607f1692611be6565b60ff8114611cd45760ff811690601f8211611bbe5760405191611bab60408461188c565b506040515f6003548060011c9160018216918215611d76575b602084108314611c92578385528492908115611c735750600114611d1757611c119250038261188c565b5060035f90815290917fc2575a0e9e593c00f959f8c92f12db2869c3395a3b0502d05e2516446f71f85b5b818310611d5a575050906020611c1192820101611c05565b6020919350806001915483858801015201910190918392611d42565b92607f1692611ced56fea26469706673582212203c0ee7f1916ee1a322b831704936d665f06874a087799526e4deeff92dac1efa64736f6c634300081c0033",
  "linkReferences": {},
  "deployedLinkReferences": {}
}