{
  "_format": "hh-sol-artifact-1",
  "contractName": "FinancingManager",
  "sourceName": "contracts/FinancingManager.sol",
  "abi": [
    {
      "inputs": [
        {
          "internalType": "address",
          "name": "_fractionToken",
          "type": "address"
        },
        {
          "internalType": "address",
          "name": "_stablecoin",
          "type": "address"
        },
        {
          "internalType": "address",
          "name": "_feeWallet",
          "type": "address"
        },
        {
          "internalType": "uint256",
          "name": "_stablecoinDecimals",
          "type": "uint256"
        }
      ],
      "stateMutability": "nonpayable",
      "type": "constructor"
    },
    {
      "inputs": [
        {
          "internalType": "address",
          "name": "owner",
          "type": "address"
        }
      ],
      "name": "OwnableInvalidOwner",
      "type": "error"
    },
    {
      "inputs": [
        {
          "internalType": "address",
          "name": "account",
          "type": "address"
        }
      ],
      "name": "OwnableUnauthorizedAccount",
      "type": "error"
    },
    {
      "inputs": [],
      "name": "ReentrancyGuardReentrantCall",
      "type": "error"
    },
    {
      "inputs": [
        {
          "internalType": "address",
          "name": "token",
          "type": "address"
        }
      ],
      "name": "SafeERC20FailedOperation",
      "type": "error"
    },
    {
      "anonymous": false,
      "inputs": [
        {
          "indexed": false,
          "internalType": "address",
          "name": "newFractionToken",
          "type": "address"
        },
        {
          "indexed": false,
          "internalType": "address",
          "name": "newStablecoin",
          "type": "address"
        },
        {
          "indexed": false,
          "internalType": "address",
          "name": "newFeeWallet",
          "type": "address"
        }
      ],
      "name": "ContractsUpdated",
      "type": "event"
    },
    {
      "anonymous": false,
      "inputs": [
        {
          "indexed": true,
          "internalType": "uint256",
          "name": "tokenId",
          "type": "uint256"
        },
        {
          "indexed": true,
          "internalType": "address",
          "name": "buyer",
          "type": "address"
        },
        {
          "indexed": true,
          "internalType": "address",
          "name": "seller",
          "type": "address"
        },
        {
          "indexed": false,
          "internalType": "uint256",
          "name": "tokenAmount",
          "type": "uint256"
        },
        {
          "indexed": false,
          "internalType": "uint256",
          "name": "platformFee",
          "type": "uint256"
        }
      ],
      "name": "FractionsPurchased",
      "type": "event"
    },
    {
      "anonymous": false,
      "inputs": [
        {
          "indexed": true,
          "internalType": "address",
          "name": "previousOwner",
          "type": "address"
        },
        {
          "indexed": true,
          "internalType": "address",
          "name": "newOwner",
          "type": "address"
        }
      ],
      "name": "OwnershipTransferred",
      "type": "event"
    },
    {
      "anonymous": false,
      "inputs": [
        {
          "indexed": true,
          "internalType": "uint256",
          "name": "tokenId",
          "type": "uint256"
        },
        {
          "indexed": false,
          "internalType": "uint256",
          "name": "newSpreadBps",
          "type": "uint256"
        }
      ],
      "name": "SpreadUpdated",
      "type": "event"
    },
    {
      "inputs": [
        {
          "internalType": "uint256",
          "name": "_tokenId",
          "type": "uint256"
        },
        {
          "internalType": "uint256",
          "name": "_tokenAmount",
          "type": "uint256"
        }
      ],
      "name": "buyFractions",
      "outputs": [],
      "stateMutability": "nonpayable",
      "type": "function"
    },
    {
      "inputs": [
        {
          "internalType": "uint256",
          "name": "_tokenId",
          "type": "uint256"
        },
        {
          "internalType": "uint256",
          "name": "_tokenAmount",
          "type": "uint256"
        }
      ],
      "name": "buyFractionsNative",
      "outputs": [],
      "stateMutability": "payable",
      "type": "function"
    },
    {
      "inputs": [],
      "name": "feeWallet",
      "outputs": [
        {
          "internalType": "address",
          "name": "",
          "type": "address"
        }
      ],
      "stateMutability": "view",
      "type": "function"
    },
    {
      "inputs": [],
      "name": "fractionToken",
      "outputs": [
        {
          "internalType": "contract IFractionToken",
          "name": "",
          "type": "address"
        }
      ],
      "stateMutability": "view",
      "type": "function"
    },
    {
      "inputs": [
        {
          "internalType": "uint256",
          "name": "",
          "type": "uint256"
        }
      ],
      "name": "invoiceSpreadBps",
      "outputs": [
        {
          "internalType": "uint256",
          "name": "",
          "type": "uint256"
        }
      ],
      "stateMutability": "view",
      "type": "function"
    },
    {
      "inputs": [],
      "name": "owner",
      "outputs": [
        {
          "internalType": "address",
          "name": "",
          "type": "address"
        }
      ],
      "stateMutability": "view",
      "type": "function"
    },
    {
      "inputs": [],
      "name": "renounceOwnership",
      "outputs": [],
      "stateMutability": "nonpayable",
      "type": "function"
    },
    {
      "inputs": [
        {
          "internalType": "address",
          "name": "_fractionToken",
          "type": "address"
        },
        {
          "internalType": "address",
          "name": "_stablecoin",
          "type": "address"
        },
        {
          "internalType": "address",
          "name": "_feeWallet",
          "type": "address"
        }
      ],
      "name": "setContracts",
      "outputs": [],
      "stateMutability": "nonpayable",
      "type": "function"
    },
    {
      "inputs": [
        {
          "internalType": "uint256",
          "name": "_tokenId",
          "type": "uint256"
        },
        {
          "internalType": "uint256",
          "name": "_spreadBps",
          "type": "uint256"
        }
      ],
      "name": "setInvoiceSpread",
      "outputs": [],
      "stateMutability": "nonpayable",
      "type": "function"
    },
    {
      "inputs": [],
      "name": "stablecoin",
      "outputs": [
        {
          "internalType": "contract IERC20",
          "name": "",
          "type": "address"
        }
      ],
      "stateMutability": "view",
      "type": "function"
    },
    {
      "inputs": [],
      "name": "stablecoinDecimals",
      "outputs": [
        {
          "internalType": "uint256",
          "name": "",
          "type": "uint256"
        }
      ],
      "stateMutability": "view",
      "type": "function"
    },
    {
      "inputs": [
        {
          "internalType": "address",
          "name": "newOwner",
          "type": "address"
        }
      ],
      "name": "transferOwnership",
      "outputs": [],
      "stateMutability": "nonpayable",
      "type": "function"
    }
  ],
  "bytecode": "0x60806040523480156200001157600080fd5b506040516200262a3803806200262a833981810160405281019062000037919062000427565b33600073ffffffffffffffffffffffffffffffffffffffff168173ffffffffffffffffffffffffffffffffffffffff1603620000ad5760006040517f1e4fbdf7000000000000000000000000000000000000000000000000000000008152600401620000a49190620004aa565b60405180910390fd5b620000be81620002be60201b60201c565b5060018081905550600073ffffffffffffffffffffffffffffffffffffffff168473ffffffffffffffffffffffffffffffffffffffff1614158015620001315750600073ffffffffffffffffffffffffffffffffffffffff168373ffffffffffffffffffffffffffffffffffffffff1614155b80156200016b5750600073ffffffffffffffffffffffffffffffffffffffff168273ffffffffffffffffffffffffffffffffffffffff1614155b620001ad576040517f08c379a0000000000000000000000000000000000000000000000000000000008152600401620001a49062000528565b60405180910390fd5b83600260006101000a81548173ffffffffffffffffffffffffffffffffffffffff021916908373ffffffffffffffffffffffffffffffffffffffff16021790555082600360006101000a81548173ffffffffffffffffffffffffffffffffffffffff021916908373ffffffffffffffffffffffffffffffffffffffff16021790555081600460006101000a81548173ffffffffffffffffffffffffffffffffffffffff021916908373ffffffffffffffffffffffffffffffffffffffff160217905550806005819055507fe008bc55cceb8bb7dc36a3bbaa95481f36a3537e2b4cdc39770a19cf94e754a5848484604051620002ac939291906200054a565b60405180910390a15050505062000587565b60008060009054906101000a900473ffffffffffffffffffffffffffffffffffffffff169050816000806101000a81548173ffffffffffffffffffffffffffffffffffffffff021916908373ffffffffffffffffffffffffffffffffffffffff1602179055508173ffffffffffffffffffffffffffffffffffffffff168173ffffffffffffffffffffffffffffffffffffffff167f8be0079c531659141344cd1fd0a4f28419497f9722a3daafe3b4186f6b6457e060405160405180910390a35050565b600080fd5b600073ffffffffffffffffffffffffffffffffffffffff82169050919050565b6000620003b48262000387565b9050919050565b620003c681620003a7565b8114620003d257600080fd5b50565b600081519050620003e681620003bb565b92915050565b6000819050919050565b6200040181620003ec565b81146200040d57600080fd5b50565b6000815190506200042181620003f6565b92915050565b6000806000806080858703121562000444576200044362000382565b5b60006200045487828801620003d5565b94505060206200046787828801620003d5565b93505060406200047a87828801620003d5565b92505060606200048d8782880162000410565b91505092959194509250565b620004a481620003a7565b82525050565b6000602082019050620004c1600083018462000499565b92915050565b600082825260208201905092915050565b7f496e76616c696420616464726573736573000000000000000000000000000000600082015250565b600062000510601183620004c7565b91506200051d82620004d8565b602082019050919050565b60006020820190508181036000830152620005438162000501565b9050919050565b600060608201905062000561600083018662000499565b62000570602083018562000499565b6200057f604083018462000499565b949350505050565b61209380620005976000396000f3fe6080604052600436106100a75760003560e01c8063bdaf3f9911610064578063bdaf3f99146101a8578063e9cbd822146101c4578063ea370276146101ef578063f25f4b5614610218578063f2fde38b14610243578063f347f5051461026c576100a7565b80631ac5023f146100ac578063457dfc67146100e9578063715018a6146101145780638da5cb5b1461012b578063afdcfda114610156578063b3066d491461017f575b600080fd5b3480156100b857600080fd5b506100d360048036038101906100ce919061132e565b610297565b6040516100e0919061136a565b60405180910390f35b3480156100f557600080fd5b506100fe6102af565b60405161010b9190611404565b60405180910390f35b34801561012057600080fd5b506101296102d5565b005b34801561013757600080fd5b506101406102e9565b60405161014d9190611440565b60405180910390f35b34801561016257600080fd5b5061017d6004803603810190610178919061145b565b610312565b005b34801561018b57600080fd5b506101a660048036038101906101a191906114c7565b6103b2565b005b6101c260048036038101906101bd919061145b565b61059f565b005b3480156101d057600080fd5b506101d9610a98565b6040516101e6919061153b565b60405180910390f35b3480156101fb57600080fd5b506102166004803603810190610211919061145b565b610abe565b005b34801561022457600080fd5b5061022d610ef2565b60405161023a9190611440565b60405180910390f35b34801561024f57600080fd5b5061026a60048036038101906102659190611556565b610f18565b005b34801561027857600080fd5b50610281610f9e565b60405161028e919061136a565b60405180910390f35b60066020528060005260406000206000915090505481565b600260009054906101000a900473ffffffffffffffffffffffffffffffffffffffff1681565b6102dd610fa4565b6102e7600061102b565b565b60008060009054906101000a900473ffffffffffffffffffffffffffffffffffffffff16905090565b61031a610fa4565b612710811061035e576040517f08c379a000000000000000000000000000000000000000000000000000000000815260040161035590611606565b60405180910390fd5b806006600084815260200190815260200160002081905550817ff1dd40af50044c9e71928f1e31ac462e53f9af4cb0279ca9f29e9adff0218b96826040516103a6919061136a565b60405180910390a25050565b6103ba610fa4565b600073ffffffffffffffffffffffffffffffffffffffff168373ffffffffffffffffffffffffffffffffffffffff16141580156104245750600073ffffffffffffffffffffffffffffffffffffffff168273ffffffffffffffffffffffffffffffffffffffff1614155b801561045d5750600073ffffffffffffffffffffffffffffffffffffffff168173ffffffffffffffffffffffffffffffffffffffff1614155b61049c576040517f08c379a000000000000000000000000000000000000000000000000000000000815260040161049390611672565b60405180910390fd5b82600260006101000a81548173ffffffffffffffffffffffffffffffffffffffff021916908373ffffffffffffffffffffffffffffffffffffffff16021790555081600360006101000a81548173ffffffffffffffffffffffffffffffffffffffff021916908373ffffffffffffffffffffffffffffffffffffffff16021790555080600460006101000a81548173ffffffffffffffffffffffffffffffffffffffff021916908373ffffffffffffffffffffffffffffffffffffffff1602179055507fe008bc55cceb8bb7dc36a3bbaa95481f36a3537e2b4cdc39770a19cf94e754a583838360405161059293929190611692565b60405180910390a1505050565b6105a76110ef565b600081116105ea576040517f08c379a00000000000000000000000000000000000000000000000000000000081526004016105e190611715565b60405180910390fd5b80341461062c576040517f08c379a0000000000000000000000000000000000000000000000000000000008152600401610623906117a7565b60405180910390fd5b6000600260009054906101000a900473ffffffffffffffffffffffffffffffffffffffff1673ffffffffffffffffffffffffffffffffffffffff1663fc314e31846040518263ffffffff1660e01b8152600401610689919061136a565b60e060405180830381865afa1580156106a6573d6000803e3d6000fd5b505050506040513d601f19601f820116820180604052508101906106ca91906119a4565b905060008160a001519050600060066000868152602001908152602001600020549050600073ffffffffffffffffffffffffffffffffffffffff168273ffffffffffffffffffffffffffffffffffffffff160361075c576040517f08c379a000000000000000000000000000000000000000000000000000000000815260040161075390611a1d565b60405180910390fd5b61271081106107a0576040517f08c379a000000000000000000000000000000000000000000000000000000000815260040161079790611a89565b60405180910390fd5b600061271082866107b19190611ad8565b6107bb9190611b49565b9050600081866107cb9190611b7a565b905060008111610810576040517f08c379a000000000000000000000000000000000000000000000000000000000815260040161080790611c20565b60405180910390fd5b600260009054906101000a900473ffffffffffffffffffffffffffffffffffffffff1673ffffffffffffffffffffffffffffffffffffffff1663f242432a85338a8a6040518563ffffffff1660e01b81526004016108719493929190611c77565b600060405180830381600087803b15801561088b57600080fd5b505af115801561089f573d6000803e3d6000fd5b5050505060008473ffffffffffffffffffffffffffffffffffffffff16826040516108c990611cfd565b60006040518083038185875af1925050503d8060008114610906576040519150601f19603f3d011682016040523d82523d6000602084013e61090b565b606091505b505090508061094f576040517f08c379a000000000000000000000000000000000000000000000000000000000815260040161094690611d5e565b60405180910390fd5b6000600460009054906101000a900473ffffffffffffffffffffffffffffffffffffffff1673ffffffffffffffffffffffffffffffffffffffff168460405161099790611cfd565b60006040518083038185875af1925050503d80600081146109d4576040519150601f19603f3d011682016040523d82523d6000602084013e6109d9565b606091505b5050905080610a1d576040517f08c379a0000000000000000000000000000000000000000000000000000000008152600401610a1490611dca565b60405180910390fd5b8573ffffffffffffffffffffffffffffffffffffffff163373ffffffffffffffffffffffffffffffffffffffff168a7f513683548cbdae0859e34a5d5ed80fbee97ac460d4b87a621410c574ed1a67508b88604051610a7d929190611dea565b60405180910390a450505050505050610a94611135565b5050565b600360009054906101000a900473ffffffffffffffffffffffffffffffffffffffff1681565b610ac66110ef565b60008111610b09576040517f08c379a0000000000000000000000000000000000000000000000000000000008152600401610b0090611715565b60405180910390fd5b6000600260009054906101000a900473ffffffffffffffffffffffffffffffffffffffff1673ffffffffffffffffffffffffffffffffffffffff1663fc314e31846040518263ffffffff1660e01b8152600401610b66919061136a565b60e060405180830381865afa158015610b83573d6000803e3d6000fd5b505050506040513d601f19601f82011682018060405250810190610ba791906119a4565b905060008160a001519050600060066000868152602001908152602001600020549050600073ffffffffffffffffffffffffffffffffffffffff168273ffffffffffffffffffffffffffffffffffffffff1603610c39576040517f08c379a0000000000000000000000000000000000000000000000000000000008152600401610c3090611a1d565b60405180910390fd5b6000670de0b6b3a7640000600554600a610c539190611f46565b86610c5e9190611ad8565b610c689190611b49565b905060008111610cad576040517f08c379a0000000000000000000000000000000000000000000000000000000008152600401610ca490611fdd565b60405180910390fd5b60006127108383610cbe9190611ad8565b610cc89190611b49565b905060008183610cd89190611b7a565b9050610d29333085600360009054906101000a900473ffffffffffffffffffffffffffffffffffffffff1673ffffffffffffffffffffffffffffffffffffffff1661113e909392919063ffffffff16565b600260009054906101000a900473ffffffffffffffffffffffffffffffffffffffff1673ffffffffffffffffffffffffffffffffffffffff1663f242432a86338b8b6040518563ffffffff1660e01b8152600401610d8a9493929190611c77565b600060405180830381600087803b158015610da457600080fd5b505af1158015610db8573d6000803e3d6000fd5b50505050610e098582600360009054906101000a900473ffffffffffffffffffffffffffffffffffffffff1673ffffffffffffffffffffffffffffffffffffffff166111c09092919063ffffffff16565b610e78600460009054906101000a900473ffffffffffffffffffffffffffffffffffffffff1683600360009054906101000a900473ffffffffffffffffffffffffffffffffffffffff1673ffffffffffffffffffffffffffffffffffffffff166111c09092919063ffffffff16565b8473ffffffffffffffffffffffffffffffffffffffff163373ffffffffffffffffffffffffffffffffffffffff16897f513683548cbdae0859e34a5d5ed80fbee97ac460d4b87a621410c574ed1a67508a86604051610ed8929190611dea565b60405180910390a4505050505050610eee611135565b5050565b600460009054906101000a900473ffffffffffffffffffffffffffffffffffffffff1681565b610f20610fa4565b600073ffffffffffffffffffffffffffffffffffffffff168173ffffffffffffffffffffffffffffffffffffffff1603610f925760006040517f1e4fbdf7000000000000000000000000000000000000000000000000000000008152600401610f899190611440565b60405180910390fd5b610f9b8161102b565b50565b60055481565b610fac61123f565b73ffffffffffffffffffffffffffffffffffffffff16610fca6102e9565b73ffffffffffffffffffffffffffffffffffffffff161461102957610fed61123f565b6040517f118cdaa70000000000000000000000000000000000000000000000000000000081526004016110209190611440565b60405180910390fd5b565b60008060009054906101000a900473ffffffffffffffffffffffffffffffffffffffff169050816000806101000a81548173ffffffffffffffffffffffffffffffffffffffff021916908373ffffffffffffffffffffffffffffffffffffffff1602179055508173ffffffffffffffffffffffffffffffffffffffff168173ffffffffffffffffffffffffffffffffffffffff167f8be0079c531659141344cd1fd0a4f28419497f9722a3daafe3b4186f6b6457e060405160405180910390a35050565b60026001540361112b576040517f3ee5aeb500000000000000000000000000000000000000000000000000000000815260040160405180910390fd5b6002600181905550565b60018081905550565b6111ba848573ffffffffffffffffffffffffffffffffffffffff166323b872dd86868660405160240161117393929190611ffd565b604051602081830303815290604052915060e01b6020820180517bffffffffffffffffffffffffffffffffffffffffffffffffffffffff8381831617835250505050611247565b50505050565b61123a838473ffffffffffffffffffffffffffffffffffffffff1663a9059cbb85856040516024016111f3929190612034565b604051602081830303815290604052915060e01b6020820180517bffffffffffffffffffffffffffffffffffffffffffffffffffffffff8381831617835250505050611247565b505050565b600033905090565b600080602060008451602086016000885af18061126a576040513d6000823e3d81fd5b3d9250600051915050600082146112855760018114156112a1565b60008473ffffffffffffffffffffffffffffffffffffffff163b145b156112e357836040517f5274afe70000000000000000000000000000000000000000000000000000000081526004016112da9190611440565b60405180910390fd5b50505050565b6000604051905090565b600080fd5b6000819050919050565b61130b816112f8565b811461131657600080fd5b50565b60008135905061132881611302565b92915050565b600060208284031215611344576113436112f3565b5b600061135284828501611319565b91505092915050565b611364816112f8565b82525050565b600060208201905061137f600083018461135b565b92915050565b600073ffffffffffffffffffffffffffffffffffffffff82169050919050565b6000819050919050565b60006113ca6113c56113c084611385565b6113a5565b611385565b9050919050565b60006113dc826113af565b9050919050565b60006113ee826113d1565b9050919050565b6113fe816113e3565b82525050565b600060208201905061141960008301846113f5565b92915050565b600061142a82611385565b9050919050565b61143a8161141f565b82525050565b60006020820190506114556000830184611431565b92915050565b60008060408385031215611472576114716112f3565b5b600061148085828601611319565b925050602061149185828601611319565b9150509250929050565b6114a48161141f565b81146114af57600080fd5b50565b6000813590506114c18161149b565b92915050565b6000806000606084860312156114e0576114df6112f3565b5b60006114ee868287016114b2565b93505060206114ff868287016114b2565b9250506040611510868287016114b2565b9150509250925092565b6000611525826113d1565b9050919050565b6115358161151a565b82525050565b6000602082019050611550600083018461152c565b92915050565b60006020828403121561156c5761156b6112f3565b5b600061157a848285016114b2565b91505092915050565b600082825260208201905092915050565b7f537072656164206d757374206265206c657373207468616e203130303030204260008201527f5053202831303025290000000000000000000000000000000000000000000000602082015250565b60006115f0602983611583565b91506115fb82611594565b604082019050919050565b6000602082019050818103600083015261161f816115e3565b9050919050565b7f496e76616c696420616464726573736573000000000000000000000000000000600082015250565b600061165c601183611583565b915061166782611626565b602082019050919050565b6000602082019050818103600083015261168b8161164f565b9050919050565b60006060820190506116a76000830186611431565b6116b46020830185611431565b6116c16040830184611431565b949350505050565b7f416d6f756e74206d75737420626520706f736974697665000000000000000000600082015250565b60006116ff601783611583565b915061170a826116c9565b602082019050919050565b6000602082019050818103600083015261172e816116f2565b9050919050565b7f4e61746976652063757272656e637920616d6f756e74206d757374206d61746360008201527f6820746f6b656e20616d6f756e74000000000000000000000000000000000000602082015250565b6000611791602e83611583565b915061179c82611735565b604082019050919050565b600060208201905081810360008301526117c081611784565b9050919050565b600080fd5b6000601f19601f8301169050919050565b7f4e487b7100000000000000000000000000000000000000000000000000000000600052604160045260246000fd5b611815826117cc565b810181811067ffffffffffffffff82111715611834576118336117dd565b5b80604052505050565b60006118476112e9565b9050611853828261180c565b919050565b6000819050919050565b61186b81611858565b811461187657600080fd5b50565b60008151905061188881611862565b92915050565b60008151905061189d81611302565b92915050565b6000815190506118b28161149b565b92915050565b60008115159050919050565b6118cd816118b8565b81146118d857600080fd5b50565b6000815190506118ea816118c4565b92915050565b600060e08284031215611906576119056117c7565b5b61191060e061183d565b9050600061192084828501611879565b60008301525060206119348482850161188e565b60208301525060406119488482850161188e565b604083015250606061195c8482850161188e565b60608301525060806119708482850161188e565b60808301525060a0611984848285016118a3565b60a08301525060c0611998848285016118db565b60c08301525092915050565b600060e082840312156119ba576119b96112f3565b5b60006119c8848285016118f0565b91505092915050565b7f496e76616c696420746f6b656e204944206f7220697373756572000000000000600082015250565b6000611a07601a83611583565b9150611a12826119d1565b602082019050919050565b60006020820190508181036000830152611a36816119fa565b9050919050565b7f537072656164206e6f7420736574206f7220696e76616c696400000000000000600082015250565b6000611a73601983611583565b9150611a7e82611a3d565b602082019050919050565b60006020820190508181036000830152611aa281611a66565b9050919050565b7f4e487b7100000000000000000000000000000000000000000000000000000000600052601160045260246000fd5b6000611ae3826112f8565b9150611aee836112f8565b9250828202611afc816112f8565b91508282048414831517611b1357611b12611aa9565b5b5092915050565b7f4e487b7100000000000000000000000000000000000000000000000000000000600052601260045260246000fd5b6000611b54826112f8565b9150611b5f836112f8565b925082611b6f57611b6e611b1a565b5b828204905092915050565b6000611b85826112f8565b9150611b90836112f8565b9250828203905081811115611ba857611ba7611aa9565b5b92915050565b7f53707265616420697320746f6f2068696768206f7220616d6f756e742069732060008201527f746f6f206c6f7700000000000000000000000000000000000000000000000000602082015250565b6000611c0a602783611583565b9150611c1582611bae565b604082019050919050565b60006020820190508181036000830152611c3981611bfd565b9050919050565b600082825260208201905092915050565b50565b6000611c61600083611c40565b9150611c6c82611c51565b600082019050919050565b600060a082019050611c8c6000830187611431565b611c996020830186611431565b611ca6604083018561135b565b611cb3606083018461135b565b8181036080830152611cc481611c54565b905095945050505050565b600081905092915050565b6000611ce7600083611ccf565b9150611cf282611c51565b600082019050919050565b6000611d0882611cda565b9150819050919050565b7f5472616e7366657220746f2073656c6c6572206661696c656400000000000000600082015250565b6000611d48601983611583565b9150611d5382611d12565b602082019050919050565b60006020820190508181036000830152611d7781611d3b565b9050919050565b7f5472616e7366657220746f206665652077616c6c6574206661696c6564000000600082015250565b6000611db4601d83611583565b9150611dbf82611d7e565b602082019050919050565b60006020820190508181036000830152611de381611da7565b9050919050565b6000604082019050611dff600083018561135b565b611e0c602083018461135b565b9392505050565b60008160011c9050919050565b6000808291508390505b6001851115611e6a57808604811115611e4657611e45611aa9565b5b6001851615611e555780820291505b8081029050611e6385611e13565b9450611e2a565b94509492505050565b600082611e835760019050611f3f565b81611e915760009050611f3f565b8160018114611ea75760028114611eb157611ee0565b6001915050611f3f565b60ff841115611ec357611ec2611aa9565b5b8360020a915084821115611eda57611ed9611aa9565b5b50611f3f565b5060208310610133831016604e8410600b8410161715611f155782820a905083811115611f1057611f0f611aa9565b5b611f3f565b611f228484846001611e20565b92509050818404811115611f3957611f38611aa9565b5b81810290505b9392505050565b6000611f51826112f8565b9150611f5c836112f8565b9250611f897fffffffffffffffffffffffffffffffffffffffffffffffffffffffffffffffff8484611e73565b905092915050565b7f5061796d656e7420616d6f756e7420746f6f20736d616c6c0000000000000000600082015250565b6000611fc7601883611583565b9150611fd282611f91565b602082019050919050565b60006020820190508181036000830152611ff681611fba565b9050919050565b60006060820190506120126000830186611431565b61201f6020830185611431565b61202c604083018461135b565b949350505050565b60006040820190506120496000830185611431565b612056602083018461135b565b939250505056fea264697066735822122064dc236f236faa26b57b3c42e37b3a667fb33f9f87b60439b583e8f2128d0d7c64736f6c63430008140033",
  "linkReferences": {},
  "deployedLinkReferences": {}
}