{
  "_format": "hh-sol-artifact-1",
  "contractName": "FinancingManager",
  "sourceName": "contracts/FinancingManager.sol",
  "abi": [
    {
      "inputs": [
        {
          "internalType": "address",
          "name": "_fractionToken",
          "type": "address"
        },
        {
          "internalType": "address",
          "name": "_stablecoin",
          "type": "address"
        },
        {
          "internalType": "address",
          "name": "_feeWallet",
          "type": "address"
        }
      ],
      "stateMutability": "nonpayable",
      "type": "constructor"
    },
    {
      "inputs": [
        {
          "internalType": "address",
          "name": "owner",
          "type": "address"
        }
      ],
      "name": "OwnableInvalidOwner",
      "type": "error"
    },
    {
      "inputs": [
        {
          "internalType": "address",
          "name": "account",
          "type": "address"
        }
      ],
      "name": "OwnableUnauthorizedAccount",
      "type": "error"
    },
    {
      "inputs": [],
      "name": "ReentrancyGuardReentrantCall",
      "type": "error"
    },
    {
      "inputs": [
        {
          "internalType": "address",
          "name": "token",
          "type": "address"
        }
      ],
      "name": "SafeERC20FailedOperation",
      "type": "error"
    },
    {
      "anonymous": false,
      "inputs": [
        {
          "indexed": false,
          "internalType": "address",
          "name": "newFractionToken",
          "type": "address"
        },
        {
          "indexed": false,
          "internalType": "address",
          "name": "newStablecoin",
          "type": "address"
        },
        {
          "indexed": false,
          "internalType": "address",
          "name": "newFeeWallet",
          "type": "address"
        }
      ],
      "name": "ContractsUpdated",
      "type": "event"
    },
    {
      "anonymous": false,
      "inputs": [
        {
          "indexed": true,
          "internalType": "uint256",
          "name": "tokenId",
          "type": "uint256"
        },
        {
          "indexed": true,
          "internalType": "address",
          "name": "buyer",
          "type": "address"
        },
        {
          "indexed": true,
          "internalType": "address",
          "name": "seller",
          "type": "address"
        },
        {
          "indexed": false,
          "internalType": "uint256",
          "name": "tokenAmount",
          "type": "uint256"
        },
        {
          "indexed": false,
          "internalType": "uint256",
          "name": "platformFee",
          "type": "uint256"
        }
      ],
      "name": "FractionsPurchased",
      "type": "event"
    },
    {
      "anonymous": false,
      "inputs": [
        {
          "indexed": true,
          "internalType": "address",
          "name": "previousOwner",
          "type": "address"
        },
        {
          "indexed": true,
          "internalType": "address",
          "name": "newOwner",
          "type": "address"
        }
      ],
      "name": "OwnershipTransferred",
      "type": "event"
    },
    {
      "anonymous": false,
      "inputs": [
        {
          "indexed": true,
          "internalType": "uint256",
          "name": "tokenId",
          "type": "uint256"
        },
        {
          "indexed": false,
          "internalType": "uint256",
          "name": "newSpreadBps",
          "type": "uint256"
        }
      ],
      "name": "SpreadUpdated",
      "type": "event"
    },
    {
      "inputs": [
        {
          "internalType": "uint256",
          "name": "_tokenId",
          "type": "uint256"
        },
        {
          "internalType": "uint256",
          "name": "_tokenAmount",
          "type": "uint256"
        }
      ],
      "name": "buyFractions",
      "outputs": [],
      "stateMutability": "nonpayable",
      "type": "function"
    },
    {
      "inputs": [
        {
          "internalType": "uint256",
          "name": "_tokenId",
          "type": "uint256"
        },
        {
          "internalType": "uint256",
          "name": "_tokenAmount",
          "type": "uint256"
        }
      ],
      "name": "buyFractionsNative",
      "outputs": [],
      "stateMutability": "payable",
      "type": "function"
    },
    {
      "inputs": [],
      "name": "feeWallet",
      "outputs": [
        {
          "internalType": "address",
          "name": "",
          "type": "address"
        }
      ],
      "stateMutability": "view",
      "type": "function"
    },
    {
      "inputs": [],
      "name": "fractionToken",
      "outputs": [
        {
          "internalType": "contract IFractionToken",
          "name": "",
          "type": "address"
        }
      ],
      "stateMutability": "view",
      "type": "function"
    },
    {
      "inputs": [
        {
          "internalType": "uint256",
          "name": "",
          "type": "uint256"
        }
      ],
      "name": "invoiceSpreadBps",
      "outputs": [
        {
          "internalType": "uint256",
          "name": "",
          "type": "uint256"
        }
      ],
      "stateMutability": "view",
      "type": "function"
    },
    {
      "inputs": [],
      "name": "owner",
      "outputs": [
        {
          "internalType": "address",
          "name": "",
          "type": "address"
        }
      ],
      "stateMutability": "view",
      "type": "function"
    },
    {
      "inputs": [],
      "name": "renounceOwnership",
      "outputs": [],
      "stateMutability": "nonpayable",
      "type": "function"
    },
    {
      "inputs": [
        {
          "internalType": "address",
          "name": "_fractionToken",
          "type": "address"
        },
        {
          "internalType": "address",
          "name": "_stablecoin",
          "type": "address"
        },
        {
          "internalType": "address",
          "name": "_feeWallet",
          "type": "address"
        }
      ],
      "name": "setContracts",
      "outputs": [],
      "stateMutability": "nonpayable",
      "type": "function"
    },
    {
      "inputs": [
        {
          "internalType": "uint256",
          "name": "_tokenId",
          "type": "uint256"
        },
        {
          "internalType": "uint256",
          "name": "_spreadBps",
          "type": "uint256"
        }
      ],
      "name": "setInvoiceSpread",
      "outputs": [],
      "stateMutability": "nonpayable",
      "type": "function"
    },
    {
      "inputs": [],
      "name": "stablecoin",
      "outputs": [
        {
          "internalType": "contract IERC20",
          "name": "",
          "type": "address"
        }
      ],
      "stateMutability": "view",
      "type": "function"
    },
    {
      "inputs": [
        {
          "internalType": "address",
          "name": "newOwner",
          "type": "address"
        }
      ],
      "name": "transferOwnership",
      "outputs": [],
      "stateMutability": "nonpayable",
      "type": "function"
    }
  ],
  "bytecode": "0x60806040523480156200001157600080fd5b50604051620023bd380380620023bd8339818101604052810190620000379190620003e4565b33600073ffffffffffffffffffffffffffffffffffffffff168173ffffffffffffffffffffffffffffffffffffffff1603620000ad5760006040517f1e4fbdf7000000000000000000000000000000000000000000000000000000008152600401620000a4919062000451565b60405180910390fd5b620000be81620002b660201b60201c565b5060018081905550600073ffffffffffffffffffffffffffffffffffffffff168373ffffffffffffffffffffffffffffffffffffffff1614158015620001315750600073ffffffffffffffffffffffffffffffffffffffff168273ffffffffffffffffffffffffffffffffffffffff1614155b80156200016b5750600073ffffffffffffffffffffffffffffffffffffffff168173ffffffffffffffffffffffffffffffffffffffff1614155b620001ad576040517f08c379a0000000000000000000000000000000000000000000000000000000008152600401620001a490620004cf565b60405180910390fd5b82600260006101000a81548173ffffffffffffffffffffffffffffffffffffffff021916908373ffffffffffffffffffffffffffffffffffffffff16021790555081600360006101000a81548173ffffffffffffffffffffffffffffffffffffffff021916908373ffffffffffffffffffffffffffffffffffffffff16021790555080600460006101000a81548173ffffffffffffffffffffffffffffffffffffffff021916908373ffffffffffffffffffffffffffffffffffffffff1602179055507fe008bc55cceb8bb7dc36a3bbaa95481f36a3537e2b4cdc39770a19cf94e754a5838383604051620002a593929190620004f1565b60405180910390a15050506200052e565b60008060009054906101000a900473ffffffffffffffffffffffffffffffffffffffff169050816000806101000a81548173ffffffffffffffffffffffffffffffffffffffff021916908373ffffffffffffffffffffffffffffffffffffffff1602179055508173ffffffffffffffffffffffffffffffffffffffff168173ffffffffffffffffffffffffffffffffffffffff167f8be0079c531659141344cd1fd0a4f28419497f9722a3daafe3b4186f6b6457e060405160405180910390a35050565b600080fd5b600073ffffffffffffffffffffffffffffffffffffffff82169050919050565b6000620003ac826200037f565b9050919050565b620003be816200039f565b8114620003ca57600080fd5b50565b600081519050620003de81620003b3565b92915050565b6000806000606084860312156200040057620003ff6200037a565b5b60006200041086828701620003cd565b93505060206200042386828701620003cd565b92505060406200043686828701620003cd565b9150509250925092565b6200044b816200039f565b82525050565b600060208201905062000468600083018462000440565b92915050565b600082825260208201905092915050565b7f496e76616c696420616464726573736573000000000000000000000000000000600082015250565b6000620004b76011836200046e565b9150620004c4826200047f565b602082019050919050565b60006020820190508181036000830152620004ea81620004a8565b9050919050565b600060608201905062000508600083018662000440565b62000517602083018562000440565b62000526604083018462000440565b949350505050565b611e7f806200053e6000396000f3fe60806040526004361061009c5760003560e01c8063b3066d4911610064578063b3066d4914610174578063bdaf3f991461019d578063e9cbd822146101b9578063ea370276146101e4578063f25f4b561461020d578063f2fde38b146102385761009c565b80631ac5023f146100a1578063457dfc67146100de578063715018a6146101095780638da5cb5b14610120578063afdcfda11461014b575b600080fd5b3480156100ad57600080fd5b506100c860048036038101906100c39190611304565b610261565b6040516100d59190611340565b60405180910390f35b3480156100ea57600080fd5b506100f3610279565b60405161010091906113da565b60405180910390f35b34801561011557600080fd5b5061011e61029f565b005b34801561012c57600080fd5b506101356102b3565b6040516101429190611416565b60405180910390f35b34801561015757600080fd5b50610172600480360381019061016d9190611431565b6102dc565b005b34801561018057600080fd5b5061019b6004803603810190610196919061149d565b61037c565b005b6101b760048036038101906101b29190611431565b610569565b005b3480156101c557600080fd5b506101ce610a62565b6040516101db9190611511565b60405180910390f35b3480156101f057600080fd5b5061020b60048036038101906102069190611431565b610a88565b005b34801561021957600080fd5b50610222610ece565b60405161022f9190611416565b60405180910390f35b34801561024457600080fd5b5061025f600480360381019061025a919061152c565b610ef4565b005b60056020528060005260406000206000915090505481565b600260009054906101000a900473ffffffffffffffffffffffffffffffffffffffff1681565b6102a7610f7a565b6102b16000611001565b565b60008060009054906101000a900473ffffffffffffffffffffffffffffffffffffffff16905090565b6102e4610f7a565b6127108110610328576040517f08c379a000000000000000000000000000000000000000000000000000000000815260040161031f906115dc565b60405180910390fd5b806005600084815260200190815260200160002081905550817ff1dd40af50044c9e71928f1e31ac462e53f9af4cb0279ca9f29e9adff0218b96826040516103709190611340565b60405180910390a25050565b610384610f7a565b600073ffffffffffffffffffffffffffffffffffffffff168373ffffffffffffffffffffffffffffffffffffffff16141580156103ee5750600073ffffffffffffffffffffffffffffffffffffffff168273ffffffffffffffffffffffffffffffffffffffff1614155b80156104275750600073ffffffffffffffffffffffffffffffffffffffff168173ffffffffffffffffffffffffffffffffffffffff1614155b610466576040517f08c379a000000000000000000000000000000000000000000000000000000000815260040161045d90611648565b60405180910390fd5b82600260006101000a81548173ffffffffffffffffffffffffffffffffffffffff021916908373ffffffffffffffffffffffffffffffffffffffff16021790555081600360006101000a81548173ffffffffffffffffffffffffffffffffffffffff021916908373ffffffffffffffffffffffffffffffffffffffff16021790555080600460006101000a81548173ffffffffffffffffffffffffffffffffffffffff021916908373ffffffffffffffffffffffffffffffffffffffff1602179055507fe008bc55cceb8bb7dc36a3bbaa95481f36a3537e2b4cdc39770a19cf94e754a583838360405161055c93929190611668565b60405180910390a1505050565b6105716110c5565b600081116105b4576040517f08c379a00000000000000000000000000000000000000000000000000000000081526004016105ab906116eb565b60405180910390fd5b8034146105f6576040517f08c379a00000000000000000000000000000000000000000000000000000000081526004016105ed9061177d565b60405180910390fd5b6000600260009054906101000a900473ffffffffffffffffffffffffffffffffffffffff1673ffffffffffffffffffffffffffffffffffffffff1663fc314e31846040518263ffffffff1660e01b81526004016106539190611340565b60e060405180830381865afa158015610670573d6000803e3d6000fd5b505050506040513d601f19601f82011682018060405250810190610694919061197a565b905060008160a001519050600060056000868152602001908152602001600020549050600073ffffffffffffffffffffffffffffffffffffffff168273ffffffffffffffffffffffffffffffffffffffff1603610726576040517f08c379a000000000000000000000000000000000000000000000000000000000815260040161071d906119f3565b60405180910390fd5b612710811061076a576040517f08c379a000000000000000000000000000000000000000000000000000000000815260040161076190611a5f565b60405180910390fd5b6000612710828661077b9190611aae565b6107859190611b1f565b9050600081866107959190611b50565b9050600081116107da576040517f08c379a00000000000000000000000000000000000000000000000000000000081526004016107d190611bf6565b60405180910390fd5b600260009054906101000a900473ffffffffffffffffffffffffffffffffffffffff1673ffffffffffffffffffffffffffffffffffffffff1663f242432a85338a8a6040518563ffffffff1660e01b815260040161083b9493929190611c4d565b600060405180830381600087803b15801561085557600080fd5b505af1158015610869573d6000803e3d6000fd5b5050505060008473ffffffffffffffffffffffffffffffffffffffff168260405161089390611cd3565b60006040518083038185875af1925050503d80600081146108d0576040519150601f19603f3d011682016040523d82523d6000602084013e6108d5565b606091505b5050905080610919576040517f08c379a000000000000000000000000000000000000000000000000000000000815260040161091090611d34565b60405180910390fd5b6000600460009054906101000a900473ffffffffffffffffffffffffffffffffffffffff1673ffffffffffffffffffffffffffffffffffffffff168460405161096190611cd3565b60006040518083038185875af1925050503d806000811461099e576040519150601f19603f3d011682016040523d82523d6000602084013e6109a3565b606091505b50509050806109e7576040517f08c379a00000000000000000000000000000000000000000000000000000000081526004016109de90611da0565b60405180910390fd5b8573ffffffffffffffffffffffffffffffffffffffff163373ffffffffffffffffffffffffffffffffffffffff168a7f513683548cbdae0859e34a5d5ed80fbee97ac460d4b87a621410c574ed1a67508b88604051610a47929190611dc0565b60405180910390a450505050505050610a5e61110b565b5050565b600360009054906101000a900473ffffffffffffffffffffffffffffffffffffffff1681565b610a906110c5565b60008111610ad3576040517f08c379a0000000000000000000000000000000000000000000000000000000008152600401610aca906116eb565b60405180910390fd5b6000600260009054906101000a900473ffffffffffffffffffffffffffffffffffffffff1673ffffffffffffffffffffffffffffffffffffffff1663fc314e31846040518263ffffffff1660e01b8152600401610b309190611340565b60e060405180830381865afa158015610b4d573d6000803e3d6000fd5b505050506040513d601f19601f82011682018060405250810190610b71919061197a565b905060008160a001519050600060056000868152602001908152602001600020549050600073ffffffffffffffffffffffffffffffffffffffff168273ffffffffffffffffffffffffffffffffffffffff1603610c03576040517f08c379a0000000000000000000000000000000000000000000000000000000008152600401610bfa906119f3565b60405180910390fd5b6127108110610c47576040517f08c379a0000000000000000000000000000000000000000000000000000000008152600401610c3e90611a5f565b60405180910390fd5b60006127108286610c589190611aae565b610c629190611b1f565b905060008186610c729190611b50565b905060008111610cb7576040517f08c379a0000000000000000000000000000000000000000000000000000000008152600401610cae90611bf6565b60405180910390fd5b610d06333088600360009054906101000a900473ffffffffffffffffffffffffffffffffffffffff1673ffffffffffffffffffffffffffffffffffffffff16611114909392919063ffffffff16565b600260009054906101000a900473ffffffffffffffffffffffffffffffffffffffff1673ffffffffffffffffffffffffffffffffffffffff1663f242432a85338a8a6040518563ffffffff1660e01b8152600401610d679493929190611c4d565b600060405180830381600087803b158015610d8157600080fd5b505af1158015610d95573d6000803e3d6000fd5b50505050610de68482600360009054906101000a900473ffffffffffffffffffffffffffffffffffffffff1673ffffffffffffffffffffffffffffffffffffffff166111969092919063ffffffff16565b610e55600460009054906101000a900473ffffffffffffffffffffffffffffffffffffffff1683600360009054906101000a900473ffffffffffffffffffffffffffffffffffffffff1673ffffffffffffffffffffffffffffffffffffffff166111969092919063ffffffff16565b8373ffffffffffffffffffffffffffffffffffffffff163373ffffffffffffffffffffffffffffffffffffffff16887f513683548cbdae0859e34a5d5ed80fbee97ac460d4b87a621410c574ed1a67508986604051610eb5929190611dc0565b60405180910390a45050505050610eca61110b565b5050565b600460009054906101000a900473ffffffffffffffffffffffffffffffffffffffff1681565b610efc610f7a565b600073ffffffffffffffffffffffffffffffffffffffff168173ffffffffffffffffffffffffffffffffffffffff1603610f6e5760006040517f1e4fbdf7000000000000000000000000000000000000000000000000000000008152600401610f659190611416565b60405180910390fd5b610f7781611001565b50565b610f82611215565b73ffffffffffffffffffffffffffffffffffffffff16610fa06102b3565b73ffffffffffffffffffffffffffffffffffffffff1614610fff57610fc3611215565b6040517f118cdaa7000000000000000000000000000000000000000000000000000000008152600401610ff69190611416565b60405180910390fd5b565b60008060009054906101000a900473ffffffffffffffffffffffffffffffffffffffff169050816000806101000a81548173ffffffffffffffffffffffffffffffffffffffff021916908373ffffffffffffffffffffffffffffffffffffffff1602179055508173ffffffffffffffffffffffffffffffffffffffff168173ffffffffffffffffffffffffffffffffffffffff167f8be0079c531659141344cd1fd0a4f28419497f9722a3daafe3b4186f6b6457e060405160405180910390a35050565b600260015403611101576040517f3ee5aeb500000000000000000000000000000000000000000000000000000000815260040160405180910390fd5b6002600181905550565b60018081905550565b611190848573ffffffffffffffffffffffffffffffffffffffff166323b872dd86868660405160240161114993929190611de9565b604051602081830303815290604052915060e01b6020820180517bffffffffffffffffffffffffffffffffffffffffffffffffffffffff838183161783525050505061121d565b50505050565b611210838473ffffffffffffffffffffffffffffffffffffffff1663a9059cbb85856040516024016111c9929190611e20565b604051602081830303815290604052915060e01b6020820180517bffffffffffffffffffffffffffffffffffffffffffffffffffffffff838183161783525050505061121d565b505050565b600033905090565b600080602060008451602086016000885af180611240576040513d6000823e3d81fd5b3d92506000519150506000821461125b576001811415611277565b60008473ffffffffffffffffffffffffffffffffffffffff163b145b156112b957836040517f5274afe70000000000000000000000000000000000000000000000000000000081526004016112b09190611416565b60405180910390fd5b50505050565b6000604051905090565b600080fd5b6000819050919050565b6112e1816112ce565b81146112ec57600080fd5b50565b6000813590506112fe816112d8565b92915050565b60006020828403121561131a576113196112c9565b5b6000611328848285016112ef565b91505092915050565b61133a816112ce565b82525050565b60006020820190506113556000830184611331565b92915050565b600073ffffffffffffffffffffffffffffffffffffffff82169050919050565b6000819050919050565b60006113a061139b6113968461135b565b61137b565b61135b565b9050919050565b60006113b282611385565b9050919050565b60006113c4826113a7565b9050919050565b6113d4816113b9565b82525050565b60006020820190506113ef60008301846113cb565b92915050565b60006114008261135b565b9050919050565b611410816113f5565b82525050565b600060208201905061142b6000830184611407565b92915050565b60008060408385031215611448576114476112c9565b5b6000611456858286016112ef565b9250506020611467858286016112ef565b9150509250929050565b61147a816113f5565b811461148557600080fd5b50565b60008135905061149781611471565b92915050565b6000806000606084860312156114b6576114b56112c9565b5b60006114c486828701611488565b93505060206114d586828701611488565b92505060406114e686828701611488565b9150509250925092565b60006114fb826113a7565b9050919050565b61150b816114f0565b82525050565b60006020820190506115266000830184611502565b92915050565b600060208284031215611542576115416112c9565b5b600061155084828501611488565b91505092915050565b600082825260208201905092915050565b7f537072656164206d757374206265206c657373207468616e203130303030204260008201527f5053202831303025290000000000000000000000000000000000000000000000602082015250565b60006115c6602983611559565b91506115d18261156a565b604082019050919050565b600060208201905081810360008301526115f5816115b9565b9050919050565b7f496e76616c696420616464726573736573000000000000000000000000000000600082015250565b6000611632601183611559565b915061163d826115fc565b602082019050919050565b6000602082019050818103600083015261166181611625565b9050919050565b600060608201905061167d6000830186611407565b61168a6020830185611407565b6116976040830184611407565b949350505050565b7f416d6f756e74206d75737420626520706f736974697665000000000000000000600082015250565b60006116d5601783611559565b91506116e08261169f565b602082019050919050565b60006020820190508181036000830152611704816116c8565b9050919050565b7f4e61746976652063757272656e637920616d6f756e74206d757374206d61746360008201527f6820746f6b656e20616d6f756e74000000000000000000000000000000000000602082015250565b6000611767602e83611559565b91506117728261170b565b604082019050919050565b600060208201905081810360008301526117968161175a565b9050919050565b600080fd5b6000601f19601f8301169050919050565b7f4e487b7100000000000000000000000000000000000000000000000000000000600052604160045260246000fd5b6117eb826117a2565b810181811067ffffffffffffffff8211171561180a576118096117b3565b5b80604052505050565b600061181d6112bf565b905061182982826117e2565b919050565b6000819050919050565b6118418161182e565b811461184c57600080fd5b50565b60008151905061185e81611838565b92915050565b600081519050611873816112d8565b92915050565b60008151905061188881611471565b92915050565b60008115159050919050565b6118a38161188e565b81146118ae57600080fd5b50565b6000815190506118c08161189a565b92915050565b600060e082840312156118dc576118db61179d565b5b6118e660e0611813565b905060006118f68482850161184f565b600083015250602061190a84828501611864565b602083015250604061191e84828501611864565b604083015250606061193284828501611864565b606083015250608061194684828501611864565b60808301525060a061195a84828501611879565b60a08301525060c061196e848285016118b1565b60c08301525092915050565b600060e082840312156119905761198f6112c9565b5b600061199e848285016118c6565b91505092915050565b7f496e76616c696420746f6b656e204944206f7220697373756572000000000000600082015250565b60006119dd601a83611559565b91506119e8826119a7565b602082019050919050565b60006020820190508181036000830152611a0c816119d0565b9050919050565b7f537072656164206e6f7420736574206f7220696e76616c696400000000000000600082015250565b6000611a49601983611559565b9150611a5482611a13565b602082019050919050565b60006020820190508181036000830152611a7881611a3c565b9050919050565b7f4e487b7100000000000000000000000000000000000000000000000000000000600052601160045260246000fd5b6000611ab9826112ce565b9150611ac4836112ce565b9250828202611ad2816112ce565b91508282048414831517611ae957611ae8611a7f565b5b5092915050565b7f4e487b7100000000000000000000000000000000000000000000000000000000600052601260045260246000fd5b6000611b2a826112ce565b9150611b35836112ce565b925082611b4557611b44611af0565b5b828204905092915050565b6000611b5b826112ce565b9150611b66836112ce565b9250828203905081811115611b7e57611b7d611a7f565b5b92915050565b7f53707265616420697320746f6f2068696768206f7220616d6f756e742069732060008201527f746f6f206c6f7700000000000000000000000000000000000000000000000000602082015250565b6000611be0602783611559565b9150611beb82611b84565b604082019050919050565b60006020820190508181036000830152611c0f81611bd3565b9050919050565b600082825260208201905092915050565b50565b6000611c37600083611c16565b9150611c4282611c27565b600082019050919050565b600060a082019050611c626000830187611407565b611c6f6020830186611407565b611c7c6040830185611331565b611c896060830184611331565b8181036080830152611c9a81611c2a565b905095945050505050565b600081905092915050565b6000611cbd600083611ca5565b9150611cc882611c27565b600082019050919050565b6000611cde82611cb0565b9150819050919050565b7f5472616e7366657220746f2073656c6c6572206661696c656400000000000000600082015250565b6000611d1e601983611559565b9150611d2982611ce8565b602082019050919050565b60006020820190508181036000830152611d4d81611d11565b9050919050565b7f5472616e7366657220746f206665652077616c6c6574206661696c6564000000600082015250565b6000611d8a601d83611559565b9150611d9582611d54565b602082019050919050565b60006020820190508181036000830152611db981611d7d565b9050919050565b6000604082019050611dd56000830185611331565b611de26020830184611331565b9392505050565b6000606082019050611dfe6000830186611407565b611e0b6020830185611407565b611e186040830184611331565b949350505050565b6000604082019050611e356000830185611407565b611e426020830184611331565b939250505056fea2646970667358221220f7e9c0a611888a57847b847a7157ede05612fedbc0eb4eb1ad3da743c5bd0b3b64736f6c63430008140033",
  "linkReferences": {},
  "deployedLinkReferences": {}
}