{
  "_format": "hh-sol-artifact-1",
  "contractName": "FinancingManagerV2",
  "sourceName": "contracts/FinancingManagerV2.sol",
  "abi": [
    {
      "inputs": [
        {
          "internalType": "address",
          "name": "target",
          "type": "address"
        }
      ],
      "name": "AddressEmptyCode",
      "type": "error"
    },
    {
      "inputs": [
        {
          "internalType": "address",
          "name": "implementation",
          "type": "address"
        }
      ],
      "name": "ERC1967InvalidImplementation",
      "type": "error"
    },
    {
      "inputs": [],
      "name": "ERC1967NonPayable",
      "type": "error"
    },
    {
      "inputs": [],
      "name": "FailedCall",
      "type": "error"
    },
    {
      "inputs": [],
      "name": "InvalidInitialization",
      "type": "error"
    },
    {
      "inputs": [],
      "name": "NotInitializing",
      "type": "error"
    },
    {
      "inputs": [
        {
          "internalType": "address",
          "name": "owner",
          "type": "address"
        }
      ],
      "name": "OwnableInvalidOwner",
      "type": "error"
    },
    {
      "inputs": [
        {
          "internalType": "address",
          "name": "account",
          "type": "address"
        }
      ],
      "name": "OwnableUnauthorizedAccount",
      "type": "error"
    },
    {
      "inputs": [],
      "name": "ReentrancyGuardReentrantCall",
      "type": "error"
    },
    {
      "inputs": [
        {
          "internalType": "address",
          "name": "token",
          "type": "address"
        }
      ],
      "name": "SafeERC20FailedOperation",
      "type": "error"
    },
    {
      "inputs": [],
      "name": "UUPSUnauthorizedCallContext",
      "type": "error"
    },
    {
      "inputs": [
        {
          "internalType": "bytes32",
          "name": "slot",
          "type": "bytes32"
        }
      ],
      "name": "UUPSUnsupportedProxiableUUID",
      "type": "error"
    },
    {
      "anonymous": false,
      "inputs": [
        {
          "indexed": true,
          "internalType": "address",
          "name": "oldImplementation",
          "type": "address"
        },
        {
          "indexed": true,
          "internalType": "address",
          "name": "newImplementation",
          "type": "address"
        },
        {
          "indexed": false,
          "internalType": "uint256",
          "name": "newVersion",
          "type": "uint256"
        }
      ],
      "name": "ContractUpgraded",
      "type": "event"
    },
    {
      "anonymous": false,
      "inputs": [
        {
          "indexed": false,
          "internalType": "address",
          "name": "newFractionToken",
          "type": "address"
        },
        {
          "indexed": false,
          "internalType": "address",
          "name": "newStablecoin",
          "type": "address"
        },
        {
          "indexed": false,
          "internalType": "address",
          "name": "newFeeWallet",
          "type": "address"
        }
      ],
      "name": "ContractsUpdated",
      "type": "event"
    },
    {
      "anonymous": false,
      "inputs": [
        {
          "indexed": true,
          "internalType": "uint256",
          "name": "tokenId",
          "type": "uint256"
        },
        {
          "indexed": true,
          "internalType": "address",
          "name": "seller",
          "type": "address"
        },
        {
          "indexed": false,
          "internalType": "uint256",
          "name": "amount",
          "type": "uint256"
        },
        {
          "indexed": false,
          "internalType": "bytes32",
          "name": "destinationChain",
          "type": "bytes32"
        },
        {
          "indexed": false,
          "internalType": "uint256",
          "name": "pricePerFraction",
          "type": "uint256"
        }
      ],
      "name": "CrossChainFractionListed",
      "type": "event"
    },
    {
      "anonymous": false,
      "inputs": [
        {
          "indexed": true,
          "internalType": "uint256",
          "name": "tokenId",
          "type": "uint256"
        },
        {
          "indexed": true,
          "internalType": "address",
          "name": "owner",
          "type": "address"
        },
        {
          "indexed": false,
          "internalType": "uint256",
          "name": "amount",
          "type": "uint256"
        },
        {
          "indexed": false,
          "internalType": "bytes32",
          "name": "sourceChain",
          "type": "bytes32"
        }
      ],
      "name": "CrossChainFractionReturned",
      "type": "event"
    },
    {
      "anonymous": false,
      "inputs": [
        {
          "indexed": true,
          "internalType": "uint256",
          "name": "tokenId",
          "type": "uint256"
        },
        {
          "indexed": true,
          "internalType": "address",
          "name": "seller",
          "type": "address"
        },
        {
          "indexed": true,
          "internalType": "address",
          "name": "buyer",
          "type": "address"
        },
        {
          "indexed": false,
          "internalType": "uint256",
          "name": "amount",
          "type": "uint256"
        },
        {
          "indexed": false,
          "internalType": "uint256",
          "name": "totalPrice",
          "type": "uint256"
        },
        {
          "indexed": false,
          "internalType": "bytes32",
          "name": "destinationChain",
          "type": "bytes32"
        }
      ],
      "name": "CrossChainFractionSold",
      "type": "event"
    },
    {
      "anonymous": false,
      "inputs": [
        {
          "indexed": true,
          "internalType": "bytes32",
          "name": "requestId",
          "type": "bytes32"
        },
        {
          "indexed": false,
          "internalType": "bytes32",
          "name": "escrowId",
          "type": "bytes32"
        },
        {
          "indexed": false,
          "internalType": "bytes32",
          "name": "loanId",
          "type": "bytes32"
        }
      ],
      "name": "FinancingApproved",
      "type": "event"
    },
    {
      "anonymous": false,
      "inputs": [
        {
          "indexed": true,
          "internalType": "bytes32",
          "name": "requestId",
          "type": "bytes32"
        }
      ],
      "name": "FinancingRepaid",
      "type": "event"
    },
    {
      "anonymous": false,
      "inputs": [
        {
          "indexed": true,
          "internalType": "bytes32",
          "name": "requestId",
          "type": "bytes32"
        },
        {
          "indexed": false,
          "internalType": "address",
          "name": "borrower",
          "type": "address"
        },
        {
          "indexed": false,
          "internalType": "uint256",
          "name": "tokenId",
          "type": "uint256"
        },
        {
          "indexed": false,
          "internalType": "uint256",
          "name": "loanAmount",
          "type": "uint256"
        }
      ],
      "name": "FinancingRequested",
      "type": "event"
    },
    {
      "anonymous": false,
      "inputs": [
        {
          "indexed": true,
          "internalType": "uint256",
          "name": "tokenId",
          "type": "uint256"
        },
        {
          "indexed": true,
          "internalType": "address",
          "name": "buyer",
          "type": "address"
        },
        {
          "indexed": true,
          "internalType": "address",
          "name": "seller",
          "type": "address"
        },
        {
          "indexed": false,
          "internalType": "uint256",
          "name": "tokenAmount",
          "type": "uint256"
        },
        {
          "indexed": false,
          "internalType": "uint256",
          "name": "platformFee",
          "type": "uint256"
        }
      ],
      "name": "FractionsPurchased",
      "type": "event"
    },
    {
      "anonymous": false,
      "inputs": [
        {
          "indexed": false,
          "internalType": "uint64",
          "name": "version",
          "type": "uint64"
        }
      ],
      "name": "Initialized",
      "type": "event"
    },
    {
      "anonymous": false,
      "inputs": [
        {
          "indexed": false,
          "internalType": "uint256",
          "name": "newPrice",
          "type": "uint256"
        }
      ],
      "name": "NativePriceUpdated",
      "type": "event"
    },
    {
      "anonymous": false,
      "inputs": [
        {
          "indexed": true,
          "internalType": "address",
          "name": "previousOwner",
          "type": "address"
        },
        {
          "indexed": true,
          "internalType": "address",
          "name": "newOwner",
          "type": "address"
        }
      ],
      "name": "OwnershipTransferred",
      "type": "event"
    },
    {
      "anonymous": false,
      "inputs": [
        {
          "indexed": true,
          "internalType": "uint256",
          "name": "tokenId",
          "type": "uint256"
        },
        {
          "indexed": false,
          "internalType": "uint256",
          "name": "newSpreadBps",
          "type": "uint256"
        }
      ],
      "name": "SpreadUpdated",
      "type": "event"
    },
    {
      "anonymous": false,
      "inputs": [
        {
          "indexed": true,
          "internalType": "address",
          "name": "implementation",
          "type": "address"
        }
      ],
      "name": "Upgraded",
      "type": "event"
    },
    {
      "inputs": [],
      "name": "UPGRADE_INTERFACE_VERSION",
      "outputs": [
        {
          "internalType": "string",
          "name": "",
          "type": "string"
        }
      ],
      "stateMutability": "view",
      "type": "function"
    },
    {
      "inputs": [],
      "name": "VERSION_NAME",
      "outputs": [
        {
          "internalType": "string",
          "name": "",
          "type": "string"
        }
      ],
      "stateMutability": "view",
      "type": "function"
    },
    {
      "inputs": [
        {
          "internalType": "bytes32",
          "name": "_requestId",
          "type": "bytes32"
        },
        {
          "internalType": "bytes32",
          "name": "_destinationChain",
          "type": "bytes32"
        },
        {
          "internalType": "address",
          "name": "_destinationContract",
          "type": "address"
        }
      ],
      "name": "approveFinancing",
      "outputs": [],
      "stateMutability": "nonpayable",
      "type": "function"
    },
    {
      "inputs": [],
      "name": "bridgeAdapter",
      "outputs": [
        {
          "internalType": "contract IBridgeAdapter",
          "name": "",
          "type": "address"
        }
      ],
      "stateMutability": "view",
      "type": "function"
    },
    {
      "inputs": [
        {
          "internalType": "uint256",
          "name": "_tokenId",
          "type": "uint256"
        },
        {
          "internalType": "uint256",
          "name": "_tokenAmount",
          "type": "uint256"
        }
      ],
      "name": "buyFractions",
      "outputs": [],
      "stateMutability": "nonpayable",
      "type": "function"
    },
    {
      "inputs": [
        {
          "internalType": "uint256",
          "name": "_tokenId",
          "type": "uint256"
        },
        {
          "internalType": "uint256",
          "name": "_tokenAmount",
          "type": "uint256"
        }
      ],
      "name": "buyFractionsNative",
      "outputs": [],
      "stateMutability": "payable",
      "type": "function"
    },
    {
      "inputs": [],
      "name": "escrowContract",
      "outputs": [
        {
          "internalType": "contract IEscrowContract",
          "name": "",
          "type": "address"
        }
      ],
      "stateMutability": "view",
      "type": "function"
    },
    {
      "inputs": [
        {
          "internalType": "uint256",
          "name": "_tokenId",
          "type": "uint256"
        },
        {
          "internalType": "address",
          "name": "_seller",
          "type": "address"
        },
        {
          "internalType": "address",
          "name": "_buyer",
          "type": "address"
        },
        {
          "internalType": "uint256",
          "name": "_amount",
          "type": "uint256"
        },
        {
          "internalType": "uint256",
          "name": "_totalPrice",
          "type": "uint256"
        },
        {
          "internalType": "bytes32",
          "name": "_destinationChain",
          "type": "bytes32"
        }
      ],
      "name": "executeCrossChainTrade",
      "outputs": [],
      "stateMutability": "nonpayable",
      "type": "function"
    },
    {
      "inputs": [],
      "name": "feeWallet",
      "outputs": [
        {
          "internalType": "address",
          "name": "",
          "type": "address"
        }
      ],
      "stateMutability": "view",
      "type": "function"
    },
    {
      "inputs": [
        {
          "internalType": "bytes32",
          "name": "",
          "type": "bytes32"
        }
      ],
      "name": "financingRequests",
      "outputs": [
        {
          "internalType": "address",
          "name": "borrower",
          "type": "address"
        },
        {
          "internalType": "uint256",
          "name": "tokenId",
          "type": "uint256"
        },
        {
          "internalType": "uint256",
          "name": "collateralAmount",
          "type": "uint256"
        },
        {
          "internalType": "uint256",
          "name": "loanAmount",
          "type": "uint256"
        },
        {
          "internalType": "address",
          "name": "loanAsset",
          "type": "address"
        },
        {
          "internalType": "uint256",
          "name": "timestamp",
          "type": "uint256"
        },
        {
          "internalType": "bool",
          "name": "active",
          "type": "bool"
        },
        {
          "internalType": "bytes32",
          "name": "escrowId",
          "type": "bytes32"
        },
        {
          "internalType": "bytes32",
          "name": "loanId",
          "type": "bytes32"
        }
      ],
      "stateMutability": "view",
      "type": "function"
    },
    {
      "inputs": [],
      "name": "fractionToken",
      "outputs": [
        {
          "internalType": "contract IFractionToken",
          "name": "",
          "type": "address"
        }
      ],
      "stateMutability": "view",
      "type": "function"
    },
    {
      "inputs": [
        {
          "internalType": "uint256",
          "name": "_tokenId",
          "type": "uint256"
        }
      ],
      "name": "getCrossChainListing",
      "outputs": [
        {
          "internalType": "uint256",
          "name": "totalListed",
          "type": "uint256"
        },
        {
          "internalType": "uint256",
          "name": "totalSold",
          "type": "uint256"
        },
        {
          "internalType": "uint256",
          "name": "totalReturned",
          "type": "uint256"
        },
        {
          "internalType": "bytes32",
          "name": "currentChain",
          "type": "bytes32"
        }
      ],
      "stateMutability": "view",
      "type": "function"
    },
    {
      "inputs": [],
      "name": "getVersion",
      "outputs": [
        {
          "internalType": "uint256",
          "name": "",
          "type": "uint256"
        }
      ],
      "stateMutability": "view",
      "type": "function"
    },
    {
      "inputs": [
        {
          "internalType": "address",
          "name": "_fractionToken",
          "type": "address"
        },
        {
          "internalType": "address",
          "name": "_stablecoin",
          "type": "address"
        },
        {
          "internalType": "address",
          "name": "_feeWallet",
          "type": "address"
        },
        {
          "internalType": "uint256",
          "name": "_stablecoinDecimals",
          "type": "uint256"
        },
        {
          "internalType": "address",
          "name": "_initialOwner",
          "type": "address"
        }
      ],
      "name": "initialize",
      "outputs": [],
      "stateMutability": "nonpayable",
      "type": "function"
    },
    {
      "inputs": [
        {
          "internalType": "uint256",
          "name": "",
          "type": "uint256"
        }
      ],
      "name": "invoiceSpreadBps",
      "outputs": [
        {
          "internalType": "uint256",
          "name": "",
          "type": "uint256"
        }
      ],
      "stateMutability": "view",
      "type": "function"
    },
    {
      "inputs": [],
      "name": "liquidityAdapter",
      "outputs": [
        {
          "internalType": "contract ILiquidityAdapter",
          "name": "",
          "type": "address"
        }
      ],
      "stateMutability": "view",
      "type": "function"
    },
    {
      "inputs": [
        {
          "internalType": "uint256",
          "name": "_tokenId",
          "type": "uint256"
        },
        {
          "internalType": "uint256",
          "name": "_amount",
          "type": "uint256"
        },
        {
          "internalType": "bytes32",
          "name": "_destinationChain",
          "type": "bytes32"
        },
        {
          "internalType": "uint256",
          "name": "_pricePerFraction",
          "type": "uint256"
        }
      ],
      "name": "listForCrossChainTrade",
      "outputs": [],
      "stateMutability": "nonpayable",
      "type": "function"
    },
    {
      "inputs": [],
      "name": "nativePerToken",
      "outputs": [
        {
          "internalType": "uint256",
          "name": "",
          "type": "uint256"
        }
      ],
      "stateMutability": "view",
      "type": "function"
    },
    {
      "inputs": [],
      "name": "owner",
      "outputs": [
        {
          "internalType": "address",
          "name": "",
          "type": "address"
        }
      ],
      "stateMutability": "view",
      "type": "function"
    },
    {
      "inputs": [],
      "name": "proxiableUUID",
      "outputs": [
        {
          "internalType": "bytes32",
          "name": "",
          "type": "bytes32"
        }
      ],
      "stateMutability": "view",
      "type": "function"
    },
    {
      "inputs": [],
      "name": "renounceOwnership",
      "outputs": [],
      "stateMutability": "nonpayable",
      "type": "function"
    },
    {
      "inputs": [
        {
          "internalType": "bytes32",
          "name": "_requestId",
          "type": "bytes32"
        }
      ],
      "name": "repayFinancing",
      "outputs": [],
      "stateMutability": "nonpayable",
      "type": "function"
    },
    {
      "inputs": [
        {
          "internalType": "uint256",
          "name": "_tokenId",
          "type": "uint256"
        },
        {
          "internalType": "uint256",
          "name": "_collateralAmount",
          "type": "uint256"
        },
        {
          "internalType": "uint256",
          "name": "_loanAmount",
          "type": "uint256"
        },
        {
          "internalType": "address",
          "name": "_loanAsset",
          "type": "address"
        }
      ],
      "name": "requestFinancing",
      "outputs": [
        {
          "internalType": "bytes32",
          "name": "",
          "type": "bytes32"
        }
      ],
      "stateMutability": "nonpayable",
      "type": "function"
    },
    {
      "inputs": [
        {
          "internalType": "uint256",
          "name": "_tokenId",
          "type": "uint256"
        },
        {
          "internalType": "address",
          "name": "_owner",
          "type": "address"
        },
        {
          "internalType": "uint256",
          "name": "_amount",
          "type": "uint256"
        },
        {
          "internalType": "bytes32",
          "name": "_sourceChain",
          "type": "bytes32"
        }
      ],
      "name": "returnFromCrossChain",
      "outputs": [],
      "stateMutability": "nonpayable",
      "type": "function"
    },
    {
      "inputs": [
        {
          "internalType": "address",
          "name": "_bridgeAdapter",
          "type": "address"
        },
        {
          "internalType": "address",
          "name": "_liquidityAdapter",
          "type": "address"
        },
        {
          "internalType": "address",
          "name": "_escrowContract",
          "type": "address"
        }
      ],
      "name": "setAdapters",
      "outputs": [],
      "stateMutability": "nonpayable",
      "type": "function"
    },
    {
      "inputs": [
        {
          "internalType": "address",
          "name": "_fractionToken",
          "type": "address"
        },
        {
          "internalType": "address",
          "name": "_stablecoin",
          "type": "address"
        },
        {
          "internalType": "address",
          "name": "_feeWallet",
          "type": "address"
        }
      ],
      "name": "setContracts",
      "outputs": [],
      "stateMutability": "nonpayable",
      "type": "function"
    },
    {
      "inputs": [
        {
          "internalType": "uint256",
          "name": "_tokenId",
          "type": "uint256"
        },
        {
          "internalType": "uint256",
          "name": "_spreadBps",
          "type": "uint256"
        }
      ],
      "name": "setInvoiceSpread",
      "outputs": [],
      "stateMutability": "nonpayable",
      "type": "function"
    },
    {
      "inputs": [
        {
          "internalType": "uint256",
          "name": "_price",
          "type": "uint256"
        }
      ],
      "name": "setNativePerToken",
      "outputs": [],
      "stateMutability": "nonpayable",
      "type": "function"
    },
    {
      "inputs": [],
      "name": "stablecoin",
      "outputs": [
        {
          "internalType": "contract IERC20",
          "name": "",
          "type": "address"
        }
      ],
      "stateMutability": "view",
      "type": "function"
    },
    {
      "inputs": [],
      "name": "stablecoinDecimals",
      "outputs": [
        {
          "internalType": "uint256",
          "name": "",
          "type": "uint256"
        }
      ],
      "stateMutability": "view",
      "type": "function"
    },
    {
      "inputs": [
        {
          "internalType": "address",
          "name": "newOwner",
          "type": "address"
        }
      ],
      "name": "transferOwnership",
      "outputs": [],
      "stateMutability": "nonpayable",
      "type": "function"
    },
    {
      "inputs": [
        {
          "internalType": "address",
          "name": "newImplementation",
          "type": "address"
        },
        {
          "internalType": "bytes",
          "name": "data",
          "type": "bytes"
        }
      ],
      "name": "upgradeToAndCall",
      "outputs": [],
      "stateMutability": "payable",
      "type": "function"
    },
    {
      "inputs": [],
      "name": "version",
      "outputs": [
        {
          "internalType": "uint256",
          "name": "",
          "type": "uint256"
        }
      ],
      "stateMutability": "view",
      "type": "function"
    },
    {
      "inputs": [],
      "name": "withdraw",
      "outputs": [],
      "stateMutability": "nonpayable",
      "type": "function"
    }
  ],
  "bytecode": "0x60a08060405234604d573060805260017f9b779b17422d0df92223018b32b4d1fa46e071723d6817e2486d003becc55f0055612c0090816100528239608051818181611a300152611bc20152f35b5f80fdfe60806040526004361015610011575f80fd5b5f5f3560e01c8063072f7304146124395780630d8e6e2c1461175a57806314442f54146123eb57806319e85170146123515780631ac5023f146123275780631b0d8d8414611e425780633ccfd60b14611d7d578063457dfc6714611d565780634f1ef28614611b4857806350e9dd3914611a8457806352d1902d14611a1d578063530b97a41461177857806354fd4d501461175a578063715018a6146116f15780637f9269921461135c578063876bc2241461132d5780638da5cb5b146112f85780639bf2f99014610e48578063ad3cb1cc14610e03578063ad468d1114610dda578063afdcfda114610d27578063b3066d4914610c29578063bdaf3f99146108c9578063be7dc09b146108a0578063e42a96e714610877578063e7a9de4914610859578063e9cbd82214610830578063ea3702761461059c578063ee89418b14610438578063ef82c1b71461029e578063f25f4b5614610275578063f2fde38b14610248578063f347f5051461022a5763f38d0ae514610190575f80fd5b3461022757602036600319011261022757604061012091600435815260096020522060018060a01b03815416906001810154906002810154600382015460018060a01b0360048401541660058401549160ff600686015416936008600787015496015496604051988952602089015260408801526060870152608086015260a0850152151560c084015260e0830152610100820152f35b80fd5b50346102275780600319360112610227576020600354604051908152f35b503461022757602036600319011261022757610272610265612594565b61026d61293e565b6128cd565b80f35b50346102275780600319360112610227576002546040516001600160a01b039091168152602090f35b5034610227576020366003190112610227576004356102bb612971565b80825260096020526040822060068101906102d960ff835416612688565b80546001600160a01b031633036104045760075460088201548592916001600160a01b031690813b15610400578391602483926040519485938492636e0fc5b360e11b845260048401525af19081156103f55783916103dc575b5050600760018060a01b0360085416910154813b156103cd578291602483926040519485938492633edd9f3560e01b845260048401525af180156103d1576103b8575b5050805460ff191690557f0eb6659b5e8acefd095d5f177f1d3af2f6ba9e081acf85b178517cd93ee8ae458280a260015f516020612b8b5f395f51905f525580f35b816103c2916125aa565b6103cd57825f610376565b8280fd5b6040513d84823e3d90fd5b816103e6916125aa565b6103f157815f610333565b5080fd5b6040513d85823e3d90fd5b8380fd5b60405162461bcd60e51b815260206004820152600c60248201526b2737ba103137b93937bbb2b960a11b6044820152606490fd5b50346102275760c036600319011261022757600435610455612568565b9061045e61257e565b906064359160843561046e61293e565b610476612971565b83151580610593575b156105595761049a81868460018060a01b03600154166129a9565b855486906001600160a01b0316803b156103f157816040518092637921219560e11b82528183816104d18c8c8c30600486016127c9565b03925af180156103d157610540575b505060408051948552602085019190915260a435908401526001600160a01b039081169316917fe71b881eb68359074c42b5cb2094c0cf6d1b9951e29e42211ab201adc24de84990606090a460015f516020612b8b5f395f51905f525580f35b8161054a916125aa565b61055557855f6104e0565b8580fd5b60405162461bcd60e51b8152602060048201526012602482015271496e76616c696420706172616d657465727360701b6044820152606490fd5b5080151561047f565b50346102275760246105ad36612626565b906105b6612971565b6105c182151561263c565b835460405163fc314e3160e01b815260048101839052936101009185919082906001600160a01b03165afa9283156108255784936107f4575b5060a0830151818552600560205260408520546001600160a01b0390911693610624851515612835565b6106316127108310612881565b6020610641606083015186612801565b9101519081156107e05704600354604d81116107cc57670de0b6b3a76400009161066e91600a0a90612801565b04908115610787576106836127109183612801565b04906106aa6106928383612828565b600154909290309033906001600160a01b03166129a9565b855486906001600160a01b0316803b156103f15781866106e69287838b60405196879586948593637921219560e11b85523390600486016127c9565b03925af180156103d157610772575b505060015461070f919086906001600160a01b0316612a3b565b60015460025461072d9183916001600160a01b039081169116612a3b565b60405192835260208301527f513683548cbdae0859e34a5d5ed80fbee97ac460d4b87a621410c574ed1a675060403393a460015f516020612b8b5f395f51905f525580f35b8161077c916125aa565b61055557855f6106f5565b60405162461bcd60e51b815260206004820152601860248201527f5061796d656e7420616d6f756e7420746f6f20736d616c6c00000000000000006044820152606490fd5b634e487b7160e01b87526011600452602487fd5b634e487b7160e01b87526012600452602487fd5b6108179193506101003d811161081e575b61080f81836125aa565b810190612738565b915f6105fa565b503d610805565b6040513d86823e3d90fd5b50346102275780600319360112610227576001546040516001600160a01b039091168152602090f35b50346102275780600319360112610227576020600454604051908152f35b50346102275780600319360112610227576008546040516001600160a01b039091168152602090f35b50346102275780600319360112610227576006546040516001600160a01b039091168152602090f35b506108d336612626565b6108db612971565b6108e681151561263c565b6004548015610bed57610902670de0b6b3a76400009183612801565b845460405163fc314e3160e01b81526004810186905294926001600160a01b03909116910461010085602481855afa948515610be2578695610bbd575b5061095c9061271061095560e088015183612801565b0490612828565b93843410610b6e5760a0600180821b0391015116938286526005602052856127106109a16040832054610990891515612835565b61099b838210612881565b84612801565b04926109ad8484612828565b90803b156103cd5782876109dd9288838c60405196879586948593637921219560e11b85523390600486016127c9565b03925af19081156103f5578391610b59575b50808092895af16109fe6126c9565b5015610b1457858080808560018060a01b03600254165af1610a1e6126c9565b5015610acf578086913411610a75575b505060405192835260208301527f513683548cbdae0859e34a5d5ed80fbee97ac460d4b87a621410c574ed1a675060403393a460015f516020612b8b5f395f51905f525580f35b8180610a82819334612828565b335af1610a8d6126c9565b5015610a9a57845f610a2e565b60405162461bcd60e51b815260206004820152600d60248201526c1499599d5b990819985a5b1959609a1b6044820152606490fd5b60405162461bcd60e51b815260206004820152601d60248201527f5472616e7366657220746f206665652077616c6c6574206661696c65640000006044820152606490fd5b60405162461bcd60e51b815260206004820152601960248201527f5472616e7366657220746f2073656c6c6572206661696c6564000000000000006044820152606490fd5b81610b63916125aa565b6103f157815f6109ef565b60405162461bcd60e51b815260206004820152602160248201527f496e73756666696369656e74206e61746976652063757272656e63792073656e6044820152601d60fa1b6064820152608490fd5b61095c919550610bdb906101003d811161081e5761080f81836125aa565b949061093f565b6040513d88823e3d90fd5b60405162461bcd60e51b815260206004820152601460248201527313985d1a5d99481c1c9a58d9481b9bdd081cd95d60621b6044820152606490fd5b5034610227576060366003190112610227577fe008bc55cceb8bb7dc36a3bbaa95481f36a3537e2b4cdc39770a19cf94e754a5610c64612594565b610c6c612568565b90610cfd610c7861257e565b610c8061293e565b6001600160a01b03831680151580610d15575b80610d03575b610ca2906126f8565b86546001600160a01b03199081169190911787556001805482166001600160a01b0396871690811790915560028054909216928616928317909155604080519490951684526020840152928201929092529081906060820190565b0390a180f35b506001600160a01b0382161515610c99565b506001600160a01b0385161515610c93565b503461022757610d3636612626565b610d3e61293e565b612710811015610d835760207ff1dd40af50044c9e71928f1e31ac462e53f9af4cb0279ca9f29e9adff0218b969183855260058252806040862055604051908152a280f35b60405162461bcd60e51b815260206004820152602960248201527f537072656164206d757374206265206c657373207468616e203130303030204260448201526850532028313030252960b81b6064820152608490fd5b50346102275780600319360112610227576007546040516001600160a01b039091168152602090f35b503461022757806003193601126102275750610e44604051610e266040826125aa565b60058152640352e302e360dc1b6020820152604051918291826125fc565b0390f35b503461022757608036600319011261022757602435600435606435604435610e6e612971565b610e7984151561263c565b81156112ba576006546040516397717b8960e01b815290602090829060049082906001600160a01b03165afa908115610be2578691611288575b508114801561125f575b8015611236575b156111f157845460405163fc314e3160e01b8152600481018590526001600160a01b039091169061010081602481855afa9081156111e65787916111c7575b5060a08101516001600160a01b03163314801561114d575b156110f95760600151156110b4578086913b156103f157816040518092637921219560e11b8252818381610f558c8c3033600486016127c9565b03925af180156103d15761109f575b506006548154604051630736f4c360e11b81526001600160a01b03918216600482015260248101879052604481018890526064810185905291602091839160849183918791165af19081156103d1578291611066575b506006546001600160a01b0316803b156103cd5760405163500a8d6960e01b8152600481019290925230602483015282908290604490829084905af180156103d15761104d575b5050604051938452602084015260408301527f2820ca607749207df362ee7c7986e1de1ca9ac07feaeb0a08916cd57fd02428860603393a360015f516020612b8b5f395f51905f525580f35b81611057916125aa565b61106257845f611001565b8480fd5b9150506020813d602011611097575b81611082602093836125aa565b81010312611093578590515f610fba565b5f80fd5b3d9150611075565b816110a9916125aa565b61106257845f610f64565b60405162461bcd60e51b815260206004820152601d60248201527f546f6b656e206e6f7420666f756e64206f72206e6f74206163746976650000006044820152606490fd5b60405162461bcd60e51b815260206004820152602660248201527f4e6f7420617574686f72697a6564206f7220696e73756666696369656e742062604482015265616c616e636560d01b6064820152608490fd5b50604051627eeac760e11b815233600482015260248101869052602081604481865afa80156111bc5787918991611187575b501015610f1b565b9150506020813d6020116111b4575b816111a3602093836125aa565b81010312611093578690515f61117f565b3d9150611196565b6040513d8a823e3d90fd5b6111e091506101003d811161081e5761080f81836125aa565b5f610f03565b6040513d89823e3d90fd5b60405162461bcd60e51b815260206004820152601d60248201527f556e737570706f727465642064657374696e6174696f6e20636861696e0000006044820152606490fd5b507fc87f1b21696ef0d4e19cdc6ef3b3b53a507c0fc73edc6878675e8b4d703bffb78114610ec4565b507f0db4352a89aa75f9d11ac30e122fe9730a761c955523552119c16838f3c0fda58114610ebd565b90506020813d6020116112b2575b816112a3602093836125aa565b8101031261109357515f610eb3565b3d9150611296565b60405162461bcd60e51b81526020600482015260166024820152755072696365206d75737420626520706f73697469766560501b6044820152606490fd5b50346102275780600319360112610227575f516020612b4b5f395f51905f52546040516001600160a01b039091168152602090f35b503461022757602036600319011261022757608090604051908082528060208301528060408301526060820152f35b5034610227576080366003190112610227576064356001600160a01b0381169060043590604435906024359084900361106257611397612971565b801515806116e8575b156116b157845460405163fc314e3160e01b8152600481018590529061010090829060249082906001600160a01b03165afa908115610be2578691611692575b5060a001516001600160a01b03163303611643576007546040516304cdc57b60e31b81526004810186905290602090829060249082906001600160a01b03165afa8015610be2578391879161160e575b50106115ca5760405160208101908482528260408201528360608201523360601b60808201524260948201526094815261146b60b4826125aa565b5190209360405191610120830183811067ffffffffffffffff8211176115b657926008876020998198957f5104b4702a10b07ca096e53d4758849041c6c7de6373ca1089185049daaf0db698956060986040523386528c860191888352604087019182528987018881526080880191825260a088019242845260c089019460018652604060e08b01978089526101008c0199818b528152602060099052209960018060a01b039060018060a01b03905116166001600160601b0360a01b8b5416178a555160018a015551600289015551600388015560018060a01b03905116600487019060018060a01b03166001600160601b0360a01b825416179055516005860155600685019051151560ff801983541691161790555160078401555191015560405191338352878301526040820152a260015f516020612b8b5f395f51905f5255604051908152f35b634e487b7160e01b88526041600452602488fd5b606460405162461bcd60e51b815260206004820152602060248201527f496e73756666696369656e74206c6971756964697479206f6e204b6174616e616044820152fd5b9150506020813d60201161163b575b8161162a602093836125aa565b81010312611093578290515f611430565b3d915061161d565b60405162461bcd60e51b815260206004820152602160248201527f4f6e6c79206973737565722063616e20726571756573742066696e616e63696e6044820152606760f81b6064820152608490fd5b6116ab91506101003d811161081e5761080f81836125aa565b5f6113e0565b60405162461bcd60e51b815260206004820152600f60248201526e496e76616c696420616d6f756e747360881b6044820152606490fd5b508115156113a0565b503461022757806003193601126102275761170a61293e565b5f516020612b4b5f395f51905f5280546001600160a01b0319811690915581906001600160a01b03167f8be0079c531659141344cd1fd0a4f28419497f9722a3daafe3b4186f6b6457e08280a380f35b50346102275780600319360112610227576020600a54604051908152f35b50346102275760a036600319011261022757611792612594565b61179a612568565b906117a361257e565b91606435916084356001600160a01b0381168103610555575f516020612bab5f395f51905f52549460ff8660401c16159567ffffffffffffffff811680159081611a15575b6001149081611a0b575b159081611a02575b506119f35767ffffffffffffffff1981166001175f516020612bab5f395f51905f5255866119c7575b506001600160a01b03831694851515806119b5575b806119a3575b611847906126f8565b80151580611998575b15611953577fe008bc55cceb8bb7dc36a3bbaa95481f36a3537e2b4cdc39770a19cf94e754a59561188e6118f194611886612a93565b61026d612a93565b88546001600160a01b03199081169190911789556001805482166001600160a01b03978816908117909155600280549092169387169384178255600392909255600a55604080519490951684526020840152928201929092529081906060820190565b0390a16118fb5780f35b68ff0000000000000000195f516020612bab5f395f51905f5254165f516020612bab5f395f51905f52557fc7f505b2f371ae2175ee4913f4499e1f2633a7b5936321eed1cdaeb6115181d2602060405160018152a180f35b60405162461bcd60e51b815260206004820152601b60248201527f496e76616c696420737461626c65636f696e20646563696d616c7300000000006044820152606490fd5b506012811115611850565b506001600160a01b038216151561183e565b506001600160a01b0385161515611838565b68ffffffffffffffffff191668010000000000000001175f516020612bab5f395f51905f52555f611823565b63f92ee8a960e01b8852600488fd5b9050155f6117fa565b303b1591506117f2565b8891506117e8565b50346102275780600319360112610227577f00000000000000000000000000000000000000000000000000000000000000006001600160a01b03163003611a755760206040515f516020612b6b5f395f51905f528152f35b63703e46dd60e11b8152600490fd5b503461022757606036600319011261022757611a9e612594565b611aa6612568565b611aae61257e565b91611ab761293e565b6001600160a01b031680151580611b36575b80611b24575b611ad8906126f8565b6001600160601b0360a01b600654161760065560018060a01b03166001600160601b0360a01b600754161760075560018060a01b03166001600160601b0360a01b600854161760085580f35b506001600160a01b0383161515611acf565b506001600160a01b0382161515611ac9565b50604036600319011261022757611b5d612594565b906024359167ffffffffffffffff83116103f157366023840112156103f1578260040135611b8a816125e0565b93611b9860405195866125aa565b81855236602483830101116104005781849260246020930183880137850101526001600160a01b037f000000000000000000000000000000000000000000000000000000000000000016308114908115611d34575b50611d2557611bfa61293e565b6040516352d1902d60e01b8152926001600160a01b0382169190602085600481865afa80958596611cf1575b50611c3f57634c9c8ce360e01b84526004839052602484fd5b9091845f516020612b6b5f395f51905f528103611cdf5750823b15611ccd575f516020612b6b5f395f51905f5280546001600160a01b031916821790557fbc7cd75a20ee27fd9adebab32041f755214dbc6bffa90cc0225b39da2e5c2d3b8480a2805115611cb457611cb091612abe565b5080f35b505034611cbe5780f35b63b398979f60e01b8152600490fd5b634c9c8ce360e01b8452600452602483fd5b632a87526960e21b8552600452602484fd5b9095506020813d602011611d1d575b81611d0d602093836125aa565b810103126110935751945f611c26565b3d9150611d00565b63703e46dd60e11b8252600482fd5b5f516020612b6b5f395f51905f52546001600160a01b0316141590505f611bed565b5034610227578060031936011261022757546040516001600160a01b039091168152602090f35b5034610227578060031936011261022757611d9661293e565b611d9e612971565b478015611e06578180808093335af1611db56126c9565b5015611dcf5760015f516020612b8b5f395f51905f525580f35b60405162461bcd60e51b815260206004820152600f60248201526e151c985b9cd9995c8819985a5b1959608a1b6044820152606490fd5b60405162461bcd60e51b81526020600482015260146024820152734e6f2066756e647320746f20776974686472617760601b6044820152606490fd5b503461022757606036600319011261022757600435602435611e6261257e565b90611e6b61293e565b82845260096020526040842090611e8860ff600684015416612688565b60405160208101906866696e616e63696e6760b81b825285602982015260298152611eb46049826125aa565b51902060085483546003850180546004870180548b5460018a018054989b9399959890978e979495946001600160a01b03918216949082169382169116843b15612323578894610144938f938793604051998a988997630d6bc3c360e31b8952600489015260248801523060448801526064870152608486015262278d0060a486015260c485015260e484015281610104840152816101248401525af190811561082557849161230e575b50506006546040516397717b8960e01b81526001600160a01b039091169190602081600481865afa90811561215c5785916122d9575b5083036121eb5750506006548254935460028801546040516397717b8960e01b81529195919350916001600160a01b039081169116602084600481855afa93841561215c5785946121b1575b50604051630736f4c360e11b81526001600160a01b039190911660048201526024810195909552604485019190915260648401919091529091906020908290608490829086905af19081156103d157829161217c575b506006546007546001600160a01b03918216929116823b156104005760405163500a8d6960e01b815260048101929092526001600160a01b031660248201529082908290604490829084905af180156103d157612167575b5050600754915490548354604051630274045360e11b81526001600160a01b03938416600482015260248101929092528216604482015291602091839160649183918a91165af190811561215c578591612127575b509160086040927f182a558ec42ab1419a7771b13af351b991fa269c3f2d62ea560a3a1fac67db9d949182915b846007820155015582519182526020820152a280f35b9290506020833d602011612154575b81612143602093836125aa565b8101031261109357915160086120e4565b3d9150612136565b6040513d87823e3d90fd5b81612171916125aa565b61055557855f61208f565b9150506020813d6020116121a9575b81612198602093836125aa565b81010312611093578690515f612037565b3d915061218b565b935093506020833d6020116121e3575b816121ce602093836125aa565b810103126110935791518a9390929084611fe1565b3d91506121c1565b83549454600289015460075495985096506001600160a01b039485169590949193911691803b156122d557879560c4948793604051998a9889976315ce2b6960e11b8952600489015260248801526044870152606486015260018060a01b0316608485015260a48401525af180156103d1576122c0575b50507f182a558ec42ab1419a7771b13af351b991fa269c3f2d62ea560a3a1fac67db9d916008604092835160208101906730b3b3a630bcb2b960c11b8252876028820152602881526122b56048826125aa565b519020918291612111565b816122ca916125aa565b61040057835f612262565b8780fd5b9450506020843d602011612306575b816122f5602093836125aa565b81010312611093578a93515f611f95565b3d91506122e8565b81612318916125aa565b6103cd57825f611f5f565b8880fd5b50346102275760203660031901126102275760406020916004358152600583522054604051908152f35b50346102275760203660031901126102275760043561236e61293e565b80156123a6576020817f678adb33b2af1c6ef3f48a91109124919b84a8b669d9c31b0405e65c2a2b6caf92600455604051908152a180f35b60405162461bcd60e51b815260206004820152601f60248201527f5072696365206d7573742062652067726561746572207468616e207a65726f006044820152606490fd5b503461022757806003193601126102275750610e4460405161240e6040826125aa565b60128152712334b730b731b4b733a6b0b730b3b2b92b1960711b6020820152604051918291826125fc565b503461109357608036600319011261109357600435612456612568565b9060443560643561246561293e565b61246d612971565b61247882151561263c565b6006545f546001600160a01b03918216959116853b15611093575f9160a483926040519485938492632309cfab60e11b8452600484015289602484015288604484015260018060a01b0316998a60648401528760848401525af1801561255d57612522575b507f2a8435df9125ed562b1d774f0fcce8979578e1e06583b51168746efcc72cda709160409182519182526020820152a360015f516020612b8b5f395f51905f525580f35b6040919550916125535f7f2a8435df9125ed562b1d774f0fcce8979578e1e06583b51168746efcc72cda70946125aa565b5f959150916124dd565b6040513d5f823e3d90fd5b602435906001600160a01b038216820361109357565b604435906001600160a01b038216820361109357565b600435906001600160a01b038216820361109357565b90601f8019910116810190811067ffffffffffffffff8211176125cc57604052565b634e487b7160e01b5f52604160045260245ffd5b67ffffffffffffffff81116125cc57601f01601f191660200190565b602060409281835280519182918282860152018484015e5f828201840152601f01601f1916010190565b6040906003190112611093576004359060243590565b1561264357565b60405162461bcd60e51b815260206004820152601760248201527f416d6f756e74206d75737420626520706f7369746976650000000000000000006044820152606490fd5b1561268f57565b60405162461bcd60e51b815260206004820152601260248201527152657175657374206e6f742061637469766560701b6044820152606490fd5b3d156126f3573d906126da826125e0565b916126e860405193846125aa565b82523d5f602084013e565b606090565b156126ff57565b60405162461bcd60e51b8152602060048201526011602482015270496e76616c69642061646472657373657360781b6044820152606490fd5b90816101009103126110935760405190610100820182811067ffffffffffffffff8211176125cc57604052805182526020810151602083015260408101516040830152606081015160608301526080810151608083015260a081015160018060a01b03811681036110935760a083015260c08101519081151582036110935760e09160c0840152015160e082015290565b6001600160a01b039182168152911660208201526040810191909152606081019190915260a0608082018190525f9082015260c00190565b8181029291811591840414171561281457565b634e487b7160e01b5f52601160045260245ffd5b9190820391821161281457565b1561283c57565b60405162461bcd60e51b815260206004820152601a60248201527f496e76616c696420746f6b656e204944206f72206973737565720000000000006044820152606490fd5b1561288857565b60405162461bcd60e51b815260206004820152601960248201527f537072656164206e6f7420736574206f7220696e76616c6964000000000000006044820152606490fd5b6001600160a01b0316801561292b575f516020612b4b5f395f51905f5280546001600160a01b0319811683179091556001600160a01b03167f8be0079c531659141344cd1fd0a4f28419497f9722a3daafe3b4186f6b6457e05f80a3565b631e4fbdf760e01b5f525f60045260245ffd5b5f516020612b4b5f395f51905f52546001600160a01b0316330361295e57565b63118cdaa760e01b5f523360045260245ffd5b60025f516020612b8b5f395f51905f52541461299a5760025f516020612b8b5f395f51905f5255565b633ee5aeb560e01b5f5260045ffd5b6040516323b872dd60e01b5f9081526001600160a01b039384166004529290931660245260449390935260209060648180865af19060015f5114821615612a1a575b6040525f606052156129fa5750565b635274afe760e01b5f9081526001600160a01b0391909116600452602490fd5b906001811516612a3257823b15153d151616906129eb565b503d5f823e3d90fd5b916040519163a9059cbb60e01b5f5260018060a01b031660045260245260205f60448180865af19060015f5114821615612a7b575b604052156129fa5750565b906001811516612a3257823b15153d15161690612a70565b60ff5f516020612bab5f395f51905f525460401c1615612aaf57565b631afcd79f60e31b5f5260045ffd5b905f8091602081519101845af48080612b37575b15612af25750506040513d81523d5f602083013e60203d82010160405290565b15612b1757639996b31560e01b5f9081526001600160a01b0391909116600452602490fd5b3d15612b28576040513d5f823e3d90fd5b63d6bda27560e01b5f5260045ffd5b503d151580612ad25750813b1515612ad256fe9016d09d72d40fdae2fd8ceac6b6234c7706214fd39c1cd1e609a0528c199300360894a13ba1a3210667c828492db98dca3e2076cc3735a920a3ca505d382bbc9b779b17422d0df92223018b32b4d1fa46e071723d6817e2486d003becc55f00f0c57e16840df040f15088dc2f81fe391c3923bec73e23a9662efc9c229c6a00a264697066735822122028d90b067bbfcc688ef40f75a22bfefe0c17b0327cc654c909f53ff3d628143964736f6c634300081c0033",
  "linkReferences": {},
  "deployedLinkReferences": {}
}