{
  "_format": "hh-sol-artifact-1",
  "contractName": "FinancingManager",
  "sourceName": "contracts/FinancingManager.sol",
  "abi": [
    {
      "inputs": [
        {
          "internalType": "address",
          "name": "_fractionToken",
          "type": "address"
        },
        {
          "internalType": "address",
          "name": "_stablecoin",
          "type": "address"
        },
        {
          "internalType": "address",
          "name": "_feeWallet",
          "type": "address"
        }
      ],
      "stateMutability": "nonpayable",
      "type": "constructor"
    },
    {
      "inputs": [
        {
          "internalType": "address",
          "name": "owner",
          "type": "address"
        }
      ],
      "name": "OwnableInvalidOwner",
      "type": "error"
    },
    {
      "inputs": [
        {
          "internalType": "address",
          "name": "account",
          "type": "address"
        }
      ],
      "name": "OwnableUnauthorizedAccount",
      "type": "error"
    },
    {
      "inputs": [],
      "name": "ReentrancyGuardReentrantCall",
      "type": "error"
    },
    {
      "inputs": [
        {
          "internalType": "address",
          "name": "token",
          "type": "address"
        }
      ],
      "name": "SafeERC20FailedOperation",
      "type": "error"
    },
    {
      "anonymous": false,
      "inputs": [
        {
          "indexed": false,
          "internalType": "address",
          "name": "newFractionToken",
          "type": "address"
        },
        {
          "indexed": false,
          "internalType": "address",
          "name": "newStablecoin",
          "type": "address"
        },
        {
          "indexed": false,
          "internalType": "address",
          "name": "newFeeWallet",
          "type": "address"
        }
      ],
      "name": "ContractsUpdated",
      "type": "event"
    },
    {
      "anonymous": false,
      "inputs": [
        {
          "indexed": true,
          "internalType": "uint256",
          "name": "tokenId",
          "type": "uint256"
        },
        {
          "indexed": true,
          "internalType": "address",
          "name": "buyer",
          "type": "address"
        },
        {
          "indexed": true,
          "internalType": "address",
          "name": "seller",
          "type": "address"
        },
        {
          "indexed": false,
          "internalType": "uint256",
          "name": "tokenAmount",
          "type": "uint256"
        },
        {
          "indexed": false,
          "internalType": "uint256",
          "name": "platformFee",
          "type": "uint256"
        }
      ],
      "name": "FractionsPurchased",
      "type": "event"
    },
    {
      "anonymous": false,
      "inputs": [
        {
          "indexed": true,
          "internalType": "address",
          "name": "previousOwner",
          "type": "address"
        },
        {
          "indexed": true,
          "internalType": "address",
          "name": "newOwner",
          "type": "address"
        }
      ],
      "name": "OwnershipTransferred",
      "type": "event"
    },
    {
      "anonymous": false,
      "inputs": [
        {
          "indexed": true,
          "internalType": "uint256",
          "name": "tokenId",
          "type": "uint256"
        },
        {
          "indexed": false,
          "internalType": "uint256",
          "name": "newSpreadBps",
          "type": "uint256"
        }
      ],
      "name": "SpreadUpdated",
      "type": "event"
    },
    {
      "inputs": [
        {
          "internalType": "uint256",
          "name": "_tokenId",
          "type": "uint256"
        },
        {
          "internalType": "uint256",
          "name": "_tokenAmount",
          "type": "uint256"
        }
      ],
      "name": "buyFractions",
      "outputs": [],
      "stateMutability": "nonpayable",
      "type": "function"
    },
    {
      "inputs": [],
      "name": "feeWallet",
      "outputs": [
        {
          "internalType": "address",
          "name": "",
          "type": "address"
        }
      ],
      "stateMutability": "view",
      "type": "function"
    },
    {
      "inputs": [],
      "name": "fractionToken",
      "outputs": [
        {
          "internalType": "contract IFractionToken",
          "name": "",
          "type": "address"
        }
      ],
      "stateMutability": "view",
      "type": "function"
    },
    {
      "inputs": [
        {
          "internalType": "uint256",
          "name": "",
          "type": "uint256"
        }
      ],
      "name": "invoiceSpreadBps",
      "outputs": [
        {
          "internalType": "uint256",
          "name": "",
          "type": "uint256"
        }
      ],
      "stateMutability": "view",
      "type": "function"
    },
    {
      "inputs": [],
      "name": "owner",
      "outputs": [
        {
          "internalType": "address",
          "name": "",
          "type": "address"
        }
      ],
      "stateMutability": "view",
      "type": "function"
    },
    {
      "inputs": [],
      "name": "renounceOwnership",
      "outputs": [],
      "stateMutability": "nonpayable",
      "type": "function"
    },
    {
      "inputs": [
        {
          "internalType": "address",
          "name": "_fractionToken",
          "type": "address"
        },
        {
          "internalType": "address",
          "name": "_stablecoin",
          "type": "address"
        },
        {
          "internalType": "address",
          "name": "_feeWallet",
          "type": "address"
        }
      ],
      "name": "setContracts",
      "outputs": [],
      "stateMutability": "nonpayable",
      "type": "function"
    },
    {
      "inputs": [
        {
          "internalType": "uint256",
          "name": "_tokenId",
          "type": "uint256"
        },
        {
          "internalType": "uint256",
          "name": "_spreadBps",
          "type": "uint256"
        }
      ],
      "name": "setInvoiceSpread",
      "outputs": [],
      "stateMutability": "nonpayable",
      "type": "function"
    },
    {
      "inputs": [],
      "name": "stablecoin",
      "outputs": [
        {
          "internalType": "contract IERC20",
          "name": "",
          "type": "address"
        }
      ],
      "stateMutability": "view",
      "type": "function"
    },
    {
      "inputs": [
        {
          "internalType": "address",
          "name": "newOwner",
          "type": "address"
        }
      ],
      "name": "transferOwnership",
      "outputs": [],
      "stateMutability": "nonpayable",
      "type": "function"
    }
  ],
  "bytecode": "0x60806040523480156200001157600080fd5b5060405162001c7b38038062001c7b8339818101604052810190620000379190620003e4565b33600073ffffffffffffffffffffffffffffffffffffffff168173ffffffffffffffffffffffffffffffffffffffff1603620000ad5760006040517f1e4fbdf7000000000000000000000000000000000000000000000000000000008152600401620000a4919062000451565b60405180910390fd5b620000be81620002b660201b60201c565b5060018081905550600073ffffffffffffffffffffffffffffffffffffffff168373ffffffffffffffffffffffffffffffffffffffff1614158015620001315750600073ffffffffffffffffffffffffffffffffffffffff168273ffffffffffffffffffffffffffffffffffffffff1614155b80156200016b5750600073ffffffffffffffffffffffffffffffffffffffff168173ffffffffffffffffffffffffffffffffffffffff1614155b620001ad576040517f08c379a0000000000000000000000000000000000000000000000000000000008152600401620001a490620004cf565b60405180910390fd5b82600260006101000a81548173ffffffffffffffffffffffffffffffffffffffff021916908373ffffffffffffffffffffffffffffffffffffffff16021790555081600360006101000a81548173ffffffffffffffffffffffffffffffffffffffff021916908373ffffffffffffffffffffffffffffffffffffffff16021790555080600460006101000a81548173ffffffffffffffffffffffffffffffffffffffff021916908373ffffffffffffffffffffffffffffffffffffffff1602179055507fe008bc55cceb8bb7dc36a3bbaa95481f36a3537e2b4cdc39770a19cf94e754a5838383604051620002a593929190620004f1565b60405180910390a15050506200052e565b60008060009054906101000a900473ffffffffffffffffffffffffffffffffffffffff169050816000806101000a81548173ffffffffffffffffffffffffffffffffffffffff021916908373ffffffffffffffffffffffffffffffffffffffff1602179055508173ffffffffffffffffffffffffffffffffffffffff168173ffffffffffffffffffffffffffffffffffffffff167f8be0079c531659141344cd1fd0a4f28419497f9722a3daafe3b4186f6b6457e060405160405180910390a35050565b600080fd5b600073ffffffffffffffffffffffffffffffffffffffff82169050919050565b6000620003ac826200037f565b9050919050565b620003be816200039f565b8114620003ca57600080fd5b50565b600081519050620003de81620003b3565b92915050565b6000806000606084860312156200040057620003ff6200037a565b5b60006200041086828701620003cd565b93505060206200042386828701620003cd565b92505060406200043686828701620003cd565b9150509250925092565b6200044b816200039f565b82525050565b600060208201905062000468600083018462000440565b92915050565b600082825260208201905092915050565b7f496e76616c696420616464726573736573000000000000000000000000000000600082015250565b6000620004b76011836200046e565b9150620004c4826200047f565b602082019050919050565b60006020820190508181036000830152620004ea81620004a8565b9050919050565b600060608201905062000508600083018662000440565b62000517602083018562000440565b62000526604083018462000440565b949350505050565b61173d806200053e6000396000f3fe608060405234801561001057600080fd5b506004361061009e5760003560e01c8063b3066d4911610066578063b3066d4914610135578063e9cbd82214610151578063ea3702761461016f578063f25f4b561461018b578063f2fde38b146101a95761009e565b80631ac5023f146100a3578063457dfc67146100d3578063715018a6146100f15780638da5cb5b146100fb578063afdcfda114610119575b600080fd5b6100bd60048036038101906100b89190610d6f565b6101c5565b6040516100ca9190610dab565b60405180910390f35b6100db6101dd565b6040516100e89190610e45565b60405180910390f35b6100f9610203565b005b610103610217565b6040516101109190610e81565b60405180910390f35b610133600480360381019061012e9190610e9c565b610240565b005b61014f600480360381019061014a9190610f08565b6102e0565b005b6101596104cd565b6040516101669190610f7c565b60405180910390f35b61018960048036038101906101849190610e9c565b6104f3565b005b610193610939565b6040516101a09190610e81565b60405180910390f35b6101c360048036038101906101be9190610f97565b61095f565b005b60056020528060005260406000206000915090505481565b600260009054906101000a900473ffffffffffffffffffffffffffffffffffffffff1681565b61020b6109e5565b6102156000610a6c565b565b60008060009054906101000a900473ffffffffffffffffffffffffffffffffffffffff16905090565b6102486109e5565b612710811061028c576040517f08c379a000000000000000000000000000000000000000000000000000000000815260040161028390611047565b60405180910390fd5b806005600084815260200190815260200160002081905550817ff1dd40af50044c9e71928f1e31ac462e53f9af4cb0279ca9f29e9adff0218b96826040516102d49190610dab565b60405180910390a25050565b6102e86109e5565b600073ffffffffffffffffffffffffffffffffffffffff168373ffffffffffffffffffffffffffffffffffffffff16141580156103525750600073ffffffffffffffffffffffffffffffffffffffff168273ffffffffffffffffffffffffffffffffffffffff1614155b801561038b5750600073ffffffffffffffffffffffffffffffffffffffff168173ffffffffffffffffffffffffffffffffffffffff1614155b6103ca576040517f08c379a00000000000000000000000000000000000000000000000000000000081526004016103c1906110b3565b60405180910390fd5b82600260006101000a81548173ffffffffffffffffffffffffffffffffffffffff021916908373ffffffffffffffffffffffffffffffffffffffff16021790555081600360006101000a81548173ffffffffffffffffffffffffffffffffffffffff021916908373ffffffffffffffffffffffffffffffffffffffff16021790555080600460006101000a81548173ffffffffffffffffffffffffffffffffffffffff021916908373ffffffffffffffffffffffffffffffffffffffff1602179055507fe008bc55cceb8bb7dc36a3bbaa95481f36a3537e2b4cdc39770a19cf94e754a58383836040516104c0939291906110d3565b60405180910390a1505050565b600360009054906101000a900473ffffffffffffffffffffffffffffffffffffffff1681565b6104fb610b30565b6000811161053e576040517f08c379a000000000000000000000000000000000000000000000000000000000815260040161053590611156565b60405180910390fd5b6000600260009054906101000a900473ffffffffffffffffffffffffffffffffffffffff1673ffffffffffffffffffffffffffffffffffffffff1663fc314e31846040518263ffffffff1660e01b815260040161059b9190610dab565b60e060405180830381865afa1580156105b8573d6000803e3d6000fd5b505050506040513d601f19601f820116820180604052508101906105dc9190611353565b905060008160a001519050600060056000868152602001908152602001600020549050600073ffffffffffffffffffffffffffffffffffffffff168273ffffffffffffffffffffffffffffffffffffffff160361066e576040517f08c379a0000000000000000000000000000000000000000000000000000000008152600401610665906113cc565b60405180910390fd5b61271081106106b2576040517f08c379a00000000000000000000000000000000000000000000000000000000081526004016106a990611438565b60405180910390fd5b600061271082866106c39190611487565b6106cd91906114f8565b9050600081866106dd9190611529565b905060008111610722576040517f08c379a0000000000000000000000000000000000000000000000000000000008152600401610719906115cf565b60405180910390fd5b610771333088600360009054906101000a900473ffffffffffffffffffffffffffffffffffffffff1673ffffffffffffffffffffffffffffffffffffffff16610b76909392919063ffffffff16565b600260009054906101000a900473ffffffffffffffffffffffffffffffffffffffff1673ffffffffffffffffffffffffffffffffffffffff1663f242432a85338a8a6040518563ffffffff1660e01b81526004016107d29493929190611626565b600060405180830381600087803b1580156107ec57600080fd5b505af1158015610800573d6000803e3d6000fd5b505050506108518482600360009054906101000a900473ffffffffffffffffffffffffffffffffffffffff1673ffffffffffffffffffffffffffffffffffffffff16610bf89092919063ffffffff16565b6108c0600460009054906101000a900473ffffffffffffffffffffffffffffffffffffffff1683600360009054906101000a900473ffffffffffffffffffffffffffffffffffffffff1673ffffffffffffffffffffffffffffffffffffffff16610bf89092919063ffffffff16565b8373ffffffffffffffffffffffffffffffffffffffff163373ffffffffffffffffffffffffffffffffffffffff16887f513683548cbdae0859e34a5d5ed80fbee97ac460d4b87a621410c574ed1a6750898660405161092092919061167e565b60405180910390a45050505050610935610c77565b5050565b600460009054906101000a900473ffffffffffffffffffffffffffffffffffffffff1681565b6109676109e5565b600073ffffffffffffffffffffffffffffffffffffffff168173ffffffffffffffffffffffffffffffffffffffff16036109d95760006040517f1e4fbdf70000000000000000000000000000000000000000000000000000000081526004016109d09190610e81565b60405180910390fd5b6109e281610a6c565b50565b6109ed610c80565b73ffffffffffffffffffffffffffffffffffffffff16610a0b610217565b73ffffffffffffffffffffffffffffffffffffffff1614610a6a57610a2e610c80565b6040517f118cdaa7000000000000000000000000000000000000000000000000000000008152600401610a619190610e81565b60405180910390fd5b565b60008060009054906101000a900473ffffffffffffffffffffffffffffffffffffffff169050816000806101000a81548173ffffffffffffffffffffffffffffffffffffffff021916908373ffffffffffffffffffffffffffffffffffffffff1602179055508173ffffffffffffffffffffffffffffffffffffffff168173ffffffffffffffffffffffffffffffffffffffff167f8be0079c531659141344cd1fd0a4f28419497f9722a3daafe3b4186f6b6457e060405160405180910390a35050565b600260015403610b6c576040517f3ee5aeb500000000000000000000000000000000000000000000000000000000815260040160405180910390fd5b6002600181905550565b610bf2848573ffffffffffffffffffffffffffffffffffffffff166323b872dd868686604051602401610bab939291906116a7565b604051602081830303815290604052915060e01b6020820180517bffffffffffffffffffffffffffffffffffffffffffffffffffffffff8381831617835250505050610c88565b50505050565b610c72838473ffffffffffffffffffffffffffffffffffffffff1663a9059cbb8585604051602401610c2b9291906116de565b604051602081830303815290604052915060e01b6020820180517bffffffffffffffffffffffffffffffffffffffffffffffffffffffff8381831617835250505050610c88565b505050565b60018081905550565b600033905090565b600080602060008451602086016000885af180610cab576040513d6000823e3d81fd5b3d925060005191505060008214610cc6576001811415610ce2565b60008473ffffffffffffffffffffffffffffffffffffffff163b145b15610d2457836040517f5274afe7000000000000000000000000000000000000000000000000000000008152600401610d1b9190610e81565b60405180910390fd5b50505050565b6000604051905090565b600080fd5b6000819050919050565b610d4c81610d39565b8114610d5757600080fd5b50565b600081359050610d6981610d43565b92915050565b600060208284031215610d8557610d84610d34565b5b6000610d9384828501610d5a565b91505092915050565b610da581610d39565b82525050565b6000602082019050610dc06000830184610d9c565b92915050565b600073ffffffffffffffffffffffffffffffffffffffff82169050919050565b6000819050919050565b6000610e0b610e06610e0184610dc6565b610de6565b610dc6565b9050919050565b6000610e1d82610df0565b9050919050565b6000610e2f82610e12565b9050919050565b610e3f81610e24565b82525050565b6000602082019050610e5a6000830184610e36565b92915050565b6000610e6b82610dc6565b9050919050565b610e7b81610e60565b82525050565b6000602082019050610e966000830184610e72565b92915050565b60008060408385031215610eb357610eb2610d34565b5b6000610ec185828601610d5a565b9250506020610ed285828601610d5a565b9150509250929050565b610ee581610e60565b8114610ef057600080fd5b50565b600081359050610f0281610edc565b92915050565b600080600060608486031215610f2157610f20610d34565b5b6000610f2f86828701610ef3565b9350506020610f4086828701610ef3565b9250506040610f5186828701610ef3565b9150509250925092565b6000610f6682610e12565b9050919050565b610f7681610f5b565b82525050565b6000602082019050610f916000830184610f6d565b92915050565b600060208284031215610fad57610fac610d34565b5b6000610fbb84828501610ef3565b91505092915050565b600082825260208201905092915050565b7f537072656164206d757374206265206c657373207468616e203130303030204260008201527f5053202831303025290000000000000000000000000000000000000000000000602082015250565b6000611031602983610fc4565b915061103c82610fd5565b604082019050919050565b6000602082019050818103600083015261106081611024565b9050919050565b7f496e76616c696420616464726573736573000000000000000000000000000000600082015250565b600061109d601183610fc4565b91506110a882611067565b602082019050919050565b600060208201905081810360008301526110cc81611090565b9050919050565b60006060820190506110e86000830186610e72565b6110f56020830185610e72565b6111026040830184610e72565b949350505050565b7f416d6f756e74206d75737420626520706f736974697665000000000000000000600082015250565b6000611140601783610fc4565b915061114b8261110a565b602082019050919050565b6000602082019050818103600083015261116f81611133565b9050919050565b600080fd5b6000601f19601f8301169050919050565b7f4e487b7100000000000000000000000000000000000000000000000000000000600052604160045260246000fd5b6111c48261117b565b810181811067ffffffffffffffff821117156111e3576111e261118c565b5b80604052505050565b60006111f6610d2a565b905061120282826111bb565b919050565b6000819050919050565b61121a81611207565b811461122557600080fd5b50565b60008151905061123781611211565b92915050565b60008151905061124c81610d43565b92915050565b60008151905061126181610edc565b92915050565b60008115159050919050565b61127c81611267565b811461128757600080fd5b50565b60008151905061129981611273565b92915050565b600060e082840312156112b5576112b4611176565b5b6112bf60e06111ec565b905060006112cf84828501611228565b60008301525060206112e38482850161123d565b60208301525060406112f78482850161123d565b604083015250606061130b8482850161123d565b606083015250608061131f8482850161123d565b60808301525060a061133384828501611252565b60a08301525060c06113478482850161128a565b60c08301525092915050565b600060e0828403121561136957611368610d34565b5b60006113778482850161129f565b91505092915050565b7f496e76616c696420746f6b656e204944206f7220697373756572000000000000600082015250565b60006113b6601a83610fc4565b91506113c182611380565b602082019050919050565b600060208201905081810360008301526113e5816113a9565b9050919050565b7f537072656164206e6f7420736574206f7220696e76616c696400000000000000600082015250565b6000611422601983610fc4565b915061142d826113ec565b602082019050919050565b6000602082019050818103600083015261145181611415565b9050919050565b7f4e487b7100000000000000000000000000000000000000000000000000000000600052601160045260246000fd5b600061149282610d39565b915061149d83610d39565b92508282026114ab81610d39565b915082820484148315176114c2576114c1611458565b5b5092915050565b7f4e487b7100000000000000000000000000000000000000000000000000000000600052601260045260246000fd5b600061150382610d39565b915061150e83610d39565b92508261151e5761151d6114c9565b5b828204905092915050565b600061153482610d39565b915061153f83610d39565b925082820390508181111561155757611556611458565b5b92915050565b7f53707265616420697320746f6f2068696768206f7220616d6f756e742069732060008201527f746f6f206c6f7700000000000000000000000000000000000000000000000000602082015250565b60006115b9602783610fc4565b91506115c48261155d565b604082019050919050565b600060208201905081810360008301526115e8816115ac565b9050919050565b600082825260208201905092915050565b50565b60006116106000836115ef565b915061161b82611600565b600082019050919050565b600060a08201905061163b6000830187610e72565b6116486020830186610e72565b6116556040830185610d9c565b6116626060830184610d9c565b818103608083015261167381611603565b905095945050505050565b60006040820190506116936000830185610d9c565b6116a06020830184610d9c565b9392505050565b60006060820190506116bc6000830186610e72565b6116c96020830185610e72565b6116d66040830184610d9c565b949350505050565b60006040820190506116f36000830185610e72565b6117006020830184610d9c565b939250505056fea2646970667358221220d17241f510f5839bf740c8e60f78ecbfe4a66927f765c80e64317303f45b9fc364736f6c63430008140033",
  "linkReferences": {},
  "deployedLinkReferences": {}
}