{
  "_format": "hh-sol-artifact-1",
  "contractName": "FinancingManager",
  "sourceName": "contracts/FinancingManager.sol",
  "abi": [
    {
      "inputs": [
        {
          "internalType": "address",
          "name": "_fractionToken",
          "type": "address"
        },
        {
          "internalType": "address",
          "name": "_stablecoin",
          "type": "address"
        },
        {
          "internalType": "address",
          "name": "_feeWallet",
          "type": "address"
        },
        {
          "internalType": "uint256",
          "name": "_stablecoinDecimals",
          "type": "uint256"
        }
      ],
      "stateMutability": "nonpayable",
      "type": "constructor"
    },
    {
      "inputs": [
        {
          "internalType": "address",
          "name": "owner",
          "type": "address"
        }
      ],
      "name": "OwnableInvalidOwner",
      "type": "error"
    },
    {
      "inputs": [
        {
          "internalType": "address",
          "name": "account",
          "type": "address"
        }
      ],
      "name": "OwnableUnauthorizedAccount",
      "type": "error"
    },
    {
      "inputs": [],
      "name": "ReentrancyGuardReentrantCall",
      "type": "error"
    },
    {
      "inputs": [
        {
          "internalType": "address",
          "name": "token",
          "type": "address"
        }
      ],
      "name": "SafeERC20FailedOperation",
      "type": "error"
    },
    {
      "anonymous": false,
      "inputs": [
        {
          "indexed": false,
          "internalType": "address",
          "name": "newFractionToken",
          "type": "address"
        },
        {
          "indexed": false,
          "internalType": "address",
          "name": "newStablecoin",
          "type": "address"
        },
        {
          "indexed": false,
          "internalType": "address",
          "name": "newFeeWallet",
          "type": "address"
        }
      ],
      "name": "ContractsUpdated",
      "type": "event"
    },
    {
      "anonymous": false,
      "inputs": [
        {
          "indexed": true,
          "internalType": "bytes32",
          "name": "requestId",
          "type": "bytes32"
        },
        {
          "indexed": false,
          "internalType": "bytes32",
          "name": "escrowId",
          "type": "bytes32"
        },
        {
          "indexed": false,
          "internalType": "bytes32",
          "name": "loanId",
          "type": "bytes32"
        }
      ],
      "name": "FinancingApproved",
      "type": "event"
    },
    {
      "anonymous": false,
      "inputs": [
        {
          "indexed": true,
          "internalType": "bytes32",
          "name": "requestId",
          "type": "bytes32"
        }
      ],
      "name": "FinancingRepaid",
      "type": "event"
    },
    {
      "anonymous": false,
      "inputs": [
        {
          "indexed": true,
          "internalType": "bytes32",
          "name": "requestId",
          "type": "bytes32"
        },
        {
          "indexed": false,
          "internalType": "address",
          "name": "borrower",
          "type": "address"
        },
        {
          "indexed": false,
          "internalType": "uint256",
          "name": "tokenId",
          "type": "uint256"
        },
        {
          "indexed": false,
          "internalType": "uint256",
          "name": "loanAmount",
          "type": "uint256"
        }
      ],
      "name": "FinancingRequested",
      "type": "event"
    },
    {
      "anonymous": false,
      "inputs": [
        {
          "indexed": true,
          "internalType": "uint256",
          "name": "tokenId",
          "type": "uint256"
        },
        {
          "indexed": true,
          "internalType": "address",
          "name": "buyer",
          "type": "address"
        },
        {
          "indexed": true,
          "internalType": "address",
          "name": "seller",
          "type": "address"
        },
        {
          "indexed": false,
          "internalType": "uint256",
          "name": "tokenAmount",
          "type": "uint256"
        },
        {
          "indexed": false,
          "internalType": "uint256",
          "name": "platformFee",
          "type": "uint256"
        }
      ],
      "name": "FractionsPurchased",
      "type": "event"
    },
    {
      "anonymous": false,
      "inputs": [
        {
          "indexed": false,
          "internalType": "uint256",
          "name": "newPrice",
          "type": "uint256"
        }
      ],
      "name": "NativePriceUpdated",
      "type": "event"
    },
    {
      "anonymous": false,
      "inputs": [
        {
          "indexed": true,
          "internalType": "address",
          "name": "previousOwner",
          "type": "address"
        },
        {
          "indexed": true,
          "internalType": "address",
          "name": "newOwner",
          "type": "address"
        }
      ],
      "name": "OwnershipTransferred",
      "type": "event"
    },
    {
      "anonymous": false,
      "inputs": [
        {
          "indexed": true,
          "internalType": "uint256",
          "name": "tokenId",
          "type": "uint256"
        },
        {
          "indexed": false,
          "internalType": "uint256",
          "name": "newSpreadBps",
          "type": "uint256"
        }
      ],
      "name": "SpreadUpdated",
      "type": "event"
    },
    {
      "inputs": [
        {
          "internalType": "bytes32",
          "name": "_requestId",
          "type": "bytes32"
        },
        {
          "internalType": "bytes32",
          "name": "_destinationChain",
          "type": "bytes32"
        },
        {
          "internalType": "address",
          "name": "_destinationContract",
          "type": "address"
        }
      ],
      "name": "approveFinancing",
      "outputs": [],
      "stateMutability": "nonpayable",
      "type": "function"
    },
    {
      "inputs": [],
      "name": "bridgeAdapter",
      "outputs": [
        {
          "internalType": "contract IBridgeAdapter",
          "name": "",
          "type": "address"
        }
      ],
      "stateMutability": "view",
      "type": "function"
    },
    {
      "inputs": [
        {
          "internalType": "uint256",
          "name": "_tokenId",
          "type": "uint256"
        },
        {
          "internalType": "uint256",
          "name": "_tokenAmount",
          "type": "uint256"
        }
      ],
      "name": "buyFractions",
      "outputs": [],
      "stateMutability": "nonpayable",
      "type": "function"
    },
    {
      "inputs": [
        {
          "internalType": "uint256",
          "name": "_tokenId",
          "type": "uint256"
        },
        {
          "internalType": "uint256",
          "name": "_tokenAmount",
          "type": "uint256"
        }
      ],
      "name": "buyFractionsNative",
      "outputs": [],
      "stateMutability": "payable",
      "type": "function"
    },
    {
      "inputs": [],
      "name": "escrowContract",
      "outputs": [
        {
          "internalType": "contract IEscrowContract",
          "name": "",
          "type": "address"
        }
      ],
      "stateMutability": "view",
      "type": "function"
    },
    {
      "inputs": [],
      "name": "feeWallet",
      "outputs": [
        {
          "internalType": "address",
          "name": "",
          "type": "address"
        }
      ],
      "stateMutability": "view",
      "type": "function"
    },
    {
      "inputs": [
        {
          "internalType": "bytes32",
          "name": "",
          "type": "bytes32"
        }
      ],
      "name": "financingRequests",
      "outputs": [
        {
          "internalType": "address",
          "name": "borrower",
          "type": "address"
        },
        {
          "internalType": "uint256",
          "name": "tokenId",
          "type": "uint256"
        },
        {
          "internalType": "uint256",
          "name": "collateralAmount",
          "type": "uint256"
        },
        {
          "internalType": "uint256",
          "name": "loanAmount",
          "type": "uint256"
        },
        {
          "internalType": "address",
          "name": "loanAsset",
          "type": "address"
        },
        {
          "internalType": "uint256",
          "name": "timestamp",
          "type": "uint256"
        },
        {
          "internalType": "bool",
          "name": "active",
          "type": "bool"
        },
        {
          "internalType": "bytes32",
          "name": "escrowId",
          "type": "bytes32"
        },
        {
          "internalType": "bytes32",
          "name": "loanId",
          "type": "bytes32"
        }
      ],
      "stateMutability": "view",
      "type": "function"
    },
    {
      "inputs": [],
      "name": "fractionToken",
      "outputs": [
        {
          "internalType": "contract IFractionToken",
          "name": "",
          "type": "address"
        }
      ],
      "stateMutability": "view",
      "type": "function"
    },
    {
      "inputs": [
        {
          "internalType": "uint256",
          "name": "",
          "type": "uint256"
        }
      ],
      "name": "invoiceSpreadBps",
      "outputs": [
        {
          "internalType": "uint256",
          "name": "",
          "type": "uint256"
        }
      ],
      "stateMutability": "view",
      "type": "function"
    },
    {
      "inputs": [],
      "name": "liquidityAdapter",
      "outputs": [
        {
          "internalType": "contract ILiquidityAdapter",
          "name": "",
          "type": "address"
        }
      ],
      "stateMutability": "view",
      "type": "function"
    },
    {
      "inputs": [],
      "name": "nativePerToken",
      "outputs": [
        {
          "internalType": "uint256",
          "name": "",
          "type": "uint256"
        }
      ],
      "stateMutability": "view",
      "type": "function"
    },
    {
      "inputs": [],
      "name": "owner",
      "outputs": [
        {
          "internalType": "address",
          "name": "",
          "type": "address"
        }
      ],
      "stateMutability": "view",
      "type": "function"
    },
    {
      "inputs": [],
      "name": "renounceOwnership",
      "outputs": [],
      "stateMutability": "nonpayable",
      "type": "function"
    },
    {
      "inputs": [
        {
          "internalType": "bytes32",
          "name": "_requestId",
          "type": "bytes32"
        }
      ],
      "name": "repayFinancing",
      "outputs": [],
      "stateMutability": "nonpayable",
      "type": "function"
    },
    {
      "inputs": [
        {
          "internalType": "uint256",
          "name": "_tokenId",
          "type": "uint256"
        },
        {
          "internalType": "uint256",
          "name": "_collateralAmount",
          "type": "uint256"
        },
        {
          "internalType": "uint256",
          "name": "_loanAmount",
          "type": "uint256"
        },
        {
          "internalType": "address",
          "name": "_loanAsset",
          "type": "address"
        }
      ],
      "name": "requestFinancing",
      "outputs": [
        {
          "internalType": "bytes32",
          "name": "",
          "type": "bytes32"
        }
      ],
      "stateMutability": "nonpayable",
      "type": "function"
    },
    {
      "inputs": [
        {
          "internalType": "address",
          "name": "_bridgeAdapter",
          "type": "address"
        },
        {
          "internalType": "address",
          "name": "_liquidityAdapter",
          "type": "address"
        },
        {
          "internalType": "address",
          "name": "_escrowContract",
          "type": "address"
        }
      ],
      "name": "setAdapters",
      "outputs": [],
      "stateMutability": "nonpayable",
      "type": "function"
    },
    {
      "inputs": [
        {
          "internalType": "address",
          "name": "_fractionToken",
          "type": "address"
        },
        {
          "internalType": "address",
          "name": "_stablecoin",
          "type": "address"
        },
        {
          "internalType": "address",
          "name": "_feeWallet",
          "type": "address"
        }
      ],
      "name": "setContracts",
      "outputs": [],
      "stateMutability": "nonpayable",
      "type": "function"
    },
    {
      "inputs": [
        {
          "internalType": "uint256",
          "name": "_tokenId",
          "type": "uint256"
        },
        {
          "internalType": "uint256",
          "name": "_spreadBps",
          "type": "uint256"
        }
      ],
      "name": "setInvoiceSpread",
      "outputs": [],
      "stateMutability": "nonpayable",
      "type": "function"
    },
    {
      "inputs": [
        {
          "internalType": "uint256",
          "name": "_price",
          "type": "uint256"
        }
      ],
      "name": "setNativePerToken",
      "outputs": [],
      "stateMutability": "nonpayable",
      "type": "function"
    },
    {
      "inputs": [],
      "name": "stablecoin",
      "outputs": [
        {
          "internalType": "contract IERC20",
          "name": "",
          "type": "address"
        }
      ],
      "stateMutability": "view",
      "type": "function"
    },
    {
      "inputs": [],
      "name": "stablecoinDecimals",
      "outputs": [
        {
          "internalType": "uint256",
          "name": "",
          "type": "uint256"
        }
      ],
      "stateMutability": "view",
      "type": "function"
    },
    {
      "inputs": [
        {
          "internalType": "address",
          "name": "newOwner",
          "type": "address"
        }
      ],
      "name": "transferOwnership",
      "outputs": [],
      "stateMutability": "nonpayable",
      "type": "function"
    },
    {
      "inputs": [],
      "name": "withdraw",
      "outputs": [],
      "stateMutability": "nonpayable",
      "type": "function"
    }
  ],
  "bytecode": "0x60803461022857601f611e7538819003918201601f19168301916001600160401b0383118484101761022c578084926080946040528339810103126102285761004781610240565b61005360208301610240565b90606061006260408501610240565b9301513315610215575f8054336001600160a01b0319821681178355604051949290916001600160a01b0316907f8be0079c531659141344cd1fd0a4f28419497f9722a3daafe3b4186f6b6457e09080a3600180556001600160a01b03169182151580610203575b806101f1575b156101bb5750801515806101b0575b1561016b57600280546001600160a01b031990811684179091556003805482166001600160a01b0395861690811790915560048054909216949095169384179055600555604080519182526020820193909352918201527fe008bc55cceb8bb7dc36a3bbaa95481f36a3537e2b4cdc39770a19cf94e754a590606090a1604051611c2090816102558239f35b60405162461bcd60e51b815260206004820152601b60248201527f496e76616c696420737461626c65636f696e20646563696d616c7300000000006044820152606490fd5b5060128111156100df565b62461bcd60e51b8152602060048201526011602482015270496e76616c69642061646472657373657360781b6044820152606490fd5b506001600160a01b03851615156100d0565b506001600160a01b03841615156100ca565b631e4fbdf760e01b5f525f60045260245ffd5b5f80fd5b634e487b7160e01b5f52604160045260245ffd5b51906001600160a01b03821682036102285756fe60806040526004361015610011575f80fd5b5f5f3560e01c806319e85170146117805780631ac5023f146117565780631b0d8d84146112805780633ccfd60b146111c8578063457dfc671461119f57806350e9dd39146110db578063715018a6146110815780637f92699214610cf45780638da5cb5b14610ccd578063ad468d1114610ca4578063afdcfda114610bf1578063b3066d4914610af2578063bdaf3f991461077f578063be7dc09b14610756578063e42a96e71461072d578063e7a9de491461070f578063e9cbd822146106e6578063ea3702761461040b578063ef82c1b71461027e578063f25f4b5614610255578063f2fde38b146101cf578063f347f505146101b15763f38d0ae514610117575f80fd5b346101ae5760203660031901126101ae576040610120916004358152600b6020522060018060a01b03815416906001810154906002810154600382015460018060a01b0360048401541660058401549160ff600686015416936008600787015496015496604051988952602089015260408801526060870152608086015260a0850152151560c084015260e0830152610100820152f35b80fd5b50346101ae57806003193601126101ae576020600554604051908152f35b50346101ae5760203660031901126101ae576101e961182e565b6101f1611b0f565b6001600160a01b031680156102415781546001600160a01b03198116821783556001600160a01b03167f8be0079c531659141344cd1fd0a4f28419497f9722a3daafe3b4186f6b6457e08380a380f35b631e4fbdf760e01b82526004829052602482fd5b50346101ae57806003193601126101ae576004546040516001600160a01b039091168152602090f35b50346101ae5760203660031901126101ae5760043561029b611b35565b808252600b6020526040822060068101906102b960ff835416611870565b80546001600160a01b031633036103d75760095460088201548592916001600160a01b031690813b156103d3578391602483926040519485938492636e0fc5b360e11b845260048401525af19081156103c85783916103af575b5050600760018060a01b03600a5416910154813b156103a0578291602483926040519485938492633edd9f3560e01b845260048401525af180156103a45761038b575b5050805460ff191690557f0eb6659b5e8acefd095d5f177f1d3af2f6ba9e081acf85b178517cd93ee8ae458280a26001805580f35b81610395916118b1565b6103a057825f610356565b8280fd5b6040513d84823e3d90fd5b816103b9916118b1565b6103c457815f610313565b5080fd5b6040513d85823e3d90fd5b8380fd5b60405162461bcd60e51b815260206004820152600c60248201526b2737ba103137b93937bbb2b960a11b6044820152606490fd5b50346101ae57602461041c3661185a565b90610425611b35565b6104308215156119f7565b60025460405163fc314e3160e01b815260048101839052936101009185919082906001600160a01b03165afa9283156106db5784936106aa575b5060a0830151818552600760205260408520546001600160a01b0390911693610494851515611a77565b6104a16127108310611ac3565b60206104b1606083015186611a43565b9101519081156106965704600554604d811161068257670de0b6b3a7640000916104de91600a0a90611a43565b0490811561063d576104f36127109183611a43565b04906105496105028383611a6a565b6003546040516323b872dd60e01b60208201523360248201523060448201526064808201959095529384529092906001600160a01b03166105446084836118b1565b611b92565b60025486906001600160a01b0316803b156103c457604051637921219560e11b81526001600160a01b0388166004820152336024820152604481018690526064810187905260a060848201525f60a4820152908290829060c490829084905af180156103a457610624575b50506003546105ce919086906001600160a01b0316611b55565b6003546004546105ec9183916001600160a01b039081169116611b55565b60405192835260208301527f513683548cbdae0859e34a5d5ed80fbee97ac460d4b87a621410c574ed1a675060403393a46001805580f35b8161062e916118b1565b61063957855f6105b4565b8580fd5b60405162461bcd60e51b815260206004820152601860248201527f5061796d656e7420616d6f756e7420746f6f20736d616c6c00000000000000006044820152606490fd5b634e487b7160e01b87526011600452602487fd5b634e487b7160e01b87526012600452602487fd5b6106cd9193506101003d81116106d4575b6106c581836118b1565b810190611966565b915f61046a565b503d6106bb565b6040513d86823e3d90fd5b50346101ae57806003193601126101ae576003546040516001600160a01b039091168152602090f35b50346101ae57806003193601126101ae576020600654604051908152f35b50346101ae57806003193601126101ae57600a546040516001600160a01b039091168152602090f35b50346101ae57806003193601126101ae576008546040516001600160a01b039091168152602090f35b506107893661185a565b610791611b35565b61079c8115156119f7565b6006548015610ab6576107b8670de0b6b3a76400009183611a43565b60025460405163fc314e3160e01b81526004810186905294926001600160a01b03909116910461010085602481855afa948515610aab578695610a86575b506108139061271061080c60e088015183611a43565b0490611a6a565b93843410610a375760a0600180821b0391015116938286526007602052856127106108586040832054610847891515611a77565b610852838210611ac3565b84611a43565b04926108648484611a6a565b90803b156103a057604051637921219560e11b81526001600160a01b0389166004820152336024820152604481018790526064810188905260a060848201525f60a4820152908390829060c490829084905af19081156103c8578391610a22575b50808092895af16108d46118e7565b50156109dd57858080808560018060a01b03600454165af16108f46118e7565b501561099857808691341161093e575b505060405192835260208301527f513683548cbdae0859e34a5d5ed80fbee97ac460d4b87a621410c574ed1a675060403393a46001805580f35b818061094b819334611a6a565b335af16109566118e7565b501561096357845f610904565b60405162461bcd60e51b815260206004820152600d60248201526c1499599d5b990819985a5b1959609a1b6044820152606490fd5b60405162461bcd60e51b815260206004820152601d60248201527f5472616e7366657220746f206665652077616c6c6574206661696c65640000006044820152606490fd5b60405162461bcd60e51b815260206004820152601960248201527f5472616e7366657220746f2073656c6c6572206661696c6564000000000000006044820152606490fd5b81610a2c916118b1565b6103c457815f6108c5565b60405162461bcd60e51b815260206004820152602160248201527f496e73756666696369656e74206e61746976652063757272656e63792073656e6044820152601d60fa1b6064820152608490fd5b610813919550610aa4906101003d81116106d4576106c581836118b1565b94906107f6565b6040513d88823e3d90fd5b60405162461bcd60e51b815260206004820152601460248201527313985d1a5d99481c1c9a58d9481b9bdd081cd95d60621b6044820152606490fd5b50346101ae5760603660031901126101ae577fe008bc55cceb8bb7dc36a3bbaa95481f36a3537e2b4cdc39770a19cf94e754a56060610b2f61182e565b610b37611844565b90610b40611818565b90610b49611b0f565b6001600160a01b03169182151580610bdf575b80610bcd575b610b6b90611926565b826001600160601b0360a01b600254161760025560018060a01b031690816001600160601b0360a01b600354161760035560018060a01b031690816001600160601b0360a01b600454161760045560405192835260208301526040820152a180f35b506001600160a01b0382161515610b62565b506001600160a01b0381161515610b5c565b50346101ae57610c003661185a565b610c08611b0f565b612710811015610c4d5760207ff1dd40af50044c9e71928f1e31ac462e53f9af4cb0279ca9f29e9adff0218b969183855260078252806040862055604051908152a280f35b60405162461bcd60e51b815260206004820152602960248201527f537072656164206d757374206265206c657373207468616e203130303030204260448201526850532028313030252960b81b6064820152608490fd5b50346101ae57806003193601126101ae576009546040516001600160a01b039091168152602090f35b50346101ae57806003193601126101ae57546040516001600160a01b039091168152602090f35b50346101ae5760803660031901126101ae576064356001600160a01b0381169060043590604435906024359084900361107d57610d2f611b35565b80151580611074575b1561103d5760025460405163fc314e3160e01b8152600481018590529061010090829060249082906001600160a01b03165afa908115610aab57869161101e575b5060a001516001600160a01b03163303610fcf576009546040516304cdc57b60e31b81526004810186905290602090829060249082906001600160a01b03165afa8015610aab5783918791610f9a575b5010610f565760405160208101908482528260408201528360608201523360601b608082015242609482015260948152610e0460b4826118b1565b5190209360405191610120830183811067ffffffffffffffff821117610f4257926008876020998198957f5104b4702a10b07ca096e53d4758849041c6c7de6373ca1089185049daaf0db698956060986040523386528c860191888352604087019182528987018881526080880191825260a088019242845260c089019460018652604060e08b01978089526101008c0199818b5281526020600b9052209960018060a01b039060018060a01b03905116166001600160601b0360a01b8b5416178a555160018a015551600289015551600388015560018060a01b03905116600487019060018060a01b03166001600160601b0360a01b825416179055516005860155600685019051151560ff801983541691161790555160078401555191015560405191338352878301526040820152a260018055604051908152f35b634e487b7160e01b88526041600452602488fd5b606460405162461bcd60e51b815260206004820152602060248201527f496e73756666696369656e74206c6971756964697479206f6e204b6174616e616044820152fd5b9150506020813d602011610fc7575b81610fb6602093836118b1565b81010312610639578290515f610dc9565b3d9150610fa9565b60405162461bcd60e51b815260206004820152602160248201527f4f6e6c79206973737565722063616e20726571756573742066696e616e63696e6044820152606760f81b6064820152608490fd5b61103791506101003d81116106d4576106c581836118b1565b5f610d79565b60405162461bcd60e51b815260206004820152600f60248201526e496e76616c696420616d6f756e747360881b6044820152606490fd5b50811515610d38565b8480fd5b50346101ae57806003193601126101ae5761109a611b0f565b80546001600160a01b03198116825581906001600160a01b03167f8be0079c531659141344cd1fd0a4f28419497f9722a3daafe3b4186f6b6457e08280a380f35b50346101ae5760603660031901126101ae576110f561182e565b6110fd611844565b611105611818565b9161110e611b0f565b6001600160a01b03168015158061118d575b8061117b575b61112f90611926565b6001600160601b0360a01b600854161760085560018060a01b03166001600160601b0360a01b600954161760095560018060a01b03166001600160601b0360a01b600a541617600a5580f35b506001600160a01b0383161515611126565b506001600160a01b0382161515611120565b50346101ae57806003193601126101ae576002546040516001600160a01b039091168152602090f35b50346101ae57806003193601126101ae576111e1611b0f565b6111e9611b35565b478015611244578180808093335af16112006118e7565b501561120d576001805580f35b60405162461bcd60e51b815260206004820152600f60248201526e151c985b9cd9995c8819985a5b1959608a1b6044820152606490fd5b60405162461bcd60e51b81526020600482015260146024820152734e6f2066756e647320746f20776974686472617760601b6044820152606490fd5b5034611572576060366003190112611572576004356024356112a0611818565b906112a9611b0f565b825f52600b60205260405f20906112c660ff600684015416611870565b60405160208101906866696e616e63696e6760b81b8252856029820152602981526112f26049826118b1565b519020600a54835460038501805460048701805460025460018a018054989b939995989097959693956001600160a01b0390811694811693919281169116843b15611572575f94610144938e938793604051998a988997630d6bc3c360e31b8952600489015260248801523060448801526064870152608486015262278d0060a486015260c485015260e484015281610104840152816101248401525af1801561174b57611732575b506008546040516397717b8960e01b81528a9493926001600160a01b039092169190602081600481865afa908115610aab5786916116fd575b50830361160e575050600854600280549354908801546040516397717b8960e01b815290949193506001600160a01b039182169290911690602081600481855afa908115610aab5786916115d3575b509185608492602095946040519788968795630736f4c360e11b875260048701526024860152604485015260648401525af19081156103a457829161159e575b506008546009546001600160a01b03918216929116823b156103d3576044849283604051958694859363500a8d6960e01b8552600485015260248401525af180156103a457611589575b5050600954915490548354604051630274045360e11b81526001600160a01b03938416600482015260248101929092528216604482015291602091839160649183918a91165af190811561157e578591611545575b509160086040927f182a558ec42ab1419a7771b13af351b991fa269c3f2d62ea560a3a1fac67db9d949182915b846007820155015582519182526020820152a280f35b9290506020833d602011611576575b81611561602093836118b1565b810103126115725791516008611502565b5f80fd5b3d9150611554565b6040513d87823e3d90fd5b81611593916118b1565b61063957855f6114ad565b9150506020813d6020116115cb575b816115ba602093836118b1565b81010312611572578690515f611463565b3d91506115ad565b93929550506020833d602011611606575b816115f1602093836118b1565b810103126115725791518a9491929085611423565b3d91506115e4565b6002805494549089015460095496985096506001600160a01b039586169590949193911691803b156116f957879560c4948793604051998a9889976315ce2b6960e11b8952600489015260248801526044870152606486015260018060a01b0316608485015260a48401525af180156103a4576116e4575b50507f182a558ec42ab1419a7771b13af351b991fa269c3f2d62ea560a3a1fac67db9d916008604092835160208101906730b3b3a630bcb2b960c11b8252876028820152602881526116d96048826118b1565b51902091829161152f565b816116ee916118b1565b6103d357835f611686565b8780fd5b9550506020853d60201161172a575b81611719602093836118b1565b81010312611572578a94515f6113d4565b3d915061170c565b61174191939299505f906118b1565b5f9790915f61139b565b6040513d5f823e3d90fd5b34611572576020366003190112611572576004355f526007602052602060405f2054604051908152f35b346115725760203660031901126115725760043561179c611b0f565b80156117d3576020817f678adb33b2af1c6ef3f48a91109124919b84a8b669d9c31b0405e65c2a2b6caf92600655604051908152a1005b60405162461bcd60e51b815260206004820152601f60248201527f5072696365206d7573742062652067726561746572207468616e207a65726f006044820152606490fd5b604435906001600160a01b038216820361157257565b600435906001600160a01b038216820361157257565b602435906001600160a01b038216820361157257565b6040906003190112611572576004359060243590565b1561187757565b60405162461bcd60e51b815260206004820152601260248201527152657175657374206e6f742061637469766560701b6044820152606490fd5b90601f8019910116810190811067ffffffffffffffff8211176118d357604052565b634e487b7160e01b5f52604160045260245ffd5b3d15611921573d9067ffffffffffffffff82116118d35760405191611916601f8201601f1916602001846118b1565b82523d5f602084013e565b606090565b1561192d57565b60405162461bcd60e51b8152602060048201526011602482015270496e76616c69642061646472657373657360781b6044820152606490fd5b90816101009103126115725760405190610100820182811067ffffffffffffffff8211176118d357604052805182526020810151602083015260408101516040830152606081015160608301526080810151608083015260a081015160018060a01b03811681036115725760a083015260c08101519081151582036115725760e09160c0840152015160e082015290565b156119fe57565b60405162461bcd60e51b815260206004820152601760248201527f416d6f756e74206d75737420626520706f7369746976650000000000000000006044820152606490fd5b81810292918115918404141715611a5657565b634e487b7160e01b5f52601160045260245ffd5b91908203918211611a5657565b15611a7e57565b60405162461bcd60e51b815260206004820152601a60248201527f496e76616c696420746f6b656e204944206f72206973737565720000000000006044820152606490fd5b15611aca57565b60405162461bcd60e51b815260206004820152601960248201527f537072656164206e6f7420736574206f7220696e76616c6964000000000000006044820152606490fd5b5f546001600160a01b03163303611b2257565b63118cdaa760e01b5f523360045260245ffd5b600260015414611b46576002600155565b633ee5aeb560e01b5f5260045ffd5b60405163a9059cbb60e01b60208201526001600160a01b039092166024830152604480830193909352918152611b90916105446064836118b1565b565b905f602091828151910182855af11561174b575f513d611be157506001600160a01b0381163b155b611bc15750565b635274afe760e01b5f9081526001600160a01b0391909116600452602490fd5b60011415611bba56fea26469706673582212204aa525d69591372e262f3a9edfd9a2524ab03f999ca56409ca34750b1c19473c64736f6c634300081c0033",
  "linkReferences": {},
  "deployedLinkReferences": {}
}