{
  "_format": "hh-sol-artifact-1",
  "contractName": "FinancingManager",
  "sourceName": "contracts/FinancingManager.sol",
  "abi": [
    {
      "inputs": [
        {
          "internalType": "address",
          "name": "_fractionToken",
          "type": "address"
        },
        {
          "internalType": "address",
          "name": "_stablecoin",
          "type": "address"
        },
        {
          "internalType": "address",
          "name": "_feeWallet",
          "type": "address"
        },
        {
          "internalType": "uint256",
          "name": "_stablecoinDecimals",
          "type": "uint256"
        }
      ],
      "stateMutability": "nonpayable",
      "type": "constructor"
    },
    {
      "inputs": [
        {
          "internalType": "address",
          "name": "owner",
          "type": "address"
        }
      ],
      "name": "OwnableInvalidOwner",
      "type": "error"
    },
    {
      "inputs": [
        {
          "internalType": "address",
          "name": "account",
          "type": "address"
        }
      ],
      "name": "OwnableUnauthorizedAccount",
      "type": "error"
    },
    {
      "inputs": [],
      "name": "ReentrancyGuardReentrantCall",
      "type": "error"
    },
    {
      "inputs": [
        {
          "internalType": "address",
          "name": "token",
          "type": "address"
        }
      ],
      "name": "SafeERC20FailedOperation",
      "type": "error"
    },
    {
      "anonymous": false,
      "inputs": [
        {
          "indexed": false,
          "internalType": "address",
          "name": "newFractionToken",
          "type": "address"
        },
        {
          "indexed": false,
          "internalType": "address",
          "name": "newStablecoin",
          "type": "address"
        },
        {
          "indexed": false,
          "internalType": "address",
          "name": "newFeeWallet",
          "type": "address"
        }
      ],
      "name": "ContractsUpdated",
      "type": "event"
    },
    {
      "anonymous": false,
      "inputs": [
        {
          "indexed": true,
          "internalType": "uint256",
          "name": "tokenId",
          "type": "uint256"
        },
        {
          "indexed": true,
          "internalType": "address",
          "name": "buyer",
          "type": "address"
        },
        {
          "indexed": true,
          "internalType": "address",
          "name": "seller",
          "type": "address"
        },
        {
          "indexed": false,
          "internalType": "uint256",
          "name": "tokenAmount",
          "type": "uint256"
        },
        {
          "indexed": false,
          "internalType": "uint256",
          "name": "platformFee",
          "type": "uint256"
        }
      ],
      "name": "FractionsPurchased",
      "type": "event"
    },
    {
      "anonymous": false,
      "inputs": [
        {
          "indexed": true,
          "internalType": "address",
          "name": "previousOwner",
          "type": "address"
        },
        {
          "indexed": true,
          "internalType": "address",
          "name": "newOwner",
          "type": "address"
        }
      ],
      "name": "OwnershipTransferred",
      "type": "event"
    },
    {
      "anonymous": false,
      "inputs": [
        {
          "indexed": true,
          "internalType": "uint256",
          "name": "tokenId",
          "type": "uint256"
        },
        {
          "indexed": false,
          "internalType": "uint256",
          "name": "newSpreadBps",
          "type": "uint256"
        }
      ],
      "name": "SpreadUpdated",
      "type": "event"
    },
    {
      "inputs": [
        {
          "internalType": "uint256",
          "name": "_tokenId",
          "type": "uint256"
        },
        {
          "internalType": "uint256",
          "name": "_tokenAmount",
          "type": "uint256"
        }
      ],
      "name": "buyFractions",
      "outputs": [],
      "stateMutability": "nonpayable",
      "type": "function"
    },
    {
      "inputs": [
        {
          "internalType": "uint256",
          "name": "_tokenId",
          "type": "uint256"
        },
        {
          "internalType": "uint256",
          "name": "_tokenAmount",
          "type": "uint256"
        }
      ],
      "name": "buyFractionsNative",
      "outputs": [],
      "stateMutability": "payable",
      "type": "function"
    },
    {
      "inputs": [],
      "name": "feeWallet",
      "outputs": [
        {
          "internalType": "address",
          "name": "",
          "type": "address"
        }
      ],
      "stateMutability": "view",
      "type": "function"
    },
    {
      "inputs": [],
      "name": "fractionToken",
      "outputs": [
        {
          "internalType": "contract IFractionToken",
          "name": "",
          "type": "address"
        }
      ],
      "stateMutability": "view",
      "type": "function"
    },
    {
      "inputs": [
        {
          "internalType": "uint256",
          "name": "",
          "type": "uint256"
        }
      ],
      "name": "invoiceSpreadBps",
      "outputs": [
        {
          "internalType": "uint256",
          "name": "",
          "type": "uint256"
        }
      ],
      "stateMutability": "view",
      "type": "function"
    },
    {
      "inputs": [],
      "name": "owner",
      "outputs": [
        {
          "internalType": "address",
          "name": "",
          "type": "address"
        }
      ],
      "stateMutability": "view",
      "type": "function"
    },
    {
      "inputs": [],
      "name": "renounceOwnership",
      "outputs": [],
      "stateMutability": "nonpayable",
      "type": "function"
    },
    {
      "inputs": [
        {
          "internalType": "address",
          "name": "_fractionToken",
          "type": "address"
        },
        {
          "internalType": "address",
          "name": "_stablecoin",
          "type": "address"
        },
        {
          "internalType": "address",
          "name": "_feeWallet",
          "type": "address"
        }
      ],
      "name": "setContracts",
      "outputs": [],
      "stateMutability": "nonpayable",
      "type": "function"
    },
    {
      "inputs": [
        {
          "internalType": "uint256",
          "name": "_tokenId",
          "type": "uint256"
        },
        {
          "internalType": "uint256",
          "name": "_spreadBps",
          "type": "uint256"
        }
      ],
      "name": "setInvoiceSpread",
      "outputs": [],
      "stateMutability": "nonpayable",
      "type": "function"
    },
    {
      "inputs": [],
      "name": "stablecoin",
      "outputs": [
        {
          "internalType": "contract IERC20",
          "name": "",
          "type": "address"
        }
      ],
      "stateMutability": "view",
      "type": "function"
    },
    {
      "inputs": [],
      "name": "stablecoinDecimals",
      "outputs": [
        {
          "internalType": "uint256",
          "name": "",
          "type": "uint256"
        }
      ],
      "stateMutability": "view",
      "type": "function"
    },
    {
      "inputs": [
        {
          "internalType": "address",
          "name": "newOwner",
          "type": "address"
        }
      ],
      "name": "transferOwnership",
      "outputs": [],
      "stateMutability": "nonpayable",
      "type": "function"
    }
  ],
  "bytecode": "0x60806040523480156200001157600080fd5b50604051620027343803806200273483398181016040528101906200003791906200047b565b33600073ffffffffffffffffffffffffffffffffffffffff168173ffffffffffffffffffffffffffffffffffffffff1603620000ad5760006040517f1e4fbdf7000000000000000000000000000000000000000000000000000000008152600401620000a49190620004fe565b60405180910390fd5b620000be816200031260201b60201c565b5060018081905550600073ffffffffffffffffffffffffffffffffffffffff168473ffffffffffffffffffffffffffffffffffffffff1614158015620001315750600073ffffffffffffffffffffffffffffffffffffffff168373ffffffffffffffffffffffffffffffffffffffff1614155b80156200016b5750600073ffffffffffffffffffffffffffffffffffffffff168273ffffffffffffffffffffffffffffffffffffffff1614155b620001ad576040517f08c379a0000000000000000000000000000000000000000000000000000000008152600401620001a4906200057c565b60405180910390fd5b600081118015620001bf575060128111155b62000201576040517f08c379a0000000000000000000000000000000000000000000000000000000008152600401620001f890620005ee565b60405180910390fd5b83600260006101000a81548173ffffffffffffffffffffffffffffffffffffffff021916908373ffffffffffffffffffffffffffffffffffffffff16021790555082600360006101000a81548173ffffffffffffffffffffffffffffffffffffffff021916908373ffffffffffffffffffffffffffffffffffffffff16021790555081600460006101000a81548173ffffffffffffffffffffffffffffffffffffffff021916908373ffffffffffffffffffffffffffffffffffffffff160217905550806005819055507fe008bc55cceb8bb7dc36a3bbaa95481f36a3537e2b4cdc39770a19cf94e754a5848484604051620003009392919062000610565b60405180910390a1505050506200064d565b60008060009054906101000a900473ffffffffffffffffffffffffffffffffffffffff169050816000806101000a81548173ffffffffffffffffffffffffffffffffffffffff021916908373ffffffffffffffffffffffffffffffffffffffff1602179055508173ffffffffffffffffffffffffffffffffffffffff168173ffffffffffffffffffffffffffffffffffffffff167f8be0079c531659141344cd1fd0a4f28419497f9722a3daafe3b4186f6b6457e060405160405180910390a35050565b600080fd5b600073ffffffffffffffffffffffffffffffffffffffff82169050919050565b60006200040882620003db565b9050919050565b6200041a81620003fb565b81146200042657600080fd5b50565b6000815190506200043a816200040f565b92915050565b6000819050919050565b620004558162000440565b81146200046157600080fd5b50565b60008151905062000475816200044a565b92915050565b60008060008060808587031215620004985762000497620003d6565b5b6000620004a88782880162000429565b9450506020620004bb8782880162000429565b9350506040620004ce8782880162000429565b9250506060620004e18782880162000464565b91505092959194509250565b620004f881620003fb565b82525050565b6000602082019050620005156000830184620004ed565b92915050565b600082825260208201905092915050565b7f496e76616c696420616464726573736573000000000000000000000000000000600082015250565b6000620005646011836200051b565b915062000571826200052c565b602082019050919050565b60006020820190508181036000830152620005978162000555565b9050919050565b7f496e76616c696420737461626c65636f696e20646563696d616c730000000000600082015250565b6000620005d6601b836200051b565b9150620005e3826200059e565b602082019050919050565b600060208201905081810360008301526200060981620005c7565b9050919050565b6000606082019050620006276000830186620004ed565b620006366020830185620004ed565b620006456040830184620004ed565b949350505050565b6120d7806200065d6000396000f3fe6080604052600436106100a75760003560e01c8063bdaf3f9911610064578063bdaf3f99146101a8578063e9cbd822146101c4578063ea370276146101ef578063f25f4b5614610218578063f2fde38b14610243578063f347f5051461026c576100a7565b80631ac5023f146100ac578063457dfc67146100e9578063715018a6146101145780638da5cb5b1461012b578063afdcfda114610156578063b3066d491461017f575b600080fd5b3480156100b857600080fd5b506100d360048036038101906100ce9190611372565b610297565b6040516100e091906113ae565b60405180910390f35b3480156100f557600080fd5b506100fe6102af565b60405161010b9190611448565b60405180910390f35b34801561012057600080fd5b506101296102d5565b005b34801561013757600080fd5b506101406102e9565b60405161014d9190611484565b60405180910390f35b34801561016257600080fd5b5061017d6004803603810190610178919061149f565b610312565b005b34801561018b57600080fd5b506101a660048036038101906101a1919061150b565b6103b2565b005b6101c260048036038101906101bd919061149f565b61059f565b005b3480156101d057600080fd5b506101d9610a98565b6040516101e6919061157f565b60405180910390f35b3480156101fb57600080fd5b506102166004803603810190610211919061149f565b610abe565b005b34801561022457600080fd5b5061022d610f36565b60405161023a9190611484565b60405180910390f35b34801561024f57600080fd5b5061026a6004803603810190610265919061159a565b610f5c565b005b34801561027857600080fd5b50610281610fe2565b60405161028e91906113ae565b60405180910390f35b60066020528060005260406000206000915090505481565b600260009054906101000a900473ffffffffffffffffffffffffffffffffffffffff1681565b6102dd610fe8565b6102e7600061106f565b565b60008060009054906101000a900473ffffffffffffffffffffffffffffffffffffffff16905090565b61031a610fe8565b612710811061035e576040517f08c379a00000000000000000000000000000000000000000000000000000000081526004016103559061164a565b60405180910390fd5b806006600084815260200190815260200160002081905550817ff1dd40af50044c9e71928f1e31ac462e53f9af4cb0279ca9f29e9adff0218b96826040516103a691906113ae565b60405180910390a25050565b6103ba610fe8565b600073ffffffffffffffffffffffffffffffffffffffff168373ffffffffffffffffffffffffffffffffffffffff16141580156104245750600073ffffffffffffffffffffffffffffffffffffffff168273ffffffffffffffffffffffffffffffffffffffff1614155b801561045d5750600073ffffffffffffffffffffffffffffffffffffffff168173ffffffffffffffffffffffffffffffffffffffff1614155b61049c576040517f08c379a0000000000000000000000000000000000000000000000000000000008152600401610493906116b6565b60405180910390fd5b82600260006101000a81548173ffffffffffffffffffffffffffffffffffffffff021916908373ffffffffffffffffffffffffffffffffffffffff16021790555081600360006101000a81548173ffffffffffffffffffffffffffffffffffffffff021916908373ffffffffffffffffffffffffffffffffffffffff16021790555080600460006101000a81548173ffffffffffffffffffffffffffffffffffffffff021916908373ffffffffffffffffffffffffffffffffffffffff1602179055507fe008bc55cceb8bb7dc36a3bbaa95481f36a3537e2b4cdc39770a19cf94e754a5838383604051610592939291906116d6565b60405180910390a1505050565b6105a7611133565b600081116105ea576040517f08c379a00000000000000000000000000000000000000000000000000000000081526004016105e190611759565b60405180910390fd5b80341461062c576040517f08c379a0000000000000000000000000000000000000000000000000000000008152600401610623906117eb565b60405180910390fd5b6000600260009054906101000a900473ffffffffffffffffffffffffffffffffffffffff1673ffffffffffffffffffffffffffffffffffffffff1663fc314e31846040518263ffffffff1660e01b815260040161068991906113ae565b60e060405180830381865afa1580156106a6573d6000803e3d6000fd5b505050506040513d601f19601f820116820180604052508101906106ca91906119e8565b905060008160a001519050600060066000868152602001908152602001600020549050600073ffffffffffffffffffffffffffffffffffffffff168273ffffffffffffffffffffffffffffffffffffffff160361075c576040517f08c379a000000000000000000000000000000000000000000000000000000000815260040161075390611a61565b60405180910390fd5b61271081106107a0576040517f08c379a000000000000000000000000000000000000000000000000000000000815260040161079790611acd565b60405180910390fd5b600061271082866107b19190611b1c565b6107bb9190611b8d565b9050600081866107cb9190611bbe565b905060008111610810576040517f08c379a000000000000000000000000000000000000000000000000000000000815260040161080790611c64565b60405180910390fd5b600260009054906101000a900473ffffffffffffffffffffffffffffffffffffffff1673ffffffffffffffffffffffffffffffffffffffff1663f242432a85338a8a6040518563ffffffff1660e01b81526004016108719493929190611cbb565b600060405180830381600087803b15801561088b57600080fd5b505af115801561089f573d6000803e3d6000fd5b5050505060008473ffffffffffffffffffffffffffffffffffffffff16826040516108c990611d41565b60006040518083038185875af1925050503d8060008114610906576040519150601f19603f3d011682016040523d82523d6000602084013e61090b565b606091505b505090508061094f576040517f08c379a000000000000000000000000000000000000000000000000000000000815260040161094690611da2565b60405180910390fd5b6000600460009054906101000a900473ffffffffffffffffffffffffffffffffffffffff1673ffffffffffffffffffffffffffffffffffffffff168460405161099790611d41565b60006040518083038185875af1925050503d80600081146109d4576040519150601f19603f3d011682016040523d82523d6000602084013e6109d9565b606091505b5050905080610a1d576040517f08c379a0000000000000000000000000000000000000000000000000000000008152600401610a1490611e0e565b60405180910390fd5b8573ffffffffffffffffffffffffffffffffffffffff163373ffffffffffffffffffffffffffffffffffffffff168a7f513683548cbdae0859e34a5d5ed80fbee97ac460d4b87a621410c574ed1a67508b88604051610a7d929190611e2e565b60405180910390a450505050505050610a94611179565b5050565b600360009054906101000a900473ffffffffffffffffffffffffffffffffffffffff1681565b610ac6611133565b60008111610b09576040517f08c379a0000000000000000000000000000000000000000000000000000000008152600401610b0090611759565b60405180910390fd5b6000600260009054906101000a900473ffffffffffffffffffffffffffffffffffffffff1673ffffffffffffffffffffffffffffffffffffffff1663fc314e31846040518263ffffffff1660e01b8152600401610b6691906113ae565b60e060405180830381865afa158015610b83573d6000803e3d6000fd5b505050506040513d601f19601f82011682018060405250810190610ba791906119e8565b905060008160a001519050600060066000868152602001908152602001600020549050600073ffffffffffffffffffffffffffffffffffffffff168273ffffffffffffffffffffffffffffffffffffffff1603610c39576040517f08c379a0000000000000000000000000000000000000000000000000000000008152600401610c3090611a61565b60405180910390fd5b6127108110610c7d576040517f08c379a0000000000000000000000000000000000000000000000000000000008152600401610c7490611acd565b60405180910390fd5b6000670de0b6b3a7640000600554600a610c979190611f8a565b86610ca29190611b1c565b610cac9190611b8d565b905060008111610cf1576040517f08c379a0000000000000000000000000000000000000000000000000000000008152600401610ce890612021565b60405180910390fd5b60006127108383610d029190611b1c565b610d0c9190611b8d565b905060008183610d1c9190611bbe565b9050610d6d333085600360009054906101000a900473ffffffffffffffffffffffffffffffffffffffff1673ffffffffffffffffffffffffffffffffffffffff16611182909392919063ffffffff16565b600260009054906101000a900473ffffffffffffffffffffffffffffffffffffffff1673ffffffffffffffffffffffffffffffffffffffff1663f242432a86338b8b6040518563ffffffff1660e01b8152600401610dce9493929190611cbb565b600060405180830381600087803b158015610de857600080fd5b505af1158015610dfc573d6000803e3d6000fd5b50505050610e4d8582600360009054906101000a900473ffffffffffffffffffffffffffffffffffffffff1673ffffffffffffffffffffffffffffffffffffffff166112049092919063ffffffff16565b610ebc600460009054906101000a900473ffffffffffffffffffffffffffffffffffffffff1683600360009054906101000a900473ffffffffffffffffffffffffffffffffffffffff1673ffffffffffffffffffffffffffffffffffffffff166112049092919063ffffffff16565b8473ffffffffffffffffffffffffffffffffffffffff163373ffffffffffffffffffffffffffffffffffffffff16897f513683548cbdae0859e34a5d5ed80fbee97ac460d4b87a621410c574ed1a67508a86604051610f1c929190611e2e565b60405180910390a4505050505050610f32611179565b5050565b600460009054906101000a900473ffffffffffffffffffffffffffffffffffffffff1681565b610f64610fe8565b600073ffffffffffffffffffffffffffffffffffffffff168173ffffffffffffffffffffffffffffffffffffffff1603610fd65760006040517f1e4fbdf7000000000000000000000000000000000000000000000000000000008152600401610fcd9190611484565b60405180910390fd5b610fdf8161106f565b50565b60055481565b610ff0611283565b73ffffffffffffffffffffffffffffffffffffffff1661100e6102e9565b73ffffffffffffffffffffffffffffffffffffffff161461106d57611031611283565b6040517f118cdaa70000000000000000000000000000000000000000000000000000000081526004016110649190611484565b60405180910390fd5b565b60008060009054906101000a900473ffffffffffffffffffffffffffffffffffffffff169050816000806101000a81548173ffffffffffffffffffffffffffffffffffffffff021916908373ffffffffffffffffffffffffffffffffffffffff1602179055508173ffffffffffffffffffffffffffffffffffffffff168173ffffffffffffffffffffffffffffffffffffffff167f8be0079c531659141344cd1fd0a4f28419497f9722a3daafe3b4186f6b6457e060405160405180910390a35050565b60026001540361116f576040517f3ee5aeb500000000000000000000000000000000000000000000000000000000815260040160405180910390fd5b6002600181905550565b60018081905550565b6111fe848573ffffffffffffffffffffffffffffffffffffffff166323b872dd8686866040516024016111b793929190612041565b604051602081830303815290604052915060e01b6020820180517bffffffffffffffffffffffffffffffffffffffffffffffffffffffff838183161783525050505061128b565b50505050565b61127e838473ffffffffffffffffffffffffffffffffffffffff1663a9059cbb8585604051602401611237929190612078565b604051602081830303815290604052915060e01b6020820180517bffffffffffffffffffffffffffffffffffffffffffffffffffffffff838183161783525050505061128b565b505050565b600033905090565b600080602060008451602086016000885af1806112ae576040513d6000823e3d81fd5b3d9250600051915050600082146112c95760018114156112e5565b60008473ffffffffffffffffffffffffffffffffffffffff163b145b1561132757836040517f5274afe700000000000000000000000000000000000000000000000000000000815260040161131e9190611484565b60405180910390fd5b50505050565b6000604051905090565b600080fd5b6000819050919050565b61134f8161133c565b811461135a57600080fd5b50565b60008135905061136c81611346565b92915050565b60006020828403121561138857611387611337565b5b60006113968482850161135d565b91505092915050565b6113a88161133c565b82525050565b60006020820190506113c3600083018461139f565b92915050565b600073ffffffffffffffffffffffffffffffffffffffff82169050919050565b6000819050919050565b600061140e611409611404846113c9565b6113e9565b6113c9565b9050919050565b6000611420826113f3565b9050919050565b600061143282611415565b9050919050565b61144281611427565b82525050565b600060208201905061145d6000830184611439565b92915050565b600061146e826113c9565b9050919050565b61147e81611463565b82525050565b60006020820190506114996000830184611475565b92915050565b600080604083850312156114b6576114b5611337565b5b60006114c48582860161135d565b92505060206114d58582860161135d565b9150509250929050565b6114e881611463565b81146114f357600080fd5b50565b600081359050611505816114df565b92915050565b60008060006060848603121561152457611523611337565b5b6000611532868287016114f6565b9350506020611543868287016114f6565b9250506040611554868287016114f6565b9150509250925092565b600061156982611415565b9050919050565b6115798161155e565b82525050565b60006020820190506115946000830184611570565b92915050565b6000602082840312156115b0576115af611337565b5b60006115be848285016114f6565b91505092915050565b600082825260208201905092915050565b7f537072656164206d757374206265206c657373207468616e203130303030204260008201527f5053202831303025290000000000000000000000000000000000000000000000602082015250565b60006116346029836115c7565b915061163f826115d8565b604082019050919050565b6000602082019050818103600083015261166381611627565b9050919050565b7f496e76616c696420616464726573736573000000000000000000000000000000600082015250565b60006116a06011836115c7565b91506116ab8261166a565b602082019050919050565b600060208201905081810360008301526116cf81611693565b9050919050565b60006060820190506116eb6000830186611475565b6116f86020830185611475565b6117056040830184611475565b949350505050565b7f416d6f756e74206d75737420626520706f736974697665000000000000000000600082015250565b60006117436017836115c7565b915061174e8261170d565b602082019050919050565b6000602082019050818103600083015261177281611736565b9050919050565b7f4e61746976652063757272656e637920616d6f756e74206d757374206d61746360008201527f6820746f6b656e20616d6f756e74000000000000000000000000000000000000602082015250565b60006117d5602e836115c7565b91506117e082611779565b604082019050919050565b60006020820190508181036000830152611804816117c8565b9050919050565b600080fd5b6000601f19601f8301169050919050565b7f4e487b7100000000000000000000000000000000000000000000000000000000600052604160045260246000fd5b61185982611810565b810181811067ffffffffffffffff8211171561187857611877611821565b5b80604052505050565b600061188b61132d565b90506118978282611850565b919050565b6000819050919050565b6118af8161189c565b81146118ba57600080fd5b50565b6000815190506118cc816118a6565b92915050565b6000815190506118e181611346565b92915050565b6000815190506118f6816114df565b92915050565b60008115159050919050565b611911816118fc565b811461191c57600080fd5b50565b60008151905061192e81611908565b92915050565b600060e0828403121561194a5761194961180b565b5b61195460e0611881565b90506000611964848285016118bd565b6000830152506020611978848285016118d2565b602083015250604061198c848285016118d2565b60408301525060606119a0848285016118d2565b60608301525060806119b4848285016118d2565b60808301525060a06119c8848285016118e7565b60a08301525060c06119dc8482850161191f565b60c08301525092915050565b600060e082840312156119fe576119fd611337565b5b6000611a0c84828501611934565b91505092915050565b7f496e76616c696420746f6b656e204944206f7220697373756572000000000000600082015250565b6000611a4b601a836115c7565b9150611a5682611a15565b602082019050919050565b60006020820190508181036000830152611a7a81611a3e565b9050919050565b7f537072656164206e6f7420736574206f7220696e76616c696400000000000000600082015250565b6000611ab76019836115c7565b9150611ac282611a81565b602082019050919050565b60006020820190508181036000830152611ae681611aaa565b9050919050565b7f4e487b7100000000000000000000000000000000000000000000000000000000600052601160045260246000fd5b6000611b278261133c565b9150611b328361133c565b9250828202611b408161133c565b91508282048414831517611b5757611b56611aed565b5b5092915050565b7f4e487b7100000000000000000000000000000000000000000000000000000000600052601260045260246000fd5b6000611b988261133c565b9150611ba38361133c565b925082611bb357611bb2611b5e565b5b828204905092915050565b6000611bc98261133c565b9150611bd48361133c565b9250828203905081811115611bec57611beb611aed565b5b92915050565b7f53707265616420697320746f6f2068696768206f7220616d6f756e742069732060008201527f746f6f206c6f7700000000000000000000000000000000000000000000000000602082015250565b6000611c4e6027836115c7565b9150611c5982611bf2565b604082019050919050565b60006020820190508181036000830152611c7d81611c41565b9050919050565b600082825260208201905092915050565b50565b6000611ca5600083611c84565b9150611cb082611c95565b600082019050919050565b600060a082019050611cd06000830187611475565b611cdd6020830186611475565b611cea604083018561139f565b611cf7606083018461139f565b8181036080830152611d0881611c98565b905095945050505050565b600081905092915050565b6000611d2b600083611d13565b9150611d3682611c95565b600082019050919050565b6000611d4c82611d1e565b9150819050919050565b7f5472616e7366657220746f2073656c6c6572206661696c656400000000000000600082015250565b6000611d8c6019836115c7565b9150611d9782611d56565b602082019050919050565b60006020820190508181036000830152611dbb81611d7f565b9050919050565b7f5472616e7366657220746f206665652077616c6c6574206661696c6564000000600082015250565b6000611df8601d836115c7565b9150611e0382611dc2565b602082019050919050565b60006020820190508181036000830152611e2781611deb565b9050919050565b6000604082019050611e43600083018561139f565b611e50602083018461139f565b9392505050565b60008160011c9050919050565b6000808291508390505b6001851115611eae57808604811115611e8a57611e89611aed565b5b6001851615611e995780820291505b8081029050611ea785611e57565b9450611e6e565b94509492505050565b600082611ec75760019050611f83565b81611ed55760009050611f83565b8160018114611eeb5760028114611ef557611f24565b6001915050611f83565b60ff841115611f0757611f06611aed565b5b8360020a915084821115611f1e57611f1d611aed565b5b50611f83565b5060208310610133831016604e8410600b8410161715611f595782820a905083811115611f5457611f53611aed565b5b611f83565b611f668484846001611e64565b92509050818404811115611f7d57611f7c611aed565b5b81810290505b9392505050565b6000611f958261133c565b9150611fa08361133c565b9250611fcd7fffffffffffffffffffffffffffffffffffffffffffffffffffffffffffffffff8484611eb7565b905092915050565b7f5061796d656e7420616d6f756e7420746f6f20736d616c6c0000000000000000600082015250565b600061200b6018836115c7565b915061201682611fd5565b602082019050919050565b6000602082019050818103600083015261203a81611ffe565b9050919050565b60006060820190506120566000830186611475565b6120636020830185611475565b612070604083018461139f565b949350505050565b600060408201905061208d6000830185611475565b61209a602083018461139f565b939250505056fea2646970667358221220dfd71740efc19c09e23ef6401584c44890c48ae856f8569c6ad47a95b2f006d764736f6c63430008140033",
  "linkReferences": {},
  "deployedLinkReferences": {}
}