{
  "_format": "hh-sol-artifact-1",
  "contractName": "FractionToken",
  "sourceName": "contracts/FractionToken.sol",
  "abi": [
    {
      "inputs": [],
      "stateMutability": "nonpayable",
      "type": "constructor"
    },
    {
      "inputs": [
        {
          "internalType": "address",
          "name": "sender",
          "type": "address"
        },
        {
          "internalType": "uint256",
          "name": "balance",
          "type": "uint256"
        },
        {
          "internalType": "uint256",
          "name": "needed",
          "type": "uint256"
        },
        {
          "internalType": "uint256",
          "name": "tokenId",
          "type": "uint256"
        }
      ],
      "name": "ERC1155InsufficientBalance",
      "type": "error"
    },
    {
      "inputs": [
        {
          "internalType": "address",
          "name": "approver",
          "type": "address"
        }
      ],
      "name": "ERC1155InvalidApprover",
      "type": "error"
    },
    {
      "inputs": [
        {
          "internalType": "uint256",
          "name": "idsLength",
          "type": "uint256"
        },
        {
          "internalType": "uint256",
          "name": "valuesLength",
          "type": "uint256"
        }
      ],
      "name": "ERC1155InvalidArrayLength",
      "type": "error"
    },
    {
      "inputs": [
        {
          "internalType": "address",
          "name": "operator",
          "type": "address"
        }
      ],
      "name": "ERC1155InvalidOperator",
      "type": "error"
    },
    {
      "inputs": [
        {
          "internalType": "address",
          "name": "receiver",
          "type": "address"
        }
      ],
      "name": "ERC1155InvalidReceiver",
      "type": "error"
    },
    {
      "inputs": [
        {
          "internalType": "address",
          "name": "sender",
          "type": "address"
        }
      ],
      "name": "ERC1155InvalidSender",
      "type": "error"
    },
    {
      "inputs": [
        {
          "internalType": "address",
          "name": "operator",
          "type": "address"
        },
        {
          "internalType": "address",
          "name": "owner",
          "type": "address"
        }
      ],
      "name": "ERC1155MissingApprovalForAll",
      "type": "error"
    },
    {
      "inputs": [
        {
          "internalType": "address",
          "name": "owner",
          "type": "address"
        }
      ],
      "name": "OwnableInvalidOwner",
      "type": "error"
    },
    {
      "inputs": [
        {
          "internalType": "address",
          "name": "account",
          "type": "address"
        }
      ],
      "name": "OwnableUnauthorizedAccount",
      "type": "error"
    },
    {
      "inputs": [],
      "name": "ReentrancyGuardReentrantCall",
      "type": "error"
    },
    {
      "anonymous": false,
      "inputs": [
        {
          "indexed": true,
          "internalType": "address",
          "name": "account",
          "type": "address"
        },
        {
          "indexed": true,
          "internalType": "address",
          "name": "operator",
          "type": "address"
        },
        {
          "indexed": false,
          "internalType": "bool",
          "name": "approved",
          "type": "bool"
        }
      ],
      "name": "ApprovalForAll",
      "type": "event"
    },
    {
      "anonymous": false,
      "inputs": [
        {
          "indexed": true,
          "internalType": "address",
          "name": "previousOwner",
          "type": "address"
        },
        {
          "indexed": true,
          "internalType": "address",
          "name": "newOwner",
          "type": "address"
        }
      ],
      "name": "OwnershipTransferred",
      "type": "event"
    },
    {
      "anonymous": false,
      "inputs": [
        {
          "indexed": true,
          "internalType": "uint256",
          "name": "tokenId",
          "type": "uint256"
        },
        {
          "indexed": true,
          "internalType": "address",
          "name": "redeemer",
          "type": "address"
        },
        {
          "indexed": false,
          "internalType": "uint256",
          "name": "redemptionValue",
          "type": "uint256"
        }
      ],
      "name": "Redeemed",
      "type": "event"
    },
    {
      "anonymous": false,
      "inputs": [
        {
          "indexed": true,
          "internalType": "uint256",
          "name": "tokenId",
          "type": "uint256"
        },
        {
          "indexed": true,
          "internalType": "address",
          "name": "funder",
          "type": "address"
        },
        {
          "indexed": false,
          "internalType": "uint256",
          "name": "amount",
          "type": "uint256"
        }
      ],
      "name": "RedemptionFunded",
      "type": "event"
    },
    {
      "anonymous": false,
      "inputs": [
        {
          "indexed": true,
          "internalType": "bytes32",
          "name": "invoiceId",
          "type": "bytes32"
        },
        {
          "indexed": false,
          "internalType": "uint256",
          "name": "tokenId",
          "type": "uint256"
        },
        {
          "indexed": false,
          "internalType": "uint256",
          "name": "totalSupply",
          "type": "uint256"
        },
        {
          "indexed": false,
          "internalType": "uint256",
          "name": "faceValue",
          "type": "uint256"
        }
      ],
      "name": "Tokenized",
      "type": "event"
    },
    {
      "anonymous": false,
      "inputs": [
        {
          "indexed": true,
          "internalType": "uint256",
          "name": "tokenId",
          "type": "uint256"
        },
        {
          "indexed": true,
          "internalType": "address",
          "name": "buyer",
          "type": "address"
        },
        {
          "indexed": false,
          "internalType": "uint256",
          "name": "amount",
          "type": "uint256"
        },
        {
          "indexed": false,
          "internalType": "uint256",
          "name": "payment",
          "type": "uint256"
        }
      ],
      "name": "TokensPurchased",
      "type": "event"
    },
    {
      "anonymous": false,
      "inputs": [
        {
          "indexed": true,
          "internalType": "address",
          "name": "operator",
          "type": "address"
        },
        {
          "indexed": true,
          "internalType": "address",
          "name": "from",
          "type": "address"
        },
        {
          "indexed": true,
          "internalType": "address",
          "name": "to",
          "type": "address"
        },
        {
          "indexed": false,
          "internalType": "uint256[]",
          "name": "ids",
          "type": "uint256[]"
        },
        {
          "indexed": false,
          "internalType": "uint256[]",
          "name": "values",
          "type": "uint256[]"
        }
      ],
      "name": "TransferBatch",
      "type": "event"
    },
    {
      "anonymous": false,
      "inputs": [
        {
          "indexed": true,
          "internalType": "address",
          "name": "operator",
          "type": "address"
        },
        {
          "indexed": true,
          "internalType": "address",
          "name": "from",
          "type": "address"
        },
        {
          "indexed": true,
          "internalType": "address",
          "name": "to",
          "type": "address"
        },
        {
          "indexed": false,
          "internalType": "uint256",
          "name": "id",
          "type": "uint256"
        },
        {
          "indexed": false,
          "internalType": "uint256",
          "name": "value",
          "type": "uint256"
        }
      ],
      "name": "TransferSingle",
      "type": "event"
    },
    {
      "anonymous": false,
      "inputs": [
        {
          "indexed": false,
          "internalType": "string",
          "name": "value",
          "type": "string"
        },
        {
          "indexed": true,
          "internalType": "uint256",
          "name": "id",
          "type": "uint256"
        }
      ],
      "name": "URI",
      "type": "event"
    },
    {
      "inputs": [],
      "name": "DECIMALS",
      "outputs": [
        {
          "internalType": "uint8",
          "name": "",
          "type": "uint8"
        }
      ],
      "stateMutability": "view",
      "type": "function"
    },
    {
      "inputs": [
        {
          "internalType": "address",
          "name": "account",
          "type": "address"
        },
        {
          "internalType": "uint256",
          "name": "id",
          "type": "uint256"
        }
      ],
      "name": "balanceOf",
      "outputs": [
        {
          "internalType": "uint256",
          "name": "",
          "type": "uint256"
        }
      ],
      "stateMutability": "view",
      "type": "function"
    },
    {
      "inputs": [
        {
          "internalType": "address[]",
          "name": "accounts",
          "type": "address[]"
        },
        {
          "internalType": "uint256[]",
          "name": "ids",
          "type": "uint256[]"
        }
      ],
      "name": "balanceOfBatch",
      "outputs": [
        {
          "internalType": "uint256[]",
          "name": "",
          "type": "uint256[]"
        }
      ],
      "stateMutability": "view",
      "type": "function"
    },
    {
      "inputs": [
        {
          "internalType": "uint256",
          "name": "_tokenId",
          "type": "uint256"
        }
      ],
      "name": "fundRedemption",
      "outputs": [],
      "stateMutability": "payable",
      "type": "function"
    },
    {
      "inputs": [
        {
          "internalType": "bytes32",
          "name": "",
          "type": "bytes32"
        }
      ],
      "name": "invoiceToTokenId",
      "outputs": [
        {
          "internalType": "uint256",
          "name": "",
          "type": "uint256"
        }
      ],
      "stateMutability": "view",
      "type": "function"
    },
    {
      "inputs": [
        {
          "internalType": "address",
          "name": "account",
          "type": "address"
        },
        {
          "internalType": "address",
          "name": "operator",
          "type": "address"
        }
      ],
      "name": "isApprovedForAll",
      "outputs": [
        {
          "internalType": "bool",
          "name": "",
          "type": "bool"
        }
      ],
      "stateMutability": "view",
      "type": "function"
    },
    {
      "inputs": [],
      "name": "owner",
      "outputs": [
        {
          "internalType": "address",
          "name": "",
          "type": "address"
        }
      ],
      "stateMutability": "view",
      "type": "function"
    },
    {
      "inputs": [
        {
          "internalType": "uint256",
          "name": "_tokenId",
          "type": "uint256"
        },
        {
          "internalType": "uint256",
          "name": "_amount",
          "type": "uint256"
        },
        {
          "internalType": "address",
          "name": "_tokenHolder",
          "type": "address"
        }
      ],
      "name": "purchaseTokens",
      "outputs": [],
      "stateMutability": "payable",
      "type": "function"
    },
    {
      "inputs": [
        {
          "internalType": "uint256",
          "name": "_tokenId",
          "type": "uint256"
        },
        {
          "internalType": "uint256",
          "name": "_amount",
          "type": "uint256"
        }
      ],
      "name": "redeem",
      "outputs": [],
      "stateMutability": "nonpayable",
      "type": "function"
    },
    {
      "inputs": [],
      "name": "renounceOwnership",
      "outputs": [],
      "stateMutability": "nonpayable",
      "type": "function"
    },
    {
      "inputs": [
        {
          "internalType": "address",
          "name": "from",
          "type": "address"
        },
        {
          "internalType": "address",
          "name": "to",
          "type": "address"
        },
        {
          "internalType": "uint256[]",
          "name": "ids",
          "type": "uint256[]"
        },
        {
          "internalType": "uint256[]",
          "name": "values",
          "type": "uint256[]"
        },
        {
          "internalType": "bytes",
          "name": "data",
          "type": "bytes"
        }
      ],
      "name": "safeBatchTransferFrom",
      "outputs": [],
      "stateMutability": "nonpayable",
      "type": "function"
    },
    {
      "inputs": [
        {
          "internalType": "address",
          "name": "from",
          "type": "address"
        },
        {
          "internalType": "address",
          "name": "to",
          "type": "address"
        },
        {
          "internalType": "uint256",
          "name": "id",
          "type": "uint256"
        },
        {
          "internalType": "uint256",
          "name": "value",
          "type": "uint256"
        },
        {
          "internalType": "bytes",
          "name": "data",
          "type": "bytes"
        }
      ],
      "name": "safeTransferFrom",
      "outputs": [],
      "stateMutability": "nonpayable",
      "type": "function"
    },
    {
      "inputs": [
        {
          "internalType": "address",
          "name": "operator",
          "type": "address"
        },
        {
          "internalType": "bool",
          "name": "approved",
          "type": "bool"
        }
      ],
      "name": "setApprovalForAll",
      "outputs": [],
      "stateMutability": "nonpayable",
      "type": "function"
    },
    {
      "inputs": [
        {
          "internalType": "string",
          "name": "_newuri",
          "type": "string"
        }
      ],
      "name": "setURI",
      "outputs": [],
      "stateMutability": "nonpayable",
      "type": "function"
    },
    {
      "inputs": [
        {
          "internalType": "bytes4",
          "name": "interfaceId",
          "type": "bytes4"
        }
      ],
      "name": "supportsInterface",
      "outputs": [
        {
          "internalType": "bool",
          "name": "",
          "type": "bool"
        }
      ],
      "stateMutability": "view",
      "type": "function"
    },
    {
      "inputs": [
        {
          "internalType": "uint256",
          "name": "",
          "type": "uint256"
        }
      ],
      "name": "tokenDetails",
      "outputs": [
        {
          "internalType": "bytes32",
          "name": "invoiceId",
          "type": "bytes32"
        },
        {
          "internalType": "uint256",
          "name": "totalSupply",
          "type": "uint256"
        },
        {
          "internalType": "uint256",
          "name": "remainingSupply",
          "type": "uint256"
        },
        {
          "internalType": "uint256",
          "name": "faceValue",
          "type": "uint256"
        },
        {
          "internalType": "uint256",
          "name": "maturityDate",
          "type": "uint256"
        },
        {
          "internalType": "address",
          "name": "issuer",
          "type": "address"
        },
        {
          "internalType": "bool",
          "name": "isRedeemed",
          "type": "bool"
        },
        {
          "internalType": "uint256",
          "name": "totalFunded",
          "type": "uint256"
        }
      ],
      "stateMutability": "view",
      "type": "function"
    },
    {
      "inputs": [
        {
          "internalType": "bytes32",
          "name": "_invoiceId",
          "type": "bytes32"
        },
        {
          "internalType": "uint256",
          "name": "_totalSupply",
          "type": "uint256"
        },
        {
          "internalType": "uint256",
          "name": "_faceValue",
          "type": "uint256"
        },
        {
          "internalType": "uint256",
          "name": "_maturityDate",
          "type": "uint256"
        },
        {
          "internalType": "address",
          "name": "_issuer",
          "type": "address"
        }
      ],
      "name": "tokenizeInvoice",
      "outputs": [
        {
          "internalType": "uint256",
          "name": "",
          "type": "uint256"
        }
      ],
      "stateMutability": "nonpayable",
      "type": "function"
    },
    {
      "inputs": [
        {
          "internalType": "address",
          "name": "newOwner",
          "type": "address"
        }
      ],
      "name": "transferOwnership",
      "outputs": [],
      "stateMutability": "nonpayable",
      "type": "function"
    },
    {
      "inputs": [
        {
          "internalType": "uint256",
          "name": "_tokenId",
          "type": "uint256"
        }
      ],
      "name": "uri",
      "outputs": [
        {
          "internalType": "string",
          "name": "",
          "type": "string"
        }
      ],
      "stateMutability": "view",
      "type": "function"
    }
  ],
  "bytecode": "0x608060405260016007553480156200001657600080fd5b50336040518060600160405280602b8152602001620042f5602b91396200004381620000d960201b60201c565b50600073ffffffffffffffffffffffffffffffffffffffff168173ffffffffffffffffffffffffffffffffffffffff1603620000b95760006040517f1e4fbdf7000000000000000000000000000000000000000000000000000000008152600401620000b09190620001f9565b60405180910390fd5b620000ca81620000ee60201b60201c565b50600160048190555062000577565b8060029081620000ea919062000490565b5050565b6000600360009054906101000a900473ffffffffffffffffffffffffffffffffffffffff16905081600360006101000a81548173ffffffffffffffffffffffffffffffffffffffff021916908373ffffffffffffffffffffffffffffffffffffffff1602179055508173ffffffffffffffffffffffffffffffffffffffff168173ffffffffffffffffffffffffffffffffffffffff167f8be0079c531659141344cd1fd0a4f28419497f9722a3daafe3b4186f6b6457e060405160405180910390a35050565b600073ffffffffffffffffffffffffffffffffffffffff82169050919050565b6000620001e182620001b4565b9050919050565b620001f381620001d4565b82525050565b6000602082019050620002106000830184620001e8565b92915050565b600081519050919050565b7f4e487b7100000000000000000000000000000000000000000000000000000000600052604160045260246000fd5b7f4e487b7100000000000000000000000000000000000000000000000000000000600052602260045260246000fd5b600060028204905060018216806200029857607f821691505b602082108103620002ae57620002ad62000250565b5b50919050565b60008190508160005260206000209050919050565b60006020601f8301049050919050565b600082821b905092915050565b600060088302620003187fffffffffffffffffffffffffffffffffffffffffffffffffffffffffffffffff82620002d9565b620003248683620002d9565b95508019841693508086168417925050509392505050565b6000819050919050565b6000819050919050565b6000620003716200036b62000365846200033c565b62000346565b6200033c565b9050919050565b6000819050919050565b6200038d8362000350565b620003a56200039c8262000378565b848454620002e6565b825550505050565b600090565b620003bc620003ad565b620003c981848462000382565b505050565b5b81811015620003f157620003e5600082620003b2565b600181019050620003cf565b5050565b601f82111562000440576200040a81620002b4565b6200041584620002c9565b8101602085101562000425578190505b6200043d6200043485620002c9565b830182620003ce565b50505b505050565b600082821c905092915050565b6000620004656000198460080262000445565b1980831691505092915050565b600062000480838362000452565b9150826002028217905092915050565b6200049b8262000216565b67ffffffffffffffff811115620004b757620004b662000221565b5b620004c382546200027f565b620004d0828285620003f5565b600060209050601f831160018114620005085760008415620004f3578287015190505b620004ff858262000472565b8655506200056f565b601f1984166200051886620002b4565b60005b8281101562000542578489015182556001820191506020850194506020810190506200051b565b868310156200056257848901516200055e601f89168262000452565b8355505b6001600288020188555050505b505050505050565b613d6e80620005876000396000f3fe6080604052600436106101135760003560e01c80634e1273f4116100a0578063e985e9c511610064578063e985e9c5146103b3578063f242432a146103f0578063f2fde38b14610419578063f7cea6ee14610442578063fc314e311461045e57610113565b80634e1273f4146102e2578063715018a61461031f5780637cbc2373146103365780638da5cb5b1461035f578063a22cb4651461038a57610113565b80630e89341c116100e75780630e89341c146101d757806312589e19146102145780632e0f2625146102515780632eb2c2d61461027c57806343c29406146102a557610113565b8062fdd58e1461011857806301ffc9a71461015557806302fe5305146101925780630334f811146101bb575b600080fd5b34801561012457600080fd5b5061013f600480360381019061013a91906123c2565b6104a2565b60405161014c9190612411565b60405180910390f35b34801561016157600080fd5b5061017c60048036038101906101779190612484565b6104fc565b60405161018991906124cc565b60405180910390f35b34801561019e57600080fd5b506101b960048036038101906101b4919061262d565b6105de565b005b6101d560048036038101906101d09190612676565b6105f2565b005b3480156101e357600080fd5b506101fe60048036038101906101f991906126c9565b61080b565b60405161020b9190612775565b60405180910390f35b34801561022057600080fd5b5061023b600480360381019061023691906127cd565b61086d565b6040516102489190612411565b60405180910390f35b34801561025d57600080fd5b50610266610885565b6040516102739190612816565b60405180910390f35b34801561028857600080fd5b506102a3600480360381019061029e919061299a565b61088a565b005b3480156102b157600080fd5b506102cc60048036038101906102c79190612a69565b610932565b6040516102d99190612411565b60405180910390f35b3480156102ee57600080fd5b5061030960048036038101906103049190612ba7565b610b80565b6040516103169190612cdd565b60405180910390f35b34801561032b57600080fd5b50610334610c8f565b005b34801561034257600080fd5b5061035d60048036038101906103589190612cff565b610ca3565b005b34801561036b57600080fd5b50610374610f6e565b6040516103819190612d4e565b60405180910390f35b34801561039657600080fd5b506103b160048036038101906103ac9190612d95565b610f98565b005b3480156103bf57600080fd5b506103da60048036038101906103d59190612dd5565b610fae565b6040516103e791906124cc565b60405180910390f35b3480156103fc57600080fd5b5061041760048036038101906104129190612e15565b611042565b005b34801561042557600080fd5b50610440600480360381019061043b9190612eac565b6110ea565b005b61045c600480360381019061045791906126c9565b611170565b005b34801561046a57600080fd5b50610485600480360381019061048091906126c9565b61131c565b604051610499989796959493929190612ee8565b60405180910390f35b600080600083815260200190815260200160002060008473ffffffffffffffffffffffffffffffffffffffff1673ffffffffffffffffffffffffffffffffffffffff16815260200190815260200160002054905092915050565b60007fd9b67a26000000000000000000000000000000000000000000000000000000007bffffffffffffffffffffffffffffffffffffffffffffffffffffffff1916827bffffffffffffffffffffffffffffffffffffffffffffffffffffffff191614806105c757507f0e89341c000000000000000000000000000000000000000000000000000000007bffffffffffffffffffffffffffffffffffffffffffffffffffffffff1916827bffffffffffffffffffffffffffffffffffffffffffffffffffffffff1916145b806105d757506105d682611391565b5b9050919050565b6105e66113fb565b6105ef81611482565b50565b6105fa611495565b60006006600085815260200190815260200160002090506000816001015411610658576040517f08c379a000000000000000000000000000000000000000000000000000000000815260040161064f90612fb2565b60405180910390fd5b6000831161069b576040517f08c379a00000000000000000000000000000000000000000000000000000000081526004016106929061301e565b60405180910390fd5b60008390508034146106e2576040517f08c379a00000000000000000000000000000000000000000000000000000000081526004016106d99061308a565b60405180910390fd5b60008373ffffffffffffffffffffffffffffffffffffffff1634604051610708906130db565b60006040518083038185875af1925050503d8060008114610745576040519150601f19603f3d011682016040523d82523d6000602084013e61074a565b606091505b505090508061078e576040517f08c379a00000000000000000000000000000000000000000000000000000000081526004016107859061313c565b60405180910390fd5b6107aa84338888604051806020016040528060008152506114db565b3373ffffffffffffffffffffffffffffffffffffffff16867fe8d7e55108ae7ddb60173461d2950c7a8e22a7ac7f442825564fe84c8c6f9a3887856040516107f392919061315c565b60405180910390a35050506108066115e6565b505050565b606060008211801561081e575060075482105b61085d576040517f08c379a0000000000000000000000000000000000000000000000000000000008152600401610854906131d1565b60405180910390fd5b610866826115f0565b9050919050565b60056020528060005260406000206000915090505481565b601281565b6000610894611684565b90508073ffffffffffffffffffffffffffffffffffffffff168673ffffffffffffffffffffffffffffffffffffffff16141580156108d957506108d78682610fae565b155b1561091d5780866040517fe237d9220000000000000000000000000000000000000000000000000000000081526004016109149291906131f1565b60405180910390fd5b61092a868686868661168c565b505050505050565b600061093c6113fb565b6000600560008881526020019081526020016000205414610992576040517f08c379a000000000000000000000000000000000000000000000000000000000815260040161098990613266565b60405180910390fd5b600085116109d5576040517f08c379a00000000000000000000000000000000000000000000000000000000081526004016109cc906132f8565b60405180910390fd5b6000600760008154809291906109ea90613347565b9190505590508060056000898152602001908152602001600020819055506040518061010001604052808881526020018781526020018781526020018681526020018581526020018473ffffffffffffffffffffffffffffffffffffffff168152602001600015158152602001600081525060066000838152602001908152602001600020600082015181600001556020820151816001015560408201518160020155606082015181600301556080820151816004015560a08201518160050160006101000a81548173ffffffffffffffffffffffffffffffffffffffff021916908373ffffffffffffffffffffffffffffffffffffffff16021790555060c08201518160050160146101000a81548160ff02191690831515021790555060e08201518160060155905050610b37610b20610f6e565b828860405180602001604052806000815250611784565b867f07f5bfe4bde30469800f142c7b6c69079d03ffc0c33a3154f48997574e59fe6e828888604051610b6b9392919061338f565b60405180910390a28091505095945050505050565b60608151835114610bcc57815183516040517f5b059991000000000000000000000000000000000000000000000000000000008152600401610bc392919061315c565b60405180910390fd5b6000835167ffffffffffffffff811115610be957610be8612502565b5b604051908082528060200260200182016040528015610c175781602001602082028036833780820191505090505b50905060005b8451811015610c8457610c54610c3c828761181d90919063ffffffff16565b610c4f838761183190919063ffffffff16565b6104a2565b828281518110610c6757610c666133c6565b5b60200260200101818152505080610c7d90613347565b9050610c1d565b508091505092915050565b610c976113fb565b610ca16000611845565b565b610cab611495565b60006006600084815260200190815260200160002090508060040154421015610d09576040517f08c379a0000000000000000000000000000000000000000000000000000000008152600401610d0090613441565b60405180910390fd5b60008160010154826003015484610d209190613461565b610d2a91906134d2565b905060008111610d6f576040517f08c379a0000000000000000000000000000000000000000000000000000000008152600401610d669061354f565b60405180910390fd5b8082600601541015610db6576040517f08c379a0000000000000000000000000000000000000000000000000000000008152600401610dad906135e1565b60405180910390fd5b80471015610df9576040517f08c379a0000000000000000000000000000000000000000000000000000000008152600401610df09061364d565b60405180910390fd5b610e0433858561190b565b82826002016000828254610e18919061366d565b9250508190555080826006016000828254610e33919061366d565b925050819055506000826002015403610e645760018260050160146101000a81548160ff0219169083151502179055505b60003373ffffffffffffffffffffffffffffffffffffffff1682604051610e8a906130db565b60006040518083038185875af1925050503d8060008114610ec7576040519150601f19603f3d011682016040523d82523d6000602084013e610ecc565b606091505b5050905080610f10576040517f08c379a0000000000000000000000000000000000000000000000000000000008152600401610f07906136ed565b60405180910390fd5b3373ffffffffffffffffffffffffffffffffffffffff16857fa18626381edd3d7a115c4a09f678bb79665034a541affcdba9fe65a1d3d107ee84604051610f579190612411565b60405180910390a3505050610f6a6115e6565b5050565b6000600360009054906101000a900473ffffffffffffffffffffffffffffffffffffffff16905090565b610faa610fa3611684565b83836119b2565b5050565b6000600160008473ffffffffffffffffffffffffffffffffffffffff1673ffffffffffffffffffffffffffffffffffffffff16815260200190815260200160002060008373ffffffffffffffffffffffffffffffffffffffff1673ffffffffffffffffffffffffffffffffffffffff16815260200190815260200160002060009054906101000a900460ff16905092915050565b600061104c611684565b90508073ffffffffffffffffffffffffffffffffffffffff168673ffffffffffffffffffffffffffffffffffffffff1614158015611091575061108f8682610fae565b155b156110d55780866040517fe237d9220000000000000000000000000000000000000000000000000000000081526004016110cc9291906131f1565b60405180910390fd5b6110e286868686866114db565b505050505050565b6110f26113fb565b600073ffffffffffffffffffffffffffffffffffffffff168173ffffffffffffffffffffffffffffffffffffffff16036111645760006040517f1e4fbdf700000000000000000000000000000000000000000000000000000000815260040161115b9190612d4e565b60405180910390fd5b61116d81611845565b50565b60006006600083815260200190815260200160002090508060050160009054906101000a900473ffffffffffffffffffffffffffffffffffffffff1673ffffffffffffffffffffffffffffffffffffffff163373ffffffffffffffffffffffffffffffffffffffff1614611219576040517f08c379a000000000000000000000000000000000000000000000000000000000815260040161121090613759565b60405180910390fd5b8060050160149054906101000a900460ff161561126b576040517f08c379a0000000000000000000000000000000000000000000000000000000008152600401611262906137c5565b60405180910390fd5b600034116112ae576040517f08c379a00000000000000000000000000000000000000000000000000000000081526004016112a590613831565b60405180910390fd5b348160060160008282546112c29190613851565b925050819055503373ffffffffffffffffffffffffffffffffffffffff16827fb7e6617ade0f97e294ed70934adbf1b40613042dc2bb5aecabb208cc84042872346040516113109190612411565b60405180910390a35050565b60066020528060005260406000206000915090508060000154908060010154908060020154908060030154908060040154908060050160009054906101000a900473ffffffffffffffffffffffffffffffffffffffff16908060050160149054906101000a900460ff16908060060154905088565b60007f01ffc9a7000000000000000000000000000000000000000000000000000000007bffffffffffffffffffffffffffffffffffffffffffffffffffffffff1916827bffffffffffffffffffffffffffffffffffffffffffffffffffffffff1916149050919050565b611403611684565b73ffffffffffffffffffffffffffffffffffffffff16611421610f6e565b73ffffffffffffffffffffffffffffffffffffffff161461148057611444611684565b6040517f118cdaa70000000000000000000000000000000000000000000000000000000081526004016114779190612d4e565b60405180910390fd5b565b80600290816114919190613a91565b5050565b6002600454036114d1576040517f3ee5aeb500000000000000000000000000000000000000000000000000000000815260040160405180910390fd5b6002600481905550565b600073ffffffffffffffffffffffffffffffffffffffff168473ffffffffffffffffffffffffffffffffffffffff160361154d5760006040517f57f447ce0000000000000000000000000000000000000000000000000000000081526004016115449190612d4e565b60405180910390fd5b600073ffffffffffffffffffffffffffffffffffffffff168573ffffffffffffffffffffffffffffffffffffffff16036115bf5760006040517f01a835140000000000000000000000000000000000000000000000000000000081526004016115b69190612d4e565b60405180910390fd5b6000806115cc8585611b22565b915091506115dd8787848487611b52565b50505050505050565b6001600481905550565b6060600280546115ff906138b4565b80601f016020809104026020016040519081016040528092919081815260200182805461162b906138b4565b80156116785780601f1061164d57610100808354040283529160200191611678565b820191906000526020600020905b81548152906001019060200180831161165b57829003601f168201915b50505050509050919050565b600033905090565b600073ffffffffffffffffffffffffffffffffffffffff168473ffffffffffffffffffffffffffffffffffffffff16036116fe5760006040517f57f447ce0000000000000000000000000000000000000000000000000000000081526004016116f59190612d4e565b60405180910390fd5b600073ffffffffffffffffffffffffffffffffffffffff168573ffffffffffffffffffffffffffffffffffffffff16036117705760006040517f01a835140000000000000000000000000000000000000000000000000000000081526004016117679190612d4e565b60405180910390fd5b61177d8585858585611b52565b5050505050565b600073ffffffffffffffffffffffffffffffffffffffff168473ffffffffffffffffffffffffffffffffffffffff16036117f65760006040517f57f447ce0000000000000000000000000000000000000000000000000000000081526004016117ed9190612d4e565b60405180910390fd5b6000806118038585611b22565b91509150611815600087848487611b52565b505050505050565b600060208202602084010151905092915050565b600060208202602084010151905092915050565b6000600360009054906101000a900473ffffffffffffffffffffffffffffffffffffffff16905081600360006101000a81548173ffffffffffffffffffffffffffffffffffffffff021916908373ffffffffffffffffffffffffffffffffffffffff1602179055508173ffffffffffffffffffffffffffffffffffffffff168173ffffffffffffffffffffffffffffffffffffffff167f8be0079c531659141344cd1fd0a4f28419497f9722a3daafe3b4186f6b6457e060405160405180910390a35050565b600073ffffffffffffffffffffffffffffffffffffffff168373ffffffffffffffffffffffffffffffffffffffff160361197d5760006040517f01a835140000000000000000000000000000000000000000000000000000000081526004016119749190612d4e565b60405180910390fd5b60008061198a8484611b22565b915091506119ab856000848460405180602001604052806000815250611b52565b5050505050565b600073ffffffffffffffffffffffffffffffffffffffff168273ffffffffffffffffffffffffffffffffffffffff1603611a245760006040517fced3e100000000000000000000000000000000000000000000000000000000008152600401611a1b9190612d4e565b60405180910390fd5b80600160008573ffffffffffffffffffffffffffffffffffffffff1673ffffffffffffffffffffffffffffffffffffffff16815260200190815260200160002060008473ffffffffffffffffffffffffffffffffffffffff1673ffffffffffffffffffffffffffffffffffffffff16815260200190815260200160002060006101000a81548160ff0219169083151502179055508173ffffffffffffffffffffffffffffffffffffffff168373ffffffffffffffffffffffffffffffffffffffff167f17307eab39ab6107e8899845ad3d59bd9653f200f220920489ca2b5937696c3183604051611b1591906124cc565b60405180910390a3505050565b60608060405191506001825283602083015260408201905060018152826020820152604081016040529250929050565b611b5e85858585611c04565b600073ffffffffffffffffffffffffffffffffffffffff168473ffffffffffffffffffffffffffffffffffffffff1614611bfd576000611b9c611684565b90506001845103611bec576000611bbd60008661183190919063ffffffff16565b90506000611bd560008661183190919063ffffffff16565b9050611be5838989858589611fb2565b5050611bfb565b611bfa818787878787612166565b5b505b5050505050565b8051825114611c4e57815181516040517f5b059991000000000000000000000000000000000000000000000000000000008152600401611c4592919061315c565b60405180910390fd5b6000611c58611684565b905060005b8351811015611e6d576000611c7b828661183190919063ffffffff16565b90506000611c92838661183190919063ffffffff16565b9050600073ffffffffffffffffffffffffffffffffffffffff168873ffffffffffffffffffffffffffffffffffffffff1614611dbf57600080600084815260200190815260200160002060008a73ffffffffffffffffffffffffffffffffffffffff1673ffffffffffffffffffffffffffffffffffffffff16815260200190815260200160002054905081811015611d6757888183856040517f03dee4c5000000000000000000000000000000000000000000000000000000008152600401611d5e9493929190613b63565b60405180910390fd5b81810360008085815260200190815260200160002060008b73ffffffffffffffffffffffffffffffffffffffff1673ffffffffffffffffffffffffffffffffffffffff16815260200190815260200160002081905550505b600073ffffffffffffffffffffffffffffffffffffffff168773ffffffffffffffffffffffffffffffffffffffff1614611e5a578060008084815260200190815260200160002060008973ffffffffffffffffffffffffffffffffffffffff1673ffffffffffffffffffffffffffffffffffffffff1681526020019081526020016000206000828254611e529190613851565b925050819055505b505080611e6690613347565b9050611c5d565b506001835103611f2c576000611e8d60008561183190919063ffffffff16565b90506000611ea560008561183190919063ffffffff16565b90508573ffffffffffffffffffffffffffffffffffffffff168773ffffffffffffffffffffffffffffffffffffffff168473ffffffffffffffffffffffffffffffffffffffff167fc3d58168c5ae7397731d063d5bbf3d657854427343f4c083240f7aacaa2d0f628585604051611f1d92919061315c565b60405180910390a45050611fab565b8373ffffffffffffffffffffffffffffffffffffffff168573ffffffffffffffffffffffffffffffffffffffff168273ffffffffffffffffffffffffffffffffffffffff167f4a39dc06d4c0dbc64b70af90fd698a233a518aa5d07e595d983b8c0526c8f7fb8686604051611fa2929190613ba8565b60405180910390a45b5050505050565b60008473ffffffffffffffffffffffffffffffffffffffff163b111561215e578373ffffffffffffffffffffffffffffffffffffffff1663f23a6e6187878686866040518663ffffffff1660e01b8152600401612013959493929190613c34565b6020604051808303816000875af192505050801561204f57506040513d601f19601f8201168201806040525081019061204c9190613ca3565b60015b6120d3573d806000811461207f576040519150601f19603f3d011682016040523d82523d6000602084013e612084565b606091505b5060008151036120cb57846040517f57f447ce0000000000000000000000000000000000000000000000000000000081526004016120c29190612d4e565b60405180910390fd5b805160208201fd5b63f23a6e6160e01b7bffffffffffffffffffffffffffffffffffffffffffffffffffffffff1916817bffffffffffffffffffffffffffffffffffffffffffffffffffffffff19161461215c57846040517f57f447ce0000000000000000000000000000000000000000000000000000000081526004016121539190612d4e565b60405180910390fd5b505b505050505050565b60008473ffffffffffffffffffffffffffffffffffffffff163b1115612312578373ffffffffffffffffffffffffffffffffffffffff1663bc197c8187878686866040518663ffffffff1660e01b81526004016121c7959493929190613cd0565b6020604051808303816000875af192505050801561220357506040513d601f19601f820116820180604052508101906122009190613ca3565b60015b612287573d8060008114612233576040519150601f19603f3d011682016040523d82523d6000602084013e612238565b606091505b50600081510361227f57846040517f57f447ce0000000000000000000000000000000000000000000000000000000081526004016122769190612d4e565b60405180910390fd5b805160208201fd5b63bc197c8160e01b7bffffffffffffffffffffffffffffffffffffffffffffffffffffffff1916817bffffffffffffffffffffffffffffffffffffffffffffffffffffffff19161461231057846040517f57f447ce0000000000000000000000000000000000000000000000000000000081526004016123079190612d4e565b60405180910390fd5b505b505050505050565b6000604051905090565b600080fd5b600080fd5b600073ffffffffffffffffffffffffffffffffffffffff82169050919050565b60006123598261232e565b9050919050565b6123698161234e565b811461237457600080fd5b50565b60008135905061238681612360565b92915050565b6000819050919050565b61239f8161238c565b81146123aa57600080fd5b50565b6000813590506123bc81612396565b92915050565b600080604083850312156123d9576123d8612324565b5b60006123e785828601612377565b92505060206123f8858286016123ad565b9150509250929050565b61240b8161238c565b82525050565b60006020820190506124266000830184612402565b92915050565b60007fffffffff0000000000000000000000000000000000000000000000000000000082169050919050565b6124618161242c565b811461246c57600080fd5b50565b60008135905061247e81612458565b92915050565b60006020828403121561249a57612499612324565b5b60006124a88482850161246f565b91505092915050565b60008115159050919050565b6124c6816124b1565b82525050565b60006020820190506124e160008301846124bd565b92915050565b600080fd5b600080fd5b6000601f19601f8301169050919050565b7f4e487b7100000000000000000000000000000000000000000000000000000000600052604160045260246000fd5b61253a826124f1565b810181811067ffffffffffffffff8211171561255957612558612502565b5b80604052505050565b600061256c61231a565b90506125788282612531565b919050565b600067ffffffffffffffff82111561259857612597612502565b5b6125a1826124f1565b9050602081019050919050565b82818337600083830152505050565b60006125d06125cb8461257d565b612562565b9050828152602081018484840111156125ec576125eb6124ec565b5b6125f78482856125ae565b509392505050565b600082601f830112612614576126136124e7565b5b81356126248482602086016125bd565b91505092915050565b60006020828403121561264357612642612324565b5b600082013567ffffffffffffffff81111561266157612660612329565b5b61266d848285016125ff565b91505092915050565b60008060006060848603121561268f5761268e612324565b5b600061269d868287016123ad565b93505060206126ae868287016123ad565b92505060406126bf86828701612377565b9150509250925092565b6000602082840312156126df576126de612324565b5b60006126ed848285016123ad565b91505092915050565b600081519050919050565b600082825260208201905092915050565b60005b83811015612730578082015181840152602081019050612715565b60008484015250505050565b6000612747826126f6565b6127518185612701565b9350612761818560208601612712565b61276a816124f1565b840191505092915050565b6000602082019050818103600083015261278f818461273c565b905092915050565b6000819050919050565b6127aa81612797565b81146127b557600080fd5b50565b6000813590506127c7816127a1565b92915050565b6000602082840312156127e3576127e2612324565b5b60006127f1848285016127b8565b91505092915050565b600060ff82169050919050565b612810816127fa565b82525050565b600060208201905061282b6000830184612807565b92915050565b600067ffffffffffffffff82111561284c5761284b612502565b5b602082029050602081019050919050565b600080fd5b600061287561287084612831565b612562565b905080838252602082019050602084028301858111156128985761289761285d565b5b835b818110156128c157806128ad88826123ad565b84526020840193505060208101905061289a565b5050509392505050565b600082601f8301126128e0576128df6124e7565b5b81356128f0848260208601612862565b91505092915050565b600067ffffffffffffffff82111561291457612913612502565b5b61291d826124f1565b9050602081019050919050565b600061293d612938846128f9565b612562565b905082815260208101848484011115612959576129586124ec565b5b6129648482856125ae565b509392505050565b600082601f830112612981576129806124e7565b5b813561299184826020860161292a565b91505092915050565b600080600080600060a086880312156129b6576129b5612324565b5b60006129c488828901612377565b95505060206129d588828901612377565b945050604086013567ffffffffffffffff8111156129f6576129f5612329565b5b612a02888289016128cb565b935050606086013567ffffffffffffffff811115612a2357612a22612329565b5b612a2f888289016128cb565b925050608086013567ffffffffffffffff811115612a5057612a4f612329565b5b612a5c8882890161296c565b9150509295509295909350565b600080600080600060a08688031215612a8557612a84612324565b5b6000612a93888289016127b8565b9550506020612aa4888289016123ad565b9450506040612ab5888289016123ad565b9350506060612ac6888289016123ad565b9250506080612ad788828901612377565b9150509295509295909350565b600067ffffffffffffffff821115612aff57612afe612502565b5b602082029050602081019050919050565b6000612b23612b1e84612ae4565b612562565b90508083825260208201905060208402830185811115612b4657612b4561285d565b5b835b81811015612b6f5780612b5b8882612377565b845260208401935050602081019050612b48565b5050509392505050565b600082601f830112612b8e57612b8d6124e7565b5b8135612b9e848260208601612b10565b91505092915050565b60008060408385031215612bbe57612bbd612324565b5b600083013567ffffffffffffffff811115612bdc57612bdb612329565b5b612be885828601612b79565b925050602083013567ffffffffffffffff811115612c0957612c08612329565b5b612c15858286016128cb565b9150509250929050565b600081519050919050565b600082825260208201905092915050565b6000819050602082019050919050565b612c548161238c565b82525050565b6000612c668383612c4b565b60208301905092915050565b6000602082019050919050565b6000612c8a82612c1f565b612c948185612c2a565b9350612c9f83612c3b565b8060005b83811015612cd0578151612cb78882612c5a565b9750612cc283612c72565b925050600181019050612ca3565b5085935050505092915050565b60006020820190508181036000830152612cf78184612c7f565b905092915050565b60008060408385031215612d1657612d15612324565b5b6000612d24858286016123ad565b9250506020612d35858286016123ad565b9150509250929050565b612d488161234e565b82525050565b6000602082019050612d636000830184612d3f565b92915050565b612d72816124b1565b8114612d7d57600080fd5b50565b600081359050612d8f81612d69565b92915050565b60008060408385031215612dac57612dab612324565b5b6000612dba85828601612377565b9250506020612dcb85828601612d80565b9150509250929050565b60008060408385031215612dec57612deb612324565b5b6000612dfa85828601612377565b9250506020612e0b85828601612377565b9150509250929050565b600080600080600060a08688031215612e3157612e30612324565b5b6000612e3f88828901612377565b9550506020612e5088828901612377565b9450506040612e61888289016123ad565b9350506060612e72888289016123ad565b925050608086013567ffffffffffffffff811115612e9357612e92612329565b5b612e9f8882890161296c565b9150509295509295909350565b600060208284031215612ec257612ec1612324565b5b6000612ed084828501612377565b91505092915050565b612ee281612797565b82525050565b600061010082019050612efe600083018b612ed9565b612f0b602083018a612402565b612f186040830189612402565b612f256060830188612402565b612f326080830187612402565b612f3f60a0830186612d3f565b612f4c60c08301856124bd565b612f5960e0830184612402565b9998505050505050505050565b7f546f6b656e20646f6573206e6f74206578697374000000000000000000000000600082015250565b6000612f9c601483612701565b9150612fa782612f66565b602082019050919050565b60006020820190508181036000830152612fcb81612f8f565b9050919050565b7f416d6f756e74206d75737420626520706f736974697665000000000000000000600082015250565b6000613008601783612701565b915061301382612fd2565b602082019050919050565b6000602082019050818103600083015261303781612ffb565b9050919050565b7f496e636f7272656374204d415449432076616c75652073656e74000000000000600082015250565b6000613074601a83612701565b915061307f8261303e565b602082019050919050565b600060208201905081810360008301526130a381613067565b9050919050565b600081905092915050565b50565b60006130c56000836130aa565b91506130d0826130b5565b600082019050919050565b60006130e6826130b8565b9150819050919050565b7f4d41544943207061796d656e7420746f20686f6c646572206661696c65640000600082015250565b6000613126601e83612701565b9150613131826130f0565b602082019050919050565b6000602082019050818103600083015261315581613119565b9050919050565b60006040820190506131716000830185612402565b61317e6020830184612402565b9392505050565b7f4e6f6e6578697374656e7420746f6b656e000000000000000000000000000000600082015250565b60006131bb601183612701565b91506131c682613185565b602082019050919050565b600060208201905081810360008301526131ea816131ae565b9050919050565b60006040820190506132066000830185612d3f565b6132136020830184612d3f565b9392505050565b7f496e766f69636520616c726561647920746f6b656e697a656400000000000000600082015250565b6000613250601983612701565b915061325b8261321a565b602082019050919050565b6000602082019050818103600083015261327f81613243565b9050919050565b7f546f74616c20737570706c79206d75737420626520677265617465722074686160008201527f6e20300000000000000000000000000000000000000000000000000000000000602082015250565b60006132e2602383612701565b91506132ed82613286565b604082019050919050565b60006020820190508181036000830152613311816132d5565b9050919050565b7f4e487b7100000000000000000000000000000000000000000000000000000000600052601160045260246000fd5b60006133528261238c565b91507fffffffffffffffffffffffffffffffffffffffffffffffffffffffffffffffff820361338457613383613318565b5b600182019050919050565b60006060820190506133a46000830186612402565b6133b16020830185612402565b6133be6040830184612402565b949350505050565b7f4e487b7100000000000000000000000000000000000000000000000000000000600052603260045260246000fd5b7f4e6f7420796574206d6174757265000000000000000000000000000000000000600082015250565b600061342b600e83612701565b9150613436826133f5565b602082019050919050565b6000602082019050818103600083015261345a8161341e565b9050919050565b600061346c8261238c565b91506134778361238c565b92508282026134858161238c565b9150828204841483151761349c5761349b613318565b5b5092915050565b7f4e487b7100000000000000000000000000000000000000000000000000000000600052601260045260246000fd5b60006134dd8261238c565b91506134e88361238c565b9250826134f8576134f76134a3565b5b828204905092915050565b7f526564656d7074696f6e2076616c7565206973207a65726f0000000000000000600082015250565b6000613539601883612701565b915061354482613503565b602082019050919050565b600060208201905081810360008301526135688161352c565b9050919050565b7f496e73756666696369656e742066756e64696e6720666f72207468697320737060008201527f65636966696320746f6b656e0000000000000000000000000000000000000000602082015250565b60006135cb602c83612701565b91506135d68261356f565b604082019050919050565b600060208201905081810360008301526135fa816135be565b9050919050565b7f436f6e74726163742068617320696e73756666696369656e742066756e647300600082015250565b6000613637601f83612701565b915061364282613601565b602082019050919050565b600060208201905081810360008301526136668161362a565b9050919050565b60006136788261238c565b91506136838361238c565b925082820390508181111561369b5761369a613318565b5b92915050565b7f5472616e73666572206661696c65640000000000000000000000000000000000600082015250565b60006136d7600f83612701565b91506136e2826136a1565b602082019050919050565b60006020820190508181036000830152613706816136ca565b9050919050565b7f4f6e6c79206973737565722063616e2066756e64000000000000000000000000600082015250565b6000613743601483612701565b915061374e8261370d565b602082019050919050565b6000602082019050818103600083015261377281613736565b9050919050565b7f416c72656164792072656465656d656400000000000000000000000000000000600082015250565b60006137af601083612701565b91506137ba82613779565b602082019050919050565b600060208201905081810360008301526137de816137a2565b9050919050565b7f4d7573742073656e64204d415449430000000000000000000000000000000000600082015250565b600061381b600f83612701565b9150613826826137e5565b602082019050919050565b6000602082019050818103600083015261384a8161380e565b9050919050565b600061385c8261238c565b91506138678361238c565b925082820190508082111561387f5761387e613318565b5b92915050565b7f4e487b7100000000000000000000000000000000000000000000000000000000600052602260045260246000fd5b600060028204905060018216806138cc57607f821691505b6020821081036138df576138de613885565b5b50919050565b60008190508160005260206000209050919050565b60006020601f8301049050919050565b600082821b905092915050565b6000600883026139477fffffffffffffffffffffffffffffffffffffffffffffffffffffffffffffffff8261390a565b613951868361390a565b95508019841693508086168417925050509392505050565b6000819050919050565b600061398e6139896139848461238c565b613969565b61238c565b9050919050565b6000819050919050565b6139a883613973565b6139bc6139b482613995565b848454613917565b825550505050565b600090565b6139d16139c4565b6139dc81848461399f565b505050565b5b81811015613a00576139f56000826139c9565b6001810190506139e2565b5050565b601f821115613a4557613a16816138e5565b613a1f846138fa565b81016020851015613a2e578190505b613a42613a3a856138fa565b8301826139e1565b50505b505050565b600082821c905092915050565b6000613a6860001984600802613a4a565b1980831691505092915050565b6000613a818383613a57565b9150826002028217905092915050565b613a9a826126f6565b67ffffffffffffffff811115613ab357613ab2612502565b5b613abd82546138b4565b613ac8828285613a04565b600060209050601f831160018114613afb5760008415613ae9578287015190505b613af38582613a75565b865550613b5b565b601f198416613b09866138e5565b60005b82811015613b3157848901518255600182019150602085019450602081019050613b0c565b86831015613b4e5784890151613b4a601f891682613a57565b8355505b6001600288020188555050505b505050505050565b6000608082019050613b786000830187612d3f565b613b856020830186612402565b613b926040830185612402565b613b9f6060830184612402565b95945050505050565b60006040820190508181036000830152613bc28185612c7f565b90508181036020830152613bd68184612c7f565b90509392505050565b600081519050919050565b600082825260208201905092915050565b6000613c0682613bdf565b613c108185613bea565b9350613c20818560208601612712565b613c29816124f1565b840191505092915050565b600060a082019050613c496000830188612d3f565b613c566020830187612d3f565b613c636040830186612402565b613c706060830185612402565b8181036080830152613c828184613bfb565b90509695505050505050565b600081519050613c9d81612458565b92915050565b600060208284031215613cb957613cb8612324565b5b6000613cc784828501613c8e565b91505092915050565b600060a082019050613ce56000830188612d3f565b613cf26020830187612d3f565b8181036040830152613d048186612c7f565b90508181036060830152613d188185612c7f565b90508181036080830152613d2c8184613bfb565b9050969550505050505056fea2646970667358221220cab5af1a848050b49c8b2f6b72c2dd8e83e184d39b00909bcb16618b368ffb9f64736f6c6343000814003368747470733a2f2f6170692e66696e6f766174657061792e636f6d2f746f6b656e2f7b69647d2e6a736f6e",
  "linkReferences": {},
  "deployedLinkReferences": {}
}