{
  "_format": "hh-sol-artifact-1",
  "contractName": "FractionToken",
  "sourceName": "contracts/FractionToken.sol",
  "abi": [
    {
      "inputs": [
        {
          "internalType": "address",
          "name": "_paymentToken",
          "type": "address"
        }
      ],
      "stateMutability": "nonpayable",
      "type": "constructor"
    },
    {
      "inputs": [
        {
          "internalType": "address",
          "name": "sender",
          "type": "address"
        },
        {
          "internalType": "uint256",
          "name": "balance",
          "type": "uint256"
        },
        {
          "internalType": "uint256",
          "name": "needed",
          "type": "uint256"
        },
        {
          "internalType": "uint256",
          "name": "tokenId",
          "type": "uint256"
        }
      ],
      "name": "ERC1155InsufficientBalance",
      "type": "error"
    },
    {
      "inputs": [
        {
          "internalType": "address",
          "name": "approver",
          "type": "address"
        }
      ],
      "name": "ERC1155InvalidApprover",
      "type": "error"
    },
    {
      "inputs": [
        {
          "internalType": "uint256",
          "name": "idsLength",
          "type": "uint256"
        },
        {
          "internalType": "uint256",
          "name": "valuesLength",
          "type": "uint256"
        }
      ],
      "name": "ERC1155InvalidArrayLength",
      "type": "error"
    },
    {
      "inputs": [
        {
          "internalType": "address",
          "name": "operator",
          "type": "address"
        }
      ],
      "name": "ERC1155InvalidOperator",
      "type": "error"
    },
    {
      "inputs": [
        {
          "internalType": "address",
          "name": "receiver",
          "type": "address"
        }
      ],
      "name": "ERC1155InvalidReceiver",
      "type": "error"
    },
    {
      "inputs": [
        {
          "internalType": "address",
          "name": "sender",
          "type": "address"
        }
      ],
      "name": "ERC1155InvalidSender",
      "type": "error"
    },
    {
      "inputs": [
        {
          "internalType": "address",
          "name": "operator",
          "type": "address"
        },
        {
          "internalType": "address",
          "name": "owner",
          "type": "address"
        }
      ],
      "name": "ERC1155MissingApprovalForAll",
      "type": "error"
    },
    {
      "inputs": [
        {
          "internalType": "address",
          "name": "owner",
          "type": "address"
        }
      ],
      "name": "OwnableInvalidOwner",
      "type": "error"
    },
    {
      "inputs": [
        {
          "internalType": "address",
          "name": "account",
          "type": "address"
        }
      ],
      "name": "OwnableUnauthorizedAccount",
      "type": "error"
    },
    {
      "inputs": [],
      "name": "ReentrancyGuardReentrantCall",
      "type": "error"
    },
    {
      "inputs": [
        {
          "internalType": "address",
          "name": "token",
          "type": "address"
        }
      ],
      "name": "SafeERC20FailedOperation",
      "type": "error"
    },
    {
      "anonymous": false,
      "inputs": [
        {
          "indexed": true,
          "internalType": "address",
          "name": "account",
          "type": "address"
        },
        {
          "indexed": true,
          "internalType": "address",
          "name": "operator",
          "type": "address"
        },
        {
          "indexed": false,
          "internalType": "bool",
          "name": "approved",
          "type": "bool"
        }
      ],
      "name": "ApprovalForAll",
      "type": "event"
    },
    {
      "anonymous": false,
      "inputs": [
        {
          "indexed": true,
          "internalType": "address",
          "name": "contractAddress",
          "type": "address"
        }
      ],
      "name": "AuthorizedContractAdded",
      "type": "event"
    },
    {
      "anonymous": false,
      "inputs": [
        {
          "indexed": true,
          "internalType": "address",
          "name": "contractAddress",
          "type": "address"
        }
      ],
      "name": "AuthorizedContractRemoved",
      "type": "event"
    },
    {
      "anonymous": false,
      "inputs": [
        {
          "indexed": true,
          "internalType": "uint256",
          "name": "tokenId",
          "type": "uint256"
        },
        {
          "indexed": true,
          "internalType": "address",
          "name": "seller",
          "type": "address"
        },
        {
          "indexed": true,
          "internalType": "address",
          "name": "buyer",
          "type": "address"
        },
        {
          "indexed": false,
          "internalType": "uint256",
          "name": "amount",
          "type": "uint256"
        },
        {
          "indexed": false,
          "internalType": "uint256",
          "name": "price",
          "type": "uint256"
        },
        {
          "indexed": false,
          "internalType": "bytes32",
          "name": "destinationChain",
          "type": "bytes32"
        }
      ],
      "name": "CrossChainTrade",
      "type": "event"
    },
    {
      "anonymous": false,
      "inputs": [
        {
          "indexed": true,
          "internalType": "address",
          "name": "oldEscrow",
          "type": "address"
        },
        {
          "indexed": true,
          "internalType": "address",
          "name": "newEscrow",
          "type": "address"
        }
      ],
      "name": "EscrowContractUpdated",
      "type": "event"
    },
    {
      "anonymous": false,
      "inputs": [
        {
          "indexed": true,
          "internalType": "uint256",
          "name": "tokenId",
          "type": "uint256"
        },
        {
          "indexed": true,
          "internalType": "address",
          "name": "owner",
          "type": "address"
        },
        {
          "indexed": false,
          "internalType": "uint256",
          "name": "amount",
          "type": "uint256"
        },
        {
          "indexed": false,
          "internalType": "bytes32",
          "name": "sourceChain",
          "type": "bytes32"
        }
      ],
      "name": "FractionsBridgeReturned",
      "type": "event"
    },
    {
      "anonymous": false,
      "inputs": [
        {
          "indexed": true,
          "internalType": "uint256",
          "name": "tokenId",
          "type": "uint256"
        },
        {
          "indexed": true,
          "internalType": "address",
          "name": "owner",
          "type": "address"
        },
        {
          "indexed": false,
          "internalType": "uint256",
          "name": "amount",
          "type": "uint256"
        },
        {
          "indexed": false,
          "internalType": "bytes32",
          "name": "destinationChain",
          "type": "bytes32"
        },
        {
          "indexed": false,
          "internalType": "bytes32",
          "name": "lockId",
          "type": "bytes32"
        }
      ],
      "name": "FractionsBridged",
      "type": "event"
    },
    {
      "anonymous": false,
      "inputs": [
        {
          "indexed": true,
          "internalType": "uint256",
          "name": "tokenId",
          "type": "uint256"
        },
        {
          "indexed": true,
          "internalType": "address",
          "name": "buyer",
          "type": "address"
        },
        {
          "indexed": false,
          "internalType": "uint256",
          "name": "amount",
          "type": "uint256"
        },
        {
          "indexed": false,
          "internalType": "uint256",
          "name": "totalCost",
          "type": "uint256"
        }
      ],
      "name": "FractionsPurchased",
      "type": "event"
    },
    {
      "anonymous": false,
      "inputs": [
        {
          "indexed": true,
          "internalType": "uint256",
          "name": "tokenId",
          "type": "uint256"
        },
        {
          "indexed": true,
          "internalType": "address",
          "name": "redeemer",
          "type": "address"
        },
        {
          "indexed": false,
          "internalType": "uint256",
          "name": "amount",
          "type": "uint256"
        },
        {
          "indexed": false,
          "internalType": "uint256",
          "name": "payout",
          "type": "uint256"
        }
      ],
      "name": "FractionsRedeemed",
      "type": "event"
    },
    {
      "anonymous": false,
      "inputs": [
        {
          "indexed": true,
          "internalType": "uint256",
          "name": "tokenId",
          "type": "uint256"
        }
      ],
      "name": "InvoiceClosed",
      "type": "event"
    },
    {
      "anonymous": false,
      "inputs": [
        {
          "indexed": true,
          "internalType": "bytes32",
          "name": "invoiceId",
          "type": "bytes32"
        },
        {
          "indexed": false,
          "internalType": "uint256",
          "name": "tokenId",
          "type": "uint256"
        },
        {
          "indexed": false,
          "internalType": "address",
          "name": "seller",
          "type": "address"
        },
        {
          "indexed": false,
          "internalType": "uint256",
          "name": "totalFractions",
          "type": "uint256"
        },
        {
          "indexed": false,
          "internalType": "uint256",
          "name": "pricePerFraction",
          "type": "uint256"
        },
        {
          "indexed": false,
          "internalType": "uint256",
          "name": "TotalValue",
          "type": "uint256"
        },
        {
          "indexed": false,
          "internalType": "uint256",
          "name": "yieldBps",
          "type": "uint256"
        }
      ],
      "name": "InvoiceFractionalized",
      "type": "event"
    },
    {
      "anonymous": false,
      "inputs": [
        {
          "indexed": true,
          "internalType": "address",
          "name": "previousOwner",
          "type": "address"
        },
        {
          "indexed": true,
          "internalType": "address",
          "name": "newOwner",
          "type": "address"
        }
      ],
      "name": "OwnershipTransferred",
      "type": "event"
    },
    {
      "anonymous": false,
      "inputs": [
        {
          "indexed": true,
          "internalType": "uint256",
          "name": "tokenId",
          "type": "uint256"
        },
        {
          "indexed": false,
          "internalType": "uint256",
          "name": "amount",
          "type": "uint256"
        }
      ],
      "name": "RepaymentReceived",
      "type": "event"
    },
    {
      "anonymous": false,
      "inputs": [
        {
          "indexed": true,
          "internalType": "address",
          "name": "operator",
          "type": "address"
        },
        {
          "indexed": true,
          "internalType": "address",
          "name": "from",
          "type": "address"
        },
        {
          "indexed": true,
          "internalType": "address",
          "name": "to",
          "type": "address"
        },
        {
          "indexed": false,
          "internalType": "uint256[]",
          "name": "ids",
          "type": "uint256[]"
        },
        {
          "indexed": false,
          "internalType": "uint256[]",
          "name": "values",
          "type": "uint256[]"
        }
      ],
      "name": "TransferBatch",
      "type": "event"
    },
    {
      "anonymous": false,
      "inputs": [
        {
          "indexed": true,
          "internalType": "address",
          "name": "operator",
          "type": "address"
        },
        {
          "indexed": true,
          "internalType": "address",
          "name": "from",
          "type": "address"
        },
        {
          "indexed": true,
          "internalType": "address",
          "name": "to",
          "type": "address"
        },
        {
          "indexed": false,
          "internalType": "uint256",
          "name": "id",
          "type": "uint256"
        },
        {
          "indexed": false,
          "internalType": "uint256",
          "name": "value",
          "type": "uint256"
        }
      ],
      "name": "TransferSingle",
      "type": "event"
    },
    {
      "anonymous": false,
      "inputs": [
        {
          "indexed": false,
          "internalType": "string",
          "name": "value",
          "type": "string"
        },
        {
          "indexed": true,
          "internalType": "uint256",
          "name": "id",
          "type": "uint256"
        }
      ],
      "name": "URI",
      "type": "event"
    },
    {
      "inputs": [],
      "name": "FINOVATE_CHAIN",
      "outputs": [
        {
          "internalType": "bytes32",
          "name": "",
          "type": "bytes32"
        }
      ],
      "stateMutability": "view",
      "type": "function"
    },
    {
      "inputs": [],
      "name": "KATANA_CHAIN",
      "outputs": [
        {
          "internalType": "bytes32",
          "name": "",
          "type": "bytes32"
        }
      ],
      "stateMutability": "view",
      "type": "function"
    },
    {
      "inputs": [],
      "name": "POLYGON_POS_CHAIN",
      "outputs": [
        {
          "internalType": "bytes32",
          "name": "",
          "type": "bytes32"
        }
      ],
      "stateMutability": "view",
      "type": "function"
    },
    {
      "inputs": [],
      "name": "POLYGON_ZKEVM_CHAIN",
      "outputs": [
        {
          "internalType": "bytes32",
          "name": "",
          "type": "bytes32"
        }
      ],
      "stateMutability": "view",
      "type": "function"
    },
    {
      "inputs": [
        {
          "internalType": "address",
          "name": "_contract",
          "type": "address"
        }
      ],
      "name": "addAuthorizedContract",
      "outputs": [],
      "stateMutability": "nonpayable",
      "type": "function"
    },
    {
      "inputs": [
        {
          "internalType": "address",
          "name": "",
          "type": "address"
        }
      ],
      "name": "authorizedContracts",
      "outputs": [
        {
          "internalType": "bool",
          "name": "",
          "type": "bool"
        }
      ],
      "stateMutability": "view",
      "type": "function"
    },
    {
      "inputs": [
        {
          "internalType": "address",
          "name": "account",
          "type": "address"
        },
        {
          "internalType": "uint256",
          "name": "id",
          "type": "uint256"
        }
      ],
      "name": "balanceOf",
      "outputs": [
        {
          "internalType": "uint256",
          "name": "",
          "type": "uint256"
        }
      ],
      "stateMutability": "view",
      "type": "function"
    },
    {
      "inputs": [
        {
          "internalType": "address[]",
          "name": "accounts",
          "type": "address[]"
        },
        {
          "internalType": "uint256[]",
          "name": "ids",
          "type": "uint256[]"
        }
      ],
      "name": "balanceOfBatch",
      "outputs": [
        {
          "internalType": "uint256[]",
          "name": "",
          "type": "uint256[]"
        }
      ],
      "stateMutability": "view",
      "type": "function"
    },
    {
      "inputs": [
        {
          "internalType": "uint256",
          "name": "_tokenId",
          "type": "uint256"
        },
        {
          "internalType": "uint256",
          "name": "_amount",
          "type": "uint256"
        },
        {
          "internalType": "address",
          "name": "_owner",
          "type": "address"
        },
        {
          "internalType": "bytes32",
          "name": "_sourceChain",
          "type": "bytes32"
        }
      ],
      "name": "bridgeIn",
      "outputs": [],
      "stateMutability": "nonpayable",
      "type": "function"
    },
    {
      "inputs": [
        {
          "internalType": "uint256",
          "name": "_tokenId",
          "type": "uint256"
        },
        {
          "internalType": "uint256",
          "name": "_amount",
          "type": "uint256"
        },
        {
          "internalType": "bytes32",
          "name": "_destinationChain",
          "type": "bytes32"
        },
        {
          "internalType": "address",
          "name": "_owner",
          "type": "address"
        },
        {
          "internalType": "bytes32",
          "name": "_lockId",
          "type": "bytes32"
        }
      ],
      "name": "bridgeOut",
      "outputs": [],
      "stateMutability": "nonpayable",
      "type": "function"
    },
    {
      "inputs": [
        {
          "internalType": "uint256",
          "name": "_tokenId",
          "type": "uint256"
        },
        {
          "internalType": "uint256",
          "name": "_amount",
          "type": "uint256"
        }
      ],
      "name": "buyFractions",
      "outputs": [],
      "stateMutability": "nonpayable",
      "type": "function"
    },
    {
      "inputs": [
        {
          "internalType": "uint256",
          "name": "_tokenId",
          "type": "uint256"
        }
      ],
      "name": "closeInvoice",
      "outputs": [],
      "stateMutability": "nonpayable",
      "type": "function"
    },
    {
      "inputs": [
        {
          "internalType": "uint256",
          "name": "",
          "type": "uint256"
        }
      ],
      "name": "crossChainMetadata",
      "outputs": [
        {
          "internalType": "bool",
          "name": "isBridged",
          "type": "bool"
        },
        {
          "internalType": "bytes32",
          "name": "destinationChain",
          "type": "bytes32"
        },
        {
          "internalType": "uint256",
          "name": "bridgedAmount",
          "type": "uint256"
        },
        {
          "internalType": "uint256",
          "name": "bridgedAt",
          "type": "uint256"
        },
        {
          "internalType": "bytes32",
          "name": "bridgeLockId",
          "type": "bytes32"
        },
        {
          "internalType": "bool",
          "name": "isReturned",
          "type": "bool"
        }
      ],
      "stateMutability": "view",
      "type": "function"
    },
    {
      "inputs": [
        {
          "internalType": "uint256",
          "name": "_tokenId",
          "type": "uint256"
        },
        {
          "internalType": "uint256",
          "name": "_amount",
          "type": "uint256"
        }
      ],
      "name": "depositRepayment",
      "outputs": [],
      "stateMutability": "nonpayable",
      "type": "function"
    },
    {
      "inputs": [],
      "name": "escrowContract",
      "outputs": [
        {
          "internalType": "address",
          "name": "",
          "type": "address"
        }
      ],
      "stateMutability": "view",
      "type": "function"
    },
    {
      "inputs": [
        {
          "internalType": "uint256",
          "name": "_tokenId",
          "type": "uint256"
        },
        {
          "internalType": "address",
          "name": "_seller",
          "type": "address"
        },
        {
          "internalType": "address",
          "name": "_buyer",
          "type": "address"
        },
        {
          "internalType": "uint256",
          "name": "_amount",
          "type": "uint256"
        },
        {
          "internalType": "uint256",
          "name": "_price",
          "type": "uint256"
        },
        {
          "internalType": "bytes32",
          "name": "_destinationChain",
          "type": "bytes32"
        }
      ],
      "name": "executeCrossChainTrade",
      "outputs": [],
      "stateMutability": "nonpayable",
      "type": "function"
    },
    {
      "inputs": [
        {
          "internalType": "uint256",
          "name": "_tokenId",
          "type": "uint256"
        },
        {
          "internalType": "address",
          "name": "_owner",
          "type": "address"
        }
      ],
      "name": "getAvailableBalance",
      "outputs": [
        {
          "internalType": "uint256",
          "name": "",
          "type": "uint256"
        }
      ],
      "stateMutability": "view",
      "type": "function"
    },
    {
      "inputs": [
        {
          "internalType": "uint256",
          "name": "tokenId",
          "type": "uint256"
        }
      ],
      "name": "getCrossChainMeta",
      "outputs": [
        {
          "components": [
            {
              "internalType": "bool",
              "name": "isBridged",
              "type": "bool"
            },
            {
              "internalType": "bytes32",
              "name": "destinationChain",
              "type": "bytes32"
            },
            {
              "internalType": "uint256",
              "name": "bridgedAmount",
              "type": "uint256"
            },
            {
              "internalType": "uint256",
              "name": "bridgedAt",
              "type": "uint256"
            },
            {
              "internalType": "bytes32",
              "name": "bridgeLockId",
              "type": "bytes32"
            },
            {
              "internalType": "bool",
              "name": "isReturned",
              "type": "bool"
            }
          ],
          "internalType": "struct FractionToken.CrossChainMeta",
          "name": "",
          "type": "tuple"
        }
      ],
      "stateMutability": "view",
      "type": "function"
    },
    {
      "inputs": [
        {
          "internalType": "uint256",
          "name": "_tokenId",
          "type": "uint256"
        }
      ],
      "name": "getTotalBridged",
      "outputs": [
        {
          "internalType": "uint256",
          "name": "",
          "type": "uint256"
        }
      ],
      "stateMutability": "view",
      "type": "function"
    },
    {
      "inputs": [
        {
          "internalType": "uint256",
          "name": "",
          "type": "uint256"
        }
      ],
      "name": "invoiceMetadata",
      "outputs": [
        {
          "internalType": "address",
          "name": "seller",
          "type": "address"
        },
        {
          "internalType": "uint256",
          "name": "totalFractions",
          "type": "uint256"
        },
        {
          "internalType": "uint256",
          "name": "pricePerFraction",
          "type": "uint256"
        },
        {
          "internalType": "uint256",
          "name": "maturityDate",
          "type": "uint256"
        },
        {
          "internalType": "uint256",
          "name": "totalValue",
          "type": "uint256"
        },
        {
          "internalType": "uint256",
          "name": "financedAmount",
          "type": "uint256"
        },
        {
          "internalType": "bool",
          "name": "repaymentFunded",
          "type": "bool"
        },
        {
          "internalType": "uint256",
          "name": "yieldBps",
          "type": "uint256"
        }
      ],
      "stateMutability": "view",
      "type": "function"
    },
    {
      "inputs": [
        {
          "internalType": "bytes32",
          "name": "",
          "type": "bytes32"
        }
      ],
      "name": "invoiceToTokenId",
      "outputs": [
        {
          "internalType": "uint256",
          "name": "",
          "type": "uint256"
        }
      ],
      "stateMutability": "view",
      "type": "function"
    },
    {
      "inputs": [
        {
          "internalType": "uint256",
          "name": "",
          "type": "uint256"
        }
      ],
      "name": "isActive",
      "outputs": [
        {
          "internalType": "bool",
          "name": "",
          "type": "bool"
        }
      ],
      "stateMutability": "view",
      "type": "function"
    },
    {
      "inputs": [
        {
          "internalType": "address",
          "name": "account",
          "type": "address"
        },
        {
          "internalType": "address",
          "name": "operator",
          "type": "address"
        }
      ],
      "name": "isApprovedForAll",
      "outputs": [
        {
          "internalType": "bool",
          "name": "",
          "type": "bool"
        }
      ],
      "stateMutability": "view",
      "type": "function"
    },
    {
      "inputs": [
        {
          "internalType": "address",
          "name": "_address",
          "type": "address"
        }
      ],
      "name": "isAuthorized",
      "outputs": [
        {
          "internalType": "bool",
          "name": "",
          "type": "bool"
        }
      ],
      "stateMutability": "view",
      "type": "function"
    },
    {
      "inputs": [
        {
          "internalType": "bytes32",
          "name": "_chain",
          "type": "bytes32"
        }
      ],
      "name": "isSupportedChain",
      "outputs": [
        {
          "internalType": "bool",
          "name": "",
          "type": "bool"
        }
      ],
      "stateMutability": "pure",
      "type": "function"
    },
    {
      "inputs": [
        {
          "internalType": "address",
          "name": "",
          "type": "address"
        },
        {
          "internalType": "address",
          "name": "",
          "type": "address"
        },
        {
          "internalType": "uint256[]",
          "name": "",
          "type": "uint256[]"
        },
        {
          "internalType": "uint256[]",
          "name": "",
          "type": "uint256[]"
        },
        {
          "internalType": "bytes",
          "name": "",
          "type": "bytes"
        }
      ],
      "name": "onERC1155BatchReceived",
      "outputs": [
        {
          "internalType": "bytes4",
          "name": "",
          "type": "bytes4"
        }
      ],
      "stateMutability": "nonpayable",
      "type": "function"
    },
    {
      "inputs": [
        {
          "internalType": "address",
          "name": "",
          "type": "address"
        },
        {
          "internalType": "address",
          "name": "",
          "type": "address"
        },
        {
          "internalType": "uint256",
          "name": "",
          "type": "uint256"
        },
        {
          "internalType": "uint256",
          "name": "",
          "type": "uint256"
        },
        {
          "internalType": "bytes",
          "name": "",
          "type": "bytes"
        }
      ],
      "name": "onERC1155Received",
      "outputs": [
        {
          "internalType": "bytes4",
          "name": "",
          "type": "bytes4"
        }
      ],
      "stateMutability": "nonpayable",
      "type": "function"
    },
    {
      "inputs": [],
      "name": "owner",
      "outputs": [
        {
          "internalType": "address",
          "name": "",
          "type": "address"
        }
      ],
      "stateMutability": "view",
      "type": "function"
    },
    {
      "inputs": [],
      "name": "paymentToken",
      "outputs": [
        {
          "internalType": "contract IERC20",
          "name": "",
          "type": "address"
        }
      ],
      "stateMutability": "view",
      "type": "function"
    },
    {
      "inputs": [
        {
          "internalType": "uint256",
          "name": "_tokenId",
          "type": "uint256"
        }
      ],
      "name": "redeemFractions",
      "outputs": [],
      "stateMutability": "nonpayable",
      "type": "function"
    },
    {
      "inputs": [
        {
          "internalType": "address",
          "name": "_contract",
          "type": "address"
        }
      ],
      "name": "removeAuthorizedContract",
      "outputs": [],
      "stateMutability": "nonpayable",
      "type": "function"
    },
    {
      "inputs": [],
      "name": "renounceOwnership",
      "outputs": [],
      "stateMutability": "nonpayable",
      "type": "function"
    },
    {
      "inputs": [
        {
          "internalType": "address",
          "name": "from",
          "type": "address"
        },
        {
          "internalType": "address",
          "name": "to",
          "type": "address"
        },
        {
          "internalType": "uint256[]",
          "name": "ids",
          "type": "uint256[]"
        },
        {
          "internalType": "uint256[]",
          "name": "values",
          "type": "uint256[]"
        },
        {
          "internalType": "bytes",
          "name": "data",
          "type": "bytes"
        }
      ],
      "name": "safeBatchTransferFrom",
      "outputs": [],
      "stateMutability": "nonpayable",
      "type": "function"
    },
    {
      "inputs": [
        {
          "internalType": "address",
          "name": "from",
          "type": "address"
        },
        {
          "internalType": "address",
          "name": "to",
          "type": "address"
        },
        {
          "internalType": "uint256",
          "name": "id",
          "type": "uint256"
        },
        {
          "internalType": "uint256",
          "name": "value",
          "type": "uint256"
        },
        {
          "internalType": "bytes",
          "name": "data",
          "type": "bytes"
        }
      ],
      "name": "safeTransferFrom",
      "outputs": [],
      "stateMutability": "nonpayable",
      "type": "function"
    },
    {
      "inputs": [
        {
          "internalType": "address",
          "name": "operator",
          "type": "address"
        },
        {
          "internalType": "bool",
          "name": "approved",
          "type": "bool"
        }
      ],
      "name": "setApprovalForAll",
      "outputs": [],
      "stateMutability": "nonpayable",
      "type": "function"
    },
    {
      "inputs": [
        {
          "internalType": "address",
          "name": "_escrowContract",
          "type": "address"
        }
      ],
      "name": "setEscrowContract",
      "outputs": [],
      "stateMutability": "nonpayable",
      "type": "function"
    },
    {
      "inputs": [
        {
          "internalType": "bytes4",
          "name": "interfaceId",
          "type": "bytes4"
        }
      ],
      "name": "supportsInterface",
      "outputs": [
        {
          "internalType": "bool",
          "name": "",
          "type": "bool"
        }
      ],
      "stateMutability": "view",
      "type": "function"
    },
    {
      "inputs": [
        {
          "internalType": "uint256",
          "name": "tokenId",
          "type": "uint256"
        }
      ],
      "name": "tokenDetails",
      "outputs": [
        {
          "components": [
            {
              "internalType": "bytes32",
              "name": "invoiceId",
              "type": "bytes32"
            },
            {
              "internalType": "uint256",
              "name": "totalSupply",
              "type": "uint256"
            },
            {
              "internalType": "uint256",
              "name": "remainingSupply",
              "type": "uint256"
            },
            {
              "internalType": "uint256",
              "name": "faceValue",
              "type": "uint256"
            },
            {
              "internalType": "uint256",
              "name": "maturityDate",
              "type": "uint256"
            },
            {
              "internalType": "address",
              "name": "issuer",
              "type": "address"
            },
            {
              "internalType": "bool",
              "name": "isRedeemed",
              "type": "bool"
            },
            {
              "internalType": "uint256",
              "name": "yieldBps",
              "type": "uint256"
            },
            {
              "internalType": "bytes32",
              "name": "originChain",
              "type": "bytes32"
            },
            {
              "internalType": "bool",
              "name": "isCrossChain",
              "type": "bool"
            }
          ],
          "internalType": "struct FractionToken.TokenDetails",
          "name": "",
          "type": "tuple"
        }
      ],
      "stateMutability": "view",
      "type": "function"
    },
    {
      "inputs": [
        {
          "internalType": "bytes32",
          "name": "_invoiceId",
          "type": "bytes32"
        },
        {
          "internalType": "address",
          "name": "_seller",
          "type": "address"
        },
        {
          "internalType": "uint256",
          "name": "_totalFractions",
          "type": "uint256"
        },
        {
          "internalType": "uint256",
          "name": "_pricePerFraction",
          "type": "uint256"
        },
        {
          "internalType": "uint256",
          "name": "_maturityDate",
          "type": "uint256"
        },
        {
          "internalType": "uint256",
          "name": "_totalValue",
          "type": "uint256"
        },
        {
          "internalType": "uint256",
          "name": "_yieldBps",
          "type": "uint256"
        }
      ],
      "name": "tokenizeInvoice",
      "outputs": [
        {
          "internalType": "uint256",
          "name": "",
          "type": "uint256"
        }
      ],
      "stateMutability": "nonpayable",
      "type": "function"
    },
    {
      "inputs": [
        {
          "internalType": "uint256",
          "name": "",
          "type": "uint256"
        }
      ],
      "name": "totalBridgedAmount",
      "outputs": [
        {
          "internalType": "uint256",
          "name": "",
          "type": "uint256"
        }
      ],
      "stateMutability": "view",
      "type": "function"
    },
    {
      "inputs": [
        {
          "internalType": "address",
          "name": "newOwner",
          "type": "address"
        }
      ],
      "name": "transferOwnership",
      "outputs": [],
      "stateMutability": "nonpayable",
      "type": "function"
    },
    {
      "inputs": [
        {
          "internalType": "uint256",
          "name": "",
          "type": "uint256"
        }
      ],
      "name": "uri",
      "outputs": [
        {
          "internalType": "string",
          "name": "",
          "type": "string"
        }
      ],
      "stateMutability": "view",
      "type": "function"
    },
    {
      "inputs": [
        {
          "internalType": "uint256",
          "name": "",
          "type": "uint256"
        },
        {
          "internalType": "address",
          "name": "",
          "type": "address"
        }
      ],
      "name": "userBridgedAmount",
      "outputs": [
        {
          "internalType": "uint256",
          "name": "",
          "type": "uint256"
        }
      ],
      "stateMutability": "view",
      "type": "function"
    }
  ],
  "bytecode": "0x6080604052346102a157604051601f6136c638819003918201601f19168301916001600160401b0383118484101761028d578084926020946040528339810103126102a157516001600160a01b038116908190036102a157604051606081016001600160401b0381118282101761028d57604052602b81527f68747470733a2f2f6170692e66696e6f766174657061792e636f6d2f746f6b6560208201526a3717bdb4b23e973539b7b760a91b6040820152600254600190600181811c91168015610283575b602082101461026f57601f811161020a575b505060209060025f52815f20915f5b602081106101f2575001516001600160a81b0319169055605760025533156101df5760038054336001600160a01b03198216811790925560405191906001600160a01b03167f8be0079c531659141344cd1fd0a4f28419497f9722a3daafe3b4186f6b6457e05f80a360017f9b779b17422d0df92223018b32b4d1fa46e071723d6817e2486d003becc55f0055811561019d5750600480546001600160a01b03191691909117905560405161342090816102a68239f35b62461bcd60e51b815260206004820152601560248201527f496e76616c6964207061796d656e7420746f6b656e00000000000000000000006044820152606490fd5b631e4fbdf760e01b5f525f60045260245ffd5b909260206001819286860151815501940191016100e6565b60025f52601f0160051c7f405787fa12a823e0f2b7631cc41b3ba8828b3321ca811111fa75cd3aa3bb5ace017f405787fa12a823e0f2b7631cc41b3ba8828b3321ca811111fa75cd3aa3bb5ad05b81811061026557506100d7565b5f81558201610258565b634e487b7160e01b5f52602260045260245ffd5b90607f16906100c5565b634e487b7160e01b5f52604160045260245ffd5b5f80fdfe60806040526004361015610011575f80fd5b5f3560e01c8062fdd58e146102be57806301ffc9a7146102b957806304959a19146102b45780630e89341c146102af5780630f6cdb51146102aa57806312589e19146102a55780631921fa88146102a05780632eb2c2d61461029b5780633013ce29146102965780633edced5d14610291578063408883001461028c5780634e1273f414610287578063556d08091461028257806367b5c7121461027d578063715018a6146102785780637471ec571461027357806382afd23b1461026e5780638da5cb5b1461026957806397717b891461026457806398eaa4a71461025f5780639c0eb4521461025a578063a22cb46514610255578063a9350eb814610250578063aa638c781461024b578063acd63a4e14610246578063bc197c8114610241578063c1687f3014610232578063d355a1401461023c578063d5b9221b14610237578063dff2e62314610232578063e42a96e71461022d578063e6b165ed14610228578063e985e9c514610223578063ea3702761461021e578063eb77206714610219578063ee89418b14610214578063f23a6e611461020f578063f242432a1461020a578063f2fde38b14610205578063f42375b514610200578063f9840c62146101fb578063fc314e31146101f65763fe9fbb80146101f1575f80fd5b6121bf565b612089565b611fdf565b611f27565b611ea1565b611e7d565b611e59565b611c43565b611bb5565b611a94565b611a38565b61196b565b611943565b611849565b611906565b611873565b611825565b61165f565b611609565b611522565b611455565b6112f5565b611203565b6111dc565b6111b4565b611185565b61115e565b611103565b6110dc565b61106f565b610fae565b610d99565b610c2b565b610c03565b610a5e565b6107fa565b6107d0565b610568565b610474565b6103fb565b61038d565b610333565b600435906001600160a01b03821682036102d957565b5f80fd5b602435906001600160a01b03821682036102d957565b606435906001600160a01b03821682036102d957565b604435906001600160a01b03821682036102d957565b35906001600160a01b03821682036102d957565b346102d95760403660031901126102d95760206103726103516102c3565b6024355f525f835260405f209060018060a01b03165f5260205260405f2090565b54604051908152f35b6001600160e01b03198116036102d957565b346102d95760203660031901126102d95760206004356103ac8161037b565b63ffffffff60e01b16636cdb3d1360e11b81149081156103ea575b81156103d9575b506040519015158152f35b6301ffc9a760e01b1490505f6103ce565b6303a24d0760e21b811491506103c7565b346102d95760403660031901126102d957602061037260043561041c6102dd565b905f52600c835260405f209060018060a01b03165f5260205260405f2090565b805180835260209291819084018484015e5f828201840152601f01601f1916010190565b90602061047192818152019061043c565b90565b346102d95760203660031901126102d9576040515f6002548060011c906001811690811561055e575b60208310821461054a57828552602085019190811561053157506001146104df575b6104db846104cf818603826108aa565b60405191829182610460565b0390f35b60025f9081529250907f405787fa12a823e0f2b7631cc41b3ba8828b3321ca811111fa75cd3aa3bb5ace5b81841061051d575050016104cf826104bf565b80548484015260209093019260010161050a565b60ff191682525090151560051b0190506104cf826104bf565b634e487b7160e01b5f52602260045260245ffd5b91607f169161049d565b346102d95760a03660031901126102d9576024356004357fb01df0341468f941fd8a086bf63b91e4336f6712dbd57c42cb43447f80cea5f36044356105ab6102f3565b61075f6084356006546001600160a01b0316331480156107ba575b80156107a6575b6105d690612234565b6105de612b30565b6106026105fd6105f6885f52600860205260405f2090565b5460ff1690565b61228b565b61060d8715156122cc565b6106265f51602061338b5f395f51905f52851415612318565b5f51602061334b5f395f51905f5284148015610790575b801561077a575b61064d90612364565b806004610662885f52600a60205260405f2090565b6106b98a6106b28b6106ab8a61068661069b82610686865f525f60205260405f2090565b9060018060a01b03165f5260205260405f2090565b54935f52600c60205260405f2090565b54906123c4565b10156123d1565b6106cd6106c461241d565b8b8b308a612b68565b805460ff19166001178155866001820155600281016106ed8b8254612431565b9055426003820155015561070d83610686885f52600c60205260405f2090565b610718888254612431565b905561072c865f52600b60205260405f2090565b610737888254612431565b905560405193849360018060a01b031697846040919493926060820195825260208201520152565b0390a361077860015f5160206133cb5f395f51905f5255565b005b505f51602061336b5f395f51905f528414610644565b505f5160206133ab5f395f51905f52841461063d565b506003546001600160a01b031633146105cd565b50335f52600560205260ff60405f2054166105c6565b346102d95760203660031901126102d9576004355f526009602052602060405f2054604051908152f35b346102d95760203660031901126102d9576004355f52600a60205260405f2060ff8154166104db600183015492600281015490600381015460ff6005600484015493015416926040519687968794919260a0949197969360c08701981515875260208701526040860152606085015260808401521515910152565b634e487b7160e01b5f52604160045260245ffd5b60c0810190811067ffffffffffffffff8211176108a557604052565b610875565b90601f8019910116810190811067ffffffffffffffff8211176108a557604052565b604051906108dc610100836108aa565b565b604051906108dc60c0836108aa565b604051906108dc610140836108aa565b67ffffffffffffffff81116108a55760051b60200190565b9080601f830112156102d957813561092c816108fd565b9261093a60405194856108aa565b81845260208085019260051b8201019283116102d957602001905b8282106109625750505090565b8135815260209182019101610955565b67ffffffffffffffff81116108a557601f01601f191660200190565b81601f820112156102d9578035906109a582610972565b926109b360405194856108aa565b828452602083830101116102d957815f926020809301838601378301015290565b60a06003198201126102d9576004356001600160a01b03811681036102d957916109fe602461031f565b9160443567ffffffffffffffff81116102d95781610a1e91600401610915565b9160643567ffffffffffffffff81116102d95782610a3e91600401610915565b916084359067ffffffffffffffff82116102d9576104719160040161098e565b346102d957610a6c366109d4565b929391610a798333612ca6565b6001600160a01b038516938415610bf0576001600160a01b038416948515610bde578251845190818103610bc95750505f5b8351811015610b60578060051b6020808287010151918701015190610adb88610686835f525f60205260405f2090565b54828110610b2957610b198b61068685948c610b0b60019998610b21970391610686845f525f60205260405f2090565b555f525f60205260405f2090565b918254612431565b905501610aab565b6040516303dee4c560e01b81526001600160a01b038a16600482015260248101919091526044810183905260648101829052608490fd5b50938691946107789660018551145f14610ba25760208581015187820151604080519283529282015233915f51602061332b5f395f51905f5291a45b3361326c565b6040515f51602061330b5f395f51905f52339180610bc18a8a83613081565b0390a4610b9c565b635b05999160e01b5f5260045260245260445ffd5b626a0d4560e21b5f525f60045260245ffd5b632bfa23e760e11b5f525f60045260245ffd5b346102d9575f3660031901126102d9576004546040516001600160a01b039091168152602090f35b346102d95760403660031901126102d9576004356024356006546001600160a01b031633148015610d83575b8015610d6f575b610c6790612234565b610c6f612b30565b815f52600760205260405f20600181015415610d365781610d0c91610cb67f93779ca16187e897d4f01a19100fe66162991c20afb461c7e2628809196deb0d9415156122cc565b60046006820191610cd7610cd2610cce855460ff1690565b1590565b61243e565b8154610cf19085906001600160a01b031630903390612d0c565b0154821015610d25575b506040519081529081906020820190565b0390a261077860015f5160206133cb5f395f51905f5255565b805460ff191660011790555f610cfb565b60405162461bcd60e51b8152602060048201526011602482015270125b9d9bda58d9481b9bdd08199bdd5b99607a1b6044820152606490fd5b506003546001600160a01b03163314610c5e565b50335f52600560205260ff60405f205416610c57565b346102d95760803660031901126102d9576024356004357f1d77b8cf5e7697f67fd7495558537f39062ca1071931dd2afe25ea4320ac3846610dd9610309565b6064359060018060a01b036006541633148015610f54575b8015610f40575b610e0190612234565b610e09612b30565b610e148515156122cc565b5f51602061334b5f395f51905f5282148015610f2a575b8015610f14575b610e3b9061248a565b610e4d845f52600a60205260405f2090565b610e60610e5b825460ff1690565b6124d6565b610e74610e6b61241d565b87878530612b68565b60028101610e838782546123c4565b8155610e9b83610686885f52600c60205260405f2090565b610ea68882546123c4565b9055610eba865f52600b60205260405f2090565b610ec58882546123c4565b90555415610ef2575b506040805195865260208601929092526001600160a01b031693908190810161075f565b805460ff19168155610f0e90600501805460ff19166001179055565b5f610ece565b505f51602061336b5f395f51905f528214610e32565b505f5160206133ab5f395f51905f528214610e2b565b506003546001600160a01b03163314610df8565b50335f52600560205260ff60405f205416610df1565b90602080835192838152019201905f5b818110610f875750505090565b8251845260209384019390920191600101610f7a565b906020610471928181520190610f6a565b346102d95760403660031901126102d95760043567ffffffffffffffff81116102d957366023820112156102d957806004013590610feb826108fd565b91610ff960405193846108aa565b8083526024602084019160051b830101913683116102d957602401905b828210611057578360243567ffffffffffffffff81116102d9576104db9161104561104b923690600401610915565b90612541565b60405191829182610f9d565b602080916110648461031f565b815201910190611016565b346102d95760203660031901126102d95760206004355f51602061334b5f395f51905f5281149081156110c5575b81156110ae57506040519015158152f35b5f51602061336b5f395f51905f529150145f6103ce565b5f5160206133ab5f395f51905f528114915061109d565b346102d9575f3660031901126102d95760206040515f51602061338b5f395f51905f528152f35b346102d9575f3660031901126102d95761111b612d9a565b600380546001600160a01b031981169091555f906001600160a01b03167f8be0079c531659141344cd1fd0a4f28419497f9722a3daafe3b4186f6b6457e08280a3005b346102d9575f3660031901126102d95760206040515f5160206133ab5f395f51905f528152f35b346102d95760203660031901126102d9576004355f526008602052602060ff60405f2054166040519015158152f35b346102d9575f3660031901126102d9576003546040516001600160a01b039091168152602090f35b346102d9575f3660031901126102d95760206040515f51602061334b5f395f51905f528152f35b346102d95760203660031901126102d95761121c6102c3565b611224612d9a565b6001600160a01b0381169081156112b05761127d8161126461125f610cce6105f661128a9660018060a01b03165f52600560205260405f2090565b6125f5565b6001600160a01b03165f90815260056020526040902090565b805460ff19166001179055565b7f351e40fe333cede9dd79a1ef4d16228b1702f272eb2c2166ec3c7ee6a9d4ce2c5f80a2005b60405162461bcd60e51b815260206004820152601860248201527f496e76616c696420636f6e7472616374206164647265737300000000000000006044820152606490fd5b346102d95760203660031901126102d957600435611311612b30565b611323815f52600760205260405f2090565b9061133a611335600684015460ff1690565b612641565b61137861135233610686845f525f60205260405f2090565b549261135f84151561268d565b600161136f6004830154866126cf565b910154906126e2565b6004546001600160a01b03166040516370a0823160e01b815230600482015290602090829060249082905afa918215611450576113e4817faa25b05279c268df11c4b41fd890364cf6feef59858671a91a4f0d4005c5bdf69461075f945f91611421575b50101561271a565b6113ef858533612dc1565b60045461140890829033906001600160a01b0316612f16565b6040805195865260208601919091523394918291820190565b611443915060203d602011611449575b61143b81836108aa565b810190612700565b5f6113dc565b503d611431565b61270f565b346102d95760403660031901126102d95761146e6102c3565b60243580151581036102d957331561150f576001600160a01b0382169182156114fd57816114ba6114cb92335f52600160205260405f209060018060a01b03165f5260205260405f2090565b9060ff801983541691151516179055565b604051901515815233907f17307eab39ab6107e8899845ad3d59bd9653f200f220920489ca2b5937696c3190602090a3005b62ced3e160e81b5f525f60045260245ffd5b631f18c42760e11b5f525f60045260245ffd5b346102d95760203660031901126102d9576004355f60a060405161154581610889565b82815282602082015282604082015282606082015282608082015201525f52600a6020526104db60405f206115c060ff60056040519361158485610889565b805483161515855260018101546020860152600281015460408601526003810154606086015260048101546080860152015416151560a0830152565b6040519182918291909160a08060c08301948051151584526020810151602085015260408101516040850152606081015160608501526080810151608085015201511515910152565b346102d95760203660031901126102d957600435611625612d9a565b805f52600860205260405f2060ff1981541690557f7af325d48818750f963839bd931e6a1023dd2ed672f2425c863d490424bb0dcf5f80a2005b346102d95760e03660031901126102d9576104db600435807ffef1c19357c9d46ca734f0c495edcddf26b3c67b7de745afa4c565d9d08398f36116a06102dd565b6044359061181260c43560a43560643561175c6084356116be612d9a565b6116c98a15156127b5565b6116e860016116e08c5f52600760205260405f2090565b0154156127f4565b6116f3881515612839565b6117076001600160a01b0388161515612885565b61170f6108cc565b6001600160a01b03881681529088602083015283604083015260608201528360808201525f60a08201525f60c08201528460e08201526117578a5f52600760205260405f2090565b6128c2565b61177161127d895f52600860205260405f2090565b87611784815f52600960205260405f2090565b556117c86117906108de565b5f81525f60208201525f60408201525f60608201525f60808201525f60a08201526117c38a5f52600a60205260405f2090565b612943565b6117db6117d361241d565b878a30612f6c565b60405195869589879260a094919796959260c08501988552600180871b031660208501526040840152606083015260808201520152565b0390a26040519081529081906020820190565b346102d957611833366109d4565b5050505050602060405163bc197c8160e01b8152f35b346102d95760203660031901126102d9576004355f52600b602052602060405f2054604051908152f35b346102d95760203660031901126102d9576004355f908152600760208181526040928390208054600182015460028301546003840154600485015460058601546006870154969098015489516001600160a01b03909616865296850193909352968301526060820195909552608081019490945260a084019290925260ff909116151560c083015260e082015261010090f35b346102d95760203660031901126102d9576001600160a01b036119276102c3565b165f526005602052602060ff60405f2054166040519015158152f35b346102d9575f3660031901126102d9576006546040516001600160a01b039091168152602090f35b346102d95760203660031901126102d9576119846102c3565b61198c612d9a565b6001600160a01b0381165f8181526005602052604090205490919060ff16156119f3576001600160a01b03165f908152600560205260409020805460ff191690557f98a35376356c1565159c1b44676fcfa951a2287e2a816e208cf92e7aeb585a4f5f80a2005b60405162461bcd60e51b815260206004820152601760248201527f436f6e7472616374206e6f7420617574686f72697a65640000000000000000006044820152606490fd5b346102d95760403660031901126102d957602060ff611a88611a586102c3565b611a606102dd565b6001600160a01b039182165f9081526001865260408082209290931681526020919091522090565b54166040519015158152f35b346102d95760403660031901126102d957602435600435611ab3612b30565b611acb6105fd6105f6835f52600860205260405f2090565b611aec82611ae430610686855f525f60205260405f2090565b5410156129a3565b611b0c6003611b03835f52600760205260405f2090565b015442106129e5565b7f4baafac02d651b8886d3212cc69aff0fb3c687080a4fe86b0674563ac1493e8261075f611b42835f52600760205260405f2090565b6005611b526002830154876126cf565b600454909290611b7a9084906001600160a01b031683546001600160a01b0316903390612d0c565b611b8e611b8561241d565b88883330612b68565b01611b9a828254612431565b90556040805195865260208601919091523394918291820190565b346102d95760403660031901126102d957600435611c0c611bd46102dd565b5f838152602081815260408083206001600160a01b039490941680845293825280832054958352600c82528083209383529290522090565b5480821115611c38578103908111611c33576104db905b6040519081529081906020820190565b6123b0565b50506104db5f611c23565b346102d95760c03660031901126102d957600435611c5f6102dd565b90611c68610309565b90606435916084359060a4359060018060a01b036006541633148015611de8575b8015611dd4575b611c9990612234565b611ca1612b30565b835f526008602052611cb960ff60405f20541661228b565b84151580611dcb575b15611d8657611d6d611d0e7f2a3ecbb7f192795fbfdce1eb671f6b5302332929e49161b3d88f1db42a4bcaa794611d085f51602061338b5f395f51905f52861415612a23565b876126cf565b92611d2b848985611d2660045460018060a01b031690565b612d0c565b611d3f611d3661241d565b8888868c612b68565b604080519788526020880194909452928601929092526001600160a01b039081169516939081906060820190565b0390a461077860015f5160206133cb5f395f51905f5255565b60405162461bcd60e51b815260206004820152601760248201527f496e76616c696420616d6f756e74206f722070726963650000000000000000006044820152606490fd5b50821515611cc2565b506003546001600160a01b03163314611c90565b50335f52600560205260ff60405f205416611c89565b60a06003198201126102d9576004356001600160a01b03811681036102d957916024356001600160a01b03811681036102d9579160443591606435916084359067ffffffffffffffff82116102d9576104719160040161098e565b346102d957611e6736611dfe565b5050505050602060405163f23a6e6160e01b8152f35b346102d957610778611e8e36611dfe565b93611e9c8194929433612ca6565b612b68565b346102d95760203660031901126102d957611eba6102c3565b611ec2612d9a565b6001600160a01b03168015611f1457600380546001600160a01b0319811683179091556001600160a01b03167f8be0079c531659141344cd1fd0a4f28419497f9722a3daafe3b4186f6b6457e05f80a3005b631e4fbdf760e01b5f525f60045260245ffd5b346102d95760203660031901126102d957611f406102c3565b611f48612d9a565b6001600160a01b03168015611f9a57600680546001600160a01b0319811683179091556001600160a01b03167fb4314795ba509f4f6e4f54698ebcf794fed2c1ba8199f5d0024b3f792eb606d15f80a3005b60405162461bcd60e51b815260206004820152601f60248201527f496e76616c696420657363726f7720636f6e74726163742061646472657373006044820152606490fd5b346102d9575f3660031901126102d95760206040515f51602061336b5f395f51905f528152f35b6108dc9092919261012080610140830195805184526020810151602085015260408101516040850152606081015160608501526080810151608085015261205c60a082015160a086019060018060a01b03169052565b60c08181015115159085015260e081015160e0850152610100810151610100850152015191019015159052565b346102d95760203660031901126102d9576104db6004356120a8612a6f565b506121a36120c66120c1835f52600760205260405f2090565b612acb565b6120e06120db845f52600a60205260405f2090565b612766565b906020810151906120fc30610686875f525f60205260405f2090565b546080820151606083015183519091906001600160a01b03169260e061212560c0870151151590565b950151956121338851151590565b9788156121af575b509161217793916121809695936121506108ed565b9b8c5260208c015260408b015260608a015260808901526001600160a01b031660a0880152565b151560c0860152565b60e08401525f51602061338b5f395f51905f526101008401521515610120830152565b60405191829182612006565b604001511515975061217761213b565b346102d95760203660031901126102d9576121d86102c3565b6006546001600160a01b039182169116811490811561221c575b8115612207575b506040519015158152602090f35b6003546001600160a01b03161490505f6121f9565b8091505f52600560205260ff60405f205416906121f2565b1561223b57565b60405162461bcd60e51b815260206004820152602260248201527f4672616374696f6e546f6b656e3a20556e617574686f72697a65642061636365604482015261737360f01b6064820152608490fd5b1561229257565b60405162461bcd60e51b8152602060048201526012602482015271496e766f696365206e6f742061637469766560701b6044820152606490fd5b156122d357565b60405162461bcd60e51b815260206004820152601760248201527f416d6f756e74206d75737420626520706f7369746976650000000000000000006044820152606490fd5b1561231f57565b60405162461bcd60e51b815260206004820152601b60248201527f43616e6e6f742062726964676520746f2073616d6520636861696e00000000006044820152606490fd5b1561236b57565b60405162461bcd60e51b815260206004820152601d60248201527f556e737570706f727465642064657374696e6174696f6e20636861696e0000006044820152606490fd5b634e487b7160e01b5f52601160045260245ffd5b91908203918211611c3357565b156123d857565b60405162461bcd60e51b815260206004820152601f60248201527f496e73756666696369656e7420756e6c6f636b6564206672616374696f6e73006044820152606490fd5b6040519061242c6020836108aa565b5f8252565b91908201809211611c3357565b1561244557565b60405162461bcd60e51b815260206004820152601860248201527f52657061796d656e7420616c72656164792066756e64656400000000000000006044820152606490fd5b1561249157565b60405162461bcd60e51b815260206004820152601860248201527f556e737570706f7274656420736f7572636520636861696e00000000000000006044820152606490fd5b156124dd57565b60405162461bcd60e51b81526020600482015260146024820152734e6f2062726964676564206672616374696f6e7360601b6044820152606490fd5b805182101561252d5760209160051b010190565b634e487b7160e01b5f52603260045260245ffd5b919091805183518082036125e057505080519061255d826108fd565b9161256b60405193846108aa565b80835261257a601f19916108fd565b013660208401375f5b81518110156125d957806125c860019260051b60208082870101519189010151905f918252602082815260408084206001600160a01b03909316845291905290205490565b6125d28286612519565b5201612583565b5090925050565b635b05999160e01b5f5260045260245260445ffd5b156125fc57565b60405162461bcd60e51b815260206004820152601b60248201527f436f6e747261637420616c726561647920617574686f72697a656400000000006044820152606490fd5b1561264857565b60405162461bcd60e51b815260206004820152601a60248201527f52657061796d656e74206e6f74207965742072656365697665640000000000006044820152606490fd5b1561269457565b60405162461bcd60e51b81526020600482015260136024820152724e6f20746f6b656e7320746f2072656465656d60681b6044820152606490fd5b81810292918115918404141715611c3357565b81156126ec570490565b634e487b7160e01b5f52601260045260245ffd5b908160209103126102d9575190565b6040513d5f823e3d90fd5b1561272157565b60405162461bcd60e51b815260206004820152601b60248201527f436f6e747261637420696e73756666696369656e742066756e647300000000006044820152606490fd5b9060405161277381610889565b60a060ff600583958281541615158552600181015460208601526002810154604086015260038101546060860152600481015460808601520154161515910152565b156127bc57565b60405162461bcd60e51b815260206004820152601060248201526f125b9d985b1a5908151bdad95b88125160821b6044820152606490fd5b156127fb57565b60405162461bcd60e51b8152602060048201526016602482015275496e766f69636520616c72656164792065786973747360501b6044820152606490fd5b1561284057565b60405162461bcd60e51b815260206004820152601760248201527f496e76616c696420746f74616c206672616374696f6e730000000000000000006044820152606490fd5b1561288c57565b60405162461bcd60e51b815260206004820152600e60248201526d24b73b30b634b21039b2b63632b960911b6044820152606490fd5b815181546001600160a01b0319166001600160a01b039091161781559060079060e0906020810151600185015560408101516002850155606081015160038501556080810151600485015560a0810151600585015561293c61292760c0830151151590565b600686019060ff801983541691151516179055565b0151910155565b600560a06108dc9361296481511515859060ff801983541691151516179055565b602081015160018501556040810151600285015560608101516003850155608081015160048501550151151591019060ff801983541691151516179055565b156129aa57565b60405162461bcd60e51b8152602060048201526013602482015272496e73756666696369656e7420737570706c7960681b6044820152606490fd5b156129ec57565b60405162461bcd60e51b815260206004820152600f60248201526e125b9d9bda58d948195e1c1a5c9959608a1b6044820152606490fd5b15612a2a57565b60405162461bcd60e51b815260206004820152601a60248201527f43616e6e6f74207472616465206f6e2073616d6520636861696e0000000000006044820152606490fd5b60405190610140820182811067ffffffffffffffff8211176108a5576040525f610120838281528260208201528260408201528260608201528260808201528260a08201528260c08201528260e0820152826101008201520152565b906007612ad66108cc565b83546001600160a01b031681529260018101546020850152600281015460408501526003810154606085015260048101546080850152600581015460a0850152612b27612177600683015460ff1690565b015460e0830152565b60025f5160206133cb5f395f51905f525414612b595760025f5160206133cb5f395f51905f5255565b633ee5aeb560e01b5f5260045ffd5b909390916001600160a01b038516908115610bf0576001600160a01b038416948515610bde57612bb560405192600184526020840152604083019160018352606084015260808301604052565b9290918251845190818103610bc95750505f5b8351811015612c30578060051b6020808287010151918701015190612bf888610686835f525f60205260405f2090565b54828110610b2957610b198b61068685948c610b0b60019998612c28970391610686845f525f60205260405f2090565b905501612bc8565b506108dc96926020929691839260018351145f14612c7f57838301518785015160408051928352602083019190915233915f51602061332b5f395f51905f529190a45b01519201519233613123565b6040515f51602061330b5f395f51905f52339180612c9e8b8883613081565b0390a4612c73565b6001600160a01b0391821691811690828214159081612cde575b50612cc9575050565b63711bec9160e11b5f5260045260245260445ffd5b5f8481526001602090815260408083206001600160a01b0390941683529290522060ff91505416155f612cc0565b6040516323b872dd60e01b5f9081526001600160a01b039384166004529290931660245260449390935260209060648180865af160015f5114811615612d7b575b6040919091525f606052155b612d605750565b635274afe760e01b5f526001600160a01b031660045260245ffd5b6001811516612d91573d15833b15151616612d4d565b503d5f823e3d90fd5b6003546001600160a01b03163303612dae57565b63118cdaa760e01b5f523360045260245ffd5b926001600160a01b038416929091908315610bde57612dfd60405192600184526020840152604083019160018352606084015260808301604052565b91906020915f604051612e1085826108aa565b528151845190818103610bc95750505f5b8251811015612eb1578060051b848082860101519187010151612e4f89610686845f525f60205260405f2090565b54818110612e7a57896106866001959493612e739303935f525f60205260405f2090565b5501612e21565b6040516303dee4c560e01b81526001600160a01b038b16600482015260248101919091526044810182905260648101839052608490fd5b50945090915f939260018351148514612ef5579182015191015160408051928352602083019190915233915f51602061332b5f395f51905f5291819081015b0390a4565b50612ef05f51602061330b5f395f51905f5291604051918291339583613081565b916040519163a9059cbb60e01b5f5260018060a01b031660045260245260205f60448180865af160015f5114811615612f56575b60409190915215612d59565b6001811516612d91573d15833b15151616612f4a565b92936001600160a01b0384169390929091908415610bf057612fab60405192600184526020840152604083019160018352606084015260808301604052565b9290948551845190818103610bc95750505f5b8651811015612ffc578087612ff4610b198761068660208060019860051b8097010151958c010151945f525f60205260405f2090565b905501612fbe565b50929094602080916108dc9660018251145f14613059575f838301515f51602061332b5f395f51905f526130488689015160405191829133958360209093929193604081019481520152565b0390a45b0151910151915f33613123565b5f6040515f51602061330b5f395f51905f523391806130798a8883613081565b0390a461304c565b909161309861047193604084526040840190610f6a565b916020818403910152610f6a565b908160209103126102d957516104718161037b565b6001600160a01b039182168152911660208201526040810191909152606081019190915260a0608082018190526104719291019061043c565b3d1561311e573d9061310582610972565b9161311360405193846108aa565b82523d5f602084013e565b606090565b9091949293853b613137575b505050505050565b60209361315991604051968795869563f23a6e6160e01b8752600487016130bb565b03815f6001600160a01b0387165af15f91816131e8575b506131aa575061317e6130f4565b80519190826131a357632bfa23e760e11b5f526001600160a01b03821660045260245ffd5b6020915001fd5b6001600160e01b031916630dc5919f60e01b016131cd57505f808080808061312f565b632bfa23e760e11b5f526001600160a01b031660045260245ffd5b61320b91925060203d602011613212575b61320381836108aa565b8101906130a6565b905f613170565b503d6131f9565b6001600160a01b0391821681529116602082015260a060408201819052610471949193919261325e92916132509190860190610f6a565b908482036060860152610f6a565b91608081840391015261043c565b9091949293853b61327f57505050505050565b6020936132a191604051968795869563bc197c8160e01b875260048701613219565b03815f6001600160a01b0387165af15f91816132e9575b506132c6575061317e6130f4565b6001600160e01b0319166343e6837f60e01b016131cd57505f808080808061312f565b61330391925060203d6020116132125761320381836108aa565b905f6132b856fe4a39dc06d4c0dbc64b70af90fd698a233a518aa5d07e595d983b8c0526c8f7fbc3d58168c5ae7397731d063d5bbf3d657854427343f4c083240f7aacaa2d0f6298d35890f262f42e468663746e93596a5077f0e2571f072ea1905db676f8daafc87f1b21696ef0d4e19cdc6ef3b3b53a507c0fc73edc6878675e8b4d703bffb7e8fe57585ca8b7ec07325cb5cdc4701633418dd473836621b010ece196797f200db4352a89aa75f9d11ac30e122fe9730a761c955523552119c16838f3c0fda59b779b17422d0df92223018b32b4d1fa46e071723d6817e2486d003becc55f00a26469706673582212205c526e16356f84e75a1fcfdcec7a1e2ba5b94bd4e706584e4fd5898cd536586d64736f6c634300081c0033",
  "linkReferences": {},
  "deployedLinkReferences": {}
}