{
  "_format": "hh-sol-artifact-1",
  "contractName": "FractionToken",
  "sourceName": "contracts/FractionToken.sol",
  "abi": [
    {
      "inputs": [],
      "stateMutability": "nonpayable",
      "type": "constructor"
    },
    {
      "inputs": [
        {
          "internalType": "address",
          "name": "sender",
          "type": "address"
        },
        {
          "internalType": "uint256",
          "name": "balance",
          "type": "uint256"
        },
        {
          "internalType": "uint256",
          "name": "needed",
          "type": "uint256"
        },
        {
          "internalType": "uint256",
          "name": "tokenId",
          "type": "uint256"
        }
      ],
      "name": "ERC1155InsufficientBalance",
      "type": "error"
    },
    {
      "inputs": [
        {
          "internalType": "address",
          "name": "approver",
          "type": "address"
        }
      ],
      "name": "ERC1155InvalidApprover",
      "type": "error"
    },
    {
      "inputs": [
        {
          "internalType": "uint256",
          "name": "idsLength",
          "type": "uint256"
        },
        {
          "internalType": "uint256",
          "name": "valuesLength",
          "type": "uint256"
        }
      ],
      "name": "ERC1155InvalidArrayLength",
      "type": "error"
    },
    {
      "inputs": [
        {
          "internalType": "address",
          "name": "operator",
          "type": "address"
        }
      ],
      "name": "ERC1155InvalidOperator",
      "type": "error"
    },
    {
      "inputs": [
        {
          "internalType": "address",
          "name": "receiver",
          "type": "address"
        }
      ],
      "name": "ERC1155InvalidReceiver",
      "type": "error"
    },
    {
      "inputs": [
        {
          "internalType": "address",
          "name": "sender",
          "type": "address"
        }
      ],
      "name": "ERC1155InvalidSender",
      "type": "error"
    },
    {
      "inputs": [
        {
          "internalType": "address",
          "name": "operator",
          "type": "address"
        },
        {
          "internalType": "address",
          "name": "owner",
          "type": "address"
        }
      ],
      "name": "ERC1155MissingApprovalForAll",
      "type": "error"
    },
    {
      "inputs": [
        {
          "internalType": "address",
          "name": "owner",
          "type": "address"
        }
      ],
      "name": "OwnableInvalidOwner",
      "type": "error"
    },
    {
      "inputs": [
        {
          "internalType": "address",
          "name": "account",
          "type": "address"
        }
      ],
      "name": "OwnableUnauthorizedAccount",
      "type": "error"
    },
    {
      "anonymous": false,
      "inputs": [
        {
          "indexed": true,
          "internalType": "address",
          "name": "account",
          "type": "address"
        },
        {
          "indexed": true,
          "internalType": "address",
          "name": "operator",
          "type": "address"
        },
        {
          "indexed": false,
          "internalType": "bool",
          "name": "approved",
          "type": "bool"
        }
      ],
      "name": "ApprovalForAll",
      "type": "event"
    },
    {
      "anonymous": false,
      "inputs": [
        {
          "indexed": true,
          "internalType": "address",
          "name": "previousOwner",
          "type": "address"
        },
        {
          "indexed": true,
          "internalType": "address",
          "name": "newOwner",
          "type": "address"
        }
      ],
      "name": "OwnershipTransferred",
      "type": "event"
    },
    {
      "anonymous": false,
      "inputs": [
        {
          "indexed": true,
          "internalType": "uint256",
          "name": "tokenId",
          "type": "uint256"
        },
        {
          "indexed": true,
          "internalType": "address",
          "name": "redeemer",
          "type": "address"
        },
        {
          "indexed": false,
          "internalType": "uint256",
          "name": "amount",
          "type": "uint256"
        }
      ],
      "name": "Redeemed",
      "type": "event"
    },
    {
      "anonymous": false,
      "inputs": [
        {
          "indexed": true,
          "internalType": "bytes32",
          "name": "invoiceId",
          "type": "bytes32"
        },
        {
          "indexed": false,
          "internalType": "uint256",
          "name": "tokenId",
          "type": "uint256"
        },
        {
          "indexed": false,
          "internalType": "uint256",
          "name": "totalSupply",
          "type": "uint256"
        },
        {
          "indexed": false,
          "internalType": "uint256",
          "name": "faceValue",
          "type": "uint256"
        }
      ],
      "name": "Tokenized",
      "type": "event"
    },
    {
      "anonymous": false,
      "inputs": [
        {
          "indexed": true,
          "internalType": "address",
          "name": "operator",
          "type": "address"
        },
        {
          "indexed": true,
          "internalType": "address",
          "name": "from",
          "type": "address"
        },
        {
          "indexed": true,
          "internalType": "address",
          "name": "to",
          "type": "address"
        },
        {
          "indexed": false,
          "internalType": "uint256[]",
          "name": "ids",
          "type": "uint256[]"
        },
        {
          "indexed": false,
          "internalType": "uint256[]",
          "name": "values",
          "type": "uint256[]"
        }
      ],
      "name": "TransferBatch",
      "type": "event"
    },
    {
      "anonymous": false,
      "inputs": [
        {
          "indexed": true,
          "internalType": "address",
          "name": "operator",
          "type": "address"
        },
        {
          "indexed": true,
          "internalType": "address",
          "name": "from",
          "type": "address"
        },
        {
          "indexed": true,
          "internalType": "address",
          "name": "to",
          "type": "address"
        },
        {
          "indexed": false,
          "internalType": "uint256",
          "name": "id",
          "type": "uint256"
        },
        {
          "indexed": false,
          "internalType": "uint256",
          "name": "value",
          "type": "uint256"
        }
      ],
      "name": "TransferSingle",
      "type": "event"
    },
    {
      "anonymous": false,
      "inputs": [
        {
          "indexed": false,
          "internalType": "string",
          "name": "value",
          "type": "string"
        },
        {
          "indexed": true,
          "internalType": "uint256",
          "name": "id",
          "type": "uint256"
        }
      ],
      "name": "URI",
      "type": "event"
    },
    {
      "inputs": [
        {
          "internalType": "address",
          "name": "account",
          "type": "address"
        },
        {
          "internalType": "uint256",
          "name": "id",
          "type": "uint256"
        }
      ],
      "name": "balanceOf",
      "outputs": [
        {
          "internalType": "uint256",
          "name": "",
          "type": "uint256"
        }
      ],
      "stateMutability": "view",
      "type": "function"
    },
    {
      "inputs": [
        {
          "internalType": "address[]",
          "name": "accounts",
          "type": "address[]"
        },
        {
          "internalType": "uint256[]",
          "name": "ids",
          "type": "uint256[]"
        }
      ],
      "name": "balanceOfBatch",
      "outputs": [
        {
          "internalType": "uint256[]",
          "name": "",
          "type": "uint256[]"
        }
      ],
      "stateMutability": "view",
      "type": "function"
    },
    {
      "inputs": [
        {
          "internalType": "bytes32",
          "name": "",
          "type": "bytes32"
        }
      ],
      "name": "invoiceToTokenId",
      "outputs": [
        {
          "internalType": "uint256",
          "name": "",
          "type": "uint256"
        }
      ],
      "stateMutability": "view",
      "type": "function"
    },
    {
      "inputs": [
        {
          "internalType": "address",
          "name": "account",
          "type": "address"
        },
        {
          "internalType": "address",
          "name": "operator",
          "type": "address"
        }
      ],
      "name": "isApprovedForAll",
      "outputs": [
        {
          "internalType": "bool",
          "name": "",
          "type": "bool"
        }
      ],
      "stateMutability": "view",
      "type": "function"
    },
    {
      "inputs": [],
      "name": "owner",
      "outputs": [
        {
          "internalType": "address",
          "name": "",
          "type": "address"
        }
      ],
      "stateMutability": "view",
      "type": "function"
    },
    {
      "inputs": [
        {
          "internalType": "uint256",
          "name": "_tokenId",
          "type": "uint256"
        },
        {
          "internalType": "uint256",
          "name": "_amount",
          "type": "uint256"
        }
      ],
      "name": "redeem",
      "outputs": [],
      "stateMutability": "nonpayable",
      "type": "function"
    },
    {
      "inputs": [],
      "name": "renounceOwnership",
      "outputs": [],
      "stateMutability": "nonpayable",
      "type": "function"
    },
    {
      "inputs": [
        {
          "internalType": "address",
          "name": "from",
          "type": "address"
        },
        {
          "internalType": "address",
          "name": "to",
          "type": "address"
        },
        {
          "internalType": "uint256[]",
          "name": "ids",
          "type": "uint256[]"
        },
        {
          "internalType": "uint256[]",
          "name": "values",
          "type": "uint256[]"
        },
        {
          "internalType": "bytes",
          "name": "data",
          "type": "bytes"
        }
      ],
      "name": "safeBatchTransferFrom",
      "outputs": [],
      "stateMutability": "nonpayable",
      "type": "function"
    },
    {
      "inputs": [
        {
          "internalType": "address",
          "name": "from",
          "type": "address"
        },
        {
          "internalType": "address",
          "name": "to",
          "type": "address"
        },
        {
          "internalType": "uint256",
          "name": "id",
          "type": "uint256"
        },
        {
          "internalType": "uint256",
          "name": "value",
          "type": "uint256"
        },
        {
          "internalType": "bytes",
          "name": "data",
          "type": "bytes"
        }
      ],
      "name": "safeTransferFrom",
      "outputs": [],
      "stateMutability": "nonpayable",
      "type": "function"
    },
    {
      "inputs": [
        {
          "internalType": "address",
          "name": "operator",
          "type": "address"
        },
        {
          "internalType": "bool",
          "name": "approved",
          "type": "bool"
        }
      ],
      "name": "setApprovalForAll",
      "outputs": [],
      "stateMutability": "nonpayable",
      "type": "function"
    },
    {
      "inputs": [
        {
          "internalType": "string",
          "name": "_newuri",
          "type": "string"
        }
      ],
      "name": "setURI",
      "outputs": [],
      "stateMutability": "nonpayable",
      "type": "function"
    },
    {
      "inputs": [
        {
          "internalType": "bytes4",
          "name": "interfaceId",
          "type": "bytes4"
        }
      ],
      "name": "supportsInterface",
      "outputs": [
        {
          "internalType": "bool",
          "name": "",
          "type": "bool"
        }
      ],
      "stateMutability": "view",
      "type": "function"
    },
    {
      "inputs": [
        {
          "internalType": "uint256",
          "name": "",
          "type": "uint256"
        }
      ],
      "name": "tokenDetails",
      "outputs": [
        {
          "internalType": "bytes32",
          "name": "invoiceId",
          "type": "bytes32"
        },
        {
          "internalType": "uint256",
          "name": "totalSupply",
          "type": "uint256"
        },
        {
          "internalType": "uint256",
          "name": "remainingSupply",
          "type": "uint256"
        },
        {
          "internalType": "uint256",
          "name": "faceValue",
          "type": "uint256"
        },
        {
          "internalType": "uint256",
          "name": "maturityDate",
          "type": "uint256"
        },
        {
          "internalType": "address",
          "name": "issuer",
          "type": "address"
        },
        {
          "internalType": "bool",
          "name": "isRedeemed",
          "type": "bool"
        }
      ],
      "stateMutability": "view",
      "type": "function"
    },
    {
      "inputs": [
        {
          "internalType": "bytes32",
          "name": "_invoiceId",
          "type": "bytes32"
        },
        {
          "internalType": "uint256",
          "name": "_totalSupply",
          "type": "uint256"
        },
        {
          "internalType": "uint256",
          "name": "_faceValue",
          "type": "uint256"
        },
        {
          "internalType": "uint256",
          "name": "_maturityDate",
          "type": "uint256"
        },
        {
          "internalType": "address",
          "name": "_issuer",
          "type": "address"
        }
      ],
      "name": "tokenizeInvoice",
      "outputs": [
        {
          "internalType": "uint256",
          "name": "",
          "type": "uint256"
        }
      ],
      "stateMutability": "nonpayable",
      "type": "function"
    },
    {
      "inputs": [
        {
          "internalType": "address",
          "name": "newOwner",
          "type": "address"
        }
      ],
      "name": "transferOwnership",
      "outputs": [],
      "stateMutability": "nonpayable",
      "type": "function"
    },
    {
      "inputs": [
        {
          "internalType": "uint256",
          "name": "_tokenId",
          "type": "uint256"
        }
      ],
      "name": "uri",
      "outputs": [
        {
          "internalType": "string",
          "name": "",
          "type": "string"
        }
      ],
      "stateMutability": "view",
      "type": "function"
    }
  ],
  "bytecode": "0x608060405260016006553480156200001657600080fd5b50336040518060600160405280602b8152602001620036bf602b91396200004381620000d160201b60201c565b50600073ffffffffffffffffffffffffffffffffffffffff168173ffffffffffffffffffffffffffffffffffffffff1603620000b95760006040517f1e4fbdf7000000000000000000000000000000000000000000000000000000008152600401620000b09190620001f1565b60405180910390fd5b620000ca81620000e660201b60201c565b506200056f565b8060029081620000e2919062000488565b5050565b6000600360009054906101000a900473ffffffffffffffffffffffffffffffffffffffff16905081600360006101000a81548173ffffffffffffffffffffffffffffffffffffffff021916908373ffffffffffffffffffffffffffffffffffffffff1602179055508173ffffffffffffffffffffffffffffffffffffffff168173ffffffffffffffffffffffffffffffffffffffff167f8be0079c531659141344cd1fd0a4f28419497f9722a3daafe3b4186f6b6457e060405160405180910390a35050565b600073ffffffffffffffffffffffffffffffffffffffff82169050919050565b6000620001d982620001ac565b9050919050565b620001eb81620001cc565b82525050565b6000602082019050620002086000830184620001e0565b92915050565b600081519050919050565b7f4e487b7100000000000000000000000000000000000000000000000000000000600052604160045260246000fd5b7f4e487b7100000000000000000000000000000000000000000000000000000000600052602260045260246000fd5b600060028204905060018216806200029057607f821691505b602082108103620002a657620002a562000248565b5b50919050565b60008190508160005260206000209050919050565b60006020601f8301049050919050565b600082821b905092915050565b600060088302620003107fffffffffffffffffffffffffffffffffffffffffffffffffffffffffffffffff82620002d1565b6200031c8683620002d1565b95508019841693508086168417925050509392505050565b6000819050919050565b6000819050919050565b600062000369620003636200035d8462000334565b6200033e565b62000334565b9050919050565b6000819050919050565b620003858362000348565b6200039d620003948262000370565b848454620002de565b825550505050565b600090565b620003b4620003a5565b620003c18184846200037a565b505050565b5b81811015620003e957620003dd600082620003aa565b600181019050620003c7565b5050565b601f82111562000438576200040281620002ac565b6200040d84620002c1565b810160208510156200041d578190505b620004356200042c85620002c1565b830182620003c6565b50505b505050565b600082821c905092915050565b60006200045d600019846008026200043d565b1980831691505092915050565b60006200047883836200044a565b9150826002028217905092915050565b62000493826200020e565b67ffffffffffffffff811115620004af57620004ae62000219565b5b620004bb825462000277565b620004c8828285620003ed565b600060209050601f831160018114620005005760008415620004eb578287015190505b620004f785826200046a565b86555062000567565b601f1984166200051086620002ac565b60005b828110156200053a5784890151825560018201915060208501945060208101905062000513565b868310156200055a578489015162000556601f8916826200044a565b8355505b6001600288020188555050505b505050505050565b613140806200057f6000396000f3fe608060405234801561001057600080fd5b50600436106100ff5760003560e01c8063715018a611610097578063e985e9c511610066578063e985e9c5146102bc578063f242432a146102ec578063f2fde38b14610308578063fc314e3114610324576100ff565b8063715018a61461025c5780637cbc2373146102665780638da5cb5b14610282578063a22cb465146102a0576100ff565b806312589e19116100d357806312589e19146101b05780632eb2c2d6146101e057806343c29406146101fc5780634e1273f41461022c576100ff565b8062fdd58e1461010457806301ffc9a71461013457806302fe5305146101645780630e89341c14610180575b600080fd5b61011e60048036038101906101199190611cf7565b61035a565b60405161012b9190611d46565b60405180910390f35b61014e60048036038101906101499190611db9565b6103b4565b60405161015b9190611e01565b60405180910390f35b61017e60048036038101906101799190611f62565b610496565b005b61019a60048036038101906101959190611fab565b6104aa565b6040516101a79190612057565b60405180910390f35b6101ca60048036038101906101c591906120af565b61050c565b6040516101d79190611d46565b60405180910390f35b6101fa60048036038101906101f59190612245565b610524565b005b61021660048036038101906102119190612314565b6105cc565b6040516102239190611d46565b60405180910390f35b61024660048036038101906102419190612452565b6107be565b6040516102539190612588565b60405180910390f35b6102646108cd565b005b610280600480360381019061027b91906125aa565b6108e1565b005b61028a610aa5565b60405161029791906125f9565b60405180910390f35b6102ba60048036038101906102b59190612640565b610acf565b005b6102d660048036038101906102d19190612680565b610ae5565b6040516102e39190611e01565b60405180910390f35b610306600480360381019061030191906126c0565b610b79565b005b610322600480360381019061031d9190612757565b610c21565b005b61033e60048036038101906103399190611fab565b610ca7565b6040516103519796959493929190612793565b60405180910390f35b600080600083815260200190815260200160002060008473ffffffffffffffffffffffffffffffffffffffff1673ffffffffffffffffffffffffffffffffffffffff16815260200190815260200160002054905092915050565b60007fd9b67a26000000000000000000000000000000000000000000000000000000007bffffffffffffffffffffffffffffffffffffffffffffffffffffffff1916827bffffffffffffffffffffffffffffffffffffffffffffffffffffffff1916148061047f57507f0e89341c000000000000000000000000000000000000000000000000000000007bffffffffffffffffffffffffffffffffffffffffffffffffffffffff1916827bffffffffffffffffffffffffffffffffffffffffffffffffffffffff1916145b8061048f575061048e82610d16565b5b9050919050565b61049e610d80565b6104a781610e07565b50565b60606000821180156104bd575060065482105b6104fc576040517f08c379a00000000000000000000000000000000000000000000000000000000081526004016104f39061284e565b60405180910390fd5b61050582610e1a565b9050919050565b60046020528060005260406000206000915090505481565b600061052e610eae565b90508073ffffffffffffffffffffffffffffffffffffffff168673ffffffffffffffffffffffffffffffffffffffff161415801561057357506105718682610ae5565b155b156105b75780866040517fe237d9220000000000000000000000000000000000000000000000000000000081526004016105ae92919061286e565b60405180910390fd5b6105c48686868686610eb6565b505050505050565b60006105d6610d80565b600060046000888152602001908152602001600020541461062c576040517f08c379a0000000000000000000000000000000000000000000000000000000008152600401610623906128e3565b60405180910390fd5b60006006600081548092919061064190612932565b9190505590508060046000898152602001908152602001600020819055506040518060e001604052808881526020018781526020018781526020018681526020018581526020018473ffffffffffffffffffffffffffffffffffffffff1681526020016000151581525060056000838152602001908152602001600020600082015181600001556020820151816001015560408201518160020155606082015181600301556080820151816004015560a08201518160050160006101000a81548173ffffffffffffffffffffffffffffffffffffffff021916908373ffffffffffffffffffffffffffffffffffffffff16021790555060c08201518160050160146101000a81548160ff02191690831515021790555090505061077583828860405180602001604052806000815250610fae565b867f07f5bfe4bde30469800f142c7b6c69079d03ffc0c33a3154f48997574e59fe6e8288886040516107a99392919061297a565b60405180910390a28091505095945050505050565b6060815183511461080a57815183516040517f5b0599910000000000000000000000000000000000000000000000000000000081526004016108019291906129b1565b60405180910390fd5b6000835167ffffffffffffffff81111561082757610826611e37565b5b6040519080825280602002602001820160405280156108555781602001602082028036833780820191505090505b50905060005b84518110156108c25761089261087a828761104790919063ffffffff16565b61088d838761105b90919063ffffffff16565b61035a565b8282815181106108a5576108a46129da565b5b602002602001018181525050806108bb90612932565b905061085b565b508091505092915050565b6108d5610d80565b6108df600061106f565b565b6000600560008481526020019081526020016000209050806004015442101561093f576040517f08c379a000000000000000000000000000000000000000000000000000000000815260040161093690612a55565b60405180910390fd5b8060050160149054906101000a900460ff1615610991576040517f08c379a000000000000000000000000000000000000000000000000000000000815260040161098890612ac1565b60405180910390fd5b8161099c338561035a565b10156109dd576040517f08c379a00000000000000000000000000000000000000000000000000000000081526004016109d490612b2d565b60405180910390fd5b600081600101548260030154846109f49190612b4d565b6109fe9190612bbe565b9050610a0b338585611135565b82826002016000828254610a1f9190612bef565b925050819055503373ffffffffffffffffffffffffffffffffffffffff16847fa18626381edd3d7a115c4a09f678bb79665034a541affcdba9fe65a1d3d107ee83604051610a6d9190611d46565b60405180910390a36000826002015403610a9f5760018260050160146101000a81548160ff0219169083151502179055505b50505050565b6000600360009054906101000a900473ffffffffffffffffffffffffffffffffffffffff16905090565b610ae1610ada610eae565b83836111dc565b5050565b6000600160008473ffffffffffffffffffffffffffffffffffffffff1673ffffffffffffffffffffffffffffffffffffffff16815260200190815260200160002060008373ffffffffffffffffffffffffffffffffffffffff1673ffffffffffffffffffffffffffffffffffffffff16815260200190815260200160002060009054906101000a900460ff16905092915050565b6000610b83610eae565b90508073ffffffffffffffffffffffffffffffffffffffff168673ffffffffffffffffffffffffffffffffffffffff1614158015610bc85750610bc68682610ae5565b155b15610c0c5780866040517fe237d922000000000000000000000000000000000000000000000000000000008152600401610c0392919061286e565b60405180910390fd5b610c19868686868661134c565b505050505050565b610c29610d80565b600073ffffffffffffffffffffffffffffffffffffffff168173ffffffffffffffffffffffffffffffffffffffff1603610c9b5760006040517f1e4fbdf7000000000000000000000000000000000000000000000000000000008152600401610c9291906125f9565b60405180910390fd5b610ca48161106f565b50565b60056020528060005260406000206000915090508060000154908060010154908060020154908060030154908060040154908060050160009054906101000a900473ffffffffffffffffffffffffffffffffffffffff16908060050160149054906101000a900460ff16905087565b60007f01ffc9a7000000000000000000000000000000000000000000000000000000007bffffffffffffffffffffffffffffffffffffffffffffffffffffffff1916827bffffffffffffffffffffffffffffffffffffffffffffffffffffffff1916149050919050565b610d88610eae565b73ffffffffffffffffffffffffffffffffffffffff16610da6610aa5565b73ffffffffffffffffffffffffffffffffffffffff1614610e0557610dc9610eae565b6040517f118cdaa7000000000000000000000000000000000000000000000000000000008152600401610dfc91906125f9565b60405180910390fd5b565b8060029081610e169190612e2f565b5050565b606060028054610e2990612c52565b80601f0160208091040260200160405190810160405280929190818152602001828054610e5590612c52565b8015610ea25780601f10610e7757610100808354040283529160200191610ea2565b820191906000526020600020905b815481529060010190602001808311610e8557829003601f168201915b50505050509050919050565b600033905090565b600073ffffffffffffffffffffffffffffffffffffffff168473ffffffffffffffffffffffffffffffffffffffff1603610f285760006040517f57f447ce000000000000000000000000000000000000000000000000000000008152600401610f1f91906125f9565b60405180910390fd5b600073ffffffffffffffffffffffffffffffffffffffff168573ffffffffffffffffffffffffffffffffffffffff1603610f9a5760006040517f01a83514000000000000000000000000000000000000000000000000000000008152600401610f9191906125f9565b60405180910390fd5b610fa78585858585611457565b5050505050565b600073ffffffffffffffffffffffffffffffffffffffff168473ffffffffffffffffffffffffffffffffffffffff16036110205760006040517f57f447ce00000000000000000000000000000000000000000000000000000000815260040161101791906125f9565b60405180910390fd5b60008061102d8585611509565b9150915061103f600087848487611457565b505050505050565b600060208202602084010151905092915050565b600060208202602084010151905092915050565b6000600360009054906101000a900473ffffffffffffffffffffffffffffffffffffffff16905081600360006101000a81548173ffffffffffffffffffffffffffffffffffffffff021916908373ffffffffffffffffffffffffffffffffffffffff1602179055508173ffffffffffffffffffffffffffffffffffffffff168173ffffffffffffffffffffffffffffffffffffffff167f8be0079c531659141344cd1fd0a4f28419497f9722a3daafe3b4186f6b6457e060405160405180910390a35050565b600073ffffffffffffffffffffffffffffffffffffffff168373ffffffffffffffffffffffffffffffffffffffff16036111a75760006040517f01a8351400000000000000000000000000000000000000000000000000000000815260040161119e91906125f9565b60405180910390fd5b6000806111b48484611509565b915091506111d5856000848460405180602001604052806000815250611457565b5050505050565b600073ffffffffffffffffffffffffffffffffffffffff168273ffffffffffffffffffffffffffffffffffffffff160361124e5760006040517fced3e10000000000000000000000000000000000000000000000000000000000815260040161124591906125f9565b60405180910390fd5b80600160008573ffffffffffffffffffffffffffffffffffffffff1673ffffffffffffffffffffffffffffffffffffffff16815260200190815260200160002060008473ffffffffffffffffffffffffffffffffffffffff1673ffffffffffffffffffffffffffffffffffffffff16815260200190815260200160002060006101000a81548160ff0219169083151502179055508173ffffffffffffffffffffffffffffffffffffffff168373ffffffffffffffffffffffffffffffffffffffff167f17307eab39ab6107e8899845ad3d59bd9653f200f220920489ca2b5937696c318360405161133f9190611e01565b60405180910390a3505050565b600073ffffffffffffffffffffffffffffffffffffffff168473ffffffffffffffffffffffffffffffffffffffff16036113be5760006040517f57f447ce0000000000000000000000000000000000000000000000000000000081526004016113b591906125f9565b60405180910390fd5b600073ffffffffffffffffffffffffffffffffffffffff168573ffffffffffffffffffffffffffffffffffffffff16036114305760006040517f01a8351400000000000000000000000000000000000000000000000000000000815260040161142791906125f9565b60405180910390fd5b60008061143d8585611509565b9150915061144e8787848487611457565b50505050505050565b61146385858585611539565b600073ffffffffffffffffffffffffffffffffffffffff168473ffffffffffffffffffffffffffffffffffffffff16146115025760006114a1610eae565b905060018451036114f15760006114c260008661105b90919063ffffffff16565b905060006114da60008661105b90919063ffffffff16565b90506114ea8389898585896118e7565b5050611500565b6114ff818787878787611a9b565b5b505b5050505050565b60608060405191506001825283602083015260408201905060018152826020820152604081016040529250929050565b805182511461158357815181516040517f5b05999100000000000000000000000000000000000000000000000000000000815260040161157a9291906129b1565b60405180910390fd5b600061158d610eae565b905060005b83518110156117a25760006115b0828661105b90919063ffffffff16565b905060006115c7838661105b90919063ffffffff16565b9050600073ffffffffffffffffffffffffffffffffffffffff168873ffffffffffffffffffffffffffffffffffffffff16146116f457600080600084815260200190815260200160002060008a73ffffffffffffffffffffffffffffffffffffffff1673ffffffffffffffffffffffffffffffffffffffff1681526020019081526020016000205490508181101561169c57888183856040517f03dee4c50000000000000000000000000000000000000000000000000000000081526004016116939493929190612f01565b60405180910390fd5b81810360008085815260200190815260200160002060008b73ffffffffffffffffffffffffffffffffffffffff1673ffffffffffffffffffffffffffffffffffffffff16815260200190815260200160002081905550505b600073ffffffffffffffffffffffffffffffffffffffff168773ffffffffffffffffffffffffffffffffffffffff161461178f578060008084815260200190815260200160002060008973ffffffffffffffffffffffffffffffffffffffff1673ffffffffffffffffffffffffffffffffffffffff16815260200190815260200160002060008282546117879190612f46565b925050819055505b50508061179b90612932565b9050611592565b5060018351036118615760006117c260008561105b90919063ffffffff16565b905060006117da60008561105b90919063ffffffff16565b90508573ffffffffffffffffffffffffffffffffffffffff168773ffffffffffffffffffffffffffffffffffffffff168473ffffffffffffffffffffffffffffffffffffffff167fc3d58168c5ae7397731d063d5bbf3d657854427343f4c083240f7aacaa2d0f6285856040516118529291906129b1565b60405180910390a450506118e0565b8373ffffffffffffffffffffffffffffffffffffffff168573ffffffffffffffffffffffffffffffffffffffff168273ffffffffffffffffffffffffffffffffffffffff167f4a39dc06d4c0dbc64b70af90fd698a233a518aa5d07e595d983b8c0526c8f7fb86866040516118d7929190612f7a565b60405180910390a45b5050505050565b60008473ffffffffffffffffffffffffffffffffffffffff163b1115611a93578373ffffffffffffffffffffffffffffffffffffffff1663f23a6e6187878686866040518663ffffffff1660e01b8152600401611948959493929190613006565b6020604051808303816000875af192505050801561198457506040513d601f19601f820116820180604052508101906119819190613075565b60015b611a08573d80600081146119b4576040519150601f19603f3d011682016040523d82523d6000602084013e6119b9565b606091505b506000815103611a0057846040517f57f447ce0000000000000000000000000000000000000000000000000000000081526004016119f791906125f9565b60405180910390fd5b805160208201fd5b63f23a6e6160e01b7bffffffffffffffffffffffffffffffffffffffffffffffffffffffff1916817bffffffffffffffffffffffffffffffffffffffffffffffffffffffff191614611a9157846040517f57f447ce000000000000000000000000000000000000000000000000000000008152600401611a8891906125f9565b60405180910390fd5b505b505050505050565b60008473ffffffffffffffffffffffffffffffffffffffff163b1115611c47578373ffffffffffffffffffffffffffffffffffffffff1663bc197c8187878686866040518663ffffffff1660e01b8152600401611afc9594939291906130a2565b6020604051808303816000875af1925050508015611b3857506040513d601f19601f82011682018060405250810190611b359190613075565b60015b611bbc573d8060008114611b68576040519150601f19603f3d011682016040523d82523d6000602084013e611b6d565b606091505b506000815103611bb457846040517f57f447ce000000000000000000000000000000000000000000000000000000008152600401611bab91906125f9565b60405180910390fd5b805160208201fd5b63bc197c8160e01b7bffffffffffffffffffffffffffffffffffffffffffffffffffffffff1916817bffffffffffffffffffffffffffffffffffffffffffffffffffffffff191614611c4557846040517f57f447ce000000000000000000000000000000000000000000000000000000008152600401611c3c91906125f9565b60405180910390fd5b505b505050505050565b6000604051905090565b600080fd5b600080fd5b600073ffffffffffffffffffffffffffffffffffffffff82169050919050565b6000611c8e82611c63565b9050919050565b611c9e81611c83565b8114611ca957600080fd5b50565b600081359050611cbb81611c95565b92915050565b6000819050919050565b611cd481611cc1565b8114611cdf57600080fd5b50565b600081359050611cf181611ccb565b92915050565b60008060408385031215611d0e57611d0d611c59565b5b6000611d1c85828601611cac565b9250506020611d2d85828601611ce2565b9150509250929050565b611d4081611cc1565b82525050565b6000602082019050611d5b6000830184611d37565b92915050565b60007fffffffff0000000000000000000000000000000000000000000000000000000082169050919050565b611d9681611d61565b8114611da157600080fd5b50565b600081359050611db381611d8d565b92915050565b600060208284031215611dcf57611dce611c59565b5b6000611ddd84828501611da4565b91505092915050565b60008115159050919050565b611dfb81611de6565b82525050565b6000602082019050611e166000830184611df2565b92915050565b600080fd5b600080fd5b6000601f19601f8301169050919050565b7f4e487b7100000000000000000000000000000000000000000000000000000000600052604160045260246000fd5b611e6f82611e26565b810181811067ffffffffffffffff82111715611e8e57611e8d611e37565b5b80604052505050565b6000611ea1611c4f565b9050611ead8282611e66565b919050565b600067ffffffffffffffff821115611ecd57611ecc611e37565b5b611ed682611e26565b9050602081019050919050565b82818337600083830152505050565b6000611f05611f0084611eb2565b611e97565b905082815260208101848484011115611f2157611f20611e21565b5b611f2c848285611ee3565b509392505050565b600082601f830112611f4957611f48611e1c565b5b8135611f59848260208601611ef2565b91505092915050565b600060208284031215611f7857611f77611c59565b5b600082013567ffffffffffffffff811115611f9657611f95611c5e565b5b611fa284828501611f34565b91505092915050565b600060208284031215611fc157611fc0611c59565b5b6000611fcf84828501611ce2565b91505092915050565b600081519050919050565b600082825260208201905092915050565b60005b83811015612012578082015181840152602081019050611ff7565b60008484015250505050565b600061202982611fd8565b6120338185611fe3565b9350612043818560208601611ff4565b61204c81611e26565b840191505092915050565b60006020820190508181036000830152612071818461201e565b905092915050565b6000819050919050565b61208c81612079565b811461209757600080fd5b50565b6000813590506120a981612083565b92915050565b6000602082840312156120c5576120c4611c59565b5b60006120d38482850161209a565b91505092915050565b600067ffffffffffffffff8211156120f7576120f6611e37565b5b602082029050602081019050919050565b600080fd5b600061212061211b846120dc565b611e97565b9050808382526020820190506020840283018581111561214357612142612108565b5b835b8181101561216c57806121588882611ce2565b845260208401935050602081019050612145565b5050509392505050565b600082601f83011261218b5761218a611e1c565b5b813561219b84826020860161210d565b91505092915050565b600067ffffffffffffffff8211156121bf576121be611e37565b5b6121c882611e26565b9050602081019050919050565b60006121e86121e3846121a4565b611e97565b90508281526020810184848401111561220457612203611e21565b5b61220f848285611ee3565b509392505050565b600082601f83011261222c5761222b611e1c565b5b813561223c8482602086016121d5565b91505092915050565b600080600080600060a0868803121561226157612260611c59565b5b600061226f88828901611cac565b955050602061228088828901611cac565b945050604086013567ffffffffffffffff8111156122a1576122a0611c5e565b5b6122ad88828901612176565b935050606086013567ffffffffffffffff8111156122ce576122cd611c5e565b5b6122da88828901612176565b925050608086013567ffffffffffffffff8111156122fb576122fa611c5e565b5b61230788828901612217565b9150509295509295909350565b600080600080600060a086880312156123305761232f611c59565b5b600061233e8882890161209a565b955050602061234f88828901611ce2565b945050604061236088828901611ce2565b935050606061237188828901611ce2565b925050608061238288828901611cac565b9150509295509295909350565b600067ffffffffffffffff8211156123aa576123a9611e37565b5b602082029050602081019050919050565b60006123ce6123c98461238f565b611e97565b905080838252602082019050602084028301858111156123f1576123f0612108565b5b835b8181101561241a57806124068882611cac565b8452602084019350506020810190506123f3565b5050509392505050565b600082601f83011261243957612438611e1c565b5b81356124498482602086016123bb565b91505092915050565b6000806040838503121561246957612468611c59565b5b600083013567ffffffffffffffff81111561248757612486611c5e565b5b61249385828601612424565b925050602083013567ffffffffffffffff8111156124b4576124b3611c5e565b5b6124c085828601612176565b9150509250929050565b600081519050919050565b600082825260208201905092915050565b6000819050602082019050919050565b6124ff81611cc1565b82525050565b600061251183836124f6565b60208301905092915050565b6000602082019050919050565b6000612535826124ca565b61253f81856124d5565b935061254a836124e6565b8060005b8381101561257b5781516125628882612505565b975061256d8361251d565b92505060018101905061254e565b5085935050505092915050565b600060208201905081810360008301526125a2818461252a565b905092915050565b600080604083850312156125c1576125c0611c59565b5b60006125cf85828601611ce2565b92505060206125e085828601611ce2565b9150509250929050565b6125f381611c83565b82525050565b600060208201905061260e60008301846125ea565b92915050565b61261d81611de6565b811461262857600080fd5b50565b60008135905061263a81612614565b92915050565b6000806040838503121561265757612656611c59565b5b600061266585828601611cac565b92505060206126768582860161262b565b9150509250929050565b6000806040838503121561269757612696611c59565b5b60006126a585828601611cac565b92505060206126b685828601611cac565b9150509250929050565b600080600080600060a086880312156126dc576126db611c59565b5b60006126ea88828901611cac565b95505060206126fb88828901611cac565b945050604061270c88828901611ce2565b935050606061271d88828901611ce2565b925050608086013567ffffffffffffffff81111561273e5761273d611c5e565b5b61274a88828901612217565b9150509295509295909350565b60006020828403121561276d5761276c611c59565b5b600061277b84828501611cac565b91505092915050565b61278d81612079565b82525050565b600060e0820190506127a8600083018a612784565b6127b56020830189611d37565b6127c26040830188611d37565b6127cf6060830187611d37565b6127dc6080830186611d37565b6127e960a08301856125ea565b6127f660c0830184611df2565b98975050505050505050565b7f4e6f6e6578697374656e7420746f6b656e000000000000000000000000000000600082015250565b6000612838601183611fe3565b915061284382612802565b602082019050919050565b600060208201905081810360008301526128678161282b565b9050919050565b600060408201905061288360008301856125ea565b61289060208301846125ea565b9392505050565b7f496e766f69636520616c726561647920746f6b656e697a656400000000000000600082015250565b60006128cd601983611fe3565b91506128d882612897565b602082019050919050565b600060208201905081810360008301526128fc816128c0565b9050919050565b7f4e487b7100000000000000000000000000000000000000000000000000000000600052601160045260246000fd5b600061293d82611cc1565b91507fffffffffffffffffffffffffffffffffffffffffffffffffffffffffffffffff820361296f5761296e612903565b5b600182019050919050565b600060608201905061298f6000830186611d37565b61299c6020830185611d37565b6129a96040830184611d37565b949350505050565b60006040820190506129c66000830185611d37565b6129d36020830184611d37565b9392505050565b7f4e487b7100000000000000000000000000000000000000000000000000000000600052603260045260246000fd5b7f4e6f7420796574206d6174757265000000000000000000000000000000000000600082015250565b6000612a3f600e83611fe3565b9150612a4a82612a09565b602082019050919050565b60006020820190508181036000830152612a6e81612a32565b9050919050565b7f416c72656164792072656465656d656400000000000000000000000000000000600082015250565b6000612aab601083611fe3565b9150612ab682612a75565b602082019050919050565b60006020820190508181036000830152612ada81612a9e565b9050919050565b7f496e73756666696369656e7420746f6b656e7300000000000000000000000000600082015250565b6000612b17601383611fe3565b9150612b2282612ae1565b602082019050919050565b60006020820190508181036000830152612b4681612b0a565b9050919050565b6000612b5882611cc1565b9150612b6383611cc1565b9250828202612b7181611cc1565b91508282048414831517612b8857612b87612903565b5b5092915050565b7f4e487b7100000000000000000000000000000000000000000000000000000000600052601260045260246000fd5b6000612bc982611cc1565b9150612bd483611cc1565b925082612be457612be3612b8f565b5b828204905092915050565b6000612bfa82611cc1565b9150612c0583611cc1565b9250828203905081811115612c1d57612c1c612903565b5b92915050565b7f4e487b7100000000000000000000000000000000000000000000000000000000600052602260045260246000fd5b60006002820490506001821680612c6a57607f821691505b602082108103612c7d57612c7c612c23565b5b50919050565b60008190508160005260206000209050919050565b60006020601f8301049050919050565b600082821b905092915050565b600060088302612ce57fffffffffffffffffffffffffffffffffffffffffffffffffffffffffffffffff82612ca8565b612cef8683612ca8565b95508019841693508086168417925050509392505050565b6000819050919050565b6000612d2c612d27612d2284611cc1565b612d07565b611cc1565b9050919050565b6000819050919050565b612d4683612d11565b612d5a612d5282612d33565b848454612cb5565b825550505050565b600090565b612d6f612d62565b612d7a818484612d3d565b505050565b5b81811015612d9e57612d93600082612d67565b600181019050612d80565b5050565b601f821115612de357612db481612c83565b612dbd84612c98565b81016020851015612dcc578190505b612de0612dd885612c98565b830182612d7f565b50505b505050565b600082821c905092915050565b6000612e0660001984600802612de8565b1980831691505092915050565b6000612e1f8383612df5565b9150826002028217905092915050565b612e3882611fd8565b67ffffffffffffffff811115612e5157612e50611e37565b5b612e5b8254612c52565b612e66828285612da2565b600060209050601f831160018114612e995760008415612e87578287015190505b612e918582612e13565b865550612ef9565b601f198416612ea786612c83565b60005b82811015612ecf57848901518255600182019150602085019450602081019050612eaa565b86831015612eec5784890151612ee8601f891682612df5565b8355505b6001600288020188555050505b505050505050565b6000608082019050612f1660008301876125ea565b612f236020830186611d37565b612f306040830185611d37565b612f3d6060830184611d37565b95945050505050565b6000612f5182611cc1565b9150612f5c83611cc1565b9250828201905080821115612f7457612f73612903565b5b92915050565b60006040820190508181036000830152612f94818561252a565b90508181036020830152612fa8818461252a565b90509392505050565b600081519050919050565b600082825260208201905092915050565b6000612fd882612fb1565b612fe28185612fbc565b9350612ff2818560208601611ff4565b612ffb81611e26565b840191505092915050565b600060a08201905061301b60008301886125ea565b61302860208301876125ea565b6130356040830186611d37565b6130426060830185611d37565b81810360808301526130548184612fcd565b90509695505050505050565b60008151905061306f81611d8d565b92915050565b60006020828403121561308b5761308a611c59565b5b600061309984828501613060565b91505092915050565b600060a0820190506130b760008301886125ea565b6130c460208301876125ea565b81810360408301526130d6818661252a565b905081810360608301526130ea818561252a565b905081810360808301526130fe8184612fcd565b9050969550505050505056fea2646970667358221220764d3d6ba6a444e7cb53e11c81aeb82ff99d96ed68495aa96c5286444474a67464736f6c6343000814003368747470733a2f2f6170692e66696e6f766174657061792e636f6d2f746f6b656e2f7b69647d2e6a736f6e",
  "linkReferences": {},
  "deployedLinkReferences": {}
}