{
  "_format": "hh-sol-artifact-1",
  "contractName": "FractionToken",
  "sourceName": "contracts/FractionToken.sol",
  "abi": [
    {
      "inputs": [
        {
          "internalType": "address",
          "name": "_paymentToken",
          "type": "address"
        }
      ],
      "stateMutability": "nonpayable",
      "type": "constructor"
    },
    {
      "inputs": [
        {
          "internalType": "address",
          "name": "sender",
          "type": "address"
        },
        {
          "internalType": "uint256",
          "name": "balance",
          "type": "uint256"
        },
        {
          "internalType": "uint256",
          "name": "needed",
          "type": "uint256"
        },
        {
          "internalType": "uint256",
          "name": "tokenId",
          "type": "uint256"
        }
      ],
      "name": "ERC1155InsufficientBalance",
      "type": "error"
    },
    {
      "inputs": [
        {
          "internalType": "address",
          "name": "approver",
          "type": "address"
        }
      ],
      "name": "ERC1155InvalidApprover",
      "type": "error"
    },
    {
      "inputs": [
        {
          "internalType": "uint256",
          "name": "idsLength",
          "type": "uint256"
        },
        {
          "internalType": "uint256",
          "name": "valuesLength",
          "type": "uint256"
        }
      ],
      "name": "ERC1155InvalidArrayLength",
      "type": "error"
    },
    {
      "inputs": [
        {
          "internalType": "address",
          "name": "operator",
          "type": "address"
        }
      ],
      "name": "ERC1155InvalidOperator",
      "type": "error"
    },
    {
      "inputs": [
        {
          "internalType": "address",
          "name": "receiver",
          "type": "address"
        }
      ],
      "name": "ERC1155InvalidReceiver",
      "type": "error"
    },
    {
      "inputs": [
        {
          "internalType": "address",
          "name": "sender",
          "type": "address"
        }
      ],
      "name": "ERC1155InvalidSender",
      "type": "error"
    },
    {
      "inputs": [
        {
          "internalType": "address",
          "name": "operator",
          "type": "address"
        },
        {
          "internalType": "address",
          "name": "owner",
          "type": "address"
        }
      ],
      "name": "ERC1155MissingApprovalForAll",
      "type": "error"
    },
    {
      "inputs": [
        {
          "internalType": "address",
          "name": "owner",
          "type": "address"
        }
      ],
      "name": "OwnableInvalidOwner",
      "type": "error"
    },
    {
      "inputs": [
        {
          "internalType": "address",
          "name": "account",
          "type": "address"
        }
      ],
      "name": "OwnableUnauthorizedAccount",
      "type": "error"
    },
    {
      "inputs": [],
      "name": "ReentrancyGuardReentrantCall",
      "type": "error"
    },
    {
      "inputs": [
        {
          "internalType": "address",
          "name": "token",
          "type": "address"
        }
      ],
      "name": "SafeERC20FailedOperation",
      "type": "error"
    },
    {
      "anonymous": false,
      "inputs": [
        {
          "indexed": true,
          "internalType": "address",
          "name": "account",
          "type": "address"
        },
        {
          "indexed": true,
          "internalType": "address",
          "name": "operator",
          "type": "address"
        },
        {
          "indexed": false,
          "internalType": "bool",
          "name": "approved",
          "type": "bool"
        }
      ],
      "name": "ApprovalForAll",
      "type": "event"
    },
    {
      "anonymous": false,
      "inputs": [
        {
          "indexed": true,
          "internalType": "uint256",
          "name": "tokenId",
          "type": "uint256"
        },
        {
          "indexed": true,
          "internalType": "address",
          "name": "seller",
          "type": "address"
        },
        {
          "indexed": true,
          "internalType": "address",
          "name": "buyer",
          "type": "address"
        },
        {
          "indexed": false,
          "internalType": "uint256",
          "name": "amount",
          "type": "uint256"
        },
        {
          "indexed": false,
          "internalType": "uint256",
          "name": "price",
          "type": "uint256"
        },
        {
          "indexed": false,
          "internalType": "bytes32",
          "name": "destinationChain",
          "type": "bytes32"
        }
      ],
      "name": "CrossChainTrade",
      "type": "event"
    },
    {
      "anonymous": false,
      "inputs": [
        {
          "indexed": true,
          "internalType": "uint256",
          "name": "tokenId",
          "type": "uint256"
        },
        {
          "indexed": true,
          "internalType": "address",
          "name": "owner",
          "type": "address"
        },
        {
          "indexed": false,
          "internalType": "uint256",
          "name": "amount",
          "type": "uint256"
        },
        {
          "indexed": false,
          "internalType": "bytes32",
          "name": "sourceChain",
          "type": "bytes32"
        }
      ],
      "name": "FractionsBridgeReturned",
      "type": "event"
    },
    {
      "anonymous": false,
      "inputs": [
        {
          "indexed": true,
          "internalType": "uint256",
          "name": "tokenId",
          "type": "uint256"
        },
        {
          "indexed": true,
          "internalType": "address",
          "name": "owner",
          "type": "address"
        },
        {
          "indexed": false,
          "internalType": "uint256",
          "name": "amount",
          "type": "uint256"
        },
        {
          "indexed": false,
          "internalType": "bytes32",
          "name": "destinationChain",
          "type": "bytes32"
        },
        {
          "indexed": false,
          "internalType": "bytes32",
          "name": "lockId",
          "type": "bytes32"
        }
      ],
      "name": "FractionsBridged",
      "type": "event"
    },
    {
      "anonymous": false,
      "inputs": [
        {
          "indexed": true,
          "internalType": "uint256",
          "name": "tokenId",
          "type": "uint256"
        },
        {
          "indexed": true,
          "internalType": "address",
          "name": "buyer",
          "type": "address"
        },
        {
          "indexed": false,
          "internalType": "uint256",
          "name": "amount",
          "type": "uint256"
        },
        {
          "indexed": false,
          "internalType": "uint256",
          "name": "totalCost",
          "type": "uint256"
        }
      ],
      "name": "FractionsPurchased",
      "type": "event"
    },
    {
      "anonymous": false,
      "inputs": [
        {
          "indexed": true,
          "internalType": "uint256",
          "name": "tokenId",
          "type": "uint256"
        },
        {
          "indexed": true,
          "internalType": "address",
          "name": "redeemer",
          "type": "address"
        },
        {
          "indexed": false,
          "internalType": "uint256",
          "name": "amount",
          "type": "uint256"
        },
        {
          "indexed": false,
          "internalType": "uint256",
          "name": "payout",
          "type": "uint256"
        }
      ],
      "name": "FractionsRedeemed",
      "type": "event"
    },
    {
      "anonymous": false,
      "inputs": [
        {
          "indexed": true,
          "internalType": "uint256",
          "name": "tokenId",
          "type": "uint256"
        }
      ],
      "name": "InvoiceClosed",
      "type": "event"
    },
    {
      "anonymous": false,
      "inputs": [
        {
          "indexed": true,
          "internalType": "bytes32",
          "name": "invoiceId",
          "type": "bytes32"
        },
        {
          "indexed": false,
          "internalType": "uint256",
          "name": "tokenId",
          "type": "uint256"
        },
        {
          "indexed": false,
          "internalType": "address",
          "name": "seller",
          "type": "address"
        },
        {
          "indexed": false,
          "internalType": "uint256",
          "name": "totalFractions",
          "type": "uint256"
        },
        {
          "indexed": false,
          "internalType": "uint256",
          "name": "pricePerFraction",
          "type": "uint256"
        },
        {
          "indexed": false,
          "internalType": "uint256",
          "name": "TotalValue",
          "type": "uint256"
        },
        {
          "indexed": false,
          "internalType": "uint256",
          "name": "yieldBps",
          "type": "uint256"
        }
      ],
      "name": "InvoiceFractionalized",
      "type": "event"
    },
    {
      "anonymous": false,
      "inputs": [
        {
          "indexed": true,
          "internalType": "address",
          "name": "previousOwner",
          "type": "address"
        },
        {
          "indexed": true,
          "internalType": "address",
          "name": "newOwner",
          "type": "address"
        }
      ],
      "name": "OwnershipTransferred",
      "type": "event"
    },
    {
      "anonymous": false,
      "inputs": [
        {
          "indexed": true,
          "internalType": "uint256",
          "name": "tokenId",
          "type": "uint256"
        },
        {
          "indexed": false,
          "internalType": "uint256",
          "name": "amount",
          "type": "uint256"
        }
      ],
      "name": "RepaymentReceived",
      "type": "event"
    },
    {
      "anonymous": false,
      "inputs": [
        {
          "indexed": true,
          "internalType": "address",
          "name": "operator",
          "type": "address"
        },
        {
          "indexed": true,
          "internalType": "address",
          "name": "from",
          "type": "address"
        },
        {
          "indexed": true,
          "internalType": "address",
          "name": "to",
          "type": "address"
        },
        {
          "indexed": false,
          "internalType": "uint256[]",
          "name": "ids",
          "type": "uint256[]"
        },
        {
          "indexed": false,
          "internalType": "uint256[]",
          "name": "values",
          "type": "uint256[]"
        }
      ],
      "name": "TransferBatch",
      "type": "event"
    },
    {
      "anonymous": false,
      "inputs": [
        {
          "indexed": true,
          "internalType": "address",
          "name": "operator",
          "type": "address"
        },
        {
          "indexed": true,
          "internalType": "address",
          "name": "from",
          "type": "address"
        },
        {
          "indexed": true,
          "internalType": "address",
          "name": "to",
          "type": "address"
        },
        {
          "indexed": false,
          "internalType": "uint256",
          "name": "id",
          "type": "uint256"
        },
        {
          "indexed": false,
          "internalType": "uint256",
          "name": "value",
          "type": "uint256"
        }
      ],
      "name": "TransferSingle",
      "type": "event"
    },
    {
      "anonymous": false,
      "inputs": [
        {
          "indexed": false,
          "internalType": "string",
          "name": "value",
          "type": "string"
        },
        {
          "indexed": true,
          "internalType": "uint256",
          "name": "id",
          "type": "uint256"
        }
      ],
      "name": "URI",
      "type": "event"
    },
    {
      "inputs": [],
      "name": "FINOVATE_CHAIN",
      "outputs": [
        {
          "internalType": "bytes32",
          "name": "",
          "type": "bytes32"
        }
      ],
      "stateMutability": "view",
      "type": "function"
    },
    {
      "inputs": [],
      "name": "KATANA_CHAIN",
      "outputs": [
        {
          "internalType": "bytes32",
          "name": "",
          "type": "bytes32"
        }
      ],
      "stateMutability": "view",
      "type": "function"
    },
    {
      "inputs": [],
      "name": "POLYGON_POS_CHAIN",
      "outputs": [
        {
          "internalType": "bytes32",
          "name": "",
          "type": "bytes32"
        }
      ],
      "stateMutability": "view",
      "type": "function"
    },
    {
      "inputs": [],
      "name": "POLYGON_ZKEVM_CHAIN",
      "outputs": [
        {
          "internalType": "bytes32",
          "name": "",
          "type": "bytes32"
        }
      ],
      "stateMutability": "view",
      "type": "function"
    },
    {
      "inputs": [
        {
          "internalType": "address",
          "name": "account",
          "type": "address"
        },
        {
          "internalType": "uint256",
          "name": "id",
          "type": "uint256"
        }
      ],
      "name": "balanceOf",
      "outputs": [
        {
          "internalType": "uint256",
          "name": "",
          "type": "uint256"
        }
      ],
      "stateMutability": "view",
      "type": "function"
    },
    {
      "inputs": [
        {
          "internalType": "address[]",
          "name": "accounts",
          "type": "address[]"
        },
        {
          "internalType": "uint256[]",
          "name": "ids",
          "type": "uint256[]"
        }
      ],
      "name": "balanceOfBatch",
      "outputs": [
        {
          "internalType": "uint256[]",
          "name": "",
          "type": "uint256[]"
        }
      ],
      "stateMutability": "view",
      "type": "function"
    },
    {
      "inputs": [
        {
          "internalType": "uint256",
          "name": "_tokenId",
          "type": "uint256"
        },
        {
          "internalType": "uint256",
          "name": "_amount",
          "type": "uint256"
        },
        {
          "internalType": "address",
          "name": "_owner",
          "type": "address"
        },
        {
          "internalType": "bytes32",
          "name": "_sourceChain",
          "type": "bytes32"
        }
      ],
      "name": "bridgeIn",
      "outputs": [],
      "stateMutability": "nonpayable",
      "type": "function"
    },
    {
      "inputs": [
        {
          "internalType": "uint256",
          "name": "_tokenId",
          "type": "uint256"
        },
        {
          "internalType": "uint256",
          "name": "_amount",
          "type": "uint256"
        },
        {
          "internalType": "bytes32",
          "name": "_destinationChain",
          "type": "bytes32"
        },
        {
          "internalType": "address",
          "name": "_owner",
          "type": "address"
        },
        {
          "internalType": "bytes32",
          "name": "_lockId",
          "type": "bytes32"
        }
      ],
      "name": "bridgeOut",
      "outputs": [],
      "stateMutability": "nonpayable",
      "type": "function"
    },
    {
      "inputs": [
        {
          "internalType": "uint256",
          "name": "_tokenId",
          "type": "uint256"
        },
        {
          "internalType": "uint256",
          "name": "_amount",
          "type": "uint256"
        }
      ],
      "name": "buyFractions",
      "outputs": [],
      "stateMutability": "nonpayable",
      "type": "function"
    },
    {
      "inputs": [
        {
          "internalType": "uint256",
          "name": "_tokenId",
          "type": "uint256"
        }
      ],
      "name": "closeInvoice",
      "outputs": [],
      "stateMutability": "nonpayable",
      "type": "function"
    },
    {
      "inputs": [
        {
          "internalType": "uint256",
          "name": "",
          "type": "uint256"
        }
      ],
      "name": "crossChainMetadata",
      "outputs": [
        {
          "internalType": "bool",
          "name": "isBridged",
          "type": "bool"
        },
        {
          "internalType": "bytes32",
          "name": "destinationChain",
          "type": "bytes32"
        },
        {
          "internalType": "uint256",
          "name": "bridgedAmount",
          "type": "uint256"
        },
        {
          "internalType": "uint256",
          "name": "bridgedAt",
          "type": "uint256"
        },
        {
          "internalType": "bytes32",
          "name": "bridgeLockId",
          "type": "bytes32"
        },
        {
          "internalType": "bool",
          "name": "isReturned",
          "type": "bool"
        }
      ],
      "stateMutability": "view",
      "type": "function"
    },
    {
      "inputs": [
        {
          "internalType": "uint256",
          "name": "_tokenId",
          "type": "uint256"
        },
        {
          "internalType": "uint256",
          "name": "_amount",
          "type": "uint256"
        }
      ],
      "name": "depositRepayment",
      "outputs": [],
      "stateMutability": "nonpayable",
      "type": "function"
    },
    {
      "inputs": [
        {
          "internalType": "uint256",
          "name": "_tokenId",
          "type": "uint256"
        },
        {
          "internalType": "address",
          "name": "_seller",
          "type": "address"
        },
        {
          "internalType": "address",
          "name": "_buyer",
          "type": "address"
        },
        {
          "internalType": "uint256",
          "name": "_amount",
          "type": "uint256"
        },
        {
          "internalType": "uint256",
          "name": "_price",
          "type": "uint256"
        },
        {
          "internalType": "bytes32",
          "name": "_destinationChain",
          "type": "bytes32"
        }
      ],
      "name": "executeCrossChainTrade",
      "outputs": [],
      "stateMutability": "nonpayable",
      "type": "function"
    },
    {
      "inputs": [
        {
          "internalType": "uint256",
          "name": "_tokenId",
          "type": "uint256"
        },
        {
          "internalType": "address",
          "name": "_owner",
          "type": "address"
        }
      ],
      "name": "getAvailableBalance",
      "outputs": [
        {
          "internalType": "uint256",
          "name": "",
          "type": "uint256"
        }
      ],
      "stateMutability": "view",
      "type": "function"
    },
    {
      "inputs": [
        {
          "internalType": "uint256",
          "name": "tokenId",
          "type": "uint256"
        }
      ],
      "name": "getCrossChainMeta",
      "outputs": [
        {
          "components": [
            {
              "internalType": "bool",
              "name": "isBridged",
              "type": "bool"
            },
            {
              "internalType": "bytes32",
              "name": "destinationChain",
              "type": "bytes32"
            },
            {
              "internalType": "uint256",
              "name": "bridgedAmount",
              "type": "uint256"
            },
            {
              "internalType": "uint256",
              "name": "bridgedAt",
              "type": "uint256"
            },
            {
              "internalType": "bytes32",
              "name": "bridgeLockId",
              "type": "bytes32"
            },
            {
              "internalType": "bool",
              "name": "isReturned",
              "type": "bool"
            }
          ],
          "internalType": "struct FractionToken.CrossChainMeta",
          "name": "",
          "type": "tuple"
        }
      ],
      "stateMutability": "view",
      "type": "function"
    },
    {
      "inputs": [
        {
          "internalType": "uint256",
          "name": "_tokenId",
          "type": "uint256"
        }
      ],
      "name": "getTotalBridged",
      "outputs": [
        {
          "internalType": "uint256",
          "name": "",
          "type": "uint256"
        }
      ],
      "stateMutability": "view",
      "type": "function"
    },
    {
      "inputs": [
        {
          "internalType": "uint256",
          "name": "",
          "type": "uint256"
        }
      ],
      "name": "invoiceMetadata",
      "outputs": [
        {
          "internalType": "address",
          "name": "seller",
          "type": "address"
        },
        {
          "internalType": "uint256",
          "name": "totalFractions",
          "type": "uint256"
        },
        {
          "internalType": "uint256",
          "name": "pricePerFraction",
          "type": "uint256"
        },
        {
          "internalType": "uint256",
          "name": "maturityDate",
          "type": "uint256"
        },
        {
          "internalType": "uint256",
          "name": "totalValue",
          "type": "uint256"
        },
        {
          "internalType": "uint256",
          "name": "financedAmount",
          "type": "uint256"
        },
        {
          "internalType": "bool",
          "name": "repaymentFunded",
          "type": "bool"
        },
        {
          "internalType": "uint256",
          "name": "yieldBps",
          "type": "uint256"
        }
      ],
      "stateMutability": "view",
      "type": "function"
    },
    {
      "inputs": [
        {
          "internalType": "bytes32",
          "name": "",
          "type": "bytes32"
        }
      ],
      "name": "invoiceToTokenId",
      "outputs": [
        {
          "internalType": "uint256",
          "name": "",
          "type": "uint256"
        }
      ],
      "stateMutability": "view",
      "type": "function"
    },
    {
      "inputs": [
        {
          "internalType": "uint256",
          "name": "",
          "type": "uint256"
        }
      ],
      "name": "isActive",
      "outputs": [
        {
          "internalType": "bool",
          "name": "",
          "type": "bool"
        }
      ],
      "stateMutability": "view",
      "type": "function"
    },
    {
      "inputs": [
        {
          "internalType": "address",
          "name": "account",
          "type": "address"
        },
        {
          "internalType": "address",
          "name": "operator",
          "type": "address"
        }
      ],
      "name": "isApprovedForAll",
      "outputs": [
        {
          "internalType": "bool",
          "name": "",
          "type": "bool"
        }
      ],
      "stateMutability": "view",
      "type": "function"
    },
    {
      "inputs": [
        {
          "internalType": "bytes32",
          "name": "_chain",
          "type": "bytes32"
        }
      ],
      "name": "isSupportedChain",
      "outputs": [
        {
          "internalType": "bool",
          "name": "",
          "type": "bool"
        }
      ],
      "stateMutability": "pure",
      "type": "function"
    },
    {
      "inputs": [
        {
          "internalType": "address",
          "name": "",
          "type": "address"
        },
        {
          "internalType": "address",
          "name": "",
          "type": "address"
        },
        {
          "internalType": "uint256[]",
          "name": "",
          "type": "uint256[]"
        },
        {
          "internalType": "uint256[]",
          "name": "",
          "type": "uint256[]"
        },
        {
          "internalType": "bytes",
          "name": "",
          "type": "bytes"
        }
      ],
      "name": "onERC1155BatchReceived",
      "outputs": [
        {
          "internalType": "bytes4",
          "name": "",
          "type": "bytes4"
        }
      ],
      "stateMutability": "nonpayable",
      "type": "function"
    },
    {
      "inputs": [
        {
          "internalType": "address",
          "name": "",
          "type": "address"
        },
        {
          "internalType": "address",
          "name": "",
          "type": "address"
        },
        {
          "internalType": "uint256",
          "name": "",
          "type": "uint256"
        },
        {
          "internalType": "uint256",
          "name": "",
          "type": "uint256"
        },
        {
          "internalType": "bytes",
          "name": "",
          "type": "bytes"
        }
      ],
      "name": "onERC1155Received",
      "outputs": [
        {
          "internalType": "bytes4",
          "name": "",
          "type": "bytes4"
        }
      ],
      "stateMutability": "nonpayable",
      "type": "function"
    },
    {
      "inputs": [],
      "name": "owner",
      "outputs": [
        {
          "internalType": "address",
          "name": "",
          "type": "address"
        }
      ],
      "stateMutability": "view",
      "type": "function"
    },
    {
      "inputs": [],
      "name": "paymentToken",
      "outputs": [
        {
          "internalType": "contract IERC20",
          "name": "",
          "type": "address"
        }
      ],
      "stateMutability": "view",
      "type": "function"
    },
    {
      "inputs": [
        {
          "internalType": "uint256",
          "name": "_tokenId",
          "type": "uint256"
        }
      ],
      "name": "redeemFractions",
      "outputs": [],
      "stateMutability": "nonpayable",
      "type": "function"
    },
    {
      "inputs": [],
      "name": "renounceOwnership",
      "outputs": [],
      "stateMutability": "nonpayable",
      "type": "function"
    },
    {
      "inputs": [
        {
          "internalType": "address",
          "name": "from",
          "type": "address"
        },
        {
          "internalType": "address",
          "name": "to",
          "type": "address"
        },
        {
          "internalType": "uint256[]",
          "name": "ids",
          "type": "uint256[]"
        },
        {
          "internalType": "uint256[]",
          "name": "values",
          "type": "uint256[]"
        },
        {
          "internalType": "bytes",
          "name": "data",
          "type": "bytes"
        }
      ],
      "name": "safeBatchTransferFrom",
      "outputs": [],
      "stateMutability": "nonpayable",
      "type": "function"
    },
    {
      "inputs": [
        {
          "internalType": "address",
          "name": "from",
          "type": "address"
        },
        {
          "internalType": "address",
          "name": "to",
          "type": "address"
        },
        {
          "internalType": "uint256",
          "name": "id",
          "type": "uint256"
        },
        {
          "internalType": "uint256",
          "name": "value",
          "type": "uint256"
        },
        {
          "internalType": "bytes",
          "name": "data",
          "type": "bytes"
        }
      ],
      "name": "safeTransferFrom",
      "outputs": [],
      "stateMutability": "nonpayable",
      "type": "function"
    },
    {
      "inputs": [
        {
          "internalType": "address",
          "name": "operator",
          "type": "address"
        },
        {
          "internalType": "bool",
          "name": "approved",
          "type": "bool"
        }
      ],
      "name": "setApprovalForAll",
      "outputs": [],
      "stateMutability": "nonpayable",
      "type": "function"
    },
    {
      "inputs": [
        {
          "internalType": "bytes4",
          "name": "interfaceId",
          "type": "bytes4"
        }
      ],
      "name": "supportsInterface",
      "outputs": [
        {
          "internalType": "bool",
          "name": "",
          "type": "bool"
        }
      ],
      "stateMutability": "view",
      "type": "function"
    },
    {
      "inputs": [
        {
          "internalType": "uint256",
          "name": "tokenId",
          "type": "uint256"
        }
      ],
      "name": "tokenDetails",
      "outputs": [
        {
          "components": [
            {
              "internalType": "bytes32",
              "name": "invoiceId",
              "type": "bytes32"
            },
            {
              "internalType": "uint256",
              "name": "totalSupply",
              "type": "uint256"
            },
            {
              "internalType": "uint256",
              "name": "remainingSupply",
              "type": "uint256"
            },
            {
              "internalType": "uint256",
              "name": "faceValue",
              "type": "uint256"
            },
            {
              "internalType": "uint256",
              "name": "maturityDate",
              "type": "uint256"
            },
            {
              "internalType": "address",
              "name": "issuer",
              "type": "address"
            },
            {
              "internalType": "bool",
              "name": "isRedeemed",
              "type": "bool"
            },
            {
              "internalType": "uint256",
              "name": "yieldBps",
              "type": "uint256"
            },
            {
              "internalType": "bytes32",
              "name": "originChain",
              "type": "bytes32"
            },
            {
              "internalType": "bool",
              "name": "isCrossChain",
              "type": "bool"
            }
          ],
          "internalType": "struct FractionToken.TokenDetails",
          "name": "",
          "type": "tuple"
        }
      ],
      "stateMutability": "view",
      "type": "function"
    },
    {
      "inputs": [
        {
          "internalType": "bytes32",
          "name": "_invoiceId",
          "type": "bytes32"
        },
        {
          "internalType": "address",
          "name": "_seller",
          "type": "address"
        },
        {
          "internalType": "uint256",
          "name": "_totalFractions",
          "type": "uint256"
        },
        {
          "internalType": "uint256",
          "name": "_pricePerFraction",
          "type": "uint256"
        },
        {
          "internalType": "uint256",
          "name": "_maturityDate",
          "type": "uint256"
        },
        {
          "internalType": "uint256",
          "name": "_totalValue",
          "type": "uint256"
        },
        {
          "internalType": "uint256",
          "name": "_yieldBps",
          "type": "uint256"
        }
      ],
      "name": "tokenizeInvoice",
      "outputs": [
        {
          "internalType": "uint256",
          "name": "",
          "type": "uint256"
        }
      ],
      "stateMutability": "nonpayable",
      "type": "function"
    },
    {
      "inputs": [
        {
          "internalType": "uint256",
          "name": "",
          "type": "uint256"
        }
      ],
      "name": "totalBridgedAmount",
      "outputs": [
        {
          "internalType": "uint256",
          "name": "",
          "type": "uint256"
        }
      ],
      "stateMutability": "view",
      "type": "function"
    },
    {
      "inputs": [
        {
          "internalType": "address",
          "name": "newOwner",
          "type": "address"
        }
      ],
      "name": "transferOwnership",
      "outputs": [],
      "stateMutability": "nonpayable",
      "type": "function"
    },
    {
      "inputs": [
        {
          "internalType": "uint256",
          "name": "",
          "type": "uint256"
        }
      ],
      "name": "uri",
      "outputs": [
        {
          "internalType": "string",
          "name": "",
          "type": "string"
        }
      ],
      "stateMutability": "view",
      "type": "function"
    },
    {
      "inputs": [
        {
          "internalType": "uint256",
          "name": "",
          "type": "uint256"
        },
        {
          "internalType": "address",
          "name": "",
          "type": "address"
        }
      ],
      "name": "userBridgedAmount",
      "outputs": [
        {
          "internalType": "uint256",
          "name": "",
          "type": "uint256"
        }
      ],
      "stateMutability": "view",
      "type": "function"
    }
  ],
  "bytecode": "0x6080604052346102a157604051601f61310238819003918201601f19168301916001600160401b0383118484101761028d578084926020946040528339810103126102a157516001600160a01b038116908190036102a157604051606081016001600160401b0381118282101761028d57604052602b81527f68747470733a2f2f6170692e66696e6f766174657061792e636f6d2f746f6b6560208201526a3717bdb4b23e973539b7b760a91b6040820152600254600190600181811c91168015610283575b602082101461026f57601f811161020a575b505060209060025f52815f20915f5b602081106101f2575001516001600160a81b0319169055605760025533156101df5760038054336001600160a01b03198216811790925560405191906001600160a01b03167f8be0079c531659141344cd1fd0a4f28419497f9722a3daafe3b4186f6b6457e05f80a360017f9b779b17422d0df92223018b32b4d1fa46e071723d6817e2486d003becc55f0055811561019d5750600480546001600160a01b031916919091179055604051612e5c90816102a68239f35b62461bcd60e51b815260206004820152601560248201527f496e76616c6964207061796d656e7420746f6b656e00000000000000000000006044820152606490fd5b631e4fbdf760e01b5f525f60045260245ffd5b909260206001819286860151815501940191016100e6565b60025f52601f0160051c7f405787fa12a823e0f2b7631cc41b3ba8828b3321ca811111fa75cd3aa3bb5ace017f405787fa12a823e0f2b7631cc41b3ba8828b3321ca811111fa75cd3aa3bb5ad05b81811061026557506100d7565b5f81558201610258565b634e487b7160e01b5f52602260045260245ffd5b90607f16906100c5565b634e487b7160e01b5f52604160045260245ffd5b5f80fdfe60806040526004361015610011575f80fd5b5f3560e01c8062fdd58e1461025e57806301ffc9a71461025957806304959a19146102545780630e89341c1461024f5780630f6cdb511461024a57806312589e19146102455780631921fa88146102405780632eb2c2d61461023b5780633013ce29146102365780633edced5d14610231578063408883001461022c5780634e1273f414610227578063556d08091461022257806367b5c7121461021d578063715018a6146102185780637471ec571461021357806382afd23b1461020e5780638da5cb5b1461020957806397717b89146102045780639c0eb452146101ff578063a22cb465146101fa578063a9350eb8146101f5578063aa638c78146101f0578063acd63a4e146101eb578063bc197c81146101e6578063c1687f30146101dc578063d355a140146101e1578063dff2e623146101dc578063e985e9c5146101d7578063ea370276146101d2578063eb772067146101cd578063ee89418b146101c8578063f23a6e61146101c3578063f242432a146101be578063f2fde38b146101b9578063f9840c62146101b45763fc314e31146101af575f80fd5b611c29565b611b7f565b611af9565b611ad5565b611ab1565b6118e1565b611853565b611732565b6116d6565b611618565b611642565b6115f4565b611421565b6113cb565b6112e4565b611217565b6110b7565b611090565b611068565b611039565b611012565b610fb7565b610f90565b610f23565b610e62565b610c93565b610b97565b610b6f565b6109ca565b610766565b61073c565b610508565b610414565b61039b565b61032d565b6102d3565b600435906001600160a01b038216820361027957565b5f80fd5b602435906001600160a01b038216820361027957565b606435906001600160a01b038216820361027957565b604435906001600160a01b038216820361027957565b35906001600160a01b038216820361027957565b346102795760403660031901126102795760206103126102f1610263565b6024355f525f835260405f209060018060a01b03165f5260205260405f2090565b54604051908152f35b6001600160e01b031981160361027957565b3461027957602036600319011261027957602060043561034c8161031b565b63ffffffff60e01b16636cdb3d1360e11b811490811561038a575b8115610379575b506040519015158152f35b6301ffc9a760e01b1490505f61036e565b6303a24d0760e21b81149150610367565b346102795760403660031901126102795760206103126004356103bc61027d565b905f52600a835260405f209060018060a01b03165f5260205260405f2090565b805180835260209291819084018484015e5f828201840152601f01601f1916010190565b9060206104119281815201906103dc565b90565b34610279576020366003190112610279576040515f6002548060011c90600181169081156104fe575b6020831082146104ea5782855260208501919081156104d1575060011461047f575b61047b8461046f81860382610816565b60405191829182610400565b0390f35b60025f9081529250907f405787fa12a823e0f2b7631cc41b3ba8828b3321ca811111fa75cd3aa3bb5ace5b8184106104bd5750500161046f8261045f565b8054848401526020909301926001016104aa565b60ff191682525090151560051b01905061046f8261045f565b634e487b7160e01b5f52602260045260245ffd5b91607f169161043d565b346102795760a0366003190112610279576024356004357fb01df0341468f941fd8a086bf63b91e4336f6712dbd57c42cb43447f80cea5f360443561054b610293565b6106f560843561055961256c565b610561612593565b610585610580610579885f52600660205260405f2090565b5460ff1690565b611d5f565b610590871515611da0565b6105a95f516020612dc75f395f51905f52851415611dec565b5f516020612d875f395f51905f5284148015610726575b8015610710575b6105d090611e38565b6105e2865f52600560205260405f2090565b508060046105f8885f52600860205260405f2090565b61064f8a6106488b6106418a61061c6106318261061c865f525f60205260405f2090565b9060018060a01b03165f5260205260405f2090565b54935f52600a60205260405f2090565b5490611e98565b1015611ea5565b61066361065a611ef1565b8b8b308a6125cb565b805460ff19166001178155866001820155600281016106838b8254611f05565b905542600382015501556106a38361061c885f52600a60205260405f2090565b6106ae888254611f05565b90556106c2865f52600960205260405f2090565b6106cd888254611f05565b905560405193849360018060a01b031697846040919493926060820195825260208201520152565b0390a361070e60015f516020612e075f395f51905f5255565b005b505f516020612da75f395f51905f5284146105c7565b505f516020612de75f395f51905f5284146105c0565b34610279576020366003190112610279576004355f526007602052602060405f2054604051908152f35b34610279576020366003190112610279576004355f52600860205260405f2060ff81541661047b600183015492600281015490600381015460ff6005600484015493015416926040519687968794919260a0949197969360c08701981515875260208701526040860152606085015260808401521515910152565b634e487b7160e01b5f52604160045260245ffd5b60c0810190811067ffffffffffffffff82111761081157604052565b6107e1565b90601f8019910116810190811067ffffffffffffffff82111761081157604052565b6040519061084861010083610816565b565b6040519061084860c083610816565b6040519061084861014083610816565b67ffffffffffffffff81116108115760051b60200190565b9080601f8301121561027957813561089881610869565b926108a66040519485610816565b81845260208085019260051b82010192831161027957602001905b8282106108ce5750505090565b81358152602091820191016108c1565b67ffffffffffffffff811161081157601f01601f191660200190565b81601f8201121561027957803590610911826108de565b9261091f6040519485610816565b8284526020838301011161027957815f926020809301838601378301015290565b60a0600319820112610279576004356001600160a01b0381168103610279579161096a60246102bf565b9160443567ffffffffffffffff8111610279578161098a91600401610881565b9160643567ffffffffffffffff811161027957826109aa91600401610881565b916084359067ffffffffffffffff821161027957610411916004016108fa565b34610279576109d836610940565b9293916109e58333612709565b6001600160a01b038516938415610b5c576001600160a01b038416948515610b4a578251845190818103610b355750505f5b8351811015610acc578060051b6020808287010151918701015190610a478861061c835f525f60205260405f2090565b54828110610a9557610a858b61061c85948c610a7760019998610a8d97039161061c845f525f60205260405f2090565b555f525f60205260405f2090565b918254611f05565b905501610a17565b6040516303dee4c560e01b81526001600160a01b038a16600482015260248101919091526044810183905260648101829052608490fd5b509386919461070e9660018551145f14610b0e5760208581015187820151604080519283529282015233915f516020612d675f395f51905f5291a45b33612ca8565b6040515f516020612d475f395f51905f52339180610b2d8a8a83612abd565b0390a4610b08565b635b05999160e01b5f5260045260245260445ffd5b626a0d4560e21b5f525f60045260245ffd5b632bfa23e760e11b5f525f60045260245ffd5b34610279575f366003190112610279576004546040516001600160a01b039091168152602090f35b3461027957604036600319011261027957600435602435610bb6612593565b815f52600560205260405f20600181015415610c5a576004547f93779ca16187e897d4f01a19100fe66162991c20afb461c7e2628809196deb0d92610c2d929091610c0f9083906001600160a01b03163090339061276f565b6004810154821015610c46575b506040519081529081906020820190565b0390a261070e60015f516020612e075f395f51905f5255565b600601805460ff191660011790555f610c1c565b60405162461bcd60e51b8152602060048201526011602482015270125b9d9bda58d9481b9bdd08199bdd5b99607a1b6044820152606490fd5b34610279576080366003190112610279576024356004357f1d77b8cf5e7697f67fd7495558537f39062ca1071931dd2afe25ea4320ac3846610cd36102a9565b60643590610cdf61256c565b610ce7612593565b610cf2851515611da0565b5f516020612d875f395f51905f5282148015610e08575b8015610df2575b610d1990611f12565b610d2b845f52600860205260405f2090565b610d3e610d39825460ff1690565b611f5e565b610d52610d49611ef1565b878785306125cb565b60028101610d61878254611e98565b8155610d798361061c885f52600a60205260405f2090565b610d84888254611e98565b9055610d98865f52600960205260405f2090565b610da3888254611e98565b90555415610dd0575b506040805195865260208601929092526001600160a01b03169390819081016106f5565b805460ff19168155610dec90600501805460ff19166001179055565b5f610dac565b505f516020612da75f395f51905f528214610d10565b505f516020612de75f395f51905f528214610d09565b90602080835192838152019201905f5b818110610e3b5750505090565b8251845260209384019390920191600101610e2e565b906020610411928181520190610e1e565b346102795760403660031901126102795760043567ffffffffffffffff8111610279573660238201121561027957806004013590610e9f82610869565b91610ead6040519384610816565b8083526024602084019160051b8301019136831161027957602401905b828210610f0b578360243567ffffffffffffffff81116102795761047b91610ef9610eff923690600401610881565b90611fc9565b60405191829182610e51565b60208091610f18846102bf565b815201910190610eca565b346102795760203660031901126102795760206004355f516020612d875f395f51905f528114908115610f79575b8115610f6257506040519015158152f35b5f516020612da75f395f51905f529150145f61036e565b5f516020612de75f395f51905f5281149150610f51565b34610279575f3660031901126102795760206040515f516020612dc75f395f51905f528152f35b34610279575f36600319011261027957610fcf61256c565b600380546001600160a01b031981169091555f906001600160a01b03167f8be0079c531659141344cd1fd0a4f28419497f9722a3daafe3b4186f6b6457e08280a3005b34610279575f3660031901126102795760206040515f516020612de75f395f51905f528152f35b34610279576020366003190112610279576004355f526006602052602060ff60405f2054166040519015158152f35b34610279575f366003190112610279576003546040516001600160a01b039091168152602090f35b34610279575f3660031901126102795760206040515f516020612d875f395f51905f528152f35b34610279576020366003190112610279576004356110d3612593565b6110e5815f52600560205260405f2090565b906110fc6110f7600684015460ff1690565b61207d565b61113a6111143361061c845f525f60205260405f2090565b54926111218415156120c9565b600161113160048301548661210b565b9101549061211e565b6004546001600160a01b03166040516370a0823160e01b815230600482015290602090829060249082905afa918215611212576111a6817faa25b05279c268df11c4b41fd890364cf6feef59858671a91a4f0d4005c5bdf6946106f5945f916111e3575b501015612156565b6111b18585336127fd565b6004546111ca90829033906001600160a01b0316612952565b6040805195865260208601919091523394918291820190565b611205915060203d60201161120b575b6111fd8183610816565b81019061213c565b5f61119e565b503d6111f3565b61214b565b3461027957604036600319011261027957611230610263565b60243580151581036102795733156112d1576001600160a01b0382169182156112bf578161127c61128d92335f52600160205260405f209060018060a01b03165f5260205260405f2090565b9060ff801983541691151516179055565b604051901515815233907f17307eab39ab6107e8899845ad3d59bd9653f200f220920489ca2b5937696c3190602090a3005b62ced3e160e81b5f525f60045260245ffd5b631f18c42760e11b5f525f60045260245ffd5b34610279576020366003190112610279576004355f60a0604051611307816107f5565b82815282602082015282604082015282606082015282608082015201525f52600860205261047b60405f2061138260ff600560405193611346856107f5565b805483161515855260018101546020860152600281015460408601526003810154606086015260048101546080860152015416151560a0830152565b6040519182918291909160a08060c08301948051151584526020810151602085015260408101516040850152606081015160608501526080810151608085015201511515910152565b34610279576020366003190112610279576004356113e761256c565b805f52600660205260405f2060ff1981541690557f7af325d48818750f963839bd931e6a1023dd2ed672f2425c863d490424bb0dcf5f80a2005b346102795760e03660031901126102795761047b600435807ffef1c19357c9d46ca734f0c495edcddf26b3c67b7de745afa4c565d9d08398f361146261027d565b604435906115e160c43560a43560643561151e60843561148061256c565b61148b8a15156121f1565b6114aa60016114a28c5f52600560205260405f2090565b015415612230565b6114b5881515612275565b6114c96001600160a01b03881615156122c1565b6114d1610838565b6001600160a01b03881681529088602083015283604083015260608201528360808201525f60a08201525f60c08201528460e08201526115198a5f52600560205260405f2090565b6122fe565b611540611533895f52600660205260405f2090565b805460ff19166001179055565b87611553815f52600760205260405f2090565b5561159761155f61084a565b5f81525f60208201525f60408201525f60608201525f60808201525f60a08201526115928a5f52600860205260405f2090565b61237f565b6115aa6115a2611ef1565b878a306129a8565b60405195869589879260a094919796959260c08501988552600180871b031660208501526040840152606083015260808201520152565b0390a26040519081529081906020820190565b346102795761160236610940565b5050505050602060405163bc197c8160e01b8152f35b34610279576020366003190112610279576004355f526009602052602060405f2054604051908152f35b3461027957602036600319011261027957600480355f9081526005602081815260409283902080546001820154600283015460038401549784015495840154600685015460079095015488516001600160a01b03909516855295840192909252958201959095526060810195909552608085019290925260a084019290925260ff16151560c083015260e082015261010090f35b3461027957604036600319011261027957602060ff6117266116f6610263565b6116fe61027d565b6001600160a01b039182165f9081526001865260408082209290931681526020919091522090565b54166040519015158152f35b3461027957604036600319011261027957602435600435611751612593565b611769610580610579835f52600660205260405f2090565b61178a826117823061061c855f525f60205260405f2090565b5410156123df565b6117aa60036117a1835f52600560205260405f2090565b01544210612421565b7f4baafac02d651b8886d3212cc69aff0fb3c687080a4fe86b0674563ac1493e826106f56117e0835f52600560205260405f2090565b60056117f060028301548761210b565b6004549092906118189084906001600160a01b031683546001600160a01b031690339061276f565b61182c611823611ef1565b888833306125cb565b01611838828254611f05565b90556040805195865260208601919091523394918291820190565b34610279576040366003190112610279576004356118aa61187261027d565b5f838152602081815260408083206001600160a01b039490941680845293825280832054958352600a82528083209383529290522090565b54808211156118d65781039081116118d15761047b905b6040519081529081906020820190565b611e84565b505061047b5f6118c1565b346102795760c0366003190112610279576004356118fd61027d565b906119066102a9565b90606435916084359060a4359061191b61256c565b611923612593565b835f52600660205261193b60ff60405f205416611d5f565b84151580611a4d575b15611a08576119ef6119907f2a3ecbb7f192795fbfdce1eb671f6b5302332929e49161b3d88f1db42a4bcaa79461198a5f516020612dc75f395f51905f5286141561245f565b8761210b565b926119ad8489856119a860045460018060a01b031690565b61276f565b6119c16119b8611ef1565b8888868c6125cb565b604080519788526020880194909452928601929092526001600160a01b039081169516939081906060820190565b0390a461070e60015f516020612e075f395f51905f5255565b60405162461bcd60e51b815260206004820152601760248201527f496e76616c696420616d6f756e74206f722070726963650000000000000000006044820152606490fd5b50821515611944565b60a0600319820112610279576004356001600160a01b038116810361027957916024356001600160a01b0381168103610279579160443591606435916084359067ffffffffffffffff821161027957610411916004016108fa565b3461027957611abf36611a56565b5050505050602060405163f23a6e6160e01b8152f35b346102795761070e611ae636611a56565b93611af48194929433612709565b6125cb565b3461027957602036600319011261027957611b12610263565b611b1a61256c565b6001600160a01b03168015611b6c57600380546001600160a01b0319811683179091556001600160a01b03167f8be0079c531659141344cd1fd0a4f28419497f9722a3daafe3b4186f6b6457e05f80a3005b631e4fbdf760e01b5f525f60045260245ffd5b34610279575f3660031901126102795760206040515f516020612da75f395f51905f528152f35b61084890929192610120806101408301958051845260208101516020850152604081015160408501526060810151606085015260808101516080850152611bfc60a082015160a086019060018060a01b03169052565b60c08181015115159085015260e081015160e0850152610100810151610100850152015191019015159052565b346102795760203660031901126102795761047b600435611c486124ab565b50611d43611c66611c61835f52600560205260405f2090565b612507565b611c80611c7b845f52600860205260405f2090565b6121a2565b90602081015190611c9c3061061c875f525f60205260405f2090565b546080820151606083015183519091906001600160a01b03169260e0611cc560c0870151151590565b95015195611cd38851151590565b978815611d4f575b5091611d179391611d20969593611cf0610859565b9b8c5260208c015260408b015260608a015260808901526001600160a01b031660a0880152565b151560c0860152565b60e08401525f516020612dc75f395f51905f526101008401521515610120830152565b60405191829182611ba6565b6040015115159750611d17611cdb565b15611d6657565b60405162461bcd60e51b8152602060048201526012602482015271496e766f696365206e6f742061637469766560701b6044820152606490fd5b15611da757565b60405162461bcd60e51b815260206004820152601760248201527f416d6f756e74206d75737420626520706f7369746976650000000000000000006044820152606490fd5b15611df357565b60405162461bcd60e51b815260206004820152601b60248201527f43616e6e6f742062726964676520746f2073616d6520636861696e00000000006044820152606490fd5b15611e3f57565b60405162461bcd60e51b815260206004820152601d60248201527f556e737570706f727465642064657374696e6174696f6e20636861696e0000006044820152606490fd5b634e487b7160e01b5f52601160045260245ffd5b919082039182116118d157565b15611eac57565b60405162461bcd60e51b815260206004820152601f60248201527f496e73756666696369656e7420756e6c6f636b6564206672616374696f6e73006044820152606490fd5b60405190611f00602083610816565b5f8252565b919082018092116118d157565b15611f1957565b60405162461bcd60e51b815260206004820152601860248201527f556e737570706f7274656420736f7572636520636861696e00000000000000006044820152606490fd5b15611f6557565b60405162461bcd60e51b81526020600482015260146024820152734e6f2062726964676564206672616374696f6e7360601b6044820152606490fd5b8051821015611fb55760209160051b010190565b634e487b7160e01b5f52603260045260245ffd5b91909180518351808203612068575050805190611fe582610869565b91611ff36040519384610816565b808352612002601f1991610869565b013660208401375f5b8151811015612061578061205060019260051b60208082870101519189010151905f918252602082815260408084206001600160a01b03909316845291905290205490565b61205a8286611fa1565b520161200b565b5090925050565b635b05999160e01b5f5260045260245260445ffd5b1561208457565b60405162461bcd60e51b815260206004820152601a60248201527f52657061796d656e74206e6f74207965742072656365697665640000000000006044820152606490fd5b156120d057565b60405162461bcd60e51b81526020600482015260136024820152724e6f20746f6b656e7320746f2072656465656d60681b6044820152606490fd5b818102929181159184041417156118d157565b8115612128570490565b634e487b7160e01b5f52601260045260245ffd5b90816020910312610279575190565b6040513d5f823e3d90fd5b1561215d57565b60405162461bcd60e51b815260206004820152601b60248201527f436f6e747261637420696e73756666696369656e742066756e647300000000006044820152606490fd5b906040516121af816107f5565b60a060ff600583958281541615158552600181015460208601526002810154604086015260038101546060860152600481015460808601520154161515910152565b156121f857565b60405162461bcd60e51b815260206004820152601060248201526f125b9d985b1a5908151bdad95b88125160821b6044820152606490fd5b1561223757565b60405162461bcd60e51b8152602060048201526016602482015275496e766f69636520616c72656164792065786973747360501b6044820152606490fd5b1561227c57565b60405162461bcd60e51b815260206004820152601760248201527f496e76616c696420746f74616c206672616374696f6e730000000000000000006044820152606490fd5b156122c857565b60405162461bcd60e51b815260206004820152600e60248201526d24b73b30b634b21039b2b63632b960911b6044820152606490fd5b815181546001600160a01b0319166001600160a01b039091161781559060079060e0906020810151600185015560408101516002850155606081015160038501556080810151600485015560a0810151600585015561237861236360c0830151151590565b600686019060ff801983541691151516179055565b0151910155565b600560a0610848936123a081511515859060ff801983541691151516179055565b602081015160018501556040810151600285015560608101516003850155608081015160048501550151151591019060ff801983541691151516179055565b156123e657565b60405162461bcd60e51b8152602060048201526013602482015272496e73756666696369656e7420737570706c7960681b6044820152606490fd5b1561242857565b60405162461bcd60e51b815260206004820152600f60248201526e125b9d9bda58d948195e1c1a5c9959608a1b6044820152606490fd5b1561246657565b60405162461bcd60e51b815260206004820152601a60248201527f43616e6e6f74207472616465206f6e2073616d6520636861696e0000000000006044820152606490fd5b60405190610140820182811067ffffffffffffffff821117610811576040525f610120838281528260208201528260408201528260608201528260808201528260a08201528260c08201528260e0820152826101008201520152565b906007612512610838565b83546001600160a01b031681529260018101546020850152600281015460408501526003810154606085015260048101546080850152600581015460a0850152612563611d17600683015460ff1690565b015460e0830152565b6003546001600160a01b0316330361258057565b63118cdaa760e01b5f523360045260245ffd5b60025f516020612e075f395f51905f5254146125bc5760025f516020612e075f395f51905f5255565b633ee5aeb560e01b5f5260045ffd5b909390916001600160a01b038516908115610b5c576001600160a01b038416948515610b4a5761261860405192600184526020840152604083019160018352606084015260808301604052565b9290918251845190818103610b355750505f5b8351811015612693578060051b602080828701015191870101519061265b8861061c835f525f60205260405f2090565b54828110610a9557610a858b61061c85948c610a776001999861268b97039161061c845f525f60205260405f2090565b90550161262b565b5061084896926020929691839260018351145f146126e257838301518785015160408051928352602083019190915233915f516020612d675f395f51905f529190a45b01519201519233612b5f565b6040515f516020612d475f395f51905f523391806127018b8883612abd565b0390a46126d6565b6001600160a01b0391821691811690828214159081612741575b5061272c575050565b63711bec9160e11b5f5260045260245260445ffd5b5f8481526001602090815260408083206001600160a01b0390941683529290522060ff91505416155f612723565b6040516323b872dd60e01b5f9081526001600160a01b039384166004529290931660245260449390935260209060648180865af160015f51148116156127de575b6040919091525f606052155b6127c35750565b635274afe760e01b5f526001600160a01b031660045260245ffd5b60018115166127f4573d15833b151516166127b0565b503d5f823e3d90fd5b926001600160a01b038416929091908315610b4a5761283960405192600184526020840152604083019160018352606084015260808301604052565b91906020915f60405161284c8582610816565b528151845190818103610b355750505f5b82518110156128ed578060051b84808286010151918701015161288b8961061c845f525f60205260405f2090565b548181106128b6578961061c60019594936128af9303935f525f60205260405f2090565b550161285d565b6040516303dee4c560e01b81526001600160a01b038b16600482015260248101919091526044810182905260648101839052608490fd5b50945090915f939260018351148514612931579182015191015160408051928352602083019190915233915f516020612d675f395f51905f5291819081015b0390a4565b5061292c5f516020612d475f395f51905f5291604051918291339583612abd565b916040519163a9059cbb60e01b5f5260018060a01b031660045260245260205f60448180865af160015f5114811615612992575b604091909152156127bc565b60018115166127f4573d15833b15151616612986565b92936001600160a01b0384169390929091908415610b5c576129e760405192600184526020840152604083019160018352606084015260808301604052565b9290948551845190818103610b355750505f5b8651811015612a38578087612a30610a858761061c60208060019860051b8097010151958c010151945f525f60205260405f2090565b9055016129fa565b50929094602080916108489660018251145f14612a95575f838301515f516020612d675f395f51905f52612a848689015160405191829133958360209093929193604081019481520152565b0390a45b0151910151915f33612b5f565b5f6040515f516020612d475f395f51905f52339180612ab58a8883612abd565b0390a4612a88565b9091612ad461041193604084526040840190610e1e565b916020818403910152610e1e565b9081602091031261027957516104118161031b565b6001600160a01b039182168152911660208201526040810191909152606081019190915260a060808201819052610411929101906103dc565b3d15612b5a573d90612b41826108de565b91612b4f6040519384610816565b82523d5f602084013e565b606090565b9091949293853b612b73575b505050505050565b602093612b9591604051968795869563f23a6e6160e01b875260048701612af7565b03815f6001600160a01b0387165af15f9181612c24575b50612be65750612bba612b30565b8051919082612bdf57632bfa23e760e11b5f526001600160a01b03821660045260245ffd5b6020915001fd5b6001600160e01b031916630dc5919f60e01b01612c0957505f8080808080612b6b565b632bfa23e760e11b5f526001600160a01b031660045260245ffd5b612c4791925060203d602011612c4e575b612c3f8183610816565b810190612ae2565b905f612bac565b503d612c35565b6001600160a01b0391821681529116602082015260a0604082018190526104119491939192612c9a9291612c8c9190860190610e1e565b908482036060860152610e1e565b9160808184039101526103dc565b9091949293853b612cbb57505050505050565b602093612cdd91604051968795869563bc197c8160e01b875260048701612c55565b03815f6001600160a01b0387165af15f9181612d25575b50612d025750612bba612b30565b6001600160e01b0319166343e6837f60e01b01612c0957505f8080808080612b6b565b612d3f91925060203d602011612c4e57612c3f8183610816565b905f612cf456fe4a39dc06d4c0dbc64b70af90fd698a233a518aa5d07e595d983b8c0526c8f7fbc3d58168c5ae7397731d063d5bbf3d657854427343f4c083240f7aacaa2d0f6298d35890f262f42e468663746e93596a5077f0e2571f072ea1905db676f8daafc87f1b21696ef0d4e19cdc6ef3b3b53a507c0fc73edc6878675e8b4d703bffb7e8fe57585ca8b7ec07325cb5cdc4701633418dd473836621b010ece196797f200db4352a89aa75f9d11ac30e122fe9730a761c955523552119c16838f3c0fda59b779b17422d0df92223018b32b4d1fa46e071723d6817e2486d003becc55f00a2646970667358221220ea0fab320d667c86b43985a2208a331fba7dfc701e228dbc82690246fa80b35364736f6c634300081c0033",
  "linkReferences": {},
  "deployedLinkReferences": {}
}