{
  "_format": "hh-sol-artifact-1",
  "contractName": "FractionToken",
  "sourceName": "contracts/FractionToken.sol",
  "abi": [
    {
      "inputs": [],
      "stateMutability": "nonpayable",
      "type": "constructor"
    },
    {
      "inputs": [
        {
          "internalType": "address",
          "name": "sender",
          "type": "address"
        },
        {
          "internalType": "uint256",
          "name": "balance",
          "type": "uint256"
        },
        {
          "internalType": "uint256",
          "name": "needed",
          "type": "uint256"
        },
        {
          "internalType": "uint256",
          "name": "tokenId",
          "type": "uint256"
        }
      ],
      "name": "ERC1155InsufficientBalance",
      "type": "error"
    },
    {
      "inputs": [
        {
          "internalType": "address",
          "name": "approver",
          "type": "address"
        }
      ],
      "name": "ERC1155InvalidApprover",
      "type": "error"
    },
    {
      "inputs": [
        {
          "internalType": "uint256",
          "name": "idsLength",
          "type": "uint256"
        },
        {
          "internalType": "uint256",
          "name": "valuesLength",
          "type": "uint256"
        }
      ],
      "name": "ERC1155InvalidArrayLength",
      "type": "error"
    },
    {
      "inputs": [
        {
          "internalType": "address",
          "name": "operator",
          "type": "address"
        }
      ],
      "name": "ERC1155InvalidOperator",
      "type": "error"
    },
    {
      "inputs": [
        {
          "internalType": "address",
          "name": "receiver",
          "type": "address"
        }
      ],
      "name": "ERC1155InvalidReceiver",
      "type": "error"
    },
    {
      "inputs": [
        {
          "internalType": "address",
          "name": "sender",
          "type": "address"
        }
      ],
      "name": "ERC1155InvalidSender",
      "type": "error"
    },
    {
      "inputs": [
        {
          "internalType": "address",
          "name": "operator",
          "type": "address"
        },
        {
          "internalType": "address",
          "name": "owner",
          "type": "address"
        }
      ],
      "name": "ERC1155MissingApprovalForAll",
      "type": "error"
    },
    {
      "inputs": [
        {
          "internalType": "address",
          "name": "owner",
          "type": "address"
        }
      ],
      "name": "OwnableInvalidOwner",
      "type": "error"
    },
    {
      "inputs": [
        {
          "internalType": "address",
          "name": "account",
          "type": "address"
        }
      ],
      "name": "OwnableUnauthorizedAccount",
      "type": "error"
    },
    {
      "anonymous": false,
      "inputs": [
        {
          "indexed": true,
          "internalType": "address",
          "name": "account",
          "type": "address"
        },
        {
          "indexed": true,
          "internalType": "address",
          "name": "operator",
          "type": "address"
        },
        {
          "indexed": false,
          "internalType": "bool",
          "name": "approved",
          "type": "bool"
        }
      ],
      "name": "ApprovalForAll",
      "type": "event"
    },
    {
      "anonymous": false,
      "inputs": [
        {
          "indexed": true,
          "internalType": "address",
          "name": "previousOwner",
          "type": "address"
        },
        {
          "indexed": true,
          "internalType": "address",
          "name": "newOwner",
          "type": "address"
        }
      ],
      "name": "OwnershipTransferred",
      "type": "event"
    },
    {
      "anonymous": false,
      "inputs": [
        {
          "indexed": true,
          "internalType": "uint256",
          "name": "tokenId",
          "type": "uint256"
        },
        {
          "indexed": true,
          "internalType": "address",
          "name": "redeemer",
          "type": "address"
        },
        {
          "indexed": false,
          "internalType": "uint256",
          "name": "amount",
          "type": "uint256"
        }
      ],
      "name": "Redeemed",
      "type": "event"
    },
    {
      "anonymous": false,
      "inputs": [
        {
          "indexed": true,
          "internalType": "bytes32",
          "name": "invoiceId",
          "type": "bytes32"
        },
        {
          "indexed": false,
          "internalType": "uint256",
          "name": "tokenId",
          "type": "uint256"
        },
        {
          "indexed": false,
          "internalType": "uint256",
          "name": "totalSupply",
          "type": "uint256"
        },
        {
          "indexed": false,
          "internalType": "uint256",
          "name": "faceValue",
          "type": "uint256"
        }
      ],
      "name": "Tokenized",
      "type": "event"
    },
    {
      "anonymous": false,
      "inputs": [
        {
          "indexed": true,
          "internalType": "uint256",
          "name": "tokenId",
          "type": "uint256"
        },
        {
          "indexed": true,
          "internalType": "address",
          "name": "buyer",
          "type": "address"
        },
        {
          "indexed": false,
          "internalType": "uint256",
          "name": "amount",
          "type": "uint256"
        },
        {
          "indexed": false,
          "internalType": "uint256",
          "name": "payment",
          "type": "uint256"
        }
      ],
      "name": "TokensPurchased",
      "type": "event"
    },
    {
      "anonymous": false,
      "inputs": [
        {
          "indexed": true,
          "internalType": "address",
          "name": "operator",
          "type": "address"
        },
        {
          "indexed": true,
          "internalType": "address",
          "name": "from",
          "type": "address"
        },
        {
          "indexed": true,
          "internalType": "address",
          "name": "to",
          "type": "address"
        },
        {
          "indexed": false,
          "internalType": "uint256[]",
          "name": "ids",
          "type": "uint256[]"
        },
        {
          "indexed": false,
          "internalType": "uint256[]",
          "name": "values",
          "type": "uint256[]"
        }
      ],
      "name": "TransferBatch",
      "type": "event"
    },
    {
      "anonymous": false,
      "inputs": [
        {
          "indexed": true,
          "internalType": "address",
          "name": "operator",
          "type": "address"
        },
        {
          "indexed": true,
          "internalType": "address",
          "name": "from",
          "type": "address"
        },
        {
          "indexed": true,
          "internalType": "address",
          "name": "to",
          "type": "address"
        },
        {
          "indexed": false,
          "internalType": "uint256",
          "name": "id",
          "type": "uint256"
        },
        {
          "indexed": false,
          "internalType": "uint256",
          "name": "value",
          "type": "uint256"
        }
      ],
      "name": "TransferSingle",
      "type": "event"
    },
    {
      "anonymous": false,
      "inputs": [
        {
          "indexed": false,
          "internalType": "string",
          "name": "value",
          "type": "string"
        },
        {
          "indexed": true,
          "internalType": "uint256",
          "name": "id",
          "type": "uint256"
        }
      ],
      "name": "URI",
      "type": "event"
    },
    {
      "inputs": [
        {
          "internalType": "address",
          "name": "account",
          "type": "address"
        },
        {
          "internalType": "uint256",
          "name": "id",
          "type": "uint256"
        }
      ],
      "name": "balanceOf",
      "outputs": [
        {
          "internalType": "uint256",
          "name": "",
          "type": "uint256"
        }
      ],
      "stateMutability": "view",
      "type": "function"
    },
    {
      "inputs": [
        {
          "internalType": "address[]",
          "name": "accounts",
          "type": "address[]"
        },
        {
          "internalType": "uint256[]",
          "name": "ids",
          "type": "uint256[]"
        }
      ],
      "name": "balanceOfBatch",
      "outputs": [
        {
          "internalType": "uint256[]",
          "name": "",
          "type": "uint256[]"
        }
      ],
      "stateMutability": "view",
      "type": "function"
    },
    {
      "inputs": [
        {
          "internalType": "bytes32",
          "name": "",
          "type": "bytes32"
        }
      ],
      "name": "invoiceToTokenId",
      "outputs": [
        {
          "internalType": "uint256",
          "name": "",
          "type": "uint256"
        }
      ],
      "stateMutability": "view",
      "type": "function"
    },
    {
      "inputs": [
        {
          "internalType": "address",
          "name": "account",
          "type": "address"
        },
        {
          "internalType": "address",
          "name": "operator",
          "type": "address"
        }
      ],
      "name": "isApprovedForAll",
      "outputs": [
        {
          "internalType": "bool",
          "name": "",
          "type": "bool"
        }
      ],
      "stateMutability": "view",
      "type": "function"
    },
    {
      "inputs": [],
      "name": "owner",
      "outputs": [
        {
          "internalType": "address",
          "name": "",
          "type": "address"
        }
      ],
      "stateMutability": "view",
      "type": "function"
    },
    {
      "inputs": [
        {
          "internalType": "uint256",
          "name": "_tokenId",
          "type": "uint256"
        },
        {
          "internalType": "uint256",
          "name": "_amount",
          "type": "uint256"
        },
        {
          "internalType": "address",
          "name": "_paymentTokenAddress",
          "type": "address"
        },
        {
          "internalType": "address",
          "name": "_tokenHolder",
          "type": "address"
        }
      ],
      "name": "purchaseTokens",
      "outputs": [],
      "stateMutability": "nonpayable",
      "type": "function"
    },
    {
      "inputs": [
        {
          "internalType": "uint256",
          "name": "_tokenId",
          "type": "uint256"
        },
        {
          "internalType": "uint256",
          "name": "_amount",
          "type": "uint256"
        }
      ],
      "name": "redeem",
      "outputs": [],
      "stateMutability": "nonpayable",
      "type": "function"
    },
    {
      "inputs": [],
      "name": "renounceOwnership",
      "outputs": [],
      "stateMutability": "nonpayable",
      "type": "function"
    },
    {
      "inputs": [
        {
          "internalType": "address",
          "name": "from",
          "type": "address"
        },
        {
          "internalType": "address",
          "name": "to",
          "type": "address"
        },
        {
          "internalType": "uint256[]",
          "name": "ids",
          "type": "uint256[]"
        },
        {
          "internalType": "uint256[]",
          "name": "values",
          "type": "uint256[]"
        },
        {
          "internalType": "bytes",
          "name": "data",
          "type": "bytes"
        }
      ],
      "name": "safeBatchTransferFrom",
      "outputs": [],
      "stateMutability": "nonpayable",
      "type": "function"
    },
    {
      "inputs": [
        {
          "internalType": "address",
          "name": "from",
          "type": "address"
        },
        {
          "internalType": "address",
          "name": "to",
          "type": "address"
        },
        {
          "internalType": "uint256",
          "name": "id",
          "type": "uint256"
        },
        {
          "internalType": "uint256",
          "name": "value",
          "type": "uint256"
        },
        {
          "internalType": "bytes",
          "name": "data",
          "type": "bytes"
        }
      ],
      "name": "safeTransferFrom",
      "outputs": [],
      "stateMutability": "nonpayable",
      "type": "function"
    },
    {
      "inputs": [
        {
          "internalType": "address",
          "name": "operator",
          "type": "address"
        },
        {
          "internalType": "bool",
          "name": "approved",
          "type": "bool"
        }
      ],
      "name": "setApprovalForAll",
      "outputs": [],
      "stateMutability": "nonpayable",
      "type": "function"
    },
    {
      "inputs": [
        {
          "internalType": "string",
          "name": "_newuri",
          "type": "string"
        }
      ],
      "name": "setURI",
      "outputs": [],
      "stateMutability": "nonpayable",
      "type": "function"
    },
    {
      "inputs": [
        {
          "internalType": "bytes4",
          "name": "interfaceId",
          "type": "bytes4"
        }
      ],
      "name": "supportsInterface",
      "outputs": [
        {
          "internalType": "bool",
          "name": "",
          "type": "bool"
        }
      ],
      "stateMutability": "view",
      "type": "function"
    },
    {
      "inputs": [
        {
          "internalType": "uint256",
          "name": "",
          "type": "uint256"
        }
      ],
      "name": "tokenDetails",
      "outputs": [
        {
          "internalType": "bytes32",
          "name": "invoiceId",
          "type": "bytes32"
        },
        {
          "internalType": "uint256",
          "name": "totalSupply",
          "type": "uint256"
        },
        {
          "internalType": "uint256",
          "name": "remainingSupply",
          "type": "uint256"
        },
        {
          "internalType": "uint256",
          "name": "faceValue",
          "type": "uint256"
        },
        {
          "internalType": "uint256",
          "name": "maturityDate",
          "type": "uint256"
        },
        {
          "internalType": "address",
          "name": "issuer",
          "type": "address"
        },
        {
          "internalType": "bool",
          "name": "isRedeemed",
          "type": "bool"
        }
      ],
      "stateMutability": "view",
      "type": "function"
    },
    {
      "inputs": [
        {
          "internalType": "bytes32",
          "name": "_invoiceId",
          "type": "bytes32"
        },
        {
          "internalType": "uint256",
          "name": "_totalSupply",
          "type": "uint256"
        },
        {
          "internalType": "uint256",
          "name": "_faceValue",
          "type": "uint256"
        },
        {
          "internalType": "uint256",
          "name": "_maturityDate",
          "type": "uint256"
        },
        {
          "internalType": "address",
          "name": "_issuer",
          "type": "address"
        }
      ],
      "name": "tokenizeInvoice",
      "outputs": [
        {
          "internalType": "uint256",
          "name": "",
          "type": "uint256"
        }
      ],
      "stateMutability": "nonpayable",
      "type": "function"
    },
    {
      "inputs": [
        {
          "internalType": "address",
          "name": "newOwner",
          "type": "address"
        }
      ],
      "name": "transferOwnership",
      "outputs": [],
      "stateMutability": "nonpayable",
      "type": "function"
    },
    {
      "inputs": [
        {
          "internalType": "uint256",
          "name": "_tokenId",
          "type": "uint256"
        }
      ],
      "name": "uri",
      "outputs": [
        {
          "internalType": "string",
          "name": "",
          "type": "string"
        }
      ],
      "stateMutability": "view",
      "type": "function"
    }
  ],
  "bytecode": "0x608060405260016006553480156200001657600080fd5b50336040518060600160405280602b815260200162003af1602b91396200004381620000d160201b60201c565b50600073ffffffffffffffffffffffffffffffffffffffff168173ffffffffffffffffffffffffffffffffffffffff1603620000b95760006040517f1e4fbdf7000000000000000000000000000000000000000000000000000000008152600401620000b09190620001f1565b60405180910390fd5b620000ca81620000e660201b60201c565b506200056f565b8060029081620000e2919062000488565b5050565b6000600360009054906101000a900473ffffffffffffffffffffffffffffffffffffffff16905081600360006101000a81548173ffffffffffffffffffffffffffffffffffffffff021916908373ffffffffffffffffffffffffffffffffffffffff1602179055508173ffffffffffffffffffffffffffffffffffffffff168173ffffffffffffffffffffffffffffffffffffffff167f8be0079c531659141344cd1fd0a4f28419497f9722a3daafe3b4186f6b6457e060405160405180910390a35050565b600073ffffffffffffffffffffffffffffffffffffffff82169050919050565b6000620001d982620001ac565b9050919050565b620001eb81620001cc565b82525050565b6000602082019050620002086000830184620001e0565b92915050565b600081519050919050565b7f4e487b7100000000000000000000000000000000000000000000000000000000600052604160045260246000fd5b7f4e487b7100000000000000000000000000000000000000000000000000000000600052602260045260246000fd5b600060028204905060018216806200029057607f821691505b602082108103620002a657620002a562000248565b5b50919050565b60008190508160005260206000209050919050565b60006020601f8301049050919050565b600082821b905092915050565b600060088302620003107fffffffffffffffffffffffffffffffffffffffffffffffffffffffffffffffff82620002d1565b6200031c8683620002d1565b95508019841693508086168417925050509392505050565b6000819050919050565b6000819050919050565b600062000369620003636200035d8462000334565b6200033e565b62000334565b9050919050565b6000819050919050565b620003858362000348565b6200039d620003948262000370565b848454620002de565b825550505050565b600090565b620003b4620003a5565b620003c18184846200037a565b505050565b5b81811015620003e957620003dd600082620003aa565b600181019050620003c7565b5050565b601f82111562000438576200040281620002ac565b6200040d84620002c1565b810160208510156200041d578190505b620004356200042c85620002c1565b830182620003c6565b50505b505050565b600082821c905092915050565b60006200045d600019846008026200043d565b1980831691505092915050565b60006200047883836200044a565b9150826002028217905092915050565b62000493826200020e565b67ffffffffffffffff811115620004af57620004ae62000219565b5b620004bb825462000277565b620004c8828285620003ed565b600060209050601f831160018114620005005760008415620004eb578287015190505b620004f785826200046a565b86555062000567565b601f1984166200051086620002ac565b60005b828110156200053a5784890151825560018201915060208501945060208101905062000513565b868310156200055a578489015162000556601f8916826200044a565b8355505b6001600288020188555050505b505050505050565b613572806200057f6000396000f3fe608060405234801561001057600080fd5b506004361061010a5760003560e01c80634e1273f4116100a2578063a22cb46511610071578063a22cb465146102c7578063e985e9c5146102e3578063f242432a14610313578063f2fde38b1461032f578063fc314e311461034b5761010a565b80634e1273f414610253578063715018a6146102835780637cbc23731461028d5780638da5cb5b146102a95761010a565b806312589e19116100de57806312589e19146101bb5780631cf73aaf146101eb5780632eb2c2d61461020757806343c29406146102235761010a565b8062fdd58e1461010f57806301ffc9a71461013f57806302fe53051461016f5780630e89341c1461018b575b600080fd5b61012960048036038101906101249190611f05565b610381565b6040516101369190611f54565b60405180910390f35b61015960048036038101906101549190611fc7565b6103db565b604051610166919061200f565b60405180910390f35b61018960048036038101906101849190612170565b6104bd565b005b6101a560048036038101906101a091906121b9565b6104d1565b6040516101b29190612265565b60405180910390f35b6101d560048036038101906101d091906122bd565b610533565b6040516101e29190611f54565b60405180910390f35b610205600480360381019061020091906122ea565b61054b565b005b610221600480360381019061021c91906124ba565b61072b565b005b61023d60048036038101906102389190612589565b6107d3565b60405161024a9190611f54565b60405180910390f35b61026d600480360381019061026891906126c7565b6109cc565b60405161027a91906127fd565b60405180910390f35b61028b610adb565b005b6102a760048036038101906102a2919061281f565b610aef565b005b6102b1610cb3565b6040516102be919061286e565b60405180910390f35b6102e160048036038101906102dc91906128b5565b610cdd565b005b6102fd60048036038101906102f891906128f5565b610cf3565b60405161030a919061200f565b60405180910390f35b61032d60048036038101906103289190612935565b610d87565b005b610349600480360381019061034491906129cc565b610e2f565b005b610365600480360381019061036091906121b9565b610eb5565b6040516103789796959493929190612a08565b60405180910390f35b600080600083815260200190815260200160002060008473ffffffffffffffffffffffffffffffffffffffff1673ffffffffffffffffffffffffffffffffffffffff16815260200190815260200160002054905092915050565b60007fd9b67a26000000000000000000000000000000000000000000000000000000007bffffffffffffffffffffffffffffffffffffffffffffffffffffffff1916827bffffffffffffffffffffffffffffffffffffffffffffffffffffffff191614806104a657507f0e89341c000000000000000000000000000000000000000000000000000000007bffffffffffffffffffffffffffffffffffffffffffffffffffffffff1916827bffffffffffffffffffffffffffffffffffffffffffffffffffffffff1916145b806104b657506104b582610f24565b5b9050919050565b6104c5610f8e565b6104ce81611015565b50565b60606000821180156104e4575060065482105b610523576040517f08c379a000000000000000000000000000000000000000000000000000000000815260040161051a90612ac3565b60405180910390fd5b61052c82611028565b9050919050565b60046020528060005260406000206000915090505481565b600060056000868152602001908152602001600020905060008160010154116105a9576040517f08c379a00000000000000000000000000000000000000000000000000000000081526004016105a090612b2f565b60405180910390fd5b600084116105ec576040517f08c379a00000000000000000000000000000000000000000000000000000000081526004016105e390612b9b565b60405180910390fd5b600084905060008490508073ffffffffffffffffffffffffffffffffffffffff166323b872dd3386856040518463ffffffff1660e01b815260040161063393929190612bbb565b6020604051808303816000875af1158015610652573d6000803e3d6000fd5b505050506040513d601f19601f820116820180604052508101906106769190612c07565b6106b5576040517f08c379a00000000000000000000000000000000000000000000000000000000081526004016106ac90612c80565b60405180910390fd5b6106d184338989604051806020016040528060008152506110bc565b3373ffffffffffffffffffffffffffffffffffffffff16877fe8d7e55108ae7ddb60173461d2950c7a8e22a7ac7f442825564fe84c8c6f9a38888560405161071a929190612ca0565b60405180910390a350505050505050565b60006107356111c7565b90508073ffffffffffffffffffffffffffffffffffffffff168673ffffffffffffffffffffffffffffffffffffffff161415801561077a57506107788682610cf3565b155b156107be5780866040517fe237d9220000000000000000000000000000000000000000000000000000000081526004016107b5929190612cc9565b60405180910390fd5b6107cb86868686866111cf565b505050505050565b60006107dd610f8e565b6000600460008881526020019081526020016000205414610833576040517f08c379a000000000000000000000000000000000000000000000000000000000815260040161082a90612d3e565b60405180910390fd5b60006006600081548092919061084890612d8d565b9190505590508060046000898152602001908152602001600020819055506040518060e001604052808881526020018781526020018781526020018681526020018581526020018473ffffffffffffffffffffffffffffffffffffffff1681526020016000151581525060056000838152602001908152602001600020600082015181600001556020820151816001015560408201518160020155606082015181600301556080820151816004015560a08201518160050160006101000a81548173ffffffffffffffffffffffffffffffffffffffff021916908373ffffffffffffffffffffffffffffffffffffffff16021790555060c08201518160050160146101000a81548160ff02191690831515021790555090505061098361096c610cb3565b8288604051806020016040528060008152506112c7565b867f07f5bfe4bde30469800f142c7b6c69079d03ffc0c33a3154f48997574e59fe6e8288886040516109b793929190612dd5565b60405180910390a28091505095945050505050565b60608151835114610a1857815183516040517f5b059991000000000000000000000000000000000000000000000000000000008152600401610a0f929190612ca0565b60405180910390fd5b6000835167ffffffffffffffff811115610a3557610a34612045565b5b604051908082528060200260200182016040528015610a635781602001602082028036833780820191505090505b50905060005b8451811015610ad057610aa0610a88828761136090919063ffffffff16565b610a9b838761137490919063ffffffff16565b610381565b828281518110610ab357610ab2612e0c565b5b60200260200101818152505080610ac990612d8d565b9050610a69565b508091505092915050565b610ae3610f8e565b610aed6000611388565b565b60006005600084815260200190815260200160002090508060040154421015610b4d576040517f08c379a0000000000000000000000000000000000000000000000000000000008152600401610b4490612e87565b60405180910390fd5b8060050160149054906101000a900460ff1615610b9f576040517f08c379a0000000000000000000000000000000000000000000000000000000008152600401610b9690612ef3565b60405180910390fd5b81610baa3385610381565b1015610beb576040517f08c379a0000000000000000000000000000000000000000000000000000000008152600401610be290612f5f565b60405180910390fd5b60008160010154826003015484610c029190612f7f565b610c0c9190612ff0565b9050610c1933858561144e565b82826002016000828254610c2d9190613021565b925050819055503373ffffffffffffffffffffffffffffffffffffffff16847fa18626381edd3d7a115c4a09f678bb79665034a541affcdba9fe65a1d3d107ee83604051610c7b9190611f54565b60405180910390a36000826002015403610cad5760018260050160146101000a81548160ff0219169083151502179055505b50505050565b6000600360009054906101000a900473ffffffffffffffffffffffffffffffffffffffff16905090565b610cef610ce86111c7565b83836114f5565b5050565b6000600160008473ffffffffffffffffffffffffffffffffffffffff1673ffffffffffffffffffffffffffffffffffffffff16815260200190815260200160002060008373ffffffffffffffffffffffffffffffffffffffff1673ffffffffffffffffffffffffffffffffffffffff16815260200190815260200160002060009054906101000a900460ff16905092915050565b6000610d916111c7565b90508073ffffffffffffffffffffffffffffffffffffffff168673ffffffffffffffffffffffffffffffffffffffff1614158015610dd65750610dd48682610cf3565b155b15610e1a5780866040517fe237d922000000000000000000000000000000000000000000000000000000008152600401610e11929190612cc9565b60405180910390fd5b610e2786868686866110bc565b505050505050565b610e37610f8e565b600073ffffffffffffffffffffffffffffffffffffffff168173ffffffffffffffffffffffffffffffffffffffff1603610ea95760006040517f1e4fbdf7000000000000000000000000000000000000000000000000000000008152600401610ea0919061286e565b60405180910390fd5b610eb281611388565b50565b60056020528060005260406000206000915090508060000154908060010154908060020154908060030154908060040154908060050160009054906101000a900473ffffffffffffffffffffffffffffffffffffffff16908060050160149054906101000a900460ff16905087565b60007f01ffc9a7000000000000000000000000000000000000000000000000000000007bffffffffffffffffffffffffffffffffffffffffffffffffffffffff1916827bffffffffffffffffffffffffffffffffffffffffffffffffffffffff1916149050919050565b610f966111c7565b73ffffffffffffffffffffffffffffffffffffffff16610fb4610cb3565b73ffffffffffffffffffffffffffffffffffffffff161461101357610fd76111c7565b6040517f118cdaa700000000000000000000000000000000000000000000000000000000815260040161100a919061286e565b60405180910390fd5b565b80600290816110249190613261565b5050565b60606002805461103790613084565b80601f016020809104026020016040519081016040528092919081815260200182805461106390613084565b80156110b05780601f10611085576101008083540402835291602001916110b0565b820191906000526020600020905b81548152906001019060200180831161109357829003601f168201915b50505050509050919050565b600073ffffffffffffffffffffffffffffffffffffffff168473ffffffffffffffffffffffffffffffffffffffff160361112e5760006040517f57f447ce000000000000000000000000000000000000000000000000000000008152600401611125919061286e565b60405180910390fd5b600073ffffffffffffffffffffffffffffffffffffffff168573ffffffffffffffffffffffffffffffffffffffff16036111a05760006040517f01a83514000000000000000000000000000000000000000000000000000000008152600401611197919061286e565b60405180910390fd5b6000806111ad8585611665565b915091506111be8787848487611695565b50505050505050565b600033905090565b600073ffffffffffffffffffffffffffffffffffffffff168473ffffffffffffffffffffffffffffffffffffffff16036112415760006040517f57f447ce000000000000000000000000000000000000000000000000000000008152600401611238919061286e565b60405180910390fd5b600073ffffffffffffffffffffffffffffffffffffffff168573ffffffffffffffffffffffffffffffffffffffff16036112b35760006040517f01a835140000000000000000000000000000000000000000000000000000000081526004016112aa919061286e565b60405180910390fd5b6112c08585858585611695565b5050505050565b600073ffffffffffffffffffffffffffffffffffffffff168473ffffffffffffffffffffffffffffffffffffffff16036113395760006040517f57f447ce000000000000000000000000000000000000000000000000000000008152600401611330919061286e565b60405180910390fd5b6000806113468585611665565b91509150611358600087848487611695565b505050505050565b600060208202602084010151905092915050565b600060208202602084010151905092915050565b6000600360009054906101000a900473ffffffffffffffffffffffffffffffffffffffff16905081600360006101000a81548173ffffffffffffffffffffffffffffffffffffffff021916908373ffffffffffffffffffffffffffffffffffffffff1602179055508173ffffffffffffffffffffffffffffffffffffffff168173ffffffffffffffffffffffffffffffffffffffff167f8be0079c531659141344cd1fd0a4f28419497f9722a3daafe3b4186f6b6457e060405160405180910390a35050565b600073ffffffffffffffffffffffffffffffffffffffff168373ffffffffffffffffffffffffffffffffffffffff16036114c05760006040517f01a835140000000000000000000000000000000000000000000000000000000081526004016114b7919061286e565b60405180910390fd5b6000806114cd8484611665565b915091506114ee856000848460405180602001604052806000815250611695565b5050505050565b600073ffffffffffffffffffffffffffffffffffffffff168273ffffffffffffffffffffffffffffffffffffffff16036115675760006040517fced3e10000000000000000000000000000000000000000000000000000000000815260040161155e919061286e565b60405180910390fd5b80600160008573ffffffffffffffffffffffffffffffffffffffff1673ffffffffffffffffffffffffffffffffffffffff16815260200190815260200160002060008473ffffffffffffffffffffffffffffffffffffffff1673ffffffffffffffffffffffffffffffffffffffff16815260200190815260200160002060006101000a81548160ff0219169083151502179055508173ffffffffffffffffffffffffffffffffffffffff168373ffffffffffffffffffffffffffffffffffffffff167f17307eab39ab6107e8899845ad3d59bd9653f200f220920489ca2b5937696c3183604051611658919061200f565b60405180910390a3505050565b60608060405191506001825283602083015260408201905060018152826020820152604081016040529250929050565b6116a185858585611747565b600073ffffffffffffffffffffffffffffffffffffffff168473ffffffffffffffffffffffffffffffffffffffff16146117405760006116df6111c7565b9050600184510361172f57600061170060008661137490919063ffffffff16565b9050600061171860008661137490919063ffffffff16565b9050611728838989858589611af5565b505061173e565b61173d818787878787611ca9565b5b505b5050505050565b805182511461179157815181516040517f5b059991000000000000000000000000000000000000000000000000000000008152600401611788929190612ca0565b60405180910390fd5b600061179b6111c7565b905060005b83518110156119b05760006117be828661137490919063ffffffff16565b905060006117d5838661137490919063ffffffff16565b9050600073ffffffffffffffffffffffffffffffffffffffff168873ffffffffffffffffffffffffffffffffffffffff161461190257600080600084815260200190815260200160002060008a73ffffffffffffffffffffffffffffffffffffffff1673ffffffffffffffffffffffffffffffffffffffff168152602001908152602001600020549050818110156118aa57888183856040517f03dee4c50000000000000000000000000000000000000000000000000000000081526004016118a19493929190613333565b60405180910390fd5b81810360008085815260200190815260200160002060008b73ffffffffffffffffffffffffffffffffffffffff1673ffffffffffffffffffffffffffffffffffffffff16815260200190815260200160002081905550505b600073ffffffffffffffffffffffffffffffffffffffff168773ffffffffffffffffffffffffffffffffffffffff161461199d578060008084815260200190815260200160002060008973ffffffffffffffffffffffffffffffffffffffff1673ffffffffffffffffffffffffffffffffffffffff16815260200190815260200160002060008282546119959190613378565b925050819055505b5050806119a990612d8d565b90506117a0565b506001835103611a6f5760006119d060008561137490919063ffffffff16565b905060006119e860008561137490919063ffffffff16565b90508573ffffffffffffffffffffffffffffffffffffffff168773ffffffffffffffffffffffffffffffffffffffff168473ffffffffffffffffffffffffffffffffffffffff167fc3d58168c5ae7397731d063d5bbf3d657854427343f4c083240f7aacaa2d0f628585604051611a60929190612ca0565b60405180910390a45050611aee565b8373ffffffffffffffffffffffffffffffffffffffff168573ffffffffffffffffffffffffffffffffffffffff168273ffffffffffffffffffffffffffffffffffffffff167f4a39dc06d4c0dbc64b70af90fd698a233a518aa5d07e595d983b8c0526c8f7fb8686604051611ae59291906133ac565b60405180910390a45b5050505050565b60008473ffffffffffffffffffffffffffffffffffffffff163b1115611ca1578373ffffffffffffffffffffffffffffffffffffffff1663f23a6e6187878686866040518663ffffffff1660e01b8152600401611b56959493929190613438565b6020604051808303816000875af1925050508015611b9257506040513d601f19601f82011682018060405250810190611b8f91906134a7565b60015b611c16573d8060008114611bc2576040519150601f19603f3d011682016040523d82523d6000602084013e611bc7565b606091505b506000815103611c0e57846040517f57f447ce000000000000000000000000000000000000000000000000000000008152600401611c05919061286e565b60405180910390fd5b805160208201fd5b63f23a6e6160e01b7bffffffffffffffffffffffffffffffffffffffffffffffffffffffff1916817bffffffffffffffffffffffffffffffffffffffffffffffffffffffff191614611c9f57846040517f57f447ce000000000000000000000000000000000000000000000000000000008152600401611c96919061286e565b60405180910390fd5b505b505050505050565b60008473ffffffffffffffffffffffffffffffffffffffff163b1115611e55578373ffffffffffffffffffffffffffffffffffffffff1663bc197c8187878686866040518663ffffffff1660e01b8152600401611d0a9594939291906134d4565b6020604051808303816000875af1925050508015611d4657506040513d601f19601f82011682018060405250810190611d4391906134a7565b60015b611dca573d8060008114611d76576040519150601f19603f3d011682016040523d82523d6000602084013e611d7b565b606091505b506000815103611dc257846040517f57f447ce000000000000000000000000000000000000000000000000000000008152600401611db9919061286e565b60405180910390fd5b805160208201fd5b63bc197c8160e01b7bffffffffffffffffffffffffffffffffffffffffffffffffffffffff1916817bffffffffffffffffffffffffffffffffffffffffffffffffffffffff191614611e5357846040517f57f447ce000000000000000000000000000000000000000000000000000000008152600401611e4a919061286e565b60405180910390fd5b505b505050505050565b6000604051905090565b600080fd5b600080fd5b600073ffffffffffffffffffffffffffffffffffffffff82169050919050565b6000611e9c82611e71565b9050919050565b611eac81611e91565b8114611eb757600080fd5b50565b600081359050611ec981611ea3565b92915050565b6000819050919050565b611ee281611ecf565b8114611eed57600080fd5b50565b600081359050611eff81611ed9565b92915050565b60008060408385031215611f1c57611f1b611e67565b5b6000611f2a85828601611eba565b9250506020611f3b85828601611ef0565b9150509250929050565b611f4e81611ecf565b82525050565b6000602082019050611f696000830184611f45565b92915050565b60007fffffffff0000000000000000000000000000000000000000000000000000000082169050919050565b611fa481611f6f565b8114611faf57600080fd5b50565b600081359050611fc181611f9b565b92915050565b600060208284031215611fdd57611fdc611e67565b5b6000611feb84828501611fb2565b91505092915050565b60008115159050919050565b61200981611ff4565b82525050565b60006020820190506120246000830184612000565b92915050565b600080fd5b600080fd5b6000601f19601f8301169050919050565b7f4e487b7100000000000000000000000000000000000000000000000000000000600052604160045260246000fd5b61207d82612034565b810181811067ffffffffffffffff8211171561209c5761209b612045565b5b80604052505050565b60006120af611e5d565b90506120bb8282612074565b919050565b600067ffffffffffffffff8211156120db576120da612045565b5b6120e482612034565b9050602081019050919050565b82818337600083830152505050565b600061211361210e846120c0565b6120a5565b90508281526020810184848401111561212f5761212e61202f565b5b61213a8482856120f1565b509392505050565b600082601f8301126121575761215661202a565b5b8135612167848260208601612100565b91505092915050565b60006020828403121561218657612185611e67565b5b600082013567ffffffffffffffff8111156121a4576121a3611e6c565b5b6121b084828501612142565b91505092915050565b6000602082840312156121cf576121ce611e67565b5b60006121dd84828501611ef0565b91505092915050565b600081519050919050565b600082825260208201905092915050565b60005b83811015612220578082015181840152602081019050612205565b60008484015250505050565b6000612237826121e6565b61224181856121f1565b9350612251818560208601612202565b61225a81612034565b840191505092915050565b6000602082019050818103600083015261227f818461222c565b905092915050565b6000819050919050565b61229a81612287565b81146122a557600080fd5b50565b6000813590506122b781612291565b92915050565b6000602082840312156122d3576122d2611e67565b5b60006122e1848285016122a8565b91505092915050565b6000806000806080858703121561230457612303611e67565b5b600061231287828801611ef0565b945050602061232387828801611ef0565b935050604061233487828801611eba565b925050606061234587828801611eba565b91505092959194509250565b600067ffffffffffffffff82111561236c5761236b612045565b5b602082029050602081019050919050565b600080fd5b600061239561239084612351565b6120a5565b905080838252602082019050602084028301858111156123b8576123b761237d565b5b835b818110156123e157806123cd8882611ef0565b8452602084019350506020810190506123ba565b5050509392505050565b600082601f830112612400576123ff61202a565b5b8135612410848260208601612382565b91505092915050565b600067ffffffffffffffff82111561243457612433612045565b5b61243d82612034565b9050602081019050919050565b600061245d61245884612419565b6120a5565b9050828152602081018484840111156124795761247861202f565b5b6124848482856120f1565b509392505050565b600082601f8301126124a1576124a061202a565b5b81356124b184826020860161244a565b91505092915050565b600080600080600060a086880312156124d6576124d5611e67565b5b60006124e488828901611eba565b95505060206124f588828901611eba565b945050604086013567ffffffffffffffff81111561251657612515611e6c565b5b612522888289016123eb565b935050606086013567ffffffffffffffff81111561254357612542611e6c565b5b61254f888289016123eb565b925050608086013567ffffffffffffffff8111156125705761256f611e6c565b5b61257c8882890161248c565b9150509295509295909350565b600080600080600060a086880312156125a5576125a4611e67565b5b60006125b3888289016122a8565b95505060206125c488828901611ef0565b94505060406125d588828901611ef0565b93505060606125e688828901611ef0565b92505060806125f788828901611eba565b9150509295509295909350565b600067ffffffffffffffff82111561261f5761261e612045565b5b602082029050602081019050919050565b600061264361263e84612604565b6120a5565b905080838252602082019050602084028301858111156126665761266561237d565b5b835b8181101561268f578061267b8882611eba565b845260208401935050602081019050612668565b5050509392505050565b600082601f8301126126ae576126ad61202a565b5b81356126be848260208601612630565b91505092915050565b600080604083850312156126de576126dd611e67565b5b600083013567ffffffffffffffff8111156126fc576126fb611e6c565b5b61270885828601612699565b925050602083013567ffffffffffffffff81111561272957612728611e6c565b5b612735858286016123eb565b9150509250929050565b600081519050919050565b600082825260208201905092915050565b6000819050602082019050919050565b61277481611ecf565b82525050565b6000612786838361276b565b60208301905092915050565b6000602082019050919050565b60006127aa8261273f565b6127b4818561274a565b93506127bf8361275b565b8060005b838110156127f05781516127d7888261277a565b97506127e283612792565b9250506001810190506127c3565b5085935050505092915050565b60006020820190508181036000830152612817818461279f565b905092915050565b6000806040838503121561283657612835611e67565b5b600061284485828601611ef0565b925050602061285585828601611ef0565b9150509250929050565b61286881611e91565b82525050565b6000602082019050612883600083018461285f565b92915050565b61289281611ff4565b811461289d57600080fd5b50565b6000813590506128af81612889565b92915050565b600080604083850312156128cc576128cb611e67565b5b60006128da85828601611eba565b92505060206128eb858286016128a0565b9150509250929050565b6000806040838503121561290c5761290b611e67565b5b600061291a85828601611eba565b925050602061292b85828601611eba565b9150509250929050565b600080600080600060a0868803121561295157612950611e67565b5b600061295f88828901611eba565b955050602061297088828901611eba565b945050604061298188828901611ef0565b935050606061299288828901611ef0565b925050608086013567ffffffffffffffff8111156129b3576129b2611e6c565b5b6129bf8882890161248c565b9150509295509295909350565b6000602082840312156129e2576129e1611e67565b5b60006129f084828501611eba565b91505092915050565b612a0281612287565b82525050565b600060e082019050612a1d600083018a6129f9565b612a2a6020830189611f45565b612a376040830188611f45565b612a446060830187611f45565b612a516080830186611f45565b612a5e60a083018561285f565b612a6b60c0830184612000565b98975050505050505050565b7f4e6f6e6578697374656e7420746f6b656e000000000000000000000000000000600082015250565b6000612aad6011836121f1565b9150612ab882612a77565b602082019050919050565b60006020820190508181036000830152612adc81612aa0565b9050919050565b7f546f6b656e20646f6573206e6f74206578697374000000000000000000000000600082015250565b6000612b196014836121f1565b9150612b2482612ae3565b602082019050919050565b60006020820190508181036000830152612b4881612b0c565b9050919050565b7f416d6f756e74206d75737420626520706f736974697665000000000000000000600082015250565b6000612b856017836121f1565b9150612b9082612b4f565b602082019050919050565b60006020820190508181036000830152612bb481612b78565b9050919050565b6000606082019050612bd0600083018661285f565b612bdd602083018561285f565b612bea6040830184611f45565b949350505050565b600081519050612c0181612889565b92915050565b600060208284031215612c1d57612c1c611e67565b5b6000612c2b84828501612bf2565b91505092915050565b7f4552433230207061796d656e74206661696c6564000000000000000000000000600082015250565b6000612c6a6014836121f1565b9150612c7582612c34565b602082019050919050565b60006020820190508181036000830152612c9981612c5d565b9050919050565b6000604082019050612cb56000830185611f45565b612cc26020830184611f45565b9392505050565b6000604082019050612cde600083018561285f565b612ceb602083018461285f565b9392505050565b7f496e766f69636520616c726561647920746f6b656e697a656400000000000000600082015250565b6000612d286019836121f1565b9150612d3382612cf2565b602082019050919050565b60006020820190508181036000830152612d5781612d1b565b9050919050565b7f4e487b7100000000000000000000000000000000000000000000000000000000600052601160045260246000fd5b6000612d9882611ecf565b91507fffffffffffffffffffffffffffffffffffffffffffffffffffffffffffffffff8203612dca57612dc9612d5e565b5b600182019050919050565b6000606082019050612dea6000830186611f45565b612df76020830185611f45565b612e046040830184611f45565b949350505050565b7f4e487b7100000000000000000000000000000000000000000000000000000000600052603260045260246000fd5b7f4e6f7420796574206d6174757265000000000000000000000000000000000000600082015250565b6000612e71600e836121f1565b9150612e7c82612e3b565b602082019050919050565b60006020820190508181036000830152612ea081612e64565b9050919050565b7f416c72656164792072656465656d656400000000000000000000000000000000600082015250565b6000612edd6010836121f1565b9150612ee882612ea7565b602082019050919050565b60006020820190508181036000830152612f0c81612ed0565b9050919050565b7f496e73756666696369656e7420746f6b656e7300000000000000000000000000600082015250565b6000612f496013836121f1565b9150612f5482612f13565b602082019050919050565b60006020820190508181036000830152612f7881612f3c565b9050919050565b6000612f8a82611ecf565b9150612f9583611ecf565b9250828202612fa381611ecf565b91508282048414831517612fba57612fb9612d5e565b5b5092915050565b7f4e487b7100000000000000000000000000000000000000000000000000000000600052601260045260246000fd5b6000612ffb82611ecf565b915061300683611ecf565b92508261301657613015612fc1565b5b828204905092915050565b600061302c82611ecf565b915061303783611ecf565b925082820390508181111561304f5761304e612d5e565b5b92915050565b7f4e487b7100000000000000000000000000000000000000000000000000000000600052602260045260246000fd5b6000600282049050600182168061309c57607f821691505b6020821081036130af576130ae613055565b5b50919050565b60008190508160005260206000209050919050565b60006020601f8301049050919050565b600082821b905092915050565b6000600883026131177fffffffffffffffffffffffffffffffffffffffffffffffffffffffffffffffff826130da565b61312186836130da565b95508019841693508086168417925050509392505050565b6000819050919050565b600061315e61315961315484611ecf565b613139565b611ecf565b9050919050565b6000819050919050565b61317883613143565b61318c61318482613165565b8484546130e7565b825550505050565b600090565b6131a1613194565b6131ac81848461316f565b505050565b5b818110156131d0576131c5600082613199565b6001810190506131b2565b5050565b601f821115613215576131e6816130b5565b6131ef846130ca565b810160208510156131fe578190505b61321261320a856130ca565b8301826131b1565b50505b505050565b600082821c905092915050565b60006132386000198460080261321a565b1980831691505092915050565b60006132518383613227565b9150826002028217905092915050565b61326a826121e6565b67ffffffffffffffff81111561328357613282612045565b5b61328d8254613084565b6132988282856131d4565b600060209050601f8311600181146132cb57600084156132b9578287015190505b6132c38582613245565b86555061332b565b601f1984166132d9866130b5565b60005b82811015613301578489015182556001820191506020850194506020810190506132dc565b8683101561331e578489015161331a601f891682613227565b8355505b6001600288020188555050505b505050505050565b6000608082019050613348600083018761285f565b6133556020830186611f45565b6133626040830185611f45565b61336f6060830184611f45565b95945050505050565b600061338382611ecf565b915061338e83611ecf565b92508282019050808211156133a6576133a5612d5e565b5b92915050565b600060408201905081810360008301526133c6818561279f565b905081810360208301526133da818461279f565b90509392505050565b600081519050919050565b600082825260208201905092915050565b600061340a826133e3565b61341481856133ee565b9350613424818560208601612202565b61342d81612034565b840191505092915050565b600060a08201905061344d600083018861285f565b61345a602083018761285f565b6134676040830186611f45565b6134746060830185611f45565b818103608083015261348681846133ff565b90509695505050505050565b6000815190506134a181611f9b565b92915050565b6000602082840312156134bd576134bc611e67565b5b60006134cb84828501613492565b91505092915050565b600060a0820190506134e9600083018861285f565b6134f6602083018761285f565b8181036040830152613508818661279f565b9050818103606083015261351c818561279f565b9050818103608083015261353081846133ff565b9050969550505050505056fea2646970667358221220f569630421ac7ba11869c5089f04b23f021b19f31f9dd2317ca152122e63c48964736f6c6343000814003368747470733a2f2f6170692e66696e6f766174657061792e636f6d2f746f6b656e2f7b69647d2e6a736f6e",
  "linkReferences": {},
  "deployedLinkReferences": {}
}