{
  "_format": "hh-sol-artifact-1",
  "contractName": "FractionToken",
  "sourceName": "contracts/FractionToken.sol",
  "abi": [
    {
      "inputs": [
        {
          "internalType": "address",
          "name": "_paymentToken",
          "type": "address"
        }
      ],
      "stateMutability": "nonpayable",
      "type": "constructor"
    },
    {
      "inputs": [
        {
          "internalType": "address",
          "name": "sender",
          "type": "address"
        },
        {
          "internalType": "uint256",
          "name": "balance",
          "type": "uint256"
        },
        {
          "internalType": "uint256",
          "name": "needed",
          "type": "uint256"
        },
        {
          "internalType": "uint256",
          "name": "tokenId",
          "type": "uint256"
        }
      ],
      "name": "ERC1155InsufficientBalance",
      "type": "error"
    },
    {
      "inputs": [
        {
          "internalType": "address",
          "name": "approver",
          "type": "address"
        }
      ],
      "name": "ERC1155InvalidApprover",
      "type": "error"
    },
    {
      "inputs": [
        {
          "internalType": "uint256",
          "name": "idsLength",
          "type": "uint256"
        },
        {
          "internalType": "uint256",
          "name": "valuesLength",
          "type": "uint256"
        }
      ],
      "name": "ERC1155InvalidArrayLength",
      "type": "error"
    },
    {
      "inputs": [
        {
          "internalType": "address",
          "name": "operator",
          "type": "address"
        }
      ],
      "name": "ERC1155InvalidOperator",
      "type": "error"
    },
    {
      "inputs": [
        {
          "internalType": "address",
          "name": "receiver",
          "type": "address"
        }
      ],
      "name": "ERC1155InvalidReceiver",
      "type": "error"
    },
    {
      "inputs": [
        {
          "internalType": "address",
          "name": "sender",
          "type": "address"
        }
      ],
      "name": "ERC1155InvalidSender",
      "type": "error"
    },
    {
      "inputs": [
        {
          "internalType": "address",
          "name": "operator",
          "type": "address"
        },
        {
          "internalType": "address",
          "name": "owner",
          "type": "address"
        }
      ],
      "name": "ERC1155MissingApprovalForAll",
      "type": "error"
    },
    {
      "inputs": [
        {
          "internalType": "address",
          "name": "owner",
          "type": "address"
        }
      ],
      "name": "OwnableInvalidOwner",
      "type": "error"
    },
    {
      "inputs": [
        {
          "internalType": "address",
          "name": "account",
          "type": "address"
        }
      ],
      "name": "OwnableUnauthorizedAccount",
      "type": "error"
    },
    {
      "inputs": [],
      "name": "ReentrancyGuardReentrantCall",
      "type": "error"
    },
    {
      "inputs": [
        {
          "internalType": "address",
          "name": "token",
          "type": "address"
        }
      ],
      "name": "SafeERC20FailedOperation",
      "type": "error"
    },
    {
      "anonymous": false,
      "inputs": [
        {
          "indexed": true,
          "internalType": "address",
          "name": "account",
          "type": "address"
        },
        {
          "indexed": true,
          "internalType": "address",
          "name": "operator",
          "type": "address"
        },
        {
          "indexed": false,
          "internalType": "bool",
          "name": "approved",
          "type": "bool"
        }
      ],
      "name": "ApprovalForAll",
      "type": "event"
    },
    {
      "anonymous": false,
      "inputs": [
        {
          "indexed": true,
          "internalType": "uint256",
          "name": "tokenId",
          "type": "uint256"
        },
        {
          "indexed": true,
          "internalType": "address",
          "name": "buyer",
          "type": "address"
        },
        {
          "indexed": false,
          "internalType": "uint256",
          "name": "amount",
          "type": "uint256"
        },
        {
          "indexed": false,
          "internalType": "uint256",
          "name": "totalCost",
          "type": "uint256"
        }
      ],
      "name": "FractionsPurchased",
      "type": "event"
    },
    {
      "anonymous": false,
      "inputs": [
        {
          "indexed": true,
          "internalType": "uint256",
          "name": "tokenId",
          "type": "uint256"
        },
        {
          "indexed": true,
          "internalType": "address",
          "name": "redeemer",
          "type": "address"
        },
        {
          "indexed": false,
          "internalType": "uint256",
          "name": "amount",
          "type": "uint256"
        },
        {
          "indexed": false,
          "internalType": "uint256",
          "name": "payout",
          "type": "uint256"
        }
      ],
      "name": "FractionsRedeemed",
      "type": "event"
    },
    {
      "anonymous": false,
      "inputs": [
        {
          "indexed": true,
          "internalType": "uint256",
          "name": "tokenId",
          "type": "uint256"
        }
      ],
      "name": "InvoiceClosed",
      "type": "event"
    },
    {
      "anonymous": false,
      "inputs": [
        {
          "indexed": true,
          "internalType": "bytes32",
          "name": "invoiceId",
          "type": "bytes32"
        },
        {
          "indexed": false,
          "internalType": "uint256",
          "name": "tokenId",
          "type": "uint256"
        },
        {
          "indexed": false,
          "internalType": "address",
          "name": "seller",
          "type": "address"
        },
        {
          "indexed": false,
          "internalType": "uint256",
          "name": "totalFractions",
          "type": "uint256"
        },
        {
          "indexed": false,
          "internalType": "uint256",
          "name": "pricePerFraction",
          "type": "uint256"
        }
      ],
      "name": "InvoiceFractionalized",
      "type": "event"
    },
    {
      "anonymous": false,
      "inputs": [
        {
          "indexed": true,
          "internalType": "address",
          "name": "previousOwner",
          "type": "address"
        },
        {
          "indexed": true,
          "internalType": "address",
          "name": "newOwner",
          "type": "address"
        }
      ],
      "name": "OwnershipTransferred",
      "type": "event"
    },
    {
      "anonymous": false,
      "inputs": [
        {
          "indexed": true,
          "internalType": "uint256",
          "name": "tokenId",
          "type": "uint256"
        },
        {
          "indexed": false,
          "internalType": "uint256",
          "name": "amount",
          "type": "uint256"
        }
      ],
      "name": "RepaymentReceived",
      "type": "event"
    },
    {
      "anonymous": false,
      "inputs": [
        {
          "indexed": true,
          "internalType": "address",
          "name": "operator",
          "type": "address"
        },
        {
          "indexed": true,
          "internalType": "address",
          "name": "from",
          "type": "address"
        },
        {
          "indexed": true,
          "internalType": "address",
          "name": "to",
          "type": "address"
        },
        {
          "indexed": false,
          "internalType": "uint256[]",
          "name": "ids",
          "type": "uint256[]"
        },
        {
          "indexed": false,
          "internalType": "uint256[]",
          "name": "values",
          "type": "uint256[]"
        }
      ],
      "name": "TransferBatch",
      "type": "event"
    },
    {
      "anonymous": false,
      "inputs": [
        {
          "indexed": true,
          "internalType": "address",
          "name": "operator",
          "type": "address"
        },
        {
          "indexed": true,
          "internalType": "address",
          "name": "from",
          "type": "address"
        },
        {
          "indexed": true,
          "internalType": "address",
          "name": "to",
          "type": "address"
        },
        {
          "indexed": false,
          "internalType": "uint256",
          "name": "id",
          "type": "uint256"
        },
        {
          "indexed": false,
          "internalType": "uint256",
          "name": "value",
          "type": "uint256"
        }
      ],
      "name": "TransferSingle",
      "type": "event"
    },
    {
      "anonymous": false,
      "inputs": [
        {
          "indexed": false,
          "internalType": "string",
          "name": "value",
          "type": "string"
        },
        {
          "indexed": true,
          "internalType": "uint256",
          "name": "id",
          "type": "uint256"
        }
      ],
      "name": "URI",
      "type": "event"
    },
    {
      "inputs": [
        {
          "internalType": "address",
          "name": "account",
          "type": "address"
        },
        {
          "internalType": "uint256",
          "name": "id",
          "type": "uint256"
        }
      ],
      "name": "balanceOf",
      "outputs": [
        {
          "internalType": "uint256",
          "name": "",
          "type": "uint256"
        }
      ],
      "stateMutability": "view",
      "type": "function"
    },
    {
      "inputs": [
        {
          "internalType": "address[]",
          "name": "accounts",
          "type": "address[]"
        },
        {
          "internalType": "uint256[]",
          "name": "ids",
          "type": "uint256[]"
        }
      ],
      "name": "balanceOfBatch",
      "outputs": [
        {
          "internalType": "uint256[]",
          "name": "",
          "type": "uint256[]"
        }
      ],
      "stateMutability": "view",
      "type": "function"
    },
    {
      "inputs": [
        {
          "internalType": "uint256",
          "name": "_tokenId",
          "type": "uint256"
        },
        {
          "internalType": "uint256",
          "name": "_amount",
          "type": "uint256"
        }
      ],
      "name": "buyFractions",
      "outputs": [],
      "stateMutability": "nonpayable",
      "type": "function"
    },
    {
      "inputs": [
        {
          "internalType": "uint256",
          "name": "_tokenId",
          "type": "uint256"
        }
      ],
      "name": "closeInvoice",
      "outputs": [],
      "stateMutability": "nonpayable",
      "type": "function"
    },
    {
      "inputs": [
        {
          "internalType": "bytes32",
          "name": "_invoiceId",
          "type": "bytes32"
        },
        {
          "internalType": "address",
          "name": "_seller",
          "type": "address"
        },
        {
          "internalType": "uint256",
          "name": "_totalFractions",
          "type": "uint256"
        },
        {
          "internalType": "uint256",
          "name": "_pricePerFraction",
          "type": "uint256"
        },
        {
          "internalType": "uint256",
          "name": "_maturityDate",
          "type": "uint256"
        },
        {
          "internalType": "uint256",
          "name": "_totalValue",
          "type": "uint256"
        }
      ],
      "name": "createFractionalInvoice",
      "outputs": [
        {
          "internalType": "uint256",
          "name": "",
          "type": "uint256"
        }
      ],
      "stateMutability": "nonpayable",
      "type": "function"
    },
    {
      "inputs": [
        {
          "internalType": "uint256",
          "name": "_tokenId",
          "type": "uint256"
        },
        {
          "internalType": "uint256",
          "name": "_amount",
          "type": "uint256"
        }
      ],
      "name": "depositRepayment",
      "outputs": [],
      "stateMutability": "nonpayable",
      "type": "function"
    },
    {
      "inputs": [
        {
          "internalType": "uint256",
          "name": "",
          "type": "uint256"
        }
      ],
      "name": "invoiceMetadata",
      "outputs": [
        {
          "internalType": "address",
          "name": "seller",
          "type": "address"
        },
        {
          "internalType": "uint256",
          "name": "totalFractions",
          "type": "uint256"
        },
        {
          "internalType": "uint256",
          "name": "pricePerFraction",
          "type": "uint256"
        },
        {
          "internalType": "uint256",
          "name": "maturityDate",
          "type": "uint256"
        },
        {
          "internalType": "uint256",
          "name": "totalValue",
          "type": "uint256"
        },
        {
          "internalType": "uint256",
          "name": "financedAmount",
          "type": "uint256"
        },
        {
          "internalType": "bool",
          "name": "repaymentFunded",
          "type": "bool"
        }
      ],
      "stateMutability": "view",
      "type": "function"
    },
    {
      "inputs": [
        {
          "internalType": "bytes32",
          "name": "",
          "type": "bytes32"
        }
      ],
      "name": "invoiceToTokenId",
      "outputs": [
        {
          "internalType": "uint256",
          "name": "",
          "type": "uint256"
        }
      ],
      "stateMutability": "view",
      "type": "function"
    },
    {
      "inputs": [
        {
          "internalType": "uint256",
          "name": "",
          "type": "uint256"
        }
      ],
      "name": "isActive",
      "outputs": [
        {
          "internalType": "bool",
          "name": "",
          "type": "bool"
        }
      ],
      "stateMutability": "view",
      "type": "function"
    },
    {
      "inputs": [
        {
          "internalType": "address",
          "name": "account",
          "type": "address"
        },
        {
          "internalType": "address",
          "name": "operator",
          "type": "address"
        }
      ],
      "name": "isApprovedForAll",
      "outputs": [
        {
          "internalType": "bool",
          "name": "",
          "type": "bool"
        }
      ],
      "stateMutability": "view",
      "type": "function"
    },
    {
      "inputs": [
        {
          "internalType": "address",
          "name": "",
          "type": "address"
        },
        {
          "internalType": "address",
          "name": "",
          "type": "address"
        },
        {
          "internalType": "uint256[]",
          "name": "",
          "type": "uint256[]"
        },
        {
          "internalType": "uint256[]",
          "name": "",
          "type": "uint256[]"
        },
        {
          "internalType": "bytes",
          "name": "",
          "type": "bytes"
        }
      ],
      "name": "onERC1155BatchReceived",
      "outputs": [
        {
          "internalType": "bytes4",
          "name": "",
          "type": "bytes4"
        }
      ],
      "stateMutability": "nonpayable",
      "type": "function"
    },
    {
      "inputs": [
        {
          "internalType": "address",
          "name": "",
          "type": "address"
        },
        {
          "internalType": "address",
          "name": "",
          "type": "address"
        },
        {
          "internalType": "uint256",
          "name": "",
          "type": "uint256"
        },
        {
          "internalType": "uint256",
          "name": "",
          "type": "uint256"
        },
        {
          "internalType": "bytes",
          "name": "",
          "type": "bytes"
        }
      ],
      "name": "onERC1155Received",
      "outputs": [
        {
          "internalType": "bytes4",
          "name": "",
          "type": "bytes4"
        }
      ],
      "stateMutability": "nonpayable",
      "type": "function"
    },
    {
      "inputs": [],
      "name": "owner",
      "outputs": [
        {
          "internalType": "address",
          "name": "",
          "type": "address"
        }
      ],
      "stateMutability": "view",
      "type": "function"
    },
    {
      "inputs": [],
      "name": "paymentToken",
      "outputs": [
        {
          "internalType": "contract IERC20",
          "name": "",
          "type": "address"
        }
      ],
      "stateMutability": "view",
      "type": "function"
    },
    {
      "inputs": [
        {
          "internalType": "uint256",
          "name": "_tokenId",
          "type": "uint256"
        }
      ],
      "name": "redeemFractions",
      "outputs": [],
      "stateMutability": "nonpayable",
      "type": "function"
    },
    {
      "inputs": [],
      "name": "renounceOwnership",
      "outputs": [],
      "stateMutability": "nonpayable",
      "type": "function"
    },
    {
      "inputs": [
        {
          "internalType": "address",
          "name": "from",
          "type": "address"
        },
        {
          "internalType": "address",
          "name": "to",
          "type": "address"
        },
        {
          "internalType": "uint256[]",
          "name": "ids",
          "type": "uint256[]"
        },
        {
          "internalType": "uint256[]",
          "name": "values",
          "type": "uint256[]"
        },
        {
          "internalType": "bytes",
          "name": "data",
          "type": "bytes"
        }
      ],
      "name": "safeBatchTransferFrom",
      "outputs": [],
      "stateMutability": "nonpayable",
      "type": "function"
    },
    {
      "inputs": [
        {
          "internalType": "address",
          "name": "from",
          "type": "address"
        },
        {
          "internalType": "address",
          "name": "to",
          "type": "address"
        },
        {
          "internalType": "uint256",
          "name": "id",
          "type": "uint256"
        },
        {
          "internalType": "uint256",
          "name": "value",
          "type": "uint256"
        },
        {
          "internalType": "bytes",
          "name": "data",
          "type": "bytes"
        }
      ],
      "name": "safeTransferFrom",
      "outputs": [],
      "stateMutability": "nonpayable",
      "type": "function"
    },
    {
      "inputs": [
        {
          "internalType": "address",
          "name": "operator",
          "type": "address"
        },
        {
          "internalType": "bool",
          "name": "approved",
          "type": "bool"
        }
      ],
      "name": "setApprovalForAll",
      "outputs": [],
      "stateMutability": "nonpayable",
      "type": "function"
    },
    {
      "inputs": [
        {
          "internalType": "bytes4",
          "name": "interfaceId",
          "type": "bytes4"
        }
      ],
      "name": "supportsInterface",
      "outputs": [
        {
          "internalType": "bool",
          "name": "",
          "type": "bool"
        }
      ],
      "stateMutability": "view",
      "type": "function"
    },
    {
      "inputs": [
        {
          "internalType": "address",
          "name": "newOwner",
          "type": "address"
        }
      ],
      "name": "transferOwnership",
      "outputs": [],
      "stateMutability": "nonpayable",
      "type": "function"
    },
    {
      "inputs": [
        {
          "internalType": "uint256",
          "name": "",
          "type": "uint256"
        }
      ],
      "name": "uri",
      "outputs": [
        {
          "internalType": "string",
          "name": "",
          "type": "string"
        }
      ],
      "stateMutability": "view",
      "type": "function"
    }
  ],
  "bytecode": "0x60806040523461028257604051601f61209138819003918201601f19168301916001600160401b0383118484101761026e5780849260209460405283398101031261028257516001600160a01b0381169081900361028257604051606081016001600160401b0381118282101761026e57604052602b81527f68747470733a2f2f6170692e66696e6f766174657061792e636f6d2f746f6b6560208201526a3717bdb4b23e973539b7b760a91b6040820152600254600190600181811c91168015610264575b602082101461025057601f81116101eb575b505060209060025f52815f20915f5b602081106101d3575001516001600160a81b0319169055605760025533156101c05760038054336001600160a01b03198216811790925560405191906001600160a01b03167f8be0079c531659141344cd1fd0a4f28419497f9722a3daafe3b4186f6b6457e05f80a36001600455811561017e5750600580546001600160a01b031916919091179055604051611e0a90816102878239f35b62461bcd60e51b815260206004820152601560248201527f496e76616c6964207061796d656e7420746f6b656e00000000000000000000006044820152606490fd5b631e4fbdf760e01b5f525f60045260245ffd5b909260206001819286860151815501940191016100e6565b60025f52601f0160051c7f405787fa12a823e0f2b7631cc41b3ba8828b3321ca811111fa75cd3aa3bb5ace017f405787fa12a823e0f2b7631cc41b3ba8828b3321ca811111fa75cd3aa3bb5ad05b81811061024657506100d7565b5f81558201610239565b634e487b7160e01b5f52602260045260245ffd5b90607f16906100c5565b634e487b7160e01b5f52604160045260245ffd5b5f80fdfe60806040526004361015610011575f80fd5b5f3560e01c8062fdd58e1461017357806301ffc9a71461016e5780630e89341c1461016957806312589e19146101645780632eb2c2d61461015f5780633013ce291461015a5780633edced5d146101555780634e1273f414610150578063715018a61461014b57806382afd23b146101465780638da5cb5b146101415780639c0eb4521461013c578063a22cb46514610137578063aa638c7814610132578063bc197c811461012d578063d355a14014610128578063d973afe414610123578063e985e9c51461011e578063ea37027614610119578063f23a6e6114610114578063f242432a1461010f5763f2fde38b1461010a575f80fd5b61102a565b610fb9565b610f95565b610e0e565b610db2565b610c34565b610bab565b610b87565b610b31565b610a7f565b6108fd565b6108d5565b6108a6565b61084b565b61078a565b610656565b61062e565b610587565b6103b0565b6102bc565b610216565b6101bc565b600435906001600160a01b038216820361018e57565b5f80fd5b602435906001600160a01b038216820361018e57565b35906001600160a01b038216820361018e57565b3461018e57604036600319011261018e5760206101fb6101da610178565b6024355f525f835260405f209060018060a01b03165f5260205260405f2090565b54604051908152f35b6001600160e01b031981160361018e57565b3461018e57602036600319011261018e57602060043561023581610204565b63ffffffff60e01b16636cdb3d1360e11b8114908115610273575b8115610262575b506040519015158152f35b6301ffc9a760e01b1490505f610257565b6303a24d0760e21b81149150610250565b805180835260209291819084018484015e5f828201840152601f01601f1916010190565b9060206102b9928181520190610284565b90565b3461018e57602036600319011261018e576040515f6002548060011c90600181169081156103a6575b6020831082146103925782855260208501919081156103795750600114610327575b61032384610317818603826103ee565b604051918291826102a8565b0390f35b60025f9081529250907f405787fa12a823e0f2b7631cc41b3ba8828b3321ca811111fa75cd3aa3bb5ace5b8184106103655750500161031782610307565b805484840152602090930192600101610352565b60ff191682525090151560051b01905061031782610307565b634e487b7160e01b5f52602260045260245ffd5b91607f16916102e5565b3461018e57602036600319011261018e576004355f526008602052602060405f2054604051908152f35b634e487b7160e01b5f52604160045260245ffd5b90601f8019910116810190811067ffffffffffffffff82111761041057604052565b6103da565b6040519061042460e0836103ee565b565b67ffffffffffffffff81116104105760051b60200190565b9080601f8301121561018e57813561045581610426565b9261046360405194856103ee565b81845260208085019260051b82010192831161018e57602001905b82821061048b5750505090565b813581526020918201910161047e565b67ffffffffffffffff811161041057601f01601f191660200190565b81601f8201121561018e578035906104ce8261049b565b926104dc60405194856103ee565b8284526020838301011161018e57815f926020809301838601378301015290565b60a060031982011261018e576004356001600160a01b038116810361018e579161052760246101a8565b9160443567ffffffffffffffff811161018e57816105479160040161043e565b9160643567ffffffffffffffff811161018e57826105679160040161043e565b916084359067ffffffffffffffff821161018e576102b9916004016104b7565b3461018e57610595366104fd565b929091906001600160a01b038516338114158061060b575b6105f5576001600160a01b038216156105e257156105d0576105ce9461191d565b005b626a0d4560e21b5f525f60045260245ffd5b632bfa23e760e11b5f525f60045260245ffd5b63711bec9160e11b5f523360045260245260445ffd5b505f81815260016020908152604080832033845290915290205460ff16156105ad565b3461018e575f36600319011261018e576005546040516001600160a01b039091168152602090f35b3461018e57604036600319011261018e5760043560243561067561152c565b815f52600660205260405f2060018101541561070d576005547f93779ca16187e897d4f01a19100fe66162991c20afb461c7e2628809196deb0d926106ec9290916106ce9083906001600160a01b03163090339061154c565b60048101548210156106f9575b506040519081529081906020820190565b0390a26105ce6001600455565b600601805460ff191660011790555f6106db565b60405162461bcd60e51b8152602060048201526011602482015270125b9d9bda58d9481b9bdd08199bdd5b99607a1b6044820152606490fd5b90602080835192838152019201905f5b8181106107635750505090565b8251845260209384019390920191600101610756565b9060206102b9928181520190610746565b3461018e57604036600319011261018e5760043567ffffffffffffffff811161018e573660238201121561018e578060040135906107c782610426565b916107d560405193846103ee565b8083526024602084019160051b8301019136831161018e57602401905b828210610833578360243567ffffffffffffffff811161018e576103239161082161082792369060040161043e565b906110d8565b60405191829182610779565b60208091610840846101a8565b8152019101906107f2565b3461018e575f36600319011261018e57610863611595565b600380546001600160a01b031981169091555f906001600160a01b03167f8be0079c531659141344cd1fd0a4f28419497f9722a3daafe3b4186f6b6457e08280a3005b3461018e57602036600319011261018e576004355f526007602052602060ff60405f2054166040519015158152f35b3461018e575f36600319011261018e576003546040516001600160a01b039091168152602090f35b3461018e57602036600319011261018e5760043561091961152c565b61092b815f52600660205260405f2090565b9061094261093d600684015460ff1690565b61118c565b61099561096f3361095a845f525f60205260405f2090565b9060018060a01b03165f5260205260405f2090565b549261097c8415156111d8565b600161098c60048301548661122e565b91015490611246565b6005546001600160a01b03166040516370a0823160e01b815230600482015290602090829060249082905afa918215610a7a57610a01817faa25b05279c268df11c4b41fd890364cf6feef59858671a91a4f0d4005c5bdf694610a3e945f91610a4b575b50101561127e565b610a0c8585336115bc565b600554610a2590829033906001600160a01b031661174c565b6040805195865260208601919091523394918291820190565b0390a36105ce6001600455565b610a6d915060203d602011610a73575b610a6581836103ee565b810190611264565b5f6109f9565b503d610a5b565b611273565b3461018e57604036600319011261018e57610a98610178565b602435908115159081830361018e576001600160a01b038116928315610b1f57610ae0610af192335f52600160205260405f209060018060a01b03165f5260205260405f2090565b9060ff801983541691151516179055565b6040519081527f17307eab39ab6107e8899845ad3d59bd9653f200f220920489ca2b5937696c3160203392a3005b62ced3e160e81b5f525f60045260245ffd5b3461018e57602036600319011261018e57600435610b4d611595565b805f52600760205260405f2060ff1981541690557f7af325d48818750f963839bd931e6a1023dd2ed672f2425c863d490424bb0dcf5f80a2005b3461018e57610b95366104fd565b5050505050602060405163bc197c8160e01b8152f35b3461018e57602036600319011261018e576004355f90815260066020818152604092839020805460018201546002830154600384015460048501546005860154959097015488516001600160a01b03909516855295840192909252958201959095526060810194909452608084019290925260a083019190915260ff16151560c082015260e090f35b3461018e5760c036600319011261018e57610323600435807ff98f99a84c31cfccf6240872934c51fe8f466029c84d2a505bd7e40fa45d1bff610c75610192565b60443590610d9f606435610d2760843560a435610c90611595565b610c9b8915156112ca565b610cba6001610cb28b5f52600660205260405f2090565b015415611309565b610cc587151561134e565b610cd96001600160a01b038716151561139a565b610ce1610415565b6001600160a01b038716815291876020840152846040840152606083015260808201525f60a08201525f60c0820152610d22885f52600660205260405f2090565b6113d7565b610d49610d3c875f52600760205260405f2090565b805460ff19166001179055565b85610d5c815f52600860205260405f2090565b55610d70610d6861144a565b858830611787565b604080518781526001600160a01b03909416602085015283019390935260608201929092529081906080820190565b0390a26040519081529081906020820190565b3461018e57604036600319011261018e57602060ff610e02610dd2610178565b610dda610192565b6001600160a01b039182165f9081526001865260408082209290931681526020919091522090565b54166040519015158152f35b3461018e57604036600319011261018e57602435600435610e2d61152c565b610e51610e4c610e45835f52600760205260405f2090565b5460ff1690565b61145e565b610e7282610e6a3061095a855f525f60205260405f2090565b54101561149f565b610e926003610e89835f52600660205260405f2090565b015442106114e1565b7f4baafac02d651b8886d3212cc69aff0fb3c687080a4fe86b0674563ac1493e82610a3e610ec8835f52600660205260405f2090565b6005610ed860028301548761122e565b8154909290610eff9084906001600160a01b031683546001600160a01b031690339061154c565b610f13610f0a61144a565b888833306118cb565b01610f1f82825461151f565b90556040805195865260208601919091523394918291820190565b60a060031982011261018e576004356001600160a01b038116810361018e57916024356001600160a01b038116810361018e579160443591606435916084359067ffffffffffffffff821161018e576102b9916004016104b7565b3461018e57610fa336610f3a565b5050505050602060405163f23a6e6160e01b8152f35b3461018e57610fc736610f3a565b6001600160a01b038516949093919291903386141580611007575b610ff0576105ce95506118cb565b8563711bec9160e11b5f523360045260245260445ffd5b505f86815260016020908152604080832033845290915290205460ff1615610fe2565b3461018e57602036600319011261018e57611043610178565b61104b611595565b6001600160a01b0316801561109d57600380546001600160a01b0319811683179091556001600160a01b03167f8be0079c531659141344cd1fd0a4f28419497f9722a3daafe3b4186f6b6457e05f80a3005b631e4fbdf760e01b5f525f60045260245ffd5b80518210156110c45760209160051b010190565b634e487b7160e01b5f52603260045260245ffd5b919091805183518082036111775750508051906110f482610426565b9161110260405193846103ee565b808352611111601f1991610426565b013660208401375f5b8151811015611170578061115f60019260051b60208082870101519189010151905f918252602082815260408084206001600160a01b03909316845291905290205490565b61116982866110b0565b520161111a565b5090925050565b635b05999160e01b5f5260045260245260445ffd5b1561119357565b60405162461bcd60e51b815260206004820152601a60248201527f52657061796d656e74206e6f74207965742072656365697665640000000000006044820152606490fd5b156111df57565b60405162461bcd60e51b81526020600482015260136024820152724e6f20746f6b656e7320746f2072656465656d60681b6044820152606490fd5b634e487b7160e01b5f52601160045260245ffd5b8181029291811591840414171561124157565b61121a565b8115611250570490565b634e487b7160e01b5f52601260045260245ffd5b9081602091031261018e575190565b6040513d5f823e3d90fd5b1561128557565b60405162461bcd60e51b815260206004820152601b60248201527f436f6e747261637420696e73756666696369656e742066756e647300000000006044820152606490fd5b156112d157565b60405162461bcd60e51b815260206004820152601060248201526f125b9d985b1a5908151bdad95b88125160821b6044820152606490fd5b1561131057565b60405162461bcd60e51b8152602060048201526016602482015275496e766f69636520616c72656164792065786973747360501b6044820152606490fd5b1561135557565b60405162461bcd60e51b815260206004820152601760248201527f496e76616c696420746f74616c206672616374696f6e730000000000000000006044820152606490fd5b156113a157565b60405162461bcd60e51b815260206004820152600e60248201526d24b73b30b634b21039b2b63632b960911b6044820152606490fd5b815181546001600160a01b0319166001600160a01b03919091161781556020820151600182015560408201516002820155606082015160038201556080820151600482015560a0820151600582015560c091909101516104249190600690151591019060ff801983541691151516179055565b604051906114596020836103ee565b5f8252565b1561146557565b60405162461bcd60e51b8152602060048201526012602482015271496e766f696365206e6f742061637469766560701b6044820152606490fd5b156114a657565b60405162461bcd60e51b8152602060048201526013602482015272496e73756666696369656e7420737570706c7960681b6044820152606490fd5b156114e857565b60405162461bcd60e51b815260206004820152600f60248201526e125b9d9bda58d948195e1c1a5c9959608a1b6044820152606490fd5b9190820180921161124157565b60026004541461153d576002600455565b633ee5aeb560e01b5f5260045ffd5b6040516323b872dd60e01b60208201526001600160a01b039283166024820152929091166044830152606480830193909352918152610424916115906084836103ee565b611af3565b6003546001600160a01b031633036115a957565b63118cdaa760e01b5f523360045260245ffd5b926001600160a01b0384169290919083156105d0576115f860405192600184526020840152604083019160018352606084015260808301604052565b91906020915f60405161160b85826103ee565b5281518451908181036117375750505f5b82518110156116ac578060051b84808286010151918701015161164a8961095a845f525f60205260405f2090565b54818110611675578961095a600195949361166e9303935f525f60205260405f2090565b550161161c565b6040516303dee4c560e01b81526001600160a01b038b16600482015260248101919091526044810182905260648101839052608490fd5b50945090915f939260018351148514611703579182015191015160408051928352602083019190915233917fc3d58168c5ae7397731d063d5bbf3d657854427343f4c083240f7aacaa2d0f6291819081015b0390a4565b506116fe7f4a39dc06d4c0dbc64b70af90fd698a233a518aa5d07e595d983b8c0526c8f7fb91604051918291339583611b4b565b635b05999160e01b5f5260045260245260445ffd5b60405163a9059cbb60e01b60208201526001600160a01b039092166024830152604480830193909352918152610424916115906064836103ee565b6001600160a01b038116939290919084156105e2576117c360405192600184526020840152604083019160018352606084015260808301604052565b9281518451908181036117375750505f5b8251811015611819578060019160051b6118116118098761095a602080868b010151958c010151945f525f60205260405f2090565b91825461151f565b9055016117d4565b5092919360018251145f14611890576020828101518482015160408051928352928201525f9133917fc3d58168c5ae7397731d063d5bbf3d657854427343f4c083240f7aacaa2d0f629190a45b8051600103611885579060208061042495930151910151915f33611d36565b610424935f33611c07565b5f6040517f4a39dc06d4c0dbc64b70af90fd698a233a518aa5d07e595d983b8c0526c8f7fb3391806118c3888883611b4b565b0390a4611866565b92939290916001600160a01b038316156105e2576001600160a01b038216156105d0576104249461191960405192600184526020840152604083019160018352606084015260808301604052565b9290915b94939290919384518251908181036117375750506001600160a01b038681169586151595918516801515939192905f5b8451811015611a26578060051b90898988602080868b010151958c010151926119a5575b93600194611983575b5050500161194d565b61199b9161095a611809925f525f60205260405f2090565b90555f898161197a565b505090916119be8d61095a835f525f60205260405f2090565b548281106119ef578291898f6119e6600197968f95039161095a855f525f60205260405f2090565b55909450611971565b6040516303dee4c560e01b81526001600160a01b038f16600482015260248101919091526044810183905260648101829052608490fd5b5091989593929790965060018851145f14611ab95760208881015186820151604080519283529282015233917fc3d58168c5ae7397731d063d5bbf3d657854427343f4c083240f7aacaa2d0f6291a45b611a82575b5050505050565b8451600103611aa857602080611a9e9601519201519233611d36565b5f80808080611a7b565b611ab494919233611c07565b611a9e565b6040517f4a39dc06d4c0dbc64b70af90fd698a233a518aa5d07e595d983b8c0526c8f7fb339180611aeb898d83611b4b565b0390a4611a76565b905f602091828151910182855af115611273575f513d611b4257506001600160a01b0381163b155b611b225750565b635274afe760e01b5f9081526001600160a01b0391909116600452602490fd5b60011415611b1b565b9091611b626102b993604084526040840190610746565b916020818403910152610746565b9081602091031261018e57516102b981610204565b6001600160a01b0391821681529116602082015260a0604082018190526102b99491939192611bca9291611bbc9190860190610746565b908482036060860152610746565b916080818403910152610284565b3d15611c02573d90611be98261049b565b91611bf760405193846103ee565b82523d5f602084013e565b606090565b9091949293853b611c1b575b505050505050565b602093611c3d91604051968795869563bc197c8160e01b875260048701611b85565b03815f6001600160a01b0387165af15f9181611ccc575b50611c8e5750611c62611bd8565b8051919082611c8757632bfa23e760e11b5f526001600160a01b03821660045260245ffd5b6020915001fd5b6001600160e01b0319166343e6837f60e01b01611cb157505f8080808080611c13565b632bfa23e760e11b5f526001600160a01b031660045260245ffd5b611cef91925060203d602011611cf6575b611ce781836103ee565b810190611b70565b905f611c54565b503d611cdd565b6001600160a01b039182168152911660208201526040810191909152606081019190915260a0608082018190526102b992910190610284565b9091949293853b611d4957505050505050565b602093611d6b91604051968795869563f23a6e6160e01b875260048701611cfd565b03815f6001600160a01b0387165af15f9181611db3575b50611d905750611c62611bd8565b6001600160e01b031916630dc5919f60e01b01611cb157505f8080808080611c13565b611dcd91925060203d602011611cf657611ce781836103ee565b905f611d8256fea2646970667358221220dc956f0221843299a02c270cba114c1a32c8468a2572a6c4daf56a7471ef1c4a64736f6c634300081c0033",
  "linkReferences": {},
  "deployedLinkReferences": {}
}