{
  "_format": "hh-sol-artifact-1",
  "contractName": "FractionToken",
  "sourceName": "contracts/FractionToken.sol",
  "abi": [
    {
      "inputs": [
        {
          "internalType": "address",
          "name": "_paymentToken",
          "type": "address"
        }
      ],
      "stateMutability": "nonpayable",
      "type": "constructor"
    },
    {
      "inputs": [
        {
          "internalType": "address",
          "name": "sender",
          "type": "address"
        },
        {
          "internalType": "uint256",
          "name": "balance",
          "type": "uint256"
        },
        {
          "internalType": "uint256",
          "name": "needed",
          "type": "uint256"
        },
        {
          "internalType": "uint256",
          "name": "tokenId",
          "type": "uint256"
        }
      ],
      "name": "ERC1155InsufficientBalance",
      "type": "error"
    },
    {
      "inputs": [
        {
          "internalType": "address",
          "name": "approver",
          "type": "address"
        }
      ],
      "name": "ERC1155InvalidApprover",
      "type": "error"
    },
    {
      "inputs": [
        {
          "internalType": "uint256",
          "name": "idsLength",
          "type": "uint256"
        },
        {
          "internalType": "uint256",
          "name": "valuesLength",
          "type": "uint256"
        }
      ],
      "name": "ERC1155InvalidArrayLength",
      "type": "error"
    },
    {
      "inputs": [
        {
          "internalType": "address",
          "name": "operator",
          "type": "address"
        }
      ],
      "name": "ERC1155InvalidOperator",
      "type": "error"
    },
    {
      "inputs": [
        {
          "internalType": "address",
          "name": "receiver",
          "type": "address"
        }
      ],
      "name": "ERC1155InvalidReceiver",
      "type": "error"
    },
    {
      "inputs": [
        {
          "internalType": "address",
          "name": "sender",
          "type": "address"
        }
      ],
      "name": "ERC1155InvalidSender",
      "type": "error"
    },
    {
      "inputs": [
        {
          "internalType": "address",
          "name": "operator",
          "type": "address"
        },
        {
          "internalType": "address",
          "name": "owner",
          "type": "address"
        }
      ],
      "name": "ERC1155MissingApprovalForAll",
      "type": "error"
    },
    {
      "inputs": [
        {
          "internalType": "address",
          "name": "owner",
          "type": "address"
        }
      ],
      "name": "OwnableInvalidOwner",
      "type": "error"
    },
    {
      "inputs": [
        {
          "internalType": "address",
          "name": "account",
          "type": "address"
        }
      ],
      "name": "OwnableUnauthorizedAccount",
      "type": "error"
    },
    {
      "inputs": [],
      "name": "ReentrancyGuardReentrantCall",
      "type": "error"
    },
    {
      "inputs": [
        {
          "internalType": "address",
          "name": "token",
          "type": "address"
        }
      ],
      "name": "SafeERC20FailedOperation",
      "type": "error"
    },
    {
      "anonymous": false,
      "inputs": [
        {
          "indexed": true,
          "internalType": "address",
          "name": "account",
          "type": "address"
        },
        {
          "indexed": true,
          "internalType": "address",
          "name": "operator",
          "type": "address"
        },
        {
          "indexed": false,
          "internalType": "bool",
          "name": "approved",
          "type": "bool"
        }
      ],
      "name": "ApprovalForAll",
      "type": "event"
    },
    {
      "anonymous": false,
      "inputs": [
        {
          "indexed": true,
          "internalType": "uint256",
          "name": "tokenId",
          "type": "uint256"
        },
        {
          "indexed": true,
          "internalType": "address",
          "name": "buyer",
          "type": "address"
        },
        {
          "indexed": false,
          "internalType": "uint256",
          "name": "amount",
          "type": "uint256"
        },
        {
          "indexed": false,
          "internalType": "uint256",
          "name": "totalCost",
          "type": "uint256"
        }
      ],
      "name": "FractionsPurchased",
      "type": "event"
    },
    {
      "anonymous": false,
      "inputs": [
        {
          "indexed": true,
          "internalType": "uint256",
          "name": "tokenId",
          "type": "uint256"
        },
        {
          "indexed": true,
          "internalType": "address",
          "name": "redeemer",
          "type": "address"
        },
        {
          "indexed": false,
          "internalType": "uint256",
          "name": "amount",
          "type": "uint256"
        },
        {
          "indexed": false,
          "internalType": "uint256",
          "name": "payout",
          "type": "uint256"
        }
      ],
      "name": "FractionsRedeemed",
      "type": "event"
    },
    {
      "anonymous": false,
      "inputs": [
        {
          "indexed": true,
          "internalType": "uint256",
          "name": "tokenId",
          "type": "uint256"
        }
      ],
      "name": "InvoiceClosed",
      "type": "event"
    },
    {
      "anonymous": false,
      "inputs": [
        {
          "indexed": true,
          "internalType": "bytes32",
          "name": "invoiceId",
          "type": "bytes32"
        },
        {
          "indexed": false,
          "internalType": "uint256",
          "name": "tokenId",
          "type": "uint256"
        },
        {
          "indexed": false,
          "internalType": "address",
          "name": "seller",
          "type": "address"
        },
        {
          "indexed": false,
          "internalType": "uint256",
          "name": "totalFractions",
          "type": "uint256"
        },
        {
          "indexed": false,
          "internalType": "uint256",
          "name": "pricePerFraction",
          "type": "uint256"
        }
      ],
      "name": "InvoiceFractionalized",
      "type": "event"
    },
    {
      "anonymous": false,
      "inputs": [
        {
          "indexed": true,
          "internalType": "address",
          "name": "previousOwner",
          "type": "address"
        },
        {
          "indexed": true,
          "internalType": "address",
          "name": "newOwner",
          "type": "address"
        }
      ],
      "name": "OwnershipTransferred",
      "type": "event"
    },
    {
      "anonymous": false,
      "inputs": [
        {
          "indexed": true,
          "internalType": "uint256",
          "name": "tokenId",
          "type": "uint256"
        },
        {
          "indexed": false,
          "internalType": "uint256",
          "name": "amount",
          "type": "uint256"
        }
      ],
      "name": "RepaymentReceived",
      "type": "event"
    },
    {
      "anonymous": false,
      "inputs": [
        {
          "indexed": true,
          "internalType": "address",
          "name": "operator",
          "type": "address"
        },
        {
          "indexed": true,
          "internalType": "address",
          "name": "from",
          "type": "address"
        },
        {
          "indexed": true,
          "internalType": "address",
          "name": "to",
          "type": "address"
        },
        {
          "indexed": false,
          "internalType": "uint256[]",
          "name": "ids",
          "type": "uint256[]"
        },
        {
          "indexed": false,
          "internalType": "uint256[]",
          "name": "values",
          "type": "uint256[]"
        }
      ],
      "name": "TransferBatch",
      "type": "event"
    },
    {
      "anonymous": false,
      "inputs": [
        {
          "indexed": true,
          "internalType": "address",
          "name": "operator",
          "type": "address"
        },
        {
          "indexed": true,
          "internalType": "address",
          "name": "from",
          "type": "address"
        },
        {
          "indexed": true,
          "internalType": "address",
          "name": "to",
          "type": "address"
        },
        {
          "indexed": false,
          "internalType": "uint256",
          "name": "id",
          "type": "uint256"
        },
        {
          "indexed": false,
          "internalType": "uint256",
          "name": "value",
          "type": "uint256"
        }
      ],
      "name": "TransferSingle",
      "type": "event"
    },
    {
      "anonymous": false,
      "inputs": [
        {
          "indexed": false,
          "internalType": "string",
          "name": "value",
          "type": "string"
        },
        {
          "indexed": true,
          "internalType": "uint256",
          "name": "id",
          "type": "uint256"
        }
      ],
      "name": "URI",
      "type": "event"
    },
    {
      "inputs": [
        {
          "internalType": "address",
          "name": "account",
          "type": "address"
        },
        {
          "internalType": "uint256",
          "name": "id",
          "type": "uint256"
        }
      ],
      "name": "balanceOf",
      "outputs": [
        {
          "internalType": "uint256",
          "name": "",
          "type": "uint256"
        }
      ],
      "stateMutability": "view",
      "type": "function"
    },
    {
      "inputs": [
        {
          "internalType": "address[]",
          "name": "accounts",
          "type": "address[]"
        },
        {
          "internalType": "uint256[]",
          "name": "ids",
          "type": "uint256[]"
        }
      ],
      "name": "balanceOfBatch",
      "outputs": [
        {
          "internalType": "uint256[]",
          "name": "",
          "type": "uint256[]"
        }
      ],
      "stateMutability": "view",
      "type": "function"
    },
    {
      "inputs": [
        {
          "internalType": "uint256",
          "name": "_tokenId",
          "type": "uint256"
        },
        {
          "internalType": "uint256",
          "name": "_amount",
          "type": "uint256"
        }
      ],
      "name": "buyFractions",
      "outputs": [],
      "stateMutability": "nonpayable",
      "type": "function"
    },
    {
      "inputs": [
        {
          "internalType": "uint256",
          "name": "_tokenId",
          "type": "uint256"
        }
      ],
      "name": "closeInvoice",
      "outputs": [],
      "stateMutability": "nonpayable",
      "type": "function"
    },
    {
      "inputs": [
        {
          "internalType": "uint256",
          "name": "_tokenId",
          "type": "uint256"
        },
        {
          "internalType": "uint256",
          "name": "_amount",
          "type": "uint256"
        }
      ],
      "name": "depositRepayment",
      "outputs": [],
      "stateMutability": "nonpayable",
      "type": "function"
    },
    {
      "inputs": [
        {
          "internalType": "uint256",
          "name": "",
          "type": "uint256"
        }
      ],
      "name": "invoiceMetadata",
      "outputs": [
        {
          "internalType": "address",
          "name": "seller",
          "type": "address"
        },
        {
          "internalType": "uint256",
          "name": "totalFractions",
          "type": "uint256"
        },
        {
          "internalType": "uint256",
          "name": "pricePerFraction",
          "type": "uint256"
        },
        {
          "internalType": "uint256",
          "name": "maturityDate",
          "type": "uint256"
        },
        {
          "internalType": "uint256",
          "name": "totalValue",
          "type": "uint256"
        },
        {
          "internalType": "uint256",
          "name": "financedAmount",
          "type": "uint256"
        },
        {
          "internalType": "bool",
          "name": "repaymentFunded",
          "type": "bool"
        },
        {
          "internalType": "uint256",
          "name": "yieldBps",
          "type": "uint256"
        }
      ],
      "stateMutability": "view",
      "type": "function"
    },
    {
      "inputs": [
        {
          "internalType": "bytes32",
          "name": "",
          "type": "bytes32"
        }
      ],
      "name": "invoiceToTokenId",
      "outputs": [
        {
          "internalType": "uint256",
          "name": "",
          "type": "uint256"
        }
      ],
      "stateMutability": "view",
      "type": "function"
    },
    {
      "inputs": [
        {
          "internalType": "uint256",
          "name": "",
          "type": "uint256"
        }
      ],
      "name": "isActive",
      "outputs": [
        {
          "internalType": "bool",
          "name": "",
          "type": "bool"
        }
      ],
      "stateMutability": "view",
      "type": "function"
    },
    {
      "inputs": [
        {
          "internalType": "address",
          "name": "account",
          "type": "address"
        },
        {
          "internalType": "address",
          "name": "operator",
          "type": "address"
        }
      ],
      "name": "isApprovedForAll",
      "outputs": [
        {
          "internalType": "bool",
          "name": "",
          "type": "bool"
        }
      ],
      "stateMutability": "view",
      "type": "function"
    },
    {
      "inputs": [
        {
          "internalType": "address",
          "name": "",
          "type": "address"
        },
        {
          "internalType": "address",
          "name": "",
          "type": "address"
        },
        {
          "internalType": "uint256[]",
          "name": "",
          "type": "uint256[]"
        },
        {
          "internalType": "uint256[]",
          "name": "",
          "type": "uint256[]"
        },
        {
          "internalType": "bytes",
          "name": "",
          "type": "bytes"
        }
      ],
      "name": "onERC1155BatchReceived",
      "outputs": [
        {
          "internalType": "bytes4",
          "name": "",
          "type": "bytes4"
        }
      ],
      "stateMutability": "nonpayable",
      "type": "function"
    },
    {
      "inputs": [
        {
          "internalType": "address",
          "name": "",
          "type": "address"
        },
        {
          "internalType": "address",
          "name": "",
          "type": "address"
        },
        {
          "internalType": "uint256",
          "name": "",
          "type": "uint256"
        },
        {
          "internalType": "uint256",
          "name": "",
          "type": "uint256"
        },
        {
          "internalType": "bytes",
          "name": "",
          "type": "bytes"
        }
      ],
      "name": "onERC1155Received",
      "outputs": [
        {
          "internalType": "bytes4",
          "name": "",
          "type": "bytes4"
        }
      ],
      "stateMutability": "nonpayable",
      "type": "function"
    },
    {
      "inputs": [],
      "name": "owner",
      "outputs": [
        {
          "internalType": "address",
          "name": "",
          "type": "address"
        }
      ],
      "stateMutability": "view",
      "type": "function"
    },
    {
      "inputs": [],
      "name": "paymentToken",
      "outputs": [
        {
          "internalType": "contract IERC20",
          "name": "",
          "type": "address"
        }
      ],
      "stateMutability": "view",
      "type": "function"
    },
    {
      "inputs": [
        {
          "internalType": "uint256",
          "name": "_tokenId",
          "type": "uint256"
        }
      ],
      "name": "redeemFractions",
      "outputs": [],
      "stateMutability": "nonpayable",
      "type": "function"
    },
    {
      "inputs": [],
      "name": "renounceOwnership",
      "outputs": [],
      "stateMutability": "nonpayable",
      "type": "function"
    },
    {
      "inputs": [
        {
          "internalType": "address",
          "name": "from",
          "type": "address"
        },
        {
          "internalType": "address",
          "name": "to",
          "type": "address"
        },
        {
          "internalType": "uint256[]",
          "name": "ids",
          "type": "uint256[]"
        },
        {
          "internalType": "uint256[]",
          "name": "values",
          "type": "uint256[]"
        },
        {
          "internalType": "bytes",
          "name": "data",
          "type": "bytes"
        }
      ],
      "name": "safeBatchTransferFrom",
      "outputs": [],
      "stateMutability": "nonpayable",
      "type": "function"
    },
    {
      "inputs": [
        {
          "internalType": "address",
          "name": "from",
          "type": "address"
        },
        {
          "internalType": "address",
          "name": "to",
          "type": "address"
        },
        {
          "internalType": "uint256",
          "name": "id",
          "type": "uint256"
        },
        {
          "internalType": "uint256",
          "name": "value",
          "type": "uint256"
        },
        {
          "internalType": "bytes",
          "name": "data",
          "type": "bytes"
        }
      ],
      "name": "safeTransferFrom",
      "outputs": [],
      "stateMutability": "nonpayable",
      "type": "function"
    },
    {
      "inputs": [
        {
          "internalType": "address",
          "name": "operator",
          "type": "address"
        },
        {
          "internalType": "bool",
          "name": "approved",
          "type": "bool"
        }
      ],
      "name": "setApprovalForAll",
      "outputs": [],
      "stateMutability": "nonpayable",
      "type": "function"
    },
    {
      "inputs": [
        {
          "internalType": "bytes4",
          "name": "interfaceId",
          "type": "bytes4"
        }
      ],
      "name": "supportsInterface",
      "outputs": [
        {
          "internalType": "bool",
          "name": "",
          "type": "bool"
        }
      ],
      "stateMutability": "view",
      "type": "function"
    },
    {
      "inputs": [
        {
          "internalType": "uint256",
          "name": "tokenId",
          "type": "uint256"
        }
      ],
      "name": "tokenDetails",
      "outputs": [
        {
          "components": [
            {
              "internalType": "bytes32",
              "name": "invoiceId",
              "type": "bytes32"
            },
            {
              "internalType": "uint256",
              "name": "totalSupply",
              "type": "uint256"
            },
            {
              "internalType": "uint256",
              "name": "remainingSupply",
              "type": "uint256"
            },
            {
              "internalType": "uint256",
              "name": "faceValue",
              "type": "uint256"
            },
            {
              "internalType": "uint256",
              "name": "maturityDate",
              "type": "uint256"
            },
            {
              "internalType": "address",
              "name": "issuer",
              "type": "address"
            },
            {
              "internalType": "bool",
              "name": "isRedeemed",
              "type": "bool"
            },
            {
              "internalType": "uint256",
              "name": "yieldBps",
              "type": "uint256"
            }
          ],
          "internalType": "struct FractionToken.TokenDetails",
          "name": "",
          "type": "tuple"
        }
      ],
      "stateMutability": "view",
      "type": "function"
    },
    {
      "inputs": [
        {
          "internalType": "bytes32",
          "name": "_invoiceId",
          "type": "bytes32"
        },
        {
          "internalType": "address",
          "name": "_seller",
          "type": "address"
        },
        {
          "internalType": "uint256",
          "name": "_totalFractions",
          "type": "uint256"
        },
        {
          "internalType": "uint256",
          "name": "_pricePerFraction",
          "type": "uint256"
        },
        {
          "internalType": "uint256",
          "name": "_maturityDate",
          "type": "uint256"
        },
        {
          "internalType": "uint256",
          "name": "_totalValue",
          "type": "uint256"
        },
        {
          "internalType": "uint256",
          "name": "_yieldBps",
          "type": "uint256"
        }
      ],
      "name": "tokenizeInvoice",
      "outputs": [
        {
          "internalType": "uint256",
          "name": "",
          "type": "uint256"
        }
      ],
      "stateMutability": "nonpayable",
      "type": "function"
    },
    {
      "inputs": [
        {
          "internalType": "address",
          "name": "newOwner",
          "type": "address"
        }
      ],
      "name": "transferOwnership",
      "outputs": [],
      "stateMutability": "nonpayable",
      "type": "function"
    },
    {
      "inputs": [
        {
          "internalType": "uint256",
          "name": "",
          "type": "uint256"
        }
      ],
      "name": "uri",
      "outputs": [
        {
          "internalType": "string",
          "name": "",
          "type": "string"
        }
      ],
      "stateMutability": "view",
      "type": "function"
    }
  ],
  "bytecode": "0x60806040523461028257604051601f6122a738819003918201601f19168301916001600160401b0383118484101761026e5780849260209460405283398101031261028257516001600160a01b0381169081900361028257604051606081016001600160401b0381118282101761026e57604052602b81527f68747470733a2f2f6170692e66696e6f766174657061792e636f6d2f746f6b6560208201526a3717bdb4b23e973539b7b760a91b6040820152600254600190600181811c91168015610264575b602082101461025057601f81116101eb575b505060209060025f52815f20915f5b602081106101d3575001516001600160a81b0319169055605760025533156101c05760038054336001600160a01b03198216811790925560405191906001600160a01b03167f8be0079c531659141344cd1fd0a4f28419497f9722a3daafe3b4186f6b6457e05f80a36001600455811561017e5750600580546001600160a01b03191691909117905560405161202090816102878239f35b62461bcd60e51b815260206004820152601560248201527f496e76616c6964207061796d656e7420746f6b656e00000000000000000000006044820152606490fd5b631e4fbdf760e01b5f525f60045260245ffd5b909260206001819286860151815501940191016100e6565b60025f52601f0160051c7f405787fa12a823e0f2b7631cc41b3ba8828b3321ca811111fa75cd3aa3bb5ace017f405787fa12a823e0f2b7631cc41b3ba8828b3321ca811111fa75cd3aa3bb5ad05b81811061024657506100d7565b5f81558201610239565b634e487b7160e01b5f52602260045260245ffd5b90607f16906100c5565b634e487b7160e01b5f52604160045260245ffd5b5f80fdfe60806040526004361015610011575f80fd5b5f3560e01c8062fdd58e1461018357806301ffc9a71461017e5780630e89341c1461017957806312589e19146101745780632eb2c2d61461016f5780633013ce291461016a5780633edced5d146101655780634e1273f414610160578063715018a61461015b57806382afd23b146101565780638da5cb5b146101515780639c0eb4521461014c578063a22cb46514610147578063aa638c7814610142578063acd63a4e1461013d578063bc197c8114610138578063d355a14014610133578063e985e9c51461012e578063ea37027614610129578063f23a6e6114610124578063f242432a1461011f578063f2fde38b1461011a5763fc314e3114610115575f80fd5b6110d3565b61104d565b610fdc565b610fb8565b610e31565b610dd5565b610d42565b610d1e565b610b98565b610b42565b610a90565b61090e565b6108e6565b6108b7565b61085c565b61079b565b610667565b61063f565b610598565b6103c0565b6102cc565b610226565b6101cc565b600435906001600160a01b038216820361019e57565b5f80fd5b602435906001600160a01b038216820361019e57565b35906001600160a01b038216820361019e57565b3461019e57604036600319011261019e57602061020b6101ea610188565b6024355f525f835260405f209060018060a01b03165f5260205260405f2090565b54604051908152f35b6001600160e01b031981160361019e57565b3461019e57602036600319011261019e57602060043561024581610214565b63ffffffff60e01b16636cdb3d1360e11b8114908115610283575b8115610272575b506040519015158152f35b6301ffc9a760e01b1490505f610267565b6303a24d0760e21b81149150610260565b805180835260209291819084018484015e5f828201840152601f01601f1916010190565b9060206102c9928181520190610294565b90565b3461019e57602036600319011261019e576040515f6002548060011c90600181169081156103b6575b6020831082146103a25782855260208501919081156103895750600114610337575b61033384610327818603826103fe565b604051918291826102b8565b0390f35b60025f9081529250907f405787fa12a823e0f2b7631cc41b3ba8828b3321ca811111fa75cd3aa3bb5ace5b8184106103755750500161032782610317565b805484840152602090930192600101610362565b60ff191682525090151560051b01905061032782610317565b634e487b7160e01b5f52602260045260245ffd5b91607f16916102f5565b3461019e57602036600319011261019e576004355f526008602052602060405f2054604051908152f35b634e487b7160e01b5f52604160045260245ffd5b90601f8019910116810190811067ffffffffffffffff82111761042057604052565b6103ea565b60405190610435610100836103fe565b565b67ffffffffffffffff81116104205760051b60200190565b9080601f8301121561019e57813561046681610437565b9261047460405194856103fe565b81845260208085019260051b82010192831161019e57602001905b82821061049c5750505090565b813581526020918201910161048f565b67ffffffffffffffff811161042057601f01601f191660200190565b81601f8201121561019e578035906104df826104ac565b926104ed60405194856103fe565b8284526020838301011161019e57815f926020809301838601378301015290565b60a060031982011261019e576004356001600160a01b038116810361019e579161053860246101b8565b9160443567ffffffffffffffff811161019e57816105589160040161044f565b9160643567ffffffffffffffff811161019e57826105789160040161044f565b916084359067ffffffffffffffff821161019e576102c9916004016104c8565b3461019e576105a63661050e565b929091906001600160a01b038516338114158061061c575b610606576001600160a01b038216156105f357156105e1576105df94611b33565b005b626a0d4560e21b5f525f60045260245ffd5b632bfa23e760e11b5f525f60045260245ffd5b63711bec9160e11b5f523360045260245260445ffd5b505f81815260016020908152604080832033845290915290205460ff16156105be565b3461019e575f36600319011261019e576005546040516001600160a01b039091168152602090f35b3461019e57604036600319011261019e57600435602435610686611742565b815f52600660205260405f2060018101541561071e576005547f93779ca16187e897d4f01a19100fe66162991c20afb461c7e2628809196deb0d926106fd9290916106df9083906001600160a01b031630903390611762565b600481015482101561070a575b506040519081529081906020820190565b0390a26105df6001600455565b600601805460ff191660011790555f6106ec565b60405162461bcd60e51b8152602060048201526011602482015270125b9d9bda58d9481b9bdd08199bdd5b99607a1b6044820152606490fd5b90602080835192838152019201905f5b8181106107745750505090565b8251845260209384019390920191600101610767565b9060206102c9928181520190610757565b3461019e57604036600319011261019e5760043567ffffffffffffffff811161019e573660238201121561019e578060040135906107d882610437565b916107e660405193846103fe565b8083526024602084019160051b8301019136831161019e57602401905b828210610844578360243567ffffffffffffffff811161019e576103339161083261083892369060040161044f565b90611224565b6040519182918261078a565b60208091610851846101b8565b815201910190610803565b3461019e575f36600319011261019e576108746117ab565b600380546001600160a01b031981169091555f906001600160a01b03167f8be0079c531659141344cd1fd0a4f28419497f9722a3daafe3b4186f6b6457e08280a3005b3461019e57602036600319011261019e576004355f526007602052602060ff60405f2054166040519015158152f35b3461019e575f36600319011261019e576003546040516001600160a01b039091168152602090f35b3461019e57602036600319011261019e5760043561092a611742565b61093c815f52600660205260405f2090565b9061095361094e600684015460ff1690565b6112d8565b6109a66109803361096b845f525f60205260405f2090565b9060018060a01b03165f5260205260405f2090565b549261098d841515611324565b600161099d60048301548661137a565b91015490611392565b6005546001600160a01b03166040516370a0823160e01b815230600482015290602090829060249082905afa918215610a8b57610a12817faa25b05279c268df11c4b41fd890364cf6feef59858671a91a4f0d4005c5bdf694610a4f945f91610a5c575b5010156113ca565b610a1d8585336117d2565b600554610a3690829033906001600160a01b0316611962565b6040805195865260208601919091523394918291820190565b0390a36105df6001600455565b610a7e915060203d602011610a84575b610a7681836103fe565b8101906113b0565b5f610a0a565b503d610a6c565b6113bf565b3461019e57604036600319011261019e57610aa9610188565b602435908115159081830361019e576001600160a01b038116928315610b3057610af1610b0292335f52600160205260405f209060018060a01b03165f5260205260405f2090565b9060ff801983541691151516179055565b6040519081527f17307eab39ab6107e8899845ad3d59bd9653f200f220920489ca2b5937696c3160203392a3005b62ced3e160e81b5f525f60045260245ffd5b3461019e57602036600319011261019e57600435610b5e6117ab565b805f52600760205260405f2060ff1981541690557f7af325d48818750f963839bd931e6a1023dd2ed672f2425c863d490424bb0dcf5f80a2005b3461019e5760e036600319011261019e57610333600435807ff98f99a84c31cfccf6240872934c51fe8f466029c84d2a505bd7e40fa45d1bff610bd96101a2565b60443590610d0b606435610c9360843560c43560a435610bf76117ab565b610c028a1515611416565b610c216001610c198c5f52600660205260405f2090565b015415611455565b610c2c88151561149a565b610c406001600160a01b03881615156114e6565b610c48610425565b6001600160a01b038816815292886020850152856040850152606084015260808301525f60a08301525f60c083015260e0820152610c8e885f52600660205260405f2090565b611523565b610cb5610ca8875f52600760205260405f2090565b805460ff19166001179055565b85610cc8815f52600860205260405f2090565b55610cdc610cd46115a4565b85883061199d565b604080518781526001600160a01b03909416602085015283019390935260608201929092529081906080820190565b0390a26040519081529081906020820190565b3461019e57610d2c3661050e565b5050505050602060405163bc197c8160e01b8152f35b3461019e57602036600319011261019e576004355f908152600660208181526040928390208054600182015460028301546003840154600485015460058601549786015460079096015489516001600160a01b03909616865296850193909352968301526060820195909552608081019490945260a084019290925260ff909116151560c083015260e082015261010090f35b3461019e57604036600319011261019e57602060ff610e25610df5610188565b610dfd6101a2565b6001600160a01b039182165f9081526001865260408082209290931681526020919091522090565b54166040519015158152f35b3461019e57604036600319011261019e57602435600435610e50611742565b610e74610e6f610e68835f52600760205260405f2090565b5460ff1690565b6115b8565b610e9582610e8d3061096b855f525f60205260405f2090565b5410156115f9565b610eb56003610eac835f52600660205260405f2090565b0154421061163b565b7f4baafac02d651b8886d3212cc69aff0fb3c687080a4fe86b0674563ac1493e82610a4f610eeb835f52600660205260405f2090565b6005610efb60028301548761137a565b8154909290610f229084906001600160a01b031683546001600160a01b0316903390611762565b610f36610f2d6115a4565b88883330611ae1565b01610f42828254611679565b90556040805195865260208601919091523394918291820190565b60a060031982011261019e576004356001600160a01b038116810361019e57916024356001600160a01b038116810361019e579160443591606435916084359067ffffffffffffffff821161019e576102c9916004016104c8565b3461019e57610fc636610f5d565b5050505050602060405163f23a6e6160e01b8152f35b3461019e57610fea36610f5d565b6001600160a01b03851694909391929190338614158061102a575b611013576105df9550611ae1565b8563711bec9160e11b5f523360045260245260445ffd5b505f86815260016020908152604080832033845290915290205460ff1615611005565b3461019e57602036600319011261019e57611066610188565b61106e6117ab565b6001600160a01b031680156110c057600380546001600160a01b0319811683179091556001600160a01b03167f8be0079c531659141344cd1fd0a4f28419497f9722a3daafe3b4186f6b6457e05f80a3005b631e4fbdf760e01b5f525f60045260245ffd5b3461019e57602036600319011261019e576103336004356110f2611686565b5061110d611108825f52600660205260405f2090565b6116d4565b61119360208201519161118a61112e3061096b875f525f60205260405f2090565b546080830151606084015184519091906001600160a01b03169260e061115760c0880151151590565b96015197611163610425565b998a5260208a01526040890152606088015260808701526001600160a01b031660a0860152565b151560c0840152565b60e08201526040519182918291909160e080610100830194805184526020810151602085015260408101516040850152606081015160608501526080810151608085015260018060a01b0360a08201511660a085015260c0810151151560c08501520151910152565b80518210156112105760209160051b010190565b634e487b7160e01b5f52603260045260245ffd5b919091805183518082036112c357505080519061124082610437565b9161124e60405193846103fe565b80835261125d601f1991610437565b013660208401375f5b81518110156112bc57806112ab60019260051b60208082870101519189010151905f918252602082815260408084206001600160a01b03909316845291905290205490565b6112b582866111fc565b5201611266565b5090925050565b635b05999160e01b5f5260045260245260445ffd5b156112df57565b60405162461bcd60e51b815260206004820152601a60248201527f52657061796d656e74206e6f74207965742072656365697665640000000000006044820152606490fd5b1561132b57565b60405162461bcd60e51b81526020600482015260136024820152724e6f20746f6b656e7320746f2072656465656d60681b6044820152606490fd5b634e487b7160e01b5f52601160045260245ffd5b8181029291811591840414171561138d57565b611366565b811561139c570490565b634e487b7160e01b5f52601260045260245ffd5b9081602091031261019e575190565b6040513d5f823e3d90fd5b156113d157565b60405162461bcd60e51b815260206004820152601b60248201527f436f6e747261637420696e73756666696369656e742066756e647300000000006044820152606490fd5b1561141d57565b60405162461bcd60e51b815260206004820152601060248201526f125b9d985b1a5908151bdad95b88125160821b6044820152606490fd5b1561145c57565b60405162461bcd60e51b8152602060048201526016602482015275496e766f69636520616c72656164792065786973747360501b6044820152606490fd5b156114a157565b60405162461bcd60e51b815260206004820152601760248201527f496e76616c696420746f74616c206672616374696f6e730000000000000000006044820152606490fd5b156114ed57565b60405162461bcd60e51b815260206004820152600e60248201526d24b73b30b634b21039b2b63632b960911b6044820152606490fd5b815181546001600160a01b0319166001600160a01b039091161781559060079060e0906020810151600185015560408101516002850155606081015160038501556080810151600485015560a0810151600585015561159d61158860c0830151151590565b600686019060ff801983541691151516179055565b0151910155565b604051906115b36020836103fe565b5f8252565b156115bf57565b60405162461bcd60e51b8152602060048201526012602482015271496e766f696365206e6f742061637469766560701b6044820152606490fd5b1561160057565b60405162461bcd60e51b8152602060048201526013602482015272496e73756666696369656e7420737570706c7960681b6044820152606490fd5b1561164257565b60405162461bcd60e51b815260206004820152600f60248201526e125b9d9bda58d948195e1c1a5c9959608a1b6044820152606490fd5b9190820180921161138d57565b60405190610100820182811067ffffffffffffffff821117610420576040525f60e0838281528260208201528260408201528260608201528260808201528260a08201528260c08201520152565b9060076116df610425565b83546001600160a01b031681529260018101546020850152600281015460408501526003810154606085015260048101546080850152600581015460a0850152611739611730600683015460ff1690565b151560c0860152565b015460e0830152565b600260045414611753576002600455565b633ee5aeb560e01b5f5260045ffd5b6040516323b872dd60e01b60208201526001600160a01b039283166024820152929091166044830152606480830193909352918152610435916117a66084836103fe565b611d09565b6003546001600160a01b031633036117bf57565b63118cdaa760e01b5f523360045260245ffd5b926001600160a01b0384169290919083156105e15761180e60405192600184526020840152604083019160018352606084015260808301604052565b91906020915f60405161182185826103fe565b52815184519081810361194d5750505f5b82518110156118c2578060051b8480828601015191870101516118608961096b845f525f60205260405f2090565b5481811061188b578961096b60019594936118849303935f525f60205260405f2090565b5501611832565b6040516303dee4c560e01b81526001600160a01b038b16600482015260248101919091526044810182905260648101839052608490fd5b50945090915f939260018351148514611919579182015191015160408051928352602083019190915233917fc3d58168c5ae7397731d063d5bbf3d657854427343f4c083240f7aacaa2d0f6291819081015b0390a4565b506119147f4a39dc06d4c0dbc64b70af90fd698a233a518aa5d07e595d983b8c0526c8f7fb91604051918291339583611d61565b635b05999160e01b5f5260045260245260445ffd5b60405163a9059cbb60e01b60208201526001600160a01b039092166024830152604480830193909352918152610435916117a66064836103fe565b6001600160a01b038116939290919084156105f3576119d960405192600184526020840152604083019160018352606084015260808301604052565b92815184519081810361194d5750505f5b8251811015611a2f578060019160051b611a27611a1f8761096b602080868b010151958c010151945f525f60205260405f2090565b918254611679565b9055016119ea565b5092919360018251145f14611aa6576020828101518482015160408051928352928201525f9133917fc3d58168c5ae7397731d063d5bbf3d657854427343f4c083240f7aacaa2d0f629190a45b8051600103611a9b579060208061043595930151910151915f33611f4c565b610435935f33611e1d565b5f6040517f4a39dc06d4c0dbc64b70af90fd698a233a518aa5d07e595d983b8c0526c8f7fb339180611ad9888883611d61565b0390a4611a7c565b92939290916001600160a01b038316156105f3576001600160a01b038216156105e15761043594611b2f60405192600184526020840152604083019160018352606084015260808301604052565b9290915b949392909193845182519081810361194d5750506001600160a01b038681169586151595918516801515939192905f5b8451811015611c3c578060051b90898988602080868b010151958c01015192611bbb575b93600194611b99575b50505001611b63565b611bb19161096b611a1f925f525f60205260405f2090565b90555f8981611b90565b50509091611bd48d61096b835f525f60205260405f2090565b54828110611c05578291898f611bfc600197968f95039161096b855f525f60205260405f2090565b55909450611b87565b6040516303dee4c560e01b81526001600160a01b038f16600482015260248101919091526044810183905260648101829052608490fd5b5091989593929790965060018851145f14611ccf5760208881015186820151604080519283529282015233917fc3d58168c5ae7397731d063d5bbf3d657854427343f4c083240f7aacaa2d0f6291a45b611c98575b5050505050565b8451600103611cbe57602080611cb49601519201519233611f4c565b5f80808080611c91565b611cca94919233611e1d565b611cb4565b6040517f4a39dc06d4c0dbc64b70af90fd698a233a518aa5d07e595d983b8c0526c8f7fb339180611d01898d83611d61565b0390a4611c8c565b905f602091828151910182855af1156113bf575f513d611d5857506001600160a01b0381163b155b611d385750565b635274afe760e01b5f9081526001600160a01b0391909116600452602490fd5b60011415611d31565b9091611d786102c993604084526040840190610757565b916020818403910152610757565b9081602091031261019e57516102c981610214565b6001600160a01b0391821681529116602082015260a0604082018190526102c99491939192611de09291611dd29190860190610757565b908482036060860152610757565b916080818403910152610294565b3d15611e18573d90611dff826104ac565b91611e0d60405193846103fe565b82523d5f602084013e565b606090565b9091949293853b611e31575b505050505050565b602093611e5391604051968795869563bc197c8160e01b875260048701611d9b565b03815f6001600160a01b0387165af15f9181611ee2575b50611ea45750611e78611dee565b8051919082611e9d57632bfa23e760e11b5f526001600160a01b03821660045260245ffd5b6020915001fd5b6001600160e01b0319166343e6837f60e01b01611ec757505f8080808080611e29565b632bfa23e760e11b5f526001600160a01b031660045260245ffd5b611f0591925060203d602011611f0c575b611efd81836103fe565b810190611d86565b905f611e6a565b503d611ef3565b6001600160a01b039182168152911660208201526040810191909152606081019190915260a0608082018190526102c992910190610294565b9091949293853b611f5f57505050505050565b602093611f8191604051968795869563f23a6e6160e01b875260048701611f13565b03815f6001600160a01b0387165af15f9181611fc9575b50611fa65750611e78611dee565b6001600160e01b031916630dc5919f60e01b01611ec757505f8080808080611e29565b611fe391925060203d602011611f0c57611efd81836103fe565b905f611f9856fea2646970667358221220f13a2ed1210fd0dc37ee3f60b3a049e5bbb16d4d8ee60667e88bc89654f9cabb64736f6c634300081c0033",
  "linkReferences": {},
  "deployedLinkReferences": {}
}