{
  "_format": "hh-sol-artifact-1",
  "contractName": "FractionToken",
  "sourceName": "contracts/FractionToken.sol",
  "abi": [
    {
      "inputs": [],
      "stateMutability": "nonpayable",
      "type": "constructor"
    },
    {
      "inputs": [
        {
          "internalType": "address",
          "name": "sender",
          "type": "address"
        },
        {
          "internalType": "uint256",
          "name": "balance",
          "type": "uint256"
        },
        {
          "internalType": "uint256",
          "name": "needed",
          "type": "uint256"
        },
        {
          "internalType": "uint256",
          "name": "tokenId",
          "type": "uint256"
        }
      ],
      "name": "ERC1155InsufficientBalance",
      "type": "error"
    },
    {
      "inputs": [
        {
          "internalType": "address",
          "name": "approver",
          "type": "address"
        }
      ],
      "name": "ERC1155InvalidApprover",
      "type": "error"
    },
    {
      "inputs": [
        {
          "internalType": "uint256",
          "name": "idsLength",
          "type": "uint256"
        },
        {
          "internalType": "uint256",
          "name": "valuesLength",
          "type": "uint256"
        }
      ],
      "name": "ERC1155InvalidArrayLength",
      "type": "error"
    },
    {
      "inputs": [
        {
          "internalType": "address",
          "name": "operator",
          "type": "address"
        }
      ],
      "name": "ERC1155InvalidOperator",
      "type": "error"
    },
    {
      "inputs": [
        {
          "internalType": "address",
          "name": "receiver",
          "type": "address"
        }
      ],
      "name": "ERC1155InvalidReceiver",
      "type": "error"
    },
    {
      "inputs": [
        {
          "internalType": "address",
          "name": "sender",
          "type": "address"
        }
      ],
      "name": "ERC1155InvalidSender",
      "type": "error"
    },
    {
      "inputs": [
        {
          "internalType": "address",
          "name": "operator",
          "type": "address"
        },
        {
          "internalType": "address",
          "name": "owner",
          "type": "address"
        }
      ],
      "name": "ERC1155MissingApprovalForAll",
      "type": "error"
    },
    {
      "inputs": [
        {
          "internalType": "address",
          "name": "owner",
          "type": "address"
        }
      ],
      "name": "OwnableInvalidOwner",
      "type": "error"
    },
    {
      "inputs": [
        {
          "internalType": "address",
          "name": "account",
          "type": "address"
        }
      ],
      "name": "OwnableUnauthorizedAccount",
      "type": "error"
    },
    {
      "inputs": [],
      "name": "ReentrancyGuardReentrantCall",
      "type": "error"
    },
    {
      "anonymous": false,
      "inputs": [
        {
          "indexed": true,
          "internalType": "address",
          "name": "account",
          "type": "address"
        },
        {
          "indexed": true,
          "internalType": "address",
          "name": "operator",
          "type": "address"
        },
        {
          "indexed": false,
          "internalType": "bool",
          "name": "approved",
          "type": "bool"
        }
      ],
      "name": "ApprovalForAll",
      "type": "event"
    },
    {
      "anonymous": false,
      "inputs": [
        {
          "indexed": true,
          "internalType": "address",
          "name": "previousOwner",
          "type": "address"
        },
        {
          "indexed": true,
          "internalType": "address",
          "name": "newOwner",
          "type": "address"
        }
      ],
      "name": "OwnershipTransferred",
      "type": "event"
    },
    {
      "anonymous": false,
      "inputs": [
        {
          "indexed": true,
          "internalType": "uint256",
          "name": "tokenId",
          "type": "uint256"
        },
        {
          "indexed": true,
          "internalType": "address",
          "name": "redeemer",
          "type": "address"
        },
        {
          "indexed": false,
          "internalType": "uint256",
          "name": "redemptionValue",
          "type": "uint256"
        }
      ],
      "name": "Redeemed",
      "type": "event"
    },
    {
      "anonymous": false,
      "inputs": [
        {
          "indexed": true,
          "internalType": "uint256",
          "name": "tokenId",
          "type": "uint256"
        },
        {
          "indexed": true,
          "internalType": "address",
          "name": "funder",
          "type": "address"
        },
        {
          "indexed": false,
          "internalType": "uint256",
          "name": "amount",
          "type": "uint256"
        }
      ],
      "name": "RedemptionFunded",
      "type": "event"
    },
    {
      "anonymous": false,
      "inputs": [
        {
          "indexed": true,
          "internalType": "bytes32",
          "name": "invoiceId",
          "type": "bytes32"
        },
        {
          "indexed": false,
          "internalType": "uint256",
          "name": "tokenId",
          "type": "uint256"
        },
        {
          "indexed": false,
          "internalType": "uint256",
          "name": "totalSupply",
          "type": "uint256"
        },
        {
          "indexed": false,
          "internalType": "uint256",
          "name": "faceValue",
          "type": "uint256"
        }
      ],
      "name": "Tokenized",
      "type": "event"
    },
    {
      "anonymous": false,
      "inputs": [
        {
          "indexed": true,
          "internalType": "uint256",
          "name": "tokenId",
          "type": "uint256"
        },
        {
          "indexed": true,
          "internalType": "address",
          "name": "buyer",
          "type": "address"
        },
        {
          "indexed": false,
          "internalType": "uint256",
          "name": "amount",
          "type": "uint256"
        },
        {
          "indexed": false,
          "internalType": "uint256",
          "name": "payment",
          "type": "uint256"
        }
      ],
      "name": "TokensPurchased",
      "type": "event"
    },
    {
      "anonymous": false,
      "inputs": [
        {
          "indexed": true,
          "internalType": "address",
          "name": "operator",
          "type": "address"
        },
        {
          "indexed": true,
          "internalType": "address",
          "name": "from",
          "type": "address"
        },
        {
          "indexed": true,
          "internalType": "address",
          "name": "to",
          "type": "address"
        },
        {
          "indexed": false,
          "internalType": "uint256[]",
          "name": "ids",
          "type": "uint256[]"
        },
        {
          "indexed": false,
          "internalType": "uint256[]",
          "name": "values",
          "type": "uint256[]"
        }
      ],
      "name": "TransferBatch",
      "type": "event"
    },
    {
      "anonymous": false,
      "inputs": [
        {
          "indexed": true,
          "internalType": "address",
          "name": "operator",
          "type": "address"
        },
        {
          "indexed": true,
          "internalType": "address",
          "name": "from",
          "type": "address"
        },
        {
          "indexed": true,
          "internalType": "address",
          "name": "to",
          "type": "address"
        },
        {
          "indexed": false,
          "internalType": "uint256",
          "name": "id",
          "type": "uint256"
        },
        {
          "indexed": false,
          "internalType": "uint256",
          "name": "value",
          "type": "uint256"
        }
      ],
      "name": "TransferSingle",
      "type": "event"
    },
    {
      "anonymous": false,
      "inputs": [
        {
          "indexed": false,
          "internalType": "string",
          "name": "value",
          "type": "string"
        },
        {
          "indexed": true,
          "internalType": "uint256",
          "name": "id",
          "type": "uint256"
        }
      ],
      "name": "URI",
      "type": "event"
    },
    {
      "inputs": [],
      "name": "DECIMALS",
      "outputs": [
        {
          "internalType": "uint8",
          "name": "",
          "type": "uint8"
        }
      ],
      "stateMutability": "view",
      "type": "function"
    },
    {
      "inputs": [
        {
          "internalType": "address",
          "name": "account",
          "type": "address"
        },
        {
          "internalType": "uint256",
          "name": "id",
          "type": "uint256"
        }
      ],
      "name": "balanceOf",
      "outputs": [
        {
          "internalType": "uint256",
          "name": "",
          "type": "uint256"
        }
      ],
      "stateMutability": "view",
      "type": "function"
    },
    {
      "inputs": [
        {
          "internalType": "address[]",
          "name": "accounts",
          "type": "address[]"
        },
        {
          "internalType": "uint256[]",
          "name": "ids",
          "type": "uint256[]"
        }
      ],
      "name": "balanceOfBatch",
      "outputs": [
        {
          "internalType": "uint256[]",
          "name": "",
          "type": "uint256[]"
        }
      ],
      "stateMutability": "view",
      "type": "function"
    },
    {
      "inputs": [
        {
          "internalType": "uint256",
          "name": "_tokenId",
          "type": "uint256"
        }
      ],
      "name": "fundRedemption",
      "outputs": [],
      "stateMutability": "payable",
      "type": "function"
    },
    {
      "inputs": [
        {
          "internalType": "bytes32",
          "name": "",
          "type": "bytes32"
        }
      ],
      "name": "invoiceToTokenId",
      "outputs": [
        {
          "internalType": "uint256",
          "name": "",
          "type": "uint256"
        }
      ],
      "stateMutability": "view",
      "type": "function"
    },
    {
      "inputs": [
        {
          "internalType": "address",
          "name": "account",
          "type": "address"
        },
        {
          "internalType": "address",
          "name": "operator",
          "type": "address"
        }
      ],
      "name": "isApprovedForAll",
      "outputs": [
        {
          "internalType": "bool",
          "name": "",
          "type": "bool"
        }
      ],
      "stateMutability": "view",
      "type": "function"
    },
    {
      "inputs": [],
      "name": "owner",
      "outputs": [
        {
          "internalType": "address",
          "name": "",
          "type": "address"
        }
      ],
      "stateMutability": "view",
      "type": "function"
    },
    {
      "inputs": [
        {
          "internalType": "uint256",
          "name": "_tokenId",
          "type": "uint256"
        },
        {
          "internalType": "uint256",
          "name": "_amount",
          "type": "uint256"
        },
        {
          "internalType": "address",
          "name": "_tokenHolder",
          "type": "address"
        }
      ],
      "name": "purchaseTokens",
      "outputs": [],
      "stateMutability": "payable",
      "type": "function"
    },
    {
      "inputs": [
        {
          "internalType": "uint256",
          "name": "_tokenId",
          "type": "uint256"
        },
        {
          "internalType": "uint256",
          "name": "_amount",
          "type": "uint256"
        }
      ],
      "name": "redeem",
      "outputs": [],
      "stateMutability": "nonpayable",
      "type": "function"
    },
    {
      "inputs": [],
      "name": "renounceOwnership",
      "outputs": [],
      "stateMutability": "nonpayable",
      "type": "function"
    },
    {
      "inputs": [
        {
          "internalType": "address",
          "name": "from",
          "type": "address"
        },
        {
          "internalType": "address",
          "name": "to",
          "type": "address"
        },
        {
          "internalType": "uint256[]",
          "name": "ids",
          "type": "uint256[]"
        },
        {
          "internalType": "uint256[]",
          "name": "values",
          "type": "uint256[]"
        },
        {
          "internalType": "bytes",
          "name": "data",
          "type": "bytes"
        }
      ],
      "name": "safeBatchTransferFrom",
      "outputs": [],
      "stateMutability": "nonpayable",
      "type": "function"
    },
    {
      "inputs": [
        {
          "internalType": "address",
          "name": "from",
          "type": "address"
        },
        {
          "internalType": "address",
          "name": "to",
          "type": "address"
        },
        {
          "internalType": "uint256",
          "name": "id",
          "type": "uint256"
        },
        {
          "internalType": "uint256",
          "name": "value",
          "type": "uint256"
        },
        {
          "internalType": "bytes",
          "name": "data",
          "type": "bytes"
        }
      ],
      "name": "safeTransferFrom",
      "outputs": [],
      "stateMutability": "nonpayable",
      "type": "function"
    },
    {
      "inputs": [
        {
          "internalType": "address",
          "name": "operator",
          "type": "address"
        },
        {
          "internalType": "bool",
          "name": "approved",
          "type": "bool"
        }
      ],
      "name": "setApprovalForAll",
      "outputs": [],
      "stateMutability": "nonpayable",
      "type": "function"
    },
    {
      "inputs": [
        {
          "internalType": "string",
          "name": "_newuri",
          "type": "string"
        }
      ],
      "name": "setURI",
      "outputs": [],
      "stateMutability": "nonpayable",
      "type": "function"
    },
    {
      "inputs": [
        {
          "internalType": "bytes4",
          "name": "interfaceId",
          "type": "bytes4"
        }
      ],
      "name": "supportsInterface",
      "outputs": [
        {
          "internalType": "bool",
          "name": "",
          "type": "bool"
        }
      ],
      "stateMutability": "view",
      "type": "function"
    },
    {
      "inputs": [
        {
          "internalType": "uint256",
          "name": "",
          "type": "uint256"
        }
      ],
      "name": "tokenDetails",
      "outputs": [
        {
          "internalType": "bytes32",
          "name": "invoiceId",
          "type": "bytes32"
        },
        {
          "internalType": "uint256",
          "name": "totalSupply",
          "type": "uint256"
        },
        {
          "internalType": "uint256",
          "name": "remainingSupply",
          "type": "uint256"
        },
        {
          "internalType": "uint256",
          "name": "faceValue",
          "type": "uint256"
        },
        {
          "internalType": "uint256",
          "name": "maturityDate",
          "type": "uint256"
        },
        {
          "internalType": "address",
          "name": "issuer",
          "type": "address"
        },
        {
          "internalType": "bool",
          "name": "isRedeemed",
          "type": "bool"
        }
      ],
      "stateMutability": "view",
      "type": "function"
    },
    {
      "inputs": [
        {
          "internalType": "bytes32",
          "name": "_invoiceId",
          "type": "bytes32"
        },
        {
          "internalType": "uint256",
          "name": "_totalSupply",
          "type": "uint256"
        },
        {
          "internalType": "uint256",
          "name": "_faceValue",
          "type": "uint256"
        },
        {
          "internalType": "uint256",
          "name": "_maturityDate",
          "type": "uint256"
        },
        {
          "internalType": "address",
          "name": "_issuer",
          "type": "address"
        }
      ],
      "name": "tokenizeInvoice",
      "outputs": [
        {
          "internalType": "uint256",
          "name": "",
          "type": "uint256"
        }
      ],
      "stateMutability": "nonpayable",
      "type": "function"
    },
    {
      "inputs": [
        {
          "internalType": "address",
          "name": "newOwner",
          "type": "address"
        }
      ],
      "name": "transferOwnership",
      "outputs": [],
      "stateMutability": "nonpayable",
      "type": "function"
    },
    {
      "inputs": [
        {
          "internalType": "uint256",
          "name": "_tokenId",
          "type": "uint256"
        }
      ],
      "name": "uri",
      "outputs": [
        {
          "internalType": "string",
          "name": "",
          "type": "string"
        }
      ],
      "stateMutability": "view",
      "type": "function"
    }
  ],
  "bytecode": "0x608060405260016007553480156200001657600080fd5b50336040518060600160405280602b815260200162004331602b91396200004381620000d960201b60201c565b50600073ffffffffffffffffffffffffffffffffffffffff168173ffffffffffffffffffffffffffffffffffffffff1603620000b95760006040517f1e4fbdf7000000000000000000000000000000000000000000000000000000008152600401620000b09190620001f9565b60405180910390fd5b620000ca81620000ee60201b60201c565b50600160048190555062000577565b8060029081620000ea919062000490565b5050565b6000600360009054906101000a900473ffffffffffffffffffffffffffffffffffffffff16905081600360006101000a81548173ffffffffffffffffffffffffffffffffffffffff021916908373ffffffffffffffffffffffffffffffffffffffff1602179055508173ffffffffffffffffffffffffffffffffffffffff168173ffffffffffffffffffffffffffffffffffffffff167f8be0079c531659141344cd1fd0a4f28419497f9722a3daafe3b4186f6b6457e060405160405180910390a35050565b600073ffffffffffffffffffffffffffffffffffffffff82169050919050565b6000620001e182620001b4565b9050919050565b620001f381620001d4565b82525050565b6000602082019050620002106000830184620001e8565b92915050565b600081519050919050565b7f4e487b7100000000000000000000000000000000000000000000000000000000600052604160045260246000fd5b7f4e487b7100000000000000000000000000000000000000000000000000000000600052602260045260246000fd5b600060028204905060018216806200029857607f821691505b602082108103620002ae57620002ad62000250565b5b50919050565b60008190508160005260206000209050919050565b60006020601f8301049050919050565b600082821b905092915050565b600060088302620003187fffffffffffffffffffffffffffffffffffffffffffffffffffffffffffffffff82620002d9565b620003248683620002d9565b95508019841693508086168417925050509392505050565b6000819050919050565b6000819050919050565b6000620003716200036b62000365846200033c565b62000346565b6200033c565b9050919050565b6000819050919050565b6200038d8362000350565b620003a56200039c8262000378565b848454620002e6565b825550505050565b600090565b620003bc620003ad565b620003c981848462000382565b505050565b5b81811015620003f157620003e5600082620003b2565b600181019050620003cf565b5050565b601f82111562000440576200040a81620002b4565b6200041584620002c9565b8101602085101562000425578190505b6200043d6200043485620002c9565b830182620003ce565b50505b505050565b600082821c905092915050565b6000620004656000198460080262000445565b1980831691505092915050565b600062000480838362000452565b9150826002028217905092915050565b6200049b8262000216565b67ffffffffffffffff811115620004b757620004b662000221565b5b620004c382546200027f565b620004d0828285620003f5565b600060209050601f831160018114620005085760008415620004f3578287015190505b620004ff858262000472565b8655506200056f565b601f1984166200051886620002b4565b60005b8281101562000542578489015182556001820191506020850194506020810190506200051b565b868310156200056257848901516200055e601f89168262000452565b8355505b6001600288020188555050505b505050505050565b613daa80620005876000396000f3fe6080604052600436106101135760003560e01c80634e1273f4116100a0578063e985e9c511610064578063e985e9c5146103b3578063f242432a146103f0578063f2fde38b14610419578063f7cea6ee14610442578063fc314e311461045e57610113565b80634e1273f4146102e2578063715018a61461031f5780637cbc2373146103365780638da5cb5b1461035f578063a22cb4651461038a57610113565b80630e89341c116100e75780630e89341c146101d757806312589e19146102145780632e0f2625146102515780632eb2c2d61461027c57806343c29406146102a557610113565b8062fdd58e1461011857806301ffc9a71461015557806302fe5305146101925780630334f811146101bb575b600080fd5b34801561012457600080fd5b5061013f600480360381019061013a919061240d565b6104a1565b60405161014c919061245c565b60405180910390f35b34801561016157600080fd5b5061017c600480360381019061017791906124cf565b6104fb565b6040516101899190612517565b60405180910390f35b34801561019e57600080fd5b506101b960048036038101906101b49190612678565b6105dd565b005b6101d560048036038101906101d091906126c1565b6105f1565b005b3480156101e357600080fd5b506101fe60048036038101906101f99190612714565b61080a565b60405161020b91906127c0565b60405180910390f35b34801561022057600080fd5b5061023b60048036038101906102369190612818565b61086c565b604051610248919061245c565b60405180910390f35b34801561025d57600080fd5b50610266610884565b6040516102739190612861565b60405180910390f35b34801561028857600080fd5b506102a3600480360381019061029e91906129e5565b610889565b005b3480156102b157600080fd5b506102cc60048036038101906102c79190612ab4565b610931565b6040516102d9919061245c565b60405180910390f35b3480156102ee57600080fd5b5061030960048036038101906103049190612bf2565b610b6d565b6040516103169190612d28565b60405180910390f35b34801561032b57600080fd5b50610334610c7c565b005b34801561034257600080fd5b5061035d60048036038101906103589190612d4a565b610c90565b005b34801561036b57600080fd5b50610374610fda565b6040516103819190612d99565b60405180910390f35b34801561039657600080fd5b506103b160048036038101906103ac9190612de0565b611004565b005b3480156103bf57600080fd5b506103da60048036038101906103d59190612e20565b61101a565b6040516103e79190612517565b60405180910390f35b3480156103fc57600080fd5b5061041760048036038101906104129190612e60565b6110ae565b005b34801561042557600080fd5b50610440600480360381019061043b9190612ef7565b611156565b005b61045c60048036038101906104579190612714565b6111dc565b005b34801561046a57600080fd5b5061048560048036038101906104809190612714565b61136d565b6040516104989796959493929190612f33565b60405180910390f35b600080600083815260200190815260200160002060008473ffffffffffffffffffffffffffffffffffffffff1673ffffffffffffffffffffffffffffffffffffffff16815260200190815260200160002054905092915050565b60007fd9b67a26000000000000000000000000000000000000000000000000000000007bffffffffffffffffffffffffffffffffffffffffffffffffffffffff1916827bffffffffffffffffffffffffffffffffffffffffffffffffffffffff191614806105c657507f0e89341c000000000000000000000000000000000000000000000000000000007bffffffffffffffffffffffffffffffffffffffffffffffffffffffff1916827bffffffffffffffffffffffffffffffffffffffffffffffffffffffff1916145b806105d657506105d5826113dc565b5b9050919050565b6105e5611446565b6105ee816114cd565b50565b6105f96114e0565b60006006600085815260200190815260200160002090506000816001015411610657576040517f08c379a000000000000000000000000000000000000000000000000000000000815260040161064e90612fee565b60405180910390fd5b6000831161069a576040517f08c379a00000000000000000000000000000000000000000000000000000000081526004016106919061305a565b60405180910390fd5b60008390508034146106e1576040517f08c379a00000000000000000000000000000000000000000000000000000000081526004016106d8906130c6565b60405180910390fd5b60008373ffffffffffffffffffffffffffffffffffffffff163460405161070790613117565b60006040518083038185875af1925050503d8060008114610744576040519150601f19603f3d011682016040523d82523d6000602084013e610749565b606091505b505090508061078d576040517f08c379a000000000000000000000000000000000000000000000000000000000815260040161078490613178565b60405180910390fd5b6107a98433888860405180602001604052806000815250611526565b3373ffffffffffffffffffffffffffffffffffffffff16867fe8d7e55108ae7ddb60173461d2950c7a8e22a7ac7f442825564fe84c8c6f9a3887856040516107f2929190613198565b60405180910390a3505050610805611631565b505050565b606060008211801561081d575060075482105b61085c576040517f08c379a00000000000000000000000000000000000000000000000000000000081526004016108539061320d565b60405180910390fd5b6108658261163b565b9050919050565b60056020528060005260406000206000915090505481565b601281565b60006108936116cf565b90508073ffffffffffffffffffffffffffffffffffffffff168673ffffffffffffffffffffffffffffffffffffffff16141580156108d857506108d6868261101a565b155b1561091c5780866040517fe237d92200000000000000000000000000000000000000000000000000000000815260040161091392919061322d565b60405180910390fd5b61092986868686866116d7565b505050505050565b600061093b611446565b6000600560008881526020019081526020016000205414610991576040517f08c379a0000000000000000000000000000000000000000000000000000000008152600401610988906132a2565b60405180910390fd5b600085116109d4576040517f08c379a00000000000000000000000000000000000000000000000000000000081526004016109cb90613334565b60405180910390fd5b6000600760008154809291906109e990613383565b9190505590508060056000898152602001908152602001600020819055506040518060e001604052808881526020018781526020018781526020018681526020018581526020018473ffffffffffffffffffffffffffffffffffffffff1681526020016000151581525060066000838152602001908152602001600020600082015181600001556020820151816001015560408201518160020155606082015181600301556080820151816004015560a08201518160050160006101000a81548173ffffffffffffffffffffffffffffffffffffffff021916908373ffffffffffffffffffffffffffffffffffffffff16021790555060c08201518160050160146101000a81548160ff021916908315150217905550905050610b24610b0d610fda565b8288604051806020016040528060008152506117cf565b867f07f5bfe4bde30469800f142c7b6c69079d03ffc0c33a3154f48997574e59fe6e828888604051610b58939291906133cb565b60405180910390a28091505095945050505050565b60608151835114610bb957815183516040517f5b059991000000000000000000000000000000000000000000000000000000008152600401610bb0929190613198565b60405180910390fd5b6000835167ffffffffffffffff811115610bd657610bd561254d565b5b604051908082528060200260200182016040528015610c045781602001602082028036833780820191505090505b50905060005b8451811015610c7157610c41610c29828761186890919063ffffffff16565b610c3c838761187c90919063ffffffff16565b6104a1565b828281518110610c5457610c53613402565b5b60200260200101818152505080610c6a90613383565b9050610c0a565b508091505092915050565b610c84611446565b610c8e6000611890565b565b610c986114e0565b60006006600084815260200190815260200160002090508060040154421015610cf6576040517f08c379a0000000000000000000000000000000000000000000000000000000008152600401610ced9061347d565b60405180910390fd5b8060050160149054906101000a900460ff1615610d48576040517f08c379a0000000000000000000000000000000000000000000000000000000008152600401610d3f906134e9565b60405180910390fd5b81610d5333856104a1565b1015610d94576040517f08c379a0000000000000000000000000000000000000000000000000000000008152600401610d8b90613555565b60405180910390fd5b60008211610dd7576040517f08c379a0000000000000000000000000000000000000000000000000000000008152600401610dce9061305a565b60405180910390fd5b60008160010154826003015484610dee9190613575565b610df891906135e6565b905060008111610e3d576040517f08c379a0000000000000000000000000000000000000000000000000000000008152600401610e3490613663565b60405180910390fd5b80471015610e80576040517f08c379a0000000000000000000000000000000000000000000000000000000008152600401610e77906136f5565b60405180910390fd5b610e8b338585611956565b82826002016000828254610e9f9190613715565b925050819055506000826002015403610ed05760018260050160146101000a81548160ff0219169083151502179055505b60003373ffffffffffffffffffffffffffffffffffffffff1682604051610ef690613117565b60006040518083038185875af1925050503d8060008114610f33576040519150601f19603f3d011682016040523d82523d6000602084013e610f38565b606091505b5050905080610f7c576040517f08c379a0000000000000000000000000000000000000000000000000000000008152600401610f7390613795565b60405180910390fd5b3373ffffffffffffffffffffffffffffffffffffffff16857fa18626381edd3d7a115c4a09f678bb79665034a541affcdba9fe65a1d3d107ee84604051610fc3919061245c565b60405180910390a3505050610fd6611631565b5050565b6000600360009054906101000a900473ffffffffffffffffffffffffffffffffffffffff16905090565b61101661100f6116cf565b83836119fd565b5050565b6000600160008473ffffffffffffffffffffffffffffffffffffffff1673ffffffffffffffffffffffffffffffffffffffff16815260200190815260200160002060008373ffffffffffffffffffffffffffffffffffffffff1673ffffffffffffffffffffffffffffffffffffffff16815260200190815260200160002060009054906101000a900460ff16905092915050565b60006110b86116cf565b90508073ffffffffffffffffffffffffffffffffffffffff168673ffffffffffffffffffffffffffffffffffffffff16141580156110fd57506110fb868261101a565b155b156111415780866040517fe237d92200000000000000000000000000000000000000000000000000000000815260040161113892919061322d565b60405180910390fd5b61114e8686868686611526565b505050505050565b61115e611446565b600073ffffffffffffffffffffffffffffffffffffffff168173ffffffffffffffffffffffffffffffffffffffff16036111d05760006040517f1e4fbdf70000000000000000000000000000000000000000000000000000000081526004016111c79190612d99565b60405180910390fd5b6111d981611890565b50565b60006006600083815260200190815260200160002090508060050160009054906101000a900473ffffffffffffffffffffffffffffffffffffffff1673ffffffffffffffffffffffffffffffffffffffff163373ffffffffffffffffffffffffffffffffffffffff1614611285576040517f08c379a000000000000000000000000000000000000000000000000000000000815260040161127c90613801565b60405180910390fd5b8060050160149054906101000a900460ff16156112d7576040517f08c379a00000000000000000000000000000000000000000000000000000000081526004016112ce906134e9565b60405180910390fd5b6000341161131a576040517f08c379a00000000000000000000000000000000000000000000000000000000081526004016113119061386d565b60405180910390fd5b3373ffffffffffffffffffffffffffffffffffffffff16827fb7e6617ade0f97e294ed70934adbf1b40613042dc2bb5aecabb208cc8404287234604051611361919061245c565b60405180910390a35050565b60066020528060005260406000206000915090508060000154908060010154908060020154908060030154908060040154908060050160009054906101000a900473ffffffffffffffffffffffffffffffffffffffff16908060050160149054906101000a900460ff16905087565b60007f01ffc9a7000000000000000000000000000000000000000000000000000000007bffffffffffffffffffffffffffffffffffffffffffffffffffffffff1916827bffffffffffffffffffffffffffffffffffffffffffffffffffffffff1916149050919050565b61144e6116cf565b73ffffffffffffffffffffffffffffffffffffffff1661146c610fda565b73ffffffffffffffffffffffffffffffffffffffff16146114cb5761148f6116cf565b6040517f118cdaa70000000000000000000000000000000000000000000000000000000081526004016114c29190612d99565b60405180910390fd5b565b80600290816114dc9190613a99565b5050565b60026004540361151c576040517f3ee5aeb500000000000000000000000000000000000000000000000000000000815260040160405180910390fd5b6002600481905550565b600073ffffffffffffffffffffffffffffffffffffffff168473ffffffffffffffffffffffffffffffffffffffff16036115985760006040517f57f447ce00000000000000000000000000000000000000000000000000000000815260040161158f9190612d99565b60405180910390fd5b600073ffffffffffffffffffffffffffffffffffffffff168573ffffffffffffffffffffffffffffffffffffffff160361160a5760006040517f01a835140000000000000000000000000000000000000000000000000000000081526004016116019190612d99565b60405180910390fd5b6000806116178585611b6d565b915091506116288787848487611b9d565b50505050505050565b6001600481905550565b60606002805461164a906138bc565b80601f0160208091040260200160405190810160405280929190818152602001828054611676906138bc565b80156116c35780601f10611698576101008083540402835291602001916116c3565b820191906000526020600020905b8154815290600101906020018083116116a657829003601f168201915b50505050509050919050565b600033905090565b600073ffffffffffffffffffffffffffffffffffffffff168473ffffffffffffffffffffffffffffffffffffffff16036117495760006040517f57f447ce0000000000000000000000000000000000000000000000000000000081526004016117409190612d99565b60405180910390fd5b600073ffffffffffffffffffffffffffffffffffffffff168573ffffffffffffffffffffffffffffffffffffffff16036117bb5760006040517f01a835140000000000000000000000000000000000000000000000000000000081526004016117b29190612d99565b60405180910390fd5b6117c88585858585611b9d565b5050505050565b600073ffffffffffffffffffffffffffffffffffffffff168473ffffffffffffffffffffffffffffffffffffffff16036118415760006040517f57f447ce0000000000000000000000000000000000000000000000000000000081526004016118389190612d99565b60405180910390fd5b60008061184e8585611b6d565b91509150611860600087848487611b9d565b505050505050565b600060208202602084010151905092915050565b600060208202602084010151905092915050565b6000600360009054906101000a900473ffffffffffffffffffffffffffffffffffffffff16905081600360006101000a81548173ffffffffffffffffffffffffffffffffffffffff021916908373ffffffffffffffffffffffffffffffffffffffff1602179055508173ffffffffffffffffffffffffffffffffffffffff168173ffffffffffffffffffffffffffffffffffffffff167f8be0079c531659141344cd1fd0a4f28419497f9722a3daafe3b4186f6b6457e060405160405180910390a35050565b600073ffffffffffffffffffffffffffffffffffffffff168373ffffffffffffffffffffffffffffffffffffffff16036119c85760006040517f01a835140000000000000000000000000000000000000000000000000000000081526004016119bf9190612d99565b60405180910390fd5b6000806119d58484611b6d565b915091506119f6856000848460405180602001604052806000815250611b9d565b5050505050565b600073ffffffffffffffffffffffffffffffffffffffff168273ffffffffffffffffffffffffffffffffffffffff1603611a6f5760006040517fced3e100000000000000000000000000000000000000000000000000000000008152600401611a669190612d99565b60405180910390fd5b80600160008573ffffffffffffffffffffffffffffffffffffffff1673ffffffffffffffffffffffffffffffffffffffff16815260200190815260200160002060008473ffffffffffffffffffffffffffffffffffffffff1673ffffffffffffffffffffffffffffffffffffffff16815260200190815260200160002060006101000a81548160ff0219169083151502179055508173ffffffffffffffffffffffffffffffffffffffff168373ffffffffffffffffffffffffffffffffffffffff167f17307eab39ab6107e8899845ad3d59bd9653f200f220920489ca2b5937696c3183604051611b609190612517565b60405180910390a3505050565b60608060405191506001825283602083015260408201905060018152826020820152604081016040529250929050565b611ba985858585611c4f565b600073ffffffffffffffffffffffffffffffffffffffff168473ffffffffffffffffffffffffffffffffffffffff1614611c48576000611be76116cf565b90506001845103611c37576000611c0860008661187c90919063ffffffff16565b90506000611c2060008661187c90919063ffffffff16565b9050611c30838989858589611ffd565b5050611c46565b611c458187878787876121b1565b5b505b5050505050565b8051825114611c9957815181516040517f5b059991000000000000000000000000000000000000000000000000000000008152600401611c90929190613198565b60405180910390fd5b6000611ca36116cf565b905060005b8351811015611eb8576000611cc6828661187c90919063ffffffff16565b90506000611cdd838661187c90919063ffffffff16565b9050600073ffffffffffffffffffffffffffffffffffffffff168873ffffffffffffffffffffffffffffffffffffffff1614611e0a57600080600084815260200190815260200160002060008a73ffffffffffffffffffffffffffffffffffffffff1673ffffffffffffffffffffffffffffffffffffffff16815260200190815260200160002054905081811015611db257888183856040517f03dee4c5000000000000000000000000000000000000000000000000000000008152600401611da99493929190613b6b565b60405180910390fd5b81810360008085815260200190815260200160002060008b73ffffffffffffffffffffffffffffffffffffffff1673ffffffffffffffffffffffffffffffffffffffff16815260200190815260200160002081905550505b600073ffffffffffffffffffffffffffffffffffffffff168773ffffffffffffffffffffffffffffffffffffffff1614611ea5578060008084815260200190815260200160002060008973ffffffffffffffffffffffffffffffffffffffff1673ffffffffffffffffffffffffffffffffffffffff1681526020019081526020016000206000828254611e9d9190613bb0565b925050819055505b505080611eb190613383565b9050611ca8565b506001835103611f77576000611ed860008561187c90919063ffffffff16565b90506000611ef060008561187c90919063ffffffff16565b90508573ffffffffffffffffffffffffffffffffffffffff168773ffffffffffffffffffffffffffffffffffffffff168473ffffffffffffffffffffffffffffffffffffffff167fc3d58168c5ae7397731d063d5bbf3d657854427343f4c083240f7aacaa2d0f628585604051611f68929190613198565b60405180910390a45050611ff6565b8373ffffffffffffffffffffffffffffffffffffffff168573ffffffffffffffffffffffffffffffffffffffff168273ffffffffffffffffffffffffffffffffffffffff167f4a39dc06d4c0dbc64b70af90fd698a233a518aa5d07e595d983b8c0526c8f7fb8686604051611fed929190613be4565b60405180910390a45b5050505050565b60008473ffffffffffffffffffffffffffffffffffffffff163b11156121a9578373ffffffffffffffffffffffffffffffffffffffff1663f23a6e6187878686866040518663ffffffff1660e01b815260040161205e959493929190613c70565b6020604051808303816000875af192505050801561209a57506040513d601f19601f820116820180604052508101906120979190613cdf565b60015b61211e573d80600081146120ca576040519150601f19603f3d011682016040523d82523d6000602084013e6120cf565b606091505b50600081510361211657846040517f57f447ce00000000000000000000000000000000000000000000000000000000815260040161210d9190612d99565b60405180910390fd5b805160208201fd5b63f23a6e6160e01b7bffffffffffffffffffffffffffffffffffffffffffffffffffffffff1916817bffffffffffffffffffffffffffffffffffffffffffffffffffffffff1916146121a757846040517f57f447ce00000000000000000000000000000000000000000000000000000000815260040161219e9190612d99565b60405180910390fd5b505b505050505050565b60008473ffffffffffffffffffffffffffffffffffffffff163b111561235d578373ffffffffffffffffffffffffffffffffffffffff1663bc197c8187878686866040518663ffffffff1660e01b8152600401612212959493929190613d0c565b6020604051808303816000875af192505050801561224e57506040513d601f19601f8201168201806040525081019061224b9190613cdf565b60015b6122d2573d806000811461227e576040519150601f19603f3d011682016040523d82523d6000602084013e612283565b606091505b5060008151036122ca57846040517f57f447ce0000000000000000000000000000000000000000000000000000000081526004016122c19190612d99565b60405180910390fd5b805160208201fd5b63bc197c8160e01b7bffffffffffffffffffffffffffffffffffffffffffffffffffffffff1916817bffffffffffffffffffffffffffffffffffffffffffffffffffffffff19161461235b57846040517f57f447ce0000000000000000000000000000000000000000000000000000000081526004016123529190612d99565b60405180910390fd5b505b505050505050565b6000604051905090565b600080fd5b600080fd5b600073ffffffffffffffffffffffffffffffffffffffff82169050919050565b60006123a482612379565b9050919050565b6123b481612399565b81146123bf57600080fd5b50565b6000813590506123d1816123ab565b92915050565b6000819050919050565b6123ea816123d7565b81146123f557600080fd5b50565b600081359050612407816123e1565b92915050565b600080604083850312156124245761242361236f565b5b6000612432858286016123c2565b9250506020612443858286016123f8565b9150509250929050565b612456816123d7565b82525050565b6000602082019050612471600083018461244d565b92915050565b60007fffffffff0000000000000000000000000000000000000000000000000000000082169050919050565b6124ac81612477565b81146124b757600080fd5b50565b6000813590506124c9816124a3565b92915050565b6000602082840312156124e5576124e461236f565b5b60006124f3848285016124ba565b91505092915050565b60008115159050919050565b612511816124fc565b82525050565b600060208201905061252c6000830184612508565b92915050565b600080fd5b600080fd5b6000601f19601f8301169050919050565b7f4e487b7100000000000000000000000000000000000000000000000000000000600052604160045260246000fd5b6125858261253c565b810181811067ffffffffffffffff821117156125a4576125a361254d565b5b80604052505050565b60006125b7612365565b90506125c3828261257c565b919050565b600067ffffffffffffffff8211156125e3576125e261254d565b5b6125ec8261253c565b9050602081019050919050565b82818337600083830152505050565b600061261b612616846125c8565b6125ad565b90508281526020810184848401111561263757612636612537565b5b6126428482856125f9565b509392505050565b600082601f83011261265f5761265e612532565b5b813561266f848260208601612608565b91505092915050565b60006020828403121561268e5761268d61236f565b5b600082013567ffffffffffffffff8111156126ac576126ab612374565b5b6126b88482850161264a565b91505092915050565b6000806000606084860312156126da576126d961236f565b5b60006126e8868287016123f8565b93505060206126f9868287016123f8565b925050604061270a868287016123c2565b9150509250925092565b60006020828403121561272a5761272961236f565b5b6000612738848285016123f8565b91505092915050565b600081519050919050565b600082825260208201905092915050565b60005b8381101561277b578082015181840152602081019050612760565b60008484015250505050565b600061279282612741565b61279c818561274c565b93506127ac81856020860161275d565b6127b58161253c565b840191505092915050565b600060208201905081810360008301526127da8184612787565b905092915050565b6000819050919050565b6127f5816127e2565b811461280057600080fd5b50565b600081359050612812816127ec565b92915050565b60006020828403121561282e5761282d61236f565b5b600061283c84828501612803565b91505092915050565b600060ff82169050919050565b61285b81612845565b82525050565b60006020820190506128766000830184612852565b92915050565b600067ffffffffffffffff8211156128975761289661254d565b5b602082029050602081019050919050565b600080fd5b60006128c06128bb8461287c565b6125ad565b905080838252602082019050602084028301858111156128e3576128e26128a8565b5b835b8181101561290c57806128f888826123f8565b8452602084019350506020810190506128e5565b5050509392505050565b600082601f83011261292b5761292a612532565b5b813561293b8482602086016128ad565b91505092915050565b600067ffffffffffffffff82111561295f5761295e61254d565b5b6129688261253c565b9050602081019050919050565b600061298861298384612944565b6125ad565b9050828152602081018484840111156129a4576129a3612537565b5b6129af8482856125f9565b509392505050565b600082601f8301126129cc576129cb612532565b5b81356129dc848260208601612975565b91505092915050565b600080600080600060a08688031215612a0157612a0061236f565b5b6000612a0f888289016123c2565b9550506020612a20888289016123c2565b945050604086013567ffffffffffffffff811115612a4157612a40612374565b5b612a4d88828901612916565b935050606086013567ffffffffffffffff811115612a6e57612a6d612374565b5b612a7a88828901612916565b925050608086013567ffffffffffffffff811115612a9b57612a9a612374565b5b612aa7888289016129b7565b9150509295509295909350565b600080600080600060a08688031215612ad057612acf61236f565b5b6000612ade88828901612803565b9550506020612aef888289016123f8565b9450506040612b00888289016123f8565b9350506060612b11888289016123f8565b9250506080612b22888289016123c2565b9150509295509295909350565b600067ffffffffffffffff821115612b4a57612b4961254d565b5b602082029050602081019050919050565b6000612b6e612b6984612b2f565b6125ad565b90508083825260208201905060208402830185811115612b9157612b906128a8565b5b835b81811015612bba5780612ba688826123c2565b845260208401935050602081019050612b93565b5050509392505050565b600082601f830112612bd957612bd8612532565b5b8135612be9848260208601612b5b565b91505092915050565b60008060408385031215612c0957612c0861236f565b5b600083013567ffffffffffffffff811115612c2757612c26612374565b5b612c3385828601612bc4565b925050602083013567ffffffffffffffff811115612c5457612c53612374565b5b612c6085828601612916565b9150509250929050565b600081519050919050565b600082825260208201905092915050565b6000819050602082019050919050565b612c9f816123d7565b82525050565b6000612cb18383612c96565b60208301905092915050565b6000602082019050919050565b6000612cd582612c6a565b612cdf8185612c75565b9350612cea83612c86565b8060005b83811015612d1b578151612d028882612ca5565b9750612d0d83612cbd565b925050600181019050612cee565b5085935050505092915050565b60006020820190508181036000830152612d428184612cca565b905092915050565b60008060408385031215612d6157612d6061236f565b5b6000612d6f858286016123f8565b9250506020612d80858286016123f8565b9150509250929050565b612d9381612399565b82525050565b6000602082019050612dae6000830184612d8a565b92915050565b612dbd816124fc565b8114612dc857600080fd5b50565b600081359050612dda81612db4565b92915050565b60008060408385031215612df757612df661236f565b5b6000612e05858286016123c2565b9250506020612e1685828601612dcb565b9150509250929050565b60008060408385031215612e3757612e3661236f565b5b6000612e45858286016123c2565b9250506020612e56858286016123c2565b9150509250929050565b600080600080600060a08688031215612e7c57612e7b61236f565b5b6000612e8a888289016123c2565b9550506020612e9b888289016123c2565b9450506040612eac888289016123f8565b9350506060612ebd888289016123f8565b925050608086013567ffffffffffffffff811115612ede57612edd612374565b5b612eea888289016129b7565b9150509295509295909350565b600060208284031215612f0d57612f0c61236f565b5b6000612f1b848285016123c2565b91505092915050565b612f2d816127e2565b82525050565b600060e082019050612f48600083018a612f24565b612f55602083018961244d565b612f62604083018861244d565b612f6f606083018761244d565b612f7c608083018661244d565b612f8960a0830185612d8a565b612f9660c0830184612508565b98975050505050505050565b7f546f6b656e20646f6573206e6f74206578697374000000000000000000000000600082015250565b6000612fd860148361274c565b9150612fe382612fa2565b602082019050919050565b6000602082019050818103600083015261300781612fcb565b9050919050565b7f416d6f756e74206d75737420626520706f736974697665000000000000000000600082015250565b600061304460178361274c565b915061304f8261300e565b602082019050919050565b6000602082019050818103600083015261307381613037565b9050919050565b7f496e636f7272656374204d415449432076616c75652073656e74000000000000600082015250565b60006130b0601a8361274c565b91506130bb8261307a565b602082019050919050565b600060208201905081810360008301526130df816130a3565b9050919050565b600081905092915050565b50565b60006131016000836130e6565b915061310c826130f1565b600082019050919050565b6000613122826130f4565b9150819050919050565b7f4d41544943207061796d656e7420746f20686f6c646572206661696c65640000600082015250565b6000613162601e8361274c565b915061316d8261312c565b602082019050919050565b6000602082019050818103600083015261319181613155565b9050919050565b60006040820190506131ad600083018561244d565b6131ba602083018461244d565b9392505050565b7f4e6f6e6578697374656e7420746f6b656e000000000000000000000000000000600082015250565b60006131f760118361274c565b9150613202826131c1565b602082019050919050565b60006020820190508181036000830152613226816131ea565b9050919050565b60006040820190506132426000830185612d8a565b61324f6020830184612d8a565b9392505050565b7f496e766f69636520616c726561647920746f6b656e697a656400000000000000600082015250565b600061328c60198361274c565b915061329782613256565b602082019050919050565b600060208201905081810360008301526132bb8161327f565b9050919050565b7f546f74616c20737570706c79206d75737420626520677265617465722074686160008201527f6e20300000000000000000000000000000000000000000000000000000000000602082015250565b600061331e60238361274c565b9150613329826132c2565b604082019050919050565b6000602082019050818103600083015261334d81613311565b9050919050565b7f4e487b7100000000000000000000000000000000000000000000000000000000600052601160045260246000fd5b600061338e826123d7565b91507fffffffffffffffffffffffffffffffffffffffffffffffffffffffffffffffff82036133c0576133bf613354565b5b600182019050919050565b60006060820190506133e0600083018661244d565b6133ed602083018561244d565b6133fa604083018461244d565b949350505050565b7f4e487b7100000000000000000000000000000000000000000000000000000000600052603260045260246000fd5b7f4e6f7420796574206d6174757265000000000000000000000000000000000000600082015250565b6000613467600e8361274c565b915061347282613431565b602082019050919050565b600060208201905081810360008301526134968161345a565b9050919050565b7f416c72656164792072656465656d656400000000000000000000000000000000600082015250565b60006134d360108361274c565b91506134de8261349d565b602082019050919050565b60006020820190508181036000830152613502816134c6565b9050919050565b7f496e73756666696369656e7420746f6b656e7300000000000000000000000000600082015250565b600061353f60138361274c565b915061354a82613509565b602082019050919050565b6000602082019050818103600083015261356e81613532565b9050919050565b6000613580826123d7565b915061358b836123d7565b9250828202613599816123d7565b915082820484148315176135b0576135af613354565b5b5092915050565b7f4e487b7100000000000000000000000000000000000000000000000000000000600052601260045260246000fd5b60006135f1826123d7565b91506135fc836123d7565b92508261360c5761360b6135b7565b5b828204905092915050565b7f526564656d7074696f6e2076616c7565206973207a65726f0000000000000000600082015250565b600061364d60188361274c565b915061365882613617565b602082019050919050565b6000602082019050818103600083015261367c81613640565b9050919050565b7f436f6e74726163742068617320696e73756666696369656e742066756e64732060008201527f666f7220726564656d7074696f6e000000000000000000000000000000000000602082015250565b60006136df602e8361274c565b91506136ea82613683565b604082019050919050565b6000602082019050818103600083015261370e816136d2565b9050919050565b6000613720826123d7565b915061372b836123d7565b925082820390508181111561374357613742613354565b5b92915050565b7f4d4154494320726564656d7074696f6e207472616e73666572206661696c6564600082015250565b600061377f60208361274c565b915061378a82613749565b602082019050919050565b600060208201905081810360008301526137ae81613772565b9050919050565b7f4f6e6c79206973737565722063616e2066756e64000000000000000000000000600082015250565b60006137eb60148361274c565b91506137f6826137b5565b602082019050919050565b6000602082019050818103600083015261381a816137de565b9050919050565b7f4d7573742073656e64204d415449430000000000000000000000000000000000600082015250565b6000613857600f8361274c565b915061386282613821565b602082019050919050565b600060208201905081810360008301526138868161384a565b9050919050565b7f4e487b7100000000000000000000000000000000000000000000000000000000600052602260045260246000fd5b600060028204905060018216806138d457607f821691505b6020821081036138e7576138e661388d565b5b50919050565b60008190508160005260206000209050919050565b60006020601f8301049050919050565b600082821b905092915050565b60006008830261394f7fffffffffffffffffffffffffffffffffffffffffffffffffffffffffffffffff82613912565b6139598683613912565b95508019841693508086168417925050509392505050565b6000819050919050565b600061399661399161398c846123d7565b613971565b6123d7565b9050919050565b6000819050919050565b6139b08361397b565b6139c46139bc8261399d565b84845461391f565b825550505050565b600090565b6139d96139cc565b6139e48184846139a7565b505050565b5b81811015613a08576139fd6000826139d1565b6001810190506139ea565b5050565b601f821115613a4d57613a1e816138ed565b613a2784613902565b81016020851015613a36578190505b613a4a613a4285613902565b8301826139e9565b50505b505050565b600082821c905092915050565b6000613a7060001984600802613a52565b1980831691505092915050565b6000613a898383613a5f565b9150826002028217905092915050565b613aa282612741565b67ffffffffffffffff811115613abb57613aba61254d565b5b613ac582546138bc565b613ad0828285613a0c565b600060209050601f831160018114613b035760008415613af1578287015190505b613afb8582613a7d565b865550613b63565b601f198416613b11866138ed565b60005b82811015613b3957848901518255600182019150602085019450602081019050613b14565b86831015613b565784890151613b52601f891682613a5f565b8355505b6001600288020188555050505b505050505050565b6000608082019050613b806000830187612d8a565b613b8d602083018661244d565b613b9a604083018561244d565b613ba7606083018461244d565b95945050505050565b6000613bbb826123d7565b9150613bc6836123d7565b9250828201905080821115613bde57613bdd613354565b5b92915050565b60006040820190508181036000830152613bfe8185612cca565b90508181036020830152613c128184612cca565b90509392505050565b600081519050919050565b600082825260208201905092915050565b6000613c4282613c1b565b613c4c8185613c26565b9350613c5c81856020860161275d565b613c658161253c565b840191505092915050565b600060a082019050613c856000830188612d8a565b613c926020830187612d8a565b613c9f604083018661244d565b613cac606083018561244d565b8181036080830152613cbe8184613c37565b90509695505050505050565b600081519050613cd9816124a3565b92915050565b600060208284031215613cf557613cf461236f565b5b6000613d0384828501613cca565b91505092915050565b600060a082019050613d216000830188612d8a565b613d2e6020830187612d8a565b8181036040830152613d408186612cca565b90508181036060830152613d548185612cca565b90508181036080830152613d688184613c37565b9050969550505050505056fea2646970667358221220603bf48d6ec99ebfdc492f508cf4565f4ec21728ac648c94a5a46e380b45b8a364736f6c6343000814003368747470733a2f2f6170692e66696e6f766174657061792e636f6d2f746f6b656e2f7b69647d2e6a736f6e",
  "linkReferences": {},
  "deployedLinkReferences": {}
}