{
  "_format": "hh-sol-artifact-1",
  "contractName": "Invoice",
  "sourceName": "contracts/Invoice.sol",
  "abi": [
    {
      "inputs": [
        {
          "internalType": "address",
          "name": "_seller",
          "type": "address"
        },
        {
          "internalType": "address",
          "name": "_buyer",
          "type": "address"
        },
        {
          "internalType": "address",
          "name": "_arbiter",
          "type": "address"
        },
        {
          "internalType": "uint256",
          "name": "_amount",
          "type": "uint256"
        },
        {
          "internalType": "bytes32",
          "name": "",
          "type": "bytes32"
        },
        {
          "internalType": "uint256",
          "name": "",
          "type": "uint256"
        },
        {
          "internalType": "address",
          "name": "_tokenAddress",
          "type": "address"
        }
      ],
      "stateMutability": "nonpayable",
      "type": "constructor"
    },
    {
      "inputs": [],
      "name": "ReentrancyGuardReentrantCall",
      "type": "error"
    },
    {
      "inputs": [
        {
          "internalType": "address",
          "name": "token",
          "type": "address"
        }
      ],
      "name": "SafeERC20FailedOperation",
      "type": "error"
    },
    {
      "anonymous": false,
      "inputs": [
        {
          "indexed": true,
          "internalType": "address",
          "name": "raisedBy",
          "type": "address"
        }
      ],
      "name": "DisputeRaised",
      "type": "event"
    },
    {
      "anonymous": false,
      "inputs": [
        {
          "indexed": true,
          "internalType": "address",
          "name": "resolver",
          "type": "address"
        },
        {
          "indexed": true,
          "internalType": "address",
          "name": "winner",
          "type": "address"
        }
      ],
      "name": "DisputeResolved",
      "type": "event"
    },
    {
      "anonymous": false,
      "inputs": [
        {
          "indexed": false,
          "internalType": "uint256",
          "name": "amount",
          "type": "uint256"
        }
      ],
      "name": "InvoiceDeposited",
      "type": "event"
    },
    {
      "anonymous": false,
      "inputs": [
        {
          "indexed": false,
          "internalType": "uint256",
          "name": "amount",
          "type": "uint256"
        }
      ],
      "name": "InvoiceReleased",
      "type": "event"
    },
    {
      "anonymous": false,
      "inputs": [
        {
          "indexed": false,
          "internalType": "enum Invoice.Status",
          "name": "newStatus",
          "type": "uint8"
        }
      ],
      "name": "StatusChanged",
      "type": "event"
    },
    {
      "inputs": [],
      "name": "amount",
      "outputs": [
        {
          "internalType": "uint256",
          "name": "",
          "type": "uint256"
        }
      ],
      "stateMutability": "view",
      "type": "function"
    },
    {
      "inputs": [],
      "name": "arbiter",
      "outputs": [
        {
          "internalType": "address",
          "name": "",
          "type": "address"
        }
      ],
      "stateMutability": "view",
      "type": "function"
    },
    {
      "inputs": [],
      "name": "buyer",
      "outputs": [
        {
          "internalType": "address",
          "name": "",
          "type": "address"
        }
      ],
      "stateMutability": "view",
      "type": "function"
    },
    {
      "inputs": [],
      "name": "currentStatus",
      "outputs": [
        {
          "internalType": "enum Invoice.Status",
          "name": "",
          "type": "uint8"
        }
      ],
      "stateMutability": "view",
      "type": "function"
    },
    {
      "inputs": [],
      "name": "depositNative",
      "outputs": [],
      "stateMutability": "payable",
      "type": "function"
    },
    {
      "inputs": [],
      "name": "depositToken",
      "outputs": [],
      "stateMutability": "nonpayable",
      "type": "function"
    },
    {
      "inputs": [
        {
          "internalType": "uint256",
          "name": "",
          "type": "uint256"
        }
      ],
      "name": "escrowBalance",
      "outputs": [
        {
          "internalType": "uint256",
          "name": "",
          "type": "uint256"
        }
      ],
      "stateMutability": "view",
      "type": "function"
    },
    {
      "inputs": [],
      "name": "raiseDispute",
      "outputs": [],
      "stateMutability": "nonpayable",
      "type": "function"
    },
    {
      "inputs": [],
      "name": "releaseFunds",
      "outputs": [],
      "stateMutability": "nonpayable",
      "type": "function"
    },
    {
      "inputs": [
        {
          "internalType": "address",
          "name": "winner",
          "type": "address"
        }
      ],
      "name": "resolveDispute",
      "outputs": [],
      "stateMutability": "nonpayable",
      "type": "function"
    },
    {
      "inputs": [],
      "name": "seller",
      "outputs": [
        {
          "internalType": "address",
          "name": "",
          "type": "address"
        }
      ],
      "stateMutability": "view",
      "type": "function"
    },
    {
      "inputs": [],
      "name": "tokenAddress",
      "outputs": [
        {
          "internalType": "address",
          "name": "",
          "type": "address"
        }
      ],
      "stateMutability": "view",
      "type": "function"
    }
  ],
  "bytecode": "0x60803461010057601f610c4338819003918201601f19168301916001600160401b038311848410176101045780849260e0946040528339810103126101005761004781610118565b9061005460208201610118565b61006060408301610118565b9061007260c060608501519401610118565b60017f9b779b17422d0df92223018b32b4d1fa46e071723d6817e2486d003becc55f008190555f80546001600160a01b03199081166001600160a01b03988916179091558154811693871693909317905560028054909216928516929092179055600391909155600480546001600160a81b03191692909116919091179055604051610b16908161012d8239f35b5f80fd5b634e487b7160e01b5f52604160045260245ffd5b51906001600160a01b03821682036101005756fe6080806040526004361015610012575f80fd5b5f3560e01c90816308551a531461087a5750806369d89575146107495780636daa2d44146106555780637150d8ae1461062d5780639d76ea5814610605578063aa8c217c146105e8578063bb099ee3146105be578063c89039c514610424578063d846118214610267578063db6b52461461010c578063ef8a9235146100cc5763fe25e00a146100a0575f80fd5b346100c8575f3660031901126100c8576002546040516001600160a01b039091168152602090f35b5f80fd5b346100c8575f3660031901126100c85760ff60045460a01c1660405160058210156100f8576020918152f35b634e487b7160e01b5f52602160045260245ffd5b5f3660031901126100c85761012c60018060a01b0360015416331461089c565b60ff60045460a01c1660058110156100f85761014890156108e8565b6101506109f0565b6004546001600160a01b03166102225760035434036101ea575f8052600560205260405f206101803482546109cf565b90556004805460ff60a01b1916600160a01b1790557ffcdf429e5808472e48ef1ab9a16cdc660495e5ff4fc29a4cb6fa3705a588b2c36020604051348152a15f516020610aa15f395f51905f52602060405160018152a160015f516020610ac15f395f51905f5255005b60405162461bcd60e51b815260206004820152601060248201526f125b98dbdc9c9958dd08185b5bdd5b9d60821b6044820152606490fd5b60405162461bcd60e51b815260206004820152601a60248201527f496e766f69636520697320666f7220455243323020746f6b656e0000000000006044820152606490fd5b346100c85760203660031901126100c8576004356001600160a01b038116908181036100c8576002546001600160a01b031633036103df5760ff60045460a01c1660058110156100f85760036102bd91146108e8565b6102c56109f0565b6001546001600160a01b0316821480156103cc575b15610387576004545f516020610aa15f395f51905f529260209290916001600160a01b03168061037557505f80808061032194600354905af161031b610925565b5061098a565b6004805460ff60a01b1916600160a11b17905560405190337fd2dc052bee2b52c6f56a2b5bc488360183af7ee2f1b7e600a0e3c0e9337dd4e85f80a360028152a160015f516020610ac15f395f51905f5255005b6103829160035491610a28565b610321565b60405162461bcd60e51b815260206004820152601e60248201527f57696e6e6572206d757374206265206275796572206f722073656c6c657200006044820152606490fd5b505f546001600160a01b031682146102da565b60405162461bcd60e51b815260206004820152601a60248201527f4f6e6c7920617262697465722063616e2063616c6c20746869730000000000006044820152606490fd5b346100c8575f3660031901126100c85761044960018060a01b0360015416331461089c565b60ff60045460a01c1660058110156100f85761046590156108e8565b61046d6109f0565b6004546001600160a01b0316801561057957600354604051906323b872dd60e01b5f52336004523060245260445260205f60648180865af19060015f5114821615610558575b6040525f60605215610546576003545f805260056020526104d960405f209182546109cf565b90556004805460ff60a01b1916600160a01b1790557ffcdf429e5808472e48ef1ab9a16cdc660495e5ff4fc29a4cb6fa3705a588b2c36020600354604051908152a15f516020610aa15f395f51905f52602060405160018152a160015f516020610ac15f395f51905f5255005b635274afe760e01b5f5260045260245ffd5b90600181151661057057823b15153d151616906104b3565b503d5f823e3d90fd5b60405162461bcd60e51b815260206004820152601e60248201527f496e766f69636520697320666f72206e61746976652063757272656e637900006044820152606490fd5b346100c85760203660031901126100c8576004355f526005602052602060405f2054604051908152f35b346100c8575f3660031901126100c8576020600354604051908152f35b346100c8575f3660031901126100c8576004546040516001600160a01b039091168152602090f35b346100c8575f3660031901126100c8576001546040516001600160a01b039091168152602090f35b346100c8575f3660031901126100c85760ff60045460a01c1660058110156100f857600161068391146108e8565b6001546001600160a01b031633148015610736575b156106f1576004805460ff60a01b1916600360a01b1790556040515f516020610aa15f395f51905f5290602090337f0b3cd97b16a08a5c77357c276d248827ad32dfd56060f7c55d6255537ba3d9625f80a260038152a1005b60405162461bcd60e51b815260206004820152601e60248201527f4f6e6c7920706172746965732063616e207261697365206469737075746500006044820152606490fd5b505f546001600160a01b03163314610698565b346100c8575f3660031901126100c85761076e60018060a01b0360015416331461089c565b60ff60045460a01c1660058110156100f857600161078c91146108e8565b6107946109f0565b5f80805260056020527f05b8ccbb9d4d8fb16ea74ce3c29a41f1b461fbdaff4714a0d9a8eb05499746bc556004546001600160a01b03168061085b57506107f05f80808060018060a01b03815416600354905af161031b610925565b6004805460ff60a01b1916600160a11b1790557f2f23935ed545a1a57e18b4e37df10f8c3b4e4ae851a9c20a6edcb3f25e194b1a6020600354604051908152a15f516020610aa15f395f51905f52602060405160028152a160015f516020610ac15f395f51905f5255005b5f546003546108759290916001600160a01b031690610a28565b6107f0565b346100c8575f3660031901126100c8575f546001600160a01b03168152602090f35b156108a357565b60405162461bcd60e51b815260206004820152601860248201527f4f6e6c792062757965722063616e2063616c6c207468697300000000000000006044820152606490fd5b156108ef57565b60405162461bcd60e51b815260206004820152600e60248201526d496e76616c69642073746174757360901b6044820152606490fd5b3d15610985573d9067ffffffffffffffff82116109715760405191601f8101601f19908116603f0116830167ffffffffffffffff8111848210176109715760405282523d5f602084013e565b634e487b7160e01b5f52604160045260245ffd5b606090565b1561099157565b60405162461bcd60e51b815260206004820152601660248201527513985d1a5d99481d1c985b9cd9995c8819985a5b195960521b6044820152606490fd5b919082018092116109dc57565b634e487b7160e01b5f52601160045260245ffd5b60025f516020610ac15f395f51905f525414610a195760025f516020610ac15f395f51905f5255565b633ee5aeb560e01b5f5260045ffd5b916040519163a9059cbb60e01b5f5260018060a01b031660045260245260205f60448180865af19060015f5114821615610a88575b60405215610a685750565b635274afe760e01b5f9081526001600160a01b0391909116600452602490fd5b90600181151661057057823b15153d15161690610a5d56feafa725e7f44cadb687a7043853fa1a7e7b8f0da74ce87ec546e9420f04da8c1e9b779b17422d0df92223018b32b4d1fa46e071723d6817e2486d003becc55f00a2646970667358221220bcb70076e7ae362a04029b0d380f55cbe5e87fa9e5ed16e613822a60f426bbf864736f6c634300081c0033",
  "linkReferences": {},
  "deployedLinkReferences": {}
}