{
  "_format": "hh-sol-artifact-1",
  "contractName": "Invoice",
  "sourceName": "contracts/Invoice.sol",
  "abi": [
    {
      "inputs": [
        {
          "internalType": "address",
          "name": "_seller",
          "type": "address"
        },
        {
          "internalType": "address",
          "name": "_buyer",
          "type": "address"
        },
        {
          "internalType": "address",
          "name": "_arbiter",
          "type": "address"
        },
        {
          "internalType": "uint256",
          "name": "_amount",
          "type": "uint256"
        },
        {
          "internalType": "bytes32",
          "name": "",
          "type": "bytes32"
        },
        {
          "internalType": "uint256",
          "name": "",
          "type": "uint256"
        },
        {
          "internalType": "address",
          "name": "_tokenAddress",
          "type": "address"
        }
      ],
      "stateMutability": "nonpayable",
      "type": "constructor"
    },
    {
      "inputs": [],
      "name": "ReentrancyGuardReentrantCall",
      "type": "error"
    },
    {
      "inputs": [
        {
          "internalType": "address",
          "name": "token",
          "type": "address"
        }
      ],
      "name": "SafeERC20FailedOperation",
      "type": "error"
    },
    {
      "anonymous": false,
      "inputs": [
        {
          "indexed": true,
          "internalType": "address",
          "name": "raisedBy",
          "type": "address"
        }
      ],
      "name": "DisputeRaised",
      "type": "event"
    },
    {
      "anonymous": false,
      "inputs": [
        {
          "indexed": true,
          "internalType": "address",
          "name": "resolver",
          "type": "address"
        },
        {
          "indexed": true,
          "internalType": "address",
          "name": "winner",
          "type": "address"
        }
      ],
      "name": "DisputeResolved",
      "type": "event"
    },
    {
      "anonymous": false,
      "inputs": [
        {
          "indexed": false,
          "internalType": "uint256",
          "name": "amount",
          "type": "uint256"
        }
      ],
      "name": "InvoiceDeposited",
      "type": "event"
    },
    {
      "anonymous": false,
      "inputs": [
        {
          "indexed": false,
          "internalType": "uint256",
          "name": "amount",
          "type": "uint256"
        }
      ],
      "name": "InvoiceReleased",
      "type": "event"
    },
    {
      "anonymous": false,
      "inputs": [
        {
          "indexed": false,
          "internalType": "enum Invoice.Status",
          "name": "newStatus",
          "type": "uint8"
        }
      ],
      "name": "StatusChanged",
      "type": "event"
    },
    {
      "inputs": [],
      "name": "amount",
      "outputs": [
        {
          "internalType": "uint256",
          "name": "",
          "type": "uint256"
        }
      ],
      "stateMutability": "view",
      "type": "function"
    },
    {
      "inputs": [],
      "name": "arbiter",
      "outputs": [
        {
          "internalType": "address",
          "name": "",
          "type": "address"
        }
      ],
      "stateMutability": "view",
      "type": "function"
    },
    {
      "inputs": [],
      "name": "buyer",
      "outputs": [
        {
          "internalType": "address",
          "name": "",
          "type": "address"
        }
      ],
      "stateMutability": "view",
      "type": "function"
    },
    {
      "inputs": [],
      "name": "currentStatus",
      "outputs": [
        {
          "internalType": "enum Invoice.Status",
          "name": "",
          "type": "uint8"
        }
      ],
      "stateMutability": "view",
      "type": "function"
    },
    {
      "inputs": [],
      "name": "depositNative",
      "outputs": [],
      "stateMutability": "payable",
      "type": "function"
    },
    {
      "inputs": [],
      "name": "depositToken",
      "outputs": [],
      "stateMutability": "nonpayable",
      "type": "function"
    },
    {
      "inputs": [],
      "name": "raiseDispute",
      "outputs": [],
      "stateMutability": "nonpayable",
      "type": "function"
    },
    {
      "inputs": [],
      "name": "releaseFunds",
      "outputs": [],
      "stateMutability": "nonpayable",
      "type": "function"
    },
    {
      "inputs": [
        {
          "internalType": "address",
          "name": "winner",
          "type": "address"
        }
      ],
      "name": "resolveDispute",
      "outputs": [],
      "stateMutability": "nonpayable",
      "type": "function"
    },
    {
      "inputs": [],
      "name": "seller",
      "outputs": [
        {
          "internalType": "address",
          "name": "",
          "type": "address"
        }
      ],
      "stateMutability": "view",
      "type": "function"
    },
    {
      "inputs": [],
      "name": "tokenAddress",
      "outputs": [
        {
          "internalType": "address",
          "name": "",
          "type": "address"
        }
      ],
      "stateMutability": "view",
      "type": "function"
    }
  ],
  "bytecode": "0x60806040523480156200001157600080fd5b5060405162001d0e38038062001d0e833981810160405281019062000037919062000265565b600160008190555086600160006101000a81548173ffffffffffffffffffffffffffffffffffffffff021916908373ffffffffffffffffffffffffffffffffffffffff16021790555085600260006101000a81548173ffffffffffffffffffffffffffffffffffffffff021916908373ffffffffffffffffffffffffffffffffffffffff16021790555084600360006101000a81548173ffffffffffffffffffffffffffffffffffffffff021916908373ffffffffffffffffffffffffffffffffffffffff1602179055508360048190555080600560006101000a81548173ffffffffffffffffffffffffffffffffffffffff021916908373ffffffffffffffffffffffffffffffffffffffff1602179055506000600560146101000a81548160ff0219169083600481111562000173576200017262000318565b5b02179055505050505050505062000347565b600080fd5b600073ffffffffffffffffffffffffffffffffffffffff82169050919050565b6000620001b7826200018a565b9050919050565b620001c981620001aa565b8114620001d557600080fd5b50565b600081519050620001e981620001be565b92915050565b6000819050919050565b6200020481620001ef565b81146200021057600080fd5b50565b6000815190506200022481620001f9565b92915050565b6000819050919050565b6200023f816200022a565b81146200024b57600080fd5b50565b6000815190506200025f8162000234565b92915050565b600080600080600080600060e0888a03121562000287576200028662000185565b5b6000620002978a828b01620001d8565b9750506020620002aa8a828b01620001d8565b9650506040620002bd8a828b01620001d8565b9550506060620002d08a828b0162000213565b9450506080620002e38a828b016200024e565b93505060a0620002f68a828b0162000213565b92505060c0620003098a828b01620001d8565b91505092959891949750929550565b7f4e487b7100000000000000000000000000000000000000000000000000000000600052602160045260246000fd5b6119b780620003576000396000f3fe60806040526004361061009c5760003560e01c8063aa8c217c11610064578063aa8c217c14610150578063c89039c51461017b578063d846118214610192578063db6b5246146101bb578063ef8a9235146101c5578063fe25e00a146101f05761009c565b806308551a53146100a157806369d89575146100cc5780636daa2d44146100e35780637150d8ae146100fa5780639d76ea5814610125575b600080fd5b3480156100ad57600080fd5b506100b661021b565b6040516100c391906113bf565b60405180910390f35b3480156100d857600080fd5b506100e1610241565b005b3480156100ef57600080fd5b506100f8610595565b005b34801561010657600080fd5b5061010f61079d565b60405161011c91906113bf565b60405180910390f35b34801561013157600080fd5b5061013a6107c3565b60405161014791906113bf565b60405180910390f35b34801561015c57600080fd5b506101656107e9565b60405161017291906113f3565b60405180910390f35b34801561018757600080fd5b506101906107ef565b005b34801561019e57600080fd5b506101b960048036038101906101b4919061143f565b610aaf565b005b6101c3610ec9565b005b3480156101d157600080fd5b506101da611152565b6040516101e791906114e3565b60405180910390f35b3480156101fc57600080fd5b50610205611165565b60405161021291906113bf565b60405180910390f35b600160009054906101000a900473ffffffffffffffffffffffffffffffffffffffff1681565b600260009054906101000a900473ffffffffffffffffffffffffffffffffffffffff1673ffffffffffffffffffffffffffffffffffffffff163373ffffffffffffffffffffffffffffffffffffffff16146102d1576040517f08c379a00000000000000000000000000000000000000000000000000000000081526004016102c89061155b565b60405180910390fd5b60018060048111156102e6576102e561146c565b5b600560149054906101000a900460ff1660048111156103085761030761146c565b5b14610348576040517f08c379a000000000000000000000000000000000000000000000000000000000815260040161033f906115c7565b60405180910390fd5b61035061118b565b600073ffffffffffffffffffffffffffffffffffffffff16600560009054906101000a900473ffffffffffffffffffffffffffffffffffffffff1673ffffffffffffffffffffffffffffffffffffffff160361047c576000600160009054906101000a900473ffffffffffffffffffffffffffffffffffffffff1673ffffffffffffffffffffffffffffffffffffffff166004546040516103f090611618565b60006040518083038185875af1925050503d806000811461042d576040519150601f19603f3d011682016040523d82523d6000602084013e610432565b606091505b5050905080610476576040517f08c379a000000000000000000000000000000000000000000000000000000000815260040161046d90611679565b60405180910390fd5b506104ee565b6104ed600160009054906101000a900473ffffffffffffffffffffffffffffffffffffffff16600454600560009054906101000a900473ffffffffffffffffffffffffffffffffffffffff1673ffffffffffffffffffffffffffffffffffffffff166111d19092919063ffffffff16565b5b6002600560146101000a81548160ff021916908360048111156105145761051361146c565b5b02179055507f2f23935ed545a1a57e18b4e37df10f8c3b4e4ae851a9c20a6edcb3f25e194b1a60045460405161054a91906113f3565b60405180910390a17fafa725e7f44cadb687a7043853fa1a7e7b8f0da74ce87ec546e9420f04da8c1e600260405161058291906114e3565b60405180910390a1610592611250565b50565b60018060048111156105aa576105a961146c565b5b600560149054906101000a900460ff1660048111156105cc576105cb61146c565b5b1461060c576040517f08c379a0000000000000000000000000000000000000000000000000000000008152600401610603906115c7565b60405180910390fd5b600260009054906101000a900473ffffffffffffffffffffffffffffffffffffffff1673ffffffffffffffffffffffffffffffffffffffff163373ffffffffffffffffffffffffffffffffffffffff1614806106b55750600160009054906101000a900473ffffffffffffffffffffffffffffffffffffffff1673ffffffffffffffffffffffffffffffffffffffff163373ffffffffffffffffffffffffffffffffffffffff16145b6106f4576040517f08c379a00000000000000000000000000000000000000000000000000000000081526004016106eb906116e5565b60405180910390fd5b6003600560146101000a81548160ff0219169083600481111561071a5761071961146c565b5b02179055503373ffffffffffffffffffffffffffffffffffffffff167f0b3cd97b16a08a5c77357c276d248827ad32dfd56060f7c55d6255537ba3d96260405160405180910390a27fafa725e7f44cadb687a7043853fa1a7e7b8f0da74ce87ec546e9420f04da8c1e600360405161079291906114e3565b60405180910390a150565b600260009054906101000a900473ffffffffffffffffffffffffffffffffffffffff1681565b600560009054906101000a900473ffffffffffffffffffffffffffffffffffffffff1681565b60045481565b600260009054906101000a900473ffffffffffffffffffffffffffffffffffffffff1673ffffffffffffffffffffffffffffffffffffffff163373ffffffffffffffffffffffffffffffffffffffff161461087f576040517f08c379a00000000000000000000000000000000000000000000000000000000081526004016108769061155b565b60405180910390fd5b60008060048111156108945761089361146c565b5b600560149054906101000a900460ff1660048111156108b6576108b561146c565b5b146108f6576040517f08c379a00000000000000000000000000000000000000000000000000000000081526004016108ed906115c7565b60405180910390fd5b6108fe61118b565b600073ffffffffffffffffffffffffffffffffffffffff16600560009054906101000a900473ffffffffffffffffffffffffffffffffffffffff1673ffffffffffffffffffffffffffffffffffffffff160361098f576040517f08c379a000000000000000000000000000000000000000000000000000000000815260040161098690611751565b60405180910390fd5b6000600560009054906101000a900473ffffffffffffffffffffffffffffffffffffffff169050610a0733600160009054906101000a900473ffffffffffffffffffffffffffffffffffffffff166004548473ffffffffffffffffffffffffffffffffffffffff1661125a909392919063ffffffff16565b6001600560146101000a81548160ff02191690836004811115610a2d57610a2c61146c565b5b02179055507ffcdf429e5808472e48ef1ab9a16cdc660495e5ff4fc29a4cb6fa3705a588b2c3600454604051610a6391906113f3565b60405180910390a17fafa725e7f44cadb687a7043853fa1a7e7b8f0da74ce87ec546e9420f04da8c1e6001604051610a9b91906114e3565b60405180910390a150610aac611250565b50565b600360009054906101000a900473ffffffffffffffffffffffffffffffffffffffff1673ffffffffffffffffffffffffffffffffffffffff163373ffffffffffffffffffffffffffffffffffffffff1614610b3f576040517f08c379a0000000000000000000000000000000000000000000000000000000008152600401610b36906117bd565b60405180910390fd5b6003806004811115610b5457610b5361146c565b5b600560149054906101000a900460ff166004811115610b7657610b7561146c565b5b14610bb6576040517f08c379a0000000000000000000000000000000000000000000000000000000008152600401610bad906115c7565b60405180910390fd5b610bbe61118b565b600260009054906101000a900473ffffffffffffffffffffffffffffffffffffffff1673ffffffffffffffffffffffffffffffffffffffff168273ffffffffffffffffffffffffffffffffffffffff161480610c675750600160009054906101000a900473ffffffffffffffffffffffffffffffffffffffff1673ffffffffffffffffffffffffffffffffffffffff168273ffffffffffffffffffffffffffffffffffffffff16145b610ca6576040517f08c379a0000000000000000000000000000000000000000000000000000000008152600401610c9d90611829565b60405180910390fd5b600073ffffffffffffffffffffffffffffffffffffffff16600560009054906101000a900473ffffffffffffffffffffffffffffffffffffffff1673ffffffffffffffffffffffffffffffffffffffff1603610db05760008273ffffffffffffffffffffffffffffffffffffffff16600454604051610d2490611618565b60006040518083038185875af1925050503d8060008114610d61576040519150601f19603f3d011682016040523d82523d6000602084013e610d66565b606091505b5050905080610daa576040517f08c379a0000000000000000000000000000000000000000000000000000000008152600401610da190611679565b60405180910390fd5b50610e00565b610dff82600454600560009054906101000a900473ffffffffffffffffffffffffffffffffffffffff1673ffffffffffffffffffffffffffffffffffffffff166111d19092919063ffffffff16565b5b6002600560146101000a81548160ff02191690836004811115610e2657610e2561146c565b5b02179055508173ffffffffffffffffffffffffffffffffffffffff163373ffffffffffffffffffffffffffffffffffffffff167fd2dc052bee2b52c6f56a2b5bc488360183af7ee2f1b7e600a0e3c0e9337dd4e860405160405180910390a37fafa725e7f44cadb687a7043853fa1a7e7b8f0da74ce87ec546e9420f04da8c1e6002604051610eb591906114e3565b60405180910390a1610ec5611250565b5050565b600260009054906101000a900473ffffffffffffffffffffffffffffffffffffffff1673ffffffffffffffffffffffffffffffffffffffff163373ffffffffffffffffffffffffffffffffffffffff1614610f59576040517f08c379a0000000000000000000000000000000000000000000000000000000008152600401610f509061155b565b60405180910390fd5b6000806004811115610f6e57610f6d61146c565b5b600560149054906101000a900460ff166004811115610f9057610f8f61146c565b5b14610fd0576040517f08c379a0000000000000000000000000000000000000000000000000000000008152600401610fc7906115c7565b60405180910390fd5b610fd861118b565b600073ffffffffffffffffffffffffffffffffffffffff16600560009054906101000a900473ffffffffffffffffffffffffffffffffffffffff1673ffffffffffffffffffffffffffffffffffffffff1614611069576040517f08c379a000000000000000000000000000000000000000000000000000000000815260040161106090611895565b60405180910390fd5b60045434146110ad576040517f08c379a00000000000000000000000000000000000000000000000000000000081526004016110a490611901565b60405180910390fd5b6001600560146101000a81548160ff021916908360048111156110d3576110d261146c565b5b02179055507ffcdf429e5808472e48ef1ab9a16cdc660495e5ff4fc29a4cb6fa3705a588b2c33460405161110791906113f3565b60405180910390a17fafa725e7f44cadb687a7043853fa1a7e7b8f0da74ce87ec546e9420f04da8c1e600160405161113f91906114e3565b60405180910390a161114f611250565b50565b600560149054906101000a900460ff1681565b600360009054906101000a900473ffffffffffffffffffffffffffffffffffffffff1681565b6002600054036111c7576040517f3ee5aeb500000000000000000000000000000000000000000000000000000000815260040160405180910390fd5b6002600081905550565b61124b838473ffffffffffffffffffffffffffffffffffffffff1663a9059cbb8585604051602401611204929190611921565b604051602081830303815290604052915060e01b6020820180517bffffffffffffffffffffffffffffffffffffffffffffffffffffffff83818316178352505050506112dc565b505050565b6001600081905550565b6112d6848573ffffffffffffffffffffffffffffffffffffffff166323b872dd86868660405160240161128f9392919061194a565b604051602081830303815290604052915060e01b6020820180517bffffffffffffffffffffffffffffffffffffffffffffffffffffffff83818316178352505050506112dc565b50505050565b600080602060008451602086016000885af1806112ff576040513d6000823e3d81fd5b3d92506000519150506000821461131a576001811415611336565b60008473ffffffffffffffffffffffffffffffffffffffff163b145b1561137857836040517f5274afe700000000000000000000000000000000000000000000000000000000815260040161136f91906113bf565b60405180910390fd5b50505050565b600073ffffffffffffffffffffffffffffffffffffffff82169050919050565b60006113a98261137e565b9050919050565b6113b98161139e565b82525050565b60006020820190506113d460008301846113b0565b92915050565b6000819050919050565b6113ed816113da565b82525050565b600060208201905061140860008301846113e4565b92915050565b600080fd5b61141c8161139e565b811461142757600080fd5b50565b60008135905061143981611413565b92915050565b6000602082840312156114555761145461140e565b5b60006114638482850161142a565b91505092915050565b7f4e487b7100000000000000000000000000000000000000000000000000000000600052602160045260246000fd5b600581106114ac576114ab61146c565b5b50565b60008190506114bd8261149b565b919050565b60006114cd826114af565b9050919050565b6114dd816114c2565b82525050565b60006020820190506114f860008301846114d4565b92915050565b600082825260208201905092915050565b7f4f6e6c792062757965722063616e2063616c6c20746869730000000000000000600082015250565b60006115456018836114fe565b91506115508261150f565b602082019050919050565b6000602082019050818103600083015261157481611538565b9050919050565b7f496e76616c696420737461747573000000000000000000000000000000000000600082015250565b60006115b1600e836114fe565b91506115bc8261157b565b602082019050919050565b600060208201905081810360008301526115e0816115a4565b9050919050565b600081905092915050565b50565b60006116026000836115e7565b915061160d826115f2565b600082019050919050565b6000611623826115f5565b9150819050919050565b7f4e6174697665207472616e73666572206661696c656400000000000000000000600082015250565b60006116636016836114fe565b915061166e8261162d565b602082019050919050565b6000602082019050818103600083015261169281611656565b9050919050565b7f4f6e6c7920706172746965732063616e20726169736520646973707574650000600082015250565b60006116cf601e836114fe565b91506116da82611699565b602082019050919050565b600060208201905081810360008301526116fe816116c2565b9050919050565b7f496e766f69636520697320666f72206e61746976652063757272656e63790000600082015250565b600061173b601e836114fe565b915061174682611705565b602082019050919050565b6000602082019050818103600083015261176a8161172e565b9050919050565b7f4f6e6c7920617262697465722063616e2063616c6c2074686973000000000000600082015250565b60006117a7601a836114fe565b91506117b282611771565b602082019050919050565b600060208201905081810360008301526117d68161179a565b9050919050565b7f57696e6e6572206d757374206265206275796572206f722073656c6c65720000600082015250565b6000611813601e836114fe565b915061181e826117dd565b602082019050919050565b6000602082019050818103600083015261184281611806565b9050919050565b7f496e766f69636520697320666f7220455243323020746f6b656e000000000000600082015250565b600061187f601a836114fe565b915061188a82611849565b602082019050919050565b600060208201905081810360008301526118ae81611872565b9050919050565b7f496e636f727265637420616d6f756e7400000000000000000000000000000000600082015250565b60006118eb6010836114fe565b91506118f6826118b5565b602082019050919050565b6000602082019050818103600083015261191a816118de565b9050919050565b600060408201905061193660008301856113b0565b61194360208301846113e4565b9392505050565b600060608201905061195f60008301866113b0565b61196c60208301856113b0565b61197960408301846113e4565b94935050505056fea26469706673582212201bd6ee62deed08fa81e63cb430976c501f921d218b964e92765c09dbd9716a3464736f6c63430008140033",
  "linkReferences": {},
  "deployedLinkReferences": {}
}