{
  "_format": "hh-sol-artifact-1",
  "contractName": "InvoiceAuction",
  "sourceName": "contracts/InvoiceAuction.sol",
  "abi": [
    {
      "inputs": [],
      "stateMutability": "nonpayable",
      "type": "constructor"
    },
    {
      "inputs": [
        {
          "internalType": "address",
          "name": "owner",
          "type": "address"
        }
      ],
      "name": "OwnableInvalidOwner",
      "type": "error"
    },
    {
      "inputs": [
        {
          "internalType": "address",
          "name": "account",
          "type": "address"
        }
      ],
      "name": "OwnableUnauthorizedAccount",
      "type": "error"
    },
    {
      "inputs": [],
      "name": "ReentrancyGuardReentrantCall",
      "type": "error"
    },
    {
      "inputs": [
        {
          "internalType": "address",
          "name": "token",
          "type": "address"
        }
      ],
      "name": "SafeERC20FailedOperation",
      "type": "error"
    },
    {
      "anonymous": false,
      "inputs": [
        {
          "indexed": true,
          "internalType": "bytes32",
          "name": "auctionId",
          "type": "bytes32"
        }
      ],
      "name": "AuctionCancelled",
      "type": "event"
    },
    {
      "anonymous": false,
      "inputs": [
        {
          "indexed": true,
          "internalType": "bytes32",
          "name": "auctionId",
          "type": "bytes32"
        },
        {
          "indexed": true,
          "internalType": "address",
          "name": "seller",
          "type": "address"
        },
        {
          "indexed": false,
          "internalType": "address",
          "name": "invoiceContract",
          "type": "address"
        },
        {
          "indexed": false,
          "internalType": "uint256",
          "name": "invoiceId",
          "type": "uint256"
        },
        {
          "indexed": false,
          "internalType": "uint256",
          "name": "faceValue",
          "type": "uint256"
        },
        {
          "indexed": false,
          "internalType": "uint256",
          "name": "minYieldBps",
          "type": "uint256"
        },
        {
          "indexed": false,
          "internalType": "uint256",
          "name": "auctionEndTime",
          "type": "uint256"
        }
      ],
      "name": "AuctionCreated",
      "type": "event"
    },
    {
      "anonymous": false,
      "inputs": [
        {
          "indexed": true,
          "internalType": "bytes32",
          "name": "auctionId",
          "type": "bytes32"
        },
        {
          "indexed": false,
          "internalType": "address",
          "name": "winner",
          "type": "address"
        },
        {
          "indexed": false,
          "internalType": "uint256",
          "name": "winningBid",
          "type": "uint256"
        },
        {
          "indexed": false,
          "internalType": "uint256",
          "name": "winningYield",
          "type": "uint256"
        }
      ],
      "name": "AuctionEnded",
      "type": "event"
    },
    {
      "anonymous": false,
      "inputs": [
        {
          "indexed": true,
          "internalType": "bytes32",
          "name": "auctionId",
          "type": "bytes32"
        },
        {
          "indexed": false,
          "internalType": "address",
          "name": "winner",
          "type": "address"
        },
        {
          "indexed": false,
          "internalType": "uint256",
          "name": "amount",
          "type": "uint256"
        },
        {
          "indexed": false,
          "internalType": "uint256",
          "name": "platformFee",
          "type": "uint256"
        }
      ],
      "name": "AuctionSettled",
      "type": "event"
    },
    {
      "anonymous": false,
      "inputs": [
        {
          "indexed": true,
          "internalType": "bytes32",
          "name": "auctionId",
          "type": "bytes32"
        }
      ],
      "name": "AuctionStarted",
      "type": "event"
    },
    {
      "anonymous": false,
      "inputs": [
        {
          "indexed": true,
          "internalType": "bytes32",
          "name": "auctionId",
          "type": "bytes32"
        },
        {
          "indexed": true,
          "internalType": "address",
          "name": "bidder",
          "type": "address"
        },
        {
          "indexed": false,
          "internalType": "uint256",
          "name": "yieldBps",
          "type": "uint256"
        },
        {
          "indexed": false,
          "internalType": "uint256",
          "name": "bidAmount",
          "type": "uint256"
        }
      ],
      "name": "BidPlaced",
      "type": "event"
    },
    {
      "anonymous": false,
      "inputs": [
        {
          "indexed": true,
          "internalType": "address",
          "name": "previousOwner",
          "type": "address"
        },
        {
          "indexed": true,
          "internalType": "address",
          "name": "newOwner",
          "type": "address"
        }
      ],
      "name": "OwnershipTransferred",
      "type": "event"
    },
    {
      "anonymous": false,
      "inputs": [
        {
          "indexed": false,
          "internalType": "uint256",
          "name": "newFeeBps",
          "type": "uint256"
        }
      ],
      "name": "PlatformFeeUpdated",
      "type": "event"
    },
    {
      "inputs": [
        {
          "internalType": "bytes32",
          "name": "",
          "type": "bytes32"
        },
        {
          "internalType": "uint256",
          "name": "",
          "type": "uint256"
        }
      ],
      "name": "auctionBids",
      "outputs": [
        {
          "internalType": "bytes32",
          "name": "bidId",
          "type": "bytes32"
        },
        {
          "internalType": "bytes32",
          "name": "auctionId",
          "type": "bytes32"
        },
        {
          "internalType": "address",
          "name": "bidder",
          "type": "address"
        },
        {
          "internalType": "uint256",
          "name": "yieldBps",
          "type": "uint256"
        },
        {
          "internalType": "uint256",
          "name": "bidAmount",
          "type": "uint256"
        },
        {
          "internalType": "uint256",
          "name": "timestamp",
          "type": "uint256"
        }
      ],
      "stateMutability": "view",
      "type": "function"
    },
    {
      "inputs": [
        {
          "internalType": "bytes32",
          "name": "",
          "type": "bytes32"
        }
      ],
      "name": "auctions",
      "outputs": [
        {
          "internalType": "bytes32",
          "name": "auctionId",
          "type": "bytes32"
        },
        {
          "internalType": "address",
          "name": "seller",
          "type": "address"
        },
        {
          "internalType": "address",
          "name": "invoiceContract",
          "type": "address"
        },
        {
          "internalType": "uint256",
          "name": "invoiceId",
          "type": "uint256"
        },
        {
          "internalType": "uint256",
          "name": "faceValue",
          "type": "uint256"
        },
        {
          "internalType": "address",
          "name": "paymentToken",
          "type": "address"
        },
        {
          "internalType": "uint256",
          "name": "minYieldBps",
          "type": "uint256"
        },
        {
          "internalType": "uint256",
          "name": "auctionEndTime",
          "type": "uint256"
        },
        {
          "internalType": "uint256",
          "name": "minBidIncrement",
          "type": "uint256"
        },
        {
          "internalType": "uint256",
          "name": "highestBid",
          "type": "uint256"
        },
        {
          "internalType": "address",
          "name": "highestBidder",
          "type": "address"
        },
        {
          "internalType": "enum InvoiceAuction.AuctionStatus",
          "name": "status",
          "type": "uint8"
        },
        {
          "internalType": "uint256",
          "name": "createdAt",
          "type": "uint256"
        }
      ],
      "stateMutability": "view",
      "type": "function"
    },
    {
      "inputs": [
        {
          "internalType": "address",
          "name": "",
          "type": "address"
        },
        {
          "internalType": "uint256",
          "name": "",
          "type": "uint256"
        }
      ],
      "name": "bidderAuctions",
      "outputs": [
        {
          "internalType": "bytes32",
          "name": "",
          "type": "bytes32"
        }
      ],
      "stateMutability": "view",
      "type": "function"
    },
    {
      "inputs": [
        {
          "internalType": "bytes32",
          "name": "_auctionId",
          "type": "bytes32"
        }
      ],
      "name": "cancelAuction",
      "outputs": [],
      "stateMutability": "nonpayable",
      "type": "function"
    },
    {
      "inputs": [
        {
          "internalType": "bytes32",
          "name": "_auctionId",
          "type": "bytes32"
        },
        {
          "internalType": "address",
          "name": "_invoiceContract",
          "type": "address"
        },
        {
          "internalType": "uint256",
          "name": "_invoiceId",
          "type": "uint256"
        },
        {
          "internalType": "uint256",
          "name": "_faceValue",
          "type": "uint256"
        },
        {
          "internalType": "address",
          "name": "_paymentToken",
          "type": "address"
        },
        {
          "internalType": "uint256",
          "name": "_minYieldBps",
          "type": "uint256"
        },
        {
          "internalType": "uint256",
          "name": "_duration",
          "type": "uint256"
        },
        {
          "internalType": "uint256",
          "name": "_minBidIncrement",
          "type": "uint256"
        }
      ],
      "name": "createAuction",
      "outputs": [],
      "stateMutability": "nonpayable",
      "type": "function"
    },
    {
      "inputs": [
        {
          "internalType": "bytes32",
          "name": "_auctionId",
          "type": "bytes32"
        }
      ],
      "name": "endAuction",
      "outputs": [],
      "stateMutability": "nonpayable",
      "type": "function"
    },
    {
      "inputs": [
        {
          "internalType": "bytes32",
          "name": "_auctionId",
          "type": "bytes32"
        }
      ],
      "name": "getAuction",
      "outputs": [
        {
          "internalType": "bytes32",
          "name": "auctionId",
          "type": "bytes32"
        },
        {
          "internalType": "address",
          "name": "seller",
          "type": "address"
        },
        {
          "internalType": "address",
          "name": "invoiceContract",
          "type": "address"
        },
        {
          "internalType": "uint256",
          "name": "invoiceId",
          "type": "uint256"
        },
        {
          "internalType": "uint256",
          "name": "faceValue",
          "type": "uint256"
        },
        {
          "internalType": "address",
          "name": "paymentToken",
          "type": "address"
        },
        {
          "internalType": "uint256",
          "name": "minYieldBps",
          "type": "uint256"
        },
        {
          "internalType": "uint256",
          "name": "auctionEndTime",
          "type": "uint256"
        },
        {
          "internalType": "uint256",
          "name": "minBidIncrement",
          "type": "uint256"
        },
        {
          "internalType": "uint256",
          "name": "highestBid",
          "type": "uint256"
        },
        {
          "internalType": "address",
          "name": "highestBidder",
          "type": "address"
        },
        {
          "internalType": "uint8",
          "name": "status",
          "type": "uint8"
        },
        {
          "internalType": "uint256",
          "name": "createdAt",
          "type": "uint256"
        },
        {
          "internalType": "uint256",
          "name": "bidCount",
          "type": "uint256"
        }
      ],
      "stateMutability": "view",
      "type": "function"
    },
    {
      "inputs": [
        {
          "internalType": "bytes32",
          "name": "_auctionId",
          "type": "bytes32"
        }
      ],
      "name": "getAuctionBids",
      "outputs": [
        {
          "internalType": "bytes32[]",
          "name": "bidIds",
          "type": "bytes32[]"
        },
        {
          "internalType": "address[]",
          "name": "bidders",
          "type": "address[]"
        },
        {
          "internalType": "uint256[]",
          "name": "yieldBps",
          "type": "uint256[]"
        },
        {
          "internalType": "uint256[]",
          "name": "bidAmounts",
          "type": "uint256[]"
        },
        {
          "internalType": "uint256[]",
          "name": "timestamps",
          "type": "uint256[]"
        }
      ],
      "stateMutability": "view",
      "type": "function"
    },
    {
      "inputs": [
        {
          "internalType": "address",
          "name": "_bidder",
          "type": "address"
        }
      ],
      "name": "getBidderAuctions",
      "outputs": [
        {
          "internalType": "bytes32[]",
          "name": "",
          "type": "bytes32[]"
        }
      ],
      "stateMutability": "view",
      "type": "function"
    },
    {
      "inputs": [
        {
          "internalType": "address",
          "name": "_seller",
          "type": "address"
        }
      ],
      "name": "getSellerAuctions",
      "outputs": [
        {
          "internalType": "bytes32[]",
          "name": "",
          "type": "bytes32[]"
        }
      ],
      "stateMutability": "view",
      "type": "function"
    },
    {
      "inputs": [],
      "name": "owner",
      "outputs": [
        {
          "internalType": "address",
          "name": "",
          "type": "address"
        }
      ],
      "stateMutability": "view",
      "type": "function"
    },
    {
      "inputs": [
        {
          "internalType": "bytes32",
          "name": "_auctionId",
          "type": "bytes32"
        },
        {
          "internalType": "uint256",
          "name": "_yieldBps",
          "type": "uint256"
        }
      ],
      "name": "placeBid",
      "outputs": [],
      "stateMutability": "payable",
      "type": "function"
    },
    {
      "inputs": [],
      "name": "platformFeeBps",
      "outputs": [
        {
          "internalType": "uint256",
          "name": "",
          "type": "uint256"
        }
      ],
      "stateMutability": "view",
      "type": "function"
    },
    {
      "inputs": [],
      "name": "renounceOwnership",
      "outputs": [],
      "stateMutability": "nonpayable",
      "type": "function"
    },
    {
      "inputs": [
        {
          "internalType": "address",
          "name": "",
          "type": "address"
        },
        {
          "internalType": "uint256",
          "name": "",
          "type": "uint256"
        }
      ],
      "name": "sellerAuctions",
      "outputs": [
        {
          "internalType": "bytes32",
          "name": "",
          "type": "bytes32"
        }
      ],
      "stateMutability": "view",
      "type": "function"
    },
    {
      "inputs": [
        {
          "internalType": "uint256",
          "name": "_feeBps",
          "type": "uint256"
        }
      ],
      "name": "setPlatformFee",
      "outputs": [],
      "stateMutability": "nonpayable",
      "type": "function"
    },
    {
      "inputs": [
        {
          "internalType": "bytes32",
          "name": "_auctionId",
          "type": "bytes32"
        }
      ],
      "name": "settleAuction",
      "outputs": [],
      "stateMutability": "nonpayable",
      "type": "function"
    },
    {
      "inputs": [
        {
          "internalType": "bytes32",
          "name": "_auctionId",
          "type": "bytes32"
        }
      ],
      "name": "startAuction",
      "outputs": [],
      "stateMutability": "nonpayable",
      "type": "function"
    },
    {
      "inputs": [
        {
          "internalType": "address",
          "name": "newOwner",
          "type": "address"
        }
      ],
      "name": "transferOwnership",
      "outputs": [],
      "stateMutability": "nonpayable",
      "type": "function"
    },
    {
      "inputs": [],
      "name": "withdrawNative",
      "outputs": [],
      "stateMutability": "nonpayable",
      "type": "function"
    },
    {
      "inputs": [
        {
          "internalType": "address",
          "name": "_token",
          "type": "address"
        }
      ],
      "name": "withdrawToken",
      "outputs": [],
      "stateMutability": "nonpayable",
      "type": "function"
    },
    {
      "stateMutability": "payable",
      "type": "receive"
    }
  ],
  "bytecode": "0x60808060405234609a5733156087575f8054336001600160a01b0319821681178355916001600160a01b03909116907f8be0079c531659141344cd1fd0a4f28419497f9722a3daafe3b4186f6b6457e09080a360017f9b779b17422d0df92223018b32b4d1fa46e071723d6817e2486d003becc55f005560fa600155611bb1908161009f8239f35b631e4fbdf760e01b5f525f60045260245ffd5b5f80fdfe6080604052600436101561001a575b3615610018575f80fd5b005b5f3560e01c806301db46a0146116ac57806312e8e2c31461162257806315924b5b146115305780631cb8dd1c146114e75780631edbc5be1461140d57806322dcd13e146113f05780633dc37c89146113785780633ef4d1301461123d5780635036b0bc146111e557806350431ce41461118757806362910b591461111557806369ce5d871461108f578063715018a6146110385780638947606914610f775780638da5cb5b14610f50578063956974f614610be85780639b680e7d14610a4d578063bca1aaa314610562578063ec1f1a52146102d8578063ede8acdb1461018e5763f2fde38b0361000e573461018a57602036600319011261018a5761011e6117d9565b610126611a47565b6001600160a01b03168015610177575f80546001600160a01b03198116831782556001600160a01b0316907f8be0079c531659141344cd1fd0a4f28419497f9722a3daafe3b4186f6b6457e09080a3005b631e4fbdf760e01b5f525f60045260245ffd5b5f80fd5b3461018a57602036600319011261018a576004356101aa611a0f565b805f52600260205260405f206101cd60018060a01b0360018301541633146118bb565b600a81019060ff825460a01c1660058110156102c45761027f576007015442101561023a57805460ff60a01b1916600160a01b1790557f884055d82c091219e252c5c2acca6051c823fcba97cecb3ba07d5f06c1628e6c5f80a260015f516020611b5c5f395f51905f5255005b60405162461bcd60e51b815260206004820152601760248201527f41756374696f6e20656e642074696d65207061737365640000000000000000006044820152606490fd5b60405162461bcd60e51b815260206004820152601c60248201527f41756374696f6e206e6f7420696e2063726561746564207374617465000000006044820152606490fd5b634e487b7160e01b5f52602160045260245ffd5b3461018a57602036600319011261018a576004356102f4611a0f565b805f52600260205260405f20600a8101805460ff8160a01c1660058110156102c457600203610529576001600160a01b0316156104f857805460ff60a01b1916600160a21b1781556009820180546001546127109061035390836119bd565b04938482039182116104e45760058101546001600160a01b03168061048d5750600101545f918291829182916001600160a01b03165af16103926119d0565b5015610448575f8080808660018060a01b038254165af16103b16119d0565b501561040d577f9bd679988afa62c3a2a077b5aca0a941959adcdc7fff376f0846a733780cf813926060925b60018060a01b03905416915460405192835260208301526040820152a260015f516020611b5c5f395f51905f5255005b60405162461bcd60e51b8152602060048201526013602482015272151c985b9cd9995c881999594819985a5b1959606a1b6044820152606490fd5b60405162461bcd60e51b815260206004820152601960248201527f5472616e7366657220746f2073656c6c6572206661696c6564000000000000006044820152606490fd5b856104df916104ce7f9bd679988afa62c3a2a077b5aca0a941959adcdc7fff376f0846a733780cf8139895606098956001808060a01b039101541683611ae3565b5f546001600160a01b031690611ae3565b6103dd565b634e487b7160e01b5f52601160045260245ffd5b60405162461bcd60e51b81526020600482015260096024820152682737903bb4b73732b960b91b6044820152606490fd5b60405162461bcd60e51b8152602060048201526011602482015270105d58dd1a5bdb881b9bdd08195b991959607a1b6044820152606490fd5b61056b36611818565b90610574611a0f565b805f52600260205260405f203315610a0f57600a810160ff815460a01c1660058110156102c45760016105a7911461187a565b60078201544210156109da5760018201546001600160a01b031633146109a15783151580610995575b1561096057600682018054851161092a576005830180549093906001600160a01b031680610855575034935b6009820191825493841591825f1461084157600401549054612710039061271082116104e4576127109161062f916119bd565b045b861061080e57845486946001600160a01b03909116918215159081610805575b506107e6575b5050505560018060a01b0333166bffffffffffffffffffffffff60a01b82541617905560405160208101908382523360601b6040820152426054820152605481526106a36074826118fc565b519020825f52600360205260405f20906040519060c0820182811067ffffffffffffffff8211176107d257604052815260208101918483526040820133815260608301878152608084019186835260a08501934285528054600160401b8110156107d2576107169160018201815561182e565b9690966107bf5760059551875551600187015560018060a01b03905116600286019060018060a01b03166bffffffffffffffffffffffff60a01b82541617905551600385015551600484015551910155335f52600560205261077b8260405f2061192b565b60405192835260208301527faaddb1daa68f2c899bf123296e7c6175854ccf8ca96e733fb37813a1fbe78ec860403393a360015f516020611b5c5f395f51905f5255005b634e487b7160e01b5f525f60045260245ffd5b634e487b7160e01b5f52604160045260245ffd5b91546107fd926001600160a01b0390911691611a6d565b868080610657565b9050158a610651565b60405162461bcd60e51b815260206004820152600b60248201526a42696420746f6f206c6f7760a81b6044820152606490fd5b6108509150600801548561191e565b610631565b93346108d7576004820154946040516323b872dd60e01b5f5233600452306024528660445260205f60648180865af19060015f51148216156108b6575b6040525f606052156108a457506105fc565b635274afe760e01b5f5260045260245ffd5b9060018115166108ce57823b15153d15161690610892565b503d5f823e3d90fd5b60405162461bcd60e51b815260206004820152602560248201527f53686f756c64206e6f742073656e64206e6174697665207769746820455243326044820152640c08189a5960da1b6064820152608490fd5b60405162461bcd60e51b815260206004820152600e60248201526d0b2d2cad8c840e8dede40d0d2ced60931b6044820152606490fd5b60405162461bcd60e51b815260206004820152600d60248201526c125b9d985b1a59081e5a595b19609a1b6044820152606490fd5b506127108411156105d0565b60405162461bcd60e51b815260206004820152601160248201527014d95b1b195c8818d85b9b9bdd08189a59607a1b6044820152606490fd5b60405162461bcd60e51b815260206004820152600d60248201526c105d58dd1a5bdb88195b991959609a1b6044820152606490fd5b60405162461bcd60e51b8152602060048201526016602482015275496e76616c696420626964646572206164647265737360501b6044820152606490fd5b3461018a57602036600319011261018a576004355f52600360205260405f20805490610a788261195f565b90610a8660405192836118fc565b828252601f19610a958461195f565b01366020840137610aa58361195f565b92610ab360405194856118fc565b808452610abf8161195f565b602085019490601f1901368637610ad582611977565b90610adf83611977565b92610ae981611977565b945f5b828110610b81575050506020610b0d6040519660a0885260a0880190611847565b918683038288015251918281520195905f5b818110610b62578680610b5e88610b5089610b428e8b8782036040890152611847565b908582036060870152611847565b908382036080850152611847565b0390f35b82516001600160a01b0316885260209788019790920191600101610b1f565b806005610b906001938561182e565b508054610b9d848d6119a9565b52838060a01b03600282015416610bb484896119a9565b526003810154610bc4848a6119a9565b526004810154610bd4848b6119a9565b520154610be1828a6119a9565b5201610aec565b3461018a5761010036600319011261018a576024356001600160a01b038116906004359082900361018a576044356084356064356001600160a01b038216820361018a5760a4359160c435610c3b611a0f565b8515610f16578615610ed1573315610e93578215610e595783151580610e4d575b15610e145780151580610e07575b15610dcf57855f526002602052600b60405f200154610d91575f8681526002602081905260409091208781556001810180546001600160a01b03199081163317909155918101805483168a17905560038101879055600481018590556005810180549092166001600160a01b0390941693909317905560068201849055610cf1904261191e565b6007820190815560e43560088301555f60098301819055600a830180546001600160a81b031916905542600b9093019290925533825260046020526040909120610d3c90869061192b565b549260405195865260208601526040850152606084015260808301527ff22938c4fc67d67783dff47ab46e94951705b0261ab65c6379ab5f23b2bd019360a03393a360015f516020611b5c5f395f51905f5255005b60405162461bcd60e51b815260206004820152601660248201527541756374696f6e20616c72656164792065786973747360501b6044820152606490fd5b60405162461bcd60e51b815260206004820152601060248201526f24b73b30b634b210323ab930ba34b7b760811b6044820152606490fd5b5062278d00811115610c6a565b60405162461bcd60e51b8152602060048201526011602482015270125b9d985b1a59081b5a5b881e5a595b19607a1b6044820152606490fd5b50612710841115610c5c565b60405162461bcd60e51b8152602060048201526012602482015271496e76616c696420666163652076616c756560701b6044820152606490fd5b60405162461bcd60e51b8152602060048201526016602482015275496e76616c69642073656c6c6572206164647265737360501b6044820152606490fd5b60405162461bcd60e51b815260206004820152601860248201527f496e76616c696420696e766f69636520636f6e747261637400000000000000006044820152606490fd5b60405162461bcd60e51b8152602060048201526012602482015271125b9d985b1a5908185d58dd1a5bdb88125160721b6044820152606490fd5b3461018a575f36600319011261018a575f546040516001600160a01b039091168152602090f35b3461018a57602036600319011261018a57610f906117d9565b610f98611a47565b610fa0611a0f565b5f546040516370a0823160e01b8152306004820152916001600160a01b039081169116602083602481855afa91821561102d575f92610ff7575b610fe49350611ae3565b60015f516020611b5c5f395f51905f5255005b91506020833d602011611025575b81611012602093836118fc565b8101031261018a57610fe4925191610fda565b3d9150611005565b6040513d5f823e3d90fd5b3461018a575f36600319011261018a57611050611a47565b5f80546001600160a01b0319811682556001600160a01b03167f8be0079c531659141344cd1fd0a4f28419497f9722a3daafe3b4186f6b6457e08280a3005b3461018a57602036600319011261018a576001600160a01b036110b06117d9565b165f52600460205260405f206040519081602082549182815201915f5260205f20905f5b8181106110ff57610b5e856110eb818703826118fc565b604051918291602083526020830190611847565b82548452602090930192600192830192016110d4565b3461018a57602036600319011261018a576001600160a01b036111366117d9565b165f52600560205260405f206040519081602082549182815201915f5260205f20905f5b81811061117157610b5e856110eb818703826118fc565b825484526020909301926001928301920161115a565b3461018a575f36600319011261018a5761119f611a47565b6111a7611a0f565b5f805481908190819047906001600160a01b03168282156111dc575bf11561102d5760015f516020611b5c5f395f51905f5255005b506108fc6111c3565b3461018a57604036600319011261018a576111fe6117d9565b6001600160a01b03165f9081526004602052604090208054602435919082101561018a5760209161122e916117ef565b90549060031b1c604051908152f35b3461018a57602036600319011261018a57600435611259611a0f565b805f52600260205260405f2061127c60018060a01b0360018301541633146118bb565b600a810190815460ff8160a01c1660058110156102c457801590811561136d575b5015611338576001600160a01b03168015158061132b575b611304575b5050805460ff60a01b1916600360a01b1790557fd88fab4b08bf76f15cf2d6e03e382acf1edd6790ab82967e406abac37db202885f80a260015f516020611b5c5f395f51905f5255005b6009820154600590920154611324926001600160a01b0390911691611a6d565b82806112ba565b50600982015415156112b5565b60405162461bcd60e51b815260206004820152600d60248201526c10d85b9b9bdd0818d85b98d95b609a1b6044820152606490fd5b60019150148561129d565b3461018a5761138636611818565b905f52600360205260405f20805482101561018a5760c0916113a79161182e565b5080549060018101549060018060a01b036002820154166003820154906005600484015493015493604051958652602086015260408501526060840152608083015260a0820152f35b3461018a575f36600319011261018a576020600154604051908152f35b3461018a57602036600319011261018a576004355f52600260205260405f20805460018060a01b0360018301541660018060a01b036002840154166003840154600485015460018060a01b03600587015416600687015460078801549160088901549360098a015495600a8b015497600b60ff8a60a01c169c0154996040519b8c5260208c015260408b015260608a0152608089015260a088015260c087015260e086015261010085015261012084015260018060a01b031661014083015260058310156102c4576101a092610160830152610180820152f35b3461018a57604036600319011261018a576115006117d9565b6001600160a01b03165f9081526005602052604090208054602435919082101561018a5760209161122e916117ef565b3461018a57602036600319011261018a57600435805f52600260205260405f209081549060018060a01b036001840154169060018060a01b036002850154166003850154600486015460018060a01b03600588015416600688015460078901549060088a01549260098b015494600a8c01549660ff8860a01c169860058a10156102c457600b6101c09e01549a5f52600360205260405f20549b60206040519e8f908152015260408d015260608c015260808b015260a08a015260c089015260e088015261010087015261012086015260018060a01b03166101408501526101608401526101808301526101a0820152f35b3461018a57602036600319011261018a5760043561163e611a47565b6103e88111611678576020817f45610d581145924dd7090a5017e5f2b1d6f42213bb2e95707ff86846bbfcb1ca92600155604051908152a1005b60405162461bcd60e51b815260206004820152600c60248201526b08ccaca40e8dede40d0d2ced60a31b6044820152606490fd5b3461018a57602036600319011261018a576004356116c8611a0f565b805f52600260205260405f20600a810160ff815460a01c1660058110156102c45760016116f5911461187a565b6007820154421061179c57805460ff60a01b198116600160a11b179091556001600160a01b0316908115611771577f178f6a4ad80bd0ad0ad68889cd3d5ecee9aadca2570091c557f6507584a08221916009606092015460405191825260208201525f6040820152a260015f516020611b5c5f395f51905f5255005b50507fd88fab4b08bf76f15cf2d6e03e382acf1edd6790ab82967e406abac37db202885f80a2610fe4565b60405162461bcd60e51b8152602060048201526015602482015274105d58dd1a5bdb881b9bdd08195b991959081e595d605a1b6044820152606490fd5b600435906001600160a01b038216820361018a57565b8054821015611804575f5260205f2001905f90565b634e487b7160e01b5f52603260045260245ffd5b604090600319011261018a576004359060243590565b8054821015611804575f52600660205f20910201905f90565b90602080835192838152019201905f5b8181106118645750505090565b8251845260209384019390920191600101611857565b1561188157565b60405162461bcd60e51b815260206004820152601260248201527141756374696f6e206e6f742061637469766560701b6044820152606490fd5b156118c257565b60405162461bcd60e51b81526020600482015260126024820152712737ba1030bab1ba34b7b71039b2b63632b960711b6044820152606490fd5b90601f8019910116810190811067ffffffffffffffff8211176107d257604052565b919082018092116104e457565b8054600160401b8110156107d257611948916001820181556117ef565b819291549060031b91821b915f19901b1916179055565b67ffffffffffffffff81116107d25760051b60200190565b906119818261195f565b61198e60405191826118fc565b828152809261199f601f199161195f565b0190602036910137565b80518210156118045760209160051b010190565b818102929181159184041417156104e457565b3d15611a0a573d9067ffffffffffffffff82116107d257604051916119ff601f8201601f1916602001846118fc565b82523d5f602084013e565b606090565b60025f516020611b5c5f395f51905f525414611a385760025f516020611b5c5f395f51905f5255565b633ee5aeb560e01b5f5260045ffd5b5f546001600160a01b03163303611a5a57565b63118cdaa760e01b5f523360045260245ffd5b6001600160a01b039092169182611ad8575f9250829182918291906001600160a01b03165af1611a9b6119d0565b5015611aa357565b60405162461bcd60e51b815260206004820152600d60248201526c1499599d5b990819985a5b1959609a1b6044820152606490fd5b611ae192611ae3565b565b916040519163a9059cbb60e01b5f5260018060a01b031660045260245260205f60448180865af19060015f5114821615611b43575b60405215611b235750565b635274afe760e01b5f9081526001600160a01b0391909116600452602490fd5b9060018115166108ce57823b15153d15161690611b1856fe9b779b17422d0df92223018b32b4d1fa46e071723d6817e2486d003becc55f00a2646970667358221220f01efcc75664b67c02bdd81144823e60c788fa03ea3280dda1b46409361676c064736f6c634300081c0033",
  "linkReferences": {},
  "deployedLinkReferences": {}
}