{
  "_format": "hh-sol-artifact-1",
  "contractName": "InvoiceTokenStaking",
  "sourceName": "contracts/InvoiceTokenStaking.sol",
  "abi": [
    {
      "inputs": [
        {
          "internalType": "address",
          "name": "_governanceToken",
          "type": "address"
        }
      ],
      "stateMutability": "nonpayable",
      "type": "constructor"
    },
    {
      "inputs": [
        {
          "internalType": "address",
          "name": "owner",
          "type": "address"
        }
      ],
      "name": "OwnableInvalidOwner",
      "type": "error"
    },
    {
      "inputs": [
        {
          "internalType": "address",
          "name": "account",
          "type": "address"
        }
      ],
      "name": "OwnableUnauthorizedAccount",
      "type": "error"
    },
    {
      "inputs": [],
      "name": "ReentrancyGuardReentrantCall",
      "type": "error"
    },
    {
      "inputs": [
        {
          "internalType": "address",
          "name": "token",
          "type": "address"
        }
      ],
      "name": "SafeERC20FailedOperation",
      "type": "error"
    },
    {
      "anonymous": false,
      "inputs": [
        {
          "indexed": true,
          "internalType": "address",
          "name": "previousOwner",
          "type": "address"
        },
        {
          "indexed": true,
          "internalType": "address",
          "name": "newOwner",
          "type": "address"
        }
      ],
      "name": "OwnershipTransferred",
      "type": "event"
    },
    {
      "anonymous": false,
      "inputs": [
        {
          "indexed": true,
          "internalType": "address",
          "name": "tokenAddress",
          "type": "address"
        },
        {
          "indexed": true,
          "internalType": "uint256",
          "name": "tokenId",
          "type": "uint256"
        },
        {
          "indexed": false,
          "internalType": "uint256",
          "name": "apyBP",
          "type": "uint256"
        }
      ],
      "name": "PoolApyUpdated",
      "type": "event"
    },
    {
      "anonymous": false,
      "inputs": [
        {
          "indexed": true,
          "internalType": "address",
          "name": "user",
          "type": "address"
        },
        {
          "indexed": false,
          "internalType": "uint256",
          "name": "amount",
          "type": "uint256"
        }
      ],
      "name": "RewardsClaimed",
      "type": "event"
    },
    {
      "anonymous": false,
      "inputs": [
        {
          "indexed": true,
          "internalType": "address",
          "name": "user",
          "type": "address"
        },
        {
          "indexed": false,
          "internalType": "address",
          "name": "tokenAddress",
          "type": "address"
        },
        {
          "indexed": false,
          "internalType": "uint256",
          "name": "tokenId",
          "type": "uint256"
        },
        {
          "indexed": false,
          "internalType": "uint256",
          "name": "amount",
          "type": "uint256"
        },
        {
          "indexed": false,
          "internalType": "uint256",
          "name": "lockUntil",
          "type": "uint256"
        },
        {
          "indexed": false,
          "internalType": "uint256",
          "name": "apy",
          "type": "uint256"
        }
      ],
      "name": "Staked",
      "type": "event"
    },
    {
      "anonymous": false,
      "inputs": [
        {
          "indexed": true,
          "internalType": "address",
          "name": "user",
          "type": "address"
        },
        {
          "indexed": false,
          "internalType": "uint256",
          "name": "stakeIndex",
          "type": "uint256"
        },
        {
          "indexed": false,
          "internalType": "uint256",
          "name": "amount",
          "type": "uint256"
        },
        {
          "indexed": false,
          "internalType": "uint256",
          "name": "penalty",
          "type": "uint256"
        }
      ],
      "name": "Unstaked",
      "type": "event"
    },
    {
      "inputs": [],
      "name": "MAX_APY_BP",
      "outputs": [
        {
          "internalType": "uint256",
          "name": "",
          "type": "uint256"
        }
      ],
      "stateMutability": "view",
      "type": "function"
    },
    {
      "inputs": [
        {
          "internalType": "uint256",
          "name": "stakeIndex",
          "type": "uint256"
        }
      ],
      "name": "claimRewards",
      "outputs": [],
      "stateMutability": "nonpayable",
      "type": "function"
    },
    {
      "inputs": [],
      "name": "defaultApyBP",
      "outputs": [
        {
          "internalType": "uint256",
          "name": "",
          "type": "uint256"
        }
      ],
      "stateMutability": "view",
      "type": "function"
    },
    {
      "inputs": [],
      "name": "earlyWithdrawalPenaltyBP",
      "outputs": [
        {
          "internalType": "uint256",
          "name": "",
          "type": "uint256"
        }
      ],
      "stateMutability": "view",
      "type": "function"
    },
    {
      "inputs": [],
      "name": "governanceToken",
      "outputs": [
        {
          "internalType": "contract IERC20",
          "name": "",
          "type": "address"
        }
      ],
      "stateMutability": "view",
      "type": "function"
    },
    {
      "inputs": [],
      "name": "maxApyBP",
      "outputs": [
        {
          "internalType": "uint256",
          "name": "",
          "type": "uint256"
        }
      ],
      "stateMutability": "view",
      "type": "function"
    },
    {
      "inputs": [
        {
          "internalType": "address",
          "name": "",
          "type": "address"
        },
        {
          "internalType": "address",
          "name": "",
          "type": "address"
        },
        {
          "internalType": "uint256[]",
          "name": "",
          "type": "uint256[]"
        },
        {
          "internalType": "uint256[]",
          "name": "",
          "type": "uint256[]"
        },
        {
          "internalType": "bytes",
          "name": "",
          "type": "bytes"
        }
      ],
      "name": "onERC1155BatchReceived",
      "outputs": [
        {
          "internalType": "bytes4",
          "name": "",
          "type": "bytes4"
        }
      ],
      "stateMutability": "pure",
      "type": "function"
    },
    {
      "inputs": [
        {
          "internalType": "address",
          "name": "",
          "type": "address"
        },
        {
          "internalType": "address",
          "name": "",
          "type": "address"
        },
        {
          "internalType": "uint256",
          "name": "",
          "type": "uint256"
        },
        {
          "internalType": "uint256",
          "name": "",
          "type": "uint256"
        },
        {
          "internalType": "bytes",
          "name": "",
          "type": "bytes"
        }
      ],
      "name": "onERC1155Received",
      "outputs": [
        {
          "internalType": "bytes4",
          "name": "",
          "type": "bytes4"
        }
      ],
      "stateMutability": "pure",
      "type": "function"
    },
    {
      "inputs": [],
      "name": "owner",
      "outputs": [
        {
          "internalType": "address",
          "name": "",
          "type": "address"
        }
      ],
      "stateMutability": "view",
      "type": "function"
    },
    {
      "inputs": [
        {
          "internalType": "address",
          "name": "",
          "type": "address"
        },
        {
          "internalType": "uint256",
          "name": "",
          "type": "uint256"
        }
      ],
      "name": "poolApyBP",
      "outputs": [
        {
          "internalType": "uint256",
          "name": "",
          "type": "uint256"
        }
      ],
      "stateMutability": "view",
      "type": "function"
    },
    {
      "inputs": [],
      "name": "protocolFeeShareBP",
      "outputs": [
        {
          "internalType": "uint256",
          "name": "",
          "type": "uint256"
        }
      ],
      "stateMutability": "view",
      "type": "function"
    },
    {
      "inputs": [],
      "name": "renounceOwnership",
      "outputs": [],
      "stateMutability": "nonpayable",
      "type": "function"
    },
    {
      "inputs": [
        {
          "internalType": "uint256",
          "name": "apyBP",
          "type": "uint256"
        }
      ],
      "name": "setDefaultApyBP",
      "outputs": [],
      "stateMutability": "nonpayable",
      "type": "function"
    },
    {
      "inputs": [
        {
          "internalType": "uint256",
          "name": "bp",
          "type": "uint256"
        }
      ],
      "name": "setEarlyWithdrawalPenaltyBP",
      "outputs": [],
      "stateMutability": "nonpayable",
      "type": "function"
    },
    {
      "inputs": [
        {
          "internalType": "uint256",
          "name": "apyBP",
          "type": "uint256"
        }
      ],
      "name": "setMaxApyBP",
      "outputs": [],
      "stateMutability": "nonpayable",
      "type": "function"
    },
    {
      "inputs": [
        {
          "internalType": "address",
          "name": "tokenAddress",
          "type": "address"
        },
        {
          "internalType": "uint256",
          "name": "tokenId",
          "type": "uint256"
        },
        {
          "internalType": "uint256",
          "name": "apyBP",
          "type": "uint256"
        }
      ],
      "name": "setPoolApyBP",
      "outputs": [],
      "stateMutability": "nonpayable",
      "type": "function"
    },
    {
      "inputs": [
        {
          "internalType": "uint256",
          "name": "bp",
          "type": "uint256"
        }
      ],
      "name": "setProtocolFeeShareBP",
      "outputs": [],
      "stateMutability": "nonpayable",
      "type": "function"
    },
    {
      "inputs": [
        {
          "internalType": "address",
          "name": "tokenAddress",
          "type": "address"
        },
        {
          "internalType": "uint256",
          "name": "tokenId",
          "type": "uint256"
        },
        {
          "internalType": "uint256",
          "name": "amount",
          "type": "uint256"
        },
        {
          "internalType": "uint256",
          "name": "lockDurationSeconds",
          "type": "uint256"
        },
        {
          "internalType": "uint256",
          "name": "apyBP",
          "type": "uint256"
        }
      ],
      "name": "stake",
      "outputs": [],
      "stateMutability": "nonpayable",
      "type": "function"
    },
    {
      "inputs": [
        {
          "internalType": "address",
          "name": "",
          "type": "address"
        },
        {
          "internalType": "uint256",
          "name": "",
          "type": "uint256"
        }
      ],
      "name": "stakes",
      "outputs": [
        {
          "internalType": "address",
          "name": "tokenAddress",
          "type": "address"
        },
        {
          "internalType": "uint256",
          "name": "tokenId",
          "type": "uint256"
        },
        {
          "internalType": "uint256",
          "name": "amount",
          "type": "uint256"
        },
        {
          "internalType": "uint256",
          "name": "stakingStart",
          "type": "uint256"
        },
        {
          "internalType": "uint256",
          "name": "lockUntil",
          "type": "uint256"
        },
        {
          "internalType": "uint256",
          "name": "apy",
          "type": "uint256"
        },
        {
          "internalType": "uint256",
          "name": "rewardDebt",
          "type": "uint256"
        },
        {
          "internalType": "bool",
          "name": "claimed",
          "type": "bool"
        }
      ],
      "stateMutability": "view",
      "type": "function"
    },
    {
      "inputs": [
        {
          "internalType": "address",
          "name": "",
          "type": "address"
        },
        {
          "internalType": "uint256",
          "name": "",
          "type": "uint256"
        }
      ],
      "name": "totalStaked",
      "outputs": [
        {
          "internalType": "uint256",
          "name": "",
          "type": "uint256"
        }
      ],
      "stateMutability": "view",
      "type": "function"
    },
    {
      "inputs": [
        {
          "internalType": "address",
          "name": "newOwner",
          "type": "address"
        }
      ],
      "name": "transferOwnership",
      "outputs": [],
      "stateMutability": "nonpayable",
      "type": "function"
    },
    {
      "inputs": [
        {
          "internalType": "uint256",
          "name": "stakeIndex",
          "type": "uint256"
        }
      ],
      "name": "unstake",
      "outputs": [],
      "stateMutability": "nonpayable",
      "type": "function"
    }
  ],
  "bytecode": "0x60803461015857601f61125c38819003918201601f19168301916001600160401b0383118484101761015c5780849260209460405283398101031261015857516001600160a01b03811690819003610158573315610145575f8054336001600160a01b03198216811783556040519290916001600160a01b0316907f8be0079c531659141344cd1fd0a4f28419497f9722a3daafe3b4186f6b6457e09080a360017f9b779b17422d0df92223018b32b4d1fa46e071723d6817e2486d003becc55f0055600a6002556101f46003556103e86004556109c460055581156101035750600180546001600160a01b0319169190911790556040516110eb90816101718239f35b62461bcd60e51b815260206004820152601860248201527f496e76616c696420676f7665726e616e636520746f6b656e00000000000000006044820152606490fd5b631e4fbdf760e01b5f525f60045260245ffd5b5f80fd5b634e487b7160e01b5f52604160045260245ffdfe60806040526004361015610011575f80fd5b5f5f3560e01c8063028d027114610e2157806307a10e4b14610ddd5780630962ef7914610b765780630f6dcf6314610b595780631ba93b2214610b3c5780632a0f7700146108435780632e17de781461061d578063584b62a1146105715780635eabe65d1461055357806370d1ee0314610510578063715018a6146104b657806372f4e96b146104935780638da5cb5b1461046c578063a2748d3014610449578063b9ef880514610359578063bc197c81146102bd578063cc9ff0e4146102a0578063d593756e14610282578063dde3d25f14610219578063f23a6e61146101bd578063f2fde38b146101375763f96dae0a1461010c575f80fd5b346101345780600319360112610134576001546040516001600160a01b039091168152602090f35b80fd5b503461013457602036600319011261013457610151610e50565b610159611037565b6001600160a01b031680156101a95781546001600160a01b03198116821783556001600160a01b03167f8be0079c531659141344cd1fd0a4f28419497f9722a3daafe3b4186f6b6457e08380a380f35b631e4fbdf760e01b82526004829052602482fd5b50346101345760a0366003190112610134576101d7610e50565b506101e0610e66565b5060843567ffffffffffffffff811161021557610201903690600401610eda565b505060405163f23a6e6160e01b8152602090f35b5080fd5b503461013457602036600319011261013457600435610236611037565b60045481106102455760055580f35b60405162461bcd60e51b815260206004820152601560248201527413585e081054164818995b1bddc8191959985d5b1d605a1b6044820152606490fd5b50346101345780600319360112610134576020600554604051908152f35b503461013457806003193601126101345760206040516113888152f35b50346101345760a0366003190112610134576102d7610e50565b506102e0610e66565b5060443567ffffffffffffffff811161021557610301903690600401610ea9565b505060643567ffffffffffffffff811161021557610323903690600401610ea9565b505060843567ffffffffffffffff811161021557610345903690600401610eda565b505060405163bc197c8160e01b8152602090f35b503461013457606036600319011261013457610373610e50565b6024359060443590610383611037565b6001600160a01b03169081156104145761138881116103e05760207f12c1aa0624580ccf48e7513a4a142810a915ffdac064640d4c81233d52edf15c9183865260078252604086208587528252806040872055604051908152a380f35b60405162461bcd60e51b815260206004820152600c60248201526b082a0b240e8dede40d0d2ced60a31b6044820152606490fd5b60405162461bcd60e51b815260206004820152600d60248201526c24b73b30b634b2103a37b5b2b760991b6044820152606490fd5b503461013457602036600319011261013457610463611037565b60043560035580f35b5034610134578060031936011261013457546040516001600160a01b039091168152602090f35b5034610134576020366003190112610134576104ad611037565b60043560025580f35b50346101345780600319360112610134576104cf611037565b80546001600160a01b03198116825581906001600160a01b03167f8be0079c531659141344cd1fd0a4f28419497f9722a3daafe3b4186f6b6457e08280a380f35b5034610134576040366003190112610134576020906040906001600160a01b03610538610e50565b16815260078352818120602435825283522054604051908152f35b50346101345780600319360112610134576020600454604051908152f35b50346101345760403660031901126101345761058b610e50565b6001600160a01b0316815260086020526040812080546024359290831015610134576101006105ba8484610e7c565b5060018060a01b03815416906001810154906002810154600382015460048301549060058401549260ff600760068701549601541695604051978852602088015260408701526060860152608085015260a084015260c0830152151560e0820152f35b50346101345760203660031901126101345760043561063a61105d565b338252600860205261065160408320548210610f46565b33825260086020526106668160408420610e7c565b5060028101805490811561080a57849060018060a01b038454166001850154918460048597015442106107e1575b9084918383526006602052604083208584526020526106b860408420918254610f88565b90555584610771575b803b1561076d578383916106ee9383604051809681958294637921219560e11b8452333060048601610ff2565b03925af1801561076257610749575b5050604051928352602083015260408201527f204fccf0d92ed8d48f204adb39b2e81e92bad0dedb93f5716ca9478cfb57de0060603392a260015f5160206110965f395f51905f525580f35b8161075391610fbc565b61075e57835f6106fd565b8380fd5b6040513d84823e3d90fd5b8280fd5b82546001600160a01b0316813b1561075e57838387926107a66040519485938493637921219560e11b85523060048601610ff2565b038183865af19081156107d65784916107c1575b50506106c1565b816107cb91610fbc565b61076d57825f6107ba565b6040513d86823e3d90fd5b94509450826127106107f560035487610fa9565b04956108018787610f88565b95909150610694565b60405162461bcd60e51b815260206004820152601160248201527020b63932b0b23c903bb4ba34323930bbb760791b6044820152606490fd5b5034610a965760a0366003190112610a965761085d610e50565b60243590604435916084359161087161105d565b8315610b09576004549280610a9a575b506001600160a01b031692833b15610a9657604051637921219560e11b81525f81806108b38587303360048601610ff2565b038183895af18015610a8b57610a76575b506108d16064354261102a565b9133865260086020526040862060405190610100820182811067ffffffffffffffff821117610a625790889291604052878252602082018481526040830186815260608401428152608085019189835260a08601938b855260c087019588875260e0880198895280549068010000000000000000821015610a4d579061095c91600182018155610e7c565b979097610a39579060079796959493929160018060a01b039051166bffffffffffffffffffffffff60a01b885416178755516001870155516002860155516003850155516004840155516005830155516006820155019051151560ff80198354169116179055848652600660205260408620818752602052604086206109e383825461102a565b905560405194855260208501526040840152606083015260808201527f1a239cfcc9eee66af37729671dcbd82e1544f57835d53fa02eb9220a930a8f8760a03392a260015f5160206110965f395f51905f525580f35b634e487b7160e01b8f5260048f905260248ffd5b50634e487b7160e01b8f52604160045260248ffd5b634e487b7160e01b89526041600452602489fd5b610a839195505f90610fbc565b5f935f6108c4565b6040513d5f823e3d90fd5b5f80fd5b5f54919350906001600160a01b03163303610ac457610abd600554821115610f08565b915f610881565b60405162461bcd60e51b815260206004820152601b60248201527f4f6e6c79206f776e65722063616e206f766572726964652041505900000000006044820152606490fd5b60405162461bcd60e51b815260206004820152600b60248201526a416d6f756e74207a65726f60a81b6044820152606490fd5b34610a96575f366003190112610a96576020600354604051908152f35b34610a96575f366003190112610a96576020600254604051908152f35b34610a96576020366003190112610a9657610bbd600435610b9561105d565b335f526008602052610bac60405f20548210610f46565b335f52600860205260405f20610e7c565b506002810154908115610da657610bf781610bf2600364496cebb8009401946005610be9875442610f88565b93015490610fa9565b610fa9565b048015610d70576001546040516370a0823160e01b81523060048201526001600160a01b039091169290602081602481875afa8015610a8b5783915f91610d3b575b5010610ce5576040519263a9059cbb60e01b5f52336004528260245260205f60448180855af160015f5114811615610cc6575b8460405215610cb4575042905581527ffc30cddea38e2bf4d6ea7d3f9ed3b6ad7f176419f4963bd81318067a4aee73fe60203392a260015f5160206110965f395f51905f5255005b635274afe760e01b5f5260045260245ffd5b6001811516610cdc57813b15153d151616610c6c565b843d5f823e3d90fd5b60405162461bcd60e51b815260206004820152602860248201527f496e73756666696369656e7420726577617264732062616c616e636520696e2060448201526718dbdb9d1c9858dd60c21b6064820152608490fd5b9150506020813d602011610d68575b81610d5760209383610fbc565b81010312610a965782905185610c39565b3d9150610d4a565b60405162461bcd60e51b815260206004820152600e60248201526d139bc81c995dd85c991cc81e595d60921b6044820152606490fd5b60405162461bcd60e51b815260206004820152600f60248201526e4e6f20616374697665207374616b6560881b6044820152606490fd5b34610a96576040366003190112610a96576001600160a01b03610dfe610e50565b165f52600660205260405f206024355f52602052602060405f2054604051908152f35b34610a96576020366003190112610a9657600435610e3d611037565b610e4b600554821115610f08565b600455005b600435906001600160a01b0382168203610a9657565b602435906001600160a01b0382168203610a9657565b8054821015610e95575f5260205f209060031b01905f90565b634e487b7160e01b5f52603260045260245ffd5b9181601f84011215610a965782359167ffffffffffffffff8311610a96576020808501948460051b010111610a9657565b9181601f84011215610a965782359167ffffffffffffffff8311610a965760208381860195010111610a9657565b15610f0f57565b60405162461bcd60e51b815260206004820152600f60248201526e082a0b240caf0c6cacac8e640dac2f608b1b6044820152606490fd5b15610f4d57565b60405162461bcd60e51b8152602060048201526013602482015272092dcecc2d8d2c840e6e8c2d6ca40d2dcc8caf606b1b6044820152606490fd5b91908203918211610f9557565b634e487b7160e01b5f52601160045260245ffd5b81810292918115918404141715610f9557565b90601f8019910116810190811067ffffffffffffffff821117610fde57604052565b634e487b7160e01b5f52604160045260245ffd5b6001600160a01b039182168152911660208201526040810191909152606081019190915260a0608082018190525f9082015260c00190565b91908201809211610f9557565b5f546001600160a01b0316330361104a57565b63118cdaa760e01b5f523360045260245ffd5b60025f5160206110965f395f51905f5254146110865760025f5160206110965f395f51905f5255565b633ee5aeb560e01b5f5260045ffdfe9b779b17422d0df92223018b32b4d1fa46e071723d6817e2486d003becc55f00a2646970667358221220c7b7446df1d49e4345dce296a7d9ecdd8bb7510df787cac9ce9bf703075e50f564736f6c634300081c0033",
  "linkReferences": {},
  "deployedLinkReferences": {}
}