{
  "_format": "hh-sol-artifact-1",
  "contractName": "InvoiceFactory",
  "sourceName": "contracts/InvoiceFactory.sol",
  "abi": [
    {
      "inputs": [],
      "stateMutability": "nonpayable",
      "type": "constructor"
    },
    {
      "anonymous": false,
      "inputs": [
        {
          "indexed": true,
          "internalType": "bytes32",
          "name": "invoiceId",
          "type": "bytes32"
        },
        {
          "indexed": false,
          "internalType": "address",
          "name": "invoiceContractAddress",
          "type": "address"
        },
        {
          "indexed": true,
          "internalType": "address",
          "name": "seller",
          "type": "address"
        },
        {
          "indexed": true,
          "internalType": "address",
          "name": "buyer",
          "type": "address"
        },
        {
          "indexed": false,
          "internalType": "address",
          "name": "tokenAddress",
          "type": "address"
        }
      ],
      "name": "InvoiceCreated",
      "type": "event"
    },
    {
      "inputs": [
        {
          "internalType": "bytes32",
          "name": "_invoiceId",
          "type": "bytes32"
        },
        {
          "internalType": "bytes32",
          "name": "_invoiceHash",
          "type": "bytes32"
        },
        {
          "internalType": "address",
          "name": "_buyer",
          "type": "address"
        },
        {
          "internalType": "uint256",
          "name": "_amount",
          "type": "uint256"
        },
        {
          "internalType": "uint256",
          "name": "_dueDate",
          "type": "uint256"
        },
        {
          "internalType": "address",
          "name": "_tokenAddress",
          "type": "address"
        }
      ],
      "name": "createInvoice",
      "outputs": [
        {
          "internalType": "address",
          "name": "",
          "type": "address"
        }
      ],
      "stateMutability": "nonpayable",
      "type": "function"
    },
    {
      "inputs": [
        {
          "internalType": "bytes32",
          "name": "_invoiceId",
          "type": "bytes32"
        }
      ],
      "name": "getInvoiceAddress",
      "outputs": [
        {
          "internalType": "address",
          "name": "",
          "type": "address"
        }
      ],
      "stateMutability": "view",
      "type": "function"
    },
    {
      "inputs": [
        {
          "internalType": "bytes32",
          "name": "",
          "type": "bytes32"
        }
      ],
      "name": "invoiceContracts",
      "outputs": [
        {
          "internalType": "address",
          "name": "",
          "type": "address"
        }
      ],
      "stateMutability": "view",
      "type": "function"
    },
    {
      "inputs": [],
      "name": "owner",
      "outputs": [
        {
          "internalType": "address",
          "name": "",
          "type": "address"
        }
      ],
      "stateMutability": "view",
      "type": "function"
    }
  ],
  "bytecode": "0x608060405234801561001057600080fd5b50336000806101000a81548173ffffffffffffffffffffffffffffffffffffffff021916908373ffffffffffffffffffffffffffffffffffffffff1602179055506123e9806100606000396000f3fe60806040523480156200001157600080fd5b5060043610620000525760003560e01c80632acd28ba14620000575780638da5cb5b146200008d578063ce2962fd14620000af578063f892d1d714620000e5575b600080fd5b6200007560048036038101906200006f91906200047c565b6200011b565b60405162000084919062000529565b60405180910390f35b62000097620002fa565b604051620000a6919062000529565b60405180910390f35b620000cd6004803603810190620000c7919062000546565b6200031e565b604051620000dc919062000529565b60405180910390f35b620001036004803603810190620000fd919062000546565b62000351565b60405162000112919062000529565b60405180910390f35b60008073ffffffffffffffffffffffffffffffffffffffff166001600089815260200190815260200160002060009054906101000a900473ffffffffffffffffffffffffffffffffffffffff1673ffffffffffffffffffffffffffffffffffffffff1614620001c1576040517f08c379a0000000000000000000000000000000000000000000000000000000008152600401620001b890620005d9565b60405180910390fd5b6000338660008054906101000a900473ffffffffffffffffffffffffffffffffffffffff16878a8888604051620001f8906200038e565b6200020a97969594939291906200061d565b604051809103906000f08015801562000227573d6000803e3d6000fd5b509050600081905080600160008b815260200190815260200160002060006101000a81548173ffffffffffffffffffffffffffffffffffffffff021916908373ffffffffffffffffffffffffffffffffffffffff1602179055508673ffffffffffffffffffffffffffffffffffffffff163373ffffffffffffffffffffffffffffffffffffffff168a7feae6dbf90d92f1c59da23c56c9c92f7db33f38f13c014cb9b58cd9234efa9f0e8488604051620002e39291906200069a565b60405180910390a480925050509695505050505050565b60008054906101000a900473ffffffffffffffffffffffffffffffffffffffff1681565b60016020528060005260406000206000915054906101000a900473ffffffffffffffffffffffffffffffffffffffff1681565b60006001600083815260200190815260200160002060009054906101000a900473ffffffffffffffffffffffffffffffffffffffff169050919050565b611cec80620006c883390190565b600080fd5b6000819050919050565b620003b681620003a1565b8114620003c257600080fd5b50565b600081359050620003d681620003ab565b92915050565b600073ffffffffffffffffffffffffffffffffffffffff82169050919050565b60006200040982620003dc565b9050919050565b6200041b81620003fc565b81146200042757600080fd5b50565b6000813590506200043b8162000410565b92915050565b6000819050919050565b620004568162000441565b81146200046257600080fd5b50565b60008135905062000476816200044b565b92915050565b60008060008060008060c087890312156200049c576200049b6200039c565b5b6000620004ac89828a01620003c5565b9650506020620004bf89828a01620003c5565b9550506040620004d289828a016200042a565b9450506060620004e589828a0162000465565b9350506080620004f889828a0162000465565b92505060a06200050b89828a016200042a565b9150509295509295509295565b6200052381620003fc565b82525050565b600060208201905062000540600083018462000518565b92915050565b6000602082840312156200055f576200055e6200039c565b5b60006200056f84828501620003c5565b91505092915050565b600082825260208201905092915050565b7f496e766f69636520494420616c72656164792065786973747300000000000000600082015250565b6000620005c160198362000578565b9150620005ce8262000589565b602082019050919050565b60006020820190508181036000830152620005f481620005b2565b9050919050565b620006068162000441565b82525050565b6200061781620003a1565b82525050565b600060e08201905062000634600083018a62000518565b62000643602083018962000518565b62000652604083018862000518565b620006616060830187620005fb565b6200067060808301866200060c565b6200067f60a0830185620005fb565b6200068e60c083018462000518565b98975050505050505050565b6000604082019050620006b1600083018562000518565b620006c0602083018462000518565b939250505056fe60806040523480156200001157600080fd5b5060405162001cec38038062001cec833981810160405281019062000037919062000265565b600160008190555086600160006101000a81548173ffffffffffffffffffffffffffffffffffffffff021916908373ffffffffffffffffffffffffffffffffffffffff16021790555085600260006101000a81548173ffffffffffffffffffffffffffffffffffffffff021916908373ffffffffffffffffffffffffffffffffffffffff16021790555084600360006101000a81548173ffffffffffffffffffffffffffffffffffffffff021916908373ffffffffffffffffffffffffffffffffffffffff1602179055508360048190555080600560006101000a81548173ffffffffffffffffffffffffffffffffffffffff021916908373ffffffffffffffffffffffffffffffffffffffff1602179055506000600560146101000a81548160ff0219169083600481111562000173576200017262000318565b5b02179055505050505050505062000347565b600080fd5b600073ffffffffffffffffffffffffffffffffffffffff82169050919050565b6000620001b7826200018a565b9050919050565b620001c981620001aa565b8114620001d557600080fd5b50565b600081519050620001e981620001be565b92915050565b6000819050919050565b6200020481620001ef565b81146200021057600080fd5b50565b6000815190506200022481620001f9565b92915050565b6000819050919050565b6200023f816200022a565b81146200024b57600080fd5b50565b6000815190506200025f8162000234565b92915050565b600080600080600080600060e0888a03121562000287576200028662000185565b5b6000620002978a828b01620001d8565b9750506020620002aa8a828b01620001d8565b9650506040620002bd8a828b01620001d8565b9550506060620002d08a828b0162000213565b9450506080620002e38a828b016200024e565b93505060a0620002f68a828b0162000213565b92505060c0620003098a828b01620001d8565b91505092959891949750929550565b7f4e487b7100000000000000000000000000000000000000000000000000000000600052602160045260246000fd5b61199580620003576000396000f3fe60806040526004361061009c5760003560e01c8063aa8c217c11610064578063aa8c217c14610150578063c89039c51461017b578063d846118214610192578063db6b5246146101bb578063ef8a9235146101c5578063fe25e00a146101f05761009c565b806308551a53146100a157806369d89575146100cc5780636daa2d44146100e35780637150d8ae146100fa5780639d76ea5814610125575b600080fd5b3480156100ad57600080fd5b506100b661021b565b6040516100c3919061139d565b60405180910390f35b3480156100d857600080fd5b506100e1610241565b005b3480156100ef57600080fd5b506100f8610595565b005b34801561010657600080fd5b5061010f61079d565b60405161011c919061139d565b60405180910390f35b34801561013157600080fd5b5061013a6107c3565b604051610147919061139d565b60405180910390f35b34801561015c57600080fd5b506101656107e9565b60405161017291906113d1565b60405180910390f35b34801561018757600080fd5b506101906107ef565b005b34801561019e57600080fd5b506101b960048036038101906101b4919061141d565b610a8d565b005b6101c3610ea7565b005b3480156101d157600080fd5b506101da611130565b6040516101e791906114c1565b60405180910390f35b3480156101fc57600080fd5b50610205611143565b604051610212919061139d565b60405180910390f35b600160009054906101000a900473ffffffffffffffffffffffffffffffffffffffff1681565b600260009054906101000a900473ffffffffffffffffffffffffffffffffffffffff1673ffffffffffffffffffffffffffffffffffffffff163373ffffffffffffffffffffffffffffffffffffffff16146102d1576040517f08c379a00000000000000000000000000000000000000000000000000000000081526004016102c890611539565b60405180910390fd5b60018060048111156102e6576102e561144a565b5b600560149054906101000a900460ff1660048111156103085761030761144a565b5b14610348576040517f08c379a000000000000000000000000000000000000000000000000000000000815260040161033f906115a5565b60405180910390fd5b610350611169565b600073ffffffffffffffffffffffffffffffffffffffff16600560009054906101000a900473ffffffffffffffffffffffffffffffffffffffff1673ffffffffffffffffffffffffffffffffffffffff160361047c576000600160009054906101000a900473ffffffffffffffffffffffffffffffffffffffff1673ffffffffffffffffffffffffffffffffffffffff166004546040516103f0906115f6565b60006040518083038185875af1925050503d806000811461042d576040519150601f19603f3d011682016040523d82523d6000602084013e610432565b606091505b5050905080610476576040517f08c379a000000000000000000000000000000000000000000000000000000000815260040161046d90611657565b60405180910390fd5b506104ee565b6104ed600160009054906101000a900473ffffffffffffffffffffffffffffffffffffffff16600454600560009054906101000a900473ffffffffffffffffffffffffffffffffffffffff1673ffffffffffffffffffffffffffffffffffffffff166111af9092919063ffffffff16565b5b6002600560146101000a81548160ff021916908360048111156105145761051361144a565b5b02179055507f2f23935ed545a1a57e18b4e37df10f8c3b4e4ae851a9c20a6edcb3f25e194b1a60045460405161054a91906113d1565b60405180910390a17fafa725e7f44cadb687a7043853fa1a7e7b8f0da74ce87ec546e9420f04da8c1e600260405161058291906114c1565b60405180910390a161059261122e565b50565b60018060048111156105aa576105a961144a565b5b600560149054906101000a900460ff1660048111156105cc576105cb61144a565b5b1461060c576040517f08c379a0000000000000000000000000000000000000000000000000000000008152600401610603906115a5565b60405180910390fd5b600260009054906101000a900473ffffffffffffffffffffffffffffffffffffffff1673ffffffffffffffffffffffffffffffffffffffff163373ffffffffffffffffffffffffffffffffffffffff1614806106b55750600160009054906101000a900473ffffffffffffffffffffffffffffffffffffffff1673ffffffffffffffffffffffffffffffffffffffff163373ffffffffffffffffffffffffffffffffffffffff16145b6106f4576040517f08c379a00000000000000000000000000000000000000000000000000000000081526004016106eb906116c3565b60405180910390fd5b6003600560146101000a81548160ff0219169083600481111561071a5761071961144a565b5b02179055503373ffffffffffffffffffffffffffffffffffffffff167f0b3cd97b16a08a5c77357c276d248827ad32dfd56060f7c55d6255537ba3d96260405160405180910390a27fafa725e7f44cadb687a7043853fa1a7e7b8f0da74ce87ec546e9420f04da8c1e600360405161079291906114c1565b60405180910390a150565b600260009054906101000a900473ffffffffffffffffffffffffffffffffffffffff1681565b600560009054906101000a900473ffffffffffffffffffffffffffffffffffffffff1681565b60045481565b600260009054906101000a900473ffffffffffffffffffffffffffffffffffffffff1673ffffffffffffffffffffffffffffffffffffffff163373ffffffffffffffffffffffffffffffffffffffff161461087f576040517f08c379a000000000000000000000000000000000000000000000000000000000815260040161087690611539565b60405180910390fd5b60008060048111156108945761089361144a565b5b600560149054906101000a900460ff1660048111156108b6576108b561144a565b5b146108f6576040517f08c379a00000000000000000000000000000000000000000000000000000000081526004016108ed906115a5565b60405180910390fd5b6108fe611169565b600073ffffffffffffffffffffffffffffffffffffffff16600560009054906101000a900473ffffffffffffffffffffffffffffffffffffffff1673ffffffffffffffffffffffffffffffffffffffff160361098f576040517f08c379a00000000000000000000000000000000000000000000000000000000081526004016109869061172f565b60405180910390fd5b6000600560009054906101000a900473ffffffffffffffffffffffffffffffffffffffff1690506109e533306004548473ffffffffffffffffffffffffffffffffffffffff16611238909392919063ffffffff16565b6001600560146101000a81548160ff02191690836004811115610a0b57610a0a61144a565b5b02179055507ffcdf429e5808472e48ef1ab9a16cdc660495e5ff4fc29a4cb6fa3705a588b2c3600454604051610a4191906113d1565b60405180910390a17fafa725e7f44cadb687a7043853fa1a7e7b8f0da74ce87ec546e9420f04da8c1e6001604051610a7991906114c1565b60405180910390a150610a8a61122e565b50565b600360009054906101000a900473ffffffffffffffffffffffffffffffffffffffff1673ffffffffffffffffffffffffffffffffffffffff163373ffffffffffffffffffffffffffffffffffffffff1614610b1d576040517f08c379a0000000000000000000000000000000000000000000000000000000008152600401610b149061179b565b60405180910390fd5b6003806004811115610b3257610b3161144a565b5b600560149054906101000a900460ff166004811115610b5457610b5361144a565b5b14610b94576040517f08c379a0000000000000000000000000000000000000000000000000000000008152600401610b8b906115a5565b60405180910390fd5b610b9c611169565b600260009054906101000a900473ffffffffffffffffffffffffffffffffffffffff1673ffffffffffffffffffffffffffffffffffffffff168273ffffffffffffffffffffffffffffffffffffffff161480610c455750600160009054906101000a900473ffffffffffffffffffffffffffffffffffffffff1673ffffffffffffffffffffffffffffffffffffffff168273ffffffffffffffffffffffffffffffffffffffff16145b610c84576040517f08c379a0000000000000000000000000000000000000000000000000000000008152600401610c7b90611807565b60405180910390fd5b600073ffffffffffffffffffffffffffffffffffffffff16600560009054906101000a900473ffffffffffffffffffffffffffffffffffffffff1673ffffffffffffffffffffffffffffffffffffffff1603610d8e5760008273ffffffffffffffffffffffffffffffffffffffff16600454604051610d02906115f6565b60006040518083038185875af1925050503d8060008114610d3f576040519150601f19603f3d011682016040523d82523d6000602084013e610d44565b606091505b5050905080610d88576040517f08c379a0000000000000000000000000000000000000000000000000000000008152600401610d7f90611657565b60405180910390fd5b50610dde565b610ddd82600454600560009054906101000a900473ffffffffffffffffffffffffffffffffffffffff1673ffffffffffffffffffffffffffffffffffffffff166111af9092919063ffffffff16565b5b6002600560146101000a81548160ff02191690836004811115610e0457610e0361144a565b5b02179055508173ffffffffffffffffffffffffffffffffffffffff163373ffffffffffffffffffffffffffffffffffffffff167fd2dc052bee2b52c6f56a2b5bc488360183af7ee2f1b7e600a0e3c0e9337dd4e860405160405180910390a37fafa725e7f44cadb687a7043853fa1a7e7b8f0da74ce87ec546e9420f04da8c1e6002604051610e9391906114c1565b60405180910390a1610ea361122e565b5050565b600260009054906101000a900473ffffffffffffffffffffffffffffffffffffffff1673ffffffffffffffffffffffffffffffffffffffff163373ffffffffffffffffffffffffffffffffffffffff1614610f37576040517f08c379a0000000000000000000000000000000000000000000000000000000008152600401610f2e90611539565b60405180910390fd5b6000806004811115610f4c57610f4b61144a565b5b600560149054906101000a900460ff166004811115610f6e57610f6d61144a565b5b14610fae576040517f08c379a0000000000000000000000000000000000000000000000000000000008152600401610fa5906115a5565b60405180910390fd5b610fb6611169565b600073ffffffffffffffffffffffffffffffffffffffff16600560009054906101000a900473ffffffffffffffffffffffffffffffffffffffff1673ffffffffffffffffffffffffffffffffffffffff1614611047576040517f08c379a000000000000000000000000000000000000000000000000000000000815260040161103e90611873565b60405180910390fd5b600454341461108b576040517f08c379a0000000000000000000000000000000000000000000000000000000008152600401611082906118df565b60405180910390fd5b6001600560146101000a81548160ff021916908360048111156110b1576110b061144a565b5b02179055507ffcdf429e5808472e48ef1ab9a16cdc660495e5ff4fc29a4cb6fa3705a588b2c3346040516110e591906113d1565b60405180910390a17fafa725e7f44cadb687a7043853fa1a7e7b8f0da74ce87ec546e9420f04da8c1e600160405161111d91906114c1565b60405180910390a161112d61122e565b50565b600560149054906101000a900460ff1681565b600360009054906101000a900473ffffffffffffffffffffffffffffffffffffffff1681565b6002600054036111a5576040517f3ee5aeb500000000000000000000000000000000000000000000000000000000815260040160405180910390fd5b6002600081905550565b611229838473ffffffffffffffffffffffffffffffffffffffff1663a9059cbb85856040516024016111e29291906118ff565b604051602081830303815290604052915060e01b6020820180517bffffffffffffffffffffffffffffffffffffffffffffffffffffffff83818316178352505050506112ba565b505050565b6001600081905550565b6112b4848573ffffffffffffffffffffffffffffffffffffffff166323b872dd86868660405160240161126d93929190611928565b604051602081830303815290604052915060e01b6020820180517bffffffffffffffffffffffffffffffffffffffffffffffffffffffff83818316178352505050506112ba565b50505050565b600080602060008451602086016000885af1806112dd576040513d6000823e3d81fd5b3d9250600051915050600082146112f8576001811415611314565b60008473ffffffffffffffffffffffffffffffffffffffff163b145b1561135657836040517f5274afe700000000000000000000000000000000000000000000000000000000815260040161134d919061139d565b60405180910390fd5b50505050565b600073ffffffffffffffffffffffffffffffffffffffff82169050919050565b60006113878261135c565b9050919050565b6113978161137c565b82525050565b60006020820190506113b2600083018461138e565b92915050565b6000819050919050565b6113cb816113b8565b82525050565b60006020820190506113e660008301846113c2565b92915050565b600080fd5b6113fa8161137c565b811461140557600080fd5b50565b600081359050611417816113f1565b92915050565b600060208284031215611433576114326113ec565b5b600061144184828501611408565b91505092915050565b7f4e487b7100000000000000000000000000000000000000000000000000000000600052602160045260246000fd5b6005811061148a5761148961144a565b5b50565b600081905061149b82611479565b919050565b60006114ab8261148d565b9050919050565b6114bb816114a0565b82525050565b60006020820190506114d660008301846114b2565b92915050565b600082825260208201905092915050565b7f4f6e6c792062757965722063616e2063616c6c20746869730000000000000000600082015250565b60006115236018836114dc565b915061152e826114ed565b602082019050919050565b6000602082019050818103600083015261155281611516565b9050919050565b7f496e76616c696420737461747573000000000000000000000000000000000000600082015250565b600061158f600e836114dc565b915061159a82611559565b602082019050919050565b600060208201905081810360008301526115be81611582565b9050919050565b600081905092915050565b50565b60006115e06000836115c5565b91506115eb826115d0565b600082019050919050565b6000611601826115d3565b9150819050919050565b7f4e6174697665207472616e73666572206661696c656400000000000000000000600082015250565b60006116416016836114dc565b915061164c8261160b565b602082019050919050565b6000602082019050818103600083015261167081611634565b9050919050565b7f4f6e6c7920706172746965732063616e20726169736520646973707574650000600082015250565b60006116ad601e836114dc565b91506116b882611677565b602082019050919050565b600060208201905081810360008301526116dc816116a0565b9050919050565b7f496e766f69636520697320666f72206e61746976652063757272656e63790000600082015250565b6000611719601e836114dc565b9150611724826116e3565b602082019050919050565b600060208201905081810360008301526117488161170c565b9050919050565b7f4f6e6c7920617262697465722063616e2063616c6c2074686973000000000000600082015250565b6000611785601a836114dc565b91506117908261174f565b602082019050919050565b600060208201905081810360008301526117b481611778565b9050919050565b7f57696e6e6572206d757374206265206275796572206f722073656c6c65720000600082015250565b60006117f1601e836114dc565b91506117fc826117bb565b602082019050919050565b60006020820190508181036000830152611820816117e4565b9050919050565b7f496e766f69636520697320666f7220455243323020746f6b656e000000000000600082015250565b600061185d601a836114dc565b915061186882611827565b602082019050919050565b6000602082019050818103600083015261188c81611850565b9050919050565b7f496e636f727265637420616d6f756e7400000000000000000000000000000000600082015250565b60006118c96010836114dc565b91506118d482611893565b602082019050919050565b600060208201905081810360008301526118f8816118bc565b9050919050565b6000604082019050611914600083018561138e565b61192160208301846113c2565b9392505050565b600060608201905061193d600083018661138e565b61194a602083018561138e565b61195760408301846113c2565b94935050505056fea2646970667358221220b338111889ae6bd2857af9834ce5cd449b296e95d902f850ed0066765586910564736f6c63430008140033a264697066735822122001107860225d77dfd24141b83881cb3f1c7b2c8629cb3b72917aa50f7b1313dd64736f6c63430008140033",
  "linkReferences": {},
  "deployedLinkReferences": {}
}