{
  "_format": "hh-sol-artifact-1",
  "contractName": "Invoice",
  "sourceName": "contracts/Invoice.sol",
  "abi": [
    {
      "inputs": [
        {
          "internalType": "address",
          "name": "_seller",
          "type": "address"
        },
        {
          "internalType": "address",
          "name": "_buyer",
          "type": "address"
        },
        {
          "internalType": "address",
          "name": "_arbiter",
          "type": "address"
        },
        {
          "internalType": "uint256",
          "name": "_amount",
          "type": "uint256"
        },
        {
          "internalType": "bytes32",
          "name": "",
          "type": "bytes32"
        },
        {
          "internalType": "uint256",
          "name": "",
          "type": "uint256"
        },
        {
          "internalType": "address",
          "name": "_tokenAddress",
          "type": "address"
        }
      ],
      "stateMutability": "nonpayable",
      "type": "constructor"
    },
    {
      "inputs": [],
      "name": "ReentrancyGuardReentrantCall",
      "type": "error"
    },
    {
      "inputs": [
        {
          "internalType": "address",
          "name": "token",
          "type": "address"
        }
      ],
      "name": "SafeERC20FailedOperation",
      "type": "error"
    },
    {
      "anonymous": false,
      "inputs": [
        {
          "indexed": true,
          "internalType": "address",
          "name": "raisedBy",
          "type": "address"
        }
      ],
      "name": "DisputeRaised",
      "type": "event"
    },
    {
      "anonymous": false,
      "inputs": [
        {
          "indexed": true,
          "internalType": "address",
          "name": "resolver",
          "type": "address"
        },
        {
          "indexed": true,
          "internalType": "address",
          "name": "winner",
          "type": "address"
        }
      ],
      "name": "DisputeResolved",
      "type": "event"
    },
    {
      "anonymous": false,
      "inputs": [
        {
          "indexed": false,
          "internalType": "uint256",
          "name": "amount",
          "type": "uint256"
        }
      ],
      "name": "InvoiceDeposited",
      "type": "event"
    },
    {
      "anonymous": false,
      "inputs": [
        {
          "indexed": false,
          "internalType": "uint256",
          "name": "amount",
          "type": "uint256"
        }
      ],
      "name": "InvoiceReleased",
      "type": "event"
    },
    {
      "anonymous": false,
      "inputs": [
        {
          "indexed": false,
          "internalType": "enum Invoice.Status",
          "name": "newStatus",
          "type": "uint8"
        }
      ],
      "name": "StatusChanged",
      "type": "event"
    },
    {
      "inputs": [],
      "name": "amount",
      "outputs": [
        {
          "internalType": "uint256",
          "name": "",
          "type": "uint256"
        }
      ],
      "stateMutability": "view",
      "type": "function"
    },
    {
      "inputs": [],
      "name": "arbiter",
      "outputs": [
        {
          "internalType": "address",
          "name": "",
          "type": "address"
        }
      ],
      "stateMutability": "view",
      "type": "function"
    },
    {
      "inputs": [],
      "name": "buyer",
      "outputs": [
        {
          "internalType": "address",
          "name": "",
          "type": "address"
        }
      ],
      "stateMutability": "view",
      "type": "function"
    },
    {
      "inputs": [],
      "name": "currentStatus",
      "outputs": [
        {
          "internalType": "enum Invoice.Status",
          "name": "",
          "type": "uint8"
        }
      ],
      "stateMutability": "view",
      "type": "function"
    },
    {
      "inputs": [],
      "name": "depositNative",
      "outputs": [],
      "stateMutability": "payable",
      "type": "function"
    },
    {
      "inputs": [],
      "name": "depositToken",
      "outputs": [],
      "stateMutability": "nonpayable",
      "type": "function"
    },
    {
      "inputs": [
        {
          "internalType": "uint256",
          "name": "",
          "type": "uint256"
        }
      ],
      "name": "escrowBalance",
      "outputs": [
        {
          "internalType": "uint256",
          "name": "",
          "type": "uint256"
        }
      ],
      "stateMutability": "view",
      "type": "function"
    },
    {
      "inputs": [],
      "name": "raiseDispute",
      "outputs": [],
      "stateMutability": "nonpayable",
      "type": "function"
    },
    {
      "inputs": [],
      "name": "releaseFunds",
      "outputs": [],
      "stateMutability": "nonpayable",
      "type": "function"
    },
    {
      "inputs": [
        {
          "internalType": "address",
          "name": "winner",
          "type": "address"
        }
      ],
      "name": "resolveDispute",
      "outputs": [],
      "stateMutability": "nonpayable",
      "type": "function"
    },
    {
      "inputs": [],
      "name": "seller",
      "outputs": [
        {
          "internalType": "address",
          "name": "",
          "type": "address"
        }
      ],
      "stateMutability": "view",
      "type": "function"
    },
    {
      "inputs": [],
      "name": "tokenAddress",
      "outputs": [
        {
          "internalType": "address",
          "name": "",
          "type": "address"
        }
      ],
      "stateMutability": "view",
      "type": "function"
    }
  ],
  "bytecode": "0x6080346100e257601f610bbf38819003918201601f19168301916001600160401b038311848410176100e65780849260e0946040528339810103126100e257610047816100fa565b90610054602082016100fa565b610060604083016100fa565b9061007260c0606085015194016100fa565b60015f81905580546001600160a01b03199081166001600160a01b03978816179091556002805482169387169390931790925560038054909216928516929092179055600491909155600580546001600160a81b03191692909116919091179055604051610ab0908161010f8239f35b5f80fd5b634e487b7160e01b5f52604160045260245ffd5b51906001600160a01b03821682036100e25756fe6080806040526004361015610012575f80fd5b5f3560e01c90816308551a53146108155750806369d89575146106ef5780636daa2d44146105fa5780637150d8ae146105d25780639d76ea58146105aa578063aa8c217c1461058d578063bb099ee314610563578063c89039c51461040b578063d84611821461025a578063db6b52461461010c578063ef8a9235146100cc5763fe25e00a146100a0575f80fd5b346100c8575f3660031901126100c8576003546040516001600160a01b039091168152602090f35b5f80fd5b346100c8575f3660031901126100c85760ff60055460a01c1660405160058210156100f8576020918152f35b634e487b7160e01b5f52602160045260245ffd5b5f3660031901126100c85761012c60018060a01b03600254163314610838565b60ff60055460a01c1660058110156100f8576101489015610884565b61015061099c565b6005546001600160a01b03166102155760045434036101dd575f8052600660205260405f2061018034825461097b565b90556005805460ff60a01b1916600160a01b1790557ffcdf429e5808472e48ef1ab9a16cdc660495e5ff4fc29a4cb6fa3705a588b2c36020604051348152a15f516020610a5b5f395f51905f52602060405160018152a160015f55005b60405162461bcd60e51b815260206004820152601060248201526f125b98dbdc9c9958dd08185b5bdd5b9d60821b6044820152606490fd5b60405162461bcd60e51b815260206004820152601a60248201527f496e766f69636520697320666f7220455243323020746f6b656e0000000000006044820152606490fd5b346100c85760203660031901126100c8576004356001600160a01b038116908181036100c8576003546001600160a01b031633036103c65760ff60055460a01c1660058110156100f85760036102b09114610884565b6102b861099c565b6002546001600160a01b0316821480156103b2575b1561036d576005545f516020610a5b5f395f51905f529260209290916001600160a01b03168061035b57505f80808061031494600454905af161030e6108f7565b50610936565b6005805460ff60a01b1916600160a11b17905560405190337fd2dc052bee2b52c6f56a2b5bc488360183af7ee2f1b7e600a0e3c0e9337dd4e85f80a360028152a160015f55005b61036891600454916109ba565b610314565b60405162461bcd60e51b815260206004820152601e60248201527f57696e6e6572206d757374206265206275796572206f722073656c6c657200006044820152606490fd5b506001546001600160a01b031682146102cd565b60405162461bcd60e51b815260206004820152601a60248201527f4f6e6c7920617262697465722063616e2063616c6c20746869730000000000006044820152606490fd5b346100c8575f3660031901126100c85761043060018060a01b03600254163314610838565b60ff60055460a01c1660058110156100f85761044c9015610884565b61045461099c565b6005546001600160a01b0316801561051e576104a49060045490604051916323b872dd60e01b602084015233602484015230604484015260648301526064825261049f6084836108c1565b6109f7565b6004545f805260066020526104be60405f2091825461097b565b90556005805460ff60a01b1916600160a01b1790557ffcdf429e5808472e48ef1ab9a16cdc660495e5ff4fc29a4cb6fa3705a588b2c36020600454604051908152a15f516020610a5b5f395f51905f52602060405160018152a160015f55005b60405162461bcd60e51b815260206004820152601e60248201527f496e766f69636520697320666f72206e61746976652063757272656e637900006044820152606490fd5b346100c85760203660031901126100c8576004355f526006602052602060405f2054604051908152f35b346100c8575f3660031901126100c8576020600454604051908152f35b346100c8575f3660031901126100c8576005546040516001600160a01b039091168152602090f35b346100c8575f3660031901126100c8576002546040516001600160a01b039091168152602090f35b346100c8575f3660031901126100c85760ff60055460a01c1660058110156100f85760016106289114610884565b6002546001600160a01b0316331480156106db575b15610696576005805460ff60a01b1916600360a01b1790556040515f516020610a5b5f395f51905f5290602090337f0b3cd97b16a08a5c77357c276d248827ad32dfd56060f7c55d6255537ba3d9625f80a260038152a1005b60405162461bcd60e51b815260206004820152601e60248201527f4f6e6c7920706172746965732063616e207261697365206469737075746500006044820152606490fd5b506001546001600160a01b0316331461063d565b346100c8575f3660031901126100c85761071460018060a01b03600254163314610838565b60ff60055460a01c1660058110156100f85760016107329114610884565b61073a61099c565b5f80805260066020527f54cdd369e4e8a8515e52ca72ec816c2101831ad1f18bf44102ed171459c9b4f8556005546001600160a01b0316806107f557506107975f80808060018060a01b0360015416600454905af161030e6108f7565b6005805460ff60a01b1916600160a11b1790557f2f23935ed545a1a57e18b4e37df10f8c3b4e4ae851a9c20a6edcb3f25e194b1a6020600454604051908152a15f516020610a5b5f395f51905f52602060405160028152a160015f55005b6001546004546108109290916001600160a01b0316906109ba565b610797565b346100c8575f3660031901126100c8576001546001600160a01b03168152602090f35b1561083f57565b60405162461bcd60e51b815260206004820152601860248201527f4f6e6c792062757965722063616e2063616c6c207468697300000000000000006044820152606490fd5b1561088b57565b60405162461bcd60e51b815260206004820152600e60248201526d496e76616c69642073746174757360901b6044820152606490fd5b90601f8019910116810190811067ffffffffffffffff8211176108e357604052565b634e487b7160e01b5f52604160045260245ffd5b3d15610931573d9067ffffffffffffffff82116108e35760405191610926601f8201601f1916602001846108c1565b82523d5f602084013e565b606090565b1561093d57565b60405162461bcd60e51b815260206004820152601660248201527513985d1a5d99481d1c985b9cd9995c8819985a5b195960521b6044820152606490fd5b9190820180921161098857565b634e487b7160e01b5f52601160045260245ffd5b60025f54146109ab5760025f55565b633ee5aeb560e01b5f5260045ffd5b60405163a9059cbb60e01b60208201526001600160a01b0390921660248301526044808301939093529181526109f59161049f6064836108c1565b565b905f602091828151910182855af115610a4f575f513d610a4657506001600160a01b0381163b155b610a265750565b635274afe760e01b5f9081526001600160a01b0391909116600452602490fd5b60011415610a1f565b6040513d5f823e3d90fdfeafa725e7f44cadb687a7043853fa1a7e7b8f0da74ce87ec546e9420f04da8c1ea26469706673582212206222a3d97976a5410543bf620b6b2c9211aaf64b497189be8f15c584457a16b464736f6c634300081c0033",
  "linkReferences": {},
  "deployedLinkReferences": {}
}