{
  "_format": "hh-sol-artifact-1",
  "contractName": "LiquidityAdapter",
  "sourceName": "contracts/LiquidityAdapter.sol",
  "abi": [
    {
      "inputs": [
        {
          "internalType": "address",
          "name": "_waltBridge",
          "type": "address"
        },
        {
          "internalType": "address",
          "name": "_complianceManager",
          "type": "address"
        }
      ],
      "stateMutability": "nonpayable",
      "type": "constructor"
    },
    {
      "inputs": [
        {
          "internalType": "address",
          "name": "owner",
          "type": "address"
        }
      ],
      "name": "OwnableInvalidOwner",
      "type": "error"
    },
    {
      "inputs": [
        {
          "internalType": "address",
          "name": "account",
          "type": "address"
        }
      ],
      "name": "OwnableUnauthorizedAccount",
      "type": "error"
    },
    {
      "inputs": [],
      "name": "ReentrancyGuardReentrantCall",
      "type": "error"
    },
    {
      "inputs": [
        {
          "internalType": "address",
          "name": "token",
          "type": "address"
        }
      ],
      "name": "SafeERC20FailedOperation",
      "type": "error"
    },
    {
      "anonymous": false,
      "inputs": [
        {
          "indexed": true,
          "internalType": "address",
          "name": "asset",
          "type": "address"
        },
        {
          "indexed": false,
          "internalType": "address",
          "name": "pool",
          "type": "address"
        }
      ],
      "name": "LiquidityPoolUpdated",
      "type": "event"
    },
    {
      "anonymous": false,
      "inputs": [
        {
          "indexed": true,
          "internalType": "bytes32",
          "name": "loanId",
          "type": "bytes32"
        },
        {
          "indexed": false,
          "internalType": "address",
          "name": "borrower",
          "type": "address"
        },
        {
          "indexed": false,
          "internalType": "address",
          "name": "asset",
          "type": "address"
        },
        {
          "indexed": false,
          "internalType": "uint256",
          "name": "amount",
          "type": "uint256"
        },
        {
          "indexed": false,
          "internalType": "uint256",
          "name": "rate",
          "type": "uint256"
        }
      ],
      "name": "LoanInitiated",
      "type": "event"
    },
    {
      "anonymous": false,
      "inputs": [
        {
          "indexed": true,
          "internalType": "bytes32",
          "name": "loanId",
          "type": "bytes32"
        },
        {
          "indexed": false,
          "internalType": "address",
          "name": "borrower",
          "type": "address"
        },
        {
          "indexed": false,
          "internalType": "address",
          "name": "asset",
          "type": "address"
        },
        {
          "indexed": false,
          "internalType": "uint256",
          "name": "amount",
          "type": "uint256"
        }
      ],
      "name": "LoanRepaid",
      "type": "event"
    },
    {
      "anonymous": false,
      "inputs": [
        {
          "indexed": true,
          "internalType": "address",
          "name": "previousOwner",
          "type": "address"
        },
        {
          "indexed": true,
          "internalType": "address",
          "name": "newOwner",
          "type": "address"
        }
      ],
      "name": "OwnershipTransferred",
      "type": "event"
    },
    {
      "inputs": [],
      "name": "FINOVATE_CHAIN",
      "outputs": [
        {
          "internalType": "bytes32",
          "name": "",
          "type": "bytes32"
        }
      ],
      "stateMutability": "view",
      "type": "function"
    },
    {
      "inputs": [],
      "name": "KATANA_CHAIN",
      "outputs": [
        {
          "internalType": "bytes32",
          "name": "",
          "type": "bytes32"
        }
      ],
      "stateMutability": "view",
      "type": "function"
    },
    {
      "inputs": [
        {
          "internalType": "address",
          "name": "asset",
          "type": "address"
        },
        {
          "internalType": "uint256",
          "name": "amount",
          "type": "uint256"
        },
        {
          "internalType": "address",
          "name": "borrower",
          "type": "address"
        }
      ],
      "name": "borrowFromPool",
      "outputs": [
        {
          "internalType": "bytes32",
          "name": "",
          "type": "bytes32"
        }
      ],
      "stateMutability": "nonpayable",
      "type": "function"
    },
    {
      "inputs": [],
      "name": "complianceManager",
      "outputs": [
        {
          "internalType": "contract ComplianceManager",
          "name": "",
          "type": "address"
        }
      ],
      "stateMutability": "view",
      "type": "function"
    },
    {
      "inputs": [
        {
          "internalType": "address",
          "name": "token",
          "type": "address"
        },
        {
          "internalType": "uint256",
          "name": "amount",
          "type": "uint256"
        }
      ],
      "name": "emergencyWithdraw",
      "outputs": [],
      "stateMutability": "nonpayable",
      "type": "function"
    },
    {
      "inputs": [
        {
          "internalType": "address",
          "name": "asset",
          "type": "address"
        }
      ],
      "name": "getAvailableLiquidity",
      "outputs": [
        {
          "internalType": "uint256",
          "name": "",
          "type": "uint256"
        }
      ],
      "stateMutability": "view",
      "type": "function"
    },
    {
      "inputs": [
        {
          "internalType": "address",
          "name": "asset",
          "type": "address"
        }
      ],
      "name": "getBorrowRate",
      "outputs": [
        {
          "internalType": "uint256",
          "name": "",
          "type": "uint256"
        }
      ],
      "stateMutability": "view",
      "type": "function"
    },
    {
      "inputs": [
        {
          "internalType": "address",
          "name": "",
          "type": "address"
        }
      ],
      "name": "liquidityPools",
      "outputs": [
        {
          "internalType": "address",
          "name": "",
          "type": "address"
        }
      ],
      "stateMutability": "view",
      "type": "function"
    },
    {
      "inputs": [
        {
          "internalType": "bytes32",
          "name": "",
          "type": "bytes32"
        }
      ],
      "name": "loans",
      "outputs": [
        {
          "internalType": "address",
          "name": "borrower",
          "type": "address"
        },
        {
          "internalType": "address",
          "name": "asset",
          "type": "address"
        },
        {
          "internalType": "uint256",
          "name": "amount",
          "type": "uint256"
        },
        {
          "internalType": "uint256",
          "name": "borrowRate",
          "type": "uint256"
        },
        {
          "internalType": "uint256",
          "name": "timestamp",
          "type": "uint256"
        },
        {
          "internalType": "bool",
          "name": "active",
          "type": "bool"
        }
      ],
      "stateMutability": "view",
      "type": "function"
    },
    {
      "inputs": [],
      "name": "owner",
      "outputs": [
        {
          "internalType": "address",
          "name": "",
          "type": "address"
        }
      ],
      "stateMutability": "view",
      "type": "function"
    },
    {
      "inputs": [],
      "name": "renounceOwnership",
      "outputs": [],
      "stateMutability": "nonpayable",
      "type": "function"
    },
    {
      "inputs": [
        {
          "internalType": "bytes32",
          "name": "loanId",
          "type": "bytes32"
        }
      ],
      "name": "repayToPool",
      "outputs": [],
      "stateMutability": "nonpayable",
      "type": "function"
    },
    {
      "inputs": [
        {
          "internalType": "address",
          "name": "asset",
          "type": "address"
        },
        {
          "internalType": "address",
          "name": "pool",
          "type": "address"
        }
      ],
      "name": "setLiquidityPool",
      "outputs": [],
      "stateMutability": "nonpayable",
      "type": "function"
    },
    {
      "inputs": [
        {
          "internalType": "address",
          "name": "newOwner",
          "type": "address"
        }
      ],
      "name": "transferOwnership",
      "outputs": [],
      "stateMutability": "nonpayable",
      "type": "function"
    },
    {
      "inputs": [
        {
          "internalType": "address",
          "name": "_waltBridge",
          "type": "address"
        }
      ],
      "name": "updateWaltBridge",
      "outputs": [],
      "stateMutability": "nonpayable",
      "type": "function"
    },
    {
      "inputs": [],
      "name": "waltBridge",
      "outputs": [
        {
          "internalType": "contract IWaltBridge",
          "name": "",
          "type": "address"
        }
      ],
      "stateMutability": "view",
      "type": "function"
    }
  ],
  "bytecode": "0x6080346100f257601f610fdd38819003918201601f19168301916001600160401b038311848410176100f65780849260409485528339810103126100f257610052602061004b8361010a565b920161010a565b33156100df575f8054336001600160a01b0319821681178355604051949290916001600160a01b0316907f8be0079c531659141344cd1fd0a4f28419497f9722a3daafe3b4186f6b6457e09080a360018055600280546001600160a01b039283166001600160a01b03199182161790915560038054939092169216919091179055610ebe908161011f8239f35b631e4fbdf760e01b5f525f60045260245ffd5b5f80fd5b634e487b7160e01b5f52604160045260245ffd5b51906001600160a01b03821682036100f25756fe60806040526004361015610011575f80fd5b5f3560e01c806301864eb214610c2d57806304e808a61461078c5780630b0fd47e1461074c578063266e2bd81461072957806367b5c712146106ef5780636b199716146106c7578063715018a6146106705780638da5cb5b1461064957806395ccea67146105d857806397717b891461059e578063c4a9081514610528578063d71275f6146104fd578063dc1f8b6614610204578063e0169b131461017a578063f2fde38b146100f55763ff7bce23146100c9575f80fd5b346100f1575f3660031901126100f1576003546040516001600160a01b039091168152602090f35b5f80fd5b346100f15760203660031901126100f15761010e610c70565b610116610dea565b6001600160a01b03168015610167575f80546001600160a01b03198116831782556001600160a01b0316907f8be0079c531659141344cd1fd0a4f28419497f9722a3daafe3b4186f6b6457e09080a3005b631e4fbdf760e01b5f525f60045260245ffd5b346100f15760403660031901126100f157610193610c70565b6024356001600160a01b03811691908290036100f15760207fa4a29e0283fd61d880802985b3502e86002e8c3119dc94a034dcf1b28a513e9d916101d5610dea565b6001600160a01b03165f8181526004835260409081902080546001600160a01b031916861790555193845292a2005b346100f15760203660031901126100f157600435610220610e10565b805f52600560205260405f20600581019060ff825416156104c65780546001600160a01b0316330361048d576001810180546001600160a01b039081165f818152600460205260409020549091169061027a821515610cc0565b60048401544203428111610479576102b06a1a1601fc4ea7109e000000916102ab6003600289015498015488610dd7565b610dd7565b048401809411610479576040516323b872dd60e01b6020820152336024820152306044820152606481018590526102fd916102f882608481015b03601f198101845283610c86565b610e30565b815460405163095ea7b360e01b81526001600160a01b038381166004830152602482018690529091602091839160449183915f91165af18015610453575f926020926103849261045e575b50845460405163173aba7160e21b81526001600160a01b0390911660048201526024810187905233604482015293849283919082906064820190565b03925af1908115610453575f91610424575b50156103f057825460ff19169092559054604080513381526001600160a01b0390921660208301528101919091527f478898edf18474cf8c0d4a54cfa5e55de8bd42ba30bedb0b7657f7a72550912f90606090a260018055005b60405162461bcd60e51b815260206004820152600c60248201526b14995c185e4819985a5b195960a21b6044820152606490fd5b610446915060203d60201161044c575b61043e8183610c86565b810190610ca8565b85610396565b503d610434565b6040513d5f823e3d90fd5b61047490843d861161044c5761043e8183610c86565b610348565b634e487b7160e01b5f52601160045260245ffd5b60405162461bcd60e51b81526020600482015260116024820152702737ba103637b0b7103137b93937bbb2b960791b6044820152606490fd5b60405162461bcd60e51b815260206004820152600f60248201526e4c6f616e206e6f742061637469766560881b6044820152606490fd5b346100f15760203660031901126100f157602061052061051b610c70565b610d86565b604051908152f35b346100f15760203660031901126100f1576004355f52600560205260c060405f2060018060a01b038154169060018060a01b0360018201541690600281015460038201549060ff6005600485015494015416936040519586526020860152604085015260608401526080830152151560a0820152f35b346100f1575f3660031901126100f15760206040517f98d35890f262f42e468663746e93596a5077f0e2571f072ea1905db676f8daaf8152f35b346100f15760403660031901126100f1576106476102ea6105f7610c70565b6105ff610dea565b5f5460405163a9059cbb60e01b60208201526001600160a01b03909116602480830191909152356044820152916106399083906064820190565b6001600160a01b0316610e30565b005b346100f1575f3660031901126100f1575f546040516001600160a01b039091168152602090f35b346100f1575f3660031901126100f157610688610dea565b5f80546001600160a01b0319811682556001600160a01b03167f8be0079c531659141344cd1fd0a4f28419497f9722a3daafe3b4186f6b6457e08280a3005b346100f1575f3660031901126100f1576002546040516001600160a01b039091168152602090f35b346100f1575f3660031901126100f15760206040517fe8fe57585ca8b7ec07325cb5cdc4701633418dd473836621b010ece196797f208152f35b346100f15760203660031901126100f1576020610520610747610c70565b610d00565b346100f15760203660031901126100f1576001600160a01b0361076d610c70565b165f526004602052602060018060a01b0360405f205416604051908152f35b346100f15760603660031901126100f1576107a5610c70565b60243590604435906001600160a01b0382168083036100f1576107c6610dea565b6003546040516372c1cc1b60e11b8152600481018390526001600160a01b0390911690602081602481855afa908115610453575f91610c0e575b50610bd857602060249160405192838092632a5bb1b760e11b82528660048301525afa908115610453575f91610bb9575b5015610b815761083f610e10565b6001600160a01b038281165f818152600460205260409020549091169390929061086a851515610cc0565b6040516304cdc57b60e31b815260048101859052602081602481895afa80156104535787915f91610b4c575b5010610b0e57604051636b893afb60e11b81526004810185905294602086602481845afa958615610453575f96610ad9575b50604051636c665a5560e01b81526001600160a01b038481166004830152602482018990528316604482015290602090829060649082905f905af1908115610453575f91610aba575b5015610a85576040519060208201926001600160601b03199060601b1683528660348301526001600160601b03199060601b1660548201524260688201526068815261095e608882610c86565b519020926040519160c083019183831067ffffffffffffffff841117610a715760209686957f802e4f94e3feb20f30153b3c0d306b7006079719ee57ab0aed0eaa101d88b7269560809560405284815260058a82019183835260408101858152606082018781528983019142835260a0840195600187528d5f528f86905260405f209460018060a01b039060018060a01b03905116166001600160601b0360a01b86541617855560018060a01b03905116600185019060018060a01b03166001600160601b0360a01b825416179055516002840155516003830155516004820155019051151560ff801983541691161790556040519384528884015260408301526060820152a260018055604051908152f35b634e487b7160e01b5f52604160045260245ffd5b60405162461bcd60e51b815260206004820152600d60248201526c109bdc9c9bddc819985a5b1959609a1b6044820152606490fd5b610ad3915060203d60201161044c5761043e8183610c86565b87610911565b9095506020813d602011610b06575b81610af560209383610c86565b810103126100f157519460206108c8565b3d9150610ae8565b60405162461bcd60e51b8152602060048201526016602482015275496e73756666696369656e74206c697175696469747960501b6044820152606490fd5b9150506020813d602011610b79575b81610b6860209383610c86565b810103126100f15786905188610896565b3d9150610b5b565b60405162461bcd60e51b815260206004820152601060248201526f12d650c81b9bdd081d995c9a599a595960821b6044820152606490fd5b610bd2915060203d60201161044c5761043e8183610c86565b85610831565b60405162461bcd60e51b815260206004820152600e60248201526d20b1b1b7bab73a10333937bd32b760911b6044820152606490fd5b610c27915060203d60201161044c5761043e8183610c86565b86610800565b346100f15760203660031901126100f157610c46610c70565b610c4e610dea565b600280546001600160a01b0319166001600160a01b0392909216919091179055005b600435906001600160a01b03821682036100f157565b90601f8019910116810190811067ffffffffffffffff821117610a7157604052565b908160209103126100f1575180151581036100f15790565b15610cc757565b60405162461bcd60e51b8152602060048201526011602482015270139bc81c1bdbdb08199bdc88185cdcd95d607a1b6044820152606490fd5b6001600160a01b039081165f81815260046020526040902054909116908115610d80576020906024604051809481936304cdc57b60e31b835260048301525afa908115610453575f91610d51575090565b90506020813d602011610d78575b81610d6c60209383610c86565b810103126100f1575190565b3d9150610d5f565b50505f90565b6001600160a01b039081165f81815260046020526040902054909116908115610d8057602090602460405180948193636b893afb60e11b835260048301525afa908115610453575f91610d51575090565b8181029291811591840414171561047957565b5f546001600160a01b03163303610dfd57565b63118cdaa760e01b5f523360045260245ffd5b600260015414610e21576002600155565b633ee5aeb560e01b5f5260045ffd5b905f602091828151910182855af115610453575f513d610e7f57506001600160a01b0381163b155b610e5f5750565b635274afe760e01b5f9081526001600160a01b0391909116600452602490fd5b60011415610e5856fea26469706673582212200887f1cefc70fb5a99facd75054e5afc8347d89cb3b57a3656ef5ee6d31e2dbf64736f6c634300081c0033",
  "linkReferences": {},
  "deployedLinkReferences": {}
}