{
  "_format": "hh-sol-artifact-1",
  "contractName": "LiquidityAdapter",
  "sourceName": "contracts/LiquidityAdapter.sol",
  "abi": [
    {
      "inputs": [
        {
          "internalType": "address",
          "name": "_waltBridge",
          "type": "address"
        },
        {
          "internalType": "address",
          "name": "_complianceManager",
          "type": "address"
        }
      ],
      "stateMutability": "nonpayable",
      "type": "constructor"
    },
    {
      "inputs": [
        {
          "internalType": "address",
          "name": "owner",
          "type": "address"
        }
      ],
      "name": "OwnableInvalidOwner",
      "type": "error"
    },
    {
      "inputs": [
        {
          "internalType": "address",
          "name": "account",
          "type": "address"
        }
      ],
      "name": "OwnableUnauthorizedAccount",
      "type": "error"
    },
    {
      "inputs": [],
      "name": "ReentrancyGuardReentrantCall",
      "type": "error"
    },
    {
      "inputs": [
        {
          "internalType": "address",
          "name": "token",
          "type": "address"
        }
      ],
      "name": "SafeERC20FailedOperation",
      "type": "error"
    },
    {
      "anonymous": false,
      "inputs": [
        {
          "indexed": true,
          "internalType": "address",
          "name": "asset",
          "type": "address"
        },
        {
          "indexed": false,
          "internalType": "address",
          "name": "pool",
          "type": "address"
        }
      ],
      "name": "LiquidityPoolUpdated",
      "type": "event"
    },
    {
      "anonymous": false,
      "inputs": [
        {
          "indexed": true,
          "internalType": "bytes32",
          "name": "loanId",
          "type": "bytes32"
        },
        {
          "indexed": false,
          "internalType": "address",
          "name": "borrower",
          "type": "address"
        },
        {
          "indexed": false,
          "internalType": "address",
          "name": "asset",
          "type": "address"
        },
        {
          "indexed": false,
          "internalType": "uint256",
          "name": "amount",
          "type": "uint256"
        },
        {
          "indexed": false,
          "internalType": "uint256",
          "name": "rate",
          "type": "uint256"
        }
      ],
      "name": "LoanInitiated",
      "type": "event"
    },
    {
      "anonymous": false,
      "inputs": [
        {
          "indexed": true,
          "internalType": "bytes32",
          "name": "loanId",
          "type": "bytes32"
        },
        {
          "indexed": false,
          "internalType": "address",
          "name": "borrower",
          "type": "address"
        },
        {
          "indexed": false,
          "internalType": "address",
          "name": "asset",
          "type": "address"
        },
        {
          "indexed": false,
          "internalType": "uint256",
          "name": "amount",
          "type": "uint256"
        }
      ],
      "name": "LoanRepaid",
      "type": "event"
    },
    {
      "anonymous": false,
      "inputs": [
        {
          "indexed": true,
          "internalType": "address",
          "name": "previousOwner",
          "type": "address"
        },
        {
          "indexed": true,
          "internalType": "address",
          "name": "newOwner",
          "type": "address"
        }
      ],
      "name": "OwnershipTransferred",
      "type": "event"
    },
    {
      "inputs": [],
      "name": "FINOVATE_CHAIN",
      "outputs": [
        {
          "internalType": "bytes32",
          "name": "",
          "type": "bytes32"
        }
      ],
      "stateMutability": "view",
      "type": "function"
    },
    {
      "inputs": [],
      "name": "KATANA_CHAIN",
      "outputs": [
        {
          "internalType": "bytes32",
          "name": "",
          "type": "bytes32"
        }
      ],
      "stateMutability": "view",
      "type": "function"
    },
    {
      "inputs": [
        {
          "internalType": "address",
          "name": "asset",
          "type": "address"
        },
        {
          "internalType": "uint256",
          "name": "amount",
          "type": "uint256"
        },
        {
          "internalType": "address",
          "name": "borrower",
          "type": "address"
        }
      ],
      "name": "borrowFromPool",
      "outputs": [
        {
          "internalType": "bytes32",
          "name": "",
          "type": "bytes32"
        }
      ],
      "stateMutability": "nonpayable",
      "type": "function"
    },
    {
      "inputs": [],
      "name": "complianceManager",
      "outputs": [
        {
          "internalType": "contract ComplianceManager",
          "name": "",
          "type": "address"
        }
      ],
      "stateMutability": "view",
      "type": "function"
    },
    {
      "inputs": [
        {
          "internalType": "address",
          "name": "token",
          "type": "address"
        },
        {
          "internalType": "uint256",
          "name": "amount",
          "type": "uint256"
        }
      ],
      "name": "emergencyWithdraw",
      "outputs": [],
      "stateMutability": "nonpayable",
      "type": "function"
    },
    {
      "inputs": [
        {
          "internalType": "address",
          "name": "asset",
          "type": "address"
        }
      ],
      "name": "getAvailableLiquidity",
      "outputs": [
        {
          "internalType": "uint256",
          "name": "",
          "type": "uint256"
        }
      ],
      "stateMutability": "view",
      "type": "function"
    },
    {
      "inputs": [
        {
          "internalType": "address",
          "name": "asset",
          "type": "address"
        }
      ],
      "name": "getBorrowRate",
      "outputs": [
        {
          "internalType": "uint256",
          "name": "",
          "type": "uint256"
        }
      ],
      "stateMutability": "view",
      "type": "function"
    },
    {
      "inputs": [
        {
          "internalType": "address",
          "name": "",
          "type": "address"
        }
      ],
      "name": "liquidityPools",
      "outputs": [
        {
          "internalType": "address",
          "name": "",
          "type": "address"
        }
      ],
      "stateMutability": "view",
      "type": "function"
    },
    {
      "inputs": [
        {
          "internalType": "bytes32",
          "name": "",
          "type": "bytes32"
        }
      ],
      "name": "loans",
      "outputs": [
        {
          "internalType": "address",
          "name": "borrower",
          "type": "address"
        },
        {
          "internalType": "address",
          "name": "asset",
          "type": "address"
        },
        {
          "internalType": "uint256",
          "name": "amount",
          "type": "uint256"
        },
        {
          "internalType": "uint256",
          "name": "borrowRate",
          "type": "uint256"
        },
        {
          "internalType": "uint256",
          "name": "timestamp",
          "type": "uint256"
        },
        {
          "internalType": "bool",
          "name": "active",
          "type": "bool"
        }
      ],
      "stateMutability": "view",
      "type": "function"
    },
    {
      "inputs": [],
      "name": "owner",
      "outputs": [
        {
          "internalType": "address",
          "name": "",
          "type": "address"
        }
      ],
      "stateMutability": "view",
      "type": "function"
    },
    {
      "inputs": [],
      "name": "renounceOwnership",
      "outputs": [],
      "stateMutability": "nonpayable",
      "type": "function"
    },
    {
      "inputs": [
        {
          "internalType": "bytes32",
          "name": "loanId",
          "type": "bytes32"
        }
      ],
      "name": "repayToPool",
      "outputs": [],
      "stateMutability": "nonpayable",
      "type": "function"
    },
    {
      "inputs": [
        {
          "internalType": "address",
          "name": "asset",
          "type": "address"
        },
        {
          "internalType": "address",
          "name": "pool",
          "type": "address"
        }
      ],
      "name": "setLiquidityPool",
      "outputs": [],
      "stateMutability": "nonpayable",
      "type": "function"
    },
    {
      "inputs": [
        {
          "internalType": "address",
          "name": "newOwner",
          "type": "address"
        }
      ],
      "name": "transferOwnership",
      "outputs": [],
      "stateMutability": "nonpayable",
      "type": "function"
    },
    {
      "inputs": [
        {
          "internalType": "address",
          "name": "_waltBridge",
          "type": "address"
        }
      ],
      "name": "updateWaltBridge",
      "outputs": [],
      "stateMutability": "nonpayable",
      "type": "function"
    },
    {
      "inputs": [],
      "name": "waltBridge",
      "outputs": [
        {
          "internalType": "contract IWaltBridge",
          "name": "",
          "type": "address"
        }
      ],
      "stateMutability": "view",
      "type": "function"
    }
  ],
  "bytecode": "0x60803461011257601f61102d38819003918201601f19168301916001600160401b0383118484101761011657808492604094855283398101031261011257610052602061004b8361012a565b920161012a565b33156100ff575f8054336001600160a01b0319821681178355604051949290916001600160a01b0316907f8be0079c531659141344cd1fd0a4f28419497f9722a3daafe3b4186f6b6457e09080a360017f9b779b17422d0df92223018b32b4d1fa46e071723d6817e2486d003becc55f0081905580546001600160a01b039283166001600160a01b03199182161790915560028054939092169216919091179055610eee908161013f8239f35b631e4fbdf760e01b5f525f60045260245ffd5b5f80fd5b634e487b7160e01b5f52604160045260245ffd5b51906001600160a01b03821682036101125756fe60806040526004361015610011575f80fd5b5f3560e01c806301864eb214610c7d57806304e808a6146107ce5780630b0fd47e1461078e578063266e2bd81461076b57806367b5c712146107315780636b19971614610709578063715018a6146106b25780638da5cb5b1461068b57806395ccea671461060257806397717b89146105c8578063c4a9081514610552578063d71275f614610527578063dc1f8b6614610204578063e0169b131461017a578063f2fde38b146100f55763ff7bce23146100c9575f80fd5b346100f1575f3660031901126100f1576002546040516001600160a01b039091168152602090f35b5f80fd5b346100f15760203660031901126100f15761010e610cc0565b610116610e3a565b6001600160a01b03168015610167575f80546001600160a01b03198116831782556001600160a01b0316907f8be0079c531659141344cd1fd0a4f28419497f9722a3daafe3b4186f6b6457e09080a3005b631e4fbdf760e01b5f525f60045260245ffd5b346100f15760403660031901126100f157610193610cc0565b6024356001600160a01b03811691908290036100f15760207fa4a29e0283fd61d880802985b3502e86002e8c3119dc94a034dcf1b28a513e9d916101d5610e3a565b6001600160a01b03165f8181526003835260409081902080546001600160a01b031916861790555193845292a2005b346100f15760203660031901126100f157600435610220610e60565b805f52600460205260405f206005810160ff815416156104f05781546001600160a01b031633036104b7576001820180546001600160a01b039081165f818152600360205260409020549294929091169061027c821515610d10565b600483015442034281116104a3576102b26a1a1601fc4ea7109e000000916102ad6003600288015497015487610e27565b610e27565b0483018093116104a357604051906323b872dd60e01b5f5233600452306024528360445260205f60648180855af160015f5114811615610484575b826040525f6060521561047257506020816044815f60018060a01b038a541663095ea7b360e01b83528760048401528860248401525af1801561044c575f9260209261037492610457575b50865460405163173aba7160e21b81526001600160a01b0390911660048201526024810186905233604482015293849283919082906064820190565b03925af190811561044c575f9161041d575b50156103e9577f478898edf18474cf8c0d4a54cfa5e55de8bd42ba30bedb0b7657f7a72550912f9260609260ff19815416905560018060a01b03905416906040519133835260208301526040820152a260015f516020610e995f395f51905f5255005b60405162461bcd60e51b815260206004820152600c60248201526b14995c185e4819985a5b195960a21b6044820152606490fd5b61043f915060203d602011610445575b6104378183610cd6565b810190610cf8565b85610386565b503d61042d565b6040513d5f823e3d90fd5b61046d90843d8611610445576104378183610cd6565b610338565b635274afe760e01b5f5260045260245ffd5b600181151661049a57813b15153d1516166102ed565b823d5f823e3d90fd5b634e487b7160e01b5f52601160045260245ffd5b60405162461bcd60e51b81526020600482015260116024820152702737ba103637b0b7103137b93937bbb2b960791b6044820152606490fd5b60405162461bcd60e51b815260206004820152600f60248201526e4c6f616e206e6f742061637469766560881b6044820152606490fd5b346100f15760203660031901126100f157602061054a610545610cc0565b610dd6565b604051908152f35b346100f15760203660031901126100f1576004355f52600460205260c060405f2060018060a01b038154169060018060a01b0360018201541690600281015460038201549060ff6005600485015494015416936040519586526020860152604085015260608401526080830152151560a0820152f35b346100f1575f3660031901126100f15760206040517f98d35890f262f42e468663746e93596a5077f0e2571f072ea1905db676f8daaf8152f35b346100f15760403660031901126100f15761061b610cc0565b610623610e3a565b5f805460405163a9059cbb60e01b83526001600160a01b039182166004526024803590529216919060209060448180865af19060015f511482161561066b575b501561047257005b60018215166106835750813b15153d15161682610663565b3d5f823e3d90fd5b346100f1575f3660031901126100f1575f546040516001600160a01b039091168152602090f35b346100f1575f3660031901126100f1576106ca610e3a565b5f80546001600160a01b0319811682556001600160a01b03167f8be0079c531659141344cd1fd0a4f28419497f9722a3daafe3b4186f6b6457e08280a3005b346100f1575f3660031901126100f1576001546040516001600160a01b039091168152602090f35b346100f1575f3660031901126100f15760206040517fe8fe57585ca8b7ec07325cb5cdc4701633418dd473836621b010ece196797f208152f35b346100f15760203660031901126100f157602061054a610789610cc0565b610d50565b346100f15760203660031901126100f1576001600160a01b036107af610cc0565b165f526003602052602060018060a01b0360405f205416604051908152f35b346100f15760603660031901126100f1576107e7610cc0565b60243590604435906001600160a01b0382168083036100f157610808610e3a565b6002546040516372c1cc1b60e11b8152600481018390526001600160a01b0390911690602081602481855afa90811561044c575f91610c5e575b50610c2857602060249160405192838092632a5bb1b760e11b82528660048301525afa90811561044c575f91610c09575b5015610bd157610881610e60565b6001600160a01b038281165f81815260036020526040902054909116939092906108ac851515610d10565b6040516304cdc57b60e31b815260048101859052602081602481895afa801561044c5787915f91610b9c575b5010610b5e57604051636b893afb60e11b81526004810185905294602086602481845afa95861561044c575f96610b29575b50604051636c665a5560e01b81526001600160a01b038481166004830152602482018990528316604482015290602090829060649082905f905af190811561044c575f91610b0a575b5015610ad5576040519060208201926001600160601b03199060601b1683528660348301526001600160601b03199060601b166054820152426068820152606881526109a0608882610cd6565b519020926040519160c083019183831067ffffffffffffffff841117610ac15760209686957f802e4f94e3feb20f30153b3c0d306b7006079719ee57ab0aed0eaa101d88b7269560809560405284815260058a82019183835260408101858152606082018781528983019142835260a0840195600187528d5f528f6004905260405f209460018060a01b039060018060a01b03905116166001600160601b0360a01b86541617855560018060a01b03905116600185019060018060a01b03166001600160601b0360a01b825416179055516002840155516003830155516004820155019051151560ff801983541691161790556040519384528884015260408301526060820152a260015f516020610e995f395f51905f5255604051908152f35b634e487b7160e01b5f52604160045260245ffd5b60405162461bcd60e51b815260206004820152600d60248201526c109bdc9c9bddc819985a5b1959609a1b6044820152606490fd5b610b23915060203d602011610445576104378183610cd6565b87610953565b9095506020813d602011610b56575b81610b4560209383610cd6565b810103126100f1575194602061090a565b3d9150610b38565b60405162461bcd60e51b8152602060048201526016602482015275496e73756666696369656e74206c697175696469747960501b6044820152606490fd5b9150506020813d602011610bc9575b81610bb860209383610cd6565b810103126100f157869051886108d8565b3d9150610bab565b60405162461bcd60e51b815260206004820152601060248201526f12d650c81b9bdd081d995c9a599a595960821b6044820152606490fd5b610c22915060203d602011610445576104378183610cd6565b85610873565b60405162461bcd60e51b815260206004820152600e60248201526d20b1b1b7bab73a10333937bd32b760911b6044820152606490fd5b610c77915060203d602011610445576104378183610cd6565b86610842565b346100f15760203660031901126100f157610c96610cc0565b610c9e610e3a565b600180546001600160a01b0319166001600160a01b0392909216919091179055005b600435906001600160a01b03821682036100f157565b90601f8019910116810190811067ffffffffffffffff821117610ac157604052565b908160209103126100f1575180151581036100f15790565b15610d1757565b60405162461bcd60e51b8152602060048201526011602482015270139bc81c1bdbdb08199bdc88185cdcd95d607a1b6044820152606490fd5b6001600160a01b039081165f81815260036020526040902054909116908115610dd0576020906024604051809481936304cdc57b60e31b835260048301525afa90811561044c575f91610da1575090565b90506020813d602011610dc8575b81610dbc60209383610cd6565b810103126100f1575190565b3d9150610daf565b50505f90565b6001600160a01b039081165f81815260036020526040902054909116908115610dd057602090602460405180948193636b893afb60e11b835260048301525afa90811561044c575f91610da1575090565b818102929181159184041417156104a357565b5f546001600160a01b03163303610e4d57565b63118cdaa760e01b5f523360045260245ffd5b60025f516020610e995f395f51905f525414610e895760025f516020610e995f395f51905f5255565b633ee5aeb560e01b5f5260045ffdfe9b779b17422d0df92223018b32b4d1fa46e071723d6817e2486d003becc55f00a2646970667358221220b0e2644c223a46ab0332b9437de0f812a0bc6b238d36fe9d8456bf0573d6869e64736f6c634300081c0033",
  "linkReferences": {},
  "deployedLinkReferences": {}
}