{
  "_format": "hh-sol-artifact-1",
  "contractName": "MinimalForwarder",
  "sourceName": "contracts/MinimalForwarder.sol",
  "abi": [
    {
      "inputs": [],
      "stateMutability": "nonpayable",
      "type": "constructor"
    },
    {
      "inputs": [],
      "name": "ECDSAInvalidSignature",
      "type": "error"
    },
    {
      "inputs": [
        {
          "internalType": "uint256",
          "name": "length",
          "type": "uint256"
        }
      ],
      "name": "ECDSAInvalidSignatureLength",
      "type": "error"
    },
    {
      "inputs": [
        {
          "internalType": "bytes32",
          "name": "s",
          "type": "bytes32"
        }
      ],
      "name": "ECDSAInvalidSignatureS",
      "type": "error"
    },
    {
      "inputs": [],
      "name": "InvalidShortString",
      "type": "error"
    },
    {
      "inputs": [
        {
          "internalType": "string",
          "name": "str",
          "type": "string"
        }
      ],
      "name": "StringTooLong",
      "type": "error"
    },
    {
      "anonymous": false,
      "inputs": [],
      "name": "EIP712DomainChanged",
      "type": "event"
    },
    {
      "anonymous": false,
      "inputs": [
        {
          "indexed": true,
          "internalType": "address",
          "name": "from",
          "type": "address"
        },
        {
          "indexed": true,
          "internalType": "address",
          "name": "to",
          "type": "address"
        },
        {
          "indexed": false,
          "internalType": "uint256",
          "name": "nonce",
          "type": "uint256"
        },
        {
          "indexed": false,
          "internalType": "bool",
          "name": "success",
          "type": "bool"
        },
        {
          "indexed": false,
          "internalType": "bytes",
          "name": "returnData",
          "type": "bytes"
        }
      ],
      "name": "MetaTransactionExecuted",
      "type": "event"
    },
    {
      "inputs": [],
      "name": "eip712Domain",
      "outputs": [
        {
          "internalType": "bytes1",
          "name": "fields",
          "type": "bytes1"
        },
        {
          "internalType": "string",
          "name": "name",
          "type": "string"
        },
        {
          "internalType": "string",
          "name": "version",
          "type": "string"
        },
        {
          "internalType": "uint256",
          "name": "chainId",
          "type": "uint256"
        },
        {
          "internalType": "address",
          "name": "verifyingContract",
          "type": "address"
        },
        {
          "internalType": "bytes32",
          "name": "salt",
          "type": "bytes32"
        },
        {
          "internalType": "uint256[]",
          "name": "extensions",
          "type": "uint256[]"
        }
      ],
      "stateMutability": "view",
      "type": "function"
    },
    {
      "inputs": [
        {
          "components": [
            {
              "internalType": "address",
              "name": "from",
              "type": "address"
            },
            {
              "internalType": "address",
              "name": "to",
              "type": "address"
            },
            {
              "internalType": "uint256",
              "name": "value",
              "type": "uint256"
            },
            {
              "internalType": "uint256",
              "name": "gas",
              "type": "uint256"
            },
            {
              "internalType": "uint256",
              "name": "nonce",
              "type": "uint256"
            },
            {
              "internalType": "bytes",
              "name": "data",
              "type": "bytes"
            }
          ],
          "internalType": "struct MinimalForwarder.ForwardRequest",
          "name": "req",
          "type": "tuple"
        },
        {
          "internalType": "bytes",
          "name": "signature",
          "type": "bytes"
        }
      ],
      "name": "execute",
      "outputs": [
        {
          "internalType": "bool",
          "name": "success",
          "type": "bool"
        },
        {
          "internalType": "bytes",
          "name": "returnData",
          "type": "bytes"
        }
      ],
      "stateMutability": "payable",
      "type": "function"
    },
    {
      "inputs": [
        {
          "internalType": "address",
          "name": "from",
          "type": "address"
        }
      ],
      "name": "getNonce",
      "outputs": [
        {
          "internalType": "uint256",
          "name": "",
          "type": "uint256"
        }
      ],
      "stateMutability": "view",
      "type": "function"
    },
    {
      "inputs": [
        {
          "components": [
            {
              "internalType": "address",
              "name": "from",
              "type": "address"
            },
            {
              "internalType": "address",
              "name": "to",
              "type": "address"
            },
            {
              "internalType": "uint256",
              "name": "value",
              "type": "uint256"
            },
            {
              "internalType": "uint256",
              "name": "gas",
              "type": "uint256"
            },
            {
              "internalType": "uint256",
              "name": "nonce",
              "type": "uint256"
            },
            {
              "internalType": "bytes",
              "name": "data",
              "type": "bytes"
            }
          ],
          "internalType": "struct MinimalForwarder.ForwardRequest",
          "name": "req",
          "type": "tuple"
        },
        {
          "internalType": "bytes",
          "name": "signature",
          "type": "bytes"
        }
      ],
      "name": "verify",
      "outputs": [
        {
          "internalType": "bool",
          "name": "",
          "type": "bool"
        }
      ],
      "stateMutability": "view",
      "type": "function"
    }
  ],
  "bytecode": "0x6101606040523461013457604051610018604082610138565b6010815260208101906f26b4b734b6b0b62337b93bb0b93232b960811b825260405191610046604084610138565b60058352602083019164302e302e3160d81b83526100638161016f565b6101205261007084610305565b61014052519020918260e05251902080610100524660a0526040519060208201927f8b73c3c69bb8fe3d512ecc4cf759cc79239f7b179b0ffacaa9a75d522b39400f8452604083015260608201524660808201523060a082015260a081526100d960c082610138565b5190206080523060c052604051610ba0908161043e8239608051816108e8015260a051816109a5015260c051816108b2015260e051816109370152610100518161095d015261012051816102ef015261014051816103180152f35b5f80fd5b601f909101601f19168101906001600160401b0382119082101761015b57604052565b634e487b7160e01b5f52604160045260245ffd5b908151602081105f146101e9575090601f8151116101a957602081519101516020821061019a571790565b5f198260200360031b1b161790565b604460209160405192839163305a27a960e01b83528160048401528051918291826024860152018484015e5f828201840152601f01601f19168101030190fd5b6001600160401b03811161015b575f54600181811c911680156102fb575b60208210146102e757601f81116102b5575b50602092601f821160011461025657928192935f9261024b575b50508160011b915f199060031b1c1916175f5560ff90565b015190505f80610233565b601f198216935f8052805f20915f5b86811061029d5750836001959610610285575b505050811b015f5560ff90565b01515f1960f88460031b161c191690555f8080610278565b91926020600181928685015181550194019201610265565b5f8052601f60205f20910160051c810190601f830160051c015b8181106102dc5750610219565b5f81556001016102cf565b634e487b7160e01b5f52602260045260245ffd5b90607f1690610207565b908151602081105f14610330575090601f8151116101a957602081519101516020821061019a571790565b6001600160401b03811161015b57600154600181811c91168015610433575b60208210146102e757601f8111610400575b50602092601f821160011461039f57928192935f92610394575b50508160011b915f199060031b1c19161760015560ff90565b015190505f8061037b565b601f1982169360015f52805f20915f5b8681106103e857508360019596106103d0575b505050811b0160015560ff90565b01515f1960f88460031b161c191690555f80806103c2565b919260206001819286850151815501940192016103af565b60015f52601f60205f20910160051c810190601f830160051c015b8181106104285750610361565b5f815560010161041b565b90607f169061034f56fe60806040526004361015610011575f80fd5b5f3560e01c80632d0335ab1461005457806347153f821461004f57806384b0196e1461004a5763bf5d3bdb14610045575f80fd5b6103d4565b6102d7565b610157565b3461008e57602036600319011261008e5760043561007181610092565b60018060a01b03165f52600260205260405f205460805260206080f35b5f80fd5b6001600160a01b0381160361008e57565b604060031982011261008e5760043567ffffffffffffffff811161008e5760c0818303600319011261008e576004019160243567ffffffffffffffff811161008e578260238201121561008e5780600401359267ffffffffffffffff841161008e576024848301011161008e576024019190565b805180835260209291819084018484015e5f828201840152601f01601f1916010190565b6040906101549392151581528160208201520190610117565b90565b61016f610174610166366100a3565b908294926105ba565b6103f7565b60808101356101828161045e565b6101a761018e84610480565b6001600160a01b03165f90815260026020526040902090565b555f806101b760a085018561048a565b6101e96101c687959395610480565b916101db6040519384926020840198896104bd565b03601f1981018352826104f4565b60208601936101f785610480565b9151916040880135906060890135f1917f677445d08543c9aae41ffc1cdb0ea36a1d704694e5ba208e1a6227cbd57978158361024361023d610237610537565b97610480565b94610480565b6040516001600160a01b0391821695909116939091829161026691899184610566565b0390a380156102825761027e6040519283928361013b565b0390f35b5080511561029257805190602001fd5b60405162461bcd60e51b815260206004820152601d60248201527f4d696e696d616c466f727761726465723a2063616c6c206661696c65640000006044820152606490fd5b3461008e575f36600319011261008e5761037b6103137f0000000000000000000000000000000000000000000000000000000000000000610714565b61033c7f00000000000000000000000000000000000000000000000000000000000000006107f7565b602060405161034b82826104f4565b5f81528161038981830194601f198301368737604051978897600f60f81b895260e0858a015260e0890190610117565b908782036040890152610117565b914660608701523060808701525f60a087015285830360c087015251918281520192915f5b8281106103bd57505050500390f35b8351855286955093810193928101926001016103ae565b3461008e5760206103ed6103e7366100a3565b916105ba565b6040519015158152f35b156103fe57565b60405162461bcd60e51b815260206004820152603260248201527f4d696e696d616c466f727761726465723a207369676e617475726520646f6573604482015271081b9bdd081b585d18da081c995c5d595cdd60721b6064820152608490fd5b906001820180921161046c57565b634e487b7160e01b5f52601160045260245ffd5b3561015481610092565b903590601e198136030182121561008e570180359067ffffffffffffffff821161008e5760200191813603831361008e57565b826014949392823701906bffffffffffffffffffffffff199060601b1681520190565b634e487b7160e01b5f52604160045260245ffd5b90601f8019910116810190811067ffffffffffffffff82111761051657604052565b6104e0565b67ffffffffffffffff811161051657601f01601f191660200190565b3d15610561573d906105488261051b565b9161055660405193846104f4565b82523d5f602084013e565b606090565b61015493926060928252151560208201528160408201520190610117565b9291926105908261051b565b9161059e60405193846104f4565b82948184528183011161008e578281602093845f960137010152565b916106949061068e610605936106866105d287610480565b6105de60208901610480565b61067e60408a0135916101db60608c01358c61060c60808201359d828f9360a0019061048a565b3691610584565b602081519101209160405196879560208701998a9260c094919796959260e08501987fdd8f4b70b0f4393e889bd39128a30628a78b61816a9eb8199759e7a349657e48865260018060a01b0316602086015260018060a01b031660408501526060840152608083015260a08201520152565b5190206106d8565b923691610584565b906106fe565b906106a161018e84610480565b541491826106ae57505090565b6106c99192506106bd90610480565b6001600160a01b031690565b6001600160a01b039091161490565b6042906106e36108af565b906040519161190160f01b8352600283015260228201522090565b6101549161070b916109cb565b90929192610a23565b60ff81146107255761015490610a9f565b506040515f5f548060011c916001821680156107ed575b6020841081146107d957838552849260208401919081156107c0575060011461076d575b50610154925003826104f4565b5f80805291507f290decd9548b62a8d60345a988386fc84ba6bc95484008f6362f93160ef3e5635b8483106107a957506101549350015f610760565b805482840152859350602090920191600101610795565b60ff191682525061015493151560051b0190505f610760565b634e487b7160e01b5f52602260045260245ffd5b92607f169261073c565b60ff81146108085761015490610a9f565b506040515f6001548060011c916001821680156108a5575b6020841081146107d957838552849260208401919081156107c057506001146108505750610154925003826104f4565b60015f90815291507fb10e2d527612073b26eecdfd717e6a320cf44b4afac2b0732d9fcbe2b7fa0cf65b84831061088e57506101549350015f610760565b80548284015285935060209092019160010161087a565b92607f1692610820565b307f00000000000000000000000000000000000000000000000000000000000000006001600160a01b031614806109a2575b1561090a577f000000000000000000000000000000000000000000000000000000000000000090565b60405160208101907f8b73c3c69bb8fe3d512ecc4cf759cc79239f7b179b0ffacaa9a75d522b39400f82527f000000000000000000000000000000000000000000000000000000000000000060408201527f000000000000000000000000000000000000000000000000000000000000000060608201524660808201523060a082015260a0815261099c60c0826104f4565b51902090565b507f000000000000000000000000000000000000000000000000000000000000000046146108e1565b81519190604183036109fb576109f49250602082015190606060408401519301515f1a90610add565b9192909190565b50505f9160029190565b60041115610a0f57565b634e487b7160e01b5f52602160045260245ffd5b610a2c81610a05565b80610a35575050565b610a3e81610a05565b60018103610a555763f645eedf60e01b5f5260045ffd5b610a5e81610a05565b60028103610a79575063fce698f760e01b5f5260045260245ffd5b80610a85600392610a05565b14610a8d5750565b6335e2f38360e21b5f5260045260245ffd5b60ff811690601f8211610ace5760405191610abb6040846104f4565b6020808452838101919036833783525290565b632cd44ac360e21b5f5260045ffd5b91907f7fffffffffffffffffffffffffffffff5d576e7357a4501ddfe92f46681b20a08411610b5f579160209360809260ff5f9560405194855216868401526040830152606082015282805260015afa15610b54575f516001600160a01b03811615610b4a57905f905f90565b505f906001905f90565b6040513d5f823e3d90fd5b5050505f916003919056fea2646970667358221220b64849e813f9b9f980dd950e7e47a68ba79f8f50c5692c28b96758bc886cf1b964736f6c634300081c0033",
  "linkReferences": {},
  "deployedLinkReferences": {}
}