{
  "_format": "hh-sol-artifact-1",
  "contractName": "ProduceTracking",
  "sourceName": "contracts/ProduceTracking.sol",
  "abi": [
    {
      "inputs": [],
      "stateMutability": "nonpayable",
      "type": "constructor"
    },
    {
      "inputs": [
        {
          "internalType": "address",
          "name": "owner",
          "type": "address"
        }
      ],
      "name": "OwnableInvalidOwner",
      "type": "error"
    },
    {
      "inputs": [
        {
          "internalType": "address",
          "name": "account",
          "type": "address"
        }
      ],
      "name": "OwnableUnauthorizedAccount",
      "type": "error"
    },
    {
      "anonymous": false,
      "inputs": [
        {
          "indexed": true,
          "internalType": "address",
          "name": "previousOwner",
          "type": "address"
        },
        {
          "indexed": true,
          "internalType": "address",
          "name": "newOwner",
          "type": "address"
        }
      ],
      "name": "OwnershipTransferred",
      "type": "event"
    },
    {
      "anonymous": false,
      "inputs": [
        {
          "indexed": true,
          "internalType": "uint256",
          "name": "lotId",
          "type": "uint256"
        },
        {
          "indexed": true,
          "internalType": "address",
          "name": "farmer",
          "type": "address"
        },
        {
          "indexed": false,
          "internalType": "string",
          "name": "produceType",
          "type": "string"
        }
      ],
      "name": "ProduceLotCreated",
      "type": "event"
    },
    {
      "anonymous": false,
      "inputs": [
        {
          "indexed": true,
          "internalType": "uint256",
          "name": "transactionId",
          "type": "uint256"
        },
        {
          "indexed": true,
          "internalType": "uint256",
          "name": "lotId",
          "type": "uint256"
        },
        {
          "indexed": false,
          "internalType": "address",
          "name": "from",
          "type": "address"
        },
        {
          "indexed": false,
          "internalType": "address",
          "name": "to",
          "type": "address"
        },
        {
          "indexed": false,
          "internalType": "uint256",
          "name": "quantity",
          "type": "uint256"
        }
      ],
      "name": "ProduceTransferred",
      "type": "event"
    },
    {
      "anonymous": false,
      "inputs": [
        {
          "indexed": true,
          "internalType": "uint256",
          "name": "lotId",
          "type": "uint256"
        },
        {
          "indexed": false,
          "internalType": "string",
          "name": "qualityMetrics",
          "type": "string"
        }
      ],
      "name": "QualityUpdated",
      "type": "event"
    },
    {
      "inputs": [
        {
          "internalType": "string",
          "name": "_produceType",
          "type": "string"
        },
        {
          "internalType": "uint256",
          "name": "_harvestDate",
          "type": "uint256"
        },
        {
          "internalType": "string",
          "name": "_qualityMetrics",
          "type": "string"
        },
        {
          "internalType": "string",
          "name": "_origin",
          "type": "string"
        },
        {
          "internalType": "uint256",
          "name": "_quantity",
          "type": "uint256"
        }
      ],
      "name": "createProduceLot",
      "outputs": [
        {
          "internalType": "uint256",
          "name": "",
          "type": "uint256"
        }
      ],
      "stateMutability": "nonpayable",
      "type": "function"
    },
    {
      "inputs": [
        {
          "internalType": "uint256",
          "name": "_lotId",
          "type": "uint256"
        }
      ],
      "name": "getLotTransactions",
      "outputs": [
        {
          "components": [
            {
              "internalType": "uint256",
              "name": "transactionId",
              "type": "uint256"
            },
            {
              "internalType": "uint256",
              "name": "lotId",
              "type": "uint256"
            },
            {
              "internalType": "address",
              "name": "from",
              "type": "address"
            },
            {
              "internalType": "address",
              "name": "to",
              "type": "address"
            },
            {
              "internalType": "uint256",
              "name": "quantity",
              "type": "uint256"
            },
            {
              "internalType": "uint256",
              "name": "price",
              "type": "uint256"
            },
            {
              "internalType": "uint256",
              "name": "timestamp",
              "type": "uint256"
            },
            {
              "internalType": "string",
              "name": "transactionHash",
              "type": "string"
            }
          ],
          "internalType": "struct ProduceTracking.Transaction[]",
          "name": "",
          "type": "tuple[]"
        }
      ],
      "stateMutability": "view",
      "type": "function"
    },
    {
      "inputs": [
        {
          "internalType": "uint256",
          "name": "_lotId",
          "type": "uint256"
        }
      ],
      "name": "getProduceLot",
      "outputs": [
        {
          "components": [
            {
              "internalType": "uint256",
              "name": "lotId",
              "type": "uint256"
            },
            {
              "internalType": "address",
              "name": "farmer",
              "type": "address"
            },
            {
              "internalType": "string",
              "name": "produceType",
              "type": "string"
            },
            {
              "internalType": "uint256",
              "name": "harvestDate",
              "type": "uint256"
            },
            {
              "internalType": "string",
              "name": "qualityMetrics",
              "type": "string"
            },
            {
              "internalType": "string",
              "name": "origin",
              "type": "string"
            },
            {
              "internalType": "uint256",
              "name": "initialQuantity",
              "type": "uint256"
            },
            {
              "internalType": "uint256",
              "name": "currentQuantity",
              "type": "uint256"
            },
            {
              "internalType": "address",
              "name": "currentOwner",
              "type": "address"
            },
            {
              "internalType": "bool",
              "name": "isAvailable",
              "type": "bool"
            }
          ],
          "internalType": "struct ProduceTracking.ProduceLot",
          "name": "",
          "type": "tuple"
        }
      ],
      "stateMutability": "view",
      "type": "function"
    },
    {
      "inputs": [
        {
          "internalType": "uint256",
          "name": "",
          "type": "uint256"
        },
        {
          "internalType": "uint256",
          "name": "",
          "type": "uint256"
        }
      ],
      "name": "lotTransactions",
      "outputs": [
        {
          "internalType": "uint256",
          "name": "transactionId",
          "type": "uint256"
        },
        {
          "internalType": "uint256",
          "name": "lotId",
          "type": "uint256"
        },
        {
          "internalType": "address",
          "name": "from",
          "type": "address"
        },
        {
          "internalType": "address",
          "name": "to",
          "type": "address"
        },
        {
          "internalType": "uint256",
          "name": "quantity",
          "type": "uint256"
        },
        {
          "internalType": "uint256",
          "name": "price",
          "type": "uint256"
        },
        {
          "internalType": "uint256",
          "name": "timestamp",
          "type": "uint256"
        },
        {
          "internalType": "string",
          "name": "transactionHash",
          "type": "string"
        }
      ],
      "stateMutability": "view",
      "type": "function"
    },
    {
      "inputs": [],
      "name": "owner",
      "outputs": [
        {
          "internalType": "address",
          "name": "",
          "type": "address"
        }
      ],
      "stateMutability": "view",
      "type": "function"
    },
    {
      "inputs": [
        {
          "internalType": "uint256",
          "name": "",
          "type": "uint256"
        }
      ],
      "name": "produceLots",
      "outputs": [
        {
          "internalType": "uint256",
          "name": "lotId",
          "type": "uint256"
        },
        {
          "internalType": "address",
          "name": "farmer",
          "type": "address"
        },
        {
          "internalType": "string",
          "name": "produceType",
          "type": "string"
        },
        {
          "internalType": "uint256",
          "name": "harvestDate",
          "type": "uint256"
        },
        {
          "internalType": "string",
          "name": "qualityMetrics",
          "type": "string"
        },
        {
          "internalType": "string",
          "name": "origin",
          "type": "string"
        },
        {
          "internalType": "uint256",
          "name": "initialQuantity",
          "type": "uint256"
        },
        {
          "internalType": "uint256",
          "name": "currentQuantity",
          "type": "uint256"
        },
        {
          "internalType": "address",
          "name": "currentOwner",
          "type": "address"
        },
        {
          "internalType": "bool",
          "name": "isAvailable",
          "type": "bool"
        }
      ],
      "stateMutability": "view",
      "type": "function"
    },
    {
      "inputs": [],
      "name": "renounceOwnership",
      "outputs": [],
      "stateMutability": "nonpayable",
      "type": "function"
    },
    {
      "inputs": [
        {
          "internalType": "bytes32",
          "name": "",
          "type": "bytes32"
        }
      ],
      "name": "transactionHashes",
      "outputs": [
        {
          "internalType": "bool",
          "name": "",
          "type": "bool"
        }
      ],
      "stateMutability": "view",
      "type": "function"
    },
    {
      "inputs": [
        {
          "internalType": "address",
          "name": "newOwner",
          "type": "address"
        }
      ],
      "name": "transferOwnership",
      "outputs": [],
      "stateMutability": "nonpayable",
      "type": "function"
    },
    {
      "inputs": [
        {
          "internalType": "uint256",
          "name": "_lotId",
          "type": "uint256"
        },
        {
          "internalType": "address",
          "name": "_to",
          "type": "address"
        },
        {
          "internalType": "uint256",
          "name": "_quantity",
          "type": "uint256"
        },
        {
          "internalType": "uint256",
          "name": "_price",
          "type": "uint256"
        },
        {
          "internalType": "string",
          "name": "_transactionHash",
          "type": "string"
        }
      ],
      "name": "transferProduce",
      "outputs": [],
      "stateMutability": "nonpayable",
      "type": "function"
    },
    {
      "inputs": [
        {
          "internalType": "uint256",
          "name": "_lotId",
          "type": "uint256"
        },
        {
          "internalType": "string",
          "name": "_qualityMetrics",
          "type": "string"
        }
      ],
      "name": "updateQualityMetrics",
      "outputs": [],
      "stateMutability": "nonpayable",
      "type": "function"
    }
  ],
  "bytecode": "0x60806040523480156200001157600080fd5b5033600073ffffffffffffffffffffffffffffffffffffffff168173ffffffffffffffffffffffffffffffffffffffff1603620000885760006040517f1e4fbdf70000000000000000000000000000000000000000000000000000000081526004016200007f9190620001a9565b60405180910390fd5b6200009981620000a060201b60201c565b50620001c6565b60008060009054906101000a900473ffffffffffffffffffffffffffffffffffffffff169050816000806101000a81548173ffffffffffffffffffffffffffffffffffffffff021916908373ffffffffffffffffffffffffffffffffffffffff1602179055508173ffffffffffffffffffffffffffffffffffffffff168173ffffffffffffffffffffffffffffffffffffffff167f8be0079c531659141344cd1fd0a4f28419497f9722a3daafe3b4186f6b6457e060405160405180910390a35050565b600073ffffffffffffffffffffffffffffffffffffffff82169050919050565b6000620001918262000164565b9050919050565b620001a38162000184565b82525050565b6000602082019050620001c0600083018462000198565b92915050565b61252980620001d66000396000f3fe608060405234801561001057600080fd5b50600436106100a95760003560e01c8063518f01f111610071578063518f01f114610193578063715018a6146101af5780638da5cb5b146101b9578063e153d513146101d7578063f2fde38b1461020e578063f3bbf9de1461022a576100a9565b806309fb61f5146100ae578063130ce842146100de5780631f037f3b146100fa5780633c001e9314610133578063482e9a4814610163575b600080fd5b6100c860048036038101906100c39190611557565b61025a565b6040516100d5919061159f565b60405180910390f35b6100f860048036038101906100f39190611794565b61027a565b005b610114600480360381019061010f919061182b565b61073b565b60405161012a9a999897969594939291906118f5565b60405180910390f35b61014d600480360381019061014891906119a6565b610974565b60405161015a9190611a75565b60405180910390f35b61017d6004803603810190610178919061182b565b610b8f565b60405161018a9190611bef565b60405180910390f35b6101ad60048036038101906101a89190611c11565b610e62565b005b6101b7610f66565b005b6101c1610f7a565b6040516101ce9190611c6d565b60405180910390f35b6101f160048036038101906101ec9190611c88565b610fa3565b604051610205989796959493929190611cc8565b60405180910390f35b61022860048036038101906102239190611d4d565b6110d0565b005b610244600480360381019061023f919061182b565b611156565b6040516102519190611eec565b60405180910390f35b60036020528060005260406000206000915054906101000a900460ff1681565b6001600086815260200190815260200160002060080160149054906101000a900460ff166102dd576040517f08c379a00000000000000000000000000000000000000000000000000000000081526004016102d490611f5a565b60405180910390fd5b3373ffffffffffffffffffffffffffffffffffffffff166001600087815260200190815260200160002060080160009054906101000a900473ffffffffffffffffffffffffffffffffffffffff1673ffffffffffffffffffffffffffffffffffffffff1614610381576040517f08c379a000000000000000000000000000000000000000000000000000000000815260040161037890611fc6565b60405180910390fd5b82600160008781526020019081526020016000206007015410156103da576040517f08c379a00000000000000000000000000000000000000000000000000000000081526004016103d190612032565b60405180910390fd5b6000816040516020016103ed919061208e565b6040516020818303038152906040528051906020012090506003600082815260200190815260200160002060009054906101000a900460ff1615610466576040517f08c379a000000000000000000000000000000000000000000000000000000000815260040161045d906120f1565b60405180910390fd5b600060056000815461047790612140565b9190508190559050846001600089815260200190815260200160002060070160008282546104a59190612188565b92505081905550856001600089815260200190815260200160002060080160006101000a81548173ffffffffffffffffffffffffffffffffffffffff021916908373ffffffffffffffffffffffffffffffffffffffff160217905550600060016000898152602001908152602001600020600701540361054f5760006001600089815260200190815260200160002060080160146101000a81548160ff0219169083151502179055505b600260008881526020019081526020016000206040518061010001604052808381526020018981526020013373ffffffffffffffffffffffffffffffffffffffff1681526020018873ffffffffffffffffffffffffffffffffffffffff168152602001878152602001868152602001428152602001858152509080600181540180825580915050600190039060005260206000209060080201600090919091909150600082015181600001556020820151816001015560408201518160020160006101000a81548173ffffffffffffffffffffffffffffffffffffffff021916908373ffffffffffffffffffffffffffffffffffffffff16021790555060608201518160030160006101000a81548173ffffffffffffffffffffffffffffffffffffffff021916908373ffffffffffffffffffffffffffffffffffffffff1602179055506080820151816004015560a0820151816005015560c0820151816006015560e08201518160070190816106c691906123c8565b50505060016003600084815260200190815260200160002060006101000a81548160ff02191690831515021790555086817fd32b5aee102532eca99706fcdf0cdfef857551563b8d7981be87432450d7754333898960405161072a9392919061249a565b60405180910390a350505050505050565b60016020528060005260406000206000915090508060000154908060010160009054906101000a900473ffffffffffffffffffffffffffffffffffffffff169080600201805461078a906121eb565b80601f01602080910402602001604051908101604052809291908181526020018280546107b6906121eb565b80156108035780601f106107d857610100808354040283529160200191610803565b820191906000526020600020905b8154815290600101906020018083116107e657829003601f168201915b50505050509080600301549080600401805461081e906121eb565b80601f016020809104026020016040519081016040528092919081815260200182805461084a906121eb565b80156108975780601f1061086c57610100808354040283529160200191610897565b820191906000526020600020905b81548152906001019060200180831161087a57829003601f168201915b5050505050908060050180546108ac906121eb565b80601f01602080910402602001604051908101604052809291908181526020018280546108d8906121eb565b80156109255780601f106108fa57610100808354040283529160200191610925565b820191906000526020600020905b81548152906001019060200180831161090857829003601f168201915b5050505050908060060154908060070154908060080160009054906101000a900473ffffffffffffffffffffffffffffffffffffffff16908060080160149054906101000a900460ff1690508a565b60008060046000815461098690612140565b91905081905590506040518061014001604052808281526020013373ffffffffffffffffffffffffffffffffffffffff1681526020018881526020018781526020018681526020018581526020018481526020018481526020013373ffffffffffffffffffffffffffffffffffffffff16815260200160011515815250600160008381526020019081526020016000206000820151816000015560208201518160010160006101000a81548173ffffffffffffffffffffffffffffffffffffffff021916908373ffffffffffffffffffffffffffffffffffffffff1602179055506040820151816002019081610a7c91906123c8565b50606082015181600301556080820151816004019081610a9c91906123c8565b5060a0820151816005019081610ab291906123c8565b5060c0820151816006015560e082015181600701556101008201518160080160006101000a81548173ffffffffffffffffffffffffffffffffffffffff021916908373ffffffffffffffffffffffffffffffffffffffff1602179055506101208201518160080160146101000a81548160ff0219169083151502179055509050503373ffffffffffffffffffffffffffffffffffffffff16817f85619cdc50fc0f491bb316204858968bc8c7634aeaeb6563818eb053047e061b89604051610b7a91906124d1565b60405180910390a38091505095945050505050565b610b9761148c565b6001600083815260200190815260200160002060405180610140016040529081600082015481526020016001820160009054906101000a900473ffffffffffffffffffffffffffffffffffffffff1673ffffffffffffffffffffffffffffffffffffffff1673ffffffffffffffffffffffffffffffffffffffff168152602001600282018054610c26906121eb565b80601f0160208091040260200160405190810160405280929190818152602001828054610c52906121eb565b8015610c9f5780601f10610c7457610100808354040283529160200191610c9f565b820191906000526020600020905b815481529060010190602001808311610c8257829003601f168201915b5050505050815260200160038201548152602001600482018054610cc2906121eb565b80601f0160208091040260200160405190810160405280929190818152602001828054610cee906121eb565b8015610d3b5780601f10610d1057610100808354040283529160200191610d3b565b820191906000526020600020905b815481529060010190602001808311610d1e57829003601f168201915b50505050508152602001600582018054610d54906121eb565b80601f0160208091040260200160405190810160405280929190818152602001828054610d80906121eb565b8015610dcd5780601f10610da257610100808354040283529160200191610dcd565b820191906000526020600020905b815481529060010190602001808311610db057829003601f168201915b5050505050815260200160068201548152602001600782015481526020016008820160009054906101000a900473ffffffffffffffffffffffffffffffffffffffff1673ffffffffffffffffffffffffffffffffffffffff1673ffffffffffffffffffffffffffffffffffffffff1681526020016008820160149054906101000a900460ff1615151515815250509050919050565b3373ffffffffffffffffffffffffffffffffffffffff166001600084815260200190815260200160002060080160009054906101000a900473ffffffffffffffffffffffffffffffffffffffff1673ffffffffffffffffffffffffffffffffffffffff1614610f06576040517f08c379a0000000000000000000000000000000000000000000000000000000008152600401610efd90611fc6565b60405180910390fd5b80600160008481526020019081526020016000206004019081610f2991906123c8565b50817ff72ed4a2b7121d28d35e9fff41ce2b51851c62b79d5cee9fe9f369c0f3a1031b82604051610f5a91906124d1565b60405180910390a25050565b610f6e611339565b610f7860006113c0565b565b60008060009054906101000a900473ffffffffffffffffffffffffffffffffffffffff16905090565b60026020528160005260406000208181548110610fbf57600080fd5b9060005260206000209060080201600091509150508060000154908060010154908060020160009054906101000a900473ffffffffffffffffffffffffffffffffffffffff16908060030160009054906101000a900473ffffffffffffffffffffffffffffffffffffffff169080600401549080600501549080600601549080600701805461104d906121eb565b80601f0160208091040260200160405190810160405280929190818152602001828054611079906121eb565b80156110c65780601f1061109b576101008083540402835291602001916110c6565b820191906000526020600020905b8154815290600101906020018083116110a957829003601f168201915b5050505050905088565b6110d8611339565b600073ffffffffffffffffffffffffffffffffffffffff168173ffffffffffffffffffffffffffffffffffffffff160361114a5760006040517f1e4fbdf70000000000000000000000000000000000000000000000000000000081526004016111419190611c6d565b60405180910390fd5b611153816113c0565b50565b606060026000838152602001908152602001600020805480602002602001604051908101604052809291908181526020016000905b8282101561132e57838290600052602060002090600802016040518061010001604052908160008201548152602001600182015481526020016002820160009054906101000a900473ffffffffffffffffffffffffffffffffffffffff1673ffffffffffffffffffffffffffffffffffffffff1673ffffffffffffffffffffffffffffffffffffffff1681526020016003820160009054906101000a900473ffffffffffffffffffffffffffffffffffffffff1673ffffffffffffffffffffffffffffffffffffffff1673ffffffffffffffffffffffffffffffffffffffff16815260200160048201548152602001600582015481526020016006820154815260200160078201805461129d906121eb565b80601f01602080910402602001604051908101604052809291908181526020018280546112c9906121eb565b80156113165780601f106112eb57610100808354040283529160200191611316565b820191906000526020600020905b8154815290600101906020018083116112f957829003601f168201915b5050505050815250508152602001906001019061118b565b505050509050919050565b611341611484565b73ffffffffffffffffffffffffffffffffffffffff1661135f610f7a565b73ffffffffffffffffffffffffffffffffffffffff16146113be57611382611484565b6040517f118cdaa70000000000000000000000000000000000000000000000000000000081526004016113b59190611c6d565b60405180910390fd5b565b60008060009054906101000a900473ffffffffffffffffffffffffffffffffffffffff169050816000806101000a81548173ffffffffffffffffffffffffffffffffffffffff021916908373ffffffffffffffffffffffffffffffffffffffff1602179055508173ffffffffffffffffffffffffffffffffffffffff168173ffffffffffffffffffffffffffffffffffffffff167f8be0079c531659141344cd1fd0a4f28419497f9722a3daafe3b4186f6b6457e060405160405180910390a35050565b600033905090565b60405180610140016040528060008152602001600073ffffffffffffffffffffffffffffffffffffffff168152602001606081526020016000815260200160608152602001606081526020016000815260200160008152602001600073ffffffffffffffffffffffffffffffffffffffff1681526020016000151581525090565b6000604051905090565b600080fd5b600080fd5b6000819050919050565b61153481611521565b811461153f57600080fd5b50565b6000813590506115518161152b565b92915050565b60006020828403121561156d5761156c611517565b5b600061157b84828501611542565b91505092915050565b60008115159050919050565b61159981611584565b82525050565b60006020820190506115b46000830184611590565b92915050565b6000819050919050565b6115cd816115ba565b81146115d857600080fd5b50565b6000813590506115ea816115c4565b92915050565b600073ffffffffffffffffffffffffffffffffffffffff82169050919050565b600061161b826115f0565b9050919050565b61162b81611610565b811461163657600080fd5b50565b60008135905061164881611622565b92915050565b600080fd5b600080fd5b6000601f19601f8301169050919050565b7f4e487b7100000000000000000000000000000000000000000000000000000000600052604160045260246000fd5b6116a182611658565b810181811067ffffffffffffffff821117156116c0576116bf611669565b5b80604052505050565b60006116d361150d565b90506116df8282611698565b919050565b600067ffffffffffffffff8211156116ff576116fe611669565b5b61170882611658565b9050602081019050919050565b82818337600083830152505050565b6000611737611732846116e4565b6116c9565b90508281526020810184848401111561175357611752611653565b5b61175e848285611715565b509392505050565b600082601f83011261177b5761177a61164e565b5b813561178b848260208601611724565b91505092915050565b600080600080600060a086880312156117b0576117af611517565b5b60006117be888289016115db565b95505060206117cf88828901611639565b94505060406117e0888289016115db565b93505060606117f1888289016115db565b925050608086013567ffffffffffffffff8111156118125761181161151c565b5b61181e88828901611766565b9150509295509295909350565b60006020828403121561184157611840611517565b5b600061184f848285016115db565b91505092915050565b611861816115ba565b82525050565b61187081611610565b82525050565b600081519050919050565b600082825260208201905092915050565b60005b838110156118b0578082015181840152602081019050611895565b60008484015250505050565b60006118c782611876565b6118d18185611881565b93506118e1818560208601611892565b6118ea81611658565b840191505092915050565b60006101408201905061190b600083018d611858565b611918602083018c611867565b818103604083015261192a818b6118bc565b9050611939606083018a611858565b818103608083015261194b81896118bc565b905081810360a083015261195f81886118bc565b905061196e60c0830187611858565b61197b60e0830186611858565b611989610100830185611867565b611997610120830184611590565b9b9a5050505050505050505050565b600080600080600060a086880312156119c2576119c1611517565b5b600086013567ffffffffffffffff8111156119e0576119df61151c565b5b6119ec88828901611766565b95505060206119fd888289016115db565b945050604086013567ffffffffffffffff811115611a1e57611a1d61151c565b5b611a2a88828901611766565b935050606086013567ffffffffffffffff811115611a4b57611a4a61151c565b5b611a5788828901611766565b9250506080611a68888289016115db565b9150509295509295909350565b6000602082019050611a8a6000830184611858565b92915050565b611a99816115ba565b82525050565b611aa881611610565b82525050565b600082825260208201905092915050565b6000611aca82611876565b611ad48185611aae565b9350611ae4818560208601611892565b611aed81611658565b840191505092915050565b611b0181611584565b82525050565b600061014083016000830151611b206000860182611a90565b506020830151611b336020860182611a9f565b5060408301518482036040860152611b4b8282611abf565b9150506060830151611b606060860182611a90565b5060808301518482036080860152611b788282611abf565b91505060a083015184820360a0860152611b928282611abf565b91505060c0830151611ba760c0860182611a90565b5060e0830151611bba60e0860182611a90565b50610100830151611bcf610100860182611a9f565b50610120830151611be4610120860182611af8565b508091505092915050565b60006020820190508181036000830152611c098184611b07565b905092915050565b60008060408385031215611c2857611c27611517565b5b6000611c36858286016115db565b925050602083013567ffffffffffffffff811115611c5757611c5661151c565b5b611c6385828601611766565b9150509250929050565b6000602082019050611c826000830184611867565b92915050565b60008060408385031215611c9f57611c9e611517565b5b6000611cad858286016115db565b9250506020611cbe858286016115db565b9150509250929050565b600061010082019050611cde600083018b611858565b611ceb602083018a611858565b611cf86040830189611867565b611d056060830188611867565b611d126080830187611858565b611d1f60a0830186611858565b611d2c60c0830185611858565b81810360e0830152611d3e81846118bc565b90509998505050505050505050565b600060208284031215611d6357611d62611517565b5b6000611d7184828501611639565b91505092915050565b600081519050919050565b600082825260208201905092915050565b6000819050602082019050919050565b600061010083016000830151611dbf6000860182611a90565b506020830151611dd26020860182611a90565b506040830151611de56040860182611a9f565b506060830151611df86060860182611a9f565b506080830151611e0b6080860182611a90565b5060a0830151611e1e60a0860182611a90565b5060c0830151611e3160c0860182611a90565b5060e083015184820360e0860152611e498282611abf565b9150508091505092915050565b6000611e628383611da6565b905092915050565b6000602082019050919050565b6000611e8282611d7a565b611e8c8185611d85565b935083602082028501611e9e85611d96565b8060005b85811015611eda5784840389528151611ebb8582611e56565b9450611ec683611e6a565b925060208a01995050600181019050611ea2565b50829750879550505050505092915050565b60006020820190508181036000830152611f068184611e77565b905092915050565b7f50726f64756365206c6f74206e6f7420617661696c61626c6500000000000000600082015250565b6000611f44601983611881565b9150611f4f82611f0e565b602082019050919050565b60006020820190508181036000830152611f7381611f37565b9050919050565b7f4e6f7420746865206f776e657200000000000000000000000000000000000000600082015250565b6000611fb0600d83611881565b9150611fbb82611f7a565b602082019050919050565b60006020820190508181036000830152611fdf81611fa3565b9050919050565b7f496e73756666696369656e74207175616e746974790000000000000000000000600082015250565b600061201c601583611881565b915061202782611fe6565b602082019050919050565b6000602082019050818103600083015261204b8161200f565b9050919050565b600081905092915050565b600061206882611876565b6120728185612052565b9350612082818560208601611892565b80840191505092915050565b600061209a828461205d565b915081905092915050565b7f5472616e73616374696f6e20616c7265616479207265636f7264656400000000600082015250565b60006120db601c83611881565b91506120e6826120a5565b602082019050919050565b6000602082019050818103600083015261210a816120ce565b9050919050565b7f4e487b7100000000000000000000000000000000000000000000000000000000600052601160045260246000fd5b600061214b826115ba565b91507fffffffffffffffffffffffffffffffffffffffffffffffffffffffffffffffff820361217d5761217c612111565b5b600182019050919050565b6000612193826115ba565b915061219e836115ba565b92508282039050818111156121b6576121b5612111565b5b92915050565b7f4e487b7100000000000000000000000000000000000000000000000000000000600052602260045260246000fd5b6000600282049050600182168061220357607f821691505b602082108103612216576122156121bc565b5b50919050565b60008190508160005260206000209050919050565b60006020601f8301049050919050565b600082821b905092915050565b60006008830261227e7fffffffffffffffffffffffffffffffffffffffffffffffffffffffffffffffff82612241565b6122888683612241565b95508019841693508086168417925050509392505050565b6000819050919050565b60006122c56122c06122bb846115ba565b6122a0565b6115ba565b9050919050565b6000819050919050565b6122df836122aa565b6122f36122eb826122cc565b84845461224e565b825550505050565b600090565b6123086122fb565b6123138184846122d6565b505050565b5b818110156123375761232c600082612300565b600181019050612319565b5050565b601f82111561237c5761234d8161221c565b61235684612231565b81016020851015612365578190505b61237961237185612231565b830182612318565b50505b505050565b600082821c905092915050565b600061239f60001984600802612381565b1980831691505092915050565b60006123b8838361238e565b9150826002028217905092915050565b6123d182611876565b67ffffffffffffffff8111156123ea576123e9611669565b5b6123f482546121eb565b6123ff82828561233b565b600060209050601f8311600181146124325760008415612420578287015190505b61242a85826123ac565b865550612492565b601f1984166124408661221c565b60005b8281101561246857848901518255600182019150602085019450602081019050612443565b868310156124855784890151612481601f89168261238e565b8355505b6001600288020188555050505b505050505050565b60006060820190506124af6000830186611867565b6124bc6020830185611867565b6124c96040830184611858565b949350505050565b600060208201905081810360008301526124eb81846118bc565b90509291505056fea26469706673582212207dfbe3fec19c1326418cd996951d5048badf85952477225682aa74790e949c7864736f6c63430008140033",
  "linkReferences": {},
  "deployedLinkReferences": {}
}