{
  "_format": "hh-sol-artifact-1",
  "contractName": "ProduceTracking",
  "sourceName": "contracts/ProduceTracking.sol",
  "abi": [
    {
      "inputs": [],
      "stateMutability": "nonpayable",
      "type": "constructor"
    },
    {
      "inputs": [
        {
          "internalType": "address",
          "name": "owner",
          "type": "address"
        }
      ],
      "name": "OwnableInvalidOwner",
      "type": "error"
    },
    {
      "inputs": [
        {
          "internalType": "address",
          "name": "account",
          "type": "address"
        }
      ],
      "name": "OwnableUnauthorizedAccount",
      "type": "error"
    },
    {
      "anonymous": false,
      "inputs": [
        {
          "indexed": true,
          "internalType": "address",
          "name": "previousOwner",
          "type": "address"
        },
        {
          "indexed": true,
          "internalType": "address",
          "name": "newOwner",
          "type": "address"
        }
      ],
      "name": "OwnershipTransferred",
      "type": "event"
    },
    {
      "anonymous": false,
      "inputs": [
        {
          "indexed": true,
          "internalType": "uint256",
          "name": "lotId",
          "type": "uint256"
        },
        {
          "indexed": true,
          "internalType": "address",
          "name": "farmer",
          "type": "address"
        },
        {
          "indexed": false,
          "internalType": "string",
          "name": "produceType",
          "type": "string"
        }
      ],
      "name": "ProduceLotCreated",
      "type": "event"
    },
    {
      "anonymous": false,
      "inputs": [
        {
          "indexed": true,
          "internalType": "uint256",
          "name": "transactionId",
          "type": "uint256"
        },
        {
          "indexed": true,
          "internalType": "uint256",
          "name": "lotId",
          "type": "uint256"
        },
        {
          "indexed": false,
          "internalType": "address",
          "name": "from",
          "type": "address"
        },
        {
          "indexed": false,
          "internalType": "address",
          "name": "to",
          "type": "address"
        },
        {
          "indexed": false,
          "internalType": "uint256",
          "name": "quantity",
          "type": "uint256"
        }
      ],
      "name": "ProduceTransferred",
      "type": "event"
    },
    {
      "anonymous": false,
      "inputs": [
        {
          "indexed": true,
          "internalType": "uint256",
          "name": "lotId",
          "type": "uint256"
        },
        {
          "indexed": false,
          "internalType": "string",
          "name": "qualityMetrics",
          "type": "string"
        }
      ],
      "name": "QualityUpdated",
      "type": "event"
    },
    {
      "inputs": [
        {
          "internalType": "string",
          "name": "_produceType",
          "type": "string"
        },
        {
          "internalType": "uint256",
          "name": "_harvestDate",
          "type": "uint256"
        },
        {
          "internalType": "string",
          "name": "_qualityMetrics",
          "type": "string"
        },
        {
          "internalType": "string",
          "name": "_origin",
          "type": "string"
        },
        {
          "internalType": "uint256",
          "name": "_quantity",
          "type": "uint256"
        }
      ],
      "name": "createProduceLot",
      "outputs": [
        {
          "internalType": "uint256",
          "name": "",
          "type": "uint256"
        }
      ],
      "stateMutability": "nonpayable",
      "type": "function"
    },
    {
      "inputs": [
        {
          "internalType": "uint256",
          "name": "_lotId",
          "type": "uint256"
        }
      ],
      "name": "getLotTransactions",
      "outputs": [
        {
          "components": [
            {
              "internalType": "uint256",
              "name": "transactionId",
              "type": "uint256"
            },
            {
              "internalType": "uint256",
              "name": "lotId",
              "type": "uint256"
            },
            {
              "internalType": "address",
              "name": "from",
              "type": "address"
            },
            {
              "internalType": "address",
              "name": "to",
              "type": "address"
            },
            {
              "internalType": "uint256",
              "name": "quantity",
              "type": "uint256"
            },
            {
              "internalType": "uint256",
              "name": "price",
              "type": "uint256"
            },
            {
              "internalType": "uint256",
              "name": "timestamp",
              "type": "uint256"
            },
            {
              "internalType": "string",
              "name": "transactionHash",
              "type": "string"
            }
          ],
          "internalType": "struct ProduceTracking.Transaction[]",
          "name": "",
          "type": "tuple[]"
        }
      ],
      "stateMutability": "view",
      "type": "function"
    },
    {
      "inputs": [
        {
          "internalType": "uint256",
          "name": "_lotId",
          "type": "uint256"
        }
      ],
      "name": "getProduceLot",
      "outputs": [
        {
          "components": [
            {
              "internalType": "uint256",
              "name": "lotId",
              "type": "uint256"
            },
            {
              "internalType": "address",
              "name": "farmer",
              "type": "address"
            },
            {
              "internalType": "string",
              "name": "produceType",
              "type": "string"
            },
            {
              "internalType": "uint256",
              "name": "harvestDate",
              "type": "uint256"
            },
            {
              "internalType": "string",
              "name": "qualityMetrics",
              "type": "string"
            },
            {
              "internalType": "string",
              "name": "origin",
              "type": "string"
            },
            {
              "internalType": "uint256",
              "name": "initialQuantity",
              "type": "uint256"
            },
            {
              "internalType": "uint256",
              "name": "currentQuantity",
              "type": "uint256"
            },
            {
              "internalType": "address",
              "name": "currentOwner",
              "type": "address"
            },
            {
              "internalType": "bool",
              "name": "isAvailable",
              "type": "bool"
            }
          ],
          "internalType": "struct ProduceTracking.ProduceLot",
          "name": "",
          "type": "tuple"
        }
      ],
      "stateMutability": "view",
      "type": "function"
    },
    {
      "inputs": [
        {
          "internalType": "uint256",
          "name": "",
          "type": "uint256"
        },
        {
          "internalType": "uint256",
          "name": "",
          "type": "uint256"
        }
      ],
      "name": "lotTransactions",
      "outputs": [
        {
          "internalType": "uint256",
          "name": "transactionId",
          "type": "uint256"
        },
        {
          "internalType": "uint256",
          "name": "lotId",
          "type": "uint256"
        },
        {
          "internalType": "address",
          "name": "from",
          "type": "address"
        },
        {
          "internalType": "address",
          "name": "to",
          "type": "address"
        },
        {
          "internalType": "uint256",
          "name": "quantity",
          "type": "uint256"
        },
        {
          "internalType": "uint256",
          "name": "price",
          "type": "uint256"
        },
        {
          "internalType": "uint256",
          "name": "timestamp",
          "type": "uint256"
        },
        {
          "internalType": "string",
          "name": "transactionHash",
          "type": "string"
        }
      ],
      "stateMutability": "view",
      "type": "function"
    },
    {
      "inputs": [],
      "name": "owner",
      "outputs": [
        {
          "internalType": "address",
          "name": "",
          "type": "address"
        }
      ],
      "stateMutability": "view",
      "type": "function"
    },
    {
      "inputs": [
        {
          "internalType": "uint256",
          "name": "",
          "type": "uint256"
        }
      ],
      "name": "produceLots",
      "outputs": [
        {
          "internalType": "uint256",
          "name": "lotId",
          "type": "uint256"
        },
        {
          "internalType": "address",
          "name": "farmer",
          "type": "address"
        },
        {
          "internalType": "string",
          "name": "produceType",
          "type": "string"
        },
        {
          "internalType": "uint256",
          "name": "harvestDate",
          "type": "uint256"
        },
        {
          "internalType": "string",
          "name": "qualityMetrics",
          "type": "string"
        },
        {
          "internalType": "string",
          "name": "origin",
          "type": "string"
        },
        {
          "internalType": "uint256",
          "name": "initialQuantity",
          "type": "uint256"
        },
        {
          "internalType": "uint256",
          "name": "currentQuantity",
          "type": "uint256"
        },
        {
          "internalType": "address",
          "name": "currentOwner",
          "type": "address"
        },
        {
          "internalType": "bool",
          "name": "isAvailable",
          "type": "bool"
        }
      ],
      "stateMutability": "view",
      "type": "function"
    },
    {
      "inputs": [],
      "name": "renounceOwnership",
      "outputs": [],
      "stateMutability": "nonpayable",
      "type": "function"
    },
    {
      "inputs": [
        {
          "internalType": "bytes32",
          "name": "",
          "type": "bytes32"
        }
      ],
      "name": "transactionHashes",
      "outputs": [
        {
          "internalType": "bool",
          "name": "",
          "type": "bool"
        }
      ],
      "stateMutability": "view",
      "type": "function"
    },
    {
      "inputs": [
        {
          "internalType": "address",
          "name": "newOwner",
          "type": "address"
        }
      ],
      "name": "transferOwnership",
      "outputs": [],
      "stateMutability": "nonpayable",
      "type": "function"
    },
    {
      "inputs": [
        {
          "internalType": "uint256",
          "name": "_lotId",
          "type": "uint256"
        },
        {
          "internalType": "address",
          "name": "_to",
          "type": "address"
        },
        {
          "internalType": "uint256",
          "name": "_quantity",
          "type": "uint256"
        },
        {
          "internalType": "uint256",
          "name": "_price",
          "type": "uint256"
        },
        {
          "internalType": "string",
          "name": "_transactionHash",
          "type": "string"
        }
      ],
      "name": "transferProduce",
      "outputs": [],
      "stateMutability": "nonpayable",
      "type": "function"
    },
    {
      "inputs": [
        {
          "internalType": "uint256",
          "name": "_lotId",
          "type": "uint256"
        },
        {
          "internalType": "string",
          "name": "_qualityMetrics",
          "type": "string"
        }
      ],
      "name": "updateQualityMetrics",
      "outputs": [],
      "stateMutability": "nonpayable",
      "type": "function"
    }
  ],
  "bytecode": "0x60806040523480156200001157600080fd5b5033600073ffffffffffffffffffffffffffffffffffffffff168173ffffffffffffffffffffffffffffffffffffffff1603620000885760006040517f1e4fbdf70000000000000000000000000000000000000000000000000000000081526004016200007f9190620001a9565b60405180910390fd5b6200009981620000a060201b60201c565b50620001c6565b60008060009054906101000a900473ffffffffffffffffffffffffffffffffffffffff169050816000806101000a81548173ffffffffffffffffffffffffffffffffffffffff021916908373ffffffffffffffffffffffffffffffffffffffff1602179055508173ffffffffffffffffffffffffffffffffffffffff168173ffffffffffffffffffffffffffffffffffffffff167f8be0079c531659141344cd1fd0a4f28419497f9722a3daafe3b4186f6b6457e060405160405180910390a35050565b600073ffffffffffffffffffffffffffffffffffffffff82169050919050565b6000620001918262000164565b9050919050565b620001a38162000184565b82525050565b6000602082019050620001c0600083018462000198565b92915050565b6124d480620001d66000396000f3fe608060405234801561001057600080fd5b50600436106100a95760003560e01c8063518f01f111610071578063518f01f114610193578063715018a6146101af5780638da5cb5b146101b9578063e153d513146101d7578063f2fde38b1461020e578063f3bbf9de1461022a576100a9565b806309fb61f5146100ae578063130ce842146100de5780631f037f3b146100fa5780633c001e9314610133578063482e9a4814610163575b600080fd5b6100c860048036038101906100c39190611502565b61025a565b6040516100d5919061154a565b60405180910390f35b6100f860048036038101906100f3919061173f565b61027a565b005b610114600480360381019061010f91906117d6565b6106e6565b60405161012a9a999897969594939291906118a0565b60405180910390f35b61014d60048036038101906101489190611951565b61091f565b60405161015a9190611a20565b60405180910390f35b61017d600480360381019061017891906117d6565b610b3a565b60405161018a9190611b9a565b60405180910390f35b6101ad60048036038101906101a89190611bbc565b610e0d565b005b6101b7610f11565b005b6101c1610f25565b6040516101ce9190611c18565b60405180910390f35b6101f160048036038101906101ec9190611c33565b610f4e565b604051610205989796959493929190611c73565b60405180910390f35b61022860048036038101906102239190611cf8565b61107b565b005b610244600480360381019061023f91906117d6565b611101565b6040516102519190611e97565b60405180910390f35b60036020528060005260406000206000915054906101000a900460ff1681565b6001600086815260200190815260200160002060080160149054906101000a900460ff166102dd576040517f08c379a00000000000000000000000000000000000000000000000000000000081526004016102d490611f05565b60405180910390fd5b3373ffffffffffffffffffffffffffffffffffffffff166001600087815260200190815260200160002060080160009054906101000a900473ffffffffffffffffffffffffffffffffffffffff1673ffffffffffffffffffffffffffffffffffffffff1614610381576040517f08c379a000000000000000000000000000000000000000000000000000000000815260040161037890611f71565b60405180910390fd5b82600160008781526020019081526020016000206007015410156103da576040517f08c379a00000000000000000000000000000000000000000000000000000000081526004016103d190611fdd565b60405180910390fd5b6000816040516020016103ed9190612039565b6040516020818303038152906040528051906020012090506003600082815260200190815260200160002060009054906101000a900460ff1615610466576040517f08c379a000000000000000000000000000000000000000000000000000000000815260040161045d9061209c565b60405180910390fd5b6000600560008154610477906120eb565b9190508190559050846001600089815260200190815260200160002060070160008282546104a59190612133565b9250508190555060006001600089815260200190815260200160002060070154036104fa5760006001600089815260200190815260200160002060080160146101000a81548160ff0219169083151502179055505b600260008881526020019081526020016000206040518061010001604052808381526020018981526020013373ffffffffffffffffffffffffffffffffffffffff1681526020018873ffffffffffffffffffffffffffffffffffffffff168152602001878152602001868152602001428152602001858152509080600181540180825580915050600190039060005260206000209060080201600090919091909150600082015181600001556020820151816001015560408201518160020160006101000a81548173ffffffffffffffffffffffffffffffffffffffff021916908373ffffffffffffffffffffffffffffffffffffffff16021790555060608201518160030160006101000a81548173ffffffffffffffffffffffffffffffffffffffff021916908373ffffffffffffffffffffffffffffffffffffffff1602179055506080820151816004015560a0820151816005015560c0820151816006015560e08201518160070190816106719190612373565b50505060016003600084815260200190815260200160002060006101000a81548160ff02191690831515021790555086817fd32b5aee102532eca99706fcdf0cdfef857551563b8d7981be87432450d775433389896040516106d593929190612445565b60405180910390a350505050505050565b60016020528060005260406000206000915090508060000154908060010160009054906101000a900473ffffffffffffffffffffffffffffffffffffffff169080600201805461073590612196565b80601f016020809104026020016040519081016040528092919081815260200182805461076190612196565b80156107ae5780601f10610783576101008083540402835291602001916107ae565b820191906000526020600020905b81548152906001019060200180831161079157829003601f168201915b5050505050908060030154908060040180546107c990612196565b80601f01602080910402602001604051908101604052809291908181526020018280546107f590612196565b80156108425780601f1061081757610100808354040283529160200191610842565b820191906000526020600020905b81548152906001019060200180831161082557829003601f168201915b50505050509080600501805461085790612196565b80601f016020809104026020016040519081016040528092919081815260200182805461088390612196565b80156108d05780601f106108a5576101008083540402835291602001916108d0565b820191906000526020600020905b8154815290600101906020018083116108b357829003601f168201915b5050505050908060060154908060070154908060080160009054906101000a900473ffffffffffffffffffffffffffffffffffffffff16908060080160149054906101000a900460ff1690508a565b600080600460008154610931906120eb565b91905081905590506040518061014001604052808281526020013373ffffffffffffffffffffffffffffffffffffffff1681526020018881526020018781526020018681526020018581526020018481526020018481526020013373ffffffffffffffffffffffffffffffffffffffff16815260200160011515815250600160008381526020019081526020016000206000820151816000015560208201518160010160006101000a81548173ffffffffffffffffffffffffffffffffffffffff021916908373ffffffffffffffffffffffffffffffffffffffff1602179055506040820151816002019081610a279190612373565b50606082015181600301556080820151816004019081610a479190612373565b5060a0820151816005019081610a5d9190612373565b5060c0820151816006015560e082015181600701556101008201518160080160006101000a81548173ffffffffffffffffffffffffffffffffffffffff021916908373ffffffffffffffffffffffffffffffffffffffff1602179055506101208201518160080160146101000a81548160ff0219169083151502179055509050503373ffffffffffffffffffffffffffffffffffffffff16817f85619cdc50fc0f491bb316204858968bc8c7634aeaeb6563818eb053047e061b89604051610b25919061247c565b60405180910390a38091505095945050505050565b610b42611437565b6001600083815260200190815260200160002060405180610140016040529081600082015481526020016001820160009054906101000a900473ffffffffffffffffffffffffffffffffffffffff1673ffffffffffffffffffffffffffffffffffffffff1673ffffffffffffffffffffffffffffffffffffffff168152602001600282018054610bd190612196565b80601f0160208091040260200160405190810160405280929190818152602001828054610bfd90612196565b8015610c4a5780601f10610c1f57610100808354040283529160200191610c4a565b820191906000526020600020905b815481529060010190602001808311610c2d57829003601f168201915b5050505050815260200160038201548152602001600482018054610c6d90612196565b80601f0160208091040260200160405190810160405280929190818152602001828054610c9990612196565b8015610ce65780601f10610cbb57610100808354040283529160200191610ce6565b820191906000526020600020905b815481529060010190602001808311610cc957829003601f168201915b50505050508152602001600582018054610cff90612196565b80601f0160208091040260200160405190810160405280929190818152602001828054610d2b90612196565b8015610d785780601f10610d4d57610100808354040283529160200191610d78565b820191906000526020600020905b815481529060010190602001808311610d5b57829003601f168201915b5050505050815260200160068201548152602001600782015481526020016008820160009054906101000a900473ffffffffffffffffffffffffffffffffffffffff1673ffffffffffffffffffffffffffffffffffffffff1673ffffffffffffffffffffffffffffffffffffffff1681526020016008820160149054906101000a900460ff1615151515815250509050919050565b3373ffffffffffffffffffffffffffffffffffffffff166001600084815260200190815260200160002060080160009054906101000a900473ffffffffffffffffffffffffffffffffffffffff1673ffffffffffffffffffffffffffffffffffffffff1614610eb1576040517f08c379a0000000000000000000000000000000000000000000000000000000008152600401610ea890611f71565b60405180910390fd5b80600160008481526020019081526020016000206004019081610ed49190612373565b50817ff72ed4a2b7121d28d35e9fff41ce2b51851c62b79d5cee9fe9f369c0f3a1031b82604051610f05919061247c565b60405180910390a25050565b610f196112e4565b610f23600061136b565b565b60008060009054906101000a900473ffffffffffffffffffffffffffffffffffffffff16905090565b60026020528160005260406000208181548110610f6a57600080fd5b9060005260206000209060080201600091509150508060000154908060010154908060020160009054906101000a900473ffffffffffffffffffffffffffffffffffffffff16908060030160009054906101000a900473ffffffffffffffffffffffffffffffffffffffff1690806004015490806005015490806006015490806007018054610ff890612196565b80601f016020809104026020016040519081016040528092919081815260200182805461102490612196565b80156110715780601f1061104657610100808354040283529160200191611071565b820191906000526020600020905b81548152906001019060200180831161105457829003601f168201915b5050505050905088565b6110836112e4565b600073ffffffffffffffffffffffffffffffffffffffff168173ffffffffffffffffffffffffffffffffffffffff16036110f55760006040517f1e4fbdf70000000000000000000000000000000000000000000000000000000081526004016110ec9190611c18565b60405180910390fd5b6110fe8161136b565b50565b606060026000838152602001908152602001600020805480602002602001604051908101604052809291908181526020016000905b828210156112d957838290600052602060002090600802016040518061010001604052908160008201548152602001600182015481526020016002820160009054906101000a900473ffffffffffffffffffffffffffffffffffffffff1673ffffffffffffffffffffffffffffffffffffffff1673ffffffffffffffffffffffffffffffffffffffff1681526020016003820160009054906101000a900473ffffffffffffffffffffffffffffffffffffffff1673ffffffffffffffffffffffffffffffffffffffff1673ffffffffffffffffffffffffffffffffffffffff16815260200160048201548152602001600582015481526020016006820154815260200160078201805461124890612196565b80601f016020809104026020016040519081016040528092919081815260200182805461127490612196565b80156112c15780601f10611296576101008083540402835291602001916112c1565b820191906000526020600020905b8154815290600101906020018083116112a457829003601f168201915b50505050508152505081526020019060010190611136565b505050509050919050565b6112ec61142f565b73ffffffffffffffffffffffffffffffffffffffff1661130a610f25565b73ffffffffffffffffffffffffffffffffffffffff16146113695761132d61142f565b6040517f118cdaa70000000000000000000000000000000000000000000000000000000081526004016113609190611c18565b60405180910390fd5b565b60008060009054906101000a900473ffffffffffffffffffffffffffffffffffffffff169050816000806101000a81548173ffffffffffffffffffffffffffffffffffffffff021916908373ffffffffffffffffffffffffffffffffffffffff1602179055508173ffffffffffffffffffffffffffffffffffffffff168173ffffffffffffffffffffffffffffffffffffffff167f8be0079c531659141344cd1fd0a4f28419497f9722a3daafe3b4186f6b6457e060405160405180910390a35050565b600033905090565b60405180610140016040528060008152602001600073ffffffffffffffffffffffffffffffffffffffff168152602001606081526020016000815260200160608152602001606081526020016000815260200160008152602001600073ffffffffffffffffffffffffffffffffffffffff1681526020016000151581525090565b6000604051905090565b600080fd5b600080fd5b6000819050919050565b6114df816114cc565b81146114ea57600080fd5b50565b6000813590506114fc816114d6565b92915050565b600060208284031215611518576115176114c2565b5b6000611526848285016114ed565b91505092915050565b60008115159050919050565b6115448161152f565b82525050565b600060208201905061155f600083018461153b565b92915050565b6000819050919050565b61157881611565565b811461158357600080fd5b50565b6000813590506115958161156f565b92915050565b600073ffffffffffffffffffffffffffffffffffffffff82169050919050565b60006115c68261159b565b9050919050565b6115d6816115bb565b81146115e157600080fd5b50565b6000813590506115f3816115cd565b92915050565b600080fd5b600080fd5b6000601f19601f8301169050919050565b7f4e487b7100000000000000000000000000000000000000000000000000000000600052604160045260246000fd5b61164c82611603565b810181811067ffffffffffffffff8211171561166b5761166a611614565b5b80604052505050565b600061167e6114b8565b905061168a8282611643565b919050565b600067ffffffffffffffff8211156116aa576116a9611614565b5b6116b382611603565b9050602081019050919050565b82818337600083830152505050565b60006116e26116dd8461168f565b611674565b9050828152602081018484840111156116fe576116fd6115fe565b5b6117098482856116c0565b509392505050565b600082601f830112611726576117256115f9565b5b81356117368482602086016116cf565b91505092915050565b600080600080600060a0868803121561175b5761175a6114c2565b5b600061176988828901611586565b955050602061177a888289016115e4565b945050604061178b88828901611586565b935050606061179c88828901611586565b925050608086013567ffffffffffffffff8111156117bd576117bc6114c7565b5b6117c988828901611711565b9150509295509295909350565b6000602082840312156117ec576117eb6114c2565b5b60006117fa84828501611586565b91505092915050565b61180c81611565565b82525050565b61181b816115bb565b82525050565b600081519050919050565b600082825260208201905092915050565b60005b8381101561185b578082015181840152602081019050611840565b60008484015250505050565b600061187282611821565b61187c818561182c565b935061188c81856020860161183d565b61189581611603565b840191505092915050565b6000610140820190506118b6600083018d611803565b6118c3602083018c611812565b81810360408301526118d5818b611867565b90506118e4606083018a611803565b81810360808301526118f68189611867565b905081810360a083015261190a8188611867565b905061191960c0830187611803565b61192660e0830186611803565b611934610100830185611812565b61194261012083018461153b565b9b9a5050505050505050505050565b600080600080600060a0868803121561196d5761196c6114c2565b5b600086013567ffffffffffffffff81111561198b5761198a6114c7565b5b61199788828901611711565b95505060206119a888828901611586565b945050604086013567ffffffffffffffff8111156119c9576119c86114c7565b5b6119d588828901611711565b935050606086013567ffffffffffffffff8111156119f6576119f56114c7565b5b611a0288828901611711565b9250506080611a1388828901611586565b9150509295509295909350565b6000602082019050611a356000830184611803565b92915050565b611a4481611565565b82525050565b611a53816115bb565b82525050565b600082825260208201905092915050565b6000611a7582611821565b611a7f8185611a59565b9350611a8f81856020860161183d565b611a9881611603565b840191505092915050565b611aac8161152f565b82525050565b600061014083016000830151611acb6000860182611a3b565b506020830151611ade6020860182611a4a565b5060408301518482036040860152611af68282611a6a565b9150506060830151611b0b6060860182611a3b565b5060808301518482036080860152611b238282611a6a565b91505060a083015184820360a0860152611b3d8282611a6a565b91505060c0830151611b5260c0860182611a3b565b5060e0830151611b6560e0860182611a3b565b50610100830151611b7a610100860182611a4a565b50610120830151611b8f610120860182611aa3565b508091505092915050565b60006020820190508181036000830152611bb48184611ab2565b905092915050565b60008060408385031215611bd357611bd26114c2565b5b6000611be185828601611586565b925050602083013567ffffffffffffffff811115611c0257611c016114c7565b5b611c0e85828601611711565b9150509250929050565b6000602082019050611c2d6000830184611812565b92915050565b60008060408385031215611c4a57611c496114c2565b5b6000611c5885828601611586565b9250506020611c6985828601611586565b9150509250929050565b600061010082019050611c89600083018b611803565b611c96602083018a611803565b611ca36040830189611812565b611cb06060830188611812565b611cbd6080830187611803565b611cca60a0830186611803565b611cd760c0830185611803565b81810360e0830152611ce98184611867565b90509998505050505050505050565b600060208284031215611d0e57611d0d6114c2565b5b6000611d1c848285016115e4565b91505092915050565b600081519050919050565b600082825260208201905092915050565b6000819050602082019050919050565b600061010083016000830151611d6a6000860182611a3b565b506020830151611d7d6020860182611a3b565b506040830151611d906040860182611a4a565b506060830151611da36060860182611a4a565b506080830151611db66080860182611a3b565b5060a0830151611dc960a0860182611a3b565b5060c0830151611ddc60c0860182611a3b565b5060e083015184820360e0860152611df48282611a6a565b9150508091505092915050565b6000611e0d8383611d51565b905092915050565b6000602082019050919050565b6000611e2d82611d25565b611e378185611d30565b935083602082028501611e4985611d41565b8060005b85811015611e855784840389528151611e668582611e01565b9450611e7183611e15565b925060208a01995050600181019050611e4d565b50829750879550505050505092915050565b60006020820190508181036000830152611eb18184611e22565b905092915050565b7f50726f64756365206c6f74206e6f7420617661696c61626c6500000000000000600082015250565b6000611eef60198361182c565b9150611efa82611eb9565b602082019050919050565b60006020820190508181036000830152611f1e81611ee2565b9050919050565b7f4e6f7420746865206f776e657200000000000000000000000000000000000000600082015250565b6000611f5b600d8361182c565b9150611f6682611f25565b602082019050919050565b60006020820190508181036000830152611f8a81611f4e565b9050919050565b7f496e73756666696369656e74207175616e746974790000000000000000000000600082015250565b6000611fc760158361182c565b9150611fd282611f91565b602082019050919050565b60006020820190508181036000830152611ff681611fba565b9050919050565b600081905092915050565b600061201382611821565b61201d8185611ffd565b935061202d81856020860161183d565b80840191505092915050565b60006120458284612008565b915081905092915050565b7f5472616e73616374696f6e20616c7265616479207265636f7264656400000000600082015250565b6000612086601c8361182c565b915061209182612050565b602082019050919050565b600060208201905081810360008301526120b581612079565b9050919050565b7f4e487b7100000000000000000000000000000000000000000000000000000000600052601160045260246000fd5b60006120f682611565565b91507fffffffffffffffffffffffffffffffffffffffffffffffffffffffffffffffff8203612128576121276120bc565b5b600182019050919050565b600061213e82611565565b915061214983611565565b9250828203905081811115612161576121606120bc565b5b92915050565b7f4e487b7100000000000000000000000000000000000000000000000000000000600052602260045260246000fd5b600060028204905060018216806121ae57607f821691505b6020821081036121c1576121c0612167565b5b50919050565b60008190508160005260206000209050919050565b60006020601f8301049050919050565b600082821b905092915050565b6000600883026122297fffffffffffffffffffffffffffffffffffffffffffffffffffffffffffffffff826121ec565b61223386836121ec565b95508019841693508086168417925050509392505050565b6000819050919050565b600061227061226b61226684611565565b61224b565b611565565b9050919050565b6000819050919050565b61228a83612255565b61229e61229682612277565b8484546121f9565b825550505050565b600090565b6122b36122a6565b6122be818484612281565b505050565b5b818110156122e2576122d76000826122ab565b6001810190506122c4565b5050565b601f821115612327576122f8816121c7565b612301846121dc565b81016020851015612310578190505b61232461231c856121dc565b8301826122c3565b50505b505050565b600082821c905092915050565b600061234a6000198460080261232c565b1980831691505092915050565b60006123638383612339565b9150826002028217905092915050565b61237c82611821565b67ffffffffffffffff81111561239557612394611614565b5b61239f8254612196565b6123aa8282856122e6565b600060209050601f8311600181146123dd57600084156123cb578287015190505b6123d58582612357565b86555061243d565b601f1984166123eb866121c7565b60005b82811015612413578489015182556001820191506020850194506020810190506123ee565b86831015612430578489015161242c601f891682612339565b8355505b6001600288020188555050505b505050505050565b600060608201905061245a6000830186611812565b6124676020830185611812565b6124746040830184611803565b949350505050565b600060208201905081810360008301526124968184611867565b90509291505056fea26469706673582212200eeae1bfaf84069d41ccb0148dc8c225a0a4d18548277cec4ad06c34d5454ecc64736f6c63430008140033",
  "linkReferences": {},
  "deployedLinkReferences": {}
}