{
  "_format": "hh-sol-artifact-1",
  "contractName": "ProduceTracking",
  "sourceName": "contracts/ProduceTracking.sol",
  "abi": [
    {
      "inputs": [],
      "stateMutability": "nonpayable",
      "type": "constructor"
    },
    {
      "inputs": [
        {
          "internalType": "address",
          "name": "sender",
          "type": "address"
        },
        {
          "internalType": "uint256",
          "name": "tokenId",
          "type": "uint256"
        },
        {
          "internalType": "address",
          "name": "owner",
          "type": "address"
        }
      ],
      "name": "ERC721IncorrectOwner",
      "type": "error"
    },
    {
      "inputs": [
        {
          "internalType": "address",
          "name": "operator",
          "type": "address"
        },
        {
          "internalType": "uint256",
          "name": "tokenId",
          "type": "uint256"
        }
      ],
      "name": "ERC721InsufficientApproval",
      "type": "error"
    },
    {
      "inputs": [
        {
          "internalType": "address",
          "name": "approver",
          "type": "address"
        }
      ],
      "name": "ERC721InvalidApprover",
      "type": "error"
    },
    {
      "inputs": [
        {
          "internalType": "address",
          "name": "operator",
          "type": "address"
        }
      ],
      "name": "ERC721InvalidOperator",
      "type": "error"
    },
    {
      "inputs": [
        {
          "internalType": "address",
          "name": "owner",
          "type": "address"
        }
      ],
      "name": "ERC721InvalidOwner",
      "type": "error"
    },
    {
      "inputs": [
        {
          "internalType": "address",
          "name": "receiver",
          "type": "address"
        }
      ],
      "name": "ERC721InvalidReceiver",
      "type": "error"
    },
    {
      "inputs": [
        {
          "internalType": "address",
          "name": "sender",
          "type": "address"
        }
      ],
      "name": "ERC721InvalidSender",
      "type": "error"
    },
    {
      "inputs": [
        {
          "internalType": "uint256",
          "name": "tokenId",
          "type": "uint256"
        }
      ],
      "name": "ERC721NonexistentToken",
      "type": "error"
    },
    {
      "inputs": [
        {
          "internalType": "address",
          "name": "owner",
          "type": "address"
        }
      ],
      "name": "OwnableInvalidOwner",
      "type": "error"
    },
    {
      "inputs": [
        {
          "internalType": "address",
          "name": "account",
          "type": "address"
        }
      ],
      "name": "OwnableUnauthorizedAccount",
      "type": "error"
    },
    {
      "anonymous": false,
      "inputs": [
        {
          "indexed": true,
          "internalType": "address",
          "name": "owner",
          "type": "address"
        },
        {
          "indexed": true,
          "internalType": "address",
          "name": "approved",
          "type": "address"
        },
        {
          "indexed": true,
          "internalType": "uint256",
          "name": "tokenId",
          "type": "uint256"
        }
      ],
      "name": "Approval",
      "type": "event"
    },
    {
      "anonymous": false,
      "inputs": [
        {
          "indexed": true,
          "internalType": "address",
          "name": "owner",
          "type": "address"
        },
        {
          "indexed": true,
          "internalType": "address",
          "name": "operator",
          "type": "address"
        },
        {
          "indexed": false,
          "internalType": "bool",
          "name": "approved",
          "type": "bool"
        }
      ],
      "name": "ApprovalForAll",
      "type": "event"
    },
    {
      "anonymous": false,
      "inputs": [
        {
          "indexed": false,
          "internalType": "uint256",
          "name": "_fromTokenId",
          "type": "uint256"
        },
        {
          "indexed": false,
          "internalType": "uint256",
          "name": "_toTokenId",
          "type": "uint256"
        }
      ],
      "name": "BatchMetadataUpdate",
      "type": "event"
    },
    {
      "anonymous": false,
      "inputs": [
        {
          "indexed": true,
          "internalType": "uint256",
          "name": "lotId",
          "type": "uint256"
        },
        {
          "indexed": false,
          "internalType": "string",
          "name": "location",
          "type": "string"
        },
        {
          "indexed": false,
          "internalType": "uint256",
          "name": "timestamp",
          "type": "uint256"
        }
      ],
      "name": "LocationUpdated",
      "type": "event"
    },
    {
      "anonymous": false,
      "inputs": [
        {
          "indexed": false,
          "internalType": "uint256",
          "name": "_tokenId",
          "type": "uint256"
        }
      ],
      "name": "MetadataUpdate",
      "type": "event"
    },
    {
      "anonymous": false,
      "inputs": [
        {
          "indexed": true,
          "internalType": "address",
          "name": "previousOwner",
          "type": "address"
        },
        {
          "indexed": true,
          "internalType": "address",
          "name": "newOwner",
          "type": "address"
        }
      ],
      "name": "OwnershipTransferred",
      "type": "event"
    },
    {
      "anonymous": false,
      "inputs": [
        {
          "indexed": true,
          "internalType": "uint256",
          "name": "lotId",
          "type": "uint256"
        },
        {
          "indexed": true,
          "internalType": "address",
          "name": "farmer",
          "type": "address"
        },
        {
          "indexed": false,
          "internalType": "string",
          "name": "produceType",
          "type": "string"
        }
      ],
      "name": "ProduceLotCreated",
      "type": "event"
    },
    {
      "anonymous": false,
      "inputs": [
        {
          "indexed": true,
          "internalType": "uint256",
          "name": "transactionId",
          "type": "uint256"
        },
        {
          "indexed": true,
          "internalType": "uint256",
          "name": "lotId",
          "type": "uint256"
        },
        {
          "indexed": false,
          "internalType": "address",
          "name": "from",
          "type": "address"
        },
        {
          "indexed": false,
          "internalType": "address",
          "name": "to",
          "type": "address"
        },
        {
          "indexed": false,
          "internalType": "uint256",
          "name": "quantity",
          "type": "uint256"
        }
      ],
      "name": "ProduceTransferred",
      "type": "event"
    },
    {
      "anonymous": false,
      "inputs": [
        {
          "indexed": true,
          "internalType": "uint256",
          "name": "lotId",
          "type": "uint256"
        },
        {
          "indexed": false,
          "internalType": "string",
          "name": "qualityMetrics",
          "type": "string"
        }
      ],
      "name": "QualityUpdated",
      "type": "event"
    },
    {
      "anonymous": false,
      "inputs": [
        {
          "indexed": true,
          "internalType": "address",
          "name": "from",
          "type": "address"
        },
        {
          "indexed": true,
          "internalType": "address",
          "name": "to",
          "type": "address"
        },
        {
          "indexed": true,
          "internalType": "uint256",
          "name": "tokenId",
          "type": "uint256"
        }
      ],
      "name": "Transfer",
      "type": "event"
    },
    {
      "inputs": [
        {
          "internalType": "uint256",
          "name": "_lotId",
          "type": "uint256"
        },
        {
          "internalType": "string",
          "name": "_location",
          "type": "string"
        }
      ],
      "name": "addLocationUpdate",
      "outputs": [],
      "stateMutability": "nonpayable",
      "type": "function"
    },
    {
      "inputs": [
        {
          "internalType": "address",
          "name": "to",
          "type": "address"
        },
        {
          "internalType": "uint256",
          "name": "tokenId",
          "type": "uint256"
        }
      ],
      "name": "approve",
      "outputs": [],
      "stateMutability": "nonpayable",
      "type": "function"
    },
    {
      "inputs": [
        {
          "internalType": "address",
          "name": "owner",
          "type": "address"
        }
      ],
      "name": "balanceOf",
      "outputs": [
        {
          "internalType": "uint256",
          "name": "",
          "type": "uint256"
        }
      ],
      "stateMutability": "view",
      "type": "function"
    },
    {
      "inputs": [
        {
          "internalType": "string",
          "name": "_produceType",
          "type": "string"
        },
        {
          "internalType": "uint256",
          "name": "_harvestDate",
          "type": "uint256"
        },
        {
          "internalType": "string",
          "name": "_qualityMetrics",
          "type": "string"
        },
        {
          "internalType": "string",
          "name": "_origin",
          "type": "string"
        },
        {
          "internalType": "uint256",
          "name": "_quantity",
          "type": "uint256"
        },
        {
          "internalType": "string",
          "name": "_tokenURI",
          "type": "string"
        }
      ],
      "name": "createProduceLot",
      "outputs": [
        {
          "internalType": "uint256",
          "name": "",
          "type": "uint256"
        }
      ],
      "stateMutability": "nonpayable",
      "type": "function"
    },
    {
      "inputs": [
        {
          "internalType": "uint256",
          "name": "tokenId",
          "type": "uint256"
        }
      ],
      "name": "getApproved",
      "outputs": [
        {
          "internalType": "address",
          "name": "",
          "type": "address"
        }
      ],
      "stateMutability": "view",
      "type": "function"
    },
    {
      "inputs": [
        {
          "internalType": "uint256",
          "name": "_lotId",
          "type": "uint256"
        }
      ],
      "name": "getLotLocationHistory",
      "outputs": [
        {
          "components": [
            {
              "internalType": "uint256",
              "name": "timestamp",
              "type": "uint256"
            },
            {
              "internalType": "string",
              "name": "location",
              "type": "string"
            }
          ],
          "internalType": "struct ProduceTracking.LocationUpdate[]",
          "name": "",
          "type": "tuple[]"
        }
      ],
      "stateMutability": "view",
      "type": "function"
    },
    {
      "inputs": [
        {
          "internalType": "uint256",
          "name": "_lotId",
          "type": "uint256"
        }
      ],
      "name": "getLotTransactions",
      "outputs": [
        {
          "components": [
            {
              "internalType": "uint256",
              "name": "transactionId",
              "type": "uint256"
            },
            {
              "internalType": "uint256",
              "name": "lotId",
              "type": "uint256"
            },
            {
              "internalType": "address",
              "name": "from",
              "type": "address"
            },
            {
              "internalType": "address",
              "name": "to",
              "type": "address"
            },
            {
              "internalType": "uint256",
              "name": "quantity",
              "type": "uint256"
            },
            {
              "internalType": "uint256",
              "name": "price",
              "type": "uint256"
            },
            {
              "internalType": "uint256",
              "name": "timestamp",
              "type": "uint256"
            },
            {
              "internalType": "string",
              "name": "transactionHash",
              "type": "string"
            }
          ],
          "internalType": "struct ProduceTracking.Transaction[]",
          "name": "",
          "type": "tuple[]"
        }
      ],
      "stateMutability": "view",
      "type": "function"
    },
    {
      "inputs": [
        {
          "internalType": "uint256",
          "name": "_lotId",
          "type": "uint256"
        }
      ],
      "name": "getProduceLot",
      "outputs": [
        {
          "components": [
            {
              "internalType": "address",
              "name": "farmer",
              "type": "address"
            },
            {
              "internalType": "string",
              "name": "produceType",
              "type": "string"
            },
            {
              "internalType": "uint256",
              "name": "harvestDate",
              "type": "uint256"
            },
            {
              "internalType": "string",
              "name": "qualityMetrics",
              "type": "string"
            },
            {
              "internalType": "string",
              "name": "origin",
              "type": "string"
            },
            {
              "internalType": "uint256",
              "name": "quantity",
              "type": "uint256"
            },
            {
              "internalType": "address",
              "name": "currentOwner",
              "type": "address"
            }
          ],
          "internalType": "struct ProduceTracking.ProduceLot",
          "name": "",
          "type": "tuple"
        }
      ],
      "stateMutability": "view",
      "type": "function"
    },
    {
      "inputs": [
        {
          "internalType": "address",
          "name": "owner",
          "type": "address"
        },
        {
          "internalType": "address",
          "name": "operator",
          "type": "address"
        }
      ],
      "name": "isApprovedForAll",
      "outputs": [
        {
          "internalType": "bool",
          "name": "",
          "type": "bool"
        }
      ],
      "stateMutability": "view",
      "type": "function"
    },
    {
      "inputs": [
        {
          "internalType": "uint256",
          "name": "",
          "type": "uint256"
        },
        {
          "internalType": "uint256",
          "name": "",
          "type": "uint256"
        }
      ],
      "name": "lotLocationHistory",
      "outputs": [
        {
          "internalType": "uint256",
          "name": "timestamp",
          "type": "uint256"
        },
        {
          "internalType": "string",
          "name": "location",
          "type": "string"
        }
      ],
      "stateMutability": "view",
      "type": "function"
    },
    {
      "inputs": [
        {
          "internalType": "uint256",
          "name": "",
          "type": "uint256"
        },
        {
          "internalType": "uint256",
          "name": "",
          "type": "uint256"
        }
      ],
      "name": "lotTransactions",
      "outputs": [
        {
          "internalType": "uint256",
          "name": "transactionId",
          "type": "uint256"
        },
        {
          "internalType": "uint256",
          "name": "lotId",
          "type": "uint256"
        },
        {
          "internalType": "address",
          "name": "from",
          "type": "address"
        },
        {
          "internalType": "address",
          "name": "to",
          "type": "address"
        },
        {
          "internalType": "uint256",
          "name": "quantity",
          "type": "uint256"
        },
        {
          "internalType": "uint256",
          "name": "price",
          "type": "uint256"
        },
        {
          "internalType": "uint256",
          "name": "timestamp",
          "type": "uint256"
        },
        {
          "internalType": "string",
          "name": "transactionHash",
          "type": "string"
        }
      ],
      "stateMutability": "view",
      "type": "function"
    },
    {
      "inputs": [],
      "name": "name",
      "outputs": [
        {
          "internalType": "string",
          "name": "",
          "type": "string"
        }
      ],
      "stateMutability": "view",
      "type": "function"
    },
    {
      "inputs": [],
      "name": "owner",
      "outputs": [
        {
          "internalType": "address",
          "name": "",
          "type": "address"
        }
      ],
      "stateMutability": "view",
      "type": "function"
    },
    {
      "inputs": [
        {
          "internalType": "uint256",
          "name": "tokenId",
          "type": "uint256"
        }
      ],
      "name": "ownerOf",
      "outputs": [
        {
          "internalType": "address",
          "name": "",
          "type": "address"
        }
      ],
      "stateMutability": "view",
      "type": "function"
    },
    {
      "inputs": [
        {
          "internalType": "uint256",
          "name": "",
          "type": "uint256"
        }
      ],
      "name": "produceLots",
      "outputs": [
        {
          "internalType": "address",
          "name": "farmer",
          "type": "address"
        },
        {
          "internalType": "string",
          "name": "produceType",
          "type": "string"
        },
        {
          "internalType": "uint256",
          "name": "harvestDate",
          "type": "uint256"
        },
        {
          "internalType": "string",
          "name": "qualityMetrics",
          "type": "string"
        },
        {
          "internalType": "string",
          "name": "origin",
          "type": "string"
        },
        {
          "internalType": "uint256",
          "name": "quantity",
          "type": "uint256"
        },
        {
          "internalType": "address",
          "name": "currentOwner",
          "type": "address"
        }
      ],
      "stateMutability": "view",
      "type": "function"
    },
    {
      "inputs": [
        {
          "internalType": "uint256",
          "name": "_lotId",
          "type": "uint256"
        },
        {
          "internalType": "address",
          "name": "_to",
          "type": "address"
        },
        {
          "internalType": "uint256",
          "name": "_quantity",
          "type": "uint256"
        },
        {
          "internalType": "uint256",
          "name": "_price",
          "type": "uint256"
        },
        {
          "internalType": "string",
          "name": "_transactionHash",
          "type": "string"
        }
      ],
      "name": "recordProduceTransfer",
      "outputs": [],
      "stateMutability": "nonpayable",
      "type": "function"
    },
    {
      "inputs": [],
      "name": "renounceOwnership",
      "outputs": [],
      "stateMutability": "nonpayable",
      "type": "function"
    },
    {
      "inputs": [
        {
          "internalType": "address",
          "name": "from",
          "type": "address"
        },
        {
          "internalType": "address",
          "name": "to",
          "type": "address"
        },
        {
          "internalType": "uint256",
          "name": "tokenId",
          "type": "uint256"
        }
      ],
      "name": "safeTransferFrom",
      "outputs": [],
      "stateMutability": "nonpayable",
      "type": "function"
    },
    {
      "inputs": [
        {
          "internalType": "address",
          "name": "from",
          "type": "address"
        },
        {
          "internalType": "address",
          "name": "to",
          "type": "address"
        },
        {
          "internalType": "uint256",
          "name": "tokenId",
          "type": "uint256"
        },
        {
          "internalType": "bytes",
          "name": "data",
          "type": "bytes"
        }
      ],
      "name": "safeTransferFrom",
      "outputs": [],
      "stateMutability": "nonpayable",
      "type": "function"
    },
    {
      "inputs": [
        {
          "internalType": "address",
          "name": "operator",
          "type": "address"
        },
        {
          "internalType": "bool",
          "name": "approved",
          "type": "bool"
        }
      ],
      "name": "setApprovalForAll",
      "outputs": [],
      "stateMutability": "nonpayable",
      "type": "function"
    },
    {
      "inputs": [
        {
          "internalType": "bytes4",
          "name": "interfaceId",
          "type": "bytes4"
        }
      ],
      "name": "supportsInterface",
      "outputs": [
        {
          "internalType": "bool",
          "name": "",
          "type": "bool"
        }
      ],
      "stateMutability": "view",
      "type": "function"
    },
    {
      "inputs": [],
      "name": "symbol",
      "outputs": [
        {
          "internalType": "string",
          "name": "",
          "type": "string"
        }
      ],
      "stateMutability": "view",
      "type": "function"
    },
    {
      "inputs": [
        {
          "internalType": "uint256",
          "name": "tokenId",
          "type": "uint256"
        }
      ],
      "name": "tokenURI",
      "outputs": [
        {
          "internalType": "string",
          "name": "",
          "type": "string"
        }
      ],
      "stateMutability": "view",
      "type": "function"
    },
    {
      "inputs": [
        {
          "internalType": "bytes32",
          "name": "",
          "type": "bytes32"
        }
      ],
      "name": "transactionHashes",
      "outputs": [
        {
          "internalType": "bool",
          "name": "",
          "type": "bool"
        }
      ],
      "stateMutability": "view",
      "type": "function"
    },
    {
      "inputs": [
        {
          "internalType": "address",
          "name": "from",
          "type": "address"
        },
        {
          "internalType": "address",
          "name": "to",
          "type": "address"
        },
        {
          "internalType": "uint256",
          "name": "tokenId",
          "type": "uint256"
        }
      ],
      "name": "transferFrom",
      "outputs": [],
      "stateMutability": "nonpayable",
      "type": "function"
    },
    {
      "inputs": [
        {
          "internalType": "address",
          "name": "newOwner",
          "type": "address"
        }
      ],
      "name": "transferOwnership",
      "outputs": [],
      "stateMutability": "nonpayable",
      "type": "function"
    },
    {
      "inputs": [
        {
          "internalType": "uint256",
          "name": "_lotId",
          "type": "uint256"
        },
        {
          "internalType": "string",
          "name": "_qualityMetrics",
          "type": "string"
        }
      ],
      "name": "updateQualityMetrics",
      "outputs": [],
      "stateMutability": "nonpayable",
      "type": "function"
    }
  ],
  "bytecode": "0x60806040523461038557604080519081016001600160401b03811182821017610285576040908152601782527f46696e6f766174655061792050726f6475636520525741000000000000000000602083015280519081016001600160401b03811182821017610285576040526005815264465052574160d81b60208201523315610372575f8054336001600160a01b0319821681178355916001600160a01b03909116907f8be0079c531659141344cd1fd0a4f28419497f9722a3daafe3b4186f6b6457e09080a381516001600160401b03811161028557600154600181811c91168015610368575b602082101461026757601f8111610305575b50602092601f82116001146102a457928192935f92610299575b50508160011b915f199060031b1c1916176001555b80516001600160401b03811161028557600254600181811c9116801561027b575b602082101461026757601f8111610204575b50602091601f82116001146101a4579181925f92610199575b50508160011b915f199060031b1c1916176002555b6040516123a7908161038a8239f35b015190505f80610175565b601f1982169260025f52805f20915f5b8581106101ec575083600195106101d4575b505050811b0160025561018a565b01515f1960f88460031b161c191690555f80806101c6565b919260206001819286850151815501940192016101b4565b60025f527f405787fa12a823e0f2b7631cc41b3ba8828b3321ca811111fa75cd3aa3bb5ace601f830160051c8101916020841061025d575b601f0160051c01905b818110610252575061015c565b5f8155600101610245565b909150819061023c565b634e487b7160e01b5f52602260045260245ffd5b90607f169061014a565b634e487b7160e01b5f52604160045260245ffd5b015190505f80610114565b601f1982169360015f52805f20915f5b8681106102ed57508360019596106102d5575b505050811b01600155610129565b01515f1960f88460031b161c191690555f80806102c7565b919260206001819286850151815501940192016102b4565b60015f527fb10e2d527612073b26eecdfd717e6a320cf44b4afac2b0732d9fcbe2b7fa0cf6601f830160051c8101916020841061035e575b601f0160051c01905b81811061035357506100fa565b5f8155600101610346565b909150819061033d565b90607f16906100e8565b631e4fbdf760e01b5f525f60045260245ffd5b5f80fdfe6080806040526004361015610012575f80fd5b5f3560e01c90816301ffc9a714611c6b575080630532070d146118fb57806306fdde0314611856578063081812fc1461181a578063095ea7b31461173057806309fb61f5146117015780631f037f3b1461164357806323b872dd1461162c57806342842e0e146115fd578063482e9a48146114ac578063518f01f11461130c5780636352211e146112dc57806370a082311461128b578063715018a6146112345780638b0b326a146111375780638da5cb5b1461111057806395d89b4114611046578063a22cb46514610fab578063b88d4fde14610f3e578063ba95c0bb14610d02578063c3707a1e146104f1578063c87b56dd146104be578063d719f50e14610465578063e153d513146103b7578063e985e9c514610360578063f2fde38b146102db5763f3bbf9de14610145575f80fd5b346102d75760203660031901126102d7576004355f52600a60205260405f208054906101708261219a565b9161017e6040519384611d6e565b8083526020830180925f5260205f205f915b83831061025957848660405191829160208301906020845251809152604083019060408160051b85010192915f905b8282106101ce57505050500390f35b919360019193955060206102498192603f198a820301865261010060e08a51805184528581015186850152878060a01b036040820151166040850152878060a01b0360608201511660608501526080810151608085015260a081015160a085015260c081015160c08501520151918160e08201520190611dfe565b96019201920185949391926101bf565b6008602060019260405161026c81611d1c565b855481528486015483820152848060a01b036002870154166040820152848060a01b03600387015416606082015260048601546080820152600586015460a0820152600686015460c08201526102c460078701611e5a565b60e0820152815201920192019190610190565b5f80fd5b346102d75760203660031901126102d7576102f4611d06565b6102fc6121e5565b6001600160a01b0316801561034d575f80546001600160a01b03198116831782556001600160a01b0316907f8be0079c531659141344cd1fd0a4f28419497f9722a3daafe3b4186f6b6457e09080a3005b631e4fbdf760e01b5f525f60045260245ffd5b346102d75760403660031901126102d757610379611d06565b610381611cf0565b9060018060a01b03165f52600660205260405f209060018060a01b03165f52602052602060ff60405f2054166040519015158152f35b346102d7576103c536611f63565b905f52600a60205260405f209081548110156102d7576103e491611fa6565b50805461046160018301549260018060a01b036002820154169060018060a01b036003820154166004820154600583015491610427600760068601549501611e5a565b946040519889988952602089015260408801526060870152608086015260a085015260c084015261010060e0840152610100830190611dfe565b0390f35b346102d75761047336611f63565b905f52600b60205260405f209081548110156102d75761049291611f79565b506104a1600182549201611e5a565b906104616040519283928352604060208401526040830190611dfe565b346102d75760203660031901126102d7576104616104dd600435612341565b604051918291602083526020830190611dfe565b346102d75760c03660031901126102d7576004356001600160401b0381116102d757610521903690600401611de0565b6044356001600160401b0381116102d757610540903690600401611de0565b906064356001600160401b0381116102d757610560903690600401611de0565b9060a4356001600160401b0381116102d757610580903690600401611de0565b9261058c600854611fff565b92836008556020946040516105a18782611d6e565b5f81523315610cef575f8681526003885260409020546001600160a01b03168015159081610cbe575b335f81815260048b526040808220805460010190558a825260038c52812080546001600160a01b0319168317905589919083907fddf252ad1be2c89b69c2b068fc378daa952ba7f163c4a11628f55a4df523b3ef9080a450610cab5786333b610ba0575b5050845f526007865260405f20908051906001600160401b0382116109545781906106598454611e22565b601f8111610b52575b508890601f8311600114610aef575f92610ae4575b50508160011b915f199060031b1c19161790555b7ff8e1a15aba9398e019f0b49df1a4fde98ee17ae345cb5f6b5e2c27f5033e8ce785604051868152a1604051916106c183611d38565b338084528684018581526024356040808701918252606087019485526080870195865260843560a0880190815260c088019485525f8a815260098c5291909120965187546001600160a01b0319166001600160a01b03919091161787559151805193959294929360018801916001600160401b0382116109545781908c6107488554611e22565b601f8111610a93575b50508c908d601f8411600114610a2f57505f92610a24575b50508160011b915f199060031b1c19161790555b51600286015551805160038601916001600160401b0382116109545781906107a58454611e22565b601f81116109d6575b508a90601f8311600114610973575f92610968575b50508160011b915f199060031b1c19161790555b51805160048501916001600160401b038211610954576107f78354611e22565b601f8111610911575b508890601f83116001146108a957600695949392915f918361089e575b50508160011b915f199060031b1c19161790555b51600584015551910180546001600160a01b0319166001600160a01b0392909216919091179055604051838152339183917f85619cdc50fc0f491bb316204858968bc8c7634aeaeb6563818eb053047e061b9181906108939088830190611dfe565b0390a3604051908152f35b015190508a8061081d565b90601f19831691845f528a5f20925f5b8c8282106108fb57505091600193918560069998979694106108e3575b505050811b019055610831565b01515f1960f88460031b161c191690558a80806108d6565b60018596829396860151815501950193016108b9565b835f52895f20601f840160051c8101918b851061094a575b601f0160051c01905b81811061093f5750610800565b5f8155600101610932565b9091508190610929565b634e487b7160e01b5f52604160045260245ffd5b015190508a806107c3565b5f8581528c81209350601f198516905b8d8282106109c05750509084600195949392106109a8575b505050811b0190556107d7565b01515f1960f88460031b161c191690558a808061099b565b6001859682939686015181550195019301610983565b909150835f528a5f20601f840160051c8101918c8510610a1a575b90601f859493920160051c01905b818110610a0c57506107ae565b5f81558493506001016109ff565b90915081906109f1565b015190508c80610769565b5f8681528181209450601f198616915b828210610a7b575050908460019594939210610a63575b505050811b01905561077d565b01515f1960f88460031b161c191690558c8080610a56565b80600186978294978701518155019601940190610a3f565b90919250845f52815f2090601f850160051c8201928510610ada575b90601f859493920160051c01905b818110610acc578e9150610751565b5f8155849350600101610abd565b9091508190610aaf565b015190508880610677565b5f8581528a81209350601f198516905b8b828210610b3c575050908460019594939210610b24575b505050811b01905561068b565b01515f1960f88460031b161c19169055888080610b17565b6001859682939686015181550195019301610aff565b909150835f52885f20601f840160051c8101918a8510610b96575b90601f859493920160051c01905b818110610b885750610662565b5f8155849350600101610b7b565b9091508190610b6d565b610bd89160405180938192630a85bd0160e11b83523360048401525f60248401528a6044840152608060648401526084830190611dfe565b03815f335af15f9181610c6b575b50610c3a57863d15610c32573d90610bfd82611d8f565b91610c0b6040519384611d6e565b82523d5f8284013e5b81519182610c2f57633250574960e11b5f523360045260245ffd5b01fd5b606090610c14565b6001600160e01b03191663757a42ff60e11b01610c5857868661062e565b633250574960e11b5f523360045260245ffd5b9091508781813d8311610ca4575b610c838183611d6e565b810103126102d757516001600160e01b0319811681036102d7579088610be6565b503d610c79565b6339e3563760e11b5f525f60045260245ffd5b5f8881526005602052604080822080546001600160a01b031916905582825260048b52902080545f190190556105ca565b633250574960e11b5f525f60045260245ffd5b346102d757610d1036611f34565b906001600160a01b03610d22826121b1565b1615610ef957805f52600b60205260405f2091604051610d4181611d53565b42815260208101938285528054600160401b81101561095457610d6991600182018155611f79565b610ee6576001915181550192519283516001600160401b03811161095457610d918254611e22565b601f8111610ea1575b506020601f8211600114610e18579080610e029493927f08c1aa8a3ded74821ab8fe6981a7dd0f9ebb0c3fcef9196f34b9f4e9d0e4edcd96975f92610e0d575b50508160011b915f199060031b1c19161790555b604051918291604083526040830190611dfe565b4260208301520390a2005b015190508780610dda565b601f19821695835f52815f20965f5b818110610e895750966001928492610e029796957f08c1aa8a3ded74821ab8fe6981a7dd0f9ebb0c3fcef9196f34b9f4e9d0e4edcd999a10610e71575b505050811b019055610dee565b01515f1960f88460031b161c19169055878080610e64565b83830151895560019098019760209384019301610e27565b825f5260205f20601f830160051c81019160208410610edc575b601f0160051c01905b818110610ed15750610d9a565b5f8155600101610ec4565b9091508190610ebb565b634e487b7160e01b5f525f60045260245ffd5b60405162461bcd60e51b815260206004820152601a60248201527f50726f64756365206c6f7420646f6573206e6f742065786973740000000000006044820152606490fd5b346102d75760803660031901126102d757610f57611d06565b610f5f611cf0565b90604435606435926001600160401b0384116102d757366023850112156102d757610f97610fa9943690602481600401359101611daa565b92610fa383838361200d565b3361220b565b005b346102d75760403660031901126102d757610fc4611d06565b602435908115158092036102d7576001600160a01b031690811561103357335f52600660205260405f20825f5260205260405f2060ff1981541660ff83161790556040519081527f17307eab39ab6107e8899845ad3d59bd9653f200f220920489ca2b5937696c3160203392a3005b50630b61174360e31b5f5260045260245ffd5b346102d7575f3660031901126102d7576040515f60025461106681611e22565b80845290600181169081156110ec575060011461108e575b610461836104dd81850382611d6e565b60025f9081527f405787fa12a823e0f2b7631cc41b3ba8828b3321ca811111fa75cd3aa3bb5ace939250905b8082106110d2575090915081016020016104dd61107e565b9192600181602092548385880101520191019092916110ba565b60ff191660208086019190915291151560051b840190910191506104dd905061107e565b346102d7575f3660031901126102d7575f546040516001600160a01b039091168152602090f35b346102d75760203660031901126102d7576004355f52600b60205260405f208054906111628261219a565b916111706040519384611d6e565b8083526020830180925f5260205f205f915b83831061120057848660405191829160208301906020845251809152604083019060408160051b85010192915f905b8282106111c057505050500390f35b919360019193955060206111f08192603f198a82030186526040838a518051845201519181858201520190611dfe565b96019201920185949391926111b1565b6002602060019260405161121381611d53565b85548152611222858701611e5a565b83820152815201920192019190611182565b346102d7575f3660031901126102d75761124c6121e5565b5f80546001600160a01b0319811682556001600160a01b03167f8be0079c531659141344cd1fd0a4f28419497f9722a3daafe3b4186f6b6457e08280a3005b346102d75760203660031901126102d7576001600160a01b036112ac611d06565b1680156112c9575f526004602052602060405f2054604051908152f35b6322718ad960e21b5f525f60045260245ffd5b346102d75760203660031901126102d75760206112fa6004356121b1565b6040516001600160a01b039091168152f35b346102d75761131a36611f34565b90611337611327826121b1565b6001600160a01b03163314611fbf565b805f526009602052600360405f2001918051926001600160401b038411610954576113628154611e22565b601f8111611467575b50602093601f81116001146113e15790816113d193927ff72ed4a2b7121d28d35e9fff41ce2b51851c62b79d5cee9fe9f369c0f3a1031b95965f916113d6575b508160011b915f199060031b1c1916179055604051918291602083526020830190611dfe565b0390a2005b9050830151876113ab565b601f198116825f52855f20905f5b81811061144f5750916001917ff72ed4a2b7121d28d35e9fff41ce2b51851c62b79d5cee9fe9f369c0f3a1031b9697826113d197969510611437575b5050811b0190556104dd565b8501515f1960f88460031b161c19169055878061142b565b858801518355602097880197600190930192016113ef565b815f5260205f20601f860160051c810191602087106114a2575b601f0160051c01905b818110611497575061136b565b5f815560010161148a565b9091508190611481565b346102d75760203660031901126102d7575f60c06040516114cc81611d38565b82815260606020820152826040820152606080820152606060808201528260a082015201526004355f52600960205260405f2060405161150b81611d38565b81546001600160a01b0316815261152460018301611e5a565b91602082019283526002810154604083019081526115e361154760038401611e5a565b91606085019283526115d061155e60048601611e5a565b916080870192835260058601549560a08801968752600660018060a01b03910154169460c088019586526115b7604051998a9960208b5260018060a01b0390511660208b01525160e060408b01526101008a0190611dfe565b9151606089015251878203601f19016080890152611dfe565b9051858203601f190160a0870152611dfe565b915160c0840152516001600160a01b031660e08301520390f35b346102d757610fa961160e36611efa565b906040519261161e602085611d6e565b5f8452610fa383838361200d565b346102d757610fa961163d36611efa565b9161200d565b346102d75760203660031901126102d7576004355f90815260096020526040902080546001600160a01b031661167b60018301611e5a565b9160028101546116f261169060038401611e5a565b916116e46116a060048601611e5a565b91600586015495600660018060a01b0391015416946116d1604051998a998a5260e060208b015260e08a0190611dfe565b9160408901528782036060890152611dfe565b908582036080870152611dfe565b9160a084015260c08301520390f35b346102d75760203660031901126102d7576004355f52600c602052602060ff60405f2054166040519015158152f35b346102d75760403660031901126102d757611749611d06565b602435611755816121b1565b33151580611807575b806117da575b6117c75781906001600160a01b0384811691167f8c5be1e5ebec7d5bd14f71427d1e84f3dd0314c0f7b2291e5b200ac8c7c3b9255f80a45f90815260056020526040902080546001600160a01b0319166001600160a01b03909216919091179055005b63a9fbf51f60e01b5f523360045260245ffd5b506001600160a01b0381165f90815260066020908152604080832033845290915290205460ff1615611764565b506001600160a01b03811633141561175e565b346102d75760203660031901126102d757600435611837816121b1565b505f526005602052602060018060a01b0360405f205416604051908152f35b346102d7575f3660031901126102d7576040515f60015461187681611e22565b80845290600181169081156110ec575060011461189d57610461836104dd81850382611d6e565b60015f9081527fb10e2d527612073b26eecdfd717e6a320cf44b4afac2b0732d9fcbe2b7fa0cf6939250905b8082106118e1575090915081016020016104dd61107e565b9192600181602092548385880101520191019092916118c9565b346102d75760a03660031901126102d757600435611917611cf0565b604435906084356001600160401b0381116102d75761193a903690600401611de0565b91611947611327856121b1565b6040516020810190611973602082875180838a01875e81015f838201520301601f198101835282611d6e565b519020805f52600c60205260ff60405f205416611c2657611995600d54611fff565b9384600d55855f526009602052600560405f2001805490848203918211611c125755855f52600a60205260405f20604051906119d082611d1c565b868252602082019088825260408301338152606084019760018060a01b031697888152608085019088825260a0860192606435845260c087019442865260e088019889528054600160401b81101561095457611a3191600182018155611fa6565b969096610ee657965186559551600186015594516002850180546001600160a01b03199081166001600160a01b039384161790915595516003860180549097169116179094559251600483015591516005820155905160068201559051805160079290920191906001600160401b03821161095457611ab08354611e22565b601f8111611bcd575b50602090601f8311600114611b4357918060609694927fd32b5aee102532eca99706fcdf0cdfef857551563b8d7981be87432450d775439896945f92611b38575b50508160011b915f199060031b1c19161790555b5f52600c60205260405f20600160ff198254161790556040519133835260208301526040820152a3005b015190508a80611afa565b90601f19831691845f52815f20925f5b818110611bb557509260019285927fd32b5aee102532eca99706fcdf0cdfef857551563b8d7981be87432450d775439a989660609a989610611b9d575b505050811b019055611b0e565b01515f1960f88460031b161c191690558a8080611b90565b92936020600181928786015181550195019301611b53565b835f5260205f20601f840160051c81019160208510611c08575b601f0160051c01905b818110611bfd5750611ab9565b5f8155600101611bf0565b9091508190611be7565b634e487b7160e01b5f52601160045260245ffd5b60405162461bcd60e51b815260206004820152601c60248201527f5472616e73616374696f6e20616c7265616479207265636f72646564000000006044820152606490fd5b346102d75760203660031901126102d7576004359063ffffffff60e01b82168092036102d757602091632483248360e11b8114908115611cad575b5015158152f35b6380ac58cd60e01b811491508115611cdf575b8115611cce575b5083611ca6565b6301ffc9a760e01b14905083611cc7565b635b5e139f60e01b81149150611cc0565b602435906001600160a01b03821682036102d757565b600435906001600160a01b03821682036102d757565b61010081019081106001600160401b0382111761095457604052565b60e081019081106001600160401b0382111761095457604052565b604081019081106001600160401b0382111761095457604052565b90601f801991011681019081106001600160401b0382111761095457604052565b6001600160401b03811161095457601f01601f191660200190565b929192611db682611d8f565b91611dc46040519384611d6e565b8294818452818301116102d7578281602093845f960137010152565b9080601f830112156102d757816020611dfb93359101611daa565b90565b805180835260209291819084018484015e5f828201840152601f01601f1916010190565b90600182811c92168015611e50575b6020831014611e3c57565b634e487b7160e01b5f52602260045260245ffd5b91607f1691611e31565b9060405191825f825492611e6d84611e22565b8084529360018116908115611ed85750600114611e94575b50611e9292500383611d6e565b565b90505f9291925260205f20905f915b818310611ebc575050906020611e92928201015f611e85565b6020919350806001915483858901015201910190918492611ea3565b905060209250611e9294915060ff191682840152151560051b8201015f611e85565b60609060031901126102d7576004356001600160a01b03811681036102d757906024356001600160a01b03811681036102d7579060443590565b9060406003198301126102d75760043591602435906001600160401b0382116102d757611dfb91600401611de0565b60409060031901126102d7576004359060243590565b8054821015611f92575f5260205f209060011b01905f90565b634e487b7160e01b5f52603260045260245ffd5b8054821015611f92575f5260205f209060031b01905f90565b15611fc657565b60405162461bcd60e51b81526020600482015260116024820152702737ba103a343290292ba09037bbb732b960791b6044820152606490fd5b5f198114611c125760010190565b6001600160a01b0390911691908215610cef575f828152600360205260409020546001600160a01b031692829033151580612105575b50846120d2575b805f52600460205260405f2060018154019055815f52600360205260405f20816bffffffffffffffffffffffff60a01b825416179055847fddf252ad1be2c89b69c2b068fc378daa952ba7f163c4a11628f55a4df523b3ef5f80a46001600160a01b03168083036120ba57505050565b6364283d7b60e01b5f5260045260245260445260645ffd5b5f82815260056020526040902080546001600160a01b0319169055845f52600460205260405f205f19815401905561204a565b90915080612149575b1561211b5782905f612043565b828461213357637e27328960e01b5f5260045260245ffd5b63177e802f60e01b5f523360045260245260445ffd5b503384148015612178575b8061210e57505f838152600560205260409020546001600160a01b0316331461210e565b505f84815260066020908152604080832033845290915290205460ff16612154565b6001600160401b0381116109545760051b60200190565b5f818152600360205260409020546001600160a01b03169081156121d3575090565b637e27328960e01b5f5260045260245ffd5b5f546001600160a01b031633036121f857565b63118cdaa760e01b5f523360045260245ffd5b823b612219575b5050505050565b604051630a85bd0160e11b81526001600160a01b039182166004820152918116602483015260448201939093526080606482015291169160209082908190612265906084830190611dfe565b03815f865af15f91816122fc575b506122c857503d156122c1573d61228981611d8f565b906122976040519283611d6e565b81523d5f602083013e5b805190816122bc5782633250574960e11b5f5260045260245ffd5b602001fd5b60606122a1565b6001600160e01b03191663757a42ff60e11b016122ea57505f80808080612212565b633250574960e11b5f5260045260245ffd5b9091506020813d602011612339575b8161231860209383611d6e565b810103126102d757516001600160e01b0319811681036102d757905f612273565b3d915061230b565b61234a816121b1565b505f52600760205261235e60405f20611e5a565b5f60405161236d602082611d6e565b529056fea26469706673582212205123d7bf93d2cc46c9a41356e386d381e2fef9db460749775e4949fc4a1a5dfc64736f6c634300081c0033",
  "linkReferences": {},
  "deployedLinkReferences": {}
}