{
  "_format": "hh-sol-artifact-1",
  "contractName": "ProduceTracking",
  "sourceName": "contracts/ProduceTracking.sol",
  "abi": [
    {
      "inputs": [],
      "stateMutability": "nonpayable",
      "type": "constructor"
    },
    {
      "inputs": [
        {
          "internalType": "address",
          "name": "sender",
          "type": "address"
        },
        {
          "internalType": "uint256",
          "name": "tokenId",
          "type": "uint256"
        },
        {
          "internalType": "address",
          "name": "owner",
          "type": "address"
        }
      ],
      "name": "ERC721IncorrectOwner",
      "type": "error"
    },
    {
      "inputs": [
        {
          "internalType": "address",
          "name": "operator",
          "type": "address"
        },
        {
          "internalType": "uint256",
          "name": "tokenId",
          "type": "uint256"
        }
      ],
      "name": "ERC721InsufficientApproval",
      "type": "error"
    },
    {
      "inputs": [
        {
          "internalType": "address",
          "name": "approver",
          "type": "address"
        }
      ],
      "name": "ERC721InvalidApprover",
      "type": "error"
    },
    {
      "inputs": [
        {
          "internalType": "address",
          "name": "operator",
          "type": "address"
        }
      ],
      "name": "ERC721InvalidOperator",
      "type": "error"
    },
    {
      "inputs": [
        {
          "internalType": "address",
          "name": "owner",
          "type": "address"
        }
      ],
      "name": "ERC721InvalidOwner",
      "type": "error"
    },
    {
      "inputs": [
        {
          "internalType": "address",
          "name": "receiver",
          "type": "address"
        }
      ],
      "name": "ERC721InvalidReceiver",
      "type": "error"
    },
    {
      "inputs": [
        {
          "internalType": "address",
          "name": "sender",
          "type": "address"
        }
      ],
      "name": "ERC721InvalidSender",
      "type": "error"
    },
    {
      "inputs": [
        {
          "internalType": "uint256",
          "name": "tokenId",
          "type": "uint256"
        }
      ],
      "name": "ERC721NonexistentToken",
      "type": "error"
    },
    {
      "inputs": [
        {
          "internalType": "address",
          "name": "owner",
          "type": "address"
        }
      ],
      "name": "OwnableInvalidOwner",
      "type": "error"
    },
    {
      "inputs": [
        {
          "internalType": "address",
          "name": "account",
          "type": "address"
        }
      ],
      "name": "OwnableUnauthorizedAccount",
      "type": "error"
    },
    {
      "anonymous": false,
      "inputs": [
        {
          "indexed": true,
          "internalType": "address",
          "name": "owner",
          "type": "address"
        },
        {
          "indexed": true,
          "internalType": "address",
          "name": "approved",
          "type": "address"
        },
        {
          "indexed": true,
          "internalType": "uint256",
          "name": "tokenId",
          "type": "uint256"
        }
      ],
      "name": "Approval",
      "type": "event"
    },
    {
      "anonymous": false,
      "inputs": [
        {
          "indexed": true,
          "internalType": "address",
          "name": "owner",
          "type": "address"
        },
        {
          "indexed": true,
          "internalType": "address",
          "name": "operator",
          "type": "address"
        },
        {
          "indexed": false,
          "internalType": "bool",
          "name": "approved",
          "type": "bool"
        }
      ],
      "name": "ApprovalForAll",
      "type": "event"
    },
    {
      "anonymous": false,
      "inputs": [
        {
          "indexed": false,
          "internalType": "uint256",
          "name": "_fromTokenId",
          "type": "uint256"
        },
        {
          "indexed": false,
          "internalType": "uint256",
          "name": "_toTokenId",
          "type": "uint256"
        }
      ],
      "name": "BatchMetadataUpdate",
      "type": "event"
    },
    {
      "anonymous": false,
      "inputs": [
        {
          "indexed": true,
          "internalType": "uint256",
          "name": "lotId",
          "type": "uint256"
        },
        {
          "indexed": false,
          "internalType": "string",
          "name": "location",
          "type": "string"
        },
        {
          "indexed": false,
          "internalType": "uint256",
          "name": "timestamp",
          "type": "uint256"
        }
      ],
      "name": "LocationUpdated",
      "type": "event"
    },
    {
      "anonymous": false,
      "inputs": [
        {
          "indexed": false,
          "internalType": "uint256",
          "name": "_tokenId",
          "type": "uint256"
        }
      ],
      "name": "MetadataUpdate",
      "type": "event"
    },
    {
      "anonymous": false,
      "inputs": [
        {
          "indexed": true,
          "internalType": "address",
          "name": "previousOwner",
          "type": "address"
        },
        {
          "indexed": true,
          "internalType": "address",
          "name": "newOwner",
          "type": "address"
        }
      ],
      "name": "OwnershipTransferred",
      "type": "event"
    },
    {
      "anonymous": false,
      "inputs": [
        {
          "indexed": true,
          "internalType": "uint256",
          "name": "lotId",
          "type": "uint256"
        },
        {
          "indexed": true,
          "internalType": "address",
          "name": "farmer",
          "type": "address"
        },
        {
          "indexed": false,
          "internalType": "string",
          "name": "produceType",
          "type": "string"
        }
      ],
      "name": "ProduceLotCreated",
      "type": "event"
    },
    {
      "anonymous": false,
      "inputs": [
        {
          "indexed": true,
          "internalType": "uint256",
          "name": "transactionId",
          "type": "uint256"
        },
        {
          "indexed": true,
          "internalType": "uint256",
          "name": "lotId",
          "type": "uint256"
        },
        {
          "indexed": false,
          "internalType": "address",
          "name": "from",
          "type": "address"
        },
        {
          "indexed": false,
          "internalType": "address",
          "name": "to",
          "type": "address"
        },
        {
          "indexed": false,
          "internalType": "uint256",
          "name": "quantity",
          "type": "uint256"
        }
      ],
      "name": "ProduceTransferred",
      "type": "event"
    },
    {
      "anonymous": false,
      "inputs": [
        {
          "indexed": true,
          "internalType": "uint256",
          "name": "lotId",
          "type": "uint256"
        },
        {
          "indexed": false,
          "internalType": "string",
          "name": "qualityMetrics",
          "type": "string"
        }
      ],
      "name": "QualityUpdated",
      "type": "event"
    },
    {
      "anonymous": false,
      "inputs": [
        {
          "indexed": true,
          "internalType": "address",
          "name": "from",
          "type": "address"
        },
        {
          "indexed": true,
          "internalType": "address",
          "name": "to",
          "type": "address"
        },
        {
          "indexed": true,
          "internalType": "uint256",
          "name": "tokenId",
          "type": "uint256"
        }
      ],
      "name": "Transfer",
      "type": "event"
    },
    {
      "inputs": [
        {
          "internalType": "uint256",
          "name": "_lotId",
          "type": "uint256"
        },
        {
          "internalType": "string",
          "name": "_location",
          "type": "string"
        }
      ],
      "name": "addLocationUpdate",
      "outputs": [],
      "stateMutability": "nonpayable",
      "type": "function"
    },
    {
      "inputs": [
        {
          "internalType": "address",
          "name": "to",
          "type": "address"
        },
        {
          "internalType": "uint256",
          "name": "tokenId",
          "type": "uint256"
        }
      ],
      "name": "approve",
      "outputs": [],
      "stateMutability": "nonpayable",
      "type": "function"
    },
    {
      "inputs": [
        {
          "internalType": "address",
          "name": "owner",
          "type": "address"
        }
      ],
      "name": "balanceOf",
      "outputs": [
        {
          "internalType": "uint256",
          "name": "",
          "type": "uint256"
        }
      ],
      "stateMutability": "view",
      "type": "function"
    },
    {
      "inputs": [
        {
          "internalType": "string",
          "name": "_produceType",
          "type": "string"
        },
        {
          "internalType": "uint256",
          "name": "_harvestDate",
          "type": "uint256"
        },
        {
          "internalType": "string",
          "name": "_qualityMetrics",
          "type": "string"
        },
        {
          "internalType": "string",
          "name": "_origin",
          "type": "string"
        },
        {
          "internalType": "uint256",
          "name": "_quantity",
          "type": "uint256"
        },
        {
          "internalType": "string",
          "name": "_tokenURI",
          "type": "string"
        }
      ],
      "name": "createProduceLot",
      "outputs": [
        {
          "internalType": "uint256",
          "name": "",
          "type": "uint256"
        }
      ],
      "stateMutability": "nonpayable",
      "type": "function"
    },
    {
      "inputs": [
        {
          "internalType": "uint256",
          "name": "tokenId",
          "type": "uint256"
        }
      ],
      "name": "getApproved",
      "outputs": [
        {
          "internalType": "address",
          "name": "",
          "type": "address"
        }
      ],
      "stateMutability": "view",
      "type": "function"
    },
    {
      "inputs": [
        {
          "internalType": "uint256",
          "name": "_lotId",
          "type": "uint256"
        }
      ],
      "name": "getLotLocationHistory",
      "outputs": [
        {
          "components": [
            {
              "internalType": "uint256",
              "name": "timestamp",
              "type": "uint256"
            },
            {
              "internalType": "string",
              "name": "location",
              "type": "string"
            }
          ],
          "internalType": "struct ProduceTracking.LocationUpdate[]",
          "name": "",
          "type": "tuple[]"
        }
      ],
      "stateMutability": "view",
      "type": "function"
    },
    {
      "inputs": [
        {
          "internalType": "uint256",
          "name": "_lotId",
          "type": "uint256"
        }
      ],
      "name": "getLotTransactions",
      "outputs": [
        {
          "components": [
            {
              "internalType": "uint256",
              "name": "transactionId",
              "type": "uint256"
            },
            {
              "internalType": "uint256",
              "name": "lotId",
              "type": "uint256"
            },
            {
              "internalType": "address",
              "name": "from",
              "type": "address"
            },
            {
              "internalType": "address",
              "name": "to",
              "type": "address"
            },
            {
              "internalType": "uint256",
              "name": "quantity",
              "type": "uint256"
            },
            {
              "internalType": "uint256",
              "name": "price",
              "type": "uint256"
            },
            {
              "internalType": "uint256",
              "name": "timestamp",
              "type": "uint256"
            },
            {
              "internalType": "string",
              "name": "transactionHash",
              "type": "string"
            }
          ],
          "internalType": "struct ProduceTracking.Transaction[]",
          "name": "",
          "type": "tuple[]"
        }
      ],
      "stateMutability": "view",
      "type": "function"
    },
    {
      "inputs": [
        {
          "internalType": "uint256",
          "name": "_lotId",
          "type": "uint256"
        }
      ],
      "name": "getProduceLot",
      "outputs": [
        {
          "components": [
            {
              "internalType": "address",
              "name": "farmer",
              "type": "address"
            },
            {
              "internalType": "string",
              "name": "produceType",
              "type": "string"
            },
            {
              "internalType": "uint256",
              "name": "harvestDate",
              "type": "uint256"
            },
            {
              "internalType": "string",
              "name": "qualityMetrics",
              "type": "string"
            },
            {
              "internalType": "string",
              "name": "origin",
              "type": "string"
            },
            {
              "internalType": "uint256",
              "name": "quantity",
              "type": "uint256"
            },
            {
              "internalType": "address",
              "name": "currentOwner",
              "type": "address"
            }
          ],
          "internalType": "struct ProduceTracking.ProduceLot",
          "name": "",
          "type": "tuple"
        }
      ],
      "stateMutability": "view",
      "type": "function"
    },
    {
      "inputs": [
        {
          "internalType": "address",
          "name": "owner",
          "type": "address"
        },
        {
          "internalType": "address",
          "name": "operator",
          "type": "address"
        }
      ],
      "name": "isApprovedForAll",
      "outputs": [
        {
          "internalType": "bool",
          "name": "",
          "type": "bool"
        }
      ],
      "stateMutability": "view",
      "type": "function"
    },
    {
      "inputs": [
        {
          "internalType": "uint256",
          "name": "",
          "type": "uint256"
        },
        {
          "internalType": "uint256",
          "name": "",
          "type": "uint256"
        }
      ],
      "name": "lotLocationHistory",
      "outputs": [
        {
          "internalType": "uint256",
          "name": "timestamp",
          "type": "uint256"
        },
        {
          "internalType": "string",
          "name": "location",
          "type": "string"
        }
      ],
      "stateMutability": "view",
      "type": "function"
    },
    {
      "inputs": [
        {
          "internalType": "uint256",
          "name": "",
          "type": "uint256"
        },
        {
          "internalType": "uint256",
          "name": "",
          "type": "uint256"
        }
      ],
      "name": "lotTransactions",
      "outputs": [
        {
          "internalType": "uint256",
          "name": "transactionId",
          "type": "uint256"
        },
        {
          "internalType": "uint256",
          "name": "lotId",
          "type": "uint256"
        },
        {
          "internalType": "address",
          "name": "from",
          "type": "address"
        },
        {
          "internalType": "address",
          "name": "to",
          "type": "address"
        },
        {
          "internalType": "uint256",
          "name": "quantity",
          "type": "uint256"
        },
        {
          "internalType": "uint256",
          "name": "price",
          "type": "uint256"
        },
        {
          "internalType": "uint256",
          "name": "timestamp",
          "type": "uint256"
        },
        {
          "internalType": "string",
          "name": "transactionHash",
          "type": "string"
        }
      ],
      "stateMutability": "view",
      "type": "function"
    },
    {
      "inputs": [],
      "name": "name",
      "outputs": [
        {
          "internalType": "string",
          "name": "",
          "type": "string"
        }
      ],
      "stateMutability": "view",
      "type": "function"
    },
    {
      "inputs": [],
      "name": "owner",
      "outputs": [
        {
          "internalType": "address",
          "name": "",
          "type": "address"
        }
      ],
      "stateMutability": "view",
      "type": "function"
    },
    {
      "inputs": [
        {
          "internalType": "uint256",
          "name": "tokenId",
          "type": "uint256"
        }
      ],
      "name": "ownerOf",
      "outputs": [
        {
          "internalType": "address",
          "name": "",
          "type": "address"
        }
      ],
      "stateMutability": "view",
      "type": "function"
    },
    {
      "inputs": [
        {
          "internalType": "uint256",
          "name": "",
          "type": "uint256"
        }
      ],
      "name": "produceLots",
      "outputs": [
        {
          "internalType": "address",
          "name": "farmer",
          "type": "address"
        },
        {
          "internalType": "string",
          "name": "produceType",
          "type": "string"
        },
        {
          "internalType": "uint256",
          "name": "harvestDate",
          "type": "uint256"
        },
        {
          "internalType": "string",
          "name": "qualityMetrics",
          "type": "string"
        },
        {
          "internalType": "string",
          "name": "origin",
          "type": "string"
        },
        {
          "internalType": "uint256",
          "name": "quantity",
          "type": "uint256"
        },
        {
          "internalType": "address",
          "name": "currentOwner",
          "type": "address"
        }
      ],
      "stateMutability": "view",
      "type": "function"
    },
    {
      "inputs": [
        {
          "internalType": "uint256",
          "name": "_lotId",
          "type": "uint256"
        },
        {
          "internalType": "address",
          "name": "_to",
          "type": "address"
        },
        {
          "internalType": "uint256",
          "name": "_quantity",
          "type": "uint256"
        },
        {
          "internalType": "uint256",
          "name": "_price",
          "type": "uint256"
        },
        {
          "internalType": "string",
          "name": "_transactionHash",
          "type": "string"
        }
      ],
      "name": "recordProduceTransfer",
      "outputs": [],
      "stateMutability": "nonpayable",
      "type": "function"
    },
    {
      "inputs": [],
      "name": "renounceOwnership",
      "outputs": [],
      "stateMutability": "nonpayable",
      "type": "function"
    },
    {
      "inputs": [
        {
          "internalType": "address",
          "name": "from",
          "type": "address"
        },
        {
          "internalType": "address",
          "name": "to",
          "type": "address"
        },
        {
          "internalType": "uint256",
          "name": "tokenId",
          "type": "uint256"
        }
      ],
      "name": "safeTransferFrom",
      "outputs": [],
      "stateMutability": "nonpayable",
      "type": "function"
    },
    {
      "inputs": [
        {
          "internalType": "address",
          "name": "from",
          "type": "address"
        },
        {
          "internalType": "address",
          "name": "to",
          "type": "address"
        },
        {
          "internalType": "uint256",
          "name": "tokenId",
          "type": "uint256"
        },
        {
          "internalType": "bytes",
          "name": "data",
          "type": "bytes"
        }
      ],
      "name": "safeTransferFrom",
      "outputs": [],
      "stateMutability": "nonpayable",
      "type": "function"
    },
    {
      "inputs": [
        {
          "internalType": "address",
          "name": "operator",
          "type": "address"
        },
        {
          "internalType": "bool",
          "name": "approved",
          "type": "bool"
        }
      ],
      "name": "setApprovalForAll",
      "outputs": [],
      "stateMutability": "nonpayable",
      "type": "function"
    },
    {
      "inputs": [
        {
          "internalType": "bytes4",
          "name": "interfaceId",
          "type": "bytes4"
        }
      ],
      "name": "supportsInterface",
      "outputs": [
        {
          "internalType": "bool",
          "name": "",
          "type": "bool"
        }
      ],
      "stateMutability": "view",
      "type": "function"
    },
    {
      "inputs": [],
      "name": "symbol",
      "outputs": [
        {
          "internalType": "string",
          "name": "",
          "type": "string"
        }
      ],
      "stateMutability": "view",
      "type": "function"
    },
    {
      "inputs": [
        {
          "internalType": "uint256",
          "name": "tokenId",
          "type": "uint256"
        }
      ],
      "name": "tokenURI",
      "outputs": [
        {
          "internalType": "string",
          "name": "",
          "type": "string"
        }
      ],
      "stateMutability": "view",
      "type": "function"
    },
    {
      "inputs": [
        {
          "internalType": "bytes32",
          "name": "",
          "type": "bytes32"
        }
      ],
      "name": "transactionHashes",
      "outputs": [
        {
          "internalType": "bool",
          "name": "",
          "type": "bool"
        }
      ],
      "stateMutability": "view",
      "type": "function"
    },
    {
      "inputs": [
        {
          "internalType": "address",
          "name": "from",
          "type": "address"
        },
        {
          "internalType": "address",
          "name": "to",
          "type": "address"
        },
        {
          "internalType": "uint256",
          "name": "tokenId",
          "type": "uint256"
        }
      ],
      "name": "transferFrom",
      "outputs": [],
      "stateMutability": "nonpayable",
      "type": "function"
    },
    {
      "inputs": [
        {
          "internalType": "address",
          "name": "newOwner",
          "type": "address"
        }
      ],
      "name": "transferOwnership",
      "outputs": [],
      "stateMutability": "nonpayable",
      "type": "function"
    },
    {
      "inputs": [
        {
          "internalType": "uint256",
          "name": "_lotId",
          "type": "uint256"
        },
        {
          "internalType": "string",
          "name": "_qualityMetrics",
          "type": "string"
        }
      ],
      "name": "updateQualityMetrics",
      "outputs": [],
      "stateMutability": "nonpayable",
      "type": "function"
    }
  ],
  "bytecode": "0x60806040523461038557604080519081016001600160401b03811182821017610285576040908152601782527f46696e6f766174655061792050726f6475636520525741000000000000000000602083015280519081016001600160401b03811182821017610285576040526005815264465052574160d81b60208201523315610372575f8054336001600160a01b0319821681178355916001600160a01b03909116907f8be0079c531659141344cd1fd0a4f28419497f9722a3daafe3b4186f6b6457e09080a381516001600160401b03811161028557600154600181811c91168015610368575b602082101461026757601f8111610305575b50602092601f82116001146102a457928192935f92610299575b50508160011b915f199060031b1c1916176001555b80516001600160401b03811161028557600254600181811c9116801561027b575b602082101461026757601f8111610204575b50602091601f82116001146101a4579181925f92610199575b50508160011b915f199060031b1c1916176002555b604051612440908161038a8239f35b015190505f80610175565b601f1982169260025f52805f20915f5b8581106101ec575083600195106101d4575b505050811b0160025561018a565b01515f1960f88460031b161c191690555f80806101c6565b919260206001819286850151815501940192016101b4565b60025f527f405787fa12a823e0f2b7631cc41b3ba8828b3321ca811111fa75cd3aa3bb5ace601f830160051c8101916020841061025d575b601f0160051c01905b818110610252575061015c565b5f8155600101610245565b909150819061023c565b634e487b7160e01b5f52602260045260245ffd5b90607f169061014a565b634e487b7160e01b5f52604160045260245ffd5b015190505f80610114565b601f1982169360015f52805f20915f5b8681106102ed57508360019596106102d5575b505050811b01600155610129565b01515f1960f88460031b161c191690555f80806102c7565b919260206001819286850151815501940192016102b4565b60015f527fb10e2d527612073b26eecdfd717e6a320cf44b4afac2b0732d9fcbe2b7fa0cf6601f830160051c8101916020841061035e575b601f0160051c01905b81811061035357506100fa565b5f8155600101610346565b909150819061033d565b90607f16906100e8565b631e4fbdf760e01b5f525f60045260245ffd5b5f80fdfe6080806040526004361015610012575f80fd5b5f3560e01c90816301ffc9a714611c84575080630532070d1461191457806306fdde031461186f578063081812fc14611833578063095ea7b31461174957806309fb61f51461171a5780631f037f3b1461165c57806323b872dd1461164557806342842e0e14611616578063482e9a48146114c5578063518f01f1146113255780636352211e146112f557806370a08231146112a4578063715018a61461124d5780638b0b326a146111505780638da5cb5b1461112957806395d89b411461105f578063a22cb46514610fab578063b88d4fde14610f3e578063ba95c0bb14610d02578063c3707a1e146104f1578063c87b56dd146104be578063d719f50e14610465578063e153d513146103b7578063e985e9c514610360578063f2fde38b146102db5763f3bbf9de14610145575f80fd5b346102d75760203660031901126102d7576004355f52600a60205260405f20805490610170826121b3565b9161017e6040519384611d87565b8083526020830180925f5260205f205f915b83831061025957848660405191829160208301906020845251809152604083019060408160051b85010192915f905b8282106101ce57505050500390f35b919360019193955060206102498192603f198a820301865261010060e08a51805184528581015186850152878060a01b036040820151166040850152878060a01b0360608201511660608501526080810151608085015260a081015160a085015260c081015160c08501520151918160e08201520190611e17565b96019201920185949391926101bf565b6008602060019260405161026c81611d35565b855481528486015483820152848060a01b036002870154166040820152848060a01b03600387015416606082015260048601546080820152600586015460a0820152600686015460c08201526102c460078701611e73565b60e0820152815201920192019190610190565b5f80fd5b346102d75760203660031901126102d7576102f4611d1f565b6102fc6121fe565b6001600160a01b0316801561034d575f80546001600160a01b03198116831782556001600160a01b0316907f8be0079c531659141344cd1fd0a4f28419497f9722a3daafe3b4186f6b6457e09080a3005b631e4fbdf760e01b5f525f60045260245ffd5b346102d75760403660031901126102d757610379611d1f565b610381611d09565b9060018060a01b03165f52600660205260405f209060018060a01b03165f52602052602060ff60405f2054166040519015158152f35b346102d7576103c536611f7c565b905f52600a60205260405f209081548110156102d7576103e491611fbf565b50805461046160018301549260018060a01b036002820154169060018060a01b036003820154166004820154600583015491610427600760068601549501611e73565b946040519889988952602089015260408801526060870152608086015260a085015260c084015261010060e0840152610100830190611e17565b0390f35b346102d75761047336611f7c565b905f52600b60205260405f209081548110156102d75761049291611f92565b506104a1600182549201611e73565b906104616040519283928352604060208401526040830190611e17565b346102d75760203660031901126102d7576104616104dd60043561235a565b604051918291602083526020830190611e17565b346102d75760c03660031901126102d7576004356001600160401b0381116102d757610521903690600401611df9565b6044356001600160401b0381116102d757610540903690600401611df9565b906064356001600160401b0381116102d757610560903690600401611df9565b9060a4356001600160401b0381116102d757610580903690600401611df9565b9261058c600854612018565b92836008556020946040516105a18782611d87565b5f81523315610cef575f8681526003885260409020546001600160a01b03168015159081610cbe575b335f81815260048b526040808220805460010190558a825260038c52812080546001600160a01b0319168317905589919083907fddf252ad1be2c89b69c2b068fc378daa952ba7f163c4a11628f55a4df523b3ef9080a450610cab5786333b610ba0575b5050845f526007865260405f20908051906001600160401b0382116109545781906106598454611e3b565b601f8111610b52575b508890601f8311600114610aef575f92610ae4575b50508160011b915f199060031b1c19161790555b7ff8e1a15aba9398e019f0b49df1a4fde98ee17ae345cb5f6b5e2c27f5033e8ce785604051868152a1604051916106c183611d51565b338084528684018581526024356040808701918252606087019485526080870195865260843560a0880190815260c088019485525f8a815260098c5291909120965187546001600160a01b0319166001600160a01b03919091161787559151805193959294929360018801916001600160401b0382116109545781908c6107488554611e3b565b601f8111610a93575b50508c908d601f8411600114610a2f57505f92610a24575b50508160011b915f199060031b1c19161790555b51600286015551805160038601916001600160401b0382116109545781906107a58454611e3b565b601f81116109d6575b508a90601f8311600114610973575f92610968575b50508160011b915f199060031b1c19161790555b51805160048501916001600160401b038211610954576107f78354611e3b565b601f8111610911575b508890601f83116001146108a957600695949392915f918361089e575b50508160011b915f199060031b1c19161790555b51600584015551910180546001600160a01b0319166001600160a01b0392909216919091179055604051838152339183917f85619cdc50fc0f491bb316204858968bc8c7634aeaeb6563818eb053047e061b9181906108939088830190611e17565b0390a3604051908152f35b015190508a8061081d565b90601f19831691845f528a5f20925f5b8c8282106108fb57505091600193918560069998979694106108e3575b505050811b019055610831565b01515f1960f88460031b161c191690558a80806108d6565b60018596829396860151815501950193016108b9565b835f52895f20601f840160051c8101918b851061094a575b601f0160051c01905b81811061093f5750610800565b5f8155600101610932565b9091508190610929565b634e487b7160e01b5f52604160045260245ffd5b015190508a806107c3565b5f8581528c81209350601f198516905b8d8282106109c05750509084600195949392106109a8575b505050811b0190556107d7565b01515f1960f88460031b161c191690558a808061099b565b6001859682939686015181550195019301610983565b909150835f528a5f20601f840160051c8101918c8510610a1a575b90601f859493920160051c01905b818110610a0c57506107ae565b5f81558493506001016109ff565b90915081906109f1565b015190508c80610769565b5f8681528181209450601f198616915b828210610a7b575050908460019594939210610a63575b505050811b01905561077d565b01515f1960f88460031b161c191690558c8080610a56565b80600186978294978701518155019601940190610a3f565b90919250845f52815f2090601f850160051c8201928510610ada575b90601f859493920160051c01905b818110610acc578e9150610751565b5f8155849350600101610abd565b9091508190610aaf565b015190508880610677565b5f8581528a81209350601f198516905b8b828210610b3c575050908460019594939210610b24575b505050811b01905561068b565b01515f1960f88460031b161c19169055888080610b17565b6001859682939686015181550195019301610aff565b909150835f52885f20601f840160051c8101918a8510610b96575b90601f859493920160051c01905b818110610b885750610662565b5f8155849350600101610b7b565b9091508190610b6d565b610bd89160405180938192630a85bd0160e11b83523360048401525f60248401528a6044840152608060648401526084830190611e17565b03815f335af15f9181610c6b575b50610c3a57863d15610c32573d90610bfd82611da8565b91610c0b6040519384611d87565b82523d5f8284013e5b81519182610c2f57633250574960e11b5f523360045260245ffd5b01fd5b606090610c14565b6001600160e01b03191663757a42ff60e11b01610c5857868661062e565b633250574960e11b5f523360045260245ffd5b9091508781813d8311610ca4575b610c838183611d87565b810103126102d757516001600160e01b0319811681036102d7579088610be6565b503d610c79565b6339e3563760e11b5f525f60045260245ffd5b5f8881526005602052604080822080546001600160a01b031916905582825260048b52902080545f190190556105ca565b633250574960e11b5f525f60045260245ffd5b346102d757610d1036611f4d565b906001600160a01b03610d22826121ca565b1615610ef957805f52600b60205260405f2091604051610d4181611d6c565b42815260208101938285528054600160401b81101561095457610d6991600182018155611f92565b610ee6576001915181550192519283516001600160401b03811161095457610d918254611e3b565b601f8111610ea1575b506020601f8211600114610e18579080610e029493927f08c1aa8a3ded74821ab8fe6981a7dd0f9ebb0c3fcef9196f34b9f4e9d0e4edcd96975f92610e0d575b50508160011b915f199060031b1c19161790555b604051918291604083526040830190611e17565b4260208301520390a2005b015190508780610dda565b601f19821695835f52815f20965f5b818110610e895750966001928492610e029796957f08c1aa8a3ded74821ab8fe6981a7dd0f9ebb0c3fcef9196f34b9f4e9d0e4edcd999a10610e71575b505050811b019055610dee565b01515f1960f88460031b161c19169055878080610e64565b83830151895560019098019760209384019301610e27565b825f5260205f20601f830160051c81019160208410610edc575b601f0160051c01905b818110610ed15750610d9a565b5f8155600101610ec4565b9091508190610ebb565b634e487b7160e01b5f525f60045260245ffd5b60405162461bcd60e51b815260206004820152601a60248201527f50726f64756365206c6f7420646f6573206e6f742065786973740000000000006044820152606490fd5b346102d75760803660031901126102d757610f57611d1f565b610f5f611d09565b90604435606435926001600160401b0384116102d757366023850112156102d757610f97610fa9943690602481600401359101611dc3565b92610fa3838383612026565b33612224565b005b346102d75760403660031901126102d757610fc4611d1f565b602435908115158092036102d757331561104c576001600160a01b031690811561103957335f52600660205260405f20825f5260205260405f2060ff1981541660ff83161790556040519081527f17307eab39ab6107e8899845ad3d59bd9653f200f220920489ca2b5937696c3160203392a3005b50630b61174360e31b5f5260045260245ffd5b63a9fbf51f60e01b5f525f60045260245ffd5b346102d7575f3660031901126102d7576040515f60025461107f81611e3b565b808452906001811690811561110557506001146110a7575b610461836104dd81850382611d87565b60025f9081527f405787fa12a823e0f2b7631cc41b3ba8828b3321ca811111fa75cd3aa3bb5ace939250905b8082106110eb575090915081016020016104dd611097565b9192600181602092548385880101520191019092916110d3565b60ff191660208086019190915291151560051b840190910191506104dd9050611097565b346102d7575f3660031901126102d7575f546040516001600160a01b039091168152602090f35b346102d75760203660031901126102d7576004355f52600b60205260405f2080549061117b826121b3565b916111896040519384611d87565b8083526020830180925f5260205f205f915b83831061121957848660405191829160208301906020845251809152604083019060408160051b85010192915f905b8282106111d957505050500390f35b919360019193955060206112098192603f198a82030186526040838a518051845201519181858201520190611e17565b96019201920185949391926111ca565b6002602060019260405161122c81611d6c565b8554815261123b858701611e73565b8382015281520192019201919061119b565b346102d7575f3660031901126102d7576112656121fe565b5f80546001600160a01b0319811682556001600160a01b03167f8be0079c531659141344cd1fd0a4f28419497f9722a3daafe3b4186f6b6457e08280a3005b346102d75760203660031901126102d7576001600160a01b036112c5611d1f565b1680156112e2575f526004602052602060405f2054604051908152f35b6322718ad960e21b5f525f60045260245ffd5b346102d75760203660031901126102d75760206113136004356121ca565b6040516001600160a01b039091168152f35b346102d75761133336611f4d565b90611350611340826121ca565b6001600160a01b03163314611fd8565b805f526009602052600360405f2001918051926001600160401b0384116109545761137b8154611e3b565b601f8111611480575b50602093601f81116001146113fa5790816113ea93927ff72ed4a2b7121d28d35e9fff41ce2b51851c62b79d5cee9fe9f369c0f3a1031b95965f916113ef575b508160011b915f199060031b1c1916179055604051918291602083526020830190611e17565b0390a2005b9050830151876113c4565b601f198116825f52855f20905f5b8181106114685750916001917ff72ed4a2b7121d28d35e9fff41ce2b51851c62b79d5cee9fe9f369c0f3a1031b9697826113ea97969510611450575b5050811b0190556104dd565b8501515f1960f88460031b161c191690558780611444565b85880151835560209788019760019093019201611408565b815f5260205f20601f860160051c810191602087106114bb575b601f0160051c01905b8181106114b05750611384565b5f81556001016114a3565b909150819061149a565b346102d75760203660031901126102d7575f60c06040516114e581611d51565b82815260606020820152826040820152606080820152606060808201528260a082015201526004355f52600960205260405f2060405161152481611d51565b81546001600160a01b0316815261153d60018301611e73565b91602082019283526002810154604083019081526115fc61156060038401611e73565b91606085019283526115e961157760048601611e73565b916080870192835260058601549560a08801968752600660018060a01b03910154169460c088019586526115d0604051998a9960208b5260018060a01b0390511660208b01525160e060408b01526101008a0190611e17565b9151606089015251878203601f19016080890152611e17565b9051858203601f190160a0870152611e17565b915160c0840152516001600160a01b031660e08301520390f35b346102d757610fa961162736611f13565b9060405192611637602085611d87565b5f8452610fa3838383612026565b346102d757610fa961165636611f13565b91612026565b346102d75760203660031901126102d7576004355f90815260096020526040902080546001600160a01b031661169460018301611e73565b91600281015461170b6116a960038401611e73565b916116fd6116b960048601611e73565b91600586015495600660018060a01b0391015416946116ea604051998a998a5260e060208b015260e08a0190611e17565b9160408901528782036060890152611e17565b908582036080870152611e17565b9160a084015260c08301520390f35b346102d75760203660031901126102d7576004355f52600c602052602060ff60405f2054166040519015158152f35b346102d75760403660031901126102d757611762611d1f565b60243561176e816121ca565b33151580611820575b806117f3575b6117e05781906001600160a01b0384811691167f8c5be1e5ebec7d5bd14f71427d1e84f3dd0314c0f7b2291e5b200ac8c7c3b9255f80a45f90815260056020526040902080546001600160a01b0319166001600160a01b03909216919091179055005b63a9fbf51f60e01b5f523360045260245ffd5b506001600160a01b0381165f90815260066020908152604080832033845290915290205460ff161561177d565b506001600160a01b038116331415611777565b346102d75760203660031901126102d757600435611850816121ca565b505f526005602052602060018060a01b0360405f205416604051908152f35b346102d7575f3660031901126102d7576040515f60015461188f81611e3b565b808452906001811690811561110557506001146118b657610461836104dd81850382611d87565b60015f9081527fb10e2d527612073b26eecdfd717e6a320cf44b4afac2b0732d9fcbe2b7fa0cf6939250905b8082106118fa575090915081016020016104dd611097565b9192600181602092548385880101520191019092916118e2565b346102d75760a03660031901126102d757600435611930611d09565b604435906084356001600160401b0381116102d757611953903690600401611df9565b91611960611340856121ca565b604051602081019061198c602082875180838a01875e81015f838201520301601f198101835282611d87565b519020805f52600c60205260ff60405f205416611c3f576119ae600d54612018565b9384600d55855f526009602052600560405f2001805490848203918211611c2b5755855f52600a60205260405f20604051906119e982611d35565b868252602082019088825260408301338152606084019760018060a01b031697888152608085019088825260a0860192606435845260c087019442865260e088019889528054600160401b81101561095457611a4a91600182018155611fbf565b969096610ee657965186559551600186015594516002850180546001600160a01b03199081166001600160a01b039384161790915595516003860180549097169116179094559251600483015591516005820155905160068201559051805160079290920191906001600160401b03821161095457611ac98354611e3b565b601f8111611be6575b50602090601f8311600114611b5c57918060609694927fd32b5aee102532eca99706fcdf0cdfef857551563b8d7981be87432450d775439896945f92611b51575b50508160011b915f199060031b1c19161790555b5f52600c60205260405f20600160ff198254161790556040519133835260208301526040820152a3005b015190508a80611b13565b90601f19831691845f52815f20925f5b818110611bce57509260019285927fd32b5aee102532eca99706fcdf0cdfef857551563b8d7981be87432450d775439a989660609a989610611bb6575b505050811b019055611b27565b01515f1960f88460031b161c191690558a8080611ba9565b92936020600181928786015181550195019301611b6c565b835f5260205f20601f840160051c81019160208510611c21575b601f0160051c01905b818110611c165750611ad2565b5f8155600101611c09565b9091508190611c00565b634e487b7160e01b5f52601160045260245ffd5b60405162461bcd60e51b815260206004820152601c60248201527f5472616e73616374696f6e20616c7265616479207265636f72646564000000006044820152606490fd5b346102d75760203660031901126102d7576004359063ffffffff60e01b82168092036102d757602091632483248360e11b8114908115611cc6575b5015158152f35b6380ac58cd60e01b811491508115611cf8575b8115611ce7575b5083611cbf565b6301ffc9a760e01b14905083611ce0565b635b5e139f60e01b81149150611cd9565b602435906001600160a01b03821682036102d757565b600435906001600160a01b03821682036102d757565b61010081019081106001600160401b0382111761095457604052565b60e081019081106001600160401b0382111761095457604052565b604081019081106001600160401b0382111761095457604052565b90601f801991011681019081106001600160401b0382111761095457604052565b6001600160401b03811161095457601f01601f191660200190565b929192611dcf82611da8565b91611ddd6040519384611d87565b8294818452818301116102d7578281602093845f960137010152565b9080601f830112156102d757816020611e1493359101611dc3565b90565b805180835260209291819084018484015e5f828201840152601f01601f1916010190565b90600182811c92168015611e69575b6020831014611e5557565b634e487b7160e01b5f52602260045260245ffd5b91607f1691611e4a565b9060405191825f825492611e8684611e3b565b8084529360018116908115611ef15750600114611ead575b50611eab92500383611d87565b565b90505f9291925260205f20905f915b818310611ed5575050906020611eab928201015f611e9e565b6020919350806001915483858901015201910190918492611ebc565b905060209250611eab94915060ff191682840152151560051b8201015f611e9e565b60609060031901126102d7576004356001600160a01b03811681036102d757906024356001600160a01b03811681036102d7579060443590565b9060406003198301126102d75760043591602435906001600160401b0382116102d757611e1491600401611df9565b60409060031901126102d7576004359060243590565b8054821015611fab575f5260205f209060011b01905f90565b634e487b7160e01b5f52603260045260245ffd5b8054821015611fab575f5260205f209060031b01905f90565b15611fdf57565b60405162461bcd60e51b81526020600482015260116024820152702737ba103a343290292ba09037bbb732b960791b6044820152606490fd5b5f198114611c2b5760010190565b6001600160a01b0390911691908215610cef575f828152600360205260409020546001600160a01b03169282903315158061211e575b50846120eb575b805f52600460205260405f2060018154019055815f52600360205260405f20816bffffffffffffffffffffffff60a01b825416179055847fddf252ad1be2c89b69c2b068fc378daa952ba7f163c4a11628f55a4df523b3ef5f80a46001600160a01b03168083036120d357505050565b6364283d7b60e01b5f5260045260245260445260645ffd5b5f82815260056020526040902080546001600160a01b0319169055845f52600460205260405f205f198154019055612063565b90915080612162575b156121345782905f61205c565b828461214c57637e27328960e01b5f5260045260245ffd5b63177e802f60e01b5f523360045260245260445ffd5b503384148015612191575b8061212757505f838152600560205260409020546001600160a01b03163314612127565b505f84815260066020908152604080832033845290915290205460ff1661216d565b6001600160401b0381116109545760051b60200190565b5f818152600360205260409020546001600160a01b03169081156121ec575090565b637e27328960e01b5f5260045260245ffd5b5f546001600160a01b0316330361221157565b63118cdaa760e01b5f523360045260245ffd5b823b612232575b5050505050565b604051630a85bd0160e11b81526001600160a01b03918216600482015291811660248301526044820193909352608060648201529116916020908290819061227e906084830190611e17565b03815f865af15f9181612315575b506122e157503d156122da573d6122a281611da8565b906122b06040519283611d87565b81523d5f602083013e5b805190816122d55782633250574960e11b5f5260045260245ffd5b602001fd5b60606122ba565b6001600160e01b03191663757a42ff60e11b0161230357505f8080808061222b565b633250574960e11b5f5260045260245ffd5b9091506020813d602011612352575b8161233160209383611d87565b810103126102d757516001600160e01b0319811681036102d757905f61228c565b3d9150612324565b612363816121ca565b506020906040516123748382611d87565b5f8152815f526007835261238a60405f20611e73565b81511561240357808491516123c8575050506123a5906121ca565b505f6040516123b48382611d87565b526123c26040519182611d87565b5f815290565b611e14935081906040519584879551918291018487015e8401908282015f8152815193849201905e01015f815203601f198101835282611d87565b925050509056fea2646970667358221220c14ac11c7a4d4a874ea78598e1cc3a34c0923d790d0405a26d717537271c01d064736f6c634300081c0033",
  "linkReferences": {},
  "deployedLinkReferences": {}
}