{
  "_format": "hh-sol-artifact-1",
  "contractName": "StreamingPayment",
  "sourceName": "contracts/StreamingPayment.sol",
  "abi": [
    {
      "inputs": [
        {
          "internalType": "address",
          "name": "_trustedForwarder",
          "type": "address"
        },
        {
          "internalType": "address",
          "name": "_complianceManager",
          "type": "address"
        },
        {
          "internalType": "address",
          "name": "_treasury",
          "type": "address"
        }
      ],
      "stateMutability": "nonpayable",
      "type": "constructor"
    },
    {
      "inputs": [],
      "name": "EnforcedPause",
      "type": "error"
    },
    {
      "inputs": [],
      "name": "ExpectedPause",
      "type": "error"
    },
    {
      "inputs": [],
      "name": "ReentrancyGuardReentrantCall",
      "type": "error"
    },
    {
      "inputs": [
        {
          "internalType": "address",
          "name": "token",
          "type": "address"
        }
      ],
      "name": "SafeERC20FailedOperation",
      "type": "error"
    },
    {
      "anonymous": false,
      "inputs": [
        {
          "indexed": false,
          "internalType": "uint256",
          "name": "oldFee",
          "type": "uint256"
        },
        {
          "indexed": false,
          "internalType": "uint256",
          "name": "newFee",
          "type": "uint256"
        }
      ],
      "name": "FeeUpdated",
      "type": "event"
    },
    {
      "anonymous": false,
      "inputs": [
        {
          "indexed": false,
          "internalType": "address",
          "name": "account",
          "type": "address"
        }
      ],
      "name": "Paused",
      "type": "event"
    },
    {
      "anonymous": false,
      "inputs": [
        {
          "indexed": true,
          "internalType": "bytes32",
          "name": "streamId",
          "type": "bytes32"
        },
        {
          "indexed": false,
          "internalType": "uint256",
          "name": "amount",
          "type": "uint256"
        },
        {
          "indexed": false,
          "internalType": "uint256",
          "name": "intervalsCompleted",
          "type": "uint256"
        }
      ],
      "name": "PaymentReleased",
      "type": "event"
    },
    {
      "anonymous": false,
      "inputs": [
        {
          "indexed": true,
          "internalType": "bytes32",
          "name": "streamId",
          "type": "bytes32"
        },
        {
          "indexed": true,
          "internalType": "address",
          "name": "buyer",
          "type": "address"
        },
        {
          "indexed": false,
          "internalType": "uint256",
          "name": "fundedAmount",
          "type": "uint256"
        }
      ],
      "name": "StreamApproved",
      "type": "event"
    },
    {
      "anonymous": false,
      "inputs": [
        {
          "indexed": true,
          "internalType": "bytes32",
          "name": "streamId",
          "type": "bytes32"
        },
        {
          "indexed": true,
          "internalType": "address",
          "name": "canceller",
          "type": "address"
        },
        {
          "indexed": false,
          "internalType": "uint256",
          "name": "remainingBalance",
          "type": "uint256"
        }
      ],
      "name": "StreamCancelled",
      "type": "event"
    },
    {
      "anonymous": false,
      "inputs": [
        {
          "indexed": true,
          "internalType": "bytes32",
          "name": "streamId",
          "type": "bytes32"
        },
        {
          "indexed": false,
          "internalType": "uint256",
          "name": "totalReleased",
          "type": "uint256"
        },
        {
          "indexed": false,
          "internalType": "uint256",
          "name": "intervalsCompleted",
          "type": "uint256"
        }
      ],
      "name": "StreamCompleted",
      "type": "event"
    },
    {
      "anonymous": false,
      "inputs": [
        {
          "indexed": true,
          "internalType": "bytes32",
          "name": "streamId",
          "type": "bytes32"
        },
        {
          "indexed": true,
          "internalType": "address",
          "name": "seller",
          "type": "address"
        },
        {
          "indexed": true,
          "internalType": "address",
          "name": "buyer",
          "type": "address"
        },
        {
          "indexed": false,
          "internalType": "uint256",
          "name": "amount",
          "type": "uint256"
        },
        {
          "indexed": false,
          "internalType": "uint256",
          "name": "perIntervalAmount",
          "type": "uint256"
        },
        {
          "indexed": false,
          "internalType": "address",
          "name": "token",
          "type": "address"
        },
        {
          "indexed": false,
          "internalType": "enum StreamingPayment.Interval",
          "name": "interval",
          "type": "uint8"
        },
        {
          "indexed": false,
          "internalType": "string",
          "name": "description",
          "type": "string"
        }
      ],
      "name": "StreamCreated",
      "type": "event"
    },
    {
      "anonymous": false,
      "inputs": [
        {
          "indexed": true,
          "internalType": "bytes32",
          "name": "streamId",
          "type": "bytes32"
        },
        {
          "indexed": true,
          "internalType": "address",
          "name": "pauser",
          "type": "address"
        }
      ],
      "name": "StreamPaused",
      "type": "event"
    },
    {
      "anonymous": false,
      "inputs": [
        {
          "indexed": true,
          "internalType": "bytes32",
          "name": "streamId",
          "type": "bytes32"
        },
        {
          "indexed": true,
          "internalType": "address",
          "name": "resumer",
          "type": "address"
        }
      ],
      "name": "StreamResumed",
      "type": "event"
    },
    {
      "anonymous": false,
      "inputs": [
        {
          "indexed": true,
          "internalType": "bytes32",
          "name": "streamId",
          "type": "bytes32"
        },
        {
          "indexed": false,
          "internalType": "uint256",
          "name": "startTime",
          "type": "uint256"
        },
        {
          "indexed": false,
          "internalType": "uint256",
          "name": "nextReleaseTime",
          "type": "uint256"
        }
      ],
      "name": "StreamStarted",
      "type": "event"
    },
    {
      "anonymous": false,
      "inputs": [
        {
          "indexed": false,
          "internalType": "address",
          "name": "account",
          "type": "address"
        }
      ],
      "name": "Unpaused",
      "type": "event"
    },
    {
      "inputs": [],
      "name": "MAX_FEE_BPS",
      "outputs": [
        {
          "internalType": "uint256",
          "name": "",
          "type": "uint256"
        }
      ],
      "stateMutability": "view",
      "type": "function"
    },
    {
      "inputs": [],
      "name": "admin",
      "outputs": [
        {
          "internalType": "address",
          "name": "",
          "type": "address"
        }
      ],
      "stateMutability": "view",
      "type": "function"
    },
    {
      "inputs": [
        {
          "internalType": "bytes32",
          "name": "_streamId",
          "type": "bytes32"
        }
      ],
      "name": "approveStream",
      "outputs": [],
      "stateMutability": "payable",
      "type": "function"
    },
    {
      "inputs": [
        {
          "internalType": "bytes32",
          "name": "_streamId",
          "type": "bytes32"
        }
      ],
      "name": "canRelease",
      "outputs": [
        {
          "internalType": "bool",
          "name": "",
          "type": "bool"
        }
      ],
      "stateMutability": "view",
      "type": "function"
    },
    {
      "inputs": [
        {
          "internalType": "bytes32",
          "name": "_streamId",
          "type": "bytes32"
        }
      ],
      "name": "cancelStream",
      "outputs": [],
      "stateMutability": "nonpayable",
      "type": "function"
    },
    {
      "inputs": [],
      "name": "complianceManager",
      "outputs": [
        {
          "internalType": "contract ComplianceManager",
          "name": "",
          "type": "address"
        }
      ],
      "stateMutability": "view",
      "type": "function"
    },
    {
      "inputs": [
        {
          "internalType": "bytes32",
          "name": "_streamId",
          "type": "bytes32"
        },
        {
          "internalType": "address",
          "name": "_buyer",
          "type": "address"
        },
        {
          "internalType": "uint256",
          "name": "_totalAmount",
          "type": "uint256"
        },
        {
          "internalType": "enum StreamingPayment.Interval",
          "name": "_interval",
          "type": "uint8"
        },
        {
          "internalType": "uint256",
          "name": "_numPayments",
          "type": "uint256"
        },
        {
          "internalType": "address",
          "name": "_token",
          "type": "address"
        },
        {
          "internalType": "string",
          "name": "_description",
          "type": "string"
        }
      ],
      "name": "createStream",
      "outputs": [
        {
          "internalType": "bool",
          "name": "",
          "type": "bool"
        }
      ],
      "stateMutability": "nonpayable",
      "type": "function"
    },
    {
      "inputs": [],
      "name": "emergencyWithdraw",
      "outputs": [],
      "stateMutability": "nonpayable",
      "type": "function"
    },
    {
      "inputs": [
        {
          "internalType": "address",
          "name": "token",
          "type": "address"
        }
      ],
      "name": "emergencyWithdrawToken",
      "outputs": [],
      "stateMutability": "nonpayable",
      "type": "function"
    },
    {
      "inputs": [
        {
          "internalType": "bytes32",
          "name": "_streamId",
          "type": "bytes32"
        }
      ],
      "name": "getRemainingBalance",
      "outputs": [
        {
          "internalType": "uint256",
          "name": "",
          "type": "uint256"
        }
      ],
      "stateMutability": "view",
      "type": "function"
    },
    {
      "inputs": [
        {
          "internalType": "bytes32",
          "name": "_streamId",
          "type": "bytes32"
        }
      ],
      "name": "getStream",
      "outputs": [
        {
          "components": [
            {
              "internalType": "bytes32",
              "name": "streamId",
              "type": "bytes32"
            },
            {
              "internalType": "address",
              "name": "seller",
              "type": "address"
            },
            {
              "internalType": "address",
              "name": "buyer",
              "type": "address"
            },
            {
              "internalType": "uint256",
              "name": "amount",
              "type": "uint256"
            },
            {
              "internalType": "uint256",
              "name": "perIntervalAmount",
              "type": "uint256"
            },
            {
              "internalType": "address",
              "name": "token",
              "type": "address"
            },
            {
              "internalType": "enum StreamingPayment.Interval",
              "name": "interval",
              "type": "uint8"
            },
            {
              "internalType": "enum StreamingPayment.StreamStatus",
              "name": "status",
              "type": "uint8"
            },
            {
              "internalType": "uint256",
              "name": "startTime",
              "type": "uint256"
            },
            {
              "internalType": "uint256",
              "name": "nextReleaseTime",
              "type": "uint256"
            },
            {
              "internalType": "uint256",
              "name": "totalReleased",
              "type": "uint256"
            },
            {
              "internalType": "uint256",
              "name": "totalPaid",
              "type": "uint256"
            },
            {
              "internalType": "uint256",
              "name": "intervalsCompleted",
              "type": "uint256"
            },
            {
              "internalType": "uint256",
              "name": "createdAt",
              "type": "uint256"
            },
            {
              "internalType": "string",
              "name": "description",
              "type": "string"
            }
          ],
          "internalType": "struct StreamingPayment.Stream",
          "name": "",
          "type": "tuple"
        }
      ],
      "stateMutability": "view",
      "type": "function"
    },
    {
      "inputs": [
        {
          "internalType": "address",
          "name": "user",
          "type": "address"
        }
      ],
      "name": "getUserStreams",
      "outputs": [
        {
          "internalType": "bytes32[]",
          "name": "",
          "type": "bytes32[]"
        }
      ],
      "stateMutability": "view",
      "type": "function"
    },
    {
      "inputs": [
        {
          "internalType": "address",
          "name": "forwarder",
          "type": "address"
        }
      ],
      "name": "isTrustedForwarder",
      "outputs": [
        {
          "internalType": "bool",
          "name": "",
          "type": "bool"
        }
      ],
      "stateMutability": "view",
      "type": "function"
    },
    {
      "inputs": [],
      "name": "pause",
      "outputs": [],
      "stateMutability": "nonpayable",
      "type": "function"
    },
    {
      "inputs": [
        {
          "internalType": "bytes32",
          "name": "_streamId",
          "type": "bytes32"
        }
      ],
      "name": "pauseStream",
      "outputs": [],
      "stateMutability": "nonpayable",
      "type": "function"
    },
    {
      "inputs": [],
      "name": "paused",
      "outputs": [
        {
          "internalType": "bool",
          "name": "",
          "type": "bool"
        }
      ],
      "stateMutability": "view",
      "type": "function"
    },
    {
      "inputs": [],
      "name": "protocolFeeBps",
      "outputs": [
        {
          "internalType": "uint256",
          "name": "",
          "type": "uint256"
        }
      ],
      "stateMutability": "view",
      "type": "function"
    },
    {
      "inputs": [
        {
          "internalType": "bytes32",
          "name": "_streamId",
          "type": "bytes32"
        }
      ],
      "name": "releasePayment",
      "outputs": [],
      "stateMutability": "nonpayable",
      "type": "function"
    },
    {
      "inputs": [
        {
          "internalType": "bytes32",
          "name": "_streamId",
          "type": "bytes32"
        }
      ],
      "name": "resumeStream",
      "outputs": [],
      "stateMutability": "nonpayable",
      "type": "function"
    },
    {
      "inputs": [
        {
          "internalType": "uint256",
          "name": "_newFeeBps",
          "type": "uint256"
        }
      ],
      "name": "setProtocolFee",
      "outputs": [],
      "stateMutability": "nonpayable",
      "type": "function"
    },
    {
      "inputs": [
        {
          "internalType": "address",
          "name": "_newTreasury",
          "type": "address"
        }
      ],
      "name": "setTreasury",
      "outputs": [],
      "stateMutability": "nonpayable",
      "type": "function"
    },
    {
      "inputs": [
        {
          "internalType": "bytes32",
          "name": "",
          "type": "bytes32"
        }
      ],
      "name": "streams",
      "outputs": [
        {
          "internalType": "bytes32",
          "name": "streamId",
          "type": "bytes32"
        },
        {
          "internalType": "address",
          "name": "seller",
          "type": "address"
        },
        {
          "internalType": "address",
          "name": "buyer",
          "type": "address"
        },
        {
          "internalType": "uint256",
          "name": "amount",
          "type": "uint256"
        },
        {
          "internalType": "uint256",
          "name": "perIntervalAmount",
          "type": "uint256"
        },
        {
          "internalType": "address",
          "name": "token",
          "type": "address"
        },
        {
          "internalType": "enum StreamingPayment.Interval",
          "name": "interval",
          "type": "uint8"
        },
        {
          "internalType": "enum StreamingPayment.StreamStatus",
          "name": "status",
          "type": "uint8"
        },
        {
          "internalType": "uint256",
          "name": "startTime",
          "type": "uint256"
        },
        {
          "internalType": "uint256",
          "name": "nextReleaseTime",
          "type": "uint256"
        },
        {
          "internalType": "uint256",
          "name": "totalReleased",
          "type": "uint256"
        },
        {
          "internalType": "uint256",
          "name": "totalPaid",
          "type": "uint256"
        },
        {
          "internalType": "uint256",
          "name": "intervalsCompleted",
          "type": "uint256"
        },
        {
          "internalType": "uint256",
          "name": "createdAt",
          "type": "uint256"
        },
        {
          "internalType": "string",
          "name": "description",
          "type": "string"
        }
      ],
      "stateMutability": "view",
      "type": "function"
    },
    {
      "inputs": [],
      "name": "treasury",
      "outputs": [
        {
          "internalType": "address",
          "name": "",
          "type": "address"
        }
      ],
      "stateMutability": "view",
      "type": "function"
    },
    {
      "inputs": [],
      "name": "trustedForwarder",
      "outputs": [
        {
          "internalType": "address",
          "name": "",
          "type": "address"
        }
      ],
      "stateMutability": "view",
      "type": "function"
    },
    {
      "inputs": [],
      "name": "unpause",
      "outputs": [],
      "stateMutability": "nonpayable",
      "type": "function"
    },
    {
      "inputs": [
        {
          "internalType": "address",
          "name": "",
          "type": "address"
        },
        {
          "internalType": "uint256",
          "name": "",
          "type": "uint256"
        }
      ],
      "name": "userStreams",
      "outputs": [
        {
          "internalType": "bytes32",
          "name": "",
          "type": "bytes32"
        }
      ],
      "stateMutability": "view",
      "type": "function"
    },
    {
      "stateMutability": "payable",
      "type": "receive"
    }
  ],
  "bytecode": "0x60a0346100ec57601f6121d838819003918201601f19168301916001600160401b038311848410176100f0578084926060946040528339810103126100ec5761004781610104565b90610060604061005960208401610104565b9201610104565b60017f9b779b17422d0df92223018b32b4d1fa46e071723d6817e2486d003becc55f00556080929092526064600655600480546001600160a01b031990811633179091556003805482166001600160a01b0393841617905560058054909116919092161790556040516120bf908161011982396080518181816108ac01528181610cef015261203b0152f35b5f80fd5b634e487b7160e01b5f52604160045260245ffd5b51906001600160a01b03821682036100ec5756fe6080604052600436101561001a575b3615610018575f80fd5b005b5f3560e01c8063020055f914611bb95780630cc4de6b146115025780631290abe8146112d55780631af032031461122057806335659fb8146112035780633f4ba83a1461119d57806350be3394146110eb5780635527e1c514610d23578063572b6c0514610ccf5780635c975abb14610cae57806361d027b314610c86578063765c328b14610c4a578063787dce3d14610bb55780637aa1ed58146108db5780637da0a877146108975780637f7bd2df146107815780638456cb591461071557806395dfb9511461060d578063cb3d97d9146103e2578063d55be8c6146103c6578063db2e21bc14610369578063dc5600b4146102b5578063e40d8c111461022d578063f0f4426014610190578063f851a440146101685763ff7bce230361000e5734610164575f366003190112610164576003546040516001600160a01b039091168152602090f35b5f80fd5b34610164575f366003190112610164576004546040516001600160a01b039091168152602090f35b34610164576020366003190112610164576101a9611c11565b6101ca6101b4612010565b6004546001600160a01b03918216911614611e58565b6001600160a01b031680156101f5576bffffffffffffffffffffffff60a01b60055416176005555f80f35b60405162461bcd60e51b815260206004820152601060248201526f496e76616c696420747265617375727960801b6044820152606490fd5b34610164576020366003190112610164576004355f52600160205260405f2060ff600582015460a81c169060058210156102a1576001602092149081610292575b8161027f575b506040519015158152f35b9050600360088201549101541182610274565b6007810154421015915061026e565b634e487b7160e01b5f52602160045260245ffd5b34610164576020366003190112610164576001600160a01b036102d6611c11565b165f52600260205260405f20604051806020835491828152019081935f5260205f20905f5b8181106103535750505081610311910382611ce3565b604051918291602083019060208452518091526040830191905f5b81811061033a575050500390f35b825184528594506020938401939092019160010161032c565b82548452602090930192600192830192016102fb565b34610164575f366003190112610164575f808080610385612010565b6004546001600160a01b03908116916103a091168214611e58565b47908282156103bd575bf1156103b257005b6040513d5f823e3d90fd5b506108fc6103aa565b34610164575f3660031901126101645760206040516101f48152f35b34610164576020366003190112610164576004355f81815260016020819052604090912001546001600160a01b039081169061041c612010565b161480156105e0575b156105a957610432611fad565b805f52600160205260405f2090600582019160ff835460a81c16600581101590816102a1576001811491821561059c575b821561058d575b505015610558576104846003820154600883015490611f01565b835460ff60a81b1916600360a81b17845592839182159182156104f3575b83857f7b745ab8af0071365935ef379c8adc5f5b684d673f2433a8e6784eb21d12217660206001600160a01b036104d7612010565b1693604051908152a360015f51602061206a5f395f51905f5255005b546001600160a01b03168061053857505f809381938293600260018060a01b039101541690839061052f575bf1156103b2575b818380806104a2565b506108fc61051f565b6002909101546105539392506001600160a01b031690611f35565b610526565b60405162461bcd60e51b815260206004820152600d60248201526c10d85b9b9bdd0818d85b98d95b609a1b6044820152606490fd5b9091506102a15715848061046a565b506002811491505f610463565b60405162461bcd60e51b815260206004820152600f60248201526e139bdd081c185c9d1a58da5c185b9d608a1b6044820152606490fd5b505f818152600160205260409020600201546001600160a01b0390811690610606612010565b1614610425565b34610164576020366003190112610164576004355f81815260016020526040902060020154610651906001600160a01b039081169061064a612010565b1614611e90565b805f52600160205260405f206005810160ff815460a81c1660058110156102a1576002036106e357805460ff60a81b1916600160a81b17908190556007906106a8906106a29060a01c60ff16611fe5565b42611f0e565b9101556001600160a01b036106bb612010565b16907fb36e14fc817fc9bc84c626f24c3abcb3303e564e2b7611710793cbb4ba8934245f80a3005b60405162461bcd60e51b815260206004820152600a602482015269139bdd081c185d5cd95960b21b6044820152606490fd5b34610164575f366003190112610164576107306101b4612010565b610738611f1b565b600160ff195f5416175f557f62e78cea01bee320cd4e420270b5ea74000d11b0c9f74754ebdbfc544b05a258602061076e612010565b6040516001600160a01b039091168152a1005b34610164576020366003190112610164576004355f52600160205260405f208054600160a01b6001900360018301541691600160a01b60019003600282015416906003810154600482015460058301546006840154600785015490600886015492600987015494600a88015496600b89015498600c0161080090611d05565b996040519c8d9c8d5260208d015260408c015260608b015260808a0152600160a01b60019003811660a08a015260c089018160a01c60ff169061084291611c50565b60e089019060a81c60ff169061085791611c5d565b6101008801526101208701526101408601526101608501526101808401526101a08301526101c082016101e090526101e0820161089391611c6a565b0390f35b34610164575f366003190112610164576040517f00000000000000000000000000000000000000000000000000000000000000006001600160a01b03168152602090f35b34610164576020366003190112610164576004356108f7611fad565b6108ff611f1b565b805f52600160205260405f206005810180549160ff8360a81c1660058110156102a157600161092e9114611ec8565b6007810180544210610b845760048201549160038101908154956109586008830197885490611f01565b808611610b7c575b508415610b445761271061097660065487611e39565b04906109828287611f01565b906001600160a01b031680610afb575060018301545f918291829182916001600160a01b0316828215610af2575bf1156103b25780158015610ac3575b50505b600a6109cf858854611f0e565b8088559101805490945f198214610aaf5788937fe7faf4c81dcba9056559f09d4450f91f4e5d8346d8744846fa6f84004c359894936001604094019182895554119586610a8d575b5082519182526020820152a215610a3c575b60015f51602061206a5f395f51905f5255005b815460ff60a81b1916600160aa1b17909155905490546040805192835260208301919091527fe50c46384c7527e8c116e081cd4a6a54388df41416b515ebfacedff5d70238cf91a280808080610a29565b610aa7610aa060ff8b5460a01c16611fe5565b8254611f0e565b90558a610a17565b634e487b7160e01b5f52601160045260245ffd5b5f808093819360018060a01b0360055416908390610ae9575bf1156103b25787806109bf565b506108fc610adc565b506108fc6109b0565b6001840154610b1692916001600160a01b0390911690611f35565b80610b22575b506109c2565b8554600554610b3e92916001600160a01b039182169116611f35565b87610b1c565b60405162461bcd60e51b815260206004820152601060248201526f4e6f206d6f7265207061796d656e747360801b6044820152606490fd5b945088610960565b60405162461bcd60e51b8152602060048201526009602482015268546f6f206561726c7960b81b6044820152606490fd5b3461016457602036600319011261016457600435610bd46101b4612010565b6101f48111610c165760407f528d9479e9f9889a87a3c30c7f7ba537e5e59c4c85a37733b16e57c62df6130291600654908060065582519182526020820152a1005b60405162461bcd60e51b815260206004820152600c60248201526b08ccaca40e8dede40d0d2ced60a31b6044820152606490fd5b34610164576020366003190112610164576004355f5260016020526020610c7e60405f206008600382015491015490611f01565b604051908152f35b34610164575f366003190112610164576005546040516001600160a01b039091168152602090f35b34610164575f36600319011261016457602060ff5f54166040519015158152f35b34610164576020366003190112610164576020610cea611c11565b6040517f00000000000000000000000000000000000000000000000000000000000000006001600160a01b039081169216919091148152f35b602036600319011261016457600435610d3a612010565b6003546040516372c1cc1b60e11b81526001600160a01b03928316600482018190529290911691602082602481865afa9182156103b257602092610d86915f916110ce575b5015611dbd565b602460405180948193632a5bb1b760e11b835260048301525afa80156103b257610db7915f9161109f575b50611dfa565b610dbf611fad565b610dc7611f1b565b805f52600160205260405f2060018060a01b036001820154161561106757610e08610df0612010565b60028301546001600160a01b03918216911614611e90565b600581019081549160ff8360a81c1660058110156102a157611034576003820154926001600160a01b031680610f785750823410610f4057823411610eff575b7fea4ce843a9a0113654def53328801be4aa733c1c4ba3d6001194316847ee131f92604092610e9f6106a260ff6007955b600160a81b8260a81b198254161781558560098601554260068601555460a01c16611fe5565b9201829055847f24f3ba3271e31c4210a72e01d9775b39c9e06cca2ee0dfdf3ad2a061b759863760206001600160a01b03610ed8612010565b16938651908152a38151904282526020820152a260015f51602061206a5f395f51905f5255005b5f8080806001600160a01b03610f13612010565b16610f1e8834611f01565b90828215610f37575bf1610e48576040513d5f823e3d90fd5b506108fc610f27565b60405162461bcd60e51b815260206004820152601060248201526f092dce6eaccccd2c6d2cadce8408aa8960831b6044820152606490fd5b610f80612010565b6040516323b872dd60e01b5f9081526001600160a01b039092166004523060245260448690529060209060648180865af19060015f5114821615611013575b6040525f6060521561100157507fea4ce843a9a0113654def53328801be4aa733c1c4ba3d6001194316847ee131f92604092610e9f6106a260ff600795610e79565b635274afe760e01b5f5260045260245ffd5b90600181151661102b57823b15153d15161690610fbf565b503d5f823e3d90fd5b60405162461bcd60e51b815260206004820152600b60248201526a4e6f742070656e64696e6760a81b6044820152606490fd5b60405162461bcd60e51b815260206004820152601060248201526f14dd1c99585b481b9bdd08199bdd5b9960821b6044820152606490fd5b6110c1915060203d6020116110c7575b6110b98183611ce3565b810190611da5565b83610db1565b503d6110af565b6110e59150843d86116110c7576110b98183611ce3565b86610d7f565b34610164576020366003190112610164576004355f81815260016020526040902060020154611128906001600160a01b039081169061064a612010565b805f526001602052600560405f200160ff815460a81c1660058110156102a15760016111549114611ec8565b805460ff60a81b1916600160a91b1790556001600160a01b03611175612010565b16907fc1adfdb249d24ce19f5e31f59110d91dd173c1ae1d3cd106f82a034b2616d9225f80a3005b34610164575f366003190112610164576111b86101b4612010565b5f5460ff8116156111f45760ff19165f557f5db9ee0a495bf2e6ff9c91a7834c1ba4fdd244a5e8aa4e537bd38aeae4b073aa602061076e612010565b638dfc202b60e01b5f5260045ffd5b34610164575f366003190112610164576020600654604051908152f35b3461016457602036600319011261016457611239611c11565b611241612010565b6004546001600160a01b03908116929161125d91168314611e58565b6040516370a0823160e01b8152306004820152916001600160a01b039190911690602083602481855afa9182156103b2575f9261129f575b6100189350611f35565b91506020833d6020116112cd575b816112ba60209383611ce3565b8101031261016457610018925191611295565b3d91506112ad565b346101645760203660031901126101645760606101c06040516112f781611cc6565b5f81525f60208201525f60408201525f838201525f60808201525f60a08201525f60c08201525f60e08201525f6101008201525f6101208201525f6101408201525f6101608201525f6101808201525f6101a082015201526004355f52600160205260405f2060405161136981611cc6565b8154815260018060a01b03600183015416906020810191825260018060a01b036002840154169260408201938452600381015460608301908152600482015460808401908152600583015460a085019060018060a01b038116825260ff60c08701916113da828260a01c1684611e4c565b60a81c1660e087019060058110156102a1578152600686015490610100880191825260078701549261012089019384526008880154946101408a019586526009890154966101608b01978852600a8a0154986101808c01998a52600b8b01549a6101a08d019b8c52600c0161144e90611d05565b6101c08d019081526040805160208082529e519e81019e909e529d516001600160a01b039081169e8e019e909e529d518d1660608d01525160808c01525160a08b01525190991660c089015297519698899890976114b09060e08b0190611c50565b5161010089016114bf91611c5d565b51610120880152516101408701525161016086015251610180850152516101a0840152516101c0830152516101e082016101e09052610200820161089391611c6a565b346101645760e0366003190112610164576024356001600160a01b038116908190036101645760443560036064351015610164576084359060a4356001600160a01b038116908190036101645760c4359167ffffffffffffffff831161016457366023840112156101645767ffffffffffffffff8360040135116101645736602484600401358501011161016457611598612010565b6003546040516372c1cc1b60e11b81526001600160a01b03928316600482018190529290911691602082602481865afa9182156103b2576020926115e3915f91611b9c575015611dbd565b602460405180948193632a5bb1b760e11b835260048301525afa80156103b257611613915f91611b7d5750611dfa565b61161b611f1b565b6004355f52600160205260018060a01b03600160405f20015416611b48578415611b13578015611add578315611aa557839004928315611a6d576116626116789185611e39565b61271061167160065483611e39565b0490611f0e565b611680612010565b6040519061168d82611cc6565b600435825260018060a01b031660208201528560408201528160608201528460808201528260a08201526116c660643560c08301611e4c565b5f60e08201525f6101008201525f6101208201525f6101408201525f6101608201525f610180820152426101a08201526040516117116020601f19601f886004013501160182611ce3565b60048501358082526024860160208301375f600480870135830160209081018390526101c0850193909352803582526001808452604092839020855181559385015190840180546001600160a01b03199081166001600160a01b0393841617909155928501516002850180548516918316919091179055606085015160038086019190915560808601519285019290925560a0850151600585018054909416911617825560c0840151919291908110156102a157825460ff60a01b191660a09190911b60ff60a01b1617825560e08301519060058210156102a1576101c092600c9281549060ff60a81b9060a81b169060ff60a81b19161790556101008401516006820155610120840151600782015561014084015160088201556101608401516009820155610180840151600a8201556101a0840151600b8201550191015180519067ffffffffffffffff821161199b57819061186f8454611c8e565b601f8111611a1d575b50602090601f83116001146119ba575f926119af575b50508160011b915f199060031b1c19161790555b6001600160a01b036118b2612010565b165f52600260205260405f20918254926801000000000000000084101561199b57836119049160017f60c0d0c6e2b1e182e065c9c3cdaedb2aaf57869a14a527782611639575b9633e96018155611c27565b81545f1960039290921b91821b191660043590911b1790556001600160a01b0361192c612010565b16946040519283526020830152604082015261194d60608201606435611c50565b60a06080820152826004013560a082015282600401356024840160c08301375f60c084600401358301015260c08160043594601f8019916004013501168101030190a4602060405160018152f35b634e487b7160e01b5f52604160045260245ffd5b01519050888061188e565b5f8581528281209350601f198516905b818110611a0557509084600195949392106119ed575b505050811b0190556118a2565b01515f1960f88460031b161c191690558880806119e0565b929360206001819287860151815501950193016119ca565b909150835f5260205f20601f840160051c81019160208510611a63575b90601f859493920160051c01905b818110611a555750611878565b5f8155849350600101611a48565b9091508190611a3a565b60405162461bcd60e51b815260206004820152601060248201526f105b5bdd5b9d081d1bdbc81cdb585b1b60821b6044820152606490fd5b60405162461bcd60e51b815260206004820152601060248201526f496e76616c6964207061796d656e747360801b6044820152606490fd5b60405162461bcd60e51b815260206004820152600e60248201526d125b9d985b1a5908185b5bdd5b9d60921b6044820152606490fd5b60405162461bcd60e51b815260206004820152600d60248201526c24b73b30b634b210313abcb2b960991b6044820152606490fd5b60405162461bcd60e51b815260206004820152600d60248201526c53747265616d2065786973747360981b6044820152606490fd5b611b96915060203d6020116110c7576110b98183611ce3565b87610db1565b611bb39150843d86116110c7576110b98183611ce3565b8a610d7f565b3461016457604036600319011261016457611bd2611c11565b6001600160a01b03165f9081526002602052604090208054602435919082101561016457602091611c0291611c27565b90549060031b1c604051908152f35b600435906001600160a01b038216820361016457565b8054821015611c3c575f5260205f2001905f90565b634e487b7160e01b5f52603260045260245ffd5b9060038210156102a15752565b9060058210156102a15752565b805180835260209291819084018484015e5f828201840152601f01601f1916010190565b90600182811c92168015611cbc575b6020831014611ca857565b634e487b7160e01b5f52602260045260245ffd5b91607f1691611c9d565b6101e0810190811067ffffffffffffffff82111761199b57604052565b90601f8019910116810190811067ffffffffffffffff82111761199b57604052565b9060405191825f825492611d1884611c8e565b8084529360018116908115611d835750600114611d3f575b50611d3d92500383611ce3565b565b90505f9291925260205f20905f915b818310611d67575050906020611d3d928201015f611d30565b6020919350806001915483858901015201910190918492611d4e565b905060209250611d3d94915060ff191682840152151560051b8201015f611d30565b90816020910312610164575180151581036101645790565b15611dc457565b60405162461bcd60e51b815260206004820152600e60248201526d20b1b1b7bab73a10333937bd32b760911b6044820152606490fd5b15611e0157565b60405162461bcd60e51b815260206004820152601060248201526f12d650c81b9bdd081d995c9a599a595960821b6044820152606490fd5b81810292918115918404141715610aaf57565b60038210156102a15752565b15611e5f57565b60405162461bcd60e51b81526020600482015260096024820152682737ba1030b236b4b760b91b6044820152606490fd5b15611e9757565b60405162461bcd60e51b81526020600482015260096024820152682737ba10313abcb2b960b91b6044820152606490fd5b15611ecf57565b60405162461bcd60e51b815260206004820152600a6024820152694e6f742061637469766560b01b6044820152606490fd5b91908203918211610aaf57565b91908201809211610aaf57565b60ff5f5416611f2657565b63d93c066560e01b5f5260045ffd5b916040519163a9059cbb60e01b5f5260018060a01b031660045260245260205f60448180865af19060015f5114821615611f95575b60405215611f755750565b635274afe760e01b5f9081526001600160a01b0391909116600452602490fd5b90600181151661102b57823b15153d15161690611f6a565b60025f51602061206a5f395f51905f525414611fd65760025f51602061206a5f395f51905f5255565b633ee5aeb560e01b5f5260045ffd5b60038110156102a15780611ffb57506201518090565b6001036120095762093a8090565b62278d0090565b601436101580612037575b15612033576013193601368111610164573560601c90565b3390565b50337f00000000000000000000000000000000000000000000000000000000000000006001600160a01b03161461201b56fe9b779b17422d0df92223018b32b4d1fa46e071723d6817e2486d003becc55f00a2646970667358221220b6b39d23a9e14b8649e2eaeef2da6ab447e3045a3439672bcadcbdc3f8f598ce64736f6c634300081c0033",
  "linkReferences": {},
  "deployedLinkReferences": {}
}