{
  "_format": "hh-sol-artifact-1",
  "contractName": "TreasuryManager",
  "sourceName": "contracts/TreasuryManager.sol",
  "abi": [
    {
      "inputs": [],
      "stateMutability": "nonpayable",
      "type": "constructor"
    },
    {
      "inputs": [
        {
          "internalType": "address",
          "name": "target",
          "type": "address"
        }
      ],
      "name": "AddressEmptyCode",
      "type": "error"
    },
    {
      "inputs": [
        {
          "internalType": "address",
          "name": "implementation",
          "type": "address"
        }
      ],
      "name": "ERC1967InvalidImplementation",
      "type": "error"
    },
    {
      "inputs": [],
      "name": "ERC1967NonPayable",
      "type": "error"
    },
    {
      "inputs": [],
      "name": "FailedCall",
      "type": "error"
    },
    {
      "inputs": [],
      "name": "InvalidInitialization",
      "type": "error"
    },
    {
      "inputs": [],
      "name": "NotInitializing",
      "type": "error"
    },
    {
      "inputs": [
        {
          "internalType": "address",
          "name": "owner",
          "type": "address"
        }
      ],
      "name": "OwnableInvalidOwner",
      "type": "error"
    },
    {
      "inputs": [
        {
          "internalType": "address",
          "name": "account",
          "type": "address"
        }
      ],
      "name": "OwnableUnauthorizedAccount",
      "type": "error"
    },
    {
      "inputs": [
        {
          "internalType": "address",
          "name": "token",
          "type": "address"
        }
      ],
      "name": "SafeERC20FailedOperation",
      "type": "error"
    },
    {
      "inputs": [],
      "name": "UUPSUnauthorizedCallContext",
      "type": "error"
    },
    {
      "inputs": [
        {
          "internalType": "bytes32",
          "name": "slot",
          "type": "bytes32"
        }
      ],
      "name": "UUPSUnsupportedProxiableUUID",
      "type": "error"
    },
    {
      "anonymous": false,
      "inputs": [
        {
          "indexed": true,
          "internalType": "bytes32",
          "name": "category",
          "type": "bytes32"
        },
        {
          "indexed": false,
          "internalType": "uint256",
          "name": "amount",
          "type": "uint256"
        },
        {
          "indexed": true,
          "internalType": "address",
          "name": "by",
          "type": "address"
        }
      ],
      "name": "BudgetAllocated",
      "type": "event"
    },
    {
      "anonymous": false,
      "inputs": [
        {
          "indexed": true,
          "internalType": "address",
          "name": "token",
          "type": "address"
        },
        {
          "indexed": true,
          "internalType": "address",
          "name": "payer",
          "type": "address"
        },
        {
          "indexed": false,
          "internalType": "uint256",
          "name": "amount",
          "type": "uint256"
        },
        {
          "indexed": false,
          "internalType": "uint256",
          "name": "total",
          "type": "uint256"
        }
      ],
      "name": "FeeCollected",
      "type": "event"
    },
    {
      "anonymous": false,
      "inputs": [
        {
          "indexed": true,
          "internalType": "address",
          "name": "oldGovernance",
          "type": "address"
        },
        {
          "indexed": true,
          "internalType": "address",
          "name": "newGovernance",
          "type": "address"
        }
      ],
      "name": "GovernanceUpdated",
      "type": "event"
    },
    {
      "anonymous": false,
      "inputs": [
        {
          "indexed": false,
          "internalType": "uint64",
          "name": "version",
          "type": "uint64"
        }
      ],
      "name": "Initialized",
      "type": "event"
    },
    {
      "anonymous": false,
      "inputs": [
        {
          "indexed": true,
          "internalType": "address",
          "name": "previousOwner",
          "type": "address"
        },
        {
          "indexed": true,
          "internalType": "address",
          "name": "newOwner",
          "type": "address"
        }
      ],
      "name": "OwnershipTransferred",
      "type": "event"
    },
    {
      "anonymous": false,
      "inputs": [
        {
          "indexed": true,
          "internalType": "address",
          "name": "implementation",
          "type": "address"
        }
      ],
      "name": "Upgraded",
      "type": "event"
    },
    {
      "anonymous": false,
      "inputs": [
        {
          "indexed": true,
          "internalType": "address",
          "name": "token",
          "type": "address"
        },
        {
          "indexed": true,
          "internalType": "address",
          "name": "to",
          "type": "address"
        },
        {
          "indexed": false,
          "internalType": "uint256",
          "name": "amount",
          "type": "uint256"
        },
        {
          "indexed": true,
          "internalType": "address",
          "name": "by",
          "type": "address"
        }
      ],
      "name": "WithdrawalExecuted",
      "type": "event"
    },
    {
      "anonymous": false,
      "inputs": [
        {
          "indexed": true,
          "internalType": "address",
          "name": "token",
          "type": "address"
        },
        {
          "indexed": true,
          "internalType": "address",
          "name": "to",
          "type": "address"
        },
        {
          "indexed": false,
          "internalType": "uint256",
          "name": "amount",
          "type": "uint256"
        },
        {
          "indexed": true,
          "internalType": "address",
          "name": "requester",
          "type": "address"
        }
      ],
      "name": "WithdrawalRequested",
      "type": "event"
    },
    {
      "inputs": [],
      "name": "UPGRADE_INTERFACE_VERSION",
      "outputs": [
        {
          "internalType": "string",
          "name": "",
          "type": "string"
        }
      ],
      "stateMutability": "view",
      "type": "function"
    },
    {
      "inputs": [
        {
          "internalType": "bytes32",
          "name": "category",
          "type": "bytes32"
        },
        {
          "internalType": "uint256",
          "name": "amount",
          "type": "uint256"
        }
      ],
      "name": "allocateBudget",
      "outputs": [],
      "stateMutability": "nonpayable",
      "type": "function"
    },
    {
      "inputs": [
        {
          "internalType": "bytes32",
          "name": "",
          "type": "bytes32"
        }
      ],
      "name": "budgets",
      "outputs": [
        {
          "internalType": "uint256",
          "name": "",
          "type": "uint256"
        }
      ],
      "stateMutability": "view",
      "type": "function"
    },
    {
      "inputs": [
        {
          "internalType": "address",
          "name": "token",
          "type": "address"
        },
        {
          "internalType": "uint256",
          "name": "amount",
          "type": "uint256"
        }
      ],
      "name": "collectFee",
      "outputs": [],
      "stateMutability": "nonpayable",
      "type": "function"
    },
    {
      "inputs": [
        {
          "internalType": "address",
          "name": "",
          "type": "address"
        }
      ],
      "name": "collected",
      "outputs": [
        {
          "internalType": "uint256",
          "name": "",
          "type": "uint256"
        }
      ],
      "stateMutability": "view",
      "type": "function"
    },
    {
      "inputs": [
        {
          "internalType": "address",
          "name": "token",
          "type": "address"
        },
        {
          "internalType": "address payable",
          "name": "to",
          "type": "address"
        },
        {
          "internalType": "uint256",
          "name": "amount",
          "type": "uint256"
        }
      ],
      "name": "executeWithdrawal",
      "outputs": [],
      "stateMutability": "nonpayable",
      "type": "function"
    },
    {
      "inputs": [
        {
          "internalType": "bytes32",
          "name": "category",
          "type": "bytes32"
        }
      ],
      "name": "getBudget",
      "outputs": [
        {
          "internalType": "uint256",
          "name": "",
          "type": "uint256"
        }
      ],
      "stateMutability": "view",
      "type": "function"
    },
    {
      "inputs": [
        {
          "internalType": "address",
          "name": "token",
          "type": "address"
        }
      ],
      "name": "getCollected",
      "outputs": [
        {
          "internalType": "uint256",
          "name": "",
          "type": "uint256"
        }
      ],
      "stateMutability": "view",
      "type": "function"
    },
    {
      "inputs": [],
      "name": "governance",
      "outputs": [
        {
          "internalType": "address",
          "name": "",
          "type": "address"
        }
      ],
      "stateMutability": "view",
      "type": "function"
    },
    {
      "inputs": [
        {
          "internalType": "address",
          "name": "_owner",
          "type": "address"
        },
        {
          "internalType": "address",
          "name": "_governance",
          "type": "address"
        }
      ],
      "name": "initialize",
      "outputs": [],
      "stateMutability": "nonpayable",
      "type": "function"
    },
    {
      "inputs": [],
      "name": "owner",
      "outputs": [
        {
          "internalType": "address",
          "name": "",
          "type": "address"
        }
      ],
      "stateMutability": "view",
      "type": "function"
    },
    {
      "inputs": [],
      "name": "proxiableUUID",
      "outputs": [
        {
          "internalType": "bytes32",
          "name": "",
          "type": "bytes32"
        }
      ],
      "stateMutability": "view",
      "type": "function"
    },
    {
      "inputs": [],
      "name": "renounceOwnership",
      "outputs": [],
      "stateMutability": "nonpayable",
      "type": "function"
    },
    {
      "inputs": [
        {
          "internalType": "address",
          "name": "token",
          "type": "address"
        },
        {
          "internalType": "address",
          "name": "to",
          "type": "address"
        },
        {
          "internalType": "uint256",
          "name": "amount",
          "type": "uint256"
        }
      ],
      "name": "requestWithdrawal",
      "outputs": [],
      "stateMutability": "nonpayable",
      "type": "function"
    },
    {
      "inputs": [
        {
          "internalType": "address",
          "name": "_governance",
          "type": "address"
        }
      ],
      "name": "setGovernance",
      "outputs": [],
      "stateMutability": "nonpayable",
      "type": "function"
    },
    {
      "inputs": [
        {
          "internalType": "address",
          "name": "newOwner",
          "type": "address"
        }
      ],
      "name": "transferOwnership",
      "outputs": [],
      "stateMutability": "nonpayable",
      "type": "function"
    },
    {
      "inputs": [
        {
          "internalType": "address",
          "name": "newImplementation",
          "type": "address"
        },
        {
          "internalType": "bytes",
          "name": "data",
          "type": "bytes"
        }
      ],
      "name": "upgradeToAndCall",
      "outputs": [],
      "stateMutability": "payable",
      "type": "function"
    },
    {
      "stateMutability": "payable",
      "type": "receive"
    }
  ],
  "bytecode": "0x60a080604052346100c257306080525f516020610f8b5f395f51905f525460ff8160401c166100b3576002600160401b03196001600160401b03821601610060575b604051610ec490816100c78239608051818181610442015261050e0152f35b6001600160401b0319166001600160401b039081175f516020610f8b5f395f51905f525581527fc7f505b2f371ae2175ee4913f4499e1f2633a7b5936321eed1cdaeb6115181d290602090a15f80610041565b63f92ee8a960e01b5f5260045ffd5b5f80fdfe6080806040526004361015610075575b50361561001a575f80fd5b5f8052600160205260405f20610031348254610c89565b90555f8052600160205260405f20546040519034825260208201525f7f205442d60b70af1203d43cab62352c3b69b94f091be32fe683198057282b5c9260403393a3005b5f3560e01c9081632ec0ff6c14610afa575080633368f89914610407578063387277f21461084e57806338e438401461013c578063485cc9551461068a5780634f1ef2861461049657806352d1902d14610430578063546887a3146104075780635aa6e675146103df578063715018a6146103785780638985646a146103025780638da5cb5b146102ce578063ab033ea914610266578063ad3cb1cc14610208578063b80b0ff9146101a3578063f2fde38b146101785763fb166bb01461013c575f61000f565b34610174576020366003190112610174576001600160a01b0361015d610c0b565b165f526001602052602060405f2054604051908152f35b5f80fd5b34610174576020366003190112610174576101a1610194610c0b565b61019c610d44565b610cd3565b005b34610174576040366003190112610174576024356004356101c2610d44565b805f525f60205260405f206101d8838254610c89565b90556040519182527f7ef2c9c46d3f035c251d2825e9331ae629a176db7e6909601382002a8fb8fc9b60203393a3005b34610174575f3660031901126101745760408051906102278183610c37565b600582526020820191640352e302e360dc1b83528151928391602083525180918160208501528484015e5f828201840152601f01601f19168101030190f35b346101745760203660031901126101745761027f610c0b565b610287610d44565b6002546001600160a01b0391821691829082167f434a2db650703b36c824e745330d6397cdaa9ee2cc891a4938ae853e1c50b68d5f80a36001600160a01b03191617600255005b34610174575f366003190112610174575f516020610e2f5f395f51905f52546040516001600160a01b039091168152602090f35b346101745760603660031901126101745761031b610c0b565b610323610c21565b9060443561032f610d44565b61033a811515610c96565b60405190815233926001600160a01b039081169216907f57b06228ba3d2b8cedc2ea6792c3a923de6fec90ad48600394668373bc5862ea90602090a4005b34610174575f36600319011261017457610390610d44565b5f516020610e2f5f395f51905f5280546001600160a01b031981169091555f906001600160a01b03167f8be0079c531659141344cd1fd0a4f28419497f9722a3daafe3b4186f6b6457e08280a3005b34610174575f366003190112610174576002546040516001600160a01b039091168152602090f35b34610174576020366003190112610174576004355f525f602052602060405f2054604051908152f35b34610174575f366003190112610174577f00000000000000000000000000000000000000000000000000000000000000006001600160a01b031630036104875760206040515f516020610e4f5f395f51905f528152f35b63703e46dd60e11b5f5260045ffd5b6040366003190112610174576104aa610c0b565b6024359067ffffffffffffffff821161017457366023830112156101745781600401356104d681610c6d565b926104e46040519485610c37565b818452366024838301011161017457815f9260246020930183870137840101526001600160a01b037f000000000000000000000000000000000000000000000000000000000000000016308114908115610668575b5061048757610546610d44565b6040516352d1902d60e01b81526001600160a01b0382169290602081600481875afa5f9181610634575b506105885783634c9c8ce360e01b5f5260045260245ffd5b805f516020610e4f5f395f51905f528592036106225750823b15610610575f516020610e4f5f395f51905f5280546001600160a01b031916821790557fbc7cd75a20ee27fd9adebab32041f755214dbc6bffa90cc0225b39da2e5c2d3b5f80a28051156105f8576101a191610da2565b50503461060157005b63b398979f60e01b5f5260045ffd5b634c9c8ce360e01b5f5260045260245ffd5b632a87526960e21b5f5260045260245ffd5b9091506020813d602011610660575b8161065060209383610c37565b8101031261017457519085610570565b3d9150610643565b5f516020610e4f5f395f51905f52546001600160a01b03161415905083610539565b34610174576040366003190112610174576106a3610c0b565b6106ab610c21565b5f516020610e6f5f395f51905f52549160ff8360401c16159267ffffffffffffffff811680159081610846575b600114908161083c575b159081610833575b506108245767ffffffffffffffff1981166001175f516020610e6f5f395f51905f5255836107f8575b506001600160a01b038116156107b4576107379061072f610d77565b61019c610d77565b60018060a01b03166bffffffffffffffffffffffff60a01b600254161760025561075d57005b68ff0000000000000000195f516020610e6f5f395f51905f5254165f516020610e6f5f395f51905f52557fc7f505b2f371ae2175ee4913f4499e1f2633a7b5936321eed1cdaeb6115181d2602060405160018152a1005b606460405162461bcd60e51b815260206004820152602060248201527f4f776e65722063616e6e6f7420626520746865207a65726f20616464726573736044820152fd5b68ffffffffffffffffff191668010000000000000001175f516020610e6f5f395f51905f525583610713565b63f92ee8a960e01b5f5260045ffd5b905015856106ea565b303b1591506106e2565b8591506106d8565b3461017457606036600319011261017457610867610c0b565b6024356001600160a01b038116908190036101745760443591610888610d44565b610893831515610c96565b6001600160a01b0316806109dc57824710610997575f80808086865af13d15610992573d6108c081610c6d565b906108ce6040519283610c37565b81525f60203d92013e5b15610954575b805f5260016020528260405f20541015610921575b6040519283527ff1243a598229c7ca82708176901755a226fc76c1dfc671fbcfff20b24ec912e060203394a4005b805f52600160205260405f2080549084820391821161094057556108f3565b634e487b7160e01b5f52601160045260245ffd5b60405162461bcd60e51b815260206004820152601660248201527513985d1a5d99481d1c985b9cd9995c8819985a5b195960521b6044820152606490fd5b6108d8565b60405162461bcd60e51b815260206004820152601b60248201527f496e73756666696369656e74206e61746976652062616c616e636500000000006044820152606490fd5b6040516370a0823160e01b8152306004820152602081602481855afa8015610aef5784915f91610aba575b5010610a755760405163a9059cbb60e01b5f52826004528360245260205f60448180865af19060015f5114821615610a54575b6040526108de575b635274afe760e01b5f5260045260245ffd5b906001811516610a6c57823b15153d15161690610a3a565b503d5f823e3d90fd5b60405162461bcd60e51b815260206004820152601a60248201527f496e73756666696369656e7420746f6b656e2062616c616e63650000000000006044820152606490fd5b9150506020813d602011610ae7575b81610ad660209383610c37565b810103126101745783905185610a07565b3d9150610ac9565b6040513d5f823e3d90fd5b3461017457604036600319011261017457610b13610c0b565b602435918215610bd4575060018060a01b03166040516323b872dd60e01b5f5233600452306024528260445260205f60648180865af19060015f5114821615610bbc575b6040525f60605215610a4257805f52600160205260405f20610b7a838254610c89565b9055805f52600160205260405f205460405192835260208301527f205442d60b70af1203d43cab62352c3b69b94f091be32fe683198057282b5c9260403393a3005b906001811516610a6c57823b15153d15161690610b57565b62461bcd60e51b81526020600482015260126024820152710416d6f756e74206d757374206265203e20360741b6044820152606490fd5b600435906001600160a01b038216820361017457565b602435906001600160a01b038216820361017457565b90601f8019910116810190811067ffffffffffffffff821117610c5957604052565b634e487b7160e01b5f52604160045260245ffd5b67ffffffffffffffff8111610c5957601f01601f191660200190565b9190820180921161094057565b15610c9d57565b60405162461bcd60e51b815260206004820152600e60248201526d125b9d985b1a5908185b5bdd5b9d60921b6044820152606490fd5b6001600160a01b03168015610d31575f516020610e2f5f395f51905f5280546001600160a01b0319811683179091556001600160a01b03167f8be0079c531659141344cd1fd0a4f28419497f9722a3daafe3b4186f6b6457e05f80a3565b631e4fbdf760e01b5f525f60045260245ffd5b5f516020610e2f5f395f51905f52546001600160a01b03163303610d6457565b63118cdaa760e01b5f523360045260245ffd5b60ff5f516020610e6f5f395f51905f525460401c1615610d9357565b631afcd79f60e31b5f5260045ffd5b905f8091602081519101845af48080610e1b575b15610dd65750506040513d81523d5f602083013e60203d82010160405290565b15610dfb57639996b31560e01b5f9081526001600160a01b0391909116600452602490fd5b3d15610e0c576040513d5f823e3d90fd5b63d6bda27560e01b5f5260045ffd5b503d151580610db65750813b1515610db656fe9016d09d72d40fdae2fd8ceac6b6234c7706214fd39c1cd1e609a0528c199300360894a13ba1a3210667c828492db98dca3e2076cc3735a920a3ca505d382bbcf0c57e16840df040f15088dc2f81fe391c3923bec73e23a9662efc9c229c6a00a26469706673582212206f2f3e135b4d80f1a4110203710e7bb803c238eb50932adf4899a0756fa90a0f64736f6c634300081c0033f0c57e16840df040f15088dc2f81fe391c3923bec73e23a9662efc9c229c6a00",
  "linkReferences": {},
  "deployedLinkReferences": {}
}